{
  "_format": "hh-sol-artifact-1",
  "contractName": "WithdrawInbox",
  "sourceName": "contracts/cBridge/liquidity-bridge/WithdrawInbox.sol",
  "abi": [
    {
      "inputs": [],
      "stateMutability": "nonpayable",
      "type": "constructor"
    },
    {
      "anonymous": false,
      "inputs": [
        {
          "indexed": true,
          "internalType": "address",
          "name": "previousOwner",
          "type": "address"
        },
        {
          "indexed": true,
          "internalType": "address",
          "name": "newOwner",
          "type": "address"
        }
      ],
      "name": "OwnershipTransferred",
      "type": "event"
    },
    {
      "anonymous": false,
      "inputs": [
        {
          "indexed": false,
          "internalType": "uint64",
          "name": "seqNum",
          "type": "uint64"
        },
        {
          "indexed": false,
          "internalType": "address",
          "name": "sender",
          "type": "address"
        },
        {
          "indexed": false,
          "internalType": "address",
          "name": "receiver",
          "type": "address"
        },
        {
          "indexed": false,
          "internalType": "uint64",
          "name": "toChain",
          "type": "uint64"
        },
        {
          "indexed": false,
          "internalType": "uint64[]",
          "name": "fromChains",
          "type": "uint64[]"
        },
        {
          "indexed": false,
          "internalType": "address[]",
          "name": "tokens",
          "type": "address[]"
        },
        {
          "indexed": false,
          "internalType": "uint32[]",
          "name": "ratios",
          "type": "uint32[]"
        },
        {
          "indexed": false,
          "internalType": "uint32[]",
          "name": "slippages",
          "type": "uint32[]"
        },
        {
          "indexed": false,
          "internalType": "uint256",
          "name": "deadline",
          "type": "uint256"
        }
      ],
      "name": "WithdrawalRequest",
      "type": "event"
    },
    {
      "inputs": [],
      "name": "minimalMaxSlippage",
      "outputs": [
        {
          "internalType": "uint32",
          "name": "",
          "type": "uint32"
        }
      ],
      "stateMutability": "view",
      "type": "function"
    },
    {
      "inputs": [],
      "name": "owner",
      "outputs": [
        {
          "internalType": "address",
          "name": "",
          "type": "address"
        }
      ],
      "stateMutability": "view",
      "type": "function"
    },
    {
      "inputs": [
        {
          "internalType": "uint32",
          "name": "_minimalMaxSlippage",
          "type": "uint32"
        }
      ],
      "name": "setMinimalMaxSlippage",
      "outputs": [],
      "stateMutability": "nonpayable",
      "type": "function"
    },
    {
      "inputs": [
        {
          "internalType": "uint256",
          "name": "_validityPeriod",
          "type": "uint256"
        }
      ],
      "name": "setValidityPeriod",
      "outputs": [],
      "stateMutability": "nonpayable",
      "type": "function"
    },
    {
      "inputs": [
        {
          "internalType": "address",
          "name": "newOwner",
          "type": "address"
        }
      ],
      "name": "transferOwnership",
      "outputs": [],
      "stateMutability": "nonpayable",
      "type": "function"
    },
    {
      "inputs": [],
      "name": "validityPeriod",
      "outputs": [
        {
          "internalType": "uint256",
          "name": "",
          "type": "uint256"
        }
      ],
      "stateMutability": "view",
      "type": "function"
    },
    {
      "inputs": [
        {
          "internalType": "uint64",
          "name": "_wdSeq",
          "type": "uint64"
        },
        {
          "internalType": "address",
          "name": "_receiver",
          "type": "address"
        },
        {
          "internalType": "uint64",
          "name": "_toChain",
          "type": "uint64"
        },
        {
          "internalType": "uint64[]",
          "name": "_fromChains",
          "type": "uint64[]"
        },
        {
          "internalType": "address[]",
          "name": "_tokens",
          "type": "address[]"
        },
        {
          "internalType": "uint32[]",
          "name": "_ratios",
          "type": "uint32[]"
        },
        {
          "internalType": "uint32[]",
          "name": "_slippages",
          "type": "uint32[]"
        }
      ],
      "name": "withdraw",
      "outputs": [],
      "stateMutability": "nonpayable",
      "type": "function"
    }
  ],
  "bytecode": "0x608060405234801561001057600080fd5b5061001a33610025565b611c20600155610075565b600080546001600160a01b038381166001600160a01b0319831681178455604051919092169283917f8be0079c531659141344cd1fd0a4f28419497f9722a3daafe3b4186f6b6457e09190a35050565b61092d806100846000396000f3fe608060405234801561001057600080fd5b506004361061007d5760003560e01c806387e647ed1161005b57806387e647ed146100df5780638da5cb5b146100f2578063a48552961461010d578063f2fde38b1461012057600080fd5b80631e6c3850146100825780632fd1b0a41461009e57806348234126146100ca575b600080fd5b61008b60015481565b6040519081526020015b60405180910390f35b6000546100b590600160a01b900463ffffffff1681565b60405163ffffffff9091168152602001610095565b6100dd6100d8366004610545565b610133565b005b6100dd6100ed366004610567565b61019b565b6000546040516001600160a01b039091168152602001610095565b6100dd61011b3660046105fb565b6101d9565b6100dd61012e3660046106f8565b610432565b336101466000546001600160a01b031690565b6001600160a01b0316146101755760405162461bcd60e51b815260040161016c90610713565b60405180910390fd5b6000805463ffffffff909216600160a01b0263ffffffff60a01b19909216919091179055565b336101ae6000546001600160a01b031690565b6001600160a01b0316146101d45760405162461bcd60e51b815260040161016c90610713565b600155565b866102265760405162461bcd60e51b815260206004820152601860248201527f656d707479207769746864726177616c20726571756573740000000000000000604482015260640161016c565b848714801561023457508287145b801561023f57508087145b61027d5760405162461bcd60e51b815260206004820152600f60248201526e0d8cadccee8d040dad2e6dac2e8c6d608b1b604482015260640161016c565b60005b838110156103c257600085858381811061029c5761029c610748565b90506020020160208101906102b19190610545565b63ffffffff161180156102f457506305f5e1008585838181106102d6576102d6610748565b90506020020160208101906102eb9190610545565b63ffffffff1611155b6103305760405162461bcd60e51b815260206004820152600d60248201526c696e76616c696420726174696f60981b604482015260640161016c565b600054600160a01b900463ffffffff1683838381811061035257610352610748565b90506020020160208101906103679190610545565b63ffffffff1610156103b05760405162461bcd60e51b81526020600482015260126024820152711cdb1a5c1c1859d9481d1bdbc81cdb585b1b60721b604482015260640161016c565b806103ba81610774565b915050610280565b506000600154426103d3919061078f565b90507f7e2b24139224d852dd26bdb9f06f8136f7a1c9227a386d815a4ed8f1b8d7cc958c338d8d8d8d8d8d8d8d8d8d8d60405161041c9d9c9b9a99989796959493929190610827565b60405180910390a1505050505050505050505050565b336104456000546001600160a01b031690565b6001600160a01b03161461046b5760405162461bcd60e51b815260040161016c90610713565b6001600160a01b0381166104d05760405162461bcd60e51b815260206004820152602660248201527f4f776e61626c653a206e6577206f776e657220697320746865207a65726f206160448201526564647265737360d01b606482015260840161016c565b6104d9816104dc565b50565b600080546001600160a01b038381166001600160a01b0319831681178455604051919092169283917f8be0079c531659141344cd1fd0a4f28419497f9722a3daafe3b4186f6b6457e09190a35050565b803563ffffffff8116811461054057600080fd5b919050565b60006020828403121561055757600080fd5b6105608261052c565b9392505050565b60006020828403121561057957600080fd5b5035919050565b803567ffffffffffffffff8116811461054057600080fd5b80356001600160a01b038116811461054057600080fd5b60008083601f8401126105c157600080fd5b50813567ffffffffffffffff8111156105d957600080fd5b6020830191508360208260051b85010111156105f457600080fd5b9250929050565b600080600080600080600080600080600060e08c8e03121561061c57600080fd5b6106258c610580565b9a5061063360208d01610598565b995061064160408d01610580565b985067ffffffffffffffff8060608e0135111561065d57600080fd5b61066d8e60608f01358f016105af565b909950975060808d013581101561068357600080fd5b6106938e60808f01358f016105af565b909750955060a08d01358110156106a957600080fd5b6106b98e60a08f01358f016105af565b909550935060c08d01358110156106cf57600080fd5b506106e08d60c08e01358e016105af565b81935080925050509295989b509295989b9093969950565b60006020828403121561070a57600080fd5b61056082610598565b6020808252818101527f4f776e61626c653a2063616c6c6572206973206e6f7420746865206f776e6572604082015260600190565b634e487b7160e01b600052603260045260246000fd5b634e487b7160e01b600052601160045260246000fd5b60006000198214156107885761078861075e565b5060010190565b600082198211156107a2576107a261075e565b500190565b8183526000602080850194508260005b858110156107e3576001600160a01b036107d083610598565b16875295820195908201906001016107b7565b509495945050505050565b8183526000602080850194508260005b858110156107e35763ffffffff6108148361052c565b16875295820195908201906001016107fe565b67ffffffffffffffff8e811682526001600160a01b038e811660208401528d1660408301528b166060820152610120608082018190528101899052600061014082018b825b8c81101561089c5767ffffffffffffffff61088683610580565b168352602092830192919091019060010161086c565b505082810360a08401526108b1818a8c6107a7565b905082810360c08401526108c681888a6107ee565b905082810360e08401526108db8186886107ee565b915050826101008301529e9d505050505050505050505050505056fea2646970667358221220afbaccdc36dc5dfe992216856590c26debe2bd83afcb04a63ad157a9294e547364736f6c63430008090033",
  "linkReferences": {},
  "deployedLinkReferences": {}
}