{
  "_format": "hh-sol-artifact-1",
  "contractName": "SGN",
  "sourceName": "contracts/cBridge/staking/SGN.sol",
  "abi": [
    {
      "inputs": [
        {
          "internalType": "contract Staking",
          "name": "_staking",
          "type": "address"
        }
      ],
      "stateMutability": "nonpayable",
      "type": "constructor"
    },
    {
      "anonymous": false,
      "inputs": [
        {
          "indexed": false,
          "internalType": "uint256",
          "name": "depositId",
          "type": "uint256"
        },
        {
          "indexed": false,
          "internalType": "address",
          "name": "account",
          "type": "address"
        },
        {
          "indexed": false,
          "internalType": "address",
          "name": "token",
          "type": "address"
        },
        {
          "indexed": false,
          "internalType": "uint256",
          "name": "amount",
          "type": "uint256"
        }
      ],
      "name": "Deposit",
      "type": "event"
    },
    {
      "anonymous": false,
      "inputs": [
        {
          "indexed": true,
          "internalType": "address",
          "name": "previousOwner",
          "type": "address"
        },
        {
          "indexed": true,
          "internalType": "address",
          "name": "newOwner",
          "type": "address"
        }
      ],
      "name": "OwnershipTransferred",
      "type": "event"
    },
    {
      "anonymous": false,
      "inputs": [
        {
          "indexed": false,
          "internalType": "address",
          "name": "account",
          "type": "address"
        }
      ],
      "name": "Paused",
      "type": "event"
    },
    {
      "anonymous": false,
      "inputs": [
        {
          "indexed": false,
          "internalType": "address",
          "name": "account",
          "type": "address"
        }
      ],
      "name": "PauserAdded",
      "type": "event"
    },
    {
      "anonymous": false,
      "inputs": [
        {
          "indexed": false,
          "internalType": "address",
          "name": "account",
          "type": "address"
        }
      ],
      "name": "PauserRemoved",
      "type": "event"
    },
    {
      "anonymous": false,
      "inputs": [
        {
          "indexed": true,
          "internalType": "address",
          "name": "valAddr",
          "type": "address"
        },
        {
          "indexed": false,
          "internalType": "bytes",
          "name": "oldAddr",
          "type": "bytes"
        },
        {
          "indexed": false,
          "internalType": "bytes",
          "name": "newAddr",
          "type": "bytes"
        }
      ],
      "name": "SgnAddrUpdate",
      "type": "event"
    },
    {
      "anonymous": false,
      "inputs": [
        {
          "indexed": false,
          "internalType": "address",
          "name": "account",
          "type": "address"
        }
      ],
      "name": "Unpaused",
      "type": "event"
    },
    {
      "anonymous": false,
      "inputs": [
        {
          "indexed": false,
          "internalType": "address",
          "name": "account",
          "type": "address"
        },
        {
          "indexed": false,
          "internalType": "address",
          "name": "token",
          "type": "address"
        },
        {
          "indexed": false,
          "internalType": "uint256",
          "name": "amount",
          "type": "uint256"
        }
      ],
      "name": "Withdraw",
      "type": "event"
    },
    {
      "inputs": [
        {
          "internalType": "address",
          "name": "account",
          "type": "address"
        }
      ],
      "name": "addPauser",
      "outputs": [],
      "stateMutability": "nonpayable",
      "type": "function"
    },
    {
      "inputs": [
        {
          "internalType": "address",
          "name": "_token",
          "type": "address"
        },
        {
          "internalType": "uint256",
          "name": "_amount",
          "type": "uint256"
        }
      ],
      "name": "deposit",
      "outputs": [],
      "stateMutability": "nonpayable",
      "type": "function"
    },
    {
      "inputs": [
        {
          "internalType": "uint256",
          "name": "",
          "type": "uint256"
        }
      ],
      "name": "deposits",
      "outputs": [
        {
          "internalType": "bytes32",
          "name": "",
          "type": "bytes32"
        }
      ],
      "stateMutability": "view",
      "type": "function"
    },
    {
      "inputs": [
        {
          "internalType": "address",
          "name": "_token",
          "type": "address"
        },
        {
          "internalType": "uint256",
          "name": "_amount",
          "type": "uint256"
        }
      ],
      "name": "drainToken",
      "outputs": [],
      "stateMutability": "nonpayable",
      "type": "function"
    },
    {
      "inputs": [
        {
          "internalType": "address",
          "name": "account",
          "type": "address"
        }
      ],
      "name": "isPauser",
      "outputs": [
        {
          "internalType": "bool",
          "name": "",
          "type": "bool"
        }
      ],
      "stateMutability": "view",
      "type": "function"
    },
    {
      "inputs": [],
      "name": "owner",
      "outputs": [
        {
          "internalType": "address",
          "name": "",
          "type": "address"
        }
      ],
      "stateMutability": "view",
      "type": "function"
    },
    {
      "inputs": [],
      "name": "pause",
      "outputs": [],
      "stateMutability": "nonpayable",
      "type": "function"
    },
    {
      "inputs": [],
      "name": "paused",
      "outputs": [
        {
          "internalType": "bool",
          "name": "",
          "type": "bool"
        }
      ],
      "stateMutability": "view",
      "type": "function"
    },
    {
      "inputs": [
        {
          "internalType": "address",
          "name": "",
          "type": "address"
        }
      ],
      "name": "pausers",
      "outputs": [
        {
          "internalType": "bool",
          "name": "",
          "type": "bool"
        }
      ],
      "stateMutability": "view",
      "type": "function"
    },
    {
      "inputs": [
        {
          "internalType": "address",
          "name": "account",
          "type": "address"
        }
      ],
      "name": "removePauser",
      "outputs": [],
      "stateMutability": "nonpayable",
      "type": "function"
    },
    {
      "inputs": [],
      "name": "renouncePauser",
      "outputs": [],
      "stateMutability": "nonpayable",
      "type": "function"
    },
    {
      "inputs": [
        {
          "internalType": "address",
          "name": "",
          "type": "address"
        }
      ],
      "name": "sgnAddrs",
      "outputs": [
        {
          "internalType": "bytes",
          "name": "",
          "type": "bytes"
        }
      ],
      "stateMutability": "view",
      "type": "function"
    },
    {
      "inputs": [],
      "name": "staking",
      "outputs": [
        {
          "internalType": "contract Staking",
          "name": "",
          "type": "address"
        }
      ],
      "stateMutability": "view",
      "type": "function"
    },
    {
      "inputs": [
        {
          "internalType": "address",
          "name": "newOwner",
          "type": "address"
        }
      ],
      "name": "transferOwnership",
      "outputs": [],
      "stateMutability": "nonpayable",
      "type": "function"
    },
    {
      "inputs": [],
      "name": "unpause",
      "outputs": [],
      "stateMutability": "nonpayable",
      "type": "function"
    },
    {
      "inputs": [
        {
          "internalType": "bytes",
          "name": "_sgnAddr",
          "type": "bytes"
        }
      ],
      "name": "updateSgnAddr",
      "outputs": [],
      "stateMutability": "nonpayable",
      "type": "function"
    },
    {
      "inputs": [
        {
          "internalType": "bytes",
          "name": "_withdrawalRequest",
          "type": "bytes"
        },
        {
          "internalType": "bytes[]",
          "name": "_sigs",
          "type": "bytes[]"
        }
      ],
      "name": "withdraw",
      "outputs": [],
      "stateMutability": "nonpayable",
      "type": "function"
    },
    {
      "inputs": [
        {
          "internalType": "address",
          "name": "",
          "type": "address"
        },
        {
          "internalType": "address",
          "name": "",
          "type": "address"
        }
      ],
      "name": "withdrawnAmts",
      "outputs": [
        {
          "internalType": "uint256",
          "name": "",
          "type": "uint256"
        }
      ],
      "stateMutability": "view",
      "type": "function"
    }
  ],
  "bytecode": "0x60a06040523480156200001157600080fd5b5060405162001e7838038062001e78833981016040819052620000349162000182565b6200003f3362000069565b6000805460ff60a01b191690556200005733620000b9565b6001600160a01b0316608052620001b4565b600080546001600160a01b038381166001600160a01b0319831681178455604051919092169283917f8be0079c531659141344cd1fd0a4f28419497f9722a3daafe3b4186f6b6457e09190a35050565b6001600160a01b03811660009081526001602052604090205460ff1615620001275760405162461bcd60e51b815260206004820152601960248201527f4163636f756e7420697320616c72656164792070617573657200000000000000604482015260640160405180910390fd5b6001600160a01b038116600081815260016020818152604092839020805460ff191690921790915590519182527f6719d08c1888103bea251a4ed56406bd0c3e69723c8a1686e017e7bbe159b6f8910160405180910390a150565b6000602082840312156200019557600080fd5b81516001600160a01b0381168114620001ad57600080fd5b9392505050565b608051611c85620001f3600039600081816101650152818161065c015281816106f9015281816107a0015281816109580152610a740152611c856000f3fe608060405234801561001057600080fd5b50600436106101165760003560e01c806382dc1ec4116100a2578063b02c43d011610071578063b02c43d014610267578063c429fe1f1461027a578063d0bb93511461029a578063d88ef271146102ad578063f2fde38b146102c057600080fd5b806382dc1ec4146102285780638456cb591461023b5780638da5cb5b146102435780639d4323be1461025457600080fd5b80635c975abb116100e95780635c975abb1461019f5780636b2c0f55146101b15780636ef8d66d146101c4578063795c2c14146101cc57806380f51c121461020557600080fd5b80633f4ba83a1461011b57806346fbf68e1461012557806347e7ef241461014d5780634cf088d914610160575b600080fd5b6101236102d3565b005b6101386101333660046116ff565b61032e565b60405190151581526020015b60405180910390f35b61012361015b36600461171c565b61034c565b6101877f000000000000000000000000000000000000000000000000000000000000000081565b6040516001600160a01b039091168152602001610144565b600054600160a01b900460ff16610138565b6101236101bf3660046116ff565b610441565b610123610486565b6101f76101da366004611748565b600360209081526000928352604080842090915290825290205481565b604051908152602001610144565b6101386102133660046116ff565b60016020526000908152604090205460ff1681565b6101236102363660046116ff565b61048f565b6101236104d1565b6000546001600160a01b0316610187565b61012361026236600461171c565b610525565b6101f7610275366004611781565b61057e565b61028d6102883660046116ff565b61059f565b60405161014491906117f2565b6101236102a836600461184e565b610639565b6101236102bb366004611890565b610a0f565b6101236102ce3660046116ff565b610cad565b6102dc3361032e565b6103245760405162461bcd60e51b815260206004820152601460248201527321b0b63632b91034b9903737ba103830bab9b2b960611b60448201526064015b60405180910390fd5b61032c610d54565b565b6001600160a01b031660009081526001602052604090205460ff1690565b610354610da9565b6040516bffffffffffffffffffffffff1933606081811b8316602085015285901b9091166034830152604882018390529060029060680160408051601f198184030181529190528051602091820120825460018101845560009384529190922001556103cb6001600160a01b038416823085610df6565b6002546000906103dd90600190611940565b6040805167ffffffffffffffff831681526001600160a01b0385811660208301528716818301526060810186905290519192507f2c0f148b435140de488c1b34647f1511c646f7077e87007bacf22ef9977a16d8919081900360800190a150505050565b336104546000546001600160a01b031690565b6001600160a01b03161461047a5760405162461bcd60e51b815260040161031b90611957565b61048381610e67565b50565b61032c33610e67565b336104a26000546001600160a01b031690565b6001600160a01b0316146104c85760405162461bcd60e51b815260040161031b90611957565b61048381610f0c565b6104da3361032e565b61051d5760405162461bcd60e51b815260206004820152601460248201527321b0b63632b91034b9903737ba103830bab9b2b960611b604482015260640161031b565b61032c610fb7565b61052d610ffa565b336105406000546001600160a01b031690565b6001600160a01b0316146105665760405162461bcd60e51b815260040161031b90611957565b61057a6001600160a01b038316338361104a565b5050565b6002818154811061058e57600080fd5b600091825260209091200154905081565b600460205260009081526040902080546105b89061198c565b80601f01602080910402602001604051908101604052809291908181526020018280546105e49061198c565b80156106315780601f1061060657610100808354040283529160200191610631565b820191906000526020600020905b81548152906001019060200180831161061457829003601f168201915b505050505081565b604051636d30878360e01b81523360048201819052906000906001600160a01b037f00000000000000000000000000000000000000000000000000000000000000001690636d3087839060240160206040518083038186803b15801561069e57600080fd5b505afa1580156106b2573d6000803e3d6000fd5b505050506040513d601f19601f820116820180604052508101906106d691906119c7565b6001600160a01b03161461077e57604051636d30878360e01b81523360048201527f00000000000000000000000000000000000000000000000000000000000000006001600160a01b031690636d3087839060240160206040518083038186803b15801561074357600080fd5b505afa158015610757573d6000803e3d6000fd5b505050506040513d601f19601f8201168201806040525081019061077b91906119c7565b90505b60405163a310624f60e01b81526001600160a01b0382811660048301526000917f00000000000000000000000000000000000000000000000000000000000000009091169063a310624f9060240160206040518083038186803b1580156107e457600080fd5b505afa1580156107f8573d6000803e3d6000fd5b505050506040513d601f19601f8201168201806040525081019061081c91906119e4565b9050600181600381111561083257610832611a05565b146108785760405162461bcd60e51b81526020600482015260166024820152752737ba103ab73137b73232b2103b30b634b230ba37b960511b604482015260640161031b565b6001600160a01b0382166000908152600460205260408120805461089b9061198c565b80601f01602080910402602001604051908101604052809291908181526020018280546108c79061198c565b80156109145780601f106108e957610100808354040283529160200191610914565b820191906000526020600020905b8154815290600101906020018083116108f757829003601f168201915b505050506001600160a01b03851660009081526004602052604090209192506109409190508686611651565b506040516309146f1160e41b81526001600160a01b037f00000000000000000000000000000000000000000000000000000000000000001690639146f1109061099190869089908990600401611a44565b600060405180830381600087803b1580156109ab57600080fd5b505af11580156109bf573d6000803e3d6000fd5b50505050826001600160a01b03167f8ec5397226cce05bb5f1189621dc680f015802f7f73f89be1a9e89b6af41dcb4828787604051610a0093929190611a8e565b60405180910390a25050505050565b610a17610da9565b60004630604051602001610a5a92919091825260601b6bffffffffffffffffffffffff191660208201526915da5d1a191c985dd85b60b21b6034820152603e0190565b6040516020818303038152906040528051906020012090507f00000000000000000000000000000000000000000000000000000000000000006001600160a01b0316638a74d5fe828787604051602001610ab693929190611abe565b60405160208183030381529060405285856040518463ffffffff1660e01b8152600401610ae593929190611ad8565b60206040518083038186803b158015610afd57600080fd5b505afa158015610b11573d6000803e3d6000fd5b505050506040513d601f19601f82011682018060405250810190610b359190611b87565b506000610b7786868080601f01602080910402602001604051908101604052809392919081815260200183838082843760009201919091525061107f92505050565b80516001600160a01b039081166000908152600360209081526040808320828601519094168352929052818120549183015192935091610bb79190611940565b905060008111610c095760405162461bcd60e51b815260206004820152601960248201527f4e6f206e657720616d6f756e7420746f20776974686472617700000000000000604482015260640161031b565b60408083015183516001600160a01b0390811660009081526003602090815284822081880180518516845291529390209190915583519151610c4e929116908361104a565b8151602080840151604080516001600160a01b039485168152939091169183019190915281018290527f9b1bfa7fa9ee420a16e124f794c35ac9f90472acc99140eb2f6447c714cad8eb9060600160405180910390a150505050505050565b33610cc06000546001600160a01b031690565b6001600160a01b031614610ce65760405162461bcd60e51b815260040161031b90611957565b6001600160a01b038116610d4b5760405162461bcd60e51b815260206004820152602660248201527f4f776e61626c653a206e6577206f776e657220697320746865207a65726f206160448201526564647265737360d01b606482015260840161031b565b6104838161115a565b610d5c610ffa565b6000805460ff60a01b191690557f5db9ee0a495bf2e6ff9c91a7834c1ba4fdd244a5e8aa4e537bd38aeae4b073aa335b6040516001600160a01b03909116815260200160405180910390a1565b600054600160a01b900460ff161561032c5760405162461bcd60e51b815260206004820152601060248201526f14185d5cd8589b194e881c185d5cd95960821b604482015260640161031b565b6040516001600160a01b0380851660248301528316604482015260648101829052610e619085906323b872dd60e01b906084015b60408051601f198184030181529190526020810180516001600160e01b03166001600160e01b0319909316929092179091526111aa565b50505050565b610e708161032e565b610eb45760405162461bcd60e51b815260206004820152601560248201527420b1b1b7bab73a1034b9903737ba103830bab9b2b960591b604482015260640161031b565b6001600160a01b038116600081815260016020908152604091829020805460ff1916905590519182527fcd265ebaf09df2871cc7bd4133404a235ba12eff2041bb89d9c714a2621c7c7e91015b60405180910390a150565b610f158161032e565b15610f625760405162461bcd60e51b815260206004820152601960248201527f4163636f756e7420697320616c72656164792070617573657200000000000000604482015260640161031b565b6001600160a01b038116600081815260016020818152604092839020805460ff191690921790915590519182527f6719d08c1888103bea251a4ed56406bd0c3e69723c8a1686e017e7bbe159b6f89101610f01565b610fbf610da9565b6000805460ff60a01b1916600160a01b1790557f62e78cea01bee320cd4e420270b5ea74000d11b0c9f74754ebdbfc544b05a258610d8c3390565b600054600160a01b900460ff1661032c5760405162461bcd60e51b815260206004820152601460248201527314185d5cd8589b194e881b9bdd081c185d5cd95960621b604482015260640161031b565b6040516001600160a01b03831660248201526044810182905261107a90849063a9059cbb60e01b90606401610e2a565b505050565b604080516060810182526000808252602080830182905282840182905283518085019094528184528301849052909190805b60208301515183511015611152576110c88361127c565b909250905081600114156110f7576110e76110e2846112b6565b611373565b6001600160a01b031684526110b1565b816002141561111f5761110c6110e2846112b6565b6001600160a01b031660208501526110b1565b816003141561114357611139611134846112b6565b611384565b60408501526110b1565b61114d83826113bb565b6110b1565b505050919050565b600080546001600160a01b038381166001600160a01b0319831681178455604051919092169283917f8be0079c531659141344cd1fd0a4f28419497f9722a3daafe3b4186f6b6457e09190a35050565b60006111ff826040518060400160405280602081526020017f5361666545524332303a206c6f772d6c6576656c2063616c6c206661696c6564815250856001600160a01b031661142d9092919063ffffffff16565b80519091501561107a578080602001905181019061121d9190611b87565b61107a5760405162461bcd60e51b815260206004820152602a60248201527f5361666545524332303a204552433230206f7065726174696f6e20646964206e6044820152691bdd081cdd58d8d9595960b21b606482015260840161031b565b600080600061128a84611446565b9050611297600882611ba9565b92508060071660058111156112ae576112ae611a05565b915050915091565b606060006112c383611446565b905060008184600001516112d79190611bcb565b90508360200151518111156112eb57600080fd5b8167ffffffffffffffff81111561130457611304611be3565b6040519080825280601f01601f19166020018201604052801561132e576020820181803683370190505b50602080860151865192955091818601919083010160005b85811015611368578181015183820152611361602082611bcb565b9050611346565b505050935250919050565b600061137e826114c8565b92915050565b600060208251111561139557600080fd5b60208201519050815160206113aa9190611940565b6113b5906008611bf9565b1c919050565b60008160058111156113cf576113cf611a05565b14156113de5761107a82611446565b60028160058111156113f2576113f2611a05565b141561011657600061140383611446565b905080836000018181516114179190611bcb565b9052506020830151518351111561107a57600080fd5b606061143c84846000856114e7565b90505b9392505050565b602080820151825181019091015160009182805b600a8110156114c25783811a9150611473816007611bf9565b82607f16901b8517945081608016600014156114b057611494816001611bcb565b865187906114a3908390611bcb565b9052509395945050505050565b806114ba81611c18565b91505061145a565b50600080fd5b600081516014146114d857600080fd5b5060200151600160601b900490565b6060824710156115485760405162461bcd60e51b815260206004820152602660248201527f416464726573733a20696e73756666696369656e742062616c616e636520666f6044820152651c8818d85b1b60d21b606482015260840161031b565b6001600160a01b0385163b61159f5760405162461bcd60e51b815260206004820152601d60248201527f416464726573733a2063616c6c20746f206e6f6e2d636f6e7472616374000000604482015260640161031b565b600080866001600160a01b031685876040516115bb9190611c33565b60006040518083038185875af1925050503d80600081146115f8576040519150601f19603f3d011682016040523d82523d6000602084013e6115fd565b606091505b509150915061160d828286611618565b979650505050505050565b6060831561162757508161143f565b8251156116375782518084602001fd5b8160405162461bcd60e51b815260040161031b91906117f2565b82805461165d9061198c565b90600052602060002090601f01602090048101928261167f57600085556116c5565b82601f106116985782800160ff198235161785556116c5565b828001600101855582156116c5579182015b828111156116c55782358255916020019190600101906116aa565b506116d19291506116d5565b5090565b5b808211156116d157600081556001016116d6565b6001600160a01b038116811461048357600080fd5b60006020828403121561171157600080fd5b813561143f816116ea565b6000806040838503121561172f57600080fd5b823561173a816116ea565b946020939093013593505050565b6000806040838503121561175b57600080fd5b8235611766816116ea565b91506020830135611776816116ea565b809150509250929050565b60006020828403121561179357600080fd5b5035919050565b60005b838110156117b557818101518382015260200161179d565b83811115610e615750506000910152565b600081518084526117de81602086016020860161179a565b601f01601f19169290920160200192915050565b60208152600061143f60208301846117c6565b60008083601f84011261181757600080fd5b50813567ffffffffffffffff81111561182f57600080fd5b60208301915083602082850101111561184757600080fd5b9250929050565b6000806020838503121561186157600080fd5b823567ffffffffffffffff81111561187857600080fd5b61188485828601611805565b90969095509350505050565b600080600080604085870312156118a657600080fd5b843567ffffffffffffffff808211156118be57600080fd5b6118ca88838901611805565b909650945060208701359150808211156118e357600080fd5b818701915087601f8301126118f757600080fd5b81358181111561190657600080fd5b8860208260051b850101111561191b57600080fd5b95989497505060200194505050565b634e487b7160e01b600052601160045260246000fd5b6000828210156119525761195261192a565b500390565b6020808252818101527f4f776e61626c653a2063616c6c6572206973206e6f7420746865206f776e6572604082015260600190565b600181811c908216806119a057607f821691505b602082108114156119c157634e487b7160e01b600052602260045260246000fd5b50919050565b6000602082840312156119d957600080fd5b815161143f816116ea565b6000602082840312156119f657600080fd5b81516004811061143f57600080fd5b634e487b7160e01b600052602160045260246000fd5b81835281816020850137506000828201602090810191909152601f909101601f19169091010190565b60018060a01b038416815260606020820152600860608201526739b3b716b0b2323960c11b608082015260a060408201526000611a8560a083018486611a1b565b95945050505050565b604081526000611aa160408301866117c6565b8281036020840152611ab4818587611a1b565b9695505050505050565b838152818360208301376000910160200190815292915050565b604081526000611aeb60408301866117c6565b602083820381850152818583528183019050818660051b8401018760005b88811015611b7857858303601f190184528135368b9003601e19018112611b2f57600080fd5b8a01803567ffffffffffffffff811115611b4857600080fd5b8036038c1315611b5757600080fd5b611b648582898501611a1b565b958701959450505090840190600101611b09565b50909998505050505050505050565b600060208284031215611b9957600080fd5b8151801515811461143f57600080fd5b600082611bc657634e487b7160e01b600052601260045260246000fd5b500490565b60008219821115611bde57611bde61192a565b500190565b634e487b7160e01b600052604160045260246000fd5b6000816000190483118215151615611c1357611c1361192a565b500290565b6000600019821415611c2c57611c2c61192a565b5060010190565b60008251611c4581846020870161179a565b919091019291505056fea2646970667358221220605ee10d982a91b470580a1b74038148806aad257a362b11e11288480db0c38564736f6c63430008090033",
  "linkReferences": {},
  "deployedLinkReferences": {}
}