{
  "_format": "hh-sol-artifact-1",
  "contractName": "MsgExampleBasicTransfer",
  "sourceName": "contracts/cBridge/message/apps/examples/MsgExampleBasicTransfer.sol",
  "abi": [
    {
      "inputs": [
        {
          "internalType": "address",
          "name": "_messageBus",
          "type": "address"
        }
      ],
      "stateMutability": "nonpayable",
      "type": "constructor"
    },
    {
      "anonymous": false,
      "inputs": [
        {
          "indexed": false,
          "internalType": "address",
          "name": "messageBus",
          "type": "address"
        }
      ],
      "name": "MessageBusUpdated",
      "type": "event"
    },
    {
      "anonymous": false,
      "inputs": [
        {
          "indexed": false,
          "internalType": "address",
          "name": "sender",
          "type": "address"
        },
        {
          "indexed": false,
          "internalType": "address",
          "name": "token",
          "type": "address"
        },
        {
          "indexed": false,
          "internalType": "uint256",
          "name": "amount",
          "type": "uint256"
        },
        {
          "indexed": false,
          "internalType": "uint64",
          "name": "srcChainId",
          "type": "uint64"
        },
        {
          "indexed": false,
          "internalType": "bytes",
          "name": "note",
          "type": "bytes"
        }
      ],
      "name": "MessageWithTransferReceived",
      "type": "event"
    },
    {
      "anonymous": false,
      "inputs": [
        {
          "indexed": false,
          "internalType": "address",
          "name": "sender",
          "type": "address"
        },
        {
          "indexed": false,
          "internalType": "address",
          "name": "token",
          "type": "address"
        },
        {
          "indexed": false,
          "internalType": "uint256",
          "name": "amount",
          "type": "uint256"
        },
        {
          "indexed": false,
          "internalType": "bytes",
          "name": "note",
          "type": "bytes"
        }
      ],
      "name": "MessageWithTransferRefunded",
      "type": "event"
    },
    {
      "anonymous": false,
      "inputs": [
        {
          "indexed": true,
          "internalType": "address",
          "name": "previousOwner",
          "type": "address"
        },
        {
          "indexed": true,
          "internalType": "address",
          "name": "newOwner",
          "type": "address"
        }
      ],
      "name": "OwnershipTransferred",
      "type": "event"
    },
    {
      "inputs": [
        {
          "internalType": "address",
          "name": "",
          "type": "address"
        },
        {
          "internalType": "address",
          "name": "",
          "type": "address"
        }
      ],
      "name": "balances",
      "outputs": [
        {
          "internalType": "uint256",
          "name": "",
          "type": "uint256"
        }
      ],
      "stateMutability": "view",
      "type": "function"
    },
    {
      "inputs": [
        {
          "internalType": "bytes",
          "name": "_sender",
          "type": "bytes"
        },
        {
          "internalType": "uint64",
          "name": "_srcChainId",
          "type": "uint64"
        },
        {
          "internalType": "bytes",
          "name": "_message",
          "type": "bytes"
        },
        {
          "internalType": "address",
          "name": "_executor",
          "type": "address"
        }
      ],
      "name": "executeMessage",
      "outputs": [
        {
          "internalType": "enum IMessageReceiverApp.ExecutionStatus",
          "name": "",
          "type": "uint8"
        }
      ],
      "stateMutability": "payable",
      "type": "function"
    },
    {
      "inputs": [
        {
          "internalType": "address",
          "name": "_sender",
          "type": "address"
        },
        {
          "internalType": "uint64",
          "name": "_srcChainId",
          "type": "uint64"
        },
        {
          "internalType": "bytes",
          "name": "_message",
          "type": "bytes"
        },
        {
          "internalType": "address",
          "name": "_executor",
          "type": "address"
        }
      ],
      "name": "executeMessage",
      "outputs": [
        {
          "internalType": "enum IMessageReceiverApp.ExecutionStatus",
          "name": "",
          "type": "uint8"
        }
      ],
      "stateMutability": "payable",
      "type": "function"
    },
    {
      "inputs": [
        {
          "internalType": "address",
          "name": "",
          "type": "address"
        },
        {
          "internalType": "address",
          "name": "_token",
          "type": "address"
        },
        {
          "internalType": "uint256",
          "name": "_amount",
          "type": "uint256"
        },
        {
          "internalType": "uint64",
          "name": "_srcChainId",
          "type": "uint64"
        },
        {
          "internalType": "bytes",
          "name": "_message",
          "type": "bytes"
        },
        {
          "internalType": "address",
          "name": "",
          "type": "address"
        }
      ],
      "name": "executeMessageWithTransfer",
      "outputs": [
        {
          "internalType": "enum IMessageReceiverApp.ExecutionStatus",
          "name": "",
          "type": "uint8"
        }
      ],
      "stateMutability": "payable",
      "type": "function"
    },
    {
      "inputs": [
        {
          "internalType": "address",
          "name": "_sender",
          "type": "address"
        },
        {
          "internalType": "address",
          "name": "_token",
          "type": "address"
        },
        {
          "internalType": "uint256",
          "name": "_amount",
          "type": "uint256"
        },
        {
          "internalType": "uint64",
          "name": "_srcChainId",
          "type": "uint64"
        },
        {
          "internalType": "bytes",
          "name": "_message",
          "type": "bytes"
        },
        {
          "internalType": "address",
          "name": "_executor",
          "type": "address"
        }
      ],
      "name": "executeMessageWithTransferFallback",
      "outputs": [
        {
          "internalType": "enum IMessageReceiverApp.ExecutionStatus",
          "name": "",
          "type": "uint8"
        }
      ],
      "stateMutability": "payable",
      "type": "function"
    },
    {
      "inputs": [
        {
          "internalType": "address",
          "name": "_token",
          "type": "address"
        },
        {
          "internalType": "uint256",
          "name": "_amount",
          "type": "uint256"
        },
        {
          "internalType": "bytes",
          "name": "_message",
          "type": "bytes"
        },
        {
          "internalType": "address",
          "name": "",
          "type": "address"
        }
      ],
      "name": "executeMessageWithTransferRefund",
      "outputs": [
        {
          "internalType": "enum IMessageReceiverApp.ExecutionStatus",
          "name": "",
          "type": "uint8"
        }
      ],
      "stateMutability": "payable",
      "type": "function"
    },
    {
      "inputs": [],
      "name": "messageBus",
      "outputs": [
        {
          "internalType": "address",
          "name": "",
          "type": "address"
        }
      ],
      "stateMutability": "view",
      "type": "function"
    },
    {
      "inputs": [],
      "name": "owner",
      "outputs": [
        {
          "internalType": "address",
          "name": "",
          "type": "address"
        }
      ],
      "stateMutability": "view",
      "type": "function"
    },
    {
      "inputs": [
        {
          "internalType": "address",
          "name": "_dstContract",
          "type": "address"
        },
        {
          "internalType": "address",
          "name": "_token",
          "type": "address"
        },
        {
          "internalType": "uint256",
          "name": "_amount",
          "type": "uint256"
        },
        {
          "internalType": "uint64",
          "name": "_dstChainId",
          "type": "uint64"
        },
        {
          "internalType": "uint64",
          "name": "_nonce",
          "type": "uint64"
        },
        {
          "internalType": "uint32",
          "name": "_maxSlippage",
          "type": "uint32"
        },
        {
          "internalType": "bytes",
          "name": "_note",
          "type": "bytes"
        },
        {
          "internalType": "enum MsgDataTypes.BridgeSendType",
          "name": "_bridgeSendType",
          "type": "uint8"
        }
      ],
      "name": "sendTokenWithNote",
      "outputs": [],
      "stateMutability": "payable",
      "type": "function"
    },
    {
      "inputs": [
        {
          "internalType": "address",
          "name": "_messageBus",
          "type": "address"
        }
      ],
      "name": "setMessageBus",
      "outputs": [],
      "stateMutability": "nonpayable",
      "type": "function"
    },
    {
      "inputs": [
        {
          "internalType": "address",
          "name": "newOwner",
          "type": "address"
        }
      ],
      "name": "transferOwnership",
      "outputs": [],
      "stateMutability": "nonpayable",
      "type": "function"
    },
    {
      "inputs": [
        {
          "internalType": "address",
          "name": "_token",
          "type": "address"
        },
        {
          "internalType": "uint256",
          "name": "_amount",
          "type": "uint256"
        }
      ],
      "name": "withdraw",
      "outputs": [],
      "stateMutability": "nonpayable",
      "type": "function"
    }
  ],
  "bytecode": "0x60806040523480156200001157600080fd5b5060405162001ec338038062001ec38339810160408190526200003491620000b7565b80620000403362000067565b600180546001600160a01b0319166001600160a01b039290921691909117905550620000e9565b600080546001600160a01b038381166001600160a01b0319831681178455604051919092169283917f8be0079c531659141344cd1fd0a4f28419497f9722a3daafe3b4186f6b6457e09190a35050565b600060208284031215620000ca57600080fd5b81516001600160a01b0381168114620000e257600080fd5b9392505050565b611dca80620000f96000396000f3fe6080604052600436106100a75760003560e01c80638da5cb5b116100645780638da5cb5b146101435780639c649fdf14610175578063a1a227fa14610188578063c23f001f146101a8578063f2fde38b146101ee578063f3fef3a31461020e57600080fd5b8063063ce4e5146100ac5780630bcb4982146100d5578063547cad12146100e85780635ab7afc61461010a5780637cd2bffc1461011d57806381f42ec714610130575b600080fd5b6100bf6100ba366004611578565b61022e565b6040516100cc9190611623565b60405180910390f35b6100bf6100e336600461164b565b61026e565b3480156100f457600080fd5b506101086101033660046116be565b610310565b005b6100bf6101183660046116db565b6103cd565b6100bf61012b366004611834565b610405565b61010861013e3660046118b5565b6104d9565b34801561014f57600080fd5b506000546001600160a01b03165b6040516001600160a01b0390911681526020016100cc565b6100bf61018336600461197b565b610534565b34801561019457600080fd5b5060015461015d906001600160a01b031681565b3480156101b457600080fd5b506101e06101c33660046119c7565b600260209081526000928352604080842090915290825290205481565b6040519081526020016100cc565b3480156101fa57600080fd5b506101086102093660046116be565b610561565b34801561021a57600080fd5b50610108610229366004611a00565b61063b565b6001546000906001600160a01b031633146102645760405162461bcd60e51b815260040161025b90611a2c565b60405180910390fd5b9695505050505050565b6001546000906001600160a01b0316331461029b5760405162461bcd60e51b815260040161025b90611a2c565b6000806102aa85870187611a63565b90925090506102c36001600160a01b038916838961068c565b7fc6e19e05f1d3160f682487ad95eea57d7f51ecde184d2f55a66ce9c4dd4d16b0828989846040516102f89493929190611b0a565b60405180910390a16001925050505b95945050505050565b336103236000546001600160a01b031690565b6001600160a01b0316146103795760405162461bcd60e51b815260206004820181905260248201527f4f776e61626c653a2063616c6c6572206973206e6f7420746865206f776e6572604482015260640161025b565b600180546001600160a01b0319166001600160a01b0383169081179091556040519081527f3f8223bcd8b3b875473e9f9e14e1ad075451a2b5ffd31591655da9a01516bf5e9060200160405180910390a150565b6001546000906001600160a01b031633146103fa5760405162461bcd60e51b815260040161025b90611a2c565b979650505050505050565b6001546000906001600160a01b031633146104325760405162461bcd60e51b815260040161025b90611a2c565b600080848060200190518101906104499190611b3d565b6001600160a01b038083166000908152600260209081526040808320938e16835292905290812080549395509193508992610485908490611bdf565b90915550506040517fb37498bbeceb46a0a5ce392bb1bbe88f6b55b737d84cf690b1ab97e599aadde0906104c29084908b908b908b908790611bf7565b60405180910390a150600198975050505050505050565b6104ee6001600160a01b03891633308a6106f4565b600033848460405160200161050593929190611c39565b60405160208183030381529060405290506105278a8a8a8a8a8a878934610732565b5050505050505050505050565b6001546000906001600160a01b031633146103075760405162461bcd60e51b815260040161025b90611a2c565b336105746000546001600160a01b031690565b6001600160a01b0316146105ca5760405162461bcd60e51b815260206004820181905260248201527f4f776e61626c653a2063616c6c6572206973206e6f7420746865206f776e6572604482015260640161025b565b6001600160a01b03811661062f5760405162461bcd60e51b815260206004820152602660248201527f4f776e61626c653a206e6577206f776e657220697320746865207a65726f206160448201526564647265737360d01b606482015260840161025b565b61063881610769565b50565b3360009081526002602090815260408083206001600160a01b03861684529091528120805483929061066e908490611c79565b9091555061068890506001600160a01b038316338361068c565b5050565b6040516001600160a01b0383166024820152604481018290526106ef90849063a9059cbb60e01b906064015b60408051601f198184030181529190526020810180516001600160e01b03166001600160e01b0319909316929092179091526107b9565b505050565b6040516001600160a01b038085166024830152831660448201526064810182905261072c9085906323b872dd60e01b906084016106b8565b50505050565b600061075b8a8a8a8a8a8a8a8a600160009054906101000a90046001600160a01b03168b61088b565b9a9950505050505050505050565b600080546001600160a01b038381166001600160a01b0319831681178455604051919092169283917f8be0079c531659141344cd1fd0a4f28419497f9722a3daafe3b4186f6b6457e09190a35050565b600061080e826040518060400160405280602081526020017f5361666545524332303a206c6f772d6c6576656c2063616c6c206661696c6564815250856001600160a01b03166109249092919063ffffffff16565b8051909150156106ef578080602001905181019061082c9190611c90565b6106ef5760405162461bcd60e51b815260206004820152602a60248201527f5361666545524332303a204552433230206f7065726174696f6e20646964206e6044820152691bdd081cdd58d8d9595960b21b606482015260840161025b565b60008060006108a08d8d8d8d8d8d8c8c61093d565b885191935091501561091457846001600160a01b0316634289fbb3858f8d85878d6040518763ffffffff1660e01b81526004016108e1959493929190611cb2565b6000604051808303818588803b1580156108fa57600080fd5b505af115801561090e573d6000803e3d6000fd5b50505050505b509b9a5050505050505050505050565b606061093384846000856110cf565b90505b9392505050565b60008060018460068111156109545761095461160d565b1415610a8257826001600160a01b03166382980dc46040518163ffffffff1660e01b815260040160206040518083038186803b15801561099357600080fd5b505afa1580156109a7573d6000803e3d6000fd5b505050506040513d601f19601f820116820180604052508101906109cb9190611cf4565b90506109e16001600160a01b038a16828a6111f5565b60405163a5977fbb60e01b81526001600160a01b038b811660048301528a81166024830152604482018a90526001600160401b03808a1660648401528816608483015263ffffffff871660a483015282169063a5977fbb9060c401600060405180830381600087803b158015610a5657600080fd5b505af1158015610a6a573d6000803e3d6000fd5b50505050610a7b8a8a8a8a8a6112b6565b91506110c2565b6002846006811115610a9657610a9661160d565b1415610b9657826001600160a01b031663d8257d176040518163ffffffff1660e01b815260040160206040518083038186803b158015610ad557600080fd5b505afa158015610ae9573d6000803e3d6000fd5b505050506040513d601f19601f82011682018060405250810190610b0d9190611cf4565b9050610b236001600160a01b038a16828a6111f5565b806001600160a01b031663234636248a8a8a8e8b6040518663ffffffff1660e01b8152600401610b57959493929190611d11565b600060405180830381600087803b158015610b7157600080fd5b505af1158015610b85573d6000803e3d6000fd5b50505050610a7b8a8a8a8a8a611339565b6003846006811115610baa57610baa61160d565b1415610d3b57826001600160a01b031663dfa2dbaf6040518163ffffffff1660e01b815260040160206040518083038186803b158015610be957600080fd5b505afa158015610bfd573d6000803e3d6000fd5b505050506040513d601f19601f82011682018060405250810190610c219190611cf4565b9050610c376001600160a01b038a16828a6111f5565b604051636f3c863f60e11b81526001600160a01b038a81166004830152602482018a90528b811660448301526001600160401b038816606483015282169063de790c7e90608401600060405180830381600087803b158015610c9857600080fd5b505af1158015610cac573d6000803e3d6000fd5b50610cc6925050506001600160a01b038a168260006113a2565b604080516001600160601b031930606090811b82166020808501919091528d821b83166034850152604884018d9052908e901b90911660688301526001600160c01b031960c08a811b8216607c85015246901b1660848301528251808303606c018152608c9092019092528051910120610a7b565b6004846006811115610d4f57610d4f61160d565b1415610e6257826001600160a01b031663c66a9c5a6040518163ffffffff1660e01b815260040160206040518083038186803b158015610d8e57600080fd5b505afa158015610da2573d6000803e3d6000fd5b505050506040513d601f19601f82011682018060405250810190610dc69190611cf4565b9050610ddc6001600160a01b038a16828a6111f5565b806001600160a01b031663234636248a8a8a8e8b6040518663ffffffff1660e01b8152600401610e10959493929190611d11565b602060405180830381600087803b158015610e2a57600080fd5b505af1158015610e3e573d6000803e3d6000fd5b505050506040513d601f19601f82011682018060405250810190610a7b9190611d4c565b6005846006811115610e7657610e7661160d565b1415610fa557826001600160a01b03166395b12c276040518163ffffffff1660e01b815260040160206040518083038186803b158015610eb557600080fd5b505afa158015610ec9573d6000803e3d6000fd5b505050506040513d601f19601f82011682018060405250810190610eed9190611cf4565b9050610f036001600160a01b038a16828a6111f5565b806001600160a01b031663a00293018a8a8a8e8b6040518663ffffffff1660e01b8152600401610f37959493929190611d11565b602060405180830381600087803b158015610f5157600080fd5b505af1158015610f65573d6000803e3d6000fd5b505050506040513d601f19601f82011682018060405250810190610f899190611d4c565b9150610fa06001600160a01b038a168260006113a2565b6110c2565b6006846006811115610fb957610fb961160d565b141561107a57826001600160a01b03166395b12c276040518163ffffffff1660e01b815260040160206040518083038186803b158015610ff857600080fd5b505afa15801561100c573d6000803e3d6000fd5b505050506040513d601f19601f820116820180604052508101906110309190611cf4565b90506110466001600160a01b038a16828a6111f5565b806001600160a01b0316639e422c338a8a8a8e8b6040518663ffffffff1660e01b8152600401610f37959493929190611d11565b60405162461bcd60e51b815260206004820152601960248201527f6272696467652074797065206e6f7420737570706f7274656400000000000000604482015260640161025b565b9850989650505050505050565b6060824710156111305760405162461bcd60e51b815260206004820152602660248201527f416464726573733a20696e73756666696369656e742062616c616e636520666f6044820152651c8818d85b1b60d21b606482015260840161025b565b6001600160a01b0385163b6111875760405162461bcd60e51b815260206004820152601d60248201527f416464726573733a2063616c6c20746f206e6f6e2d636f6e7472616374000000604482015260640161025b565b600080866001600160a01b031685876040516111a39190611d65565b60006040518083038185875af1925050503d80600081146111e0576040519150601f19603f3d011682016040523d82523d6000602084013e6111e5565b606091505b50915091506103fa8282866114c6565b604051636eb1769f60e11b81523060048201526001600160a01b038381166024830152600091839186169063dd62ed3e9060440160206040518083038186803b15801561124157600080fd5b505afa158015611255573d6000803e3d6000fd5b505050506040513d601f19601f820116820180604052508101906112799190611d4c565b6112839190611bdf565b6040516001600160a01b03851660248201526044810182905290915061072c90859063095ea7b360e01b906064016106b8565b6040516001600160601b031930606090811b8216602084015287811b8216603484015286901b166048820152605c81018490526001600160c01b031960c084811b8216607c84015283811b8216608484015246901b16608c8201526000906094015b60405160208183030381529060405280519060200120905095945050505050565b6040516001600160601b031930606090811b8216602084015286811b82166034840152604883018690526001600160c01b031960c086811b821660688601529189901b909216607084015283811b8216608484015246901b16608c820152600090609401611318565b80158061142b5750604051636eb1769f60e11b81523060048201526001600160a01b03838116602483015284169063dd62ed3e9060440160206040518083038186803b1580156113f157600080fd5b505afa158015611405573d6000803e3d6000fd5b505050506040513d601f19601f820116820180604052508101906114299190611d4c565b155b6114965760405162461bcd60e51b815260206004820152603660248201527f5361666545524332303a20617070726f76652066726f6d206e6f6e2d7a65726f60448201527520746f206e6f6e2d7a65726f20616c6c6f77616e636560501b606482015260840161025b565b6040516001600160a01b0383166024820152604481018290526106ef90849063095ea7b360e01b906064016106b8565b606083156114d5575081610936565b8251156114e55782518084602001fd5b8160405162461bcd60e51b815260040161025b9190611d81565b60008083601f84011261151157600080fd5b5081356001600160401b0381111561152857600080fd5b60208301915083602082850101111561154057600080fd5b9250929050565b80356001600160401b038116811461155e57600080fd5b919050565b6001600160a01b038116811461063857600080fd5b6000806000806000806080878903121561159157600080fd5b86356001600160401b03808211156115a857600080fd5b6115b48a838b016114ff565b90985096508691506115c860208a01611547565b955060408901359150808211156115de57600080fd5b506115eb89828a016114ff565b90945092505060608701356115ff81611563565b809150509295509295509295565b634e487b7160e01b600052602160045260246000fd5b602081016003831061164557634e487b7160e01b600052602160045260246000fd5b91905290565b60008060008060006080868803121561166357600080fd5b853561166e81611563565b94506020860135935060408601356001600160401b0381111561169057600080fd5b61169c888289016114ff565b90945092505060608601356116b081611563565b809150509295509295909350565b6000602082840312156116d057600080fd5b813561093681611563565b600080600080600080600060c0888a0312156116f657600080fd5b873561170181611563565b9650602088013561171181611563565b95506040880135945061172660608901611547565b935060808801356001600160401b0381111561174157600080fd5b61174d8a828b016114ff565b90945092505060a088013561176181611563565b8091505092959891949750929550565b634e487b7160e01b600052604160045260246000fd5b604051601f8201601f191681016001600160401b03811182821017156117af576117af611771565b604052919050565b60006001600160401b038211156117d0576117d0611771565b50601f01601f191660200190565b600082601f8301126117ef57600080fd5b81356118026117fd826117b7565b611787565b81815284602083860101111561181757600080fd5b816020850160208301376000918101602001919091529392505050565b60008060008060008060c0878903121561184d57600080fd5b863561185881611563565b9550602087013561186881611563565b94506040870135935061187d60608801611547565b925060808701356001600160401b0381111561189857600080fd5b6118a489828a016117de565b92505060a08701356115ff81611563565b60008060008060008060008060006101008a8c0312156118d457600080fd5b89356118df81611563565b985060208a01356118ef81611563565b975060408a0135965061190460608b01611547565b955061191260808b01611547565b945060a08a013563ffffffff8116811461192b57600080fd5b935060c08a01356001600160401b0381111561194657600080fd5b6119528c828d016114ff565b90945092505060e08a01356007811061196a57600080fd5b809150509295985092959850929598565b60008060008060006080868803121561199357600080fd5b853561199e81611563565b94506119ac60208701611547565b935060408601356001600160401b0381111561169057600080fd5b600080604083850312156119da57600080fd5b82356119e581611563565b915060208301356119f581611563565b809150509250929050565b60008060408385031215611a1357600080fd5b8235611a1e81611563565b946020939093013593505050565b60208082526019908201527f63616c6c6572206973206e6f74206d6573736167652062757300000000000000604082015260600190565b60008060408385031215611a7657600080fd5b8235611a8181611563565b915060208301356001600160401b03811115611a9c57600080fd5b611aa8858286016117de565b9150509250929050565b60005b83811015611acd578181015183820152602001611ab5565b8381111561072c5750506000910152565b60008151808452611af6816020860160208601611ab2565b601f01601f19169290920160200192915050565b6001600160a01b038581168252841660208201526040810183905260806060820181905260009061026490830184611ade565b60008060408385031215611b5057600080fd5b8251611b5b81611563565b60208401519092506001600160401b03811115611b7757600080fd5b8301601f81018513611b8857600080fd5b8051611b966117fd826117b7565b818152866020838501011115611bab57600080fd5b611bbc826020830160208601611ab2565b8093505050509250929050565b634e487b7160e01b600052601160045260246000fd5b60008219821115611bf257611bf2611bc9565b500190565b6001600160a01b03868116825285166020820152604081018490526001600160401b038316606082015260a0608082018190526000906103fa90830184611ade565b6001600160a01b03841681526040602082018190528101829052818360608301376000818301606090810191909152601f909201601f1916010192915050565b600082821015611c8b57611c8b611bc9565b500390565b600060208284031215611ca257600080fd5b8151801515811461093657600080fd5b6001600160a01b0386811682526001600160401b0386166020830152841660408201526060810183905260a0608082018190526000906103fa90830184611ade565b600060208284031215611d0657600080fd5b815161093681611563565b6001600160a01b03958616815260208101949094526001600160401b0392831660408501529316606083015291909116608082015260a00190565b600060208284031215611d5e57600080fd5b5051919050565b60008251611d77818460208701611ab2565b9190910192915050565b6020815260006109366020830184611ade56fea2646970667358221220069bfcd8a46220e1cb50874e172bdc2f26ec5c0aa83e88237b971b08d4bf180964736f6c63430008090033",
  "linkReferences": {},
  "deployedLinkReferences": {}
}