{
  "_format": "hh-sol-artifact-1",
  "contractName": "PegNFT",
  "sourceName": "contracts/cBridge/message/apps/nft-bridge/PegNFT.sol",
  "abi": [
    {
      "inputs": [
        {
          "internalType": "string",
          "name": "name_",
          "type": "string"
        },
        {
          "internalType": "string",
          "name": "symbol_",
          "type": "string"
        },
        {
          "internalType": "address",
          "name": "_nftBridge",
          "type": "address"
        }
      ],
      "stateMutability": "nonpayable",
      "type": "constructor"
    },
    {
      "anonymous": false,
      "inputs": [
        {
          "indexed": true,
          "internalType": "address",
          "name": "owner",
          "type": "address"
        },
        {
          "indexed": true,
          "internalType": "address",
          "name": "approved",
          "type": "address"
        },
        {
          "indexed": true,
          "internalType": "uint256",
          "name": "tokenId",
          "type": "uint256"
        }
      ],
      "name": "Approval",
      "type": "event"
    },
    {
      "anonymous": false,
      "inputs": [
        {
          "indexed": true,
          "internalType": "address",
          "name": "owner",
          "type": "address"
        },
        {
          "indexed": true,
          "internalType": "address",
          "name": "operator",
          "type": "address"
        },
        {
          "indexed": false,
          "internalType": "bool",
          "name": "approved",
          "type": "bool"
        }
      ],
      "name": "ApprovalForAll",
      "type": "event"
    },
    {
      "anonymous": false,
      "inputs": [
        {
          "indexed": true,
          "internalType": "address",
          "name": "from",
          "type": "address"
        },
        {
          "indexed": true,
          "internalType": "address",
          "name": "to",
          "type": "address"
        },
        {
          "indexed": true,
          "internalType": "uint256",
          "name": "tokenId",
          "type": "uint256"
        }
      ],
      "name": "Transfer",
      "type": "event"
    },
    {
      "inputs": [
        {
          "internalType": "address",
          "name": "to",
          "type": "address"
        },
        {
          "internalType": "uint256",
          "name": "tokenId",
          "type": "uint256"
        }
      ],
      "name": "approve",
      "outputs": [],
      "stateMutability": "nonpayable",
      "type": "function"
    },
    {
      "inputs": [
        {
          "internalType": "address",
          "name": "owner",
          "type": "address"
        }
      ],
      "name": "balanceOf",
      "outputs": [
        {
          "internalType": "uint256",
          "name": "",
          "type": "uint256"
        }
      ],
      "stateMutability": "view",
      "type": "function"
    },
    {
      "inputs": [
        {
          "internalType": "address",
          "name": "to",
          "type": "address"
        },
        {
          "internalType": "uint256",
          "name": "id",
          "type": "uint256"
        },
        {
          "internalType": "string",
          "name": "uri",
          "type": "string"
        }
      ],
      "name": "bridgeMint",
      "outputs": [],
      "stateMutability": "nonpayable",
      "type": "function"
    },
    {
      "inputs": [
        {
          "internalType": "uint256",
          "name": "id",
          "type": "uint256"
        }
      ],
      "name": "burn",
      "outputs": [],
      "stateMutability": "nonpayable",
      "type": "function"
    },
    {
      "inputs": [
        {
          "internalType": "uint256",
          "name": "tokenId",
          "type": "uint256"
        }
      ],
      "name": "getApproved",
      "outputs": [
        {
          "internalType": "address",
          "name": "",
          "type": "address"
        }
      ],
      "stateMutability": "view",
      "type": "function"
    },
    {
      "inputs": [
        {
          "internalType": "address",
          "name": "owner",
          "type": "address"
        },
        {
          "internalType": "address",
          "name": "operator",
          "type": "address"
        }
      ],
      "name": "isApprovedForAll",
      "outputs": [
        {
          "internalType": "bool",
          "name": "",
          "type": "bool"
        }
      ],
      "stateMutability": "view",
      "type": "function"
    },
    {
      "inputs": [],
      "name": "name",
      "outputs": [
        {
          "internalType": "string",
          "name": "",
          "type": "string"
        }
      ],
      "stateMutability": "view",
      "type": "function"
    },
    {
      "inputs": [],
      "name": "nftBridge",
      "outputs": [
        {
          "internalType": "address",
          "name": "",
          "type": "address"
        }
      ],
      "stateMutability": "view",
      "type": "function"
    },
    {
      "inputs": [
        {
          "internalType": "uint256",
          "name": "tokenId",
          "type": "uint256"
        }
      ],
      "name": "ownerOf",
      "outputs": [
        {
          "internalType": "address",
          "name": "",
          "type": "address"
        }
      ],
      "stateMutability": "view",
      "type": "function"
    },
    {
      "inputs": [
        {
          "internalType": "address",
          "name": "from",
          "type": "address"
        },
        {
          "internalType": "address",
          "name": "to",
          "type": "address"
        },
        {
          "internalType": "uint256",
          "name": "tokenId",
          "type": "uint256"
        }
      ],
      "name": "safeTransferFrom",
      "outputs": [],
      "stateMutability": "nonpayable",
      "type": "function"
    },
    {
      "inputs": [
        {
          "internalType": "address",
          "name": "from",
          "type": "address"
        },
        {
          "internalType": "address",
          "name": "to",
          "type": "address"
        },
        {
          "internalType": "uint256",
          "name": "tokenId",
          "type": "uint256"
        },
        {
          "internalType": "bytes",
          "name": "data",
          "type": "bytes"
        }
      ],
      "name": "safeTransferFrom",
      "outputs": [],
      "stateMutability": "nonpayable",
      "type": "function"
    },
    {
      "inputs": [
        {
          "internalType": "address",
          "name": "operator",
          "type": "address"
        },
        {
          "internalType": "bool",
          "name": "approved",
          "type": "bool"
        }
      ],
      "name": "setApprovalForAll",
      "outputs": [],
      "stateMutability": "nonpayable",
      "type": "function"
    },
    {
      "inputs": [
        {
          "internalType": "bytes4",
          "name": "interfaceId",
          "type": "bytes4"
        }
      ],
      "name": "supportsInterface",
      "outputs": [
        {
          "internalType": "bool",
          "name": "",
          "type": "bool"
        }
      ],
      "stateMutability": "view",
      "type": "function"
    },
    {
      "inputs": [],
      "name": "symbol",
      "outputs": [
        {
          "internalType": "string",
          "name": "",
          "type": "string"
        }
      ],
      "stateMutability": "view",
      "type": "function"
    },
    {
      "inputs": [
        {
          "internalType": "uint256",
          "name": "tokenId",
          "type": "uint256"
        }
      ],
      "name": "tokenURI",
      "outputs": [
        {
          "internalType": "string",
          "name": "",
          "type": "string"
        }
      ],
      "stateMutability": "view",
      "type": "function"
    },
    {
      "inputs": [
        {
          "internalType": "address",
          "name": "from",
          "type": "address"
        },
        {
          "internalType": "address",
          "name": "to",
          "type": "address"
        },
        {
          "internalType": "uint256",
          "name": "tokenId",
          "type": "uint256"
        }
      ],
      "name": "transferFrom",
      "outputs": [],
      "stateMutability": "nonpayable",
      "type": "function"
    }
  ],
  "bytecode": "0x60a06040523480156200001157600080fd5b5060405162001abb38038062001abb8339810160408190526200003491620001ee565b8251839083906200004d9060009060208501906200007b565b508051620000639060019060208401906200007b565b5050506001600160a01b031660805250620002b89050565b82805462000089906200027b565b90600052602060002090601f016020900481019282620000ad5760008555620000f8565b82601f10620000c857805160ff1916838001178555620000f8565b82800160010185558215620000f8579182015b82811115620000f8578251825591602001919060010190620000db565b50620001069291506200010a565b5090565b5b808211156200010657600081556001016200010b565b634e487b7160e01b600052604160045260246000fd5b600082601f8301126200014957600080fd5b81516001600160401b038082111562000166576200016662000121565b604051601f8301601f19908116603f0116810190828211818310171562000191576200019162000121565b81604052838152602092508683858801011115620001ae57600080fd5b600091505b83821015620001d25785820183015181830184015290820190620001b3565b83821115620001e45760008385830101525b9695505050505050565b6000806000606084860312156200020457600080fd5b83516001600160401b03808211156200021c57600080fd5b6200022a8783880162000137565b945060208601519150808211156200024157600080fd5b50620002508682870162000137565b604086015190935090506001600160a01b03811681146200027057600080fd5b809150509250925092565b600181811c908216806200029057607f821691505b60208210811415620002b257634e487b7160e01b600052602260045260246000fd5b50919050565b6080516117d9620002e2600039600081816102220152818161052301526105fe01526117d96000f3fe608060405234801561001057600080fd5b50600436106101005760003560e01c806367d74de211610097578063af91b17411610066578063af91b1741461021d578063b88d4fde14610244578063c87b56dd14610257578063e985e9c51461026a57600080fd5b806367d74de2146101ce57806370a08231146101e157806395d89b4114610202578063a22cb4651461020a57600080fd5b806323b872dd116100d357806323b872dd1461018257806342842e0e1461019557806342966c68146101a85780636352211e146101bb57600080fd5b806301ffc9a71461010557806306fdde031461012d578063081812fc14610142578063095ea7b31461016d575b600080fd5b61011861011336600461126b565b6102a6565b60405190151581526020015b60405180910390f35b6101356102f8565b60405161012491906112e0565b6101556101503660046112f3565b61038a565b6040516001600160a01b039091168152602001610124565b61018061017b366004611328565b6103b1565b005b610180610190366004611352565b6104cc565b6101806101a3366004611352565b6104fd565b6101806101b63660046112f3565b610518565b6101556101c93660046112f3565b610593565b6101806101dc36600461141a565b6105f3565b6101f46101ef366004611485565b610676565b604051908152602001610124565b6101356106fc565b6101806102183660046114a0565b61070b565b6101557f000000000000000000000000000000000000000000000000000000000000000081565b6101806102523660046114dc565b61071a565b6101356102653660046112f3565b610752565b610118610278366004611558565b6001600160a01b03918216600090815260056020908152604080832093909416825291909152205460ff1690565b60006001600160e01b031982166380ac58cd60e01b14806102d757506001600160e01b03198216635b5e139f60e01b145b806102f257506301ffc9a760e01b6001600160e01b03198316145b92915050565b6060600080546103079061158b565b80601f01602080910402602001604051908101604052809291908181526020018280546103339061158b565b80156103805780601f1061035557610100808354040283529160200191610380565b820191906000526020600020905b81548152906001019060200180831161036357829003601f168201915b5050505050905090565b600061039582610863565b506000908152600460205260409020546001600160a01b031690565b60006103bc82610593565b9050806001600160a01b0316836001600160a01b0316141561042f5760405162461bcd60e51b815260206004820152602160248201527f4552433732313a20617070726f76616c20746f2063757272656e74206f776e656044820152603960f91b60648201526084015b60405180910390fd5b336001600160a01b038216148061044b575061044b8133610278565b6104bd5760405162461bcd60e51b815260206004820152603e60248201527f4552433732313a20617070726f76652063616c6c6572206973206e6f7420746f60448201527f6b656e206f776e6572206e6f7220617070726f76656420666f7220616c6c00006064820152608401610426565b6104c783836108c2565b505050565b6104d63382610930565b6104f25760405162461bcd60e51b8152600401610426906115c6565b6104c78383836109ae565b6104c78383836040518060200160405280600081525061071a565b336001600160a01b037f000000000000000000000000000000000000000000000000000000000000000016146105875760405162461bcd60e51b815260206004820152601460248201527363616c6c6572206973206e6f742062726964676560601b6044820152606401610426565b61059081610b4a565b50565b6000818152600260205260408120546001600160a01b0316806102f25760405162461bcd60e51b8152602060048201526018602482015277115490cdcc8c4e881a5b9d985b1a59081d1bdad95b88125160421b6044820152606401610426565b336001600160a01b037f000000000000000000000000000000000000000000000000000000000000000016146106625760405162461bcd60e51b815260206004820152601460248201527363616c6c6572206973206e6f742062726964676560601b6044820152606401610426565b61066c8383610b8a565b6104c78282610ccc565b60006001600160a01b0382166106e05760405162461bcd60e51b815260206004820152602960248201527f4552433732313a2061646472657373207a65726f206973206e6f7420612076616044820152683634b21037bbb732b960b91b6064820152608401610426565b506001600160a01b031660009081526003602052604090205490565b6060600180546103079061158b565b610716338383610d66565b5050565b6107243383610930565b6107405760405162461bcd60e51b8152600401610426906115c6565b61074c84848484610e35565b50505050565b606061075d82610863565b600082815260066020526040812080546107769061158b565b80601f01602080910402602001604051908101604052809291908181526020018280546107a29061158b565b80156107ef5780601f106107c4576101008083540402835291602001916107ef565b820191906000526020600020905b8154815290600101906020018083116107d257829003601f168201915b50505050509050600061080d60408051602081019091526000815290565b9050805160001415610820575092915050565b81511561085257808260405160200161083a929190611614565b60405160208183030381529060405292505050919050565b61085b84610e68565b949350505050565b6000818152600260205260409020546001600160a01b03166105905760405162461bcd60e51b8152602060048201526018602482015277115490cdcc8c4e881a5b9d985b1a59081d1bdad95b88125160421b6044820152606401610426565b600081815260046020526040902080546001600160a01b0319166001600160a01b03841690811790915581906108f782610593565b6001600160a01b03167f8c5be1e5ebec7d5bd14f71427d1e84f3dd0314c0f7b2291e5b200ac8c7c3b92560405160405180910390a45050565b60008061093c83610593565b9050806001600160a01b0316846001600160a01b0316148061098357506001600160a01b0380821660009081526005602090815260408083209388168352929052205460ff165b8061085b5750836001600160a01b031661099c8461038a565b6001600160a01b031614949350505050565b826001600160a01b03166109c182610593565b6001600160a01b031614610a255760405162461bcd60e51b815260206004820152602560248201527f4552433732313a207472616e736665722066726f6d20696e636f72726563742060448201526437bbb732b960d91b6064820152608401610426565b6001600160a01b038216610a875760405162461bcd60e51b8152602060048201526024808201527f4552433732313a207472616e7366657220746f20746865207a65726f206164646044820152637265737360e01b6064820152608401610426565b610a926000826108c2565b6001600160a01b0383166000908152600360205260408120805460019290610abb908490611659565b90915550506001600160a01b0382166000908152600360205260408120805460019290610ae9908490611670565b909155505060008181526002602052604080822080546001600160a01b0319166001600160a01b0386811691821790925591518493918716917fddf252ad1be2c89b69c2b068fc378daa952ba7f163c4a11628f55a4df523b3ef91a4505050565b610b5381610edc565b60008181526006602052604090208054610b6c9061158b565b15905061059057600081815260066020526040812061059091611182565b6001600160a01b038216610be05760405162461bcd60e51b815260206004820181905260248201527f4552433732313a206d696e7420746f20746865207a65726f20616464726573736044820152606401610426565b6000818152600260205260409020546001600160a01b031615610c455760405162461bcd60e51b815260206004820152601c60248201527f4552433732313a20746f6b656e20616c7265616479206d696e746564000000006044820152606401610426565b6001600160a01b0382166000908152600360205260408120805460019290610c6e908490611670565b909155505060008181526002602052604080822080546001600160a01b0319166001600160a01b03861690811790915590518392907fddf252ad1be2c89b69c2b068fc378daa952ba7f163c4a11628f55a4df523b3ef908290a45050565b6000828152600260205260409020546001600160a01b0316610d475760405162461bcd60e51b815260206004820152602e60248201527f45524337323155524953746f726167653a2055524920736574206f66206e6f6e60448201526d32bc34b9ba32b73a103a37b5b2b760911b6064820152608401610426565b600082815260066020908152604090912082516104c7928401906111bc565b816001600160a01b0316836001600160a01b03161415610dc85760405162461bcd60e51b815260206004820152601960248201527f4552433732313a20617070726f766520746f2063616c6c6572000000000000006044820152606401610426565b6001600160a01b03838116600081815260056020908152604080832094871680845294825291829020805460ff191686151590811790915591519182527f17307eab39ab6107e8899845ad3d59bd9653f200f220920489ca2b5937696c31910160405180910390a3505050565b610e408484846109ae565b610e4c84848484610f77565b61074c5760405162461bcd60e51b815260040161042690611688565b6060610e7382610863565b6000610e8a60408051602081019091526000815290565b90506000815111610eaa5760405180602001604052806000815250610ed5565b80610eb484611084565b604051602001610ec5929190611614565b6040516020818303038152906040525b9392505050565b6000610ee782610593565b9050610ef46000836108c2565b6001600160a01b0381166000908152600360205260408120805460019290610f1d908490611659565b909155505060008281526002602052604080822080546001600160a01b0319169055518391906001600160a01b038416907fddf252ad1be2c89b69c2b068fc378daa952ba7f163c4a11628f55a4df523b3ef908390a45050565b60006001600160a01b0384163b1561107957604051630a85bd0160e11b81526001600160a01b0385169063150b7a0290610fbb9033908990889088906004016116da565b602060405180830381600087803b158015610fd557600080fd5b505af1925050508015611005575060408051601f3d908101601f1916820190925261100291810190611717565b60015b61105f573d808015611033576040519150601f19603f3d011682016040523d82523d6000602084013e611038565b606091505b5080516110575760405162461bcd60e51b815260040161042690611688565b805181602001fd5b6001600160e01b031916630a85bd0160e11b14905061085b565b506001949350505050565b6060816110a85750506040805180820190915260018152600360fc1b602082015290565b8160005b81156110d257806110bc81611734565b91506110cb9050600a83611765565b91506110ac565b60008167ffffffffffffffff8111156110ed576110ed61138e565b6040519080825280601f01601f191660200182016040528015611117576020820181803683370190505b5090505b841561085b5761112c600183611659565b9150611139600a86611779565b611144906030611670565b60f81b8183815181106111595761115961178d565b60200101906001600160f81b031916908160001a90535061117b600a86611765565b945061111b565b50805461118e9061158b565b6000825580601f1061119e575050565b601f0160209004906000526020600020908101906105909190611240565b8280546111c89061158b565b90600052602060002090601f0160209004810192826111ea5760008555611230565b82601f1061120357805160ff1916838001178555611230565b82800160010185558215611230579182015b82811115611230578251825591602001919060010190611215565b5061123c929150611240565b5090565b5b8082111561123c5760008155600101611241565b6001600160e01b03198116811461059057600080fd5b60006020828403121561127d57600080fd5b8135610ed581611255565b60005b838110156112a357818101518382015260200161128b565b8381111561074c5750506000910152565b600081518084526112cc816020860160208601611288565b601f01601f19169290920160200192915050565b602081526000610ed560208301846112b4565b60006020828403121561130557600080fd5b5035919050565b80356001600160a01b038116811461132357600080fd5b919050565b6000806040838503121561133b57600080fd5b6113448361130c565b946020939093013593505050565b60008060006060848603121561136757600080fd5b6113708461130c565b925061137e6020850161130c565b9150604084013590509250925092565b634e487b7160e01b600052604160045260246000fd5b600067ffffffffffffffff808411156113bf576113bf61138e565b604051601f8501601f19908116603f011681019082821181831017156113e7576113e761138e565b8160405280935085815286868601111561140057600080fd5b858560208301376000602087830101525050509392505050565b60008060006060848603121561142f57600080fd5b6114388461130c565b925060208401359150604084013567ffffffffffffffff81111561145b57600080fd5b8401601f8101861361146c57600080fd5b61147b868235602084016113a4565b9150509250925092565b60006020828403121561149757600080fd5b610ed58261130c565b600080604083850312156114b357600080fd5b6114bc8361130c565b9150602083013580151581146114d157600080fd5b809150509250929050565b600080600080608085870312156114f257600080fd5b6114fb8561130c565b93506115096020860161130c565b925060408501359150606085013567ffffffffffffffff81111561152c57600080fd5b8501601f8101871361153d57600080fd5b61154c878235602084016113a4565b91505092959194509250565b6000806040838503121561156b57600080fd5b6115748361130c565b91506115826020840161130c565b90509250929050565b600181811c9082168061159f57607f821691505b602082108114156115c057634e487b7160e01b600052602260045260246000fd5b50919050565b6020808252602e908201527f4552433732313a2063616c6c6572206973206e6f7420746f6b656e206f776e6560408201526d1c881b9bdc88185c1c1c9bdd995960921b606082015260800190565b60008351611626818460208801611288565b83519083019061163a818360208801611288565b01949350505050565b634e487b7160e01b600052601160045260246000fd5b60008282101561166b5761166b611643565b500390565b6000821982111561168357611683611643565b500190565b60208082526032908201527f4552433732313a207472616e7366657220746f206e6f6e20455243373231526560408201527131b2b4bb32b91034b6b83632b6b2b73a32b960711b606082015260800190565b6001600160a01b038581168252841660208201526040810183905260806060820181905260009061170d908301846112b4565b9695505050505050565b60006020828403121561172957600080fd5b8151610ed581611255565b600060001982141561174857611748611643565b5060010190565b634e487b7160e01b600052601260045260246000fd5b6000826117745761177461174f565b500490565b6000826117885761178861174f565b500690565b634e487b7160e01b600052603260045260246000fdfea2646970667358221220ab820a70994bcfeb87cb568705c0e247fa7c84bff45c011a3d2549d07f665eec64736f6c63430008090033",
  "linkReferences": {},
  "deployedLinkReferences": {}
}