{
  "_format": "hh-sol-artifact-1",
  "contractName": "ContractAsLP",
  "sourceName": "contracts/cBridge/integration-examples/ContractAsLP.sol",
  "abi": [
    {
      "inputs": [
        {
          "internalType": "address",
          "name": "_bridge",
          "type": "address"
        },
        {
          "internalType": "address",
          "name": "_inbox",
          "type": "address"
        }
      ],
      "stateMutability": "nonpayable",
      "type": "constructor"
    },
    {
      "anonymous": false,
      "inputs": [
        {
          "indexed": false,
          "internalType": "address",
          "name": "depositor",
          "type": "address"
        },
        {
          "indexed": false,
          "internalType": "address",
          "name": "token",
          "type": "address"
        },
        {
          "indexed": false,
          "internalType": "uint256",
          "name": "amount",
          "type": "uint256"
        }
      ],
      "name": "Deposited",
      "type": "event"
    },
    {
      "anonymous": false,
      "inputs": [
        {
          "indexed": true,
          "internalType": "address",
          "name": "previousOwner",
          "type": "address"
        },
        {
          "indexed": true,
          "internalType": "address",
          "name": "newOwner",
          "type": "address"
        }
      ],
      "name": "OwnershipTransferred",
      "type": "event"
    },
    {
      "anonymous": false,
      "inputs": [
        {
          "indexed": false,
          "internalType": "address",
          "name": "account",
          "type": "address"
        }
      ],
      "name": "Paused",
      "type": "event"
    },
    {
      "anonymous": false,
      "inputs": [
        {
          "indexed": false,
          "internalType": "address",
          "name": "account",
          "type": "address"
        }
      ],
      "name": "PauserAdded",
      "type": "event"
    },
    {
      "anonymous": false,
      "inputs": [
        {
          "indexed": false,
          "internalType": "address",
          "name": "account",
          "type": "address"
        }
      ],
      "name": "PauserRemoved",
      "type": "event"
    },
    {
      "anonymous": false,
      "inputs": [
        {
          "indexed": false,
          "internalType": "address",
          "name": "account",
          "type": "address"
        }
      ],
      "name": "Unpaused",
      "type": "event"
    },
    {
      "inputs": [
        {
          "internalType": "address",
          "name": "_token",
          "type": "address"
        },
        {
          "internalType": "uint256",
          "name": "_amount",
          "type": "uint256"
        }
      ],
      "name": "addLiquidity",
      "outputs": [],
      "stateMutability": "nonpayable",
      "type": "function"
    },
    {
      "inputs": [
        {
          "internalType": "address",
          "name": "account",
          "type": "address"
        }
      ],
      "name": "addPauser",
      "outputs": [],
      "stateMutability": "nonpayable",
      "type": "function"
    },
    {
      "inputs": [],
      "name": "bridge",
      "outputs": [
        {
          "internalType": "address",
          "name": "",
          "type": "address"
        }
      ],
      "stateMutability": "view",
      "type": "function"
    },
    {
      "inputs": [
        {
          "internalType": "address",
          "name": "_token",
          "type": "address"
        },
        {
          "internalType": "uint256",
          "name": "_amount",
          "type": "uint256"
        }
      ],
      "name": "deposit",
      "outputs": [],
      "stateMutability": "nonpayable",
      "type": "function"
    },
    {
      "inputs": [],
      "name": "inbox",
      "outputs": [
        {
          "internalType": "address",
          "name": "",
          "type": "address"
        }
      ],
      "stateMutability": "view",
      "type": "function"
    },
    {
      "inputs": [
        {
          "internalType": "address",
          "name": "account",
          "type": "address"
        }
      ],
      "name": "isPauser",
      "outputs": [
        {
          "internalType": "bool",
          "name": "",
          "type": "bool"
        }
      ],
      "stateMutability": "view",
      "type": "function"
    },
    {
      "inputs": [],
      "name": "owner",
      "outputs": [
        {
          "internalType": "address",
          "name": "",
          "type": "address"
        }
      ],
      "stateMutability": "view",
      "type": "function"
    },
    {
      "inputs": [],
      "name": "pause",
      "outputs": [],
      "stateMutability": "nonpayable",
      "type": "function"
    },
    {
      "inputs": [],
      "name": "paused",
      "outputs": [
        {
          "internalType": "bool",
          "name": "",
          "type": "bool"
        }
      ],
      "stateMutability": "view",
      "type": "function"
    },
    {
      "inputs": [
        {
          "internalType": "address",
          "name": "",
          "type": "address"
        }
      ],
      "name": "pausers",
      "outputs": [
        {
          "internalType": "bool",
          "name": "",
          "type": "bool"
        }
      ],
      "stateMutability": "view",
      "type": "function"
    },
    {
      "inputs": [
        {
          "internalType": "address",
          "name": "account",
          "type": "address"
        }
      ],
      "name": "removePauser",
      "outputs": [],
      "stateMutability": "nonpayable",
      "type": "function"
    },
    {
      "inputs": [],
      "name": "renouncePauser",
      "outputs": [],
      "stateMutability": "nonpayable",
      "type": "function"
    },
    {
      "inputs": [
        {
          "internalType": "address",
          "name": "newOwner",
          "type": "address"
        }
      ],
      "name": "transferOwnership",
      "outputs": [],
      "stateMutability": "nonpayable",
      "type": "function"
    },
    {
      "inputs": [],
      "name": "unpause",
      "outputs": [],
      "stateMutability": "nonpayable",
      "type": "function"
    },
    {
      "inputs": [
        {
          "internalType": "uint64",
          "name": "_wdSeq",
          "type": "uint64"
        },
        {
          "internalType": "address",
          "name": "_receiver",
          "type": "address"
        },
        {
          "internalType": "uint64",
          "name": "_toChain",
          "type": "uint64"
        },
        {
          "internalType": "uint64[]",
          "name": "_fromChains",
          "type": "uint64[]"
        },
        {
          "internalType": "address[]",
          "name": "_tokens",
          "type": "address[]"
        },
        {
          "internalType": "uint32[]",
          "name": "_ratios",
          "type": "uint32[]"
        },
        {
          "internalType": "uint32[]",
          "name": "_slippages",
          "type": "uint32[]"
        }
      ],
      "name": "withdraw",
      "outputs": [],
      "stateMutability": "nonpayable",
      "type": "function"
    }
  ],
  "bytecode": "0x60806040523480156200001157600080fd5b506040516200143d3803806200143d8339810160408190526200003491620001c5565b600160005562000044336200008e565b6001805460ff60a01b191690556200005c33620000e0565b600380546001600160a01b039384166001600160a01b03199182161790915560048054929093169116179055620001fd565b600180546001600160a01b038381166001600160a01b0319831681179093556040519116919082907f8be0079c531659141344cd1fd0a4f28419497f9722a3daafe3b4186f6b6457e090600090a35050565b6001600160a01b03811660009081526002602052604090205460ff16156200014e5760405162461bcd60e51b815260206004820152601960248201527f4163636f756e7420697320616c72656164792070617573657200000000000000604482015260640160405180910390fd5b6001600160a01b038116600081815260026020908152604091829020805460ff1916600117905590519182527f6719d08c1888103bea251a4ed56406bd0c3e69723c8a1686e017e7bbe159b6f8910160405180910390a150565b80516001600160a01b0381168114620001c057600080fd5b919050565b60008060408385031215620001d957600080fd5b620001e483620001a8565b9150620001f460208401620001a8565b90509250929050565b611230806200020d6000396000f3fe608060405234801561001057600080fd5b50600436106100f55760003560e01c806380f51c1211610097578063a485529611610066578063a4855296146101e2578063e78cea92146101f5578063f2fde38b14610208578063fb0e722b1461021b57600080fd5b806380f51c121461017f57806382dc1ec4146101a25780638456cb59146101b55780638da5cb5b146101bd57600080fd5b806356688700116100d3578063566887001461013f5780635c975abb146101525780636b2c0f55146101645780636ef8d66d1461017757600080fd5b80633f4ba83a146100fa57806346fbf68e1461010457806347e7ef241461012c575b600080fd5b61010261022e565b005b610117610112366004610df5565b610289565b60405190151581526020015b60405180910390f35b61010261013a366004610e10565b6102a7565b61010261014d366004610e10565b6103a7565b600154600160a01b900460ff16610117565b610102610172366004610df5565b610529565b61010261056e565b61011761018d366004610df5565b60026020526000908152604090205460ff1681565b6101026101b0366004610df5565b610577565b6101026105b9565b6001546001600160a01b03165b6040516001600160a01b039091168152602001610123565b6101026101f0366004610e9e565b61060d565b6003546101ca906001600160a01b031681565b610102610216366004610df5565b6106d0565b6004546101ca906001600160a01b031681565b61023733610289565b61027f5760405162461bcd60e51b815260206004820152601460248201527321b0b63632b91034b9903737ba103830bab9b2b960611b60448201526064015b60405180910390fd5b610287610777565b565b6001600160a01b031660009081526002602052604090205460ff1690565b600260005414156102fa5760405162461bcd60e51b815260206004820152601f60248201527f5265656e7472616e637947756172643a207265656e7472616e742063616c6c006044820152606401610276565b60026000556103076107cc565b3361031a6001546001600160a01b031690565b6001600160a01b0316146103405760405162461bcd60e51b815260040161027690610f9b565b6103556001600160a01b038316333084610819565b604080513381526001600160a01b03841660208201529081018290527f8752a472e571a816aea92eec8dae9baf628e840f4929fbcc2d155e6233ff68a79060600160405180910390a150506001600055565b6103af6107cc565b336103c26001546001600160a01b031690565b6001600160a01b0316146103e85760405162461bcd60e51b815260040161027690610f9b565b6040516370a0823160e01b815230600482015281906001600160a01b038416906370a082319060240160206040518083038186803b15801561042957600080fd5b505afa15801561043d573d6000803e3d6000fd5b505050506040513d601f19601f820116820180604052508101906104619190610fd0565b10156104a65760405162461bcd60e51b8152602060048201526014602482015273696e73756666696369656e742062616c616e636560601b6044820152606401610276565b6003546104c0906001600160a01b0384811691168361088a565b6003546040516256688760e81b81526001600160a01b0384811660048301526024820184905290911690635668870090604401600060405180830381600087803b15801561050d57600080fd5b505af1158015610521573d6000803e3d6000fd5b505050505050565b3361053c6001546001600160a01b031690565b6001600160a01b0316146105625760405162461bcd60e51b815260040161027690610f9b565b61056b8161094b565b50565b6102873361094b565b3361058a6001546001600160a01b031690565b6001600160a01b0316146105b05760405162461bcd60e51b815260040161027690610f9b565b61056b816109f0565b6105c233610289565b6106055760405162461bcd60e51b815260206004820152601460248201527321b0b63632b91034b9903737ba103830bab9b2b960611b6044820152606401610276565b610287610a9a565b6106156107cc565b336106286001546001600160a01b031690565b6001600160a01b03161461064e5760405162461bcd60e51b815260040161027690610f9b565b60048054604051635242a94b60e11b81526001600160a01b039091169163a485529691610691918f918f918f918f918f918f918f918f918f918f918f910161107c565b600060405180830381600087803b1580156106ab57600080fd5b505af11580156106bf573d6000803e3d6000fd5b505050505050505050505050505050565b336106e36001546001600160a01b031690565b6001600160a01b0316146107095760405162461bcd60e51b815260040161027690610f9b565b6001600160a01b03811661076e5760405162461bcd60e51b815260206004820152602660248201527f4f776e61626c653a206e6577206f776e657220697320746865207a65726f206160448201526564647265737360d01b6064820152608401610276565b61056b81610add565b61077f610b2f565b6001805460ff60a01b191690557f5db9ee0a495bf2e6ff9c91a7834c1ba4fdd244a5e8aa4e537bd38aeae4b073aa335b6040516001600160a01b03909116815260200160405180910390a1565b600154600160a01b900460ff16156102875760405162461bcd60e51b815260206004820152601060248201526f14185d5cd8589b194e881c185d5cd95960821b6044820152606401610276565b6040516001600160a01b03808516602483015283166044820152606481018290526108849085906323b872dd60e01b906084015b60408051601f198184030181529190526020810180516001600160e01b03166001600160e01b031990931692909217909152610b7f565b50505050565b604051636eb1769f60e11b81523060048201526001600160a01b038381166024830152600091839186169063dd62ed3e9060440160206040518083038186803b1580156108d657600080fd5b505afa1580156108ea573d6000803e3d6000fd5b505050506040513d601f19601f8201168201806040525081019061090e9190610fd0565b6109189190611137565b6040516001600160a01b03851660248201526044810182905290915061088490859063095ea7b360e01b9060640161084d565b61095481610289565b6109985760405162461bcd60e51b815260206004820152601560248201527420b1b1b7bab73a1034b9903737ba103830bab9b2b960591b6044820152606401610276565b6001600160a01b038116600081815260026020908152604091829020805460ff1916905590519182527fcd265ebaf09df2871cc7bd4133404a235ba12eff2041bb89d9c714a2621c7c7e91015b60405180910390a150565b6109f981610289565b15610a465760405162461bcd60e51b815260206004820152601960248201527f4163636f756e7420697320616c726561647920706175736572000000000000006044820152606401610276565b6001600160a01b038116600081815260026020908152604091829020805460ff1916600117905590519182527f6719d08c1888103bea251a4ed56406bd0c3e69723c8a1686e017e7bbe159b6f891016109e5565b610aa26107cc565b6001805460ff60a01b1916600160a01b1790557f62e78cea01bee320cd4e420270b5ea74000d11b0c9f74754ebdbfc544b05a2586107af3390565b600180546001600160a01b038381166001600160a01b0319831681179093556040519116919082907f8be0079c531659141344cd1fd0a4f28419497f9722a3daafe3b4186f6b6457e090600090a35050565b600154600160a01b900460ff166102875760405162461bcd60e51b815260206004820152601460248201527314185d5cd8589b194e881b9bdd081c185d5cd95960621b6044820152606401610276565b6000610bd4826040518060400160405280602081526020017f5361666545524332303a206c6f772d6c6576656c2063616c6c206661696c6564815250856001600160a01b0316610c569092919063ffffffff16565b805190915015610c515780806020019051810190610bf2919061115d565b610c515760405162461bcd60e51b815260206004820152602a60248201527f5361666545524332303a204552433230206f7065726174696f6e20646964206e6044820152691bdd081cdd58d8d9595960b21b6064820152608401610276565b505050565b6060610c658484600085610c6f565b90505b9392505050565b606082471015610cd05760405162461bcd60e51b815260206004820152602660248201527f416464726573733a20696e73756666696369656e742062616c616e636520666f6044820152651c8818d85b1b60d21b6064820152608401610276565b6001600160a01b0385163b610d275760405162461bcd60e51b815260206004820152601d60248201527f416464726573733a2063616c6c20746f206e6f6e2d636f6e74726163740000006044820152606401610276565b600080866001600160a01b03168587604051610d4391906111ab565b60006040518083038185875af1925050503d8060008114610d80576040519150601f19603f3d011682016040523d82523d6000602084013e610d85565b606091505b5091509150610d95828286610da0565b979650505050505050565b60608315610daf575081610c68565b825115610dbf5782518084602001fd5b8160405162461bcd60e51b815260040161027691906111c7565b80356001600160a01b0381168114610df057600080fd5b919050565b600060208284031215610e0757600080fd5b610c6882610dd9565b60008060408385031215610e2357600080fd5b610e2c83610dd9565b946020939093013593505050565b803567ffffffffffffffff81168114610df057600080fd5b60008083601f840112610e6457600080fd5b50813567ffffffffffffffff811115610e7c57600080fd5b6020830191508360208260051b8501011115610e9757600080fd5b9250929050565b600080600080600080600080600080600060e08c8e031215610ebf57600080fd5b610ec88c610e3a565b9a50610ed660208d01610dd9565b9950610ee460408d01610e3a565b985067ffffffffffffffff8060608e01351115610f0057600080fd5b610f108e60608f01358f01610e52565b909950975060808d0135811015610f2657600080fd5b610f368e60808f01358f01610e52565b909750955060a08d0135811015610f4c57600080fd5b610f5c8e60a08f01358f01610e52565b909550935060c08d0135811015610f7257600080fd5b50610f838d60c08e01358e01610e52565b81935080925050509295989b509295989b9093969950565b6020808252818101527f4f776e61626c653a2063616c6c6572206973206e6f7420746865206f776e6572604082015260600190565b600060208284031215610fe257600080fd5b5051919050565b8183526000602080850194508260005b85811015611025576001600160a01b0361101283610dd9565b1687529582019590820190600101610ff9565b509495945050505050565b818352600060208085019450826000805b8681101561107057823563ffffffff811680821461105d578384fd5b8952509683019691830191600101611041565b50959695505050505050565b67ffffffffffffffff8c811682526001600160a01b038c166020808401919091528b8216604084015260e06060840181905283018a90526000918b916101008501845b8d8110156110e457836110d186610e3a565b16825293820193908201906001016110bf565b5085810360808701526110f8818c8e610fe9565b935050505082810360a0840152611110818789611030565b905082810360c0840152611125818587611030565b9e9d5050505050505050505050505050565b6000821982111561115857634e487b7160e01b600052601160045260246000fd5b500190565b60006020828403121561116f57600080fd5b81518015158114610c6857600080fd5b60005b8381101561119a578181015183820152602001611182565b838111156108845750506000910152565b600082516111bd81846020870161117f565b9190910192915050565b60208152600082518060208401526111e681604085016020870161117f565b601f01601f1916919091016040019291505056fea2646970667358221220d5f31b3087e9d139314d7d17eae1f20319a4feda1d965e9dfb1a79955a8e3a0364736f6c63430008090033",
  "linkReferences": {},
  "deployedLinkReferences": {}
}