{
  "_format": "hh-sol-artifact-1",
  "contractName": "OriginalTokenVaultV2",
  "sourceName": "contracts/cBridge/pegged-bridge/OriginalTokenVaultV2.sol",
  "abi": [
    {
      "anonymous": false,
      "inputs": [
        {
          "indexed": false,
          "internalType": "uint256",
          "name": "period",
          "type": "uint256"
        }
      ],
      "name": "DelayPeriodUpdated",
      "type": "event"
    },
    {
      "anonymous": false,
      "inputs": [
        {
          "indexed": false,
          "internalType": "address",
          "name": "token",
          "type": "address"
        },
        {
          "indexed": false,
          "internalType": "uint256",
          "name": "threshold",
          "type": "uint256"
        }
      ],
      "name": "DelayThresholdUpdated",
      "type": "event"
    },
    {
      "anonymous": false,
      "inputs": [
        {
          "indexed": false,
          "internalType": "bytes32",
          "name": "id",
          "type": "bytes32"
        }
      ],
      "name": "DelayedTransferAdded",
      "type": "event"
    },
    {
      "anonymous": false,
      "inputs": [
        {
          "indexed": false,
          "internalType": "bytes32",
          "name": "id",
          "type": "bytes32"
        },
        {
          "indexed": false,
          "internalType": "address",
          "name": "receiver",
          "type": "address"
        },
        {
          "indexed": false,
          "internalType": "address",
          "name": "token",
          "type": "address"
        },
        {
          "indexed": false,
          "internalType": "uint256",
          "name": "amount",
          "type": "uint256"
        }
      ],
      "name": "DelayedTransferExecuted",
      "type": "event"
    },
    {
      "anonymous": false,
      "inputs": [
        {
          "indexed": false,
          "internalType": "bytes32",
          "name": "depositId",
          "type": "bytes32"
        },
        {
          "indexed": false,
          "internalType": "address",
          "name": "depositor",
          "type": "address"
        },
        {
          "indexed": false,
          "internalType": "address",
          "name": "token",
          "type": "address"
        },
        {
          "indexed": false,
          "internalType": "uint256",
          "name": "amount",
          "type": "uint256"
        },
        {
          "indexed": false,
          "internalType": "uint64",
          "name": "mintChainId",
          "type": "uint64"
        },
        {
          "indexed": false,
          "internalType": "address",
          "name": "mintAccount",
          "type": "address"
        },
        {
          "indexed": false,
          "internalType": "uint64",
          "name": "nonce",
          "type": "uint64"
        }
      ],
      "name": "Deposited",
      "type": "event"
    },
    {
      "anonymous": false,
      "inputs": [
        {
          "indexed": false,
          "internalType": "uint256",
          "name": "length",
          "type": "uint256"
        }
      ],
      "name": "EpochLengthUpdated",
      "type": "event"
    },
    {
      "anonymous": false,
      "inputs": [
        {
          "indexed": false,
          "internalType": "address",
          "name": "token",
          "type": "address"
        },
        {
          "indexed": false,
          "internalType": "uint256",
          "name": "cap",
          "type": "uint256"
        }
      ],
      "name": "EpochVolumeUpdated",
      "type": "event"
    },
    {
      "anonymous": false,
      "inputs": [
        {
          "indexed": false,
          "internalType": "address",
          "name": "account",
          "type": "address"
        }
      ],
      "name": "GovernorAdded",
      "type": "event"
    },
    {
      "anonymous": false,
      "inputs": [
        {
          "indexed": false,
          "internalType": "address",
          "name": "account",
          "type": "address"
        }
      ],
      "name": "GovernorRemoved",
      "type": "event"
    },
    {
      "anonymous": false,
      "inputs": [
        {
          "indexed": false,
          "internalType": "address",
          "name": "token",
          "type": "address"
        },
        {
          "indexed": false,
          "internalType": "uint256",
          "name": "amount",
          "type": "uint256"
        }
      ],
      "name": "MaxDepositUpdated",
      "type": "event"
    },
    {
      "anonymous": false,
      "inputs": [
        {
          "indexed": false,
          "internalType": "address",
          "name": "token",
          "type": "address"
        },
        {
          "indexed": false,
          "internalType": "uint256",
          "name": "amount",
          "type": "uint256"
        }
      ],
      "name": "MinDepositUpdated",
      "type": "event"
    },
    {
      "anonymous": false,
      "inputs": [
        {
          "indexed": true,
          "internalType": "address",
          "name": "previousOwner",
          "type": "address"
        },
        {
          "indexed": true,
          "internalType": "address",
          "name": "newOwner",
          "type": "address"
        }
      ],
      "name": "OwnershipTransferred",
      "type": "event"
    },
    {
      "anonymous": false,
      "inputs": [
        {
          "indexed": false,
          "internalType": "address",
          "name": "account",
          "type": "address"
        }
      ],
      "name": "Paused",
      "type": "event"
    },
    {
      "anonymous": false,
      "inputs": [
        {
          "indexed": false,
          "internalType": "address",
          "name": "account",
          "type": "address"
        }
      ],
      "name": "PauserAdded",
      "type": "event"
    },
    {
      "anonymous": false,
      "inputs": [
        {
          "indexed": false,
          "internalType": "address",
          "name": "account",
          "type": "address"
        }
      ],
      "name": "PauserRemoved",
      "type": "event"
    },
    {
      "anonymous": false,
      "inputs": [
        {
          "indexed": false,
          "internalType": "address",
          "name": "account",
          "type": "address"
        }
      ],
      "name": "Unpaused",
      "type": "event"
    },
    {
      "anonymous": false,
      "inputs": [
        {
          "indexed": false,
          "internalType": "bytes32",
          "name": "withdrawId",
          "type": "bytes32"
        },
        {
          "indexed": false,
          "internalType": "address",
          "name": "receiver",
          "type": "address"
        },
        {
          "indexed": false,
          "internalType": "address",
          "name": "token",
          "type": "address"
        },
        {
          "indexed": false,
          "internalType": "uint256",
          "name": "amount",
          "type": "uint256"
        },
        {
          "indexed": false,
          "internalType": "uint64",
          "name": "refChainId",
          "type": "uint64"
        },
        {
          "indexed": false,
          "internalType": "bytes32",
          "name": "refId",
          "type": "bytes32"
        },
        {
          "indexed": false,
          "internalType": "address",
          "name": "burnAccount",
          "type": "address"
        }
      ],
      "name": "Withdrawn",
      "type": "event"
    },
    {
      "inputs": [
        {
          "internalType": "address",
          "name": "_account",
          "type": "address"
        }
      ],
      "name": "addGovernor",
      "outputs": [],
      "stateMutability": "nonpayable",
      "type": "function"
    },
    {
      "inputs": [
        {
          "internalType": "address",
          "name": "account",
          "type": "address"
        }
      ],
      "name": "addPauser",
      "outputs": [],
      "stateMutability": "nonpayable",
      "type": "function"
    },
    {
      "inputs": [],
      "name": "delayPeriod",
      "outputs": [
        {
          "internalType": "uint256",
          "name": "",
          "type": "uint256"
        }
      ],
      "stateMutability": "view",
      "type": "function"
    },
    {
      "inputs": [
        {
          "internalType": "address",
          "name": "",
          "type": "address"
        }
      ],
      "name": "delayThresholds",
      "outputs": [
        {
          "internalType": "uint256",
          "name": "",
          "type": "uint256"
        }
      ],
      "stateMutability": "view",
      "type": "function"
    },
    {
      "inputs": [
        {
          "internalType": "bytes32",
          "name": "",
          "type": "bytes32"
        }
      ],
      "name": "delayedTransfers",
      "outputs": [
        {
          "internalType": "address",
          "name": "receiver",
          "type": "address"
        },
        {
          "internalType": "address",
          "name": "token",
          "type": "address"
        },
        {
          "internalType": "uint256",
          "name": "amount",
          "type": "uint256"
        },
        {
          "internalType": "uint256",
          "name": "timestamp",
          "type": "uint256"
        }
      ],
      "stateMutability": "view",
      "type": "function"
    },
    {
      "inputs": [
        {
          "internalType": "address",
          "name": "_token",
          "type": "address"
        },
        {
          "internalType": "uint256",
          "name": "_amount",
          "type": "uint256"
        },
        {
          "internalType": "uint64",
          "name": "_mintChainId",
          "type": "uint64"
        },
        {
          "internalType": "address",
          "name": "_mintAccount",
          "type": "address"
        },
        {
          "internalType": "uint64",
          "name": "_nonce",
          "type": "uint64"
        }
      ],
      "name": "deposit",
      "outputs": [
        {
          "internalType": "bytes32",
          "name": "",
          "type": "bytes32"
        }
      ],
      "stateMutability": "nonpayable",
      "type": "function"
    },
    {
      "inputs": [
        {
          "internalType": "uint256",
          "name": "_amount",
          "type": "uint256"
        },
        {
          "internalType": "uint64",
          "name": "_mintChainId",
          "type": "uint64"
        },
        {
          "internalType": "address",
          "name": "_mintAccount",
          "type": "address"
        },
        {
          "internalType": "uint64",
          "name": "_nonce",
          "type": "uint64"
        }
      ],
      "name": "depositNative",
      "outputs": [
        {
          "internalType": "bytes32",
          "name": "",
          "type": "bytes32"
        }
      ],
      "stateMutability": "payable",
      "type": "function"
    },
    {
      "inputs": [],
      "name": "epochLength",
      "outputs": [
        {
          "internalType": "uint256",
          "name": "",
          "type": "uint256"
        }
      ],
      "stateMutability": "view",
      "type": "function"
    },
    {
      "inputs": [
        {
          "internalType": "address",
          "name": "",
          "type": "address"
        }
      ],
      "name": "epochVolumeCaps",
      "outputs": [
        {
          "internalType": "uint256",
          "name": "",
          "type": "uint256"
        }
      ],
      "stateMutability": "view",
      "type": "function"
    },
    {
      "inputs": [
        {
          "internalType": "address",
          "name": "",
          "type": "address"
        }
      ],
      "name": "epochVolumes",
      "outputs": [
        {
          "internalType": "uint256",
          "name": "",
          "type": "uint256"
        }
      ],
      "stateMutability": "view",
      "type": "function"
    },
    {
      "inputs": [
        {
          "internalType": "bytes32",
          "name": "id",
          "type": "bytes32"
        }
      ],
      "name": "executeDelayedTransfer",
      "outputs": [],
      "stateMutability": "nonpayable",
      "type": "function"
    },
    {
      "inputs": [
        {
          "internalType": "address",
          "name": "",
          "type": "address"
        }
      ],
      "name": "governors",
      "outputs": [
        {
          "internalType": "bool",
          "name": "",
          "type": "bool"
        }
      ],
      "stateMutability": "view",
      "type": "function"
    },
    {
      "inputs": [
        {
          "internalType": "address",
          "name": "_account",
          "type": "address"
        }
      ],
      "name": "isGovernor",
      "outputs": [
        {
          "internalType": "bool",
          "name": "",
          "type": "bool"
        }
      ],
      "stateMutability": "view",
      "type": "function"
    },
    {
      "inputs": [
        {
          "internalType": "address",
          "name": "account",
          "type": "address"
        }
      ],
      "name": "isPauser",
      "outputs": [
        {
          "internalType": "bool",
          "name": "",
          "type": "bool"
        }
      ],
      "stateMutability": "view",
      "type": "function"
    },
    {
      "inputs": [
        {
          "internalType": "address",
          "name": "",
          "type": "address"
        }
      ],
      "name": "lastOpTimestamps",
      "outputs": [
        {
          "internalType": "uint256",
          "name": "",
          "type": "uint256"
        }
      ],
      "stateMutability": "view",
      "type": "function"
    },
    {
      "inputs": [
        {
          "internalType": "address",
          "name": "",
          "type": "address"
        }
      ],
      "name": "maxDeposit",
      "outputs": [
        {
          "internalType": "uint256",
          "name": "",
          "type": "uint256"
        }
      ],
      "stateMutability": "view",
      "type": "function"
    },
    {
      "inputs": [
        {
          "internalType": "address",
          "name": "",
          "type": "address"
        }
      ],
      "name": "minDeposit",
      "outputs": [
        {
          "internalType": "uint256",
          "name": "",
          "type": "uint256"
        }
      ],
      "stateMutability": "view",
      "type": "function"
    },
    {
      "inputs": [],
      "name": "nativeWrap",
      "outputs": [
        {
          "internalType": "address",
          "name": "",
          "type": "address"
        }
      ],
      "stateMutability": "view",
      "type": "function"
    },
    {
      "inputs": [],
      "name": "owner",
      "outputs": [
        {
          "internalType": "address",
          "name": "",
          "type": "address"
        }
      ],
      "stateMutability": "view",
      "type": "function"
    },
    {
      "inputs": [],
      "name": "pause",
      "outputs": [],
      "stateMutability": "nonpayable",
      "type": "function"
    },
    {
      "inputs": [],
      "name": "paused",
      "outputs": [
        {
          "internalType": "bool",
          "name": "",
          "type": "bool"
        }
      ],
      "stateMutability": "view",
      "type": "function"
    },
    {
      "inputs": [
        {
          "internalType": "address",
          "name": "",
          "type": "address"
        }
      ],
      "name": "pausers",
      "outputs": [
        {
          "internalType": "bool",
          "name": "",
          "type": "bool"
        }
      ],
      "stateMutability": "view",
      "type": "function"
    },
    {
      "inputs": [
        {
          "internalType": "bytes32",
          "name": "",
          "type": "bytes32"
        }
      ],
      "name": "records",
      "outputs": [
        {
          "internalType": "bool",
          "name": "",
          "type": "bool"
        }
      ],
      "stateMutability": "view",
      "type": "function"
    },
    {
      "inputs": [
        {
          "internalType": "address",
          "name": "_account",
          "type": "address"
        }
      ],
      "name": "removeGovernor",
      "outputs": [],
      "stateMutability": "nonpayable",
      "type": "function"
    },
    {
      "inputs": [
        {
          "internalType": "address",
          "name": "account",
          "type": "address"
        }
      ],
      "name": "removePauser",
      "outputs": [],
      "stateMutability": "nonpayable",
      "type": "function"
    },
    {
      "inputs": [],
      "name": "renounceGovernor",
      "outputs": [],
      "stateMutability": "nonpayable",
      "type": "function"
    },
    {
      "inputs": [],
      "name": "renouncePauser",
      "outputs": [],
      "stateMutability": "nonpayable",
      "type": "function"
    },
    {
      "inputs": [
        {
          "internalType": "uint256",
          "name": "_period",
          "type": "uint256"
        }
      ],
      "name": "setDelayPeriod",
      "outputs": [],
      "stateMutability": "nonpayable",
      "type": "function"
    },
    {
      "inputs": [
        {
          "internalType": "address[]",
          "name": "_tokens",
          "type": "address[]"
        },
        {
          "internalType": "uint256[]",
          "name": "_thresholds",
          "type": "uint256[]"
        }
      ],
      "name": "setDelayThresholds",
      "outputs": [],
      "stateMutability": "nonpayable",
      "type": "function"
    },
    {
      "inputs": [
        {
          "internalType": "uint256",
          "name": "_length",
          "type": "uint256"
        }
      ],
      "name": "setEpochLength",
      "outputs": [],
      "stateMutability": "nonpayable",
      "type": "function"
    },
    {
      "inputs": [
        {
          "internalType": "address[]",
          "name": "_tokens",
          "type": "address[]"
        },
        {
          "internalType": "uint256[]",
          "name": "_caps",
          "type": "uint256[]"
        }
      ],
      "name": "setEpochVolumeCaps",
      "outputs": [],
      "stateMutability": "nonpayable",
      "type": "function"
    },
    {
      "inputs": [
        {
          "internalType": "address[]",
          "name": "_tokens",
          "type": "address[]"
        },
        {
          "internalType": "uint256[]",
          "name": "_amounts",
          "type": "uint256[]"
        }
      ],
      "name": "setMaxDeposit",
      "outputs": [],
      "stateMutability": "nonpayable",
      "type": "function"
    },
    {
      "inputs": [
        {
          "internalType": "address[]",
          "name": "_tokens",
          "type": "address[]"
        },
        {
          "internalType": "uint256[]",
          "name": "_amounts",
          "type": "uint256[]"
        }
      ],
      "name": "setMinDeposit",
      "outputs": [],
      "stateMutability": "nonpayable",
      "type": "function"
    },
    {
      "inputs": [
        {
          "internalType": "address",
          "name": "_weth",
          "type": "address"
        }
      ],
      "name": "setWrap",
      "outputs": [],
      "stateMutability": "nonpayable",
      "type": "function"
    },
    {
      "inputs": [],
      "name": "sigsVerifier",
      "outputs": [
        {
          "internalType": "contract ISigsVerifier",
          "name": "",
          "type": "address"
        }
      ],
      "stateMutability": "view",
      "type": "function"
    },
    {
      "inputs": [
        {
          "internalType": "address",
          "name": "newOwner",
          "type": "address"
        }
      ],
      "name": "transferOwnership",
      "outputs": [],
      "stateMutability": "nonpayable",
      "type": "function"
    },
    {
      "inputs": [],
      "name": "unpause",
      "outputs": [],
      "stateMutability": "nonpayable",
      "type": "function"
    },
    {
      "inputs": [
        {
          "internalType": "bytes",
          "name": "_request",
          "type": "bytes"
        },
        {
          "internalType": "bytes[]",
          "name": "_sigs",
          "type": "bytes[]"
        },
        {
          "internalType": "address[]",
          "name": "_signers",
          "type": "address[]"
        },
        {
          "internalType": "uint256[]",
          "name": "_powers",
          "type": "uint256[]"
        }
      ],
      "name": "withdraw",
      "outputs": [
        {
          "internalType": "bytes32",
          "name": "",
          "type": "bytes32"
        }
      ],
      "stateMutability": "nonpayable",
      "type": "function"
    },
    {
      "stateMutability": "payable",
      "type": "receive"
    }
  ],
  "bytecode": "0x60806040523480156200001157600080fd5b50600160005562000022336200004b565b6001805460ff60a01b191690556200003a336200009d565b620000453362000167565b62000227565b600180546001600160a01b038381166001600160a01b0319831681179093556040519116919082907f8be0079c531659141344cd1fd0a4f28419497f9722a3daafe3b4186f6b6457e090600090a35050565b6001600160a01b03811660009081526002602052604090205460ff16156200010c5760405162461bcd60e51b815260206004820152601960248201527f4163636f756e7420697320616c7265616479207061757365720000000000000060448201526064015b60405180910390fd5b6001600160a01b038116600081815260026020908152604091829020805460ff1916600117905590519182527f6719d08c1888103bea251a4ed56406bd0c3e69723c8a1686e017e7bbe159b6f891015b60405180910390a150565b6001600160a01b03811660009081526003602052604090205460ff1615620001d25760405162461bcd60e51b815260206004820152601b60248201527f4163636f756e7420697320616c726561647920676f7665726e6f720000000000604482015260640162000103565b6001600160a01b038116600081815260036020908152604091829020805460ff1916600117905590519182527fdc5a48d79e2e147530ff63ecdbed5a5a66adb9d5cf339384d5d076da197c40b591016200015c565b612f5b80620002376000396000f3fe6080604052600436106102285760003560e01c80636b2c0f5511610123578063adc0d57f116100ab578063e3eece261161006f578063e3eece26146106f7578063e43581b814610727578063eecdac8814610747578063f2fde38b14610767578063f83213831461078757600080fd5b8063adc0d57f1461060a578063b1c94d9414610684578063b5f2bc471461069a578063ccf2683b146106c7578063e026049c146106e257600080fd5b80638456cb59116100f25780638456cb59146105775780638da5cb5b1461058c5780639e25fc5c146105aa5780639ff9001a146105ca578063a21a9280146105ea57600080fd5b80636b2c0f55146104f25780636ef8d66d1461051257806380f51c121461052757806382dc1ec41461055757600080fd5b8063402d267d116101b157806354eea7961161017557806354eea7961461045057806357d775f8146104705780635c975abb146104865780635ec2fa26146104a557806360216b00146104c557600080fd5b8063402d267d1461037e578063457bfa2f146103ab57806346fbf68e146103e357806347b16c6c1461040357806352532faa1461042357600080fd5b8063303b6442116101f8578063303b6442146102dc5780633c29f839146102fc5780633c4a25d0146103295780633d572107146103495780633f4ba83a1461036957600080fd5b8062a95fd71461023457806301e647251461025a57806317bdbae51461029a57806323463624146102bc57600080fd5b3661022f57005b600080fd5b61024761024236600461289e565b6107b4565b6040519081526020015b60405180910390f35b34801561026657600080fd5b5061028a6102753660046128eb565b600b6020526000908152604090205460ff1681565b6040519015158152602001610251565b3480156102a657600080fd5b506102ba6102b5366004612950565b61098e565b005b3480156102c857600080fd5b506102476102d73660046129bc565b610ad7565b3480156102e857600080fd5b506102ba6102f7366004612950565b610bb1565b34801561030857600080fd5b50610247610317366004612a1a565b600c6020526000908152604090205481565b34801561033557600080fd5b506102ba610344366004612a1a565b610cf3565b34801561035557600080fd5b506102ba6103643660046128eb565b610d38565b34801561037557600080fd5b506102ba610d99565b34801561038a57600080fd5b50610247610399366004612a1a565b600d6020526000908152604090205481565b3480156103b757600080fd5b50600e546103cb906001600160a01b031681565b6040516001600160a01b039091168152602001610251565b3480156103ef57600080fd5b5061028a6103fe366004612a1a565b610def565b34801561040f57600080fd5b506102ba61041e366004612950565b610e0d565b34801561042f57600080fd5b5061024761043e366004612a1a565b60096020526000908152604090205481565b34801561045c57600080fd5b506102ba61046b3660046128eb565b610f4f565b34801561047c57600080fd5b5061024760045481565b34801561049257600080fd5b50600154600160a01b900460ff1661028a565b3480156104b157600080fd5b506102ba6104c0366004612950565b610fa9565b3480156104d157600080fd5b506102476104e0366004612a1a565b60056020526000908152604090205481565b3480156104fe57600080fd5b506102ba61050d366004612a1a565b6110eb565b34801561051e57600080fd5b506102ba61112d565b34801561053357600080fd5b5061028a610542366004612a1a565b60026020526000908152604090205460ff1681565b34801561056357600080fd5b506102ba610572366004612a1a565b611136565b34801561058357600080fd5b506102ba611178565b34801561059857600080fd5b506001546001600160a01b03166103cb565b3480156105b657600080fd5b506102ba6105c53660046128eb565b6111cc565b3480156105d657600080fd5b506102ba6105e5366004612a1a565b6111fc565b3480156105f657600080fd5b50610247610605366004612a35565b611257565b34801561061657600080fd5b506106596106253660046128eb565b60086020526000908152604090208054600182015460028301546003909301546001600160a01b0392831693919092169184565b604080516001600160a01b039586168152949093166020850152918301526060820152608001610251565b34801561069057600080fd5b50610247600a5481565b3480156106a657600080fd5b506102476106b5366004612a1a565b60066020526000908152604090205481565b3480156106d357600080fd5b506103cb6015602960991b0181565b3480156106ee57600080fd5b506102ba611592565b34801561070357600080fd5b5061028a610712366004612a1a565b60036020526000908152604090205460ff1681565b34801561073357600080fd5b5061028a610742366004612a1a565b61159b565b34801561075357600080fd5b506102ba610762366004612a1a565b6115b9565b34801561077357600080fd5b506102ba610782366004612a1a565b6115fb565b34801561079357600080fd5b506102476107a2366004612a1a565b60076020526000908152604090205481565b60006002600054141561080e5760405162461bcd60e51b815260206004820152601f60248201527f5265656e7472616e637947756172643a207265656e7472616e742063616c6c0060448201526064015b60405180910390fd5b600260005561081b6116a2565b84341461085c5760405162461bcd60e51b815260206004820152600f60248201526e082dadeeadce840dad2e6dac2e8c6d608b1b6044820152606401610805565b600e546001600160a01b03166108aa5760405162461bcd60e51b815260206004820152601360248201527213985d1a5d99481ddc985c081b9bdd081cd95d606a1b6044820152606401610805565b600e546000906108c6906001600160a01b0316878787876116ef565b9050600e60009054906101000a90046001600160a01b03166001600160a01b031663d0e30db0876040518263ffffffff1660e01b81526004016000604051808303818588803b15801561091857600080fd5b505af115801561092c573d6000803e3d6000fd5b5050600e546040517f28d226819e371600e26624ebc4a9a3947117ee2760209f816c789d3a99bf481b9450610978935085925033916001600160a01b0316908b908b908b908b90612b24565b60405180910390a1600160005595945050505050565b6109973361159b565b6109b35760405162461bcd60e51b815260040161080590612b6b565b8281146109d25760405162461bcd60e51b815260040161080590612b9b565b60005b83811015610ad0578282828181106109ef576109ef612bc4565b9050602002013560096000878785818110610a0c57610a0c612bc4565b9050602002016020810190610a219190612a1a565b6001600160a01b031681526020810191909152604001600020557fceaad6533bfb481492fb3e08ef19297f46611b8fa9de5ef4cf8dc23a56ad09ce858583818110610a6e57610a6e612bc4565b9050602002016020810190610a839190612a1a565b848484818110610a9557610a95612bc4565b604080516001600160a01b0390951685526020918202939093013590840152500160405180910390a180610ac881612bf0565b9150506109d5565b5050505050565b600060026000541415610b2c5760405162461bcd60e51b815260206004820152601f60248201527f5265656e7472616e637947756172643a207265656e7472616e742063616c6c006044820152606401610805565b6002600055610b396116a2565b6000610b4887878787876116ef565b9050610b5f6001600160a01b0388163330896118bc565b7f28d226819e371600e26624ebc4a9a3947117ee2760209f816c789d3a99bf481b81338989898989604051610b9a9796959493929190612b24565b60405180910390a160016000559695505050505050565b610bba3361159b565b610bd65760405162461bcd60e51b815260040161080590612b6b565b828114610bf55760405162461bcd60e51b815260040161080590612b9b565b60005b83811015610ad057828282818110610c1257610c12612bc4565b90506020020135600d6000878785818110610c2f57610c2f612bc4565b9050602002016020810190610c449190612a1a565b6001600160a01b031681526020810191909152604001600020557f0e5d348f9737ccc8b4cf0eea0ccf3670af071af8bea5d64664f10e700c08de72858583818110610c9157610c91612bc4565b9050602002016020810190610ca69190612a1a565b848484818110610cb857610cb8612bc4565b604080516001600160a01b0390951685526020918202939093013590840152500160405180910390a180610ceb81612bf0565b915050610bf8565b33610d066001546001600160a01b031690565b6001600160a01b031614610d2c5760405162461bcd60e51b815260040161080590612c0b565b610d358161192d565b50565b610d413361159b565b610d5d5760405162461bcd60e51b815260040161080590612b6b565b600a8190556040518181527fc0a39f234199b125fb93713c4d067bdcebbf691087f87b79c0feb92b156ba8b6906020015b60405180910390a150565b610da233610def565b610de55760405162461bcd60e51b815260206004820152601460248201527321b0b63632b91034b9903737ba103830bab9b2b960611b6044820152606401610805565b610ded6119d7565b565b6001600160a01b031660009081526002602052604090205460ff1690565b610e163361159b565b610e325760405162461bcd60e51b815260040161080590612b6b565b828114610e515760405162461bcd60e51b815260040161080590612b9b565b60005b83811015610ad057828282818110610e6e57610e6e612bc4565b9050602002013560066000878785818110610e8b57610e8b612bc4565b9050602002016020810190610ea09190612a1a565b6001600160a01b031681526020810191909152604001600020557f608e49c22994f20b5d3496dca088b88dfd81b4a3e8cc3809ea1e10a320107e89858583818110610eed57610eed612bc4565b9050602002016020810190610f029190612a1a565b848484818110610f1457610f14612bc4565b604080516001600160a01b0390951685526020918202939093013590840152500160405180910390a180610f4781612bf0565b915050610e54565b610f583361159b565b610f745760405162461bcd60e51b815260040161080590612b6b565b60048190556040518181527f2664fec2ff76486ac58ed087310855b648b15b9d19f3de8529e95f7c46b7d6b390602001610d8e565b610fb23361159b565b610fce5760405162461bcd60e51b815260040161080590612b6b565b828114610fed5760405162461bcd60e51b815260040161080590612b9b565b60005b83811015610ad05782828281811061100a5761100a612bc4565b90506020020135600c600087878581811061102757611027612bc4565b905060200201602081019061103c9190612a1a565b6001600160a01b031681526020810191909152604001600020557f0f48d517989455cd80ed52427e80553e66f9b69fd5cee8e26bd1a1f9c364fba685858381811061108957611089612bc4565b905060200201602081019061109e9190612a1a565b8484848181106110b0576110b0612bc4565b604080516001600160a01b0390951685526020918202939093013590840152500160405180910390a1806110e381612bf0565b915050610ff0565b336110fe6001546001600160a01b031690565b6001600160a01b0316146111245760405162461bcd60e51b815260040161080590612c0b565b610d3581611a2c565b610ded33611a2c565b336111496001546001600160a01b031690565b6001600160a01b03161461116f5760405162461bcd60e51b815260040161080590612c0b565b610d3581611aca565b61118133610def565b6111c45760405162461bcd60e51b815260206004820152601460248201527321b0b63632b91034b9903737ba103830bab9b2b960611b6044820152606401610805565b610ded611b74565b6111d46116a2565b60006111df82611bb7565b90506111f8816000015182602001518360400151611d7c565b5050565b3361120f6001546001600160a01b031690565b6001600160a01b0316146112355760405162461bcd60e51b815260040161080590612c0b565b600e80546001600160a01b0319166001600160a01b0392909216919091179055565b60006112616116a2565b6000463060405160200161129d92919091825260601b6001600160601b031916602082015267576974686472617760c01b6034820152603c0190565b6040516020818303038152906040528051906020012090506015602960991b016001600160a01b031663682dbc22828c8c6040516020016112e093929190612c40565b6040516020818303038152906040528a8a8a8a8a8a6040518863ffffffff1660e01b81526004016113179796959493929190612d58565b60006040518083038186803b15801561132f57600080fd5b505afa158015611343573d6000803e3d6000fd5b5050505060006113888b8b8080601f016020809104026020016040519081016040528093929190818152602001838380828437600092019190915250611eb192505050565b6020818101518251604080850151606080870151608088015160a089015185516001600160601b031998851b8916818b015296841b88166034880152604887019490945290821b861660688601526001600160c01b031960c09190911b16607c850152608484019190915230901b90921660a48201528151808203609801815260b890910182528051908301206000818152600b9093529120549192509060ff16156114665760405162461bcd60e51b815260206004820152600d60248201526c7265636f72642065786973747360981b6044820152606401610805565b6000818152600b602052604090819020805460ff191660011790558251908301516114919190612013565b81516001600160a01b031660009081526009602052604090205480158015906114bd5750808360400151115b156114df576114da82846020015185600001518660400151612120565b6114f6565b6114f6836020015184600001518560400151611d7c565b602080840151845160408087015160808089015160a0808b01516060808d015187518d81526001600160a01b039a8b169b81019b909b52978916968a01969096529488019390935267ffffffffffffffff16908601528401521660c08201527f296a629c5265cb4e5319803d016902eb70a9079b89655fe2b7737821ed88beeb9060e00160405180910390a1509b9a5050505050505050505050565b610ded33612233565b6001600160a01b031660009081526003602052604090205460ff1690565b336115cc6001546001600160a01b031690565b6001600160a01b0316146115f25760405162461bcd60e51b815260040161080590612c0b565b610d3581612233565b3361160e6001546001600160a01b031690565b6001600160a01b0316146116345760405162461bcd60e51b815260040161080590612c0b565b6001600160a01b0381166116995760405162461bcd60e51b815260206004820152602660248201527f4f776e61626c653a206e6577206f776e657220697320746865207a65726f206160448201526564647265737360d01b6064820152608401610805565b610d35816122d9565b600154600160a01b900460ff1615610ded5760405162461bcd60e51b815260206004820152601060248201526f14185d5cd8589b194e881c185d5cd95960821b6044820152606401610805565b6001600160a01b0385166000908152600c602052604081205485116117495760405162461bcd60e51b815260206004820152601060248201526f185b5bdd5b9d081d1bdbc81cdb585b1b60821b6044820152606401610805565b6001600160a01b0386166000908152600d6020526040902054158061178657506001600160a01b0386166000908152600d60205260409020548511155b6117c55760405162461bcd60e51b815260206004820152601060248201526f616d6f756e7420746f6f206c6172676560801b6044820152606401610805565b6040516001600160601b031933606090811b8216602084015288811b82166034840152604883018890526001600160c01b031960c088811b8216606886015287831b8416607086015286811b8216608486015246901b16608c84015230901b16609482015260009060a80160408051601f1981840301815291815281516020928301206000818152600b90935291205490915060ff16156118985760405162461bcd60e51b815260206004820152600d60248201526c7265636f72642065786973747360981b6044820152606401610805565b6000818152600b60205260409020805460ff19166001179055905095945050505050565b6040516001600160a01b03808516602483015283166044820152606481018290526119279085906323b872dd60e01b906084015b60408051601f198184030181529190526020810180516001600160e01b03166001600160e01b03199093169290921790915261232b565b50505050565b6119368161159b565b156119835760405162461bcd60e51b815260206004820152601b60248201527f4163636f756e7420697320616c726561647920676f7665726e6f7200000000006044820152606401610805565b6001600160a01b038116600081815260036020908152604091829020805460ff1916600117905590519182527fdc5a48d79e2e147530ff63ecdbed5a5a66adb9d5cf339384d5d076da197c40b59101610d8e565b6119df6123fd565b6001805460ff60a01b191690557f5db9ee0a495bf2e6ff9c91a7834c1ba4fdd244a5e8aa4e537bd38aeae4b073aa335b6040516001600160a01b03909116815260200160405180910390a1565b611a3581610def565b611a795760405162461bcd60e51b815260206004820152601560248201527420b1b1b7bab73a1034b9903737ba103830bab9b2b960591b6044820152606401610805565b6001600160a01b038116600081815260026020908152604091829020805460ff1916905590519182527fcd265ebaf09df2871cc7bd4133404a235ba12eff2041bb89d9c714a2621c7c7e9101610d8e565b611ad381610def565b15611b205760405162461bcd60e51b815260206004820152601960248201527f4163636f756e7420697320616c726561647920706175736572000000000000006044820152606401610805565b6001600160a01b038116600081815260026020908152604091829020805460ff1916600117905590519182527f6719d08c1888103bea251a4ed56406bd0c3e69723c8a1686e017e7bbe159b6f89101610d8e565b611b7c6116a2565b6001805460ff60a01b1916600160a01b1790557f62e78cea01bee320cd4e420270b5ea74000d11b0c9f74754ebdbfc544b05a258611a0f3390565b604080516080810182526000808252602082018190529181018290526060810191909152600082815260086020908152604091829020825160808101845281546001600160a01b0390811682526001830154169281019290925260028101549282019290925260039091015460608201819052611c765760405162461bcd60e51b815260206004820152601a60248201527f64656c61796564207472616e73666572206e6f742065786973740000000000006044820152606401610805565b600a548160600151611c889190612e38565b4211611cd65760405162461bcd60e51b815260206004820152601d60248201527f64656c61796564207472616e73666572207374696c6c206c6f636b65640000006044820152606401610805565b600083815260086020908152604080832080546001600160a01b03199081168255600182018054909116905560028101849055600301929092558251908301518383015192517f3b40e5089937425d14cdd96947e5661868357e224af59bd8b24a4b8a330d442693611d6e93889390929091909384526001600160a01b03928316602085015291166040830152606082015260800190565b60405180910390a192915050565b600e546001600160a01b0383811691161415611e9857600e54604051632e1a7d4d60e01b8152600481018390526001600160a01b0390911690632e1a7d4d90602401600060405180830381600087803b158015611dd857600080fd5b505af1158015611dec573d6000803e3d6000fd5b505050506000836001600160a01b03168261c35090604051600060405180830381858888f193505050503d8060008114611e42576040519150601f19603f3d011682016040523d82523d6000602084013e611e47565b606091505b50509050806119275760405162461bcd60e51b815260206004820152601b60248201527f6661696c656420746f2073656e64206e617469766520746f6b656e00000000006044820152606401610805565b611eac6001600160a01b038316848361244d565b505050565b6040805160c08101825260008082526020808301829052828401829052606083018290526080830182905260a0830182905283518085019094528184528301849052909190805b6020830151518351101561200b57611f0f8361247d565b90925090508160011415611f3e57611f2e611f29846124b7565b612574565b6001600160a01b03168452611ef8565b8160021415611f6657611f53611f29846124b7565b6001600160a01b03166020850152611ef8565b8160031415611f8a57611f80611f7b846124b7565b612585565b6040850152611ef8565b8160041415611fb257611f9f611f29846124b7565b6001600160a01b03166060850152611ef8565b8160051415611fd857611fc4836125bc565b67ffffffffffffffff166080850152611ef8565b8160061415611ffc57611ff2611fed846124b7565b61263e565b60a0850152611ef8565b6120068382612656565b611ef8565b505050919050565b60045461201e575050565b6001600160a01b0382166000908152600660205260409020548061204157505050565b6001600160a01b0383166000908152600560205260408120546004549091429161206b8184612e50565b6120759190612e72565b6001600160a01b0387166000908152600760205260409020549091508111156120a0578492506120ad565b6120aa8584612e38565b92505b838311156120f25760405162461bcd60e51b81526020600482015260126024820152710766f6c756d652065786365656473206361760741b6044820152606401610805565b506001600160a01b039094166000908152600560209081526040808320939093556007905220929092555050565b6000848152600860205260409020600301541561217f5760405162461bcd60e51b815260206004820152601f60248201527f64656c61796564207472616e7366657220616c726561647920657869737473006044820152606401610805565b604080516080810182526001600160a01b0380861682528481166020808401918252838501868152426060860190815260008b8152600890935291869020945185549085166001600160a01b031991821617865592516001860180549190951693169290921790925551600283015551600390910155517fcbcfffe5102114216a85d3aceb14ad4b81a3935b1b5c468fadf3889eb9c5dce6906122259086815260200190565b60405180910390a150505050565b61223c8161159b565b6122885760405162461bcd60e51b815260206004820152601760248201527f4163636f756e74206973206e6f7420676f7665726e6f720000000000000000006044820152606401610805565b6001600160a01b038116600081815260036020908152604091829020805460ff1916905590519182527f1ebe834e73d60a5fec822c1e1727d34bc79f2ad977ed504581cc1822fe20fb5b9101610d8e565b600180546001600160a01b038381166001600160a01b0319831681179093556040519116919082907f8be0079c531659141344cd1fd0a4f28419497f9722a3daafe3b4186f6b6457e090600090a35050565b6000612380826040518060400160405280602081526020017f5361666545524332303a206c6f772d6c6576656c2063616c6c206661696c6564815250856001600160a01b03166126c89092919063ffffffff16565b805190915015611eac578080602001905181019061239e9190612e91565b611eac5760405162461bcd60e51b815260206004820152602a60248201527f5361666545524332303a204552433230206f7065726174696f6e20646964206e6044820152691bdd081cdd58d8d9595960b21b6064820152608401610805565b600154600160a01b900460ff16610ded5760405162461bcd60e51b815260206004820152601460248201527314185d5cd8589b194e881b9bdd081c185d5cd95960621b6044820152606401610805565b6040516001600160a01b038316602482015260448101829052611eac90849063a9059cbb60e01b906064016118f0565b600080600061248b846125bc565b9050612498600882612e50565b92508060071660058111156124af576124af612eb3565b915050915091565b606060006124c4836125bc565b905060008184600001516124d89190612e38565b90508360200151518111156124ec57600080fd5b8167ffffffffffffffff81111561250557612505612ec9565b6040519080825280601f01601f19166020018201604052801561252f576020820181803683370190505b50602080860151865192955091818601919083010160005b85811015612569578181015183820152612562602082612e38565b9050612547565b505050935250919050565b600061257f826126e1565b92915050565b600060208251111561259657600080fd5b60208201519050815160206125ab9190612edf565b6125b6906008612e72565b1c919050565b602080820151825181019091015160009182805b600a8110156126385783811a91506125e9816007612e72565b82607f16901b8517945081608016600014156126265761260a816001612e38565b86518790612619908390612e38565b9052509395945050505050565b8061263081612bf0565b9150506125d0565b50600080fd5b6000815160201461264e57600080fd5b506020015190565b600081600581111561266a5761266a612eb3565b141561267957611eac826125bc565b600281600581111561268d5761268d612eb3565b141561022f57600061269e836125bc565b905080836000018181516126b29190612e38565b90525060208301515183511115611eac57600080fd5b60606126d78484600085612700565b90505b9392505050565b600081516014146126f157600080fd5b5060200151600160601b900490565b6060824710156127615760405162461bcd60e51b815260206004820152602660248201527f416464726573733a20696e73756666696369656e742062616c616e636520666f6044820152651c8818d85b1b60d21b6064820152608401610805565b6001600160a01b0385163b6127b85760405162461bcd60e51b815260206004820152601d60248201527f416464726573733a2063616c6c20746f206e6f6e2d636f6e74726163740000006044820152606401610805565b600080866001600160a01b031685876040516127d49190612ef6565b60006040518083038185875af1925050503d8060008114612811576040519150601f19603f3d011682016040523d82523d6000602084013e612816565b606091505b5091509150612826828286612831565b979650505050505050565b606083156128405750816126da565b8251156128505782518084602001fd5b8160405162461bcd60e51b81526004016108059190612f12565b803567ffffffffffffffff8116811461288257600080fd5b919050565b80356001600160a01b038116811461288257600080fd5b600080600080608085870312156128b457600080fd5b843593506128c46020860161286a565b92506128d260408601612887565b91506128e06060860161286a565b905092959194509250565b6000602082840312156128fd57600080fd5b5035919050565b60008083601f84011261291657600080fd5b50813567ffffffffffffffff81111561292e57600080fd5b6020830191508360208260051b850101111561294957600080fd5b9250929050565b6000806000806040858703121561296657600080fd5b843567ffffffffffffffff8082111561297e57600080fd5b61298a88838901612904565b909650945060208701359150808211156129a357600080fd5b506129b087828801612904565b95989497509550505050565b600080600080600060a086880312156129d457600080fd5b6129dd86612887565b9450602086013593506129f26040870161286a565b9250612a0060608701612887565b9150612a0e6080870161286a565b90509295509295909350565b600060208284031215612a2c57600080fd5b6126da82612887565b6000806000806000806000806080898b031215612a5157600080fd5b883567ffffffffffffffff80821115612a6957600080fd5b818b0191508b601f830112612a7d57600080fd5b813581811115612a8c57600080fd5b8c6020828501011115612a9e57600080fd5b60209283019a509850908a01359080821115612ab957600080fd5b612ac58c838d01612904565b909850965060408b0135915080821115612ade57600080fd5b612aea8c838d01612904565b909650945060608b0135915080821115612b0357600080fd5b50612b108b828c01612904565b999c989b5096995094979396929594505050565b9687526001600160a01b0395861660208801529385166040870152606086019290925267ffffffffffffffff9081166080860152921660a08401521660c082015260e00190565b60208082526016908201527521b0b63632b91034b9903737ba1033b7bb32b93737b960511b604082015260600190565b6020808252600f908201526e0d8cadccee8d040dad2e6dac2e8c6d608b1b604082015260600190565b634e487b7160e01b600052603260045260246000fd5b634e487b7160e01b600052601160045260246000fd5b6000600019821415612c0457612c04612bda565b5060010190565b6020808252818101527f4f776e61626c653a2063616c6c6572206973206e6f7420746865206f776e6572604082015260600190565b838152818360208301376000910160200190815292915050565b60005b83811015612c75578181015183820152602001612c5d565b838111156119275750506000910152565b60008151808452612c9e816020860160208601612c5a565b601f01601f19169290920160200192915050565b81835281816020850137506000828201602090810191909152601f909101601f19169091010190565b8183526000602080850194508260005b85811015612d17576001600160a01b03612d0483612887565b1687529582019590820190600101612ceb565b509495945050505050565b81835260006001600160fb1b03831115612d3b57600080fd5b8260051b8083602087013760009401602001938452509192915050565b608081526000612d6b608083018a612c86565b82810360208401528088825260208201905060208960051b8301018a60005b8b811015612dfe57848303601f190184528135368e9003601e19018112612db057600080fd5b8d01803567ffffffffffffffff811115612dc957600080fd5b8036038f1315612dd857600080fd5b612de6858260208501612cb2565b60209687019690955093909301925050600101612d8a565b50508481036040860152612e1381898b612cdb565b925050508281036060840152612e2a818587612d22565b9a9950505050505050505050565b60008219821115612e4b57612e4b612bda565b500190565b600082612e6d57634e487b7160e01b600052601260045260246000fd5b500490565b6000816000190483118215151615612e8c57612e8c612bda565b500290565b600060208284031215612ea357600080fd5b815180151581146126da57600080fd5b634e487b7160e01b600052602160045260246000fd5b634e487b7160e01b600052604160045260246000fd5b600082821015612ef157612ef1612bda565b500390565b60008251612f08818460208701612c5a565b9190910192915050565b6020815260006126da6020830184612c8656fea2646970667358221220047b131bf301e8fc1ffeef548dc7c60ff9971acd709931d12ae9db5a0f34a54d64736f6c63430008090033",
  "linkReferences": {},
  "deployedLinkReferences": {}
}