{
  "_format": "hh-sol-artifact-1",
  "contractName": "BatchTransfer",
  "sourceName": "contracts/cBridge/message/apps/examples/BatchTransfer.sol",
  "abi": [
    {
      "inputs": [
        {
          "internalType": "address",
          "name": "_messageBus",
          "type": "address"
        }
      ],
      "stateMutability": "nonpayable",
      "type": "constructor"
    },
    {
      "anonymous": false,
      "inputs": [
        {
          "indexed": false,
          "internalType": "address",
          "name": "messageBus",
          "type": "address"
        }
      ],
      "name": "MessageBusUpdated",
      "type": "event"
    },
    {
      "anonymous": false,
      "inputs": [
        {
          "indexed": true,
          "internalType": "address",
          "name": "previousOwner",
          "type": "address"
        },
        {
          "indexed": true,
          "internalType": "address",
          "name": "newOwner",
          "type": "address"
        }
      ],
      "name": "OwnershipTransferred",
      "type": "event"
    },
    {
      "inputs": [
        {
          "internalType": "address",
          "name": "_dstContract",
          "type": "address"
        },
        {
          "internalType": "address",
          "name": "_token",
          "type": "address"
        },
        {
          "internalType": "uint256",
          "name": "_amount",
          "type": "uint256"
        },
        {
          "internalType": "uint64",
          "name": "_dstChainId",
          "type": "uint64"
        },
        {
          "internalType": "uint32",
          "name": "_maxSlippage",
          "type": "uint32"
        },
        {
          "internalType": "enum MsgDataTypes.BridgeSendType",
          "name": "_bridgeSendType",
          "type": "uint8"
        },
        {
          "internalType": "address[]",
          "name": "_accounts",
          "type": "address[]"
        },
        {
          "internalType": "uint256[]",
          "name": "_amounts",
          "type": "uint256[]"
        }
      ],
      "name": "batchTransfer",
      "outputs": [],
      "stateMutability": "payable",
      "type": "function"
    },
    {
      "inputs": [
        {
          "internalType": "bytes",
          "name": "_sender",
          "type": "bytes"
        },
        {
          "internalType": "uint64",
          "name": "_srcChainId",
          "type": "uint64"
        },
        {
          "internalType": "bytes",
          "name": "_message",
          "type": "bytes"
        },
        {
          "internalType": "address",
          "name": "_executor",
          "type": "address"
        }
      ],
      "name": "executeMessage",
      "outputs": [
        {
          "internalType": "enum IMessageReceiverApp.ExecutionStatus",
          "name": "",
          "type": "uint8"
        }
      ],
      "stateMutability": "payable",
      "type": "function"
    },
    {
      "inputs": [
        {
          "internalType": "address",
          "name": "_sender",
          "type": "address"
        },
        {
          "internalType": "uint64",
          "name": "_srcChainId",
          "type": "uint64"
        },
        {
          "internalType": "bytes",
          "name": "_message",
          "type": "bytes"
        },
        {
          "internalType": "address",
          "name": "",
          "type": "address"
        }
      ],
      "name": "executeMessage",
      "outputs": [
        {
          "internalType": "enum IMessageReceiverApp.ExecutionStatus",
          "name": "",
          "type": "uint8"
        }
      ],
      "stateMutability": "payable",
      "type": "function"
    },
    {
      "inputs": [
        {
          "internalType": "address",
          "name": "_srcContract",
          "type": "address"
        },
        {
          "internalType": "address",
          "name": "_token",
          "type": "address"
        },
        {
          "internalType": "uint256",
          "name": "_amount",
          "type": "uint256"
        },
        {
          "internalType": "uint64",
          "name": "_srcChainId",
          "type": "uint64"
        },
        {
          "internalType": "bytes",
          "name": "_message",
          "type": "bytes"
        },
        {
          "internalType": "address",
          "name": "",
          "type": "address"
        }
      ],
      "name": "executeMessageWithTransfer",
      "outputs": [
        {
          "internalType": "enum IMessageReceiverApp.ExecutionStatus",
          "name": "",
          "type": "uint8"
        }
      ],
      "stateMutability": "payable",
      "type": "function"
    },
    {
      "inputs": [
        {
          "internalType": "address",
          "name": "_srcContract",
          "type": "address"
        },
        {
          "internalType": "address",
          "name": "_token",
          "type": "address"
        },
        {
          "internalType": "uint256",
          "name": "_amount",
          "type": "uint256"
        },
        {
          "internalType": "uint64",
          "name": "_srcChainId",
          "type": "uint64"
        },
        {
          "internalType": "bytes",
          "name": "_message",
          "type": "bytes"
        },
        {
          "internalType": "address",
          "name": "",
          "type": "address"
        }
      ],
      "name": "executeMessageWithTransferFallback",
      "outputs": [
        {
          "internalType": "enum IMessageReceiverApp.ExecutionStatus",
          "name": "",
          "type": "uint8"
        }
      ],
      "stateMutability": "payable",
      "type": "function"
    },
    {
      "inputs": [
        {
          "internalType": "address",
          "name": "_token",
          "type": "address"
        },
        {
          "internalType": "uint256",
          "name": "_amount",
          "type": "uint256"
        },
        {
          "internalType": "bytes",
          "name": "_message",
          "type": "bytes"
        },
        {
          "internalType": "address",
          "name": "",
          "type": "address"
        }
      ],
      "name": "executeMessageWithTransferRefund",
      "outputs": [
        {
          "internalType": "enum IMessageReceiverApp.ExecutionStatus",
          "name": "",
          "type": "uint8"
        }
      ],
      "stateMutability": "payable",
      "type": "function"
    },
    {
      "inputs": [],
      "name": "messageBus",
      "outputs": [
        {
          "internalType": "address",
          "name": "",
          "type": "address"
        }
      ],
      "stateMutability": "view",
      "type": "function"
    },
    {
      "inputs": [],
      "name": "owner",
      "outputs": [
        {
          "internalType": "address",
          "name": "",
          "type": "address"
        }
      ],
      "stateMutability": "view",
      "type": "function"
    },
    {
      "inputs": [
        {
          "internalType": "address",
          "name": "_messageBus",
          "type": "address"
        }
      ],
      "name": "setMessageBus",
      "outputs": [],
      "stateMutability": "nonpayable",
      "type": "function"
    },
    {
      "inputs": [
        {
          "internalType": "uint64",
          "name": "",
          "type": "uint64"
        }
      ],
      "name": "status",
      "outputs": [
        {
          "internalType": "bytes32",
          "name": "h",
          "type": "bytes32"
        },
        {
          "internalType": "enum BatchTransfer.TransferStatus",
          "name": "status",
          "type": "uint8"
        }
      ],
      "stateMutability": "view",
      "type": "function"
    },
    {
      "inputs": [
        {
          "internalType": "address",
          "name": "newOwner",
          "type": "address"
        }
      ],
      "name": "transferOwnership",
      "outputs": [],
      "stateMutability": "nonpayable",
      "type": "function"
    }
  ],
  "bytecode": "0x60806040523480156200001157600080fd5b5060405162002664380380620026648339810160408190526200003491620000b7565b80620000403362000067565b600180546001600160a01b0319166001600160a01b039290921691909117905550620000e9565b600080546001600160a01b038381166001600160a01b0319831681178455604051919092169283917f8be0079c531659141344cd1fd0a4f28419497f9722a3daafe3b4186f6b6457e09190a35050565b600060208284031215620000ca57600080fd5b81516001600160a01b0381168114620000e257600080fd5b9392505050565b61256b80620000f96000396000f3fe60806040526004361061009c5760003560e01c806364d39f421161006457806364d39f42146101575780637cd2bffc1461016a5780638da5cb5b1461017d5780639c649fdf146101af578063a1a227fa146101c2578063f2fde38b146101e257600080fd5b8063063ce4e5146100a15780630bcb4982146100ca57806320bff893146100dd578063547cad12146101225780635ab7afc614610144575b600080fd5b6100b46100af366004611975565b610202565b6040516100c19190611a3f565b60405180910390f35b6100b46100d8366004611a52565b610242565b3480156100e957600080fd5b506101146100f8366004611ac5565b6002602052600090815260409020805460019091015460ff1682565b6040516100c1929190611ae2565b34801561012e57600080fd5b5061014261013d366004611aff565b6102a7565b005b6100b4610152366004611bf9565b610364565b610142610165366004611ccf565b610422565b6100b4610178366004611bf9565b61067e565b34801561018957600080fd5b506000546001600160a01b03165b6040516001600160a01b0390911681526020016100c1565b6100b46101bd366004611daf565b6107fa565b3480156101ce57600080fd5b50600154610197906001600160a01b031681565b3480156101ee57600080fd5b506101426101fd366004611aff565b610914565b6001546000906001600160a01b031633146102385760405162461bcd60e51b815260040161022f90611e23565b60405180910390fd5b9695505050505050565b6001546000906001600160a01b0316331461026f5760405162461bcd60e51b815260040161022f90611e23565b600061027d84860186611ee8565b606081015190915061029a906001600160a01b03891690886109ee565b5060019695505050505050565b336102ba6000546001600160a01b031690565b6001600160a01b0316146103105760405162461bcd60e51b815260206004820181905260248201527f4f776e61626c653a2063616c6c6572206973206e6f7420746865206f776e6572604482015260640161022f565b600180546001600160a01b0319166001600160a01b0383169081179091556040519081527f3f8223bcd8b3b875473e9f9e14e1ad075451a2b5ffd31591655da9a01516bf5e9060200160405180910390a150565b6001546000906001600160a01b031633146103915760405162461bcd60e51b815260040161022f90611e23565b6000838060200190518101906103a79190612060565b60608101519091506103c4906001600160a01b03891690886109ee565b6040805180820190915281516001600160401b0316815260009060208101600290526040516103f69190602001612163565b604051602081830303815290604052905061041389878334610a56565b50600198975050505050505050565b33321461045b5760405162461bcd60e51b81526020600482015260076024820152664e6f7420454f4160c81b604482015260640161022f565b6000805b8281101561049f5783838281811061047957610479612190565b905060200201358261048b91906121bc565b915080610497816121d4565b91505061045f565b506001805481906014906104c4908390600160a01b90046001600160401b03166121ef565b92506101000a8154816001600160401b0302191690836001600160401b0316021790555060405180604001604052808c8a60405160200161050692919061221a565b60408051601f1981840301815291905280516020918201208252016000905260018054600160a01b90046001600160401b031660009081526002602081815260409092208451815591840151828401805493949193909260ff199091169190849081111561057657610576611a0b565b02179055506105939150506001600160a01b038b1633308c610a78565b60408051608081018252600154600160a01b90046001600160401b0316815281516020878102808301820190945287825260009381840192918a918a9182919085019084908082843760009201919091525050509082525060408051602087810282810182019093528782529283019290918891889182918501908490808284376000920191909152505050908252503360209182015260405161063892910161227f565b604051602081830303815290604052905061066f8c8c8c8c600160149054906101000a90046001600160401b03168d878e34610ab0565b50505050505050505050505050565b6001546000906001600160a01b031633146106ab5760405162461bcd60e51b815260040161022f90611e23565b6000838060200190518101906106c19190612060565b90506000805b8260200151518110156107695761072c836020015182815181106106ed576106ed612190565b60200260200101518460400151838151811061070b5761070b612190565b60200260200101518b6001600160a01b03166109ee9092919063ffffffff16565b8260400151818151811061074257610742612190565b60200260200101518261075591906121bc565b915080610761816121d4565b9150506106c7565b5060006107768289612324565b90508188111561079a57606083015161079a906001600160a01b038b1690836109ee565b6040805180820190915283516001600160401b0316815260009060208101600190526040516107cc9190602001612163565b60405160208183030381529060405290506107e98b898334610a56565b5060019a9950505050505050505050565b6001546000906001600160a01b031633146108275760405162461bcd60e51b815260040161022f90611e23565b60008380602001905181019061083d919061233b565b9050858560405160200161085292919061221a565b60408051601f19818403018152918152815160209283012083516001600160401b031660009081526002909352912054146108c15760405162461bcd60e51b815260206004820152600f60248201526e696e76616c6964206d65737361676560881b604482015260640161022f565b60208082015182516001600160401b0316600090815260029283905260409020600190810180549293909260ff19169190849081111561090357610903611a0b565b021790555060019695505050505050565b336109276000546001600160a01b031690565b6001600160a01b03161461097d5760405162461bcd60e51b815260206004820181905260248201527f4f776e61626c653a2063616c6c6572206973206e6f7420746865206f776e6572604482015260640161022f565b6001600160a01b0381166109e25760405162461bcd60e51b815260206004820152602660248201527f4f776e61626c653a206e6577206f776e657220697320746865207a65726f206160448201526564647265737360d01b606482015260840161022f565b6109eb81610ae7565b50565b6040516001600160a01b038316602482015260448101829052610a5190849063a9059cbb60e01b906064015b60408051601f198184030181529190526020810180516001600160e01b03166001600160e01b031990931692909217909152610b37565b505050565b600154610a72908590859085906001600160a01b031685610c09565b50505050565b6040516001600160a01b0380851660248301528316604482015260648101829052610a729085906323b872dd60e01b90608401610a1a565b6000610ad98a8a8a8a8a8a8a8a600160009054906101000a90046001600160a01b03168b610c74565b9a9950505050505050505050565b600080546001600160a01b038381166001600160a01b0319831681178455604051919092169283917f8be0079c531659141344cd1fd0a4f28419497f9722a3daafe3b4186f6b6457e09190a35050565b6000610b8c826040518060400160405280602081526020017f5361666545524332303a206c6f772d6c6576656c2063616c6c206661696c6564815250856001600160a01b0316610d0d9092919063ffffffff16565b805190915015610a515780806020019051810190610baa919061239d565b610a515760405162461bcd60e51b815260206004820152602a60248201527f5361666545524332303a204552433230206f7065726174696f6e20646964206e6044820152691bdd081cdd58d8d9595960b21b606482015260840161022f565b604051634f9e72ad60e11b81526001600160a01b03831690639f3ce55a908390610c3b90899089908990600401612417565b6000604051808303818588803b158015610c5457600080fd5b505af1158015610c68573d6000803e3d6000fd5b50505050505050505050565b6000806000610c898d8d8d8d8d8d8c8c610d26565b8851919350915015610cfd57846001600160a01b0316634289fbb3858f8d85878d6040518763ffffffff1660e01b8152600401610cca959493929190612453565b6000604051808303818588803b158015610ce357600080fd5b505af1158015610cf7573d6000803e3d6000fd5b50505050505b509b9a5050505050505050505050565b6060610d1c84846000856114b8565b90505b9392505050565b6000806001846006811115610d3d57610d3d611a0b565b1415610e6b57826001600160a01b03166382980dc46040518163ffffffff1660e01b815260040160206040518083038186803b158015610d7c57600080fd5b505afa158015610d90573d6000803e3d6000fd5b505050506040513d601f19601f82011682018060405250810190610db49190612495565b9050610dca6001600160a01b038a16828a6115e9565b60405163a5977fbb60e01b81526001600160a01b038b811660048301528a81166024830152604482018a90526001600160401b03808a1660648401528816608483015263ffffffff871660a483015282169063a5977fbb9060c401600060405180830381600087803b158015610e3f57600080fd5b505af1158015610e53573d6000803e3d6000fd5b50505050610e648a8a8a8a8a6116aa565b91506114ab565b6002846006811115610e7f57610e7f611a0b565b1415610f7f57826001600160a01b031663d8257d176040518163ffffffff1660e01b815260040160206040518083038186803b158015610ebe57600080fd5b505afa158015610ed2573d6000803e3d6000fd5b505050506040513d601f19601f82011682018060405250810190610ef69190612495565b9050610f0c6001600160a01b038a16828a6115e9565b806001600160a01b031663234636248a8a8a8e8b6040518663ffffffff1660e01b8152600401610f409594939291906124b2565b600060405180830381600087803b158015610f5a57600080fd5b505af1158015610f6e573d6000803e3d6000fd5b50505050610e648a8a8a8a8a61172d565b6003846006811115610f9357610f93611a0b565b141561112457826001600160a01b031663dfa2dbaf6040518163ffffffff1660e01b815260040160206040518083038186803b158015610fd257600080fd5b505afa158015610fe6573d6000803e3d6000fd5b505050506040513d601f19601f8201168201806040525081019061100a9190612495565b90506110206001600160a01b038a16828a6115e9565b604051636f3c863f60e11b81526001600160a01b038a81166004830152602482018a90528b811660448301526001600160401b038816606483015282169063de790c7e90608401600060405180830381600087803b15801561108157600080fd5b505af1158015611095573d6000803e3d6000fd5b506110af925050506001600160a01b038a16826000611796565b604080516001600160601b031930606090811b82166020808501919091528d821b83166034850152604884018d9052908e901b90911660688301526001600160c01b031960c08a811b8216607c85015246901b1660848301528251808303606c018152608c9092019092528051910120610e64565b600484600681111561113857611138611a0b565b141561124b57826001600160a01b031663c66a9c5a6040518163ffffffff1660e01b815260040160206040518083038186803b15801561117757600080fd5b505afa15801561118b573d6000803e3d6000fd5b505050506040513d601f19601f820116820180604052508101906111af9190612495565b90506111c56001600160a01b038a16828a6115e9565b806001600160a01b031663234636248a8a8a8e8b6040518663ffffffff1660e01b81526004016111f99594939291906124b2565b602060405180830381600087803b15801561121357600080fd5b505af1158015611227573d6000803e3d6000fd5b505050506040513d601f19601f82011682018060405250810190610e6491906124ed565b600584600681111561125f5761125f611a0b565b141561138e57826001600160a01b03166395b12c276040518163ffffffff1660e01b815260040160206040518083038186803b15801561129e57600080fd5b505afa1580156112b2573d6000803e3d6000fd5b505050506040513d601f19601f820116820180604052508101906112d69190612495565b90506112ec6001600160a01b038a16828a6115e9565b806001600160a01b031663a00293018a8a8a8e8b6040518663ffffffff1660e01b81526004016113209594939291906124b2565b602060405180830381600087803b15801561133a57600080fd5b505af115801561134e573d6000803e3d6000fd5b505050506040513d601f19601f8201168201806040525081019061137291906124ed565b91506113896001600160a01b038a16826000611796565b6114ab565b60068460068111156113a2576113a2611a0b565b141561146357826001600160a01b03166395b12c276040518163ffffffff1660e01b815260040160206040518083038186803b1580156113e157600080fd5b505afa1580156113f5573d6000803e3d6000fd5b505050506040513d601f19601f820116820180604052508101906114199190612495565b905061142f6001600160a01b038a16828a6115e9565b806001600160a01b0316639e422c338a8a8a8e8b6040518663ffffffff1660e01b81526004016113209594939291906124b2565b60405162461bcd60e51b815260206004820152601960248201527f6272696467652074797065206e6f7420737570706f7274656400000000000000604482015260640161022f565b9850989650505050505050565b6060824710156115195760405162461bcd60e51b815260206004820152602660248201527f416464726573733a20696e73756666696369656e742062616c616e636520666f6044820152651c8818d85b1b60d21b606482015260840161022f565b6001600160a01b0385163b6115705760405162461bcd60e51b815260206004820152601d60248201527f416464726573733a2063616c6c20746f206e6f6e2d636f6e7472616374000000604482015260640161022f565b600080866001600160a01b0316858760405161158c9190612506565b60006040518083038185875af1925050503d80600081146115c9576040519150601f19603f3d011682016040523d82523d6000602084013e6115ce565b606091505b50915091506115de8282866118ba565b979650505050505050565b604051636eb1769f60e11b81523060048201526001600160a01b038381166024830152600091839186169063dd62ed3e9060440160206040518083038186803b15801561163557600080fd5b505afa158015611649573d6000803e3d6000fd5b505050506040513d601f19601f8201168201806040525081019061166d91906124ed565b61167791906121bc565b6040516001600160a01b038516602482015260448101829052909150610a7290859063095ea7b360e01b90606401610a1a565b6040516001600160601b031930606090811b8216602084015287811b8216603484015286901b166048820152605c81018490526001600160c01b031960c084811b8216607c84015283811b8216608484015246901b16608c8201526000906094015b60405160208183030381529060405280519060200120905095945050505050565b6040516001600160601b031930606090811b8216602084015286811b82166034840152604883018690526001600160c01b031960c086811b821660688601529189901b909216607084015283811b8216608484015246901b16608c82015260009060940161170c565b80158061181f5750604051636eb1769f60e11b81523060048201526001600160a01b03838116602483015284169063dd62ed3e9060440160206040518083038186803b1580156117e557600080fd5b505afa1580156117f9573d6000803e3d6000fd5b505050506040513d601f19601f8201168201806040525081019061181d91906124ed565b155b61188a5760405162461bcd60e51b815260206004820152603660248201527f5361666545524332303a20617070726f76652066726f6d206e6f6e2d7a65726f60448201527520746f206e6f6e2d7a65726f20616c6c6f77616e636560501b606482015260840161022f565b6040516001600160a01b038316602482015260448101829052610a5190849063095ea7b360e01b90606401610a1a565b606083156118c9575081610d1f565b8251156118d95782518084602001fd5b8160405162461bcd60e51b815260040161022f9190612522565b60008083601f84011261190557600080fd5b5081356001600160401b0381111561191c57600080fd5b60208301915083602082850101111561193457600080fd5b9250929050565b6001600160401b03811681146109eb57600080fd5b6001600160a01b03811681146109eb57600080fd5b803561197081611950565b919050565b6000806000806000806080878903121561198e57600080fd5b86356001600160401b03808211156119a557600080fd5b6119b18a838b016118f3565b9098509650602089013591506119c68261193b565b909450604088013590808211156119dc57600080fd5b506119e989828a016118f3565b90945092505060608701356119fd81611950565b809150509295509295509295565b634e487b7160e01b600052602160045260246000fd5b600381106109eb57634e487b7160e01b600052602160045260246000fd5b60208101611a4c83611a21565b91905290565b600080600080600060808688031215611a6a57600080fd5b8535611a7581611950565b94506020860135935060408601356001600160401b03811115611a9757600080fd5b611aa3888289016118f3565b9094509250506060860135611ab781611950565b809150509295509295909350565b600060208284031215611ad757600080fd5b8135610d1f8161193b565b82815260408101611af283611a21565b8260208301529392505050565b600060208284031215611b1157600080fd5b8135610d1f81611950565b634e487b7160e01b600052604160045260246000fd5b604051608081016001600160401b0381118282101715611b5457611b54611b1c565b60405290565b604051601f8201601f191681016001600160401b0381118282101715611b8257611b82611b1c565b604052919050565b600082601f830112611b9b57600080fd5b81356001600160401b03811115611bb457611bb4611b1c565b611bc7601f8201601f1916602001611b5a565b818152846020838601011115611bdc57600080fd5b816020850160208301376000918101602001919091529392505050565b60008060008060008060c08789031215611c1257600080fd5b8635611c1d81611950565b95506020870135611c2d81611950565b9450604087013593506060870135611c448161193b565b925060808701356001600160401b03811115611c5f57600080fd5b611c6b89828a01611b8a565b92505060a08701356119fd81611950565b80356007811061197057600080fd5b60008083601f840112611c9d57600080fd5b5081356001600160401b03811115611cb457600080fd5b6020830191508360208260051b850101111561193457600080fd5b6000806000806000806000806000806101008b8d031215611cef57600080fd5b8a35611cfa81611950565b995060208b0135611d0a81611950565b985060408b0135975060608b0135611d218161193b565b965060808b013563ffffffff81168114611d3a57600080fd5b9550611d4860a08c01611c7c565b945060c08b01356001600160401b0380821115611d6457600080fd5b611d708e838f01611c8b565b909650945060e08d0135915080821115611d8957600080fd5b50611d968d828e01611c8b565b915080935050809150509295989b9194979a5092959850565b60008060008060808587031215611dc557600080fd5b8435611dd081611950565b93506020850135611de08161193b565b925060408501356001600160401b03811115611dfb57600080fd5b611e0787828801611b8a565b9250506060850135611e1881611950565b939692955090935050565b60208082526019908201527f63616c6c6572206973206e6f74206d6573736167652062757300000000000000604082015260600190565b60006001600160401b03821115611e7357611e73611b1c565b5060051b60200190565b600082601f830112611e8e57600080fd5b81356020611ea3611e9e83611e5a565b611b5a565b82815260059290921b84018101918181019086841115611ec257600080fd5b8286015b84811015611edd5780358352918301918301611ec6565b509695505050505050565b60006020808385031215611efb57600080fd5b82356001600160401b0380821115611f1257600080fd5b9084019060808287031215611f2657600080fd5b611f2e611b32565b8235611f398161193b565b81528284013582811115611f4c57600080fd5b8301601f81018813611f5d57600080fd5b8035611f6b611e9e82611e5a565b81815260059190911b8201860190868101908a831115611f8a57600080fd5b928701925b82841015611fb1578335611fa281611950565b82529287019290870190611f8f565b8088860152505050506040830135935081841115611fce57600080fd5b611fda87858501611e7d565b6040820152611feb60608401611965565b60608201529695505050505050565b805161197081611950565b600082601f83011261201657600080fd5b81516020612026611e9e83611e5a565b82815260059290921b8401810191818101908684111561204557600080fd5b8286015b84811015611edd5780518352918301918301612049565b6000602080838503121561207357600080fd5b82516001600160401b038082111561208a57600080fd5b908401906080828703121561209e57600080fd5b6120a6611b32565b82516120b18161193b565b815282840151828111156120c457600080fd5b8301601f810188136120d557600080fd5b80516120e3611e9e82611e5a565b81815260059190911b8201860190868101908a83111561210257600080fd5b928701925b8284101561212957835161211a81611950565b82529287019290870190612107565b808886015250505050604083015193508184111561214657600080fd5b61215287858501612005565b6040820152611feb60608401611ffa565b81516001600160401b031681526020820151604082019061218381611a21565b8060208401525092915050565b634e487b7160e01b600052603260045260246000fd5b634e487b7160e01b600052601160045260246000fd5b600082198211156121cf576121cf6121a6565b500190565b60006000198214156121e8576121e86121a6565b5060010190565b60006001600160401b03808316818516808303821115612211576122116121a6565b01949350505050565b60609290921b6001600160601b031916825260c01b6001600160c01b0319166014820152601c0190565b600081518084526020808501945080840160005b8381101561227457815187529582019590820190600101612258565b509495945050505050565b602080825282516001600160401b0316828201528281015160806040840152805160a0840181905260009291820190839060c08601905b808310156122df5783516001600160a01b031682529284019260019290920191908401906122b6565b506040870151868203601f1901606088015293506122fd8185612244565b9350505050606084015161231c60808501826001600160a01b03169052565b509392505050565b600082821015612336576123366121a6565b500390565b60006040828403121561234d57600080fd5b604051604081018181106001600160401b038211171561236f5761236f611b1c565b604052825161237d8161193b565b815260208301516003811061239157600080fd5b60208201529392505050565b6000602082840312156123af57600080fd5b81518015158114610d1f57600080fd5b60005b838110156123da5781810151838201526020016123c2565b83811115610a725750506000910152565b600081518084526124038160208601602086016123bf565b601f01601f19169290920160200192915050565b6001600160a01b03841681526001600160401b038316602082015260606040820181905260009061244a908301846123eb565b95945050505050565b6001600160a01b0386811682526001600160401b0386166020830152841660408201526060810183905260a0608082018190526000906115de908301846123eb565b6000602082840312156124a757600080fd5b8151610d1f81611950565b6001600160a01b03958616815260208101949094526001600160401b0392831660408501529316606083015291909116608082015260a00190565b6000602082840312156124ff57600080fd5b5051919050565b600082516125188184602087016123bf565b9190910192915050565b602081526000610d1f60208301846123eb56fea2646970667358221220f87a0c801813c3a66eb473a555b3c5fc97123ba9cc07d38ee542ef0b14174afc64736f6c63430008090033",
  "linkReferences": {},
  "deployedLinkReferences": {}
}