{
  "_format": "hh-sol-artifact-1",
  "contractName": "WETH",
  "sourceName": "contracts/cBridge/test-helpers/WETH.sol",
  "abi": [
    {
      "inputs": [],
      "stateMutability": "nonpayable",
      "type": "constructor"
    },
    {
      "anonymous": false,
      "inputs": [
        {
          "indexed": true,
          "internalType": "address",
          "name": "owner",
          "type": "address"
        },
        {
          "indexed": true,
          "internalType": "address",
          "name": "spender",
          "type": "address"
        },
        {
          "indexed": false,
          "internalType": "uint256",
          "name": "value",
          "type": "uint256"
        }
      ],
      "name": "Approval",
      "type": "event"
    },
    {
      "anonymous": false,
      "inputs": [
        {
          "indexed": true,
          "internalType": "address",
          "name": "from",
          "type": "address"
        },
        {
          "indexed": true,
          "internalType": "address",
          "name": "to",
          "type": "address"
        },
        {
          "indexed": false,
          "internalType": "uint256",
          "name": "value",
          "type": "uint256"
        }
      ],
      "name": "Transfer",
      "type": "event"
    },
    {
      "inputs": [
        {
          "internalType": "address",
          "name": "owner",
          "type": "address"
        },
        {
          "internalType": "address",
          "name": "spender",
          "type": "address"
        }
      ],
      "name": "allowance",
      "outputs": [
        {
          "internalType": "uint256",
          "name": "",
          "type": "uint256"
        }
      ],
      "stateMutability": "view",
      "type": "function"
    },
    {
      "inputs": [
        {
          "internalType": "address",
          "name": "spender",
          "type": "address"
        },
        {
          "internalType": "uint256",
          "name": "amount",
          "type": "uint256"
        }
      ],
      "name": "approve",
      "outputs": [
        {
          "internalType": "bool",
          "name": "",
          "type": "bool"
        }
      ],
      "stateMutability": "nonpayable",
      "type": "function"
    },
    {
      "inputs": [
        {
          "internalType": "address",
          "name": "account",
          "type": "address"
        }
      ],
      "name": "balanceOf",
      "outputs": [
        {
          "internalType": "uint256",
          "name": "",
          "type": "uint256"
        }
      ],
      "stateMutability": "view",
      "type": "function"
    },
    {
      "inputs": [],
      "name": "decimals",
      "outputs": [
        {
          "internalType": "uint8",
          "name": "",
          "type": "uint8"
        }
      ],
      "stateMutability": "view",
      "type": "function"
    },
    {
      "inputs": [
        {
          "internalType": "address",
          "name": "spender",
          "type": "address"
        },
        {
          "internalType": "uint256",
          "name": "subtractedValue",
          "type": "uint256"
        }
      ],
      "name": "decreaseAllowance",
      "outputs": [
        {
          "internalType": "bool",
          "name": "",
          "type": "bool"
        }
      ],
      "stateMutability": "nonpayable",
      "type": "function"
    },
    {
      "inputs": [],
      "name": "deposit",
      "outputs": [],
      "stateMutability": "payable",
      "type": "function"
    },
    {
      "inputs": [
        {
          "internalType": "address",
          "name": "spender",
          "type": "address"
        },
        {
          "internalType": "uint256",
          "name": "addedValue",
          "type": "uint256"
        }
      ],
      "name": "increaseAllowance",
      "outputs": [
        {
          "internalType": "bool",
          "name": "",
          "type": "bool"
        }
      ],
      "stateMutability": "nonpayable",
      "type": "function"
    },
    {
      "inputs": [],
      "name": "name",
      "outputs": [
        {
          "internalType": "string",
          "name": "",
          "type": "string"
        }
      ],
      "stateMutability": "view",
      "type": "function"
    },
    {
      "inputs": [],
      "name": "symbol",
      "outputs": [
        {
          "internalType": "string",
          "name": "",
          "type": "string"
        }
      ],
      "stateMutability": "view",
      "type": "function"
    },
    {
      "inputs": [],
      "name": "totalSupply",
      "outputs": [
        {
          "internalType": "uint256",
          "name": "",
          "type": "uint256"
        }
      ],
      "stateMutability": "view",
      "type": "function"
    },
    {
      "inputs": [
        {
          "internalType": "address",
          "name": "to",
          "type": "address"
        },
        {
          "internalType": "uint256",
          "name": "amount",
          "type": "uint256"
        }
      ],
      "name": "transfer",
      "outputs": [
        {
          "internalType": "bool",
          "name": "",
          "type": "bool"
        }
      ],
      "stateMutability": "nonpayable",
      "type": "function"
    },
    {
      "inputs": [
        {
          "internalType": "address",
          "name": "from",
          "type": "address"
        },
        {
          "internalType": "address",
          "name": "to",
          "type": "address"
        },
        {
          "internalType": "uint256",
          "name": "amount",
          "type": "uint256"
        }
      ],
      "name": "transferFrom",
      "outputs": [
        {
          "internalType": "bool",
          "name": "",
          "type": "bool"
        }
      ],
      "stateMutability": "nonpayable",
      "type": "function"
    },
    {
      "inputs": [
        {
          "internalType": "uint256",
          "name": "_amount",
          "type": "uint256"
        }
      ],
      "name": "withdraw",
      "outputs": [],
      "stateMutability": "nonpayable",
      "type": "function"
    },
    {
      "stateMutability": "payable",
      "type": "receive"
    }
  ],
  "bytecode": "0x60806040523480156200001157600080fd5b506040805180820182526004808252630ae8aa8960e31b602080840182815285518087019096529285528401528151919291620000519160039162000070565b5080516200006790600490602084019062000070565b50505062000153565b8280546200007e9062000116565b90600052602060002090601f016020900481019282620000a25760008555620000ed565b82601f10620000bd57805160ff1916838001178555620000ed565b82800160010185558215620000ed579182015b82811115620000ed578251825591602001919060010190620000d0565b50620000fb929150620000ff565b5090565b5b80821115620000fb576000815560010162000100565b600181811c908216806200012b57607f821691505b602082108114156200014d57634e487b7160e01b600052602260045260246000fd5b50919050565b610c6a80620001636000396000f3fe6080604052600436106100c65760003560e01c8063395093511161007f578063a457c2d711610059578063a457c2d714610215578063a9059cbb14610235578063d0e30db014610255578063dd62ed3e1461025d57600080fd5b806339509351146101aa57806370a08231146101ca57806395d89b411461020057600080fd5b806306fdde03146100d2578063095ea7b3146100fd57806318160ddd1461012d57806323b872dd1461014c5780632e1a7d4d1461016c578063313ce5671461018e57600080fd5b366100cd57005b600080fd5b3480156100de57600080fd5b506100e761027d565b6040516100f49190610a6f565b60405180910390f35b34801561010957600080fd5b5061011d610118366004610ae0565b61030f565b60405190151581526020016100f4565b34801561013957600080fd5b506002545b6040519081526020016100f4565b34801561015857600080fd5b5061011d610167366004610b0a565b610327565b34801561017857600080fd5b5061018c610187366004610b46565b61034b565b005b34801561019a57600080fd5b50604051601281526020016100f4565b3480156101b657600080fd5b5061011d6101c5366004610ae0565b6103ec565b3480156101d657600080fd5b5061013e6101e5366004610b5f565b6001600160a01b031660009081526020819052604090205490565b34801561020c57600080fd5b506100e761040e565b34801561022157600080fd5b5061011d610230366004610ae0565b61041d565b34801561024157600080fd5b5061011d610250366004610ae0565b610498565b61018c6104a6565b34801561026957600080fd5b5061013e610278366004610b81565b6104b2565b60606003805461028c90610bb4565b80601f01602080910402602001604051908101604052809291908181526020018280546102b890610bb4565b80156103055780601f106102da57610100808354040283529160200191610305565b820191906000526020600020905b8154815290600101906020018083116102e857829003601f168201915b5050505050905090565b60003361031d8185856104dd565b5060019392505050565b600033610335858285610602565b61034085858561067c565b506001949350505050565b610355338261084a565b604051600090339061c35090849084818181858888f193505050503d806000811461039c576040519150601f19603f3d011682016040523d82523d6000602084013e6103a1565b606091505b50509050806103e85760405162461bcd60e51b815260206004820152600e60248201526d19985a5b1959081d1bc81cd95b9960921b60448201526064015b60405180910390fd5b5050565b60003361031d8185856103ff83836104b2565b6104099190610c05565b6104dd565b60606004805461028c90610bb4565b6000338161042b82866104b2565b90508381101561048b5760405162461bcd60e51b815260206004820152602560248201527f45524332303a2064656372656173656420616c6c6f77616e63652062656c6f77604482015264207a65726f60d81b60648201526084016103df565b61034082868684036104dd565b60003361031d81858561067c565b6104b03334610990565b565b6001600160a01b03918216600090815260016020908152604080832093909416825291909152205490565b6001600160a01b03831661053f5760405162461bcd60e51b8152602060048201526024808201527f45524332303a20617070726f76652066726f6d20746865207a65726f206164646044820152637265737360e01b60648201526084016103df565b6001600160a01b0382166105a05760405162461bcd60e51b815260206004820152602260248201527f45524332303a20617070726f766520746f20746865207a65726f206164647265604482015261737360f01b60648201526084016103df565b6001600160a01b0383811660008181526001602090815260408083209487168084529482529182902085905590518481527f8c5be1e5ebec7d5bd14f71427d1e84f3dd0314c0f7b2291e5b200ac8c7c3b92591015b60405180910390a3505050565b600061060e84846104b2565b9050600019811461067657818110156106695760405162461bcd60e51b815260206004820152601d60248201527f45524332303a20696e73756666696369656e7420616c6c6f77616e636500000060448201526064016103df565b61067684848484036104dd565b50505050565b6001600160a01b0383166106e05760405162461bcd60e51b815260206004820152602560248201527f45524332303a207472616e736665722066726f6d20746865207a65726f206164604482015264647265737360d81b60648201526084016103df565b6001600160a01b0382166107425760405162461bcd60e51b815260206004820152602360248201527f45524332303a207472616e7366657220746f20746865207a65726f206164647260448201526265737360e81b60648201526084016103df565b6001600160a01b038316600090815260208190526040902054818110156107ba5760405162461bcd60e51b815260206004820152602660248201527f45524332303a207472616e7366657220616d6f756e7420657863656564732062604482015265616c616e636560d01b60648201526084016103df565b6001600160a01b038085166000908152602081905260408082208585039055918516815290812080548492906107f1908490610c05565b92505081905550826001600160a01b0316846001600160a01b03167fddf252ad1be2c89b69c2b068fc378daa952ba7f163c4a11628f55a4df523b3ef8460405161083d91815260200190565b60405180910390a3610676565b6001600160a01b0382166108aa5760405162461bcd60e51b815260206004820152602160248201527f45524332303a206275726e2066726f6d20746865207a65726f206164647265736044820152607360f81b60648201526084016103df565b6001600160a01b0382166000908152602081905260409020548181101561091e5760405162461bcd60e51b815260206004820152602260248201527f45524332303a206275726e20616d6f756e7420657863656564732062616c616e604482015261636560f01b60648201526084016103df565b6001600160a01b038316600090815260208190526040812083830390556002805484929061094d908490610c1d565b90915550506040518281526000906001600160a01b038516907fddf252ad1be2c89b69c2b068fc378daa952ba7f163c4a11628f55a4df523b3ef906020016105f5565b6001600160a01b0382166109e65760405162461bcd60e51b815260206004820152601f60248201527f45524332303a206d696e7420746f20746865207a65726f20616464726573730060448201526064016103df565b80600260008282546109f89190610c05565b90915550506001600160a01b03821660009081526020819052604081208054839290610a25908490610c05565b90915550506040518181526001600160a01b038316906000907fddf252ad1be2c89b69c2b068fc378daa952ba7f163c4a11628f55a4df523b3ef9060200160405180910390a35050565b600060208083528351808285015260005b81811015610a9c57858101830151858201604001528201610a80565b81811115610aae576000604083870101525b50601f01601f1916929092016040019392505050565b80356001600160a01b0381168114610adb57600080fd5b919050565b60008060408385031215610af357600080fd5b610afc83610ac4565b946020939093013593505050565b600080600060608486031215610b1f57600080fd5b610b2884610ac4565b9250610b3660208501610ac4565b9150604084013590509250925092565b600060208284031215610b5857600080fd5b5035919050565b600060208284031215610b7157600080fd5b610b7a82610ac4565b9392505050565b60008060408385031215610b9457600080fd5b610b9d83610ac4565b9150610bab60208401610ac4565b90509250929050565b600181811c90821680610bc857607f821691505b60208210811415610be957634e487b7160e01b600052602260045260246000fd5b50919050565b634e487b7160e01b600052601160045260246000fd5b60008219821115610c1857610c18610bef565b500190565b600082821015610c2f57610c2f610bef565b50039056fea2646970667358221220a7f148de0cba021fda5016622f9be105bdf8cecf1e716ce69c8b1e8a628f27ba64736f6c63430008090033",
  "linkReferences": {},
  "deployedLinkReferences": {}
}