{
  "_format": "hh-sol-artifact-1",
  "contractName": "MintSwapCanonicalTokenPermit",
  "sourceName": "contracts/cBridge/pegged-bridge/tokens/ERC20Permit/MintSwapCanonicalTokenPermit.sol",
  "abi": [
    {
      "inputs": [
        {
          "internalType": "string",
          "name": "name_",
          "type": "string"
        },
        {
          "internalType": "string",
          "name": "symbol_",
          "type": "string"
        },
        {
          "internalType": "uint8",
          "name": "decimals_",
          "type": "uint8"
        }
      ],
      "stateMutability": "nonpayable",
      "type": "constructor"
    },
    {
      "anonymous": false,
      "inputs": [
        {
          "indexed": true,
          "internalType": "address",
          "name": "owner",
          "type": "address"
        },
        {
          "indexed": true,
          "internalType": "address",
          "name": "spender",
          "type": "address"
        },
        {
          "indexed": false,
          "internalType": "uint256",
          "name": "value",
          "type": "uint256"
        }
      ],
      "name": "Approval",
      "type": "event"
    },
    {
      "anonymous": false,
      "inputs": [
        {
          "indexed": false,
          "internalType": "address",
          "name": "bridge",
          "type": "address"
        },
        {
          "indexed": false,
          "internalType": "uint256",
          "name": "supplyCap",
          "type": "uint256"
        }
      ],
      "name": "BridgeSupplyCapUpdated",
      "type": "event"
    },
    {
      "anonymous": false,
      "inputs": [
        {
          "indexed": true,
          "internalType": "address",
          "name": "previousOwner",
          "type": "address"
        },
        {
          "indexed": true,
          "internalType": "address",
          "name": "newOwner",
          "type": "address"
        }
      ],
      "name": "OwnershipTransferred",
      "type": "event"
    },
    {
      "anonymous": false,
      "inputs": [
        {
          "indexed": false,
          "internalType": "address",
          "name": "token",
          "type": "address"
        },
        {
          "indexed": false,
          "internalType": "uint256",
          "name": "cap",
          "type": "uint256"
        }
      ],
      "name": "TokenSwapCapUpdated",
      "type": "event"
    },
    {
      "anonymous": false,
      "inputs": [
        {
          "indexed": true,
          "internalType": "address",
          "name": "from",
          "type": "address"
        },
        {
          "indexed": true,
          "internalType": "address",
          "name": "to",
          "type": "address"
        },
        {
          "indexed": false,
          "internalType": "uint256",
          "name": "value",
          "type": "uint256"
        }
      ],
      "name": "Transfer",
      "type": "event"
    },
    {
      "inputs": [],
      "name": "DOMAIN_SEPARATOR",
      "outputs": [
        {
          "internalType": "bytes32",
          "name": "",
          "type": "bytes32"
        }
      ],
      "stateMutability": "view",
      "type": "function"
    },
    {
      "inputs": [
        {
          "internalType": "address",
          "name": "owner",
          "type": "address"
        },
        {
          "internalType": "address",
          "name": "spender",
          "type": "address"
        }
      ],
      "name": "allowance",
      "outputs": [
        {
          "internalType": "uint256",
          "name": "",
          "type": "uint256"
        }
      ],
      "stateMutability": "view",
      "type": "function"
    },
    {
      "inputs": [
        {
          "internalType": "address",
          "name": "spender",
          "type": "address"
        },
        {
          "internalType": "uint256",
          "name": "amount",
          "type": "uint256"
        }
      ],
      "name": "approve",
      "outputs": [
        {
          "internalType": "bool",
          "name": "",
          "type": "bool"
        }
      ],
      "stateMutability": "nonpayable",
      "type": "function"
    },
    {
      "inputs": [
        {
          "internalType": "address",
          "name": "account",
          "type": "address"
        }
      ],
      "name": "balanceOf",
      "outputs": [
        {
          "internalType": "uint256",
          "name": "",
          "type": "uint256"
        }
      ],
      "stateMutability": "view",
      "type": "function"
    },
    {
      "inputs": [
        {
          "internalType": "address",
          "name": "",
          "type": "address"
        }
      ],
      "name": "bridges",
      "outputs": [
        {
          "internalType": "uint256",
          "name": "cap",
          "type": "uint256"
        },
        {
          "internalType": "uint256",
          "name": "total",
          "type": "uint256"
        }
      ],
      "stateMutability": "view",
      "type": "function"
    },
    {
      "inputs": [
        {
          "internalType": "uint256",
          "name": "_amount",
          "type": "uint256"
        }
      ],
      "name": "burn",
      "outputs": [
        {
          "internalType": "bool",
          "name": "",
          "type": "bool"
        }
      ],
      "stateMutability": "nonpayable",
      "type": "function"
    },
    {
      "inputs": [
        {
          "internalType": "address",
          "name": "_from",
          "type": "address"
        },
        {
          "internalType": "uint256",
          "name": "_amount",
          "type": "uint256"
        }
      ],
      "name": "burn",
      "outputs": [
        {
          "internalType": "bool",
          "name": "",
          "type": "bool"
        }
      ],
      "stateMutability": "nonpayable",
      "type": "function"
    },
    {
      "inputs": [
        {
          "internalType": "address",
          "name": "_from",
          "type": "address"
        },
        {
          "internalType": "uint256",
          "name": "_amount",
          "type": "uint256"
        }
      ],
      "name": "burnFrom",
      "outputs": [
        {
          "internalType": "bool",
          "name": "",
          "type": "bool"
        }
      ],
      "stateMutability": "nonpayable",
      "type": "function"
    },
    {
      "inputs": [],
      "name": "decimals",
      "outputs": [
        {
          "internalType": "uint8",
          "name": "",
          "type": "uint8"
        }
      ],
      "stateMutability": "view",
      "type": "function"
    },
    {
      "inputs": [
        {
          "internalType": "address",
          "name": "spender",
          "type": "address"
        },
        {
          "internalType": "uint256",
          "name": "subtractedValue",
          "type": "uint256"
        }
      ],
      "name": "decreaseAllowance",
      "outputs": [
        {
          "internalType": "bool",
          "name": "",
          "type": "bool"
        }
      ],
      "stateMutability": "nonpayable",
      "type": "function"
    },
    {
      "inputs": [],
      "name": "getOwner",
      "outputs": [
        {
          "internalType": "address",
          "name": "",
          "type": "address"
        }
      ],
      "stateMutability": "view",
      "type": "function"
    },
    {
      "inputs": [
        {
          "internalType": "address",
          "name": "spender",
          "type": "address"
        },
        {
          "internalType": "uint256",
          "name": "addedValue",
          "type": "uint256"
        }
      ],
      "name": "increaseAllowance",
      "outputs": [
        {
          "internalType": "bool",
          "name": "",
          "type": "bool"
        }
      ],
      "stateMutability": "nonpayable",
      "type": "function"
    },
    {
      "inputs": [
        {
          "internalType": "address",
          "name": "_to",
          "type": "address"
        },
        {
          "internalType": "uint256",
          "name": "_amount",
          "type": "uint256"
        }
      ],
      "name": "mint",
      "outputs": [
        {
          "internalType": "bool",
          "name": "",
          "type": "bool"
        }
      ],
      "stateMutability": "nonpayable",
      "type": "function"
    },
    {
      "inputs": [],
      "name": "name",
      "outputs": [
        {
          "internalType": "string",
          "name": "",
          "type": "string"
        }
      ],
      "stateMutability": "view",
      "type": "function"
    },
    {
      "inputs": [
        {
          "internalType": "address",
          "name": "owner",
          "type": "address"
        }
      ],
      "name": "nonces",
      "outputs": [
        {
          "internalType": "uint256",
          "name": "",
          "type": "uint256"
        }
      ],
      "stateMutability": "view",
      "type": "function"
    },
    {
      "inputs": [],
      "name": "owner",
      "outputs": [
        {
          "internalType": "address",
          "name": "",
          "type": "address"
        }
      ],
      "stateMutability": "view",
      "type": "function"
    },
    {
      "inputs": [
        {
          "internalType": "address",
          "name": "owner",
          "type": "address"
        },
        {
          "internalType": "address",
          "name": "spender",
          "type": "address"
        },
        {
          "internalType": "uint256",
          "name": "value",
          "type": "uint256"
        },
        {
          "internalType": "uint256",
          "name": "deadline",
          "type": "uint256"
        },
        {
          "internalType": "uint8",
          "name": "v",
          "type": "uint8"
        },
        {
          "internalType": "bytes32",
          "name": "r",
          "type": "bytes32"
        },
        {
          "internalType": "bytes32",
          "name": "s",
          "type": "bytes32"
        }
      ],
      "name": "permit",
      "outputs": [],
      "stateMutability": "nonpayable",
      "type": "function"
    },
    {
      "inputs": [
        {
          "internalType": "address",
          "name": "_bridgeToken",
          "type": "address"
        },
        {
          "internalType": "uint256",
          "name": "_swapCap",
          "type": "uint256"
        }
      ],
      "name": "setBridgeTokenSwapCap",
      "outputs": [],
      "stateMutability": "nonpayable",
      "type": "function"
    },
    {
      "inputs": [
        {
          "internalType": "address",
          "name": "_bridgeToken",
          "type": "address"
        },
        {
          "internalType": "uint256",
          "name": "_amount",
          "type": "uint256"
        }
      ],
      "name": "swapBridgeForCanonical",
      "outputs": [
        {
          "internalType": "uint256",
          "name": "",
          "type": "uint256"
        }
      ],
      "stateMutability": "nonpayable",
      "type": "function"
    },
    {
      "inputs": [
        {
          "internalType": "address",
          "name": "_bridgeToken",
          "type": "address"
        },
        {
          "internalType": "uint256",
          "name": "_amount",
          "type": "uint256"
        }
      ],
      "name": "swapCanonicalForBridge",
      "outputs": [
        {
          "internalType": "uint256",
          "name": "",
          "type": "uint256"
        }
      ],
      "stateMutability": "nonpayable",
      "type": "function"
    },
    {
      "inputs": [
        {
          "internalType": "address",
          "name": "",
          "type": "address"
        }
      ],
      "name": "swapSupplies",
      "outputs": [
        {
          "internalType": "uint256",
          "name": "cap",
          "type": "uint256"
        },
        {
          "internalType": "uint256",
          "name": "total",
          "type": "uint256"
        }
      ],
      "stateMutability": "view",
      "type": "function"
    },
    {
      "inputs": [],
      "name": "symbol",
      "outputs": [
        {
          "internalType": "string",
          "name": "",
          "type": "string"
        }
      ],
      "stateMutability": "view",
      "type": "function"
    },
    {
      "inputs": [],
      "name": "totalSupply",
      "outputs": [
        {
          "internalType": "uint256",
          "name": "",
          "type": "uint256"
        }
      ],
      "stateMutability": "view",
      "type": "function"
    },
    {
      "inputs": [
        {
          "internalType": "address",
          "name": "to",
          "type": "address"
        },
        {
          "internalType": "uint256",
          "name": "amount",
          "type": "uint256"
        }
      ],
      "name": "transfer",
      "outputs": [
        {
          "internalType": "bool",
          "name": "",
          "type": "bool"
        }
      ],
      "stateMutability": "nonpayable",
      "type": "function"
    },
    {
      "inputs": [
        {
          "internalType": "address",
          "name": "from",
          "type": "address"
        },
        {
          "internalType": "address",
          "name": "to",
          "type": "address"
        },
        {
          "internalType": "uint256",
          "name": "amount",
          "type": "uint256"
        }
      ],
      "name": "transferFrom",
      "outputs": [
        {
          "internalType": "bool",
          "name": "",
          "type": "bool"
        }
      ],
      "stateMutability": "nonpayable",
      "type": "function"
    },
    {
      "inputs": [
        {
          "internalType": "address",
          "name": "newOwner",
          "type": "address"
        }
      ],
      "name": "transferOwnership",
      "outputs": [],
      "stateMutability": "nonpayable",
      "type": "function"
    },
    {
      "inputs": [
        {
          "internalType": "address",
          "name": "_bridge",
          "type": "address"
        },
        {
          "internalType": "uint256",
          "name": "_cap",
          "type": "uint256"
        }
      ],
      "name": "updateBridgeSupplyCap",
      "outputs": [],
      "stateMutability": "nonpayable",
      "type": "function"
    }
  ],
  "bytecode": "0x6101806040523480156200001257600080fd5b50604051620020c2380380620020c283398101604081905262000035916200030a565b8282828282828880604051806040016040528060018152602001603160f81b815250858581600390805190602001906200007192919062000197565b5080516200008790600490602084019062000197565b5050825160209384012082519284019290922060e08390526101008190524660a0818152604080517f8b73c3c69bb8fe3d512ecc4cf759cc79239f7b179b0ffacaa9a75d522b39400f818901819052818301979097526060810194909452608080850193909352308483018190528151808603909301835260c09485019091528151919096012090529290925261012052506200012690503362000145565b60ff90811661014052959095166101605250620003cc95505050505050565b600780546001600160a01b038381166001600160a01b0319831681179093556040519116919082907f8be0079c531659141344cd1fd0a4f28419497f9722a3daafe3b4186f6b6457e090600090a35050565b828054620001a5906200038f565b90600052602060002090601f016020900481019282620001c9576000855562000214565b82601f10620001e457805160ff191683800117855562000214565b8280016001018555821562000214579182015b8281111562000214578251825591602001919060010190620001f7565b506200022292915062000226565b5090565b5b8082111562000222576000815560010162000227565b634e487b7160e01b600052604160045260246000fd5b600082601f8301126200026557600080fd5b81516001600160401b03808211156200028257620002826200023d565b604051601f8301601f19908116603f01168101908282118183101715620002ad57620002ad6200023d565b81604052838152602092508683858801011115620002ca57600080fd5b600091505b83821015620002ee5785820183015181830184015290820190620002cf565b83821115620003005760008385830101525b9695505050505050565b6000806000606084860312156200032057600080fd5b83516001600160401b03808211156200033857600080fd5b620003468783880162000253565b945060208601519150808211156200035d57600080fd5b506200036c8682870162000253565b925050604084015160ff811681146200038457600080fd5b809150509250925092565b600181811c90821680620003a457607f821691505b60208210811415620003c657634e487b7160e01b600052602260045260246000fd5b50919050565b60805160a05160c05160e05161010051610120516101405161016051611c936200042f60003960006102320152600050506000611164015260006111b30152600061118e015260006110e7015260006111110152600061113b0152611c936000f3fe608060405234801561001057600080fd5b50600436106101a95760003560e01c806379cc6790116100f9578063a9059cbb11610097578063d505accf11610071578063d505accf146103d6578063dd62ed3e146103e9578063f2fde38b146103fc578063f716932e1461040f57600080fd5b8063a9059cbb14610389578063cd0461191461039c578063ced67f0c146103af57600080fd5b80638da5cb5b116100d35780638da5cb5b1461035d57806395d89b411461036e5780639dc29fac14610317578063a457c2d71461037657600080fd5b806379cc6790146103175780637ecebe001461032a578063893d20e81461033d57600080fd5b806334faea1b1161016657806340c10f191161014057806340c10f19146102b357806342966c68146102c65780634ce2f71a146102d957806370a08231146102ee57600080fd5b806334faea1b1461025c5780633644e5151461029857806339509351146102a057600080fd5b806306fdde03146101ae578063095ea7b3146101cc57806313f1a4a4146101ef57806318160ddd1461021057806323b872dd14610218578063313ce5671461022b575b600080fd5b6101b6610422565b6040516101c391906119cb565b60405180910390f35b6101df6101da366004611a1a565b6104b4565b60405190151581526020016101c3565b6102026101fd366004611a1a565b6104cc565b6040519081526020016101c3565b600254610202565b6101df610226366004611a44565b61056e565b60405160ff7f00000000000000000000000000000000000000000000000000000000000000001681526020016101c3565b61028361026a366004611a80565b6009602052600090815260409020805460019091015482565b604080519283526020830191909152016101c3565b610202610594565b6101df6102ae366004611a1a565b6105a3565b6101df6102c1366004611a1a565b6105c5565b6101df6102d4366004611a9b565b61068b565b6102ec6102e7366004611a1a565b61069f565b005b6102026102fc366004611a80565b6001600160a01b031660009081526020819052604090205490565b6101df610325366004611a1a565b610731565b610202610338366004611a80565b61073d565b61034561075d565b6040516001600160a01b0390911681526020016101c3565b6007546001600160a01b0316610345565b6101b6610771565b6101df610384366004611a1a565b610780565b6101df610397366004611a1a565b610806565b6102ec6103aa366004611a1a565b610814565b6102836103bd366004611a80565b6008602052600090815260409020805460019091015482565b6102ec6103e4366004611ab4565b61089e565b6102026103f7366004611b27565b610a02565b6102ec61040a366004611a80565b610a2d565b61020261041d366004611a1a565b610ad7565b60606003805461043190611b5a565b80601f016020809104026020016040519081016040528092919081815260200182805461045d90611b5a565b80156104aa5780601f1061047f576101008083540402835291602001916104aa565b820191906000526020600020905b81548152906001019060200180831161048d57829003601f168201915b5050505050905090565b6000336104c2818585610bbf565b5060019392505050565b6001600160a01b0382166000908152600960205260408120805461052e5760405162461bcd60e51b815260206004820152601460248201527334b73b30b634b210313934b233b2903a37b5b2b760611b60448201526064015b60405180910390fd5b828160010160008282546105429190611ba5565b9091555061055290503384610ce4565b6105666001600160a01b0385163385610e2f565b509092915050565b60003361057c858285610e92565b610587858585610f0c565b60019150505b9392505050565b600061059e6110da565b905090565b6000336104c28185856105b68383610a02565b6105c09190611bbc565b610bbf565b33600090815260086020526040812080546106135760405162461bcd60e51b815260206004820152600e60248201526d34b73b30b634b21031b0b63632b960911b6044820152606401610525565b828160010160008282546106279190611bbc565b90915550508054600182015411156106815760405162461bcd60e51b815260206004820152601960248201527f657863656564732062726964676520737570706c7920636170000000000000006044820152606401610525565b6104c28484611201565b60006106973383610ce4565b506001919050565b336106b26007546001600160a01b031690565b6001600160a01b0316146106d85760405162461bcd60e51b815260040161052590611bd4565b6001600160a01b038216600081815260086020908152604091829020849055815192835282018390527f59e1e4348943de408b89af8ab71e502ea722dd41efd1ff4a3548c60e83e91c6091015b60405180910390a15050565b600061058d83836112e0565b6001600160a01b0381166000908152600560205260408120545b92915050565b600061059e6007546001600160a01b031690565b60606004805461043190611b5a565b6000338161078e8286610a02565b9050838110156107ee5760405162461bcd60e51b815260206004820152602560248201527f45524332303a2064656372656173656420616c6c6f77616e63652062656c6f77604482015264207a65726f60d81b6064820152608401610525565b6107fb8286868403610bbf565b506001949350505050565b6000336104c2818585610f0c565b336108276007546001600160a01b031690565b6001600160a01b03161461084d5760405162461bcd60e51b815260040161052590611bd4565b6001600160a01b038216600081815260096020908152604091829020849055815192835282018390527f51c7b3899924578d835c066303e3f765c25fea17d7b18840cd109a90f5c5601f9101610725565b834211156108ee5760405162461bcd60e51b815260206004820152601d60248201527f45524332305065726d69743a206578706972656420646561646c696e650000006044820152606401610525565b60007f6e71edae12b1b97f4d1f60370fef10105fa2faae0126114a169c64845d6126c988888861091d8c61137c565b6040805160208101969096526001600160a01b0394851690860152929091166060840152608083015260a082015260c0810186905260e0016040516020818303038152906040528051906020012090506000610978826113a4565b90506000610988828787876113f2565b9050896001600160a01b0316816001600160a01b0316146109eb5760405162461bcd60e51b815260206004820152601e60248201527f45524332305065726d69743a20696e76616c6964207369676e617475726500006044820152606401610525565b6109f68a8a8a610bbf565b50505050505050505050565b6001600160a01b03918216600090815260016020908152604080832093909416825291909152205490565b33610a406007546001600160a01b031690565b6001600160a01b031614610a665760405162461bcd60e51b815260040161052590611bd4565b6001600160a01b038116610acb5760405162461bcd60e51b815260206004820152602660248201527f4f776e61626c653a206e6577206f776e657220697320746865207a65726f206160448201526564647265737360d01b6064820152608401610525565b610ad48161141a565b50565b6001600160a01b03821660009081526009602052604081208054610b345760405162461bcd60e51b815260206004820152601460248201527334b73b30b634b210313934b233b2903a37b5b2b760611b6044820152606401610525565b80546001820154610b46908590611bbc565b1115610b865760405162461bcd60e51b815260206004820152600f60248201526e065786365656420737761702063617608c1b6044820152606401610525565b82816001016000828254610b9a9190611bbc565b90915550610baa90503384611201565b6105666001600160a01b03851633308661146c565b6001600160a01b038316610c215760405162461bcd60e51b8152602060048201526024808201527f45524332303a20617070726f76652066726f6d20746865207a65726f206164646044820152637265737360e01b6064820152608401610525565b6001600160a01b038216610c825760405162461bcd60e51b815260206004820152602260248201527f45524332303a20617070726f766520746f20746865207a65726f206164647265604482015261737360f01b6064820152608401610525565b6001600160a01b0383811660008181526001602090815260408083209487168084529482529182902085905590518481527f8c5be1e5ebec7d5bd14f71427d1e84f3dd0314c0f7b2291e5b200ac8c7c3b92591015b60405180910390a3505050565b6001600160a01b038216610d445760405162461bcd60e51b815260206004820152602160248201527f45524332303a206275726e2066726f6d20746865207a65726f206164647265736044820152607360f81b6064820152608401610525565b6001600160a01b03821660009081526020819052604090205481811015610db85760405162461bcd60e51b815260206004820152602260248201527f45524332303a206275726e20616d6f756e7420657863656564732062616c616e604482015261636560f01b6064820152608401610525565b6001600160a01b0383166000908152602081905260408120838303905560028054849290610de7908490611ba5565b90915550506040518281526000906001600160a01b038516907fddf252ad1be2c89b69c2b068fc378daa952ba7f163c4a11628f55a4df523b3ef90602001610cd7565b505050565b6040516001600160a01b038316602482015260448101829052610e2a90849063a9059cbb60e01b906064015b60408051601f198184030181529190526020810180516001600160e01b03166001600160e01b0319909316929092179091526114a4565b6000610e9e8484610a02565b90506000198114610f065781811015610ef95760405162461bcd60e51b815260206004820152601d60248201527f45524332303a20696e73756666696369656e7420616c6c6f77616e63650000006044820152606401610525565b610f068484848403610bbf565b50505050565b6001600160a01b038316610f705760405162461bcd60e51b815260206004820152602560248201527f45524332303a207472616e736665722066726f6d20746865207a65726f206164604482015264647265737360d81b6064820152608401610525565b6001600160a01b038216610fd25760405162461bcd60e51b815260206004820152602360248201527f45524332303a207472616e7366657220746f20746865207a65726f206164647260448201526265737360e81b6064820152608401610525565b6001600160a01b0383166000908152602081905260409020548181101561104a5760405162461bcd60e51b815260206004820152602660248201527f45524332303a207472616e7366657220616d6f756e7420657863656564732062604482015265616c616e636560d01b6064820152608401610525565b6001600160a01b03808516600090815260208190526040808220858503905591851681529081208054849290611081908490611bbc565b92505081905550826001600160a01b0316846001600160a01b03167fddf252ad1be2c89b69c2b068fc378daa952ba7f163c4a11628f55a4df523b3ef846040516110cd91815260200190565b60405180910390a3610f06565b6000306001600160a01b037f00000000000000000000000000000000000000000000000000000000000000001614801561113357507f000000000000000000000000000000000000000000000000000000000000000046145b1561115d57507f000000000000000000000000000000000000000000000000000000000000000090565b50604080517f00000000000000000000000000000000000000000000000000000000000000006020808301919091527f0000000000000000000000000000000000000000000000000000000000000000828401527f000000000000000000000000000000000000000000000000000000000000000060608301524660808301523060a0808401919091528351808403909101815260c0909201909252805191012090565b6001600160a01b0382166112575760405162461bcd60e51b815260206004820152601f60248201527f45524332303a206d696e7420746f20746865207a65726f2061646472657373006044820152606401610525565b80600260008282546112699190611bbc565b90915550506001600160a01b03821660009081526020819052604081208054839290611296908490611bbc565b90915550506040518181526001600160a01b038316906000907fddf252ad1be2c89b69c2b068fc378daa952ba7f163c4a11628f55a4df523b3ef9060200160405180910390a35050565b3360009081526008602052604081208054151580611302575060008160010154115b1561136757828160010154101561135b5760405162461bcd60e51b815260206004820152601c60248201527f6578636565647320627269646765206d696e74656420616d6f756e74000000006044820152606401610525565b60018101805484900390555b611372843385610e92565b6104c28484610ce4565b6001600160a01b03811660009081526005602052604090208054600181018255905b50919050565b60006107576113b16110da565b8360405161190160f01b6020820152602281018390526042810182905260009060620160405160208183030381529060405280519060200120905092915050565b600080600061140387878787611576565b9150915061141081611663565b5095945050505050565b600780546001600160a01b038381166001600160a01b0319831681179093556040519116919082907f8be0079c531659141344cd1fd0a4f28419497f9722a3daafe3b4186f6b6457e090600090a35050565b6040516001600160a01b0380851660248301528316604482015260648101829052610f069085906323b872dd60e01b90608401610e5b565b60006114f9826040518060400160405280602081526020017f5361666545524332303a206c6f772d6c6576656c2063616c6c206661696c6564815250856001600160a01b031661181e9092919063ffffffff16565b805190915015610e2a57808060200190518101906115179190611c09565b610e2a5760405162461bcd60e51b815260206004820152602a60248201527f5361666545524332303a204552433230206f7065726174696f6e20646964206e6044820152691bdd081cdd58d8d9595960b21b6064820152608401610525565b6000807f7fffffffffffffffffffffffffffffff5d576e7357a4501ddfe92f46681b20a08311156115ad575060009050600361165a565b8460ff16601b141580156115c557508460ff16601c14155b156115d6575060009050600461165a565b6040805160008082526020820180845289905260ff881692820192909252606081018690526080810185905260019060a0016020604051602081039080840390855afa15801561162a573d6000803e3d6000fd5b5050604051601f1901519150506001600160a01b0381166116535760006001925092505061165a565b9150600090505b94509492505050565b600081600481111561167757611677611c2b565b14156116805750565b600181600481111561169457611694611c2b565b14156116e25760405162461bcd60e51b815260206004820152601860248201527f45434453413a20696e76616c6964207369676e617475726500000000000000006044820152606401610525565b60028160048111156116f6576116f6611c2b565b14156117445760405162461bcd60e51b815260206004820152601f60248201527f45434453413a20696e76616c6964207369676e6174757265206c656e677468006044820152606401610525565b600381600481111561175857611758611c2b565b14156117b15760405162461bcd60e51b815260206004820152602260248201527f45434453413a20696e76616c6964207369676e6174757265202773272076616c604482015261756560f01b6064820152608401610525565b60048160048111156117c5576117c5611c2b565b1415610ad45760405162461bcd60e51b815260206004820152602260248201527f45434453413a20696e76616c6964207369676e6174757265202776272076616c604482015261756560f01b6064820152608401610525565b606061182d8484600085611835565b949350505050565b6060824710156118965760405162461bcd60e51b815260206004820152602660248201527f416464726573733a20696e73756666696369656e742062616c616e636520666f6044820152651c8818d85b1b60d21b6064820152608401610525565b6001600160a01b0385163b6118ed5760405162461bcd60e51b815260206004820152601d60248201527f416464726573733a2063616c6c20746f206e6f6e2d636f6e74726163740000006044820152606401610525565b600080866001600160a01b031685876040516119099190611c41565b60006040518083038185875af1925050503d8060008114611946576040519150601f19603f3d011682016040523d82523d6000602084013e61194b565b606091505b509150915061195b828286611966565b979650505050505050565b6060831561197557508161058d565b8251156119855782518084602001fd5b8160405162461bcd60e51b815260040161052591906119cb565b60005b838110156119ba5781810151838201526020016119a2565b83811115610f065750506000910152565b60208152600082518060208401526119ea81604085016020870161199f565b601f01601f19169190910160400192915050565b80356001600160a01b0381168114611a1557600080fd5b919050565b60008060408385031215611a2d57600080fd5b611a36836119fe565b946020939093013593505050565b600080600060608486031215611a5957600080fd5b611a62846119fe565b9250611a70602085016119fe565b9150604084013590509250925092565b600060208284031215611a9257600080fd5b61058d826119fe565b600060208284031215611aad57600080fd5b5035919050565b600080600080600080600060e0888a031215611acf57600080fd5b611ad8886119fe565b9650611ae6602089016119fe565b95506040880135945060608801359350608088013560ff81168114611b0a57600080fd5b9699959850939692959460a0840135945060c09093013592915050565b60008060408385031215611b3a57600080fd5b611b43836119fe565b9150611b51602084016119fe565b90509250929050565b600181811c90821680611b6e57607f821691505b6020821081141561139e57634e487b7160e01b600052602260045260246000fd5b634e487b7160e01b600052601160045260246000fd5b600082821015611bb757611bb7611b8f565b500390565b60008219821115611bcf57611bcf611b8f565b500190565b6020808252818101527f4f776e61626c653a2063616c6c6572206973206e6f7420746865206f776e6572604082015260600190565b600060208284031215611c1b57600080fd5b8151801515811461058d57600080fd5b634e487b7160e01b600052602160045260246000fd5b60008251611c5381846020870161199f565b919091019291505056fea2646970667358221220e9c55a8cec08995cea2ebcebc1bc5b04f7d4cdc4459edd85d01d1c21ef0ec14664736f6c63430008090033",
  "linkReferences": {},
  "deployedLinkReferences": {}
}