{
  "_format": "hh-sol-artifact-1",
  "contractName": "FarmingRewards",
  "sourceName": "contracts/cBridge/liquidity-bridge/FarmingRewards.sol",
  "abi": [
    {
      "inputs": [
        {
          "internalType": "contract ISigsVerifier",
          "name": "_sigsVerifier",
          "type": "address"
        }
      ],
      "stateMutability": "nonpayable",
      "type": "constructor"
    },
    {
      "anonymous": false,
      "inputs": [
        {
          "indexed": true,
          "internalType": "address",
          "name": "recipient",
          "type": "address"
        },
        {
          "indexed": true,
          "internalType": "address",
          "name": "token",
          "type": "address"
        },
        {
          "indexed": false,
          "internalType": "uint256",
          "name": "reward",
          "type": "uint256"
        }
      ],
      "name": "FarmingRewardClaimed",
      "type": "event"
    },
    {
      "anonymous": false,
      "inputs": [
        {
          "indexed": true,
          "internalType": "address",
          "name": "contributor",
          "type": "address"
        },
        {
          "indexed": true,
          "internalType": "address",
          "name": "token",
          "type": "address"
        },
        {
          "indexed": false,
          "internalType": "uint256",
          "name": "contribution",
          "type": "uint256"
        }
      ],
      "name": "FarmingRewardContributed",
      "type": "event"
    },
    {
      "anonymous": false,
      "inputs": [
        {
          "indexed": true,
          "internalType": "address",
          "name": "previousOwner",
          "type": "address"
        },
        {
          "indexed": true,
          "internalType": "address",
          "name": "newOwner",
          "type": "address"
        }
      ],
      "name": "OwnershipTransferred",
      "type": "event"
    },
    {
      "anonymous": false,
      "inputs": [
        {
          "indexed": false,
          "internalType": "address",
          "name": "account",
          "type": "address"
        }
      ],
      "name": "Paused",
      "type": "event"
    },
    {
      "anonymous": false,
      "inputs": [
        {
          "indexed": false,
          "internalType": "address",
          "name": "account",
          "type": "address"
        }
      ],
      "name": "PauserAdded",
      "type": "event"
    },
    {
      "anonymous": false,
      "inputs": [
        {
          "indexed": false,
          "internalType": "address",
          "name": "account",
          "type": "address"
        }
      ],
      "name": "PauserRemoved",
      "type": "event"
    },
    {
      "anonymous": false,
      "inputs": [
        {
          "indexed": false,
          "internalType": "address",
          "name": "account",
          "type": "address"
        }
      ],
      "name": "Unpaused",
      "type": "event"
    },
    {
      "inputs": [
        {
          "internalType": "address",
          "name": "account",
          "type": "address"
        }
      ],
      "name": "addPauser",
      "outputs": [],
      "stateMutability": "nonpayable",
      "type": "function"
    },
    {
      "inputs": [
        {
          "internalType": "bytes",
          "name": "_rewardsRequest",
          "type": "bytes"
        },
        {
          "internalType": "bytes[]",
          "name": "_sigs",
          "type": "bytes[]"
        },
        {
          "internalType": "address[]",
          "name": "_signers",
          "type": "address[]"
        },
        {
          "internalType": "uint256[]",
          "name": "_powers",
          "type": "uint256[]"
        }
      ],
      "name": "claimRewards",
      "outputs": [],
      "stateMutability": "nonpayable",
      "type": "function"
    },
    {
      "inputs": [
        {
          "internalType": "address",
          "name": "",
          "type": "address"
        },
        {
          "internalType": "address",
          "name": "",
          "type": "address"
        }
      ],
      "name": "claimedRewardAmounts",
      "outputs": [
        {
          "internalType": "uint256",
          "name": "",
          "type": "uint256"
        }
      ],
      "stateMutability": "view",
      "type": "function"
    },
    {
      "inputs": [
        {
          "internalType": "address",
          "name": "_token",
          "type": "address"
        },
        {
          "internalType": "uint256",
          "name": "_amount",
          "type": "uint256"
        }
      ],
      "name": "contributeToRewardPool",
      "outputs": [],
      "stateMutability": "nonpayable",
      "type": "function"
    },
    {
      "inputs": [
        {
          "internalType": "address",
          "name": "_token",
          "type": "address"
        },
        {
          "internalType": "uint256",
          "name": "_amount",
          "type": "uint256"
        }
      ],
      "name": "drainToken",
      "outputs": [],
      "stateMutability": "nonpayable",
      "type": "function"
    },
    {
      "inputs": [
        {
          "internalType": "address",
          "name": "account",
          "type": "address"
        }
      ],
      "name": "isPauser",
      "outputs": [
        {
          "internalType": "bool",
          "name": "",
          "type": "bool"
        }
      ],
      "stateMutability": "view",
      "type": "function"
    },
    {
      "inputs": [],
      "name": "owner",
      "outputs": [
        {
          "internalType": "address",
          "name": "",
          "type": "address"
        }
      ],
      "stateMutability": "view",
      "type": "function"
    },
    {
      "inputs": [],
      "name": "pause",
      "outputs": [],
      "stateMutability": "nonpayable",
      "type": "function"
    },
    {
      "inputs": [],
      "name": "paused",
      "outputs": [
        {
          "internalType": "bool",
          "name": "",
          "type": "bool"
        }
      ],
      "stateMutability": "view",
      "type": "function"
    },
    {
      "inputs": [
        {
          "internalType": "address",
          "name": "",
          "type": "address"
        }
      ],
      "name": "pausers",
      "outputs": [
        {
          "internalType": "bool",
          "name": "",
          "type": "bool"
        }
      ],
      "stateMutability": "view",
      "type": "function"
    },
    {
      "inputs": [
        {
          "internalType": "address",
          "name": "account",
          "type": "address"
        }
      ],
      "name": "removePauser",
      "outputs": [],
      "stateMutability": "nonpayable",
      "type": "function"
    },
    {
      "inputs": [],
      "name": "renouncePauser",
      "outputs": [],
      "stateMutability": "nonpayable",
      "type": "function"
    },
    {
      "inputs": [],
      "name": "sigsVerifier",
      "outputs": [
        {
          "internalType": "contract ISigsVerifier",
          "name": "",
          "type": "address"
        }
      ],
      "stateMutability": "view",
      "type": "function"
    },
    {
      "inputs": [
        {
          "internalType": "address",
          "name": "newOwner",
          "type": "address"
        }
      ],
      "name": "transferOwnership",
      "outputs": [],
      "stateMutability": "nonpayable",
      "type": "function"
    },
    {
      "inputs": [],
      "name": "unpause",
      "outputs": [],
      "stateMutability": "nonpayable",
      "type": "function"
    }
  ],
  "bytecode": "0x60a06040523480156200001157600080fd5b5060405162001ad538038062001ad5833981016040819052620000349162000182565b6200003f3362000069565b6000805460ff60a01b191690556200005733620000b9565b6001600160a01b0316608052620001b4565b600080546001600160a01b038381166001600160a01b0319831681178455604051919092169283917f8be0079c531659141344cd1fd0a4f28419497f9722a3daafe3b4186f6b6457e09190a35050565b6001600160a01b03811660009081526001602052604090205460ff1615620001275760405162461bcd60e51b815260206004820152601960248201527f4163636f756e7420697320616c72656164792070617573657200000000000000604482015260640160405180910390fd5b6001600160a01b038116600081815260016020818152604092839020805460ff191690921790915590519182527f6719d08c1888103bea251a4ed56406bd0c3e69723c8a1686e017e7bbe159b6f8910160405180910390a150565b6000602082840312156200019557600080fd5b81516001600160a01b0381168114620001ad57600080fd5b9392505050565b6080516118fe620001d760003960008181610233015261038f01526118fe6000f3fe608060405234801561001057600080fd5b50600436106100f55760003560e01c806380f51c12116100975780638da5cb5b116100665780638da5cb5b146101f65780639d4323be1461021b578063ccf2683b1461022e578063f2fde38b1461025557600080fd5b806380f51c12146101a5578063825168ff146101c857806382dc1ec4146101db5780638456cb59146101ee57600080fd5b80635c975abb116100d35780635c975abb146101655780636b2c0f55146101775780636b5d21e91461018a5780636ef8d66d1461019d57600080fd5b80631744092e146100fa5780633f4ba83a1461013857806346fbf68e14610142575b600080fd5b6101256101083660046113b4565b600260209081526000928352604080842090915290825290205481565b6040519081526020015b60405180910390f35b610140610268565b005b6101556101503660046113e7565b6102c3565b604051901515815260200161012f565b600054600160a01b900460ff16610155565b6101406101853660046113e7565b6102e1565b61014061019836600461144e565b610326565b6101406105f1565b6101556101b33660046113e7565b60016020526000908152604090205460ff1681565b6101406101d636600461153d565b6105fa565b6101406101e93660046113e7565b61066a565b6101406106ac565b6000546001600160a01b03165b6040516001600160a01b03909116815260200161012f565b61014061022936600461153d565b610700565b6102037f000000000000000000000000000000000000000000000000000000000000000081565b6101406102633660046113e7565b610759565b610271336102c3565b6102b95760405162461bcd60e51b815260206004820152601460248201527321b0b63632b91034b9903737ba103830bab9b2b960611b60448201526064015b60405180910390fd5b6102c1610800565b565b6001600160a01b031660009081526001602052604090205460ff1690565b336102f46000546001600160a01b031690565b6001600160a01b03161461031a5760405162461bcd60e51b81526004016102b090611567565b61032381610855565b50565b61032e6108fa565b6000463060405160200161037592919091825260601b6bffffffffffffffffffffffff191660208201526d4661726d696e675265776172647360901b603482015260420190565b6040516020818303038152906040528051906020012090507f00000000000000000000000000000000000000000000000000000000000000006001600160a01b031663682dbc22828b8b6040516020016103d19392919061159c565b6040516020818303038152906040528989898989896040518863ffffffff1660e01b815260040161040897969594939291906116b4565b60006040518083038186803b15801561042057600080fd5b505afa158015610434573d6000803e3d6000fd5b5050505060006104798a8a8080601f01602080910402602001604051908101604052809392919081815260200183838082843760009201919091525061094792505050565b90506000805b8260200151518110156105a6576000836020015182815181106104a4576104a4611794565b602002602001015190506000846040015183815181106104c6576104c6611794565b60209081029190910181015186516001600160a01b03908116600090815260028452604080822092871682529190935282205490925061050690836117c0565b905080156105905785516001600160a01b03908116600090815260026020908152604080832093871680845293909152902083905586516001965061054c919083610c03565b85516040518281526001600160a01b038086169216907f97e6c3172350795e26977663112f38653689372e771e85bad9fbadb1af0e98b29060200160405180910390a35b505050808061059e906117d7565b91505061047f565b50806105e45760405162461bcd60e51b815260206004820152600d60248201526c139bc81b995dc81c995dd85c99609a1b60448201526064016102b0565b5050505050505050505050565b6102c133610855565b6106026108fa565b336106186001600160a01b038416823085610c6b565b826001600160a01b0316816001600160a01b03167f40aa1b9a9157bc37a09a78d5a46e53087b82ee0034ebe896d4d1a52f31b333d48460405161065d91815260200190565b60405180910390a3505050565b3361067d6000546001600160a01b031690565b6001600160a01b0316146106a35760405162461bcd60e51b81526004016102b090611567565b61032381610ca9565b6106b5336102c3565b6106f85760405162461bcd60e51b815260206004820152601460248201527321b0b63632b91034b9903737ba103830bab9b2b960611b60448201526064016102b0565b6102c1610d54565b610708610d97565b3361071b6000546001600160a01b031690565b6001600160a01b0316146107415760405162461bcd60e51b81526004016102b090611567565b6107556001600160a01b0383163383610c03565b5050565b3361076c6000546001600160a01b031690565b6001600160a01b0316146107925760405162461bcd60e51b81526004016102b090611567565b6001600160a01b0381166107f75760405162461bcd60e51b815260206004820152602660248201527f4f776e61626c653a206e6577206f776e657220697320746865207a65726f206160448201526564647265737360d01b60648201526084016102b0565b61032381610de7565b610808610d97565b6000805460ff60a01b191690557f5db9ee0a495bf2e6ff9c91a7834c1ba4fdd244a5e8aa4e537bd38aeae4b073aa335b6040516001600160a01b03909116815260200160405180910390a1565b61085e816102c3565b6108a25760405162461bcd60e51b815260206004820152601560248201527420b1b1b7bab73a1034b9903737ba103830bab9b2b960591b60448201526064016102b0565b6001600160a01b038116600081815260016020908152604091829020805460ff1916905590519182527fcd265ebaf09df2871cc7bd4133404a235ba12eff2041bb89d9c714a2621c7c7e91015b60405180910390a150565b600054600160a01b900460ff16156102c15760405162461bcd60e51b815260206004820152601060248201526f14185d5cd8589b194e881c185d5cd95960821b60448201526064016102b0565b610974604051806060016040528060006001600160a01b0316815260200160608152602001606081525090565b60408051808201909152600080825260208201849052610995826003610e37565b9050806002815181106109aa576109aa611794565b602002602001015167ffffffffffffffff8111156109ca576109ca6117f2565b6040519080825280602002602001820160405280156109f3578160200160208202803683370190505b508360200181905250600081600281518110610a1157610a11611794565b60200260200101818152505080600381518110610a3057610a30611794565b602002602001015167ffffffffffffffff811115610a5057610a506117f2565b604051908082528060200260200182016040528015610a79578160200160208202803683370190505b508360400181905250600081600381518110610a9757610a97611794565b6020026020010181815250506000805b60208401515184511015610bfa57610abe84610ef1565b90925090508160011415610aed57610add610ad885610f2b565b610fe8565b6001600160a01b03168552610aa7565b8160021415610b8257610b02610ad885610f2b565b856020015184600281518110610b1a57610b1a611794565b602002602001015181518110610b3257610b32611794565b60200260200101906001600160a01b031690816001600160a01b03168152505082600281518110610b6557610b65611794565b602002602001018051809190610b7a906117d7565b905250610aa7565b8160031415610beb57610b9c610b9785610f2b565b610ff9565b856040015184600381518110610bb457610bb4611794565b602002602001015181518110610bcc57610bcc611794565b60200260200101818152505082600381518110610b6557610b65611794565b610bf58482611030565b610aa7565b50505050919050565b6040516001600160a01b038316602482015260448101829052610c6690849063a9059cbb60e01b906064015b60408051601f198184030181529190526020810180516001600160e01b03166001600160e01b0319909316929092179091526110a2565b505050565b6040516001600160a01b0380851660248301528316604482015260648101829052610ca39085906323b872dd60e01b90608401610c2f565b50505050565b610cb2816102c3565b15610cff5760405162461bcd60e51b815260206004820152601960248201527f4163636f756e7420697320616c7265616479207061757365720000000000000060448201526064016102b0565b6001600160a01b038116600081815260016020818152604092839020805460ff191690921790915590519182527f6719d08c1888103bea251a4ed56406bd0c3e69723c8a1686e017e7bbe159b6f891016108ef565b610d5c6108fa565b6000805460ff60a01b1916600160a01b1790557f62e78cea01bee320cd4e420270b5ea74000d11b0c9f74754ebdbfc544b05a2586108383390565b600054600160a01b900460ff166102c15760405162461bcd60e51b815260206004820152601460248201527314185d5cd8589b194e881b9bdd081c185d5cd95960621b60448201526064016102b0565b600080546001600160a01b038381166001600160a01b0319831681178455604051919092169283917f8be0079c531659141344cd1fd0a4f28419497f9722a3daafe3b4186f6b6457e09190a35050565b8151606090610e47836001611808565b67ffffffffffffffff811115610e5f57610e5f6117f2565b604051908082528060200260200182016040528015610e88578160200160208202803683370190505b5091506000805b60208601515186511015610ee857610ea686610ef1565b80925081935050506001848381518110610ec257610ec2611794565b60200260200101818151610ed69190611808565b905250610ee38682611030565b610e8f565b50509092525090565b6000806000610eff84611174565b9050610f0c600882611820565b9250806007166005811115610f2357610f23611842565b915050915091565b60606000610f3883611174565b90506000818460000151610f4c9190611808565b9050836020015151811115610f6057600080fd5b8167ffffffffffffffff811115610f7957610f796117f2565b6040519080825280601f01601f191660200182016040528015610fa3576020820181803683370190505b50602080860151865192955091818601919083010160005b85811015610fdd578181015183820152610fd6602082611808565b9050610fbb565b505050935250919050565b6000610ff3826111f6565b92915050565b600060208251111561100a57600080fd5b602082015190508151602061101f91906117c0565b61102a906008611858565b1c919050565b600081600581111561104457611044611842565b141561105357610c6682611174565b600281600581111561106757611067611842565b14156100f557600061107883611174565b9050808360000181815161108c9190611808565b90525060208301515183511115610c6657600080fd5b60006110f7826040518060400160405280602081526020017f5361666545524332303a206c6f772d6c6576656c2063616c6c206661696c6564815250856001600160a01b03166112159092919063ffffffff16565b805190915015610c6657808060200190518101906111159190611877565b610c665760405162461bcd60e51b815260206004820152602a60248201527f5361666545524332303a204552433230206f7065726174696f6e20646964206e6044820152691bdd081cdd58d8d9595960b21b60648201526084016102b0565b602080820151825181019091015160009182805b600a8110156111f05783811a91506111a1816007611858565b82607f16901b8517945081608016600014156111de576111c2816001611808565b865187906111d1908390611808565b9052509395945050505050565b806111e8816117d7565b915050611188565b50600080fd5b6000815160141461120657600080fd5b5060200151600160601b900490565b6060611224848460008561122e565b90505b9392505050565b60608247101561128f5760405162461bcd60e51b815260206004820152602660248201527f416464726573733a20696e73756666696369656e742062616c616e636520666f6044820152651c8818d85b1b60d21b60648201526084016102b0565b6001600160a01b0385163b6112e65760405162461bcd60e51b815260206004820152601d60248201527f416464726573733a2063616c6c20746f206e6f6e2d636f6e747261637400000060448201526064016102b0565b600080866001600160a01b031685876040516113029190611899565b60006040518083038185875af1925050503d806000811461133f576040519150601f19603f3d011682016040523d82523d6000602084013e611344565b606091505b509150915061135482828661135f565b979650505050505050565b6060831561136e575081611227565b82511561137e5782518084602001fd5b8160405162461bcd60e51b81526004016102b091906118b5565b80356001600160a01b03811681146113af57600080fd5b919050565b600080604083850312156113c757600080fd5b6113d083611398565b91506113de60208401611398565b90509250929050565b6000602082840312156113f957600080fd5b61122782611398565b60008083601f84011261141457600080fd5b50813567ffffffffffffffff81111561142c57600080fd5b6020830191508360208260051b850101111561144757600080fd5b9250929050565b6000806000806000806000806080898b03121561146a57600080fd5b883567ffffffffffffffff8082111561148257600080fd5b818b0191508b601f83011261149657600080fd5b8135818111156114a557600080fd5b8c60208285010111156114b757600080fd5b60209283019a509850908a013590808211156114d257600080fd5b6114de8c838d01611402565b909850965060408b01359150808211156114f757600080fd5b6115038c838d01611402565b909650945060608b013591508082111561151c57600080fd5b506115298b828c01611402565b999c989b5096995094979396929594505050565b6000806040838503121561155057600080fd5b61155983611398565b946020939093013593505050565b6020808252818101527f4f776e61626c653a2063616c6c6572206973206e6f7420746865206f776e6572604082015260600190565b838152818360208301376000910160200190815292915050565b60005b838110156115d15781810151838201526020016115b9565b83811115610ca35750506000910152565b600081518084526115fa8160208601602086016115b6565b601f01601f19169290920160200192915050565b81835281816020850137506000828201602090810191909152601f909101601f19169091010190565b8183526000602080850194508260005b85811015611673576001600160a01b0361166083611398565b1687529582019590820190600101611647565b509495945050505050565b81835260006001600160fb1b0383111561169757600080fd5b8260051b8083602087013760009401602001938452509192915050565b6080815260006116c7608083018a6115e2565b82810360208401528088825260208201905060208960051b8301018a60005b8b81101561175a57848303601f190184528135368e9003601e1901811261170c57600080fd5b8d01803567ffffffffffffffff81111561172557600080fd5b8036038f131561173457600080fd5b61174285826020850161160e565b602096870196909550939093019250506001016116e6565b5050848103604086015261176f81898b611637565b92505050828103606084015261178681858761167e565b9a9950505050505050505050565b634e487b7160e01b600052603260045260246000fd5b634e487b7160e01b600052601160045260246000fd5b6000828210156117d2576117d26117aa565b500390565b60006000198214156117eb576117eb6117aa565b5060010190565b634e487b7160e01b600052604160045260246000fd5b6000821982111561181b5761181b6117aa565b500190565b60008261183d57634e487b7160e01b600052601260045260246000fd5b500490565b634e487b7160e01b600052602160045260246000fd5b6000816000190483118215151615611872576118726117aa565b500290565b60006020828403121561188957600080fd5b8151801515811461122757600080fd5b600082516118ab8184602087016115b6565b9190910192915050565b60208152600061122760208301846115e256fea26469706673582212201e01d021ef9417bf169a28dae962ad562aa8ccd25abb4edfb28ac0d0d409333864736f6c63430008090033",
  "linkReferences": {},
  "deployedLinkReferences": {}
}