{
  "_format": "hh-sol-artifact-1",
  "contractName": "PeggedTokenBridge",
  "sourceName": "contracts/cBridge/pegged-bridge/PeggedTokenBridge.sol",
  "abi": [
    {
      "inputs": [
        {
          "internalType": "contract ISigsVerifier",
          "name": "_sigsVerifier",
          "type": "address"
        }
      ],
      "stateMutability": "nonpayable",
      "type": "constructor"
    },
    {
      "anonymous": false,
      "inputs": [
        {
          "indexed": false,
          "internalType": "bytes32",
          "name": "burnId",
          "type": "bytes32"
        },
        {
          "indexed": false,
          "internalType": "address",
          "name": "token",
          "type": "address"
        },
        {
          "indexed": false,
          "internalType": "address",
          "name": "account",
          "type": "address"
        },
        {
          "indexed": false,
          "internalType": "uint256",
          "name": "amount",
          "type": "uint256"
        },
        {
          "indexed": false,
          "internalType": "address",
          "name": "withdrawAccount",
          "type": "address"
        }
      ],
      "name": "Burn",
      "type": "event"
    },
    {
      "anonymous": false,
      "inputs": [
        {
          "indexed": false,
          "internalType": "uint256",
          "name": "period",
          "type": "uint256"
        }
      ],
      "name": "DelayPeriodUpdated",
      "type": "event"
    },
    {
      "anonymous": false,
      "inputs": [
        {
          "indexed": false,
          "internalType": "address",
          "name": "token",
          "type": "address"
        },
        {
          "indexed": false,
          "internalType": "uint256",
          "name": "threshold",
          "type": "uint256"
        }
      ],
      "name": "DelayThresholdUpdated",
      "type": "event"
    },
    {
      "anonymous": false,
      "inputs": [
        {
          "indexed": false,
          "internalType": "bytes32",
          "name": "id",
          "type": "bytes32"
        }
      ],
      "name": "DelayedTransferAdded",
      "type": "event"
    },
    {
      "anonymous": false,
      "inputs": [
        {
          "indexed": false,
          "internalType": "bytes32",
          "name": "id",
          "type": "bytes32"
        },
        {
          "indexed": false,
          "internalType": "address",
          "name": "receiver",
          "type": "address"
        },
        {
          "indexed": false,
          "internalType": "address",
          "name": "token",
          "type": "address"
        },
        {
          "indexed": false,
          "internalType": "uint256",
          "name": "amount",
          "type": "uint256"
        }
      ],
      "name": "DelayedTransferExecuted",
      "type": "event"
    },
    {
      "anonymous": false,
      "inputs": [
        {
          "indexed": false,
          "internalType": "uint256",
          "name": "length",
          "type": "uint256"
        }
      ],
      "name": "EpochLengthUpdated",
      "type": "event"
    },
    {
      "anonymous": false,
      "inputs": [
        {
          "indexed": false,
          "internalType": "address",
          "name": "token",
          "type": "address"
        },
        {
          "indexed": false,
          "internalType": "uint256",
          "name": "cap",
          "type": "uint256"
        }
      ],
      "name": "EpochVolumeUpdated",
      "type": "event"
    },
    {
      "anonymous": false,
      "inputs": [
        {
          "indexed": false,
          "internalType": "address",
          "name": "account",
          "type": "address"
        }
      ],
      "name": "GovernorAdded",
      "type": "event"
    },
    {
      "anonymous": false,
      "inputs": [
        {
          "indexed": false,
          "internalType": "address",
          "name": "account",
          "type": "address"
        }
      ],
      "name": "GovernorRemoved",
      "type": "event"
    },
    {
      "anonymous": false,
      "inputs": [
        {
          "indexed": false,
          "internalType": "address",
          "name": "token",
          "type": "address"
        },
        {
          "indexed": false,
          "internalType": "uint256",
          "name": "amount",
          "type": "uint256"
        }
      ],
      "name": "MaxBurnUpdated",
      "type": "event"
    },
    {
      "anonymous": false,
      "inputs": [
        {
          "indexed": false,
          "internalType": "address",
          "name": "token",
          "type": "address"
        },
        {
          "indexed": false,
          "internalType": "uint256",
          "name": "amount",
          "type": "uint256"
        }
      ],
      "name": "MinBurnUpdated",
      "type": "event"
    },
    {
      "anonymous": false,
      "inputs": [
        {
          "indexed": false,
          "internalType": "bytes32",
          "name": "mintId",
          "type": "bytes32"
        },
        {
          "indexed": false,
          "internalType": "address",
          "name": "token",
          "type": "address"
        },
        {
          "indexed": false,
          "internalType": "address",
          "name": "account",
          "type": "address"
        },
        {
          "indexed": false,
          "internalType": "uint256",
          "name": "amount",
          "type": "uint256"
        },
        {
          "indexed": false,
          "internalType": "uint64",
          "name": "refChainId",
          "type": "uint64"
        },
        {
          "indexed": false,
          "internalType": "bytes32",
          "name": "refId",
          "type": "bytes32"
        },
        {
          "indexed": false,
          "internalType": "address",
          "name": "depositor",
          "type": "address"
        }
      ],
      "name": "Mint",
      "type": "event"
    },
    {
      "anonymous": false,
      "inputs": [
        {
          "indexed": true,
          "internalType": "address",
          "name": "previousOwner",
          "type": "address"
        },
        {
          "indexed": true,
          "internalType": "address",
          "name": "newOwner",
          "type": "address"
        }
      ],
      "name": "OwnershipTransferred",
      "type": "event"
    },
    {
      "anonymous": false,
      "inputs": [
        {
          "indexed": false,
          "internalType": "address",
          "name": "account",
          "type": "address"
        }
      ],
      "name": "Paused",
      "type": "event"
    },
    {
      "anonymous": false,
      "inputs": [
        {
          "indexed": false,
          "internalType": "address",
          "name": "account",
          "type": "address"
        }
      ],
      "name": "PauserAdded",
      "type": "event"
    },
    {
      "anonymous": false,
      "inputs": [
        {
          "indexed": false,
          "internalType": "address",
          "name": "account",
          "type": "address"
        }
      ],
      "name": "PauserRemoved",
      "type": "event"
    },
    {
      "anonymous": false,
      "inputs": [
        {
          "indexed": false,
          "internalType": "address",
          "name": "account",
          "type": "address"
        }
      ],
      "name": "Unpaused",
      "type": "event"
    },
    {
      "inputs": [
        {
          "internalType": "address",
          "name": "_account",
          "type": "address"
        }
      ],
      "name": "addGovernor",
      "outputs": [],
      "stateMutability": "nonpayable",
      "type": "function"
    },
    {
      "inputs": [
        {
          "internalType": "address",
          "name": "account",
          "type": "address"
        }
      ],
      "name": "addPauser",
      "outputs": [],
      "stateMutability": "nonpayable",
      "type": "function"
    },
    {
      "inputs": [
        {
          "internalType": "address",
          "name": "_token",
          "type": "address"
        },
        {
          "internalType": "uint256",
          "name": "_amount",
          "type": "uint256"
        },
        {
          "internalType": "address",
          "name": "_withdrawAccount",
          "type": "address"
        },
        {
          "internalType": "uint64",
          "name": "_nonce",
          "type": "uint64"
        }
      ],
      "name": "burn",
      "outputs": [],
      "stateMutability": "nonpayable",
      "type": "function"
    },
    {
      "inputs": [],
      "name": "delayPeriod",
      "outputs": [
        {
          "internalType": "uint256",
          "name": "",
          "type": "uint256"
        }
      ],
      "stateMutability": "view",
      "type": "function"
    },
    {
      "inputs": [
        {
          "internalType": "address",
          "name": "",
          "type": "address"
        }
      ],
      "name": "delayThresholds",
      "outputs": [
        {
          "internalType": "uint256",
          "name": "",
          "type": "uint256"
        }
      ],
      "stateMutability": "view",
      "type": "function"
    },
    {
      "inputs": [
        {
          "internalType": "bytes32",
          "name": "",
          "type": "bytes32"
        }
      ],
      "name": "delayedTransfers",
      "outputs": [
        {
          "internalType": "address",
          "name": "receiver",
          "type": "address"
        },
        {
          "internalType": "address",
          "name": "token",
          "type": "address"
        },
        {
          "internalType": "uint256",
          "name": "amount",
          "type": "uint256"
        },
        {
          "internalType": "uint256",
          "name": "timestamp",
          "type": "uint256"
        }
      ],
      "stateMutability": "view",
      "type": "function"
    },
    {
      "inputs": [],
      "name": "epochLength",
      "outputs": [
        {
          "internalType": "uint256",
          "name": "",
          "type": "uint256"
        }
      ],
      "stateMutability": "view",
      "type": "function"
    },
    {
      "inputs": [
        {
          "internalType": "address",
          "name": "",
          "type": "address"
        }
      ],
      "name": "epochVolumeCaps",
      "outputs": [
        {
          "internalType": "uint256",
          "name": "",
          "type": "uint256"
        }
      ],
      "stateMutability": "view",
      "type": "function"
    },
    {
      "inputs": [
        {
          "internalType": "address",
          "name": "",
          "type": "address"
        }
      ],
      "name": "epochVolumes",
      "outputs": [
        {
          "internalType": "uint256",
          "name": "",
          "type": "uint256"
        }
      ],
      "stateMutability": "view",
      "type": "function"
    },
    {
      "inputs": [
        {
          "internalType": "bytes32",
          "name": "id",
          "type": "bytes32"
        }
      ],
      "name": "executeDelayedTransfer",
      "outputs": [],
      "stateMutability": "nonpayable",
      "type": "function"
    },
    {
      "inputs": [
        {
          "internalType": "address",
          "name": "",
          "type": "address"
        }
      ],
      "name": "governors",
      "outputs": [
        {
          "internalType": "bool",
          "name": "",
          "type": "bool"
        }
      ],
      "stateMutability": "view",
      "type": "function"
    },
    {
      "inputs": [
        {
          "internalType": "address",
          "name": "_account",
          "type": "address"
        }
      ],
      "name": "isGovernor",
      "outputs": [
        {
          "internalType": "bool",
          "name": "",
          "type": "bool"
        }
      ],
      "stateMutability": "view",
      "type": "function"
    },
    {
      "inputs": [
        {
          "internalType": "address",
          "name": "account",
          "type": "address"
        }
      ],
      "name": "isPauser",
      "outputs": [
        {
          "internalType": "bool",
          "name": "",
          "type": "bool"
        }
      ],
      "stateMutability": "view",
      "type": "function"
    },
    {
      "inputs": [
        {
          "internalType": "address",
          "name": "",
          "type": "address"
        }
      ],
      "name": "lastOpTimestamps",
      "outputs": [
        {
          "internalType": "uint256",
          "name": "",
          "type": "uint256"
        }
      ],
      "stateMutability": "view",
      "type": "function"
    },
    {
      "inputs": [
        {
          "internalType": "address",
          "name": "",
          "type": "address"
        }
      ],
      "name": "maxBurn",
      "outputs": [
        {
          "internalType": "uint256",
          "name": "",
          "type": "uint256"
        }
      ],
      "stateMutability": "view",
      "type": "function"
    },
    {
      "inputs": [
        {
          "internalType": "address",
          "name": "",
          "type": "address"
        }
      ],
      "name": "minBurn",
      "outputs": [
        {
          "internalType": "uint256",
          "name": "",
          "type": "uint256"
        }
      ],
      "stateMutability": "view",
      "type": "function"
    },
    {
      "inputs": [
        {
          "internalType": "bytes",
          "name": "_request",
          "type": "bytes"
        },
        {
          "internalType": "bytes[]",
          "name": "_sigs",
          "type": "bytes[]"
        },
        {
          "internalType": "address[]",
          "name": "_signers",
          "type": "address[]"
        },
        {
          "internalType": "uint256[]",
          "name": "_powers",
          "type": "uint256[]"
        }
      ],
      "name": "mint",
      "outputs": [],
      "stateMutability": "nonpayable",
      "type": "function"
    },
    {
      "inputs": [],
      "name": "owner",
      "outputs": [
        {
          "internalType": "address",
          "name": "",
          "type": "address"
        }
      ],
      "stateMutability": "view",
      "type": "function"
    },
    {
      "inputs": [],
      "name": "pause",
      "outputs": [],
      "stateMutability": "nonpayable",
      "type": "function"
    },
    {
      "inputs": [],
      "name": "paused",
      "outputs": [
        {
          "internalType": "bool",
          "name": "",
          "type": "bool"
        }
      ],
      "stateMutability": "view",
      "type": "function"
    },
    {
      "inputs": [
        {
          "internalType": "address",
          "name": "",
          "type": "address"
        }
      ],
      "name": "pausers",
      "outputs": [
        {
          "internalType": "bool",
          "name": "",
          "type": "bool"
        }
      ],
      "stateMutability": "view",
      "type": "function"
    },
    {
      "inputs": [
        {
          "internalType": "bytes32",
          "name": "",
          "type": "bytes32"
        }
      ],
      "name": "records",
      "outputs": [
        {
          "internalType": "bool",
          "name": "",
          "type": "bool"
        }
      ],
      "stateMutability": "view",
      "type": "function"
    },
    {
      "inputs": [
        {
          "internalType": "address",
          "name": "_account",
          "type": "address"
        }
      ],
      "name": "removeGovernor",
      "outputs": [],
      "stateMutability": "nonpayable",
      "type": "function"
    },
    {
      "inputs": [
        {
          "internalType": "address",
          "name": "account",
          "type": "address"
        }
      ],
      "name": "removePauser",
      "outputs": [],
      "stateMutability": "nonpayable",
      "type": "function"
    },
    {
      "inputs": [],
      "name": "renounceGovernor",
      "outputs": [],
      "stateMutability": "nonpayable",
      "type": "function"
    },
    {
      "inputs": [],
      "name": "renouncePauser",
      "outputs": [],
      "stateMutability": "nonpayable",
      "type": "function"
    },
    {
      "inputs": [
        {
          "internalType": "uint256",
          "name": "_period",
          "type": "uint256"
        }
      ],
      "name": "setDelayPeriod",
      "outputs": [],
      "stateMutability": "nonpayable",
      "type": "function"
    },
    {
      "inputs": [
        {
          "internalType": "address[]",
          "name": "_tokens",
          "type": "address[]"
        },
        {
          "internalType": "uint256[]",
          "name": "_thresholds",
          "type": "uint256[]"
        }
      ],
      "name": "setDelayThresholds",
      "outputs": [],
      "stateMutability": "nonpayable",
      "type": "function"
    },
    {
      "inputs": [
        {
          "internalType": "uint256",
          "name": "_length",
          "type": "uint256"
        }
      ],
      "name": "setEpochLength",
      "outputs": [],
      "stateMutability": "nonpayable",
      "type": "function"
    },
    {
      "inputs": [
        {
          "internalType": "address[]",
          "name": "_tokens",
          "type": "address[]"
        },
        {
          "internalType": "uint256[]",
          "name": "_caps",
          "type": "uint256[]"
        }
      ],
      "name": "setEpochVolumeCaps",
      "outputs": [],
      "stateMutability": "nonpayable",
      "type": "function"
    },
    {
      "inputs": [
        {
          "internalType": "address[]",
          "name": "_tokens",
          "type": "address[]"
        },
        {
          "internalType": "uint256[]",
          "name": "_amounts",
          "type": "uint256[]"
        }
      ],
      "name": "setMaxBurn",
      "outputs": [],
      "stateMutability": "nonpayable",
      "type": "function"
    },
    {
      "inputs": [
        {
          "internalType": "address[]",
          "name": "_tokens",
          "type": "address[]"
        },
        {
          "internalType": "uint256[]",
          "name": "_amounts",
          "type": "uint256[]"
        }
      ],
      "name": "setMinBurn",
      "outputs": [],
      "stateMutability": "nonpayable",
      "type": "function"
    },
    {
      "inputs": [],
      "name": "sigsVerifier",
      "outputs": [
        {
          "internalType": "contract ISigsVerifier",
          "name": "",
          "type": "address"
        }
      ],
      "stateMutability": "view",
      "type": "function"
    },
    {
      "inputs": [
        {
          "internalType": "address",
          "name": "newOwner",
          "type": "address"
        }
      ],
      "name": "transferOwnership",
      "outputs": [],
      "stateMutability": "nonpayable",
      "type": "function"
    },
    {
      "inputs": [],
      "name": "unpause",
      "outputs": [],
      "stateMutability": "nonpayable",
      "type": "function"
    }
  ],
  "bytecode": "0x60a06040523480156200001157600080fd5b50604051620029193803806200291983398101604081905262000034916200024f565b6200003f3362000074565b6000805460ff60a01b191690556200005733620000c4565b62000062336200018f565b6001600160a01b031660805262000281565b600080546001600160a01b038381166001600160a01b0319831681178455604051919092169283917f8be0079c531659141344cd1fd0a4f28419497f9722a3daafe3b4186f6b6457e09190a35050565b6001600160a01b03811660009081526001602052604090205460ff1615620001335760405162461bcd60e51b815260206004820152601960248201527f4163636f756e7420697320616c7265616479207061757365720000000000000060448201526064015b60405180910390fd5b6001600160a01b038116600081815260016020818152604092839020805460ff191690921790915590519182527f6719d08c1888103bea251a4ed56406bd0c3e69723c8a1686e017e7bbe159b6f891015b60405180910390a150565b6001600160a01b03811660009081526002602052604090205460ff1615620001fa5760405162461bcd60e51b815260206004820152601b60248201527f4163636f756e7420697320616c726561647920676f7665726e6f72000000000060448201526064016200012a565b6001600160a01b038116600081815260026020908152604091829020805460ff1916600117905590519182527fdc5a48d79e2e147530ff63ecdbed5a5a66adb9d5cf339384d5d076da197c40b5910162000184565b6000602082840312156200026257600080fd5b81516001600160a01b03811681146200027a57600080fd5b9392505050565b608051612675620002a4600039600081816104b2015261102201526126756000f3fe608060405234801561001057600080fd5b50600436106102115760003560e01c806382dc1ec411610125578063de790c7e116100ad578063eecdac881161007c578063eecdac8814610525578063f2fde38b14610538578063f83213831461054b578063f87343021461056b578063f9a8ea081461057e57600080fd5b8063de790c7e146104d4578063e026049c146104e7578063e3eece26146104ef578063e43581b81461051257600080fd5b8063adc0d57f116100f4578063adc0d57f14610404578063b1c94d9414610471578063b5f2bc471461047a578063bf4816f01461049a578063ccf2683b146104ad57600080fd5b806382dc1ec4146103b15780638456cb59146103c45780638da5cb5b146103cc5780639e25fc5c146103f157600080fd5b806352532faa116101a857806360216b001161017757806360216b00146103335780636b2c0f55146103535780636ef8d66d146103665780637f8560131461036e57806380f51c121461038e57600080fd5b806352532faa146102e557806354eea7961461030557806357d775f8146103185780635c975abb1461032157600080fd5b80633f4ba83a116101e45780633f4ba83a1461028957806346fbf68e1461029157806347b16c6c146102a4578063497bf3b2146102b757600080fd5b806301e647251461021657806317bdbae51461024e5780633c4a25d0146102635780633d57210714610276575b600080fd5b610239610224366004612087565b600a6020526000908152604090205460ff1681565b60405190151581526020015b60405180910390f35b61026161025c3660046120ec565b610591565b005b610261610271366004612174565b6106e3565b610261610284366004612087565b610728565b610261610789565b61023961029f366004612174565b6107df565b6102616102b23660046120ec565b6107fd565b6102d76102c5366004612174565b600c6020526000908152604090205481565b604051908152602001610245565b6102d76102f3366004612174565b60086020526000908152604090205481565b610261610313366004612087565b61093f565b6102d760035481565b600054600160a01b900460ff16610239565b6102d7610341366004612174565b60046020526000908152604090205481565b610261610361366004612174565b610999565b6102616109db565b6102d761037c366004612174565b600b6020526000908152604090205481565b61023961039c366004612174565b60016020526000908152604090205460ff1681565b6102616103bf366004612174565b6109e4565b610261610a26565b6000546001600160a01b03165b6040516001600160a01b039091168152602001610245565b6102616103ff366004612087565b610a7a565b610446610412366004612087565b60076020526000908152604090208054600182015460028301546003909301546001600160a01b0392831693919092169184565b604080516001600160a01b039586168152949093166020850152918301526060820152608001610245565b6102d760095481565b6102d7610488366004612174565b60056020526000908152604090205481565b6102616104a83660046120ec565b610b02565b6103d97f000000000000000000000000000000000000000000000000000000000000000081565b6102616104e2366004612196565b610c44565b610261610eb8565b6102396104fd366004612174565b60026020526000908152604090205460ff1681565b610239610520366004612174565b610ec1565b610261610533366004612174565b610edf565b610261610546366004612174565b610f21565b6102d7610559366004612174565b60066020526000908152604090205481565b6102616105793660046121f2565b610fc8565b61026161058c3660046120ec565b611371565b61059a33610ec1565b6105bf5760405162461bcd60e51b81526004016105b6906122e1565b60405180910390fd5b8281146105de5760405162461bcd60e51b81526004016105b690612311565b60005b838110156106dc578282828181106105fb576105fb61233a565b90506020020135600860008787858181106106185761061861233a565b905060200201602081019061062d9190612174565b6001600160a01b031681526020810191909152604001600020557fceaad6533bfb481492fb3e08ef19297f46611b8fa9de5ef4cf8dc23a56ad09ce85858381811061067a5761067a61233a565b905060200201602081019061068f9190612174565b8484848181106106a1576106a161233a565b604080516001600160a01b0390951685526020918202939093013590840152500160405180910390a1806106d481612366565b9150506105e1565b5050505050565b336106f66000546001600160a01b031690565b6001600160a01b03161461071c5760405162461bcd60e51b81526004016105b690612381565b610725816114b3565b50565b61073133610ec1565b61074d5760405162461bcd60e51b81526004016105b6906122e1565b60098190556040518181527fc0a39f234199b125fb93713c4d067bdcebbf691087f87b79c0feb92b156ba8b6906020015b60405180910390a150565b610792336107df565b6107d55760405162461bcd60e51b815260206004820152601460248201527321b0b63632b91034b9903737ba103830bab9b2b960611b60448201526064016105b6565b6107dd61155d565b565b6001600160a01b031660009081526001602052604090205460ff1690565b61080633610ec1565b6108225760405162461bcd60e51b81526004016105b6906122e1565b8281146108415760405162461bcd60e51b81526004016105b690612311565b60005b838110156106dc5782828281811061085e5761085e61233a565b905060200201356005600087878581811061087b5761087b61233a565b90506020020160208101906108909190612174565b6001600160a01b031681526020810191909152604001600020557f608e49c22994f20b5d3496dca088b88dfd81b4a3e8cc3809ea1e10a320107e898585838181106108dd576108dd61233a565b90506020020160208101906108f29190612174565b8484848181106109045761090461233a565b604080516001600160a01b0390951685526020918202939093013590840152500160405180910390a18061093781612366565b915050610844565b61094833610ec1565b6109645760405162461bcd60e51b81526004016105b6906122e1565b60038190556040518181527f2664fec2ff76486ac58ed087310855b648b15b9d19f3de8529e95f7c46b7d6b39060200161077e565b336109ac6000546001600160a01b031690565b6001600160a01b0316146109d25760405162461bcd60e51b81526004016105b690612381565b610725816115b2565b6107dd336115b2565b336109f76000546001600160a01b031690565b6001600160a01b031614610a1d5760405162461bcd60e51b81526004016105b690612381565b61072581611650565b610a2f336107df565b610a725760405162461bcd60e51b815260206004820152601460248201527321b0b63632b91034b9903737ba103830bab9b2b960611b60448201526064016105b6565b6107dd6116fb565b610a8261173e565b6000610a8d8261178b565b6020810151815160408084015190516340c10f1960e01b81526001600160a01b039283166004820152602481019190915292935016906340c10f1990604401600060405180830381600087803b158015610ae657600080fd5b505af1158015610afa573d6000803e3d6000fd5b505050505050565b610b0b33610ec1565b610b275760405162461bcd60e51b81526004016105b6906122e1565b828114610b465760405162461bcd60e51b81526004016105b690612311565b60005b838110156106dc57828282818110610b6357610b6361233a565b90506020020135600b6000878785818110610b8057610b8061233a565b9050602002016020810190610b959190612174565b6001600160a01b031681526020810191909152604001600020557f3796cd0b17a8734f8da819920625598e9a18be490f686725282e5383f1d06683858583818110610be257610be261233a565b9050602002016020810190610bf79190612174565b848484818110610c0957610c0961233a565b604080516001600160a01b0390951685526020918202939093013590840152500160405180910390a180610c3c81612366565b915050610b49565b610c4c61173e565b6001600160a01b0384166000908152600b60205260409020548311610ca65760405162461bcd60e51b815260206004820152601060248201526f185b5bdd5b9d081d1bdbc81cdb585b1b60821b60448201526064016105b6565b6001600160a01b0384166000908152600c60205260409020541580610ce357506001600160a01b0384166000908152600c60205260409020548311155b610d225760405162461bcd60e51b815260206004820152601060248201526f616d6f756e7420746f6f206c6172676560801b60448201526064016105b6565b6040516001600160601b031933606090811b8216602084015286811b821660348401526048830186905284901b1660688201526001600160c01b031960c083811b8216607c84015246901b166084820152600090608c0160408051601f1981840301815291815281516020928301206000818152600a90935291205490915060ff1615610de15760405162461bcd60e51b815260206004820152600d60248201526c7265636f72642065786973747360981b60448201526064016105b6565b6000818152600a602052604090819020805460ff1916600117905551632770a7eb60e21b8152336004820152602481018590526001600160a01b03861690639dc29fac90604401600060405180830381600087803b158015610e4257600080fd5b505af1158015610e56573d6000803e3d6000fd5b5050604080518481526001600160a01b0389811660208301523382840152606082018990528716608082015290517f75f1bf55bb1de41b63a775dc7d4500f01114ee62b688a6b11d34f4692c1f3d4393509081900360a0019150a15050505050565b6107dd33611950565b6001600160a01b031660009081526002602052604090205460ff1690565b33610ef26000546001600160a01b031690565b6001600160a01b031614610f185760405162461bcd60e51b81526004016105b690612381565b61072581611950565b33610f346000546001600160a01b031690565b6001600160a01b031614610f5a5760405162461bcd60e51b81526004016105b690612381565b6001600160a01b038116610fbf5760405162461bcd60e51b815260206004820152602660248201527f4f776e61626c653a206e6577206f776e657220697320746865207a65726f206160448201526564647265737360d01b60648201526084016105b6565b610725816119f6565b610fd061173e565b6000463060405160200161100892919091825260601b6001600160601b031916602082015263135a5b9d60e21b603482015260380190565b6040516020818303038152906040528051906020012090507f00000000000000000000000000000000000000000000000000000000000000006001600160a01b031663682dbc22828b8b604051602001611064939291906123b6565b6040516020818303038152906040528989898989896040518863ffffffff1660e01b815260040161109b9796959493929190612507565b60006040518083038186803b1580156110b357600080fd5b505afa1580156110c7573d6000803e3d6000fd5b50505050600061110c8a8a8080601f016020809104026020016040519081016040528093929190818152602001838380828437600092019190915250611a4692505050565b6020818101518251604080850151606080870151608088015160a0890151855197841b6001600160601b0319908116898b015296841b871660348901526048880194909452911b909316606885015260c09290921b6001600160c01b031916607c8401526084808401929092528051808403909201825260a490920182528051908301206000818152600a9093529120549192509060ff16156111e15760405162461bcd60e51b815260206004820152600d60248201526c7265636f72642065786973747360981b60448201526064016105b6565b6000818152600a602052604090819020805460ff1916600117905582519083015161120c9190611ba8565b81516001600160a01b031660009081526008602052604090205480158015906112385750808360400151115b1561125a5761125582846020015185600001518660400151611cb5565b6112ca565b8251602084015160408086015190516340c10f1960e01b81526001600160a01b03928316600482015260248101919091529116906340c10f1990604401600060405180830381600087803b1580156112b157600080fd5b505af11580156112c5573d6000803e3d6000fd5b505050505b7f5bc84ecccfced5bb04bfc7f3efcdbe7f5cd21949ef146811b4d1967fe41f777a8284600001518560200151866040015187608001518860a00151896060015160405161135b97969594939291909687526001600160a01b0395861660208801529385166040870152606086019290925267ffffffffffffffff16608085015260a08401521660c082015260e00190565b60405180910390a1505050505050505050505050565b61137a33610ec1565b6113965760405162461bcd60e51b81526004016105b6906122e1565b8281146113b55760405162461bcd60e51b81526004016105b690612311565b60005b838110156106dc578282828181106113d2576113d261233a565b90506020020135600c60008787858181106113ef576113ef61233a565b90506020020160208101906114049190612174565b6001600160a01b031681526020810191909152604001600020557fa3181379f6db47d9037efc6b6e8e3efe8c55ddb090b4f0512c152f97c4e47da58585838181106114515761145161233a565b90506020020160208101906114669190612174565b8484848181106114785761147861233a565b604080516001600160a01b0390951685526020918202939093013590840152500160405180910390a1806114ab81612366565b9150506113b8565b6114bc81610ec1565b156115095760405162461bcd60e51b815260206004820152601b60248201527f4163636f756e7420697320616c726561647920676f7665726e6f72000000000060448201526064016105b6565b6001600160a01b038116600081815260026020908152604091829020805460ff1916600117905590519182527fdc5a48d79e2e147530ff63ecdbed5a5a66adb9d5cf339384d5d076da197c40b5910161077e565b611565611dc8565b6000805460ff60a01b191690557f5db9ee0a495bf2e6ff9c91a7834c1ba4fdd244a5e8aa4e537bd38aeae4b073aa335b6040516001600160a01b03909116815260200160405180910390a1565b6115bb816107df565b6115ff5760405162461bcd60e51b815260206004820152601560248201527420b1b1b7bab73a1034b9903737ba103830bab9b2b960591b60448201526064016105b6565b6001600160a01b038116600081815260016020908152604091829020805460ff1916905590519182527fcd265ebaf09df2871cc7bd4133404a235ba12eff2041bb89d9c714a2621c7c7e910161077e565b611659816107df565b156116a65760405162461bcd60e51b815260206004820152601960248201527f4163636f756e7420697320616c7265616479207061757365720000000000000060448201526064016105b6565b6001600160a01b038116600081815260016020818152604092839020805460ff191690921790915590519182527f6719d08c1888103bea251a4ed56406bd0c3e69723c8a1686e017e7bbe159b6f8910161077e565b61170361173e565b6000805460ff60a01b1916600160a01b1790557f62e78cea01bee320cd4e420270b5ea74000d11b0c9f74754ebdbfc544b05a2586115953390565b600054600160a01b900460ff16156107dd5760405162461bcd60e51b815260206004820152601060248201526f14185d5cd8589b194e881c185d5cd95960821b60448201526064016105b6565b604080516080810182526000808252602082018190529181018290526060810191909152600082815260076020908152604091829020825160808101845281546001600160a01b039081168252600183015416928101929092526002810154928201929092526003909101546060820181905261184a5760405162461bcd60e51b815260206004820152601a60248201527f64656c61796564207472616e73666572206e6f7420657869737400000000000060448201526064016105b6565b600954816060015161185c91906125a3565b42116118aa5760405162461bcd60e51b815260206004820152601d60248201527f64656c61796564207472616e73666572207374696c6c206c6f636b656400000060448201526064016105b6565b600083815260076020908152604080832080546001600160a01b03199081168255600182018054909116905560028101849055600301929092558251908301518383015192517f3b40e5089937425d14cdd96947e5661868357e224af59bd8b24a4b8a330d44269361194293889390929091909384526001600160a01b03928316602085015291166040830152606082015260800190565b60405180910390a192915050565b61195981610ec1565b6119a55760405162461bcd60e51b815260206004820152601760248201527f4163636f756e74206973206e6f7420676f7665726e6f7200000000000000000060448201526064016105b6565b6001600160a01b038116600081815260026020908152604091829020805460ff1916905590519182527f1ebe834e73d60a5fec822c1e1727d34bc79f2ad977ed504581cc1822fe20fb5b910161077e565b600080546001600160a01b038381166001600160a01b0319831681178455604051919092169283917f8be0079c531659141344cd1fd0a4f28419497f9722a3daafe3b4186f6b6457e09190a35050565b6040805160c08101825260008082526020808301829052828401829052606083018290526080830182905260a0830182905283518085019094528184528301849052909190805b60208301515183511015611ba057611aa483611e18565b90925090508160011415611ad357611ac3611abe84611e52565b611f0f565b6001600160a01b03168452611a8d565b8160021415611afb57611ae8611abe84611e52565b6001600160a01b03166020850152611a8d565b8160031415611b1f57611b15611b1084611e52565b611f20565b6040850152611a8d565b8160041415611b4757611b34611abe84611e52565b6001600160a01b03166060850152611a8d565b8160051415611b6d57611b5983611f57565b67ffffffffffffffff166080850152611a8d565b8160061415611b9157611b87611b8284611e52565b611fd9565b60a0850152611a8d565b611b9b8382611ff1565b611a8d565b505050919050565b600354611bb3575050565b6001600160a01b03821660009081526005602052604090205480611bd657505050565b6001600160a01b03831660009081526004602052604081205460035490914291611c0081846125bb565b611c0a91906125dd565b6001600160a01b038716600090815260066020526040902054909150811115611c3557849250611c42565b611c3f85846125a3565b92505b83831115611c875760405162461bcd60e51b81526020600482015260126024820152710766f6c756d652065786365656473206361760741b60448201526064016105b6565b506001600160a01b039094166000908152600460209081526040808320939093556006905220929092555050565b60008481526007602052604090206003015415611d145760405162461bcd60e51b815260206004820152601f60248201527f64656c61796564207472616e7366657220616c7265616479206578697374730060448201526064016105b6565b604080516080810182526001600160a01b0380861682528481166020808401918252838501868152426060860190815260008b8152600790935291869020945185549085166001600160a01b031991821617865592516001860180549190951693169290921790925551600283015551600390910155517fcbcfffe5102114216a85d3aceb14ad4b81a3935b1b5c468fadf3889eb9c5dce690611dba9086815260200190565b60405180910390a150505050565b600054600160a01b900460ff166107dd5760405162461bcd60e51b815260206004820152601460248201527314185d5cd8589b194e881b9bdd081c185d5cd95960621b60448201526064016105b6565b6000806000611e2684611f57565b9050611e336008826125bb565b9250806007166005811115611e4a57611e4a6125fc565b915050915091565b60606000611e5f83611f57565b90506000818460000151611e7391906125a3565b9050836020015151811115611e8757600080fd5b8167ffffffffffffffff811115611ea057611ea0612612565b6040519080825280601f01601f191660200182016040528015611eca576020820181803683370190505b50602080860151865192955091818601919083010160005b85811015611f04578181015183820152611efd6020826125a3565b9050611ee2565b505050935250919050565b6000611f1a82612068565b92915050565b6000602082511115611f3157600080fd5b6020820151905081516020611f469190612628565b611f519060086125dd565b1c919050565b602080820151825181019091015160009182805b600a811015611fd35783811a9150611f848160076125dd565b82607f16901b851794508160801660001415611fc157611fa58160016125a3565b86518790611fb49083906125a3565b9052509395945050505050565b80611fcb81612366565b915050611f6b565b50600080fd5b60008151602014611fe957600080fd5b506020015190565b6000816005811115612005576120056125fc565b14156120195761201482611f57565b505050565b600281600581111561202d5761202d6125fc565b141561021157600061203e83611f57565b9050808360000181815161205291906125a3565b9052506020830151518351111561201457600080fd5b6000815160141461207857600080fd5b5060200151600160601b900490565b60006020828403121561209957600080fd5b5035919050565b60008083601f8401126120b257600080fd5b50813567ffffffffffffffff8111156120ca57600080fd5b6020830191508360208260051b85010111156120e557600080fd5b9250929050565b6000806000806040858703121561210257600080fd5b843567ffffffffffffffff8082111561211a57600080fd5b612126888389016120a0565b9096509450602087013591508082111561213f57600080fd5b5061214c878288016120a0565b95989497509550505050565b80356001600160a01b038116811461216f57600080fd5b919050565b60006020828403121561218657600080fd5b61218f82612158565b9392505050565b600080600080608085870312156121ac57600080fd5b6121b585612158565b9350602085013592506121ca60408601612158565b9150606085013567ffffffffffffffff811681146121e757600080fd5b939692955090935050565b6000806000806000806000806080898b03121561220e57600080fd5b883567ffffffffffffffff8082111561222657600080fd5b818b0191508b601f83011261223a57600080fd5b81358181111561224957600080fd5b8c602082850101111561225b57600080fd5b60209283019a509850908a0135908082111561227657600080fd5b6122828c838d016120a0565b909850965060408b013591508082111561229b57600080fd5b6122a78c838d016120a0565b909650945060608b01359150808211156122c057600080fd5b506122cd8b828c016120a0565b999c989b5096995094979396929594505050565b60208082526016908201527521b0b63632b91034b9903737ba1033b7bb32b93737b960511b604082015260600190565b6020808252600f908201526e0d8cadccee8d040dad2e6dac2e8c6d608b1b604082015260600190565b634e487b7160e01b600052603260045260246000fd5b634e487b7160e01b600052601160045260246000fd5b600060001982141561237a5761237a612350565b5060010190565b6020808252818101527f4f776e61626c653a2063616c6c6572206973206e6f7420746865206f776e6572604082015260600190565b838152818360208301376000910160200190815292915050565b81835281816020850137506000828201602090810191909152601f909101601f19169091010190565b81835260006020808501808196508560051b810191508460005b8781101561247d5782840389528135601e1988360301811261243457600080fd5b8701803567ffffffffffffffff81111561244d57600080fd5b80360389131561245c57600080fd5b61246986828985016123d0565b9a87019a9550505090840190600101612413565b5091979650505050505050565b8183526000602080850194508260005b858110156124c6576001600160a01b036124b383612158565b168752958201959082019060010161249a565b509495945050505050565b81835260006001600160fb1b038311156124ea57600080fd5b8260051b8083602087013760009401602001938452509192915050565b608081526000885180608084015260005b81811015612535576020818c0181015160a0868401015201612518565b8181111561254757600060a083860101525b50601f01601f1916820182810360a0908101602085015261256b908201898b6123f9565b9050828103604084015261258081878961248a565b905082810360608401526125958185876124d1565b9a9950505050505050505050565b600082198211156125b6576125b6612350565b500190565b6000826125d857634e487b7160e01b600052601260045260246000fd5b500490565b60008160001904831182151516156125f7576125f7612350565b500290565b634e487b7160e01b600052602160045260246000fd5b634e487b7160e01b600052604160045260246000fd5b60008282101561263a5761263a612350565b50039056fea2646970667358221220d89a9d65c015d79e4a920f587c2a084db9a628435a8e343b5eab947a2534c79664736f6c63430008090033",
  "linkReferences": {},
  "deployedLinkReferences": {}
}