{
  "_format": "hh-sol-artifact-1",
  "contractName": "MultiBridgeTokenPermit",
  "sourceName": "contracts/cBridge/pegged-bridge/tokens/ERC20Permit/MultiBridgeTokenPermit.sol",
  "abi": [
    {
      "inputs": [
        {
          "internalType": "string",
          "name": "name_",
          "type": "string"
        },
        {
          "internalType": "string",
          "name": "symbol_",
          "type": "string"
        },
        {
          "internalType": "uint8",
          "name": "decimals_",
          "type": "uint8"
        }
      ],
      "stateMutability": "nonpayable",
      "type": "constructor"
    },
    {
      "anonymous": false,
      "inputs": [
        {
          "indexed": true,
          "internalType": "address",
          "name": "owner",
          "type": "address"
        },
        {
          "indexed": true,
          "internalType": "address",
          "name": "spender",
          "type": "address"
        },
        {
          "indexed": false,
          "internalType": "uint256",
          "name": "value",
          "type": "uint256"
        }
      ],
      "name": "Approval",
      "type": "event"
    },
    {
      "anonymous": false,
      "inputs": [
        {
          "indexed": false,
          "internalType": "address",
          "name": "bridge",
          "type": "address"
        },
        {
          "indexed": false,
          "internalType": "uint256",
          "name": "supplyCap",
          "type": "uint256"
        }
      ],
      "name": "BridgeSupplyCapUpdated",
      "type": "event"
    },
    {
      "anonymous": false,
      "inputs": [
        {
          "indexed": true,
          "internalType": "address",
          "name": "previousOwner",
          "type": "address"
        },
        {
          "indexed": true,
          "internalType": "address",
          "name": "newOwner",
          "type": "address"
        }
      ],
      "name": "OwnershipTransferred",
      "type": "event"
    },
    {
      "anonymous": false,
      "inputs": [
        {
          "indexed": true,
          "internalType": "address",
          "name": "from",
          "type": "address"
        },
        {
          "indexed": true,
          "internalType": "address",
          "name": "to",
          "type": "address"
        },
        {
          "indexed": false,
          "internalType": "uint256",
          "name": "value",
          "type": "uint256"
        }
      ],
      "name": "Transfer",
      "type": "event"
    },
    {
      "inputs": [],
      "name": "DOMAIN_SEPARATOR",
      "outputs": [
        {
          "internalType": "bytes32",
          "name": "",
          "type": "bytes32"
        }
      ],
      "stateMutability": "view",
      "type": "function"
    },
    {
      "inputs": [
        {
          "internalType": "address",
          "name": "owner",
          "type": "address"
        },
        {
          "internalType": "address",
          "name": "spender",
          "type": "address"
        }
      ],
      "name": "allowance",
      "outputs": [
        {
          "internalType": "uint256",
          "name": "",
          "type": "uint256"
        }
      ],
      "stateMutability": "view",
      "type": "function"
    },
    {
      "inputs": [
        {
          "internalType": "address",
          "name": "spender",
          "type": "address"
        },
        {
          "internalType": "uint256",
          "name": "amount",
          "type": "uint256"
        }
      ],
      "name": "approve",
      "outputs": [
        {
          "internalType": "bool",
          "name": "",
          "type": "bool"
        }
      ],
      "stateMutability": "nonpayable",
      "type": "function"
    },
    {
      "inputs": [
        {
          "internalType": "address",
          "name": "account",
          "type": "address"
        }
      ],
      "name": "balanceOf",
      "outputs": [
        {
          "internalType": "uint256",
          "name": "",
          "type": "uint256"
        }
      ],
      "stateMutability": "view",
      "type": "function"
    },
    {
      "inputs": [
        {
          "internalType": "address",
          "name": "",
          "type": "address"
        }
      ],
      "name": "bridges",
      "outputs": [
        {
          "internalType": "uint256",
          "name": "cap",
          "type": "uint256"
        },
        {
          "internalType": "uint256",
          "name": "total",
          "type": "uint256"
        }
      ],
      "stateMutability": "view",
      "type": "function"
    },
    {
      "inputs": [
        {
          "internalType": "uint256",
          "name": "_amount",
          "type": "uint256"
        }
      ],
      "name": "burn",
      "outputs": [
        {
          "internalType": "bool",
          "name": "",
          "type": "bool"
        }
      ],
      "stateMutability": "nonpayable",
      "type": "function"
    },
    {
      "inputs": [
        {
          "internalType": "address",
          "name": "_from",
          "type": "address"
        },
        {
          "internalType": "uint256",
          "name": "_amount",
          "type": "uint256"
        }
      ],
      "name": "burn",
      "outputs": [
        {
          "internalType": "bool",
          "name": "",
          "type": "bool"
        }
      ],
      "stateMutability": "nonpayable",
      "type": "function"
    },
    {
      "inputs": [
        {
          "internalType": "address",
          "name": "_from",
          "type": "address"
        },
        {
          "internalType": "uint256",
          "name": "_amount",
          "type": "uint256"
        }
      ],
      "name": "burnFrom",
      "outputs": [
        {
          "internalType": "bool",
          "name": "",
          "type": "bool"
        }
      ],
      "stateMutability": "nonpayable",
      "type": "function"
    },
    {
      "inputs": [],
      "name": "decimals",
      "outputs": [
        {
          "internalType": "uint8",
          "name": "",
          "type": "uint8"
        }
      ],
      "stateMutability": "view",
      "type": "function"
    },
    {
      "inputs": [
        {
          "internalType": "address",
          "name": "spender",
          "type": "address"
        },
        {
          "internalType": "uint256",
          "name": "subtractedValue",
          "type": "uint256"
        }
      ],
      "name": "decreaseAllowance",
      "outputs": [
        {
          "internalType": "bool",
          "name": "",
          "type": "bool"
        }
      ],
      "stateMutability": "nonpayable",
      "type": "function"
    },
    {
      "inputs": [],
      "name": "getOwner",
      "outputs": [
        {
          "internalType": "address",
          "name": "",
          "type": "address"
        }
      ],
      "stateMutability": "view",
      "type": "function"
    },
    {
      "inputs": [
        {
          "internalType": "address",
          "name": "spender",
          "type": "address"
        },
        {
          "internalType": "uint256",
          "name": "addedValue",
          "type": "uint256"
        }
      ],
      "name": "increaseAllowance",
      "outputs": [
        {
          "internalType": "bool",
          "name": "",
          "type": "bool"
        }
      ],
      "stateMutability": "nonpayable",
      "type": "function"
    },
    {
      "inputs": [
        {
          "internalType": "address",
          "name": "_to",
          "type": "address"
        },
        {
          "internalType": "uint256",
          "name": "_amount",
          "type": "uint256"
        }
      ],
      "name": "mint",
      "outputs": [
        {
          "internalType": "bool",
          "name": "",
          "type": "bool"
        }
      ],
      "stateMutability": "nonpayable",
      "type": "function"
    },
    {
      "inputs": [],
      "name": "name",
      "outputs": [
        {
          "internalType": "string",
          "name": "",
          "type": "string"
        }
      ],
      "stateMutability": "view",
      "type": "function"
    },
    {
      "inputs": [
        {
          "internalType": "address",
          "name": "owner",
          "type": "address"
        }
      ],
      "name": "nonces",
      "outputs": [
        {
          "internalType": "uint256",
          "name": "",
          "type": "uint256"
        }
      ],
      "stateMutability": "view",
      "type": "function"
    },
    {
      "inputs": [],
      "name": "owner",
      "outputs": [
        {
          "internalType": "address",
          "name": "",
          "type": "address"
        }
      ],
      "stateMutability": "view",
      "type": "function"
    },
    {
      "inputs": [
        {
          "internalType": "address",
          "name": "owner",
          "type": "address"
        },
        {
          "internalType": "address",
          "name": "spender",
          "type": "address"
        },
        {
          "internalType": "uint256",
          "name": "value",
          "type": "uint256"
        },
        {
          "internalType": "uint256",
          "name": "deadline",
          "type": "uint256"
        },
        {
          "internalType": "uint8",
          "name": "v",
          "type": "uint8"
        },
        {
          "internalType": "bytes32",
          "name": "r",
          "type": "bytes32"
        },
        {
          "internalType": "bytes32",
          "name": "s",
          "type": "bytes32"
        }
      ],
      "name": "permit",
      "outputs": [],
      "stateMutability": "nonpayable",
      "type": "function"
    },
    {
      "inputs": [],
      "name": "symbol",
      "outputs": [
        {
          "internalType": "string",
          "name": "",
          "type": "string"
        }
      ],
      "stateMutability": "view",
      "type": "function"
    },
    {
      "inputs": [],
      "name": "totalSupply",
      "outputs": [
        {
          "internalType": "uint256",
          "name": "",
          "type": "uint256"
        }
      ],
      "stateMutability": "view",
      "type": "function"
    },
    {
      "inputs": [
        {
          "internalType": "address",
          "name": "to",
          "type": "address"
        },
        {
          "internalType": "uint256",
          "name": "amount",
          "type": "uint256"
        }
      ],
      "name": "transfer",
      "outputs": [
        {
          "internalType": "bool",
          "name": "",
          "type": "bool"
        }
      ],
      "stateMutability": "nonpayable",
      "type": "function"
    },
    {
      "inputs": [
        {
          "internalType": "address",
          "name": "from",
          "type": "address"
        },
        {
          "internalType": "address",
          "name": "to",
          "type": "address"
        },
        {
          "internalType": "uint256",
          "name": "amount",
          "type": "uint256"
        }
      ],
      "name": "transferFrom",
      "outputs": [
        {
          "internalType": "bool",
          "name": "",
          "type": "bool"
        }
      ],
      "stateMutability": "nonpayable",
      "type": "function"
    },
    {
      "inputs": [
        {
          "internalType": "address",
          "name": "newOwner",
          "type": "address"
        }
      ],
      "name": "transferOwnership",
      "outputs": [],
      "stateMutability": "nonpayable",
      "type": "function"
    },
    {
      "inputs": [
        {
          "internalType": "address",
          "name": "_bridge",
          "type": "address"
        },
        {
          "internalType": "uint256",
          "name": "_cap",
          "type": "uint256"
        }
      ],
      "name": "updateBridgeSupplyCap",
      "outputs": [],
      "stateMutability": "nonpayable",
      "type": "function"
    }
  ],
  "bytecode": "0x6101806040523480156200001257600080fd5b5060405162001ad638038062001ad6833981016040819052620000359162000304565b8282828580604051806040016040528060018152602001603160f81b815250858581600390805190602001906200006e92919062000191565b5080516200008490600490602084019062000191565b5050825160209384012082519284019290922060e08390526101008190524660a0818152604080517f8b73c3c69bb8fe3d512ecc4cf759cc79239f7b179b0ffacaa9a75d522b39400f818901819052818301979097526060810194909452608080850193909352308483018190528151808603909301835260c0948501909152815191909601209052929092526101205250620001239050336200013f565b60ff90811661014052929092166101605250620003c692505050565b600780546001600160a01b038381166001600160a01b0319831681179093556040519116919082907f8be0079c531659141344cd1fd0a4f28419497f9722a3daafe3b4186f6b6457e090600090a35050565b8280546200019f9062000389565b90600052602060002090601f016020900481019282620001c357600085556200020e565b82601f10620001de57805160ff19168380011785556200020e565b828001600101855582156200020e579182015b828111156200020e578251825591602001919060010190620001f1565b506200021c92915062000220565b5090565b5b808211156200021c576000815560010162000221565b634e487b7160e01b600052604160045260246000fd5b600082601f8301126200025f57600080fd5b81516001600160401b03808211156200027c576200027c62000237565b604051601f8301601f19908116603f01168101908282118183101715620002a757620002a762000237565b81604052838152602092508683858801011115620002c457600080fd5b600091505b83821015620002e85785820183015181830184015290820190620002c9565b83821115620002fa5760008385830101525b9695505050505050565b6000806000606084860312156200031a57600080fd5b83516001600160401b03808211156200033257600080fd5b62000340878388016200024d565b945060208601519150808211156200035757600080fd5b5062000366868287016200024d565b925050604084015160ff811681146200037e57600080fd5b809150509250925092565b600181811c908216806200039e57607f821691505b60208210811415620003c057634e487b7160e01b600052602260045260246000fd5b50919050565b60805160a05160c05160e051610100516101205161014051610160516116ad6200042960003960006101bf0152600050506000610d4001526000610d8f01526000610d6a01526000610cc301526000610ced01526000610d1701526116ad6000f3fe608060405234801561001057600080fd5b506004361061014d5760003560e01c806379cc6790116100c3578063a457c2d71161007c578063a457c2d7146102c7578063a9059cbb146102da578063ced67f0c146102ed578063d505accf14610329578063dd62ed3e1461033c578063f2fde38b1461034f57600080fd5b806379cc6790146102685780637ecebe001461027b578063893d20e81461028e5780638da5cb5b146102ae57806395d89b41146102bf5780639dc29fac1461026857600080fd5b80633644e515116101155780633644e515146101e957806339509351146101f157806340c10f191461020457806342966c68146102175780634ce2f71a1461022a57806370a082311461023f57600080fd5b806306fdde0314610152578063095ea7b31461017057806318160ddd1461019357806323b872dd146101a5578063313ce567146101b8575b600080fd5b61015a610362565b6040516101679190611436565b60405180910390f35b61018361017e3660046114a7565b6103f4565b6040519015158152602001610167565b6002545b604051908152602001610167565b6101836101b33660046114d1565b61040c565b60405160ff7f0000000000000000000000000000000000000000000000000000000000000000168152602001610167565b610197610430565b6101836101ff3660046114a7565b61043f565b6101836102123660046114a7565b610461565b61018361022536600461150d565b61052c565b61023d6102383660046114a7565b610540565b005b61019761024d366004611526565b6001600160a01b031660009081526020819052604090205490565b6101836102763660046114a7565b610601565b610197610289366004611526565b610614565b610296610634565b6040516001600160a01b039091168152602001610167565b6007546001600160a01b0316610296565b61015a610648565b6101836102d53660046114a7565b610657565b6101836102e83660046114a7565b6106d2565b6103146102fb366004611526565b6008602052600090815260409020805460019091015482565b60408051928352602083019190915201610167565b61023d610337366004611541565b6106e0565b61019761034a3660046115b4565b610844565b61023d61035d366004611526565b61086f565b606060038054610371906115e7565b80601f016020809104026020016040519081016040528092919081815260200182805461039d906115e7565b80156103ea5780601f106103bf576101008083540402835291602001916103ea565b820191906000526020600020905b8154815290600101906020018083116103cd57829003601f168201915b5050505050905090565b600033610402818585610949565b5060019392505050565b60003361041a858285610a6e565b610425858585610ae8565b506001949350505050565b600061043a610cb6565b905090565b6000336104028185856104528383610844565b61045c9190611632565b610949565b33600090815260086020526040812080546104b45760405162461bcd60e51b815260206004820152600e60248201526d34b73b30b634b21031b0b63632b960911b60448201526064015b60405180910390fd5b828160010160008282546104c89190611632565b90915550508054600182015411156105225760405162461bcd60e51b815260206004820152601960248201527f657863656564732062726964676520737570706c79206361700000000000000060448201526064016104ab565b6104028484610ddd565b60006105383383610ebc565b506001919050565b336105536007546001600160a01b031690565b6001600160a01b0316146105a95760405162461bcd60e51b815260206004820181905260248201527f4f776e61626c653a2063616c6c6572206973206e6f7420746865206f776e657260448201526064016104ab565b6001600160a01b038216600081815260086020908152604091829020849055815192835282018390527f59e1e4348943de408b89af8ab71e502ea722dd41efd1ff4a3548c60e83e91c60910160405180910390a15050565b600061060d8383611002565b9392505050565b6001600160a01b0381166000908152600560205260408120545b92915050565b600061043a6007546001600160a01b031690565b606060048054610371906115e7565b600033816106658286610844565b9050838110156106c55760405162461bcd60e51b815260206004820152602560248201527f45524332303a2064656372656173656420616c6c6f77616e63652062656c6f77604482015264207a65726f60d81b60648201526084016104ab565b6104258286868403610949565b600033610402818585610ae8565b834211156107305760405162461bcd60e51b815260206004820152601d60248201527f45524332305065726d69743a206578706972656420646561646c696e6500000060448201526064016104ab565b60007f6e71edae12b1b97f4d1f60370fef10105fa2faae0126114a169c64845d6126c988888861075f8c61109e565b6040805160208101969096526001600160a01b0394851690860152929091166060840152608083015260a082015260c0810186905260e00160405160208183030381529060405280519060200120905060006107ba826110c6565b905060006107ca82878787611114565b9050896001600160a01b0316816001600160a01b03161461082d5760405162461bcd60e51b815260206004820152601e60248201527f45524332305065726d69743a20696e76616c6964207369676e6174757265000060448201526064016104ab565b6108388a8a8a610949565b50505050505050505050565b6001600160a01b03918216600090815260016020908152604080832093909416825291909152205490565b336108826007546001600160a01b031690565b6001600160a01b0316146108d85760405162461bcd60e51b815260206004820181905260248201527f4f776e61626c653a2063616c6c6572206973206e6f7420746865206f776e657260448201526064016104ab565b6001600160a01b03811661093d5760405162461bcd60e51b815260206004820152602660248201527f4f776e61626c653a206e6577206f776e657220697320746865207a65726f206160448201526564647265737360d01b60648201526084016104ab565b6109468161113c565b50565b6001600160a01b0383166109ab5760405162461bcd60e51b8152602060048201526024808201527f45524332303a20617070726f76652066726f6d20746865207a65726f206164646044820152637265737360e01b60648201526084016104ab565b6001600160a01b038216610a0c5760405162461bcd60e51b815260206004820152602260248201527f45524332303a20617070726f766520746f20746865207a65726f206164647265604482015261737360f01b60648201526084016104ab565b6001600160a01b0383811660008181526001602090815260408083209487168084529482529182902085905590518481527f8c5be1e5ebec7d5bd14f71427d1e84f3dd0314c0f7b2291e5b200ac8c7c3b92591015b60405180910390a3505050565b6000610a7a8484610844565b90506000198114610ae25781811015610ad55760405162461bcd60e51b815260206004820152601d60248201527f45524332303a20696e73756666696369656e7420616c6c6f77616e636500000060448201526064016104ab565b610ae28484848403610949565b50505050565b6001600160a01b038316610b4c5760405162461bcd60e51b815260206004820152602560248201527f45524332303a207472616e736665722066726f6d20746865207a65726f206164604482015264647265737360d81b60648201526084016104ab565b6001600160a01b038216610bae5760405162461bcd60e51b815260206004820152602360248201527f45524332303a207472616e7366657220746f20746865207a65726f206164647260448201526265737360e81b60648201526084016104ab565b6001600160a01b03831660009081526020819052604090205481811015610c265760405162461bcd60e51b815260206004820152602660248201527f45524332303a207472616e7366657220616d6f756e7420657863656564732062604482015265616c616e636560d01b60648201526084016104ab565b6001600160a01b03808516600090815260208190526040808220858503905591851681529081208054849290610c5d908490611632565b92505081905550826001600160a01b0316846001600160a01b03167fddf252ad1be2c89b69c2b068fc378daa952ba7f163c4a11628f55a4df523b3ef84604051610ca991815260200190565b60405180910390a3610ae2565b6000306001600160a01b037f000000000000000000000000000000000000000000000000000000000000000016148015610d0f57507f000000000000000000000000000000000000000000000000000000000000000046145b15610d3957507f000000000000000000000000000000000000000000000000000000000000000090565b50604080517f00000000000000000000000000000000000000000000000000000000000000006020808301919091527f0000000000000000000000000000000000000000000000000000000000000000828401527f000000000000000000000000000000000000000000000000000000000000000060608301524660808301523060a0808401919091528351808403909101815260c0909201909252805191012090565b6001600160a01b038216610e335760405162461bcd60e51b815260206004820152601f60248201527f45524332303a206d696e7420746f20746865207a65726f20616464726573730060448201526064016104ab565b8060026000828254610e459190611632565b90915550506001600160a01b03821660009081526020819052604081208054839290610e72908490611632565b90915550506040518181526001600160a01b038316906000907fddf252ad1be2c89b69c2b068fc378daa952ba7f163c4a11628f55a4df523b3ef9060200160405180910390a35050565b6001600160a01b038216610f1c5760405162461bcd60e51b815260206004820152602160248201527f45524332303a206275726e2066726f6d20746865207a65726f206164647265736044820152607360f81b60648201526084016104ab565b6001600160a01b03821660009081526020819052604090205481811015610f905760405162461bcd60e51b815260206004820152602260248201527f45524332303a206275726e20616d6f756e7420657863656564732062616c616e604482015261636560f01b60648201526084016104ab565b6001600160a01b0383166000908152602081905260408120838303905560028054849290610fbf90849061164a565b90915550506040518281526000906001600160a01b038516907fddf252ad1be2c89b69c2b068fc378daa952ba7f163c4a11628f55a4df523b3ef90602001610a61565b3360009081526008602052604081208054151580611024575060008160010154115b1561108957828160010154101561107d5760405162461bcd60e51b815260206004820152601c60248201527f6578636565647320627269646765206d696e74656420616d6f756e740000000060448201526064016104ab565b60018101805484900390555b611094843385610a6e565b6104028484610ebc565b6001600160a01b03811660009081526005602052604090208054600181018255905b50919050565b600061062e6110d3610cb6565b8360405161190160f01b6020820152602281018390526042810182905260009060620160405160208183030381529060405280519060200120905092915050565b60008060006111258787878761118e565b915091506111328161127b565b5095945050505050565b600780546001600160a01b038381166001600160a01b0319831681179093556040519116919082907f8be0079c531659141344cd1fd0a4f28419497f9722a3daafe3b4186f6b6457e090600090a35050565b6000807f7fffffffffffffffffffffffffffffff5d576e7357a4501ddfe92f46681b20a08311156111c55750600090506003611272565b8460ff16601b141580156111dd57508460ff16601c14155b156111ee5750600090506004611272565b6040805160008082526020820180845289905260ff881692820192909252606081018690526080810185905260019060a0016020604051602081039080840390855afa158015611242573d6000803e3d6000fd5b5050604051601f1901519150506001600160a01b03811661126b57600060019250925050611272565b9150600090505b94509492505050565b600081600481111561128f5761128f611661565b14156112985750565b60018160048111156112ac576112ac611661565b14156112fa5760405162461bcd60e51b815260206004820152601860248201527f45434453413a20696e76616c6964207369676e6174757265000000000000000060448201526064016104ab565b600281600481111561130e5761130e611661565b141561135c5760405162461bcd60e51b815260206004820152601f60248201527f45434453413a20696e76616c6964207369676e6174757265206c656e6774680060448201526064016104ab565b600381600481111561137057611370611661565b14156113c95760405162461bcd60e51b815260206004820152602260248201527f45434453413a20696e76616c6964207369676e6174757265202773272076616c604482015261756560f01b60648201526084016104ab565b60048160048111156113dd576113dd611661565b14156109465760405162461bcd60e51b815260206004820152602260248201527f45434453413a20696e76616c6964207369676e6174757265202776272076616c604482015261756560f01b60648201526084016104ab565b600060208083528351808285015260005b8181101561146357858101830151858201604001528201611447565b81811115611475576000604083870101525b50601f01601f1916929092016040019392505050565b80356001600160a01b03811681146114a257600080fd5b919050565b600080604083850312156114ba57600080fd5b6114c38361148b565b946020939093013593505050565b6000806000606084860312156114e657600080fd5b6114ef8461148b565b92506114fd6020850161148b565b9150604084013590509250925092565b60006020828403121561151f57600080fd5b5035919050565b60006020828403121561153857600080fd5b61060d8261148b565b600080600080600080600060e0888a03121561155c57600080fd5b6115658861148b565b96506115736020890161148b565b95506040880135945060608801359350608088013560ff8116811461159757600080fd5b9699959850939692959460a0840135945060c09093013592915050565b600080604083850312156115c757600080fd5b6115d08361148b565b91506115de6020840161148b565b90509250929050565b600181811c908216806115fb57607f821691505b602082108114156110c057634e487b7160e01b600052602260045260246000fd5b634e487b7160e01b600052601160045260246000fd5b600082198211156116455761164561161c565b500190565b60008282101561165c5761165c61161c565b500390565b634e487b7160e01b600052602160045260246000fdfea2646970667358221220741747a3e23cf75f1b6fecd709e44ba1971f43a3d109b480ec247e2fa10e16b764736f6c63430008090033",
  "linkReferences": {},
  "deployedLinkReferences": {}
}