{
  "_format": "hh-sol-artifact-1",
  "contractName": "RFQ",
  "sourceName": "contracts/cBridge/message/apps/RFQ.sol",
  "abi": [
    {
      "inputs": [
        {
          "internalType": "address",
          "name": "_messageBus",
          "type": "address"
        }
      ],
      "stateMutability": "nonpayable",
      "type": "constructor"
    },
    {
      "anonymous": false,
      "inputs": [
        {
          "indexed": false,
          "internalType": "bytes32",
          "name": "quoteHash",
          "type": "bytes32"
        },
        {
          "indexed": false,
          "internalType": "address",
          "name": "receiver",
          "type": "address"
        },
        {
          "indexed": false,
          "internalType": "address",
          "name": "dstToken",
          "type": "address"
        },
        {
          "indexed": false,
          "internalType": "uint256",
          "name": "amount",
          "type": "uint256"
        }
      ],
      "name": "DstTransferred",
      "type": "event"
    },
    {
      "anonymous": false,
      "inputs": [
        {
          "indexed": false,
          "internalType": "address",
          "name": "treasuryAddr",
          "type": "address"
        },
        {
          "indexed": false,
          "internalType": "address",
          "name": "token",
          "type": "address"
        },
        {
          "indexed": false,
          "internalType": "uint256",
          "name": "amount",
          "type": "uint256"
        }
      ],
      "name": "FeeCollected",
      "type": "event"
    },
    {
      "anonymous": false,
      "inputs": [
        {
          "indexed": false,
          "internalType": "uint64[]",
          "name": "chainIds",
          "type": "uint64[]"
        },
        {
          "indexed": false,
          "internalType": "uint32[]",
          "name": "feePercs",
          "type": "uint32[]"
        }
      ],
      "name": "FeePercUpdated",
      "type": "event"
    },
    {
      "anonymous": false,
      "inputs": [
        {
          "indexed": false,
          "internalType": "address",
          "name": "account",
          "type": "address"
        }
      ],
      "name": "GovernorAdded",
      "type": "event"
    },
    {
      "anonymous": false,
      "inputs": [
        {
          "indexed": false,
          "internalType": "address",
          "name": "account",
          "type": "address"
        }
      ],
      "name": "GovernorRemoved",
      "type": "event"
    },
    {
      "anonymous": false,
      "inputs": [
        {
          "indexed": false,
          "internalType": "address",
          "name": "messageBus",
          "type": "address"
        }
      ],
      "name": "MessageBusUpdated",
      "type": "event"
    },
    {
      "anonymous": false,
      "inputs": [
        {
          "indexed": true,
          "internalType": "address",
          "name": "previousOwner",
          "type": "address"
        },
        {
          "indexed": true,
          "internalType": "address",
          "name": "newOwner",
          "type": "address"
        }
      ],
      "name": "OwnershipTransferred",
      "type": "event"
    },
    {
      "anonymous": false,
      "inputs": [
        {
          "indexed": false,
          "internalType": "address",
          "name": "account",
          "type": "address"
        }
      ],
      "name": "Paused",
      "type": "event"
    },
    {
      "anonymous": false,
      "inputs": [
        {
          "indexed": false,
          "internalType": "address",
          "name": "account",
          "type": "address"
        }
      ],
      "name": "PauserAdded",
      "type": "event"
    },
    {
      "anonymous": false,
      "inputs": [
        {
          "indexed": false,
          "internalType": "address",
          "name": "account",
          "type": "address"
        }
      ],
      "name": "PauserRemoved",
      "type": "event"
    },
    {
      "anonymous": false,
      "inputs": [
        {
          "indexed": false,
          "internalType": "bytes32",
          "name": "quoteHash",
          "type": "bytes32"
        }
      ],
      "name": "RefundInitiated",
      "type": "event"
    },
    {
      "anonymous": false,
      "inputs": [
        {
          "indexed": false,
          "internalType": "bytes32",
          "name": "quoteHash",
          "type": "bytes32"
        },
        {
          "indexed": false,
          "internalType": "address",
          "name": "refundTo",
          "type": "address"
        },
        {
          "indexed": false,
          "internalType": "address",
          "name": "srcToken",
          "type": "address"
        },
        {
          "indexed": false,
          "internalType": "uint256",
          "name": "amount",
          "type": "uint256"
        }
      ],
      "name": "Refunded",
      "type": "event"
    },
    {
      "anonymous": false,
      "inputs": [
        {
          "indexed": false,
          "internalType": "uint64[]",
          "name": "chainIds",
          "type": "uint64[]"
        },
        {
          "indexed": false,
          "internalType": "address[]",
          "name": "remoteRfqContracts",
          "type": "address[]"
        }
      ],
      "name": "RfqContractsUpdated",
      "type": "event"
    },
    {
      "anonymous": false,
      "inputs": [
        {
          "indexed": false,
          "internalType": "bytes32",
          "name": "quoteHash",
          "type": "bytes32"
        },
        {
          "components": [
            {
              "internalType": "uint64",
              "name": "srcChainId",
              "type": "uint64"
            },
            {
              "internalType": "address",
              "name": "srcToken",
              "type": "address"
            },
            {
              "internalType": "uint256",
              "name": "srcAmount",
              "type": "uint256"
            },
            {
              "internalType": "uint256",
              "name": "srcReleaseAmount",
              "type": "uint256"
            },
            {
              "internalType": "uint64",
              "name": "dstChainId",
              "type": "uint64"
            },
            {
              "internalType": "address",
              "name": "dstToken",
              "type": "address"
            },
            {
              "internalType": "uint256",
              "name": "dstAmount",
              "type": "uint256"
            },
            {
              "internalType": "uint64",
              "name": "deadline",
              "type": "uint64"
            },
            {
              "internalType": "uint64",
              "name": "nonce",
              "type": "uint64"
            },
            {
              "internalType": "address",
              "name": "sender",
              "type": "address"
            },
            {
              "internalType": "address",
              "name": "receiver",
              "type": "address"
            },
            {
              "internalType": "address",
              "name": "refundTo",
              "type": "address"
            },
            {
              "internalType": "address",
              "name": "liquidityProvider",
              "type": "address"
            }
          ],
          "indexed": false,
          "internalType": "struct RFQ.Quote",
          "name": "quote",
          "type": "tuple"
        }
      ],
      "name": "SrcDeposited",
      "type": "event"
    },
    {
      "anonymous": false,
      "inputs": [
        {
          "indexed": false,
          "internalType": "bytes32",
          "name": "quoteHash",
          "type": "bytes32"
        },
        {
          "indexed": false,
          "internalType": "address",
          "name": "liquidityProvider",
          "type": "address"
        },
        {
          "indexed": false,
          "internalType": "address",
          "name": "srcToken",
          "type": "address"
        },
        {
          "indexed": false,
          "internalType": "uint256",
          "name": "amount",
          "type": "uint256"
        }
      ],
      "name": "SrcReleased",
      "type": "event"
    },
    {
      "anonymous": false,
      "inputs": [
        {
          "indexed": false,
          "internalType": "address",
          "name": "treasuryAddr",
          "type": "address"
        }
      ],
      "name": "TreasuryAddrUpdated",
      "type": "event"
    },
    {
      "anonymous": false,
      "inputs": [
        {
          "indexed": false,
          "internalType": "address",
          "name": "account",
          "type": "address"
        }
      ],
      "name": "Unpaused",
      "type": "event"
    },
    {
      "inputs": [
        {
          "internalType": "address",
          "name": "_account",
          "type": "address"
        }
      ],
      "name": "addGovernor",
      "outputs": [],
      "stateMutability": "nonpayable",
      "type": "function"
    },
    {
      "inputs": [
        {
          "internalType": "address",
          "name": "account",
          "type": "address"
        }
      ],
      "name": "addPauser",
      "outputs": [],
      "stateMutability": "nonpayable",
      "type": "function"
    },
    {
      "inputs": [
        {
          "internalType": "address",
          "name": "_token",
          "type": "address"
        }
      ],
      "name": "collectFee",
      "outputs": [],
      "stateMutability": "nonpayable",
      "type": "function"
    },
    {
      "inputs": [
        {
          "components": [
            {
              "internalType": "uint64",
              "name": "srcChainId",
              "type": "uint64"
            },
            {
              "internalType": "address",
              "name": "srcToken",
              "type": "address"
            },
            {
              "internalType": "uint256",
              "name": "srcAmount",
              "type": "uint256"
            },
            {
              "internalType": "uint256",
              "name": "srcReleaseAmount",
              "type": "uint256"
            },
            {
              "internalType": "uint64",
              "name": "dstChainId",
              "type": "uint64"
            },
            {
              "internalType": "address",
              "name": "dstToken",
              "type": "address"
            },
            {
              "internalType": "uint256",
              "name": "dstAmount",
              "type": "uint256"
            },
            {
              "internalType": "uint64",
              "name": "deadline",
              "type": "uint64"
            },
            {
              "internalType": "uint64",
              "name": "nonce",
              "type": "uint64"
            },
            {
              "internalType": "address",
              "name": "sender",
              "type": "address"
            },
            {
              "internalType": "address",
              "name": "receiver",
              "type": "address"
            },
            {
              "internalType": "address",
              "name": "refundTo",
              "type": "address"
            },
            {
              "internalType": "address",
              "name": "liquidityProvider",
              "type": "address"
            }
          ],
          "internalType": "struct RFQ.Quote",
          "name": "_quote",
          "type": "tuple"
        }
      ],
      "name": "dstTransfer",
      "outputs": [],
      "stateMutability": "payable",
      "type": "function"
    },
    {
      "inputs": [
        {
          "components": [
            {
              "internalType": "uint64",
              "name": "srcChainId",
              "type": "uint64"
            },
            {
              "internalType": "address",
              "name": "srcToken",
              "type": "address"
            },
            {
              "internalType": "uint256",
              "name": "srcAmount",
              "type": "uint256"
            },
            {
              "internalType": "uint256",
              "name": "srcReleaseAmount",
              "type": "uint256"
            },
            {
              "internalType": "uint64",
              "name": "dstChainId",
              "type": "uint64"
            },
            {
              "internalType": "address",
              "name": "dstToken",
              "type": "address"
            },
            {
              "internalType": "uint256",
              "name": "dstAmount",
              "type": "uint256"
            },
            {
              "internalType": "uint64",
              "name": "deadline",
              "type": "uint64"
            },
            {
              "internalType": "uint64",
              "name": "nonce",
              "type": "uint64"
            },
            {
              "internalType": "address",
              "name": "sender",
              "type": "address"
            },
            {
              "internalType": "address",
              "name": "receiver",
              "type": "address"
            },
            {
              "internalType": "address",
              "name": "refundTo",
              "type": "address"
            },
            {
              "internalType": "address",
              "name": "liquidityProvider",
              "type": "address"
            }
          ],
          "internalType": "struct RFQ.Quote",
          "name": "_quote",
          "type": "tuple"
        }
      ],
      "name": "dstTransferNative",
      "outputs": [],
      "stateMutability": "payable",
      "type": "function"
    },
    {
      "inputs": [
        {
          "internalType": "bytes",
          "name": "_sender",
          "type": "bytes"
        },
        {
          "internalType": "uint64",
          "name": "_srcChainId",
          "type": "uint64"
        },
        {
          "internalType": "bytes",
          "name": "_message",
          "type": "bytes"
        },
        {
          "internalType": "address",
          "name": "_executor",
          "type": "address"
        }
      ],
      "name": "executeMessage",
      "outputs": [
        {
          "internalType": "enum IMessageReceiverApp.ExecutionStatus",
          "name": "",
          "type": "uint8"
        }
      ],
      "stateMutability": "payable",
      "type": "function"
    },
    {
      "inputs": [
        {
          "internalType": "address",
          "name": "_sender",
          "type": "address"
        },
        {
          "internalType": "uint64",
          "name": "_srcChainId",
          "type": "uint64"
        },
        {
          "internalType": "bytes",
          "name": "_message",
          "type": "bytes"
        },
        {
          "internalType": "address",
          "name": "",
          "type": "address"
        }
      ],
      "name": "executeMessage",
      "outputs": [
        {
          "internalType": "enum IMessageReceiverApp.ExecutionStatus",
          "name": "",
          "type": "uint8"
        }
      ],
      "stateMutability": "payable",
      "type": "function"
    },
    {
      "inputs": [
        {
          "internalType": "address",
          "name": "_sender",
          "type": "address"
        },
        {
          "internalType": "address",
          "name": "_token",
          "type": "address"
        },
        {
          "internalType": "uint256",
          "name": "_amount",
          "type": "uint256"
        },
        {
          "internalType": "uint64",
          "name": "_srcChainId",
          "type": "uint64"
        },
        {
          "internalType": "bytes",
          "name": "_message",
          "type": "bytes"
        },
        {
          "internalType": "address",
          "name": "_executor",
          "type": "address"
        }
      ],
      "name": "executeMessageWithTransfer",
      "outputs": [
        {
          "internalType": "enum IMessageReceiverApp.ExecutionStatus",
          "name": "",
          "type": "uint8"
        }
      ],
      "stateMutability": "payable",
      "type": "function"
    },
    {
      "inputs": [
        {
          "internalType": "address",
          "name": "_sender",
          "type": "address"
        },
        {
          "internalType": "address",
          "name": "_token",
          "type": "address"
        },
        {
          "internalType": "uint256",
          "name": "_amount",
          "type": "uint256"
        },
        {
          "internalType": "uint64",
          "name": "_srcChainId",
          "type": "uint64"
        },
        {
          "internalType": "bytes",
          "name": "_message",
          "type": "bytes"
        },
        {
          "internalType": "address",
          "name": "_executor",
          "type": "address"
        }
      ],
      "name": "executeMessageWithTransferFallback",
      "outputs": [
        {
          "internalType": "enum IMessageReceiverApp.ExecutionStatus",
          "name": "",
          "type": "uint8"
        }
      ],
      "stateMutability": "payable",
      "type": "function"
    },
    {
      "inputs": [
        {
          "internalType": "address",
          "name": "_token",
          "type": "address"
        },
        {
          "internalType": "uint256",
          "name": "_amount",
          "type": "uint256"
        },
        {
          "internalType": "bytes",
          "name": "_message",
          "type": "bytes"
        },
        {
          "internalType": "address",
          "name": "_executor",
          "type": "address"
        }
      ],
      "name": "executeMessageWithTransferRefund",
      "outputs": [
        {
          "internalType": "enum IMessageReceiverApp.ExecutionStatus",
          "name": "",
          "type": "uint8"
        }
      ],
      "stateMutability": "payable",
      "type": "function"
    },
    {
      "inputs": [
        {
          "components": [
            {
              "internalType": "uint64",
              "name": "srcChainId",
              "type": "uint64"
            },
            {
              "internalType": "address",
              "name": "srcToken",
              "type": "address"
            },
            {
              "internalType": "uint256",
              "name": "srcAmount",
              "type": "uint256"
            },
            {
              "internalType": "uint256",
              "name": "srcReleaseAmount",
              "type": "uint256"
            },
            {
              "internalType": "uint64",
              "name": "dstChainId",
              "type": "uint64"
            },
            {
              "internalType": "address",
              "name": "dstToken",
              "type": "address"
            },
            {
              "internalType": "uint256",
              "name": "dstAmount",
              "type": "uint256"
            },
            {
              "internalType": "uint64",
              "name": "deadline",
              "type": "uint64"
            },
            {
              "internalType": "uint64",
              "name": "nonce",
              "type": "uint64"
            },
            {
              "internalType": "address",
              "name": "sender",
              "type": "address"
            },
            {
              "internalType": "address",
              "name": "receiver",
              "type": "address"
            },
            {
              "internalType": "address",
              "name": "refundTo",
              "type": "address"
            },
            {
              "internalType": "address",
              "name": "liquidityProvider",
              "type": "address"
            }
          ],
          "internalType": "struct RFQ.Quote",
          "name": "_quote",
          "type": "tuple"
        },
        {
          "internalType": "bytes",
          "name": "_execMsgCallData",
          "type": "bytes"
        }
      ],
      "name": "executeRefund",
      "outputs": [],
      "stateMutability": "nonpayable",
      "type": "function"
    },
    {
      "inputs": [
        {
          "components": [
            {
              "internalType": "uint64",
              "name": "srcChainId",
              "type": "uint64"
            },
            {
              "internalType": "address",
              "name": "srcToken",
              "type": "address"
            },
            {
              "internalType": "uint256",
              "name": "srcAmount",
              "type": "uint256"
            },
            {
              "internalType": "uint256",
              "name": "srcReleaseAmount",
              "type": "uint256"
            },
            {
              "internalType": "uint64",
              "name": "dstChainId",
              "type": "uint64"
            },
            {
              "internalType": "address",
              "name": "dstToken",
              "type": "address"
            },
            {
              "internalType": "uint256",
              "name": "dstAmount",
              "type": "uint256"
            },
            {
              "internalType": "uint64",
              "name": "deadline",
              "type": "uint64"
            },
            {
              "internalType": "uint64",
              "name": "nonce",
              "type": "uint64"
            },
            {
              "internalType": "address",
              "name": "sender",
              "type": "address"
            },
            {
              "internalType": "address",
              "name": "receiver",
              "type": "address"
            },
            {
              "internalType": "address",
              "name": "refundTo",
              "type": "address"
            },
            {
              "internalType": "address",
              "name": "liquidityProvider",
              "type": "address"
            }
          ],
          "internalType": "struct RFQ.Quote",
          "name": "_quote",
          "type": "tuple"
        },
        {
          "internalType": "bytes",
          "name": "_execMsgCallData",
          "type": "bytes"
        }
      ],
      "name": "executeRefundNative",
      "outputs": [],
      "stateMutability": "nonpayable",
      "type": "function"
    },
    {
      "inputs": [],
      "name": "feePercGlobal",
      "outputs": [
        {
          "internalType": "uint32",
          "name": "",
          "type": "uint32"
        }
      ],
      "stateMutability": "view",
      "type": "function"
    },
    {
      "inputs": [
        {
          "internalType": "uint64",
          "name": "",
          "type": "uint64"
        }
      ],
      "name": "feePercOverride",
      "outputs": [
        {
          "internalType": "uint32",
          "name": "",
          "type": "uint32"
        }
      ],
      "stateMutability": "view",
      "type": "function"
    },
    {
      "inputs": [
        {
          "internalType": "bytes",
          "name": "_message",
          "type": "bytes"
        }
      ],
      "name": "getMsgFee",
      "outputs": [
        {
          "internalType": "uint256",
          "name": "",
          "type": "uint256"
        }
      ],
      "stateMutability": "view",
      "type": "function"
    },
    {
      "inputs": [
        {
          "components": [
            {
              "internalType": "uint64",
              "name": "srcChainId",
              "type": "uint64"
            },
            {
              "internalType": "address",
              "name": "srcToken",
              "type": "address"
            },
            {
              "internalType": "uint256",
              "name": "srcAmount",
              "type": "uint256"
            },
            {
              "internalType": "uint256",
              "name": "srcReleaseAmount",
              "type": "uint256"
            },
            {
              "internalType": "uint64",
              "name": "dstChainId",
              "type": "uint64"
            },
            {
              "internalType": "address",
              "name": "dstToken",
              "type": "address"
            },
            {
              "internalType": "uint256",
              "name": "dstAmount",
              "type": "uint256"
            },
            {
              "internalType": "uint64",
              "name": "deadline",
              "type": "uint64"
            },
            {
              "internalType": "uint64",
              "name": "nonce",
              "type": "uint64"
            },
            {
              "internalType": "address",
              "name": "sender",
              "type": "address"
            },
            {
              "internalType": "address",
              "name": "receiver",
              "type": "address"
            },
            {
              "internalType": "address",
              "name": "refundTo",
              "type": "address"
            },
            {
              "internalType": "address",
              "name": "liquidityProvider",
              "type": "address"
            }
          ],
          "internalType": "struct RFQ.Quote",
          "name": "_quote",
          "type": "tuple"
        }
      ],
      "name": "getQuoteHash",
      "outputs": [
        {
          "internalType": "bytes32",
          "name": "",
          "type": "bytes32"
        }
      ],
      "stateMutability": "pure",
      "type": "function"
    },
    {
      "inputs": [
        {
          "internalType": "uint64",
          "name": "_chainId",
          "type": "uint64"
        },
        {
          "internalType": "uint256",
          "name": "_amount",
          "type": "uint256"
        }
      ],
      "name": "getRfqFee",
      "outputs": [
        {
          "internalType": "uint256",
          "name": "",
          "type": "uint256"
        }
      ],
      "stateMutability": "view",
      "type": "function"
    },
    {
      "inputs": [
        {
          "internalType": "address",
          "name": "",
          "type": "address"
        }
      ],
      "name": "governors",
      "outputs": [
        {
          "internalType": "bool",
          "name": "",
          "type": "bool"
        }
      ],
      "stateMutability": "view",
      "type": "function"
    },
    {
      "inputs": [
        {
          "internalType": "address",
          "name": "_account",
          "type": "address"
        }
      ],
      "name": "isGovernor",
      "outputs": [
        {
          "internalType": "bool",
          "name": "",
          "type": "bool"
        }
      ],
      "stateMutability": "view",
      "type": "function"
    },
    {
      "inputs": [
        {
          "internalType": "address",
          "name": "account",
          "type": "address"
        }
      ],
      "name": "isPauser",
      "outputs": [
        {
          "internalType": "bool",
          "name": "",
          "type": "bool"
        }
      ],
      "stateMutability": "view",
      "type": "function"
    },
    {
      "inputs": [],
      "name": "messageBus",
      "outputs": [
        {
          "internalType": "address",
          "name": "",
          "type": "address"
        }
      ],
      "stateMutability": "view",
      "type": "function"
    },
    {
      "inputs": [],
      "name": "nativeWrap",
      "outputs": [
        {
          "internalType": "address",
          "name": "",
          "type": "address"
        }
      ],
      "stateMutability": "view",
      "type": "function"
    },
    {
      "inputs": [],
      "name": "owner",
      "outputs": [
        {
          "internalType": "address",
          "name": "",
          "type": "address"
        }
      ],
      "stateMutability": "view",
      "type": "function"
    },
    {
      "inputs": [],
      "name": "pause",
      "outputs": [],
      "stateMutability": "nonpayable",
      "type": "function"
    },
    {
      "inputs": [],
      "name": "paused",
      "outputs": [
        {
          "internalType": "bool",
          "name": "",
          "type": "bool"
        }
      ],
      "stateMutability": "view",
      "type": "function"
    },
    {
      "inputs": [
        {
          "internalType": "address",
          "name": "",
          "type": "address"
        }
      ],
      "name": "pausers",
      "outputs": [
        {
          "internalType": "bool",
          "name": "",
          "type": "bool"
        }
      ],
      "stateMutability": "view",
      "type": "function"
    },
    {
      "inputs": [
        {
          "internalType": "address",
          "name": "",
          "type": "address"
        }
      ],
      "name": "protocolFee",
      "outputs": [
        {
          "internalType": "uint256",
          "name": "",
          "type": "uint256"
        }
      ],
      "stateMutability": "view",
      "type": "function"
    },
    {
      "inputs": [
        {
          "internalType": "bytes32",
          "name": "",
          "type": "bytes32"
        }
      ],
      "name": "quotes",
      "outputs": [
        {
          "internalType": "enum RFQ.QuoteStatus",
          "name": "",
          "type": "uint8"
        }
      ],
      "stateMutability": "view",
      "type": "function"
    },
    {
      "inputs": [
        {
          "internalType": "uint64",
          "name": "",
          "type": "uint64"
        }
      ],
      "name": "remoteRfqContracts",
      "outputs": [
        {
          "internalType": "address",
          "name": "",
          "type": "address"
        }
      ],
      "stateMutability": "view",
      "type": "function"
    },
    {
      "inputs": [
        {
          "internalType": "address",
          "name": "_account",
          "type": "address"
        }
      ],
      "name": "removeGovernor",
      "outputs": [],
      "stateMutability": "nonpayable",
      "type": "function"
    },
    {
      "inputs": [
        {
          "internalType": "address",
          "name": "account",
          "type": "address"
        }
      ],
      "name": "removePauser",
      "outputs": [],
      "stateMutability": "nonpayable",
      "type": "function"
    },
    {
      "inputs": [],
      "name": "renounceGovernor",
      "outputs": [],
      "stateMutability": "nonpayable",
      "type": "function"
    },
    {
      "inputs": [],
      "name": "renouncePauser",
      "outputs": [],
      "stateMutability": "nonpayable",
      "type": "function"
    },
    {
      "inputs": [
        {
          "components": [
            {
              "internalType": "uint64",
              "name": "srcChainId",
              "type": "uint64"
            },
            {
              "internalType": "address",
              "name": "srcToken",
              "type": "address"
            },
            {
              "internalType": "uint256",
              "name": "srcAmount",
              "type": "uint256"
            },
            {
              "internalType": "uint256",
              "name": "srcReleaseAmount",
              "type": "uint256"
            },
            {
              "internalType": "uint64",
              "name": "dstChainId",
              "type": "uint64"
            },
            {
              "internalType": "address",
              "name": "dstToken",
              "type": "address"
            },
            {
              "internalType": "uint256",
              "name": "dstAmount",
              "type": "uint256"
            },
            {
              "internalType": "uint64",
              "name": "deadline",
              "type": "uint64"
            },
            {
              "internalType": "uint64",
              "name": "nonce",
              "type": "uint64"
            },
            {
              "internalType": "address",
              "name": "sender",
              "type": "address"
            },
            {
              "internalType": "address",
              "name": "receiver",
              "type": "address"
            },
            {
              "internalType": "address",
              "name": "refundTo",
              "type": "address"
            },
            {
              "internalType": "address",
              "name": "liquidityProvider",
              "type": "address"
            }
          ],
          "internalType": "struct RFQ.Quote",
          "name": "_quote",
          "type": "tuple"
        }
      ],
      "name": "requestRefund",
      "outputs": [],
      "stateMutability": "payable",
      "type": "function"
    },
    {
      "inputs": [
        {
          "components": [
            {
              "internalType": "uint64",
              "name": "srcChainId",
              "type": "uint64"
            },
            {
              "internalType": "address",
              "name": "srcToken",
              "type": "address"
            },
            {
              "internalType": "uint256",
              "name": "srcAmount",
              "type": "uint256"
            },
            {
              "internalType": "uint256",
              "name": "srcReleaseAmount",
              "type": "uint256"
            },
            {
              "internalType": "uint64",
              "name": "dstChainId",
              "type": "uint64"
            },
            {
              "internalType": "address",
              "name": "dstToken",
              "type": "address"
            },
            {
              "internalType": "uint256",
              "name": "dstAmount",
              "type": "uint256"
            },
            {
              "internalType": "uint64",
              "name": "deadline",
              "type": "uint64"
            },
            {
              "internalType": "uint64",
              "name": "nonce",
              "type": "uint64"
            },
            {
              "internalType": "address",
              "name": "sender",
              "type": "address"
            },
            {
              "internalType": "address",
              "name": "receiver",
              "type": "address"
            },
            {
              "internalType": "address",
              "name": "refundTo",
              "type": "address"
            },
            {
              "internalType": "address",
              "name": "liquidityProvider",
              "type": "address"
            }
          ],
          "internalType": "struct RFQ.Quote",
          "name": "_quote",
          "type": "tuple"
        },
        {
          "internalType": "bool",
          "name": "_releaseNative",
          "type": "bool"
        }
      ],
      "name": "sameChainTransfer",
      "outputs": [],
      "stateMutability": "payable",
      "type": "function"
    },
    {
      "inputs": [
        {
          "components": [
            {
              "internalType": "uint64",
              "name": "srcChainId",
              "type": "uint64"
            },
            {
              "internalType": "address",
              "name": "srcToken",
              "type": "address"
            },
            {
              "internalType": "uint256",
              "name": "srcAmount",
              "type": "uint256"
            },
            {
              "internalType": "uint256",
              "name": "srcReleaseAmount",
              "type": "uint256"
            },
            {
              "internalType": "uint64",
              "name": "dstChainId",
              "type": "uint64"
            },
            {
              "internalType": "address",
              "name": "dstToken",
              "type": "address"
            },
            {
              "internalType": "uint256",
              "name": "dstAmount",
              "type": "uint256"
            },
            {
              "internalType": "uint64",
              "name": "deadline",
              "type": "uint64"
            },
            {
              "internalType": "uint64",
              "name": "nonce",
              "type": "uint64"
            },
            {
              "internalType": "address",
              "name": "sender",
              "type": "address"
            },
            {
              "internalType": "address",
              "name": "receiver",
              "type": "address"
            },
            {
              "internalType": "address",
              "name": "refundTo",
              "type": "address"
            },
            {
              "internalType": "address",
              "name": "liquidityProvider",
              "type": "address"
            }
          ],
          "internalType": "struct RFQ.Quote",
          "name": "_quote",
          "type": "tuple"
        },
        {
          "internalType": "bool",
          "name": "_releaseNative",
          "type": "bool"
        }
      ],
      "name": "sameChainTransferNative",
      "outputs": [],
      "stateMutability": "payable",
      "type": "function"
    },
    {
      "inputs": [
        {
          "internalType": "uint64[]",
          "name": "_chainIds",
          "type": "uint64[]"
        },
        {
          "internalType": "uint32[]",
          "name": "_feePercs",
          "type": "uint32[]"
        }
      ],
      "name": "setFeePerc",
      "outputs": [],
      "stateMutability": "nonpayable",
      "type": "function"
    },
    {
      "inputs": [
        {
          "internalType": "address",
          "name": "_messageBus",
          "type": "address"
        }
      ],
      "name": "setMessageBus",
      "outputs": [],
      "stateMutability": "nonpayable",
      "type": "function"
    },
    {
      "inputs": [
        {
          "internalType": "address",
          "name": "_nativeWrap",
          "type": "address"
        }
      ],
      "name": "setNativeWrap",
      "outputs": [],
      "stateMutability": "nonpayable",
      "type": "function"
    },
    {
      "inputs": [
        {
          "internalType": "uint64[]",
          "name": "_chainIds",
          "type": "uint64[]"
        },
        {
          "internalType": "address[]",
          "name": "_remoteRfqContracts",
          "type": "address[]"
        }
      ],
      "name": "setRemoteRfqContracts",
      "outputs": [],
      "stateMutability": "nonpayable",
      "type": "function"
    },
    {
      "inputs": [
        {
          "internalType": "address",
          "name": "_treasuryAddr",
          "type": "address"
        }
      ],
      "name": "setTreasuryAddr",
      "outputs": [],
      "stateMutability": "nonpayable",
      "type": "function"
    },
    {
      "inputs": [
        {
          "components": [
            {
              "internalType": "uint64",
              "name": "srcChainId",
              "type": "uint64"
            },
            {
              "internalType": "address",
              "name": "srcToken",
              "type": "address"
            },
            {
              "internalType": "uint256",
              "name": "srcAmount",
              "type": "uint256"
            },
            {
              "internalType": "uint256",
              "name": "srcReleaseAmount",
              "type": "uint256"
            },
            {
              "internalType": "uint64",
              "name": "dstChainId",
              "type": "uint64"
            },
            {
              "internalType": "address",
              "name": "dstToken",
              "type": "address"
            },
            {
              "internalType": "uint256",
              "name": "dstAmount",
              "type": "uint256"
            },
            {
              "internalType": "uint64",
              "name": "deadline",
              "type": "uint64"
            },
            {
              "internalType": "uint64",
              "name": "nonce",
              "type": "uint64"
            },
            {
              "internalType": "address",
              "name": "sender",
              "type": "address"
            },
            {
              "internalType": "address",
              "name": "receiver",
              "type": "address"
            },
            {
              "internalType": "address",
              "name": "refundTo",
              "type": "address"
            },
            {
              "internalType": "address",
              "name": "liquidityProvider",
              "type": "address"
            }
          ],
          "internalType": "struct RFQ.Quote",
          "name": "_quote",
          "type": "tuple"
        },
        {
          "internalType": "uint64",
          "name": "_submissionDeadline",
          "type": "uint64"
        }
      ],
      "name": "srcDeposit",
      "outputs": [
        {
          "internalType": "bytes32",
          "name": "",
          "type": "bytes32"
        }
      ],
      "stateMutability": "payable",
      "type": "function"
    },
    {
      "inputs": [
        {
          "components": [
            {
              "internalType": "uint64",
              "name": "srcChainId",
              "type": "uint64"
            },
            {
              "internalType": "address",
              "name": "srcToken",
              "type": "address"
            },
            {
              "internalType": "uint256",
              "name": "srcAmount",
              "type": "uint256"
            },
            {
              "internalType": "uint256",
              "name": "srcReleaseAmount",
              "type": "uint256"
            },
            {
              "internalType": "uint64",
              "name": "dstChainId",
              "type": "uint64"
            },
            {
              "internalType": "address",
              "name": "dstToken",
              "type": "address"
            },
            {
              "internalType": "uint256",
              "name": "dstAmount",
              "type": "uint256"
            },
            {
              "internalType": "uint64",
              "name": "deadline",
              "type": "uint64"
            },
            {
              "internalType": "uint64",
              "name": "nonce",
              "type": "uint64"
            },
            {
              "internalType": "address",
              "name": "sender",
              "type": "address"
            },
            {
              "internalType": "address",
              "name": "receiver",
              "type": "address"
            },
            {
              "internalType": "address",
              "name": "refundTo",
              "type": "address"
            },
            {
              "internalType": "address",
              "name": "liquidityProvider",
              "type": "address"
            }
          ],
          "internalType": "struct RFQ.Quote",
          "name": "_quote",
          "type": "tuple"
        },
        {
          "internalType": "uint64",
          "name": "_submissionDeadline",
          "type": "uint64"
        }
      ],
      "name": "srcDepositNative",
      "outputs": [
        {
          "internalType": "bytes32",
          "name": "",
          "type": "bytes32"
        }
      ],
      "stateMutability": "payable",
      "type": "function"
    },
    {
      "inputs": [
        {
          "components": [
            {
              "internalType": "uint64",
              "name": "srcChainId",
              "type": "uint64"
            },
            {
              "internalType": "address",
              "name": "srcToken",
              "type": "address"
            },
            {
              "internalType": "uint256",
              "name": "srcAmount",
              "type": "uint256"
            },
            {
              "internalType": "uint256",
              "name": "srcReleaseAmount",
              "type": "uint256"
            },
            {
              "internalType": "uint64",
              "name": "dstChainId",
              "type": "uint64"
            },
            {
              "internalType": "address",
              "name": "dstToken",
              "type": "address"
            },
            {
              "internalType": "uint256",
              "name": "dstAmount",
              "type": "uint256"
            },
            {
              "internalType": "uint64",
              "name": "deadline",
              "type": "uint64"
            },
            {
              "internalType": "uint64",
              "name": "nonce",
              "type": "uint64"
            },
            {
              "internalType": "address",
              "name": "sender",
              "type": "address"
            },
            {
              "internalType": "address",
              "name": "receiver",
              "type": "address"
            },
            {
              "internalType": "address",
              "name": "refundTo",
              "type": "address"
            },
            {
              "internalType": "address",
              "name": "liquidityProvider",
              "type": "address"
            }
          ],
          "internalType": "struct RFQ.Quote",
          "name": "_quote",
          "type": "tuple"
        },
        {
          "internalType": "bytes",
          "name": "_execMsgCallData",
          "type": "bytes"
        }
      ],
      "name": "srcRelease",
      "outputs": [],
      "stateMutability": "nonpayable",
      "type": "function"
    },
    {
      "inputs": [
        {
          "components": [
            {
              "internalType": "uint64",
              "name": "srcChainId",
              "type": "uint64"
            },
            {
              "internalType": "address",
              "name": "srcToken",
              "type": "address"
            },
            {
              "internalType": "uint256",
              "name": "srcAmount",
              "type": "uint256"
            },
            {
              "internalType": "uint256",
              "name": "srcReleaseAmount",
              "type": "uint256"
            },
            {
              "internalType": "uint64",
              "name": "dstChainId",
              "type": "uint64"
            },
            {
              "internalType": "address",
              "name": "dstToken",
              "type": "address"
            },
            {
              "internalType": "uint256",
              "name": "dstAmount",
              "type": "uint256"
            },
            {
              "internalType": "uint64",
              "name": "deadline",
              "type": "uint64"
            },
            {
              "internalType": "uint64",
              "name": "nonce",
              "type": "uint64"
            },
            {
              "internalType": "address",
              "name": "sender",
              "type": "address"
            },
            {
              "internalType": "address",
              "name": "receiver",
              "type": "address"
            },
            {
              "internalType": "address",
              "name": "refundTo",
              "type": "address"
            },
            {
              "internalType": "address",
              "name": "liquidityProvider",
              "type": "address"
            }
          ],
          "internalType": "struct RFQ.Quote",
          "name": "_quote",
          "type": "tuple"
        },
        {
          "internalType": "bytes",
          "name": "_execMsgCallData",
          "type": "bytes"
        }
      ],
      "name": "srcReleaseNative",
      "outputs": [],
      "stateMutability": "nonpayable",
      "type": "function"
    },
    {
      "inputs": [
        {
          "internalType": "address",
          "name": "newOwner",
          "type": "address"
        }
      ],
      "name": "transferOwnership",
      "outputs": [],
      "stateMutability": "nonpayable",
      "type": "function"
    },
    {
      "inputs": [],
      "name": "treasuryAddr",
      "outputs": [
        {
          "internalType": "address",
          "name": "",
          "type": "address"
        }
      ],
      "stateMutability": "view",
      "type": "function"
    },
    {
      "inputs": [
        {
          "internalType": "bytes32",
          "name": "",
          "type": "bytes32"
        }
      ],
      "name": "unconsumedMsg",
      "outputs": [
        {
          "internalType": "bool",
          "name": "",
          "type": "bool"
        }
      ],
      "stateMutability": "view",
      "type": "function"
    },
    {
      "inputs": [],
      "name": "unpause",
      "outputs": [],
      "stateMutability": "nonpayable",
      "type": "function"
    },
    {
      "stateMutability": "payable",
      "type": "receive"
    }
  ],
  "bytecode": "0x60806040523480156200001157600080fd5b50604051620043c9380380620043c9833981016040819052620000349162000262565b6200003f3362000088565b6001805460ff60a01b191690556200005733620000d8565b6200006233620001a2565b600180546001600160a01b0319166001600160a01b039290921691909117905562000294565b600080546001600160a01b038381166001600160a01b0319831681178455604051919092169283917f8be0079c531659141344cd1fd0a4f28419497f9722a3daafe3b4186f6b6457e09190a35050565b6001600160a01b03811660009081526002602052604090205460ff1615620001475760405162461bcd60e51b815260206004820152601960248201527f4163636f756e7420697320616c7265616479207061757365720000000000000060448201526064015b60405180910390fd5b6001600160a01b038116600081815260026020908152604091829020805460ff1916600117905590519182527f6719d08c1888103bea251a4ed56406bd0c3e69723c8a1686e017e7bbe159b6f891015b60405180910390a150565b6001600160a01b03811660009081526003602052604090205460ff16156200020d5760405162461bcd60e51b815260206004820152601b60248201527f4163636f756e7420697320616c726561647920676f7665726e6f72000000000060448201526064016200013e565b6001600160a01b038116600081815260036020908152604091829020805460ff1916600117905590519182527fdc5a48d79e2e147530ff63ecdbed5a5a66adb9d5cf339384d5d076da197c40b5910162000197565b6000602082840312156200027557600080fd5b81516001600160a01b03811681146200028d57600080fd5b9392505050565b61412580620002a46000396000f3fe6080604052600436106102b25760003560e01c806380f51c1211610175578063c78e33a2116100dc578063e3eece2611610095578063eecdac881161006f578063eecdac8814610883578063f2fde38b146108a3578063f8b839e5146108c3578063fbe42fea146108e357600080fd5b8063e3eece2614610807578063e43581b814610837578063ed9830bb1461087057600080fd5b8063c78e33a214610739578063cbac44df1461074c578063cc47e4001461076c578063d1ce8b45146107a2578063df1f64ef146107c2578063e026049c146107f257600080fd5b8063a2bdb8991161012e578063a2bdb89914610679578063a5ea10cb14610699578063a7e05b9c146106ac578063ab9341fd146106cc578063af4ab138146106ec578063b62b31e41461070c57600080fd5b806380f51c12146105c357806382dc1ec4146105f35780638456cb59146106135780638da5cb5b146106285780639c649fdf14610646578063a1a227fa1461065957600080fd5b806346fbf68e116102195780636609870d116101d25780636609870d1461053b57806369b59e751461055b5780636b2c0f551461057b5780636ef8d66d1461059b57806379c7efd3146105b05780637cd2bffc146104e957600080fd5b806346fbf68e14610479578063547cad12146104a957806355e9e3d2146104c95780635ab7afc6146104e95780635b5a66a7146104fc5780635c975abb1461051c57600080fd5b806325329eaf1161026b57806325329eaf1461037c57806330d9a62a146103b95780633c4a25d0146103f15780633e07d172146104115780633f4ba83a14610444578063457bfa2f1461045957600080fd5b8063063ce4e5146102be5780630a54aacd146102e75780630bcb4982146103085780630bd930b41461031b5780631000cd9e146103545780631e9c57481461036957600080fd5b366102b957005b600080fd5b6102d16102cc366004613536565b610903565b6040516102de91906135ee565b60405180910390f35b6102fa6102f536600461361a565b610943565b6040519081526020016102de565b6102d1610316366004613650565b610a99565b34801561032757600080fd5b5060085461033f90600160a01b900463ffffffff1681565b60405163ffffffff90911681526020016102de565b6103676103623660046136be565b610acf565b005b6103676103773660046136e9565b610cab565b34801561038857600080fd5b506103ac610397366004613723565b60076020526000908152604090205460ff1681565b6040516102de919061373c565b3480156103c557600080fd5b506008546103d9906001600160a01b031681565b6040516001600160a01b0390911681526020016102de565b3480156103fd57600080fd5b5061036761040c366004613750565b610e91565b34801561041d57600080fd5b5061033f61042c36600461376b565b60096020526000908152604090205463ffffffff1681565b34801561045057600080fd5b50610367610ed6565b34801561046557600080fd5b506004546103d9906001600160a01b031681565b34801561048557600080fd5b50610499610494366004613750565b610f2c565b60405190151581526020016102de565b3480156104b557600080fd5b506103676104c4366004613750565b610f4a565b3480156104d557600080fd5b506102fa6104e4366004613786565b610fd8565b6102d16104f73660046137c7565b611062565b34801561050857600080fd5b50610367610517366004613750565b61109a565b34801561052857600080fd5b50600154600160a01b900460ff16610499565b34801561054757600080fd5b50610367610556366004613856565b6110f5565b34801561056757600080fd5b50610367610576366004613750565b6111e1565b34801561058757600080fd5b50610367610596366004613750565b6112ba565b3480156105a757600080fd5b506103676112fc565b6103676105be3660046136be565b611305565b3480156105cf57600080fd5b506104996105de366004613750565b60026020526000908152604090205460ff1681565b3480156105ff57600080fd5b5061036761060e366004613750565b611556565b34801561061f57600080fd5b50610367611598565b34801561063457600080fd5b506000546001600160a01b03166103d9565b6102d16106543660046138ab565b6115ec565b34801561066557600080fd5b506001546103d9906001600160a01b031681565b34801561068557600080fd5b50610367610694366004613856565b6116dc565b6103676106a73660046136be565b611705565b3480156106b857600080fd5b506103676106c7366004613750565b6117c9565b3480156106d857600080fd5b506103676106e7366004613939565b611850565b3480156106f857600080fd5b50610367610707366004613856565b611ac3565b34801561071857600080fd5b506102fa610727366004613750565b600a6020526000908152604090205481565b6103676107473660046136e9565b611b28565b34801561075857600080fd5b50610367610767366004613939565b611bdf565b34801561077857600080fd5b506103d961078736600461376b565b6005602052600090815260409020546001600160a01b031681565b3480156107ae57600080fd5b506102fa6107bd3660046136be565b611d3a565b3480156107ce57600080fd5b506104996107dd366004613723565b60066020526000908152604090205460ff1681565b3480156107fe57600080fd5b50610367611e2e565b34801561081357600080fd5b50610499610822366004613750565b60036020526000908152604090205460ff1681565b34801561084357600080fd5b50610499610852366004613750565b6001600160a01b031660009081526003602052604090205460ff1690565b6102fa61087e36600461361a565b611e37565b34801561088f57600080fd5b5061036761089e366004613750565b611e69565b3480156108af57600080fd5b506103676108be366004613750565b611eab565b3480156108cf57600080fd5b506103676108de366004613856565b611f52565b3480156108ef57600080fd5b506102fa6108fe3660046139a4565b611fb5565b6001546000906001600160a01b031633146109395760405162461bcd60e51b8152600401610930906139ce565b60405180910390fd5b9695505050505050565b600061094d612011565b6004546001600160a01b03166109755760405162461bcd60e51b815260040161093090613a05565b6004546001600160a01b03166109916040850160208601613750565b6001600160a01b0316146109b75760405162461bcd60e51b815260040161093090613a3c565b8260400135341015610a065760405162461bcd60e51b815260206004820152601860248201527714999c4e881a5b9cdd59999a58da595b9d08185b5bdd5b9d60421b6044820152606401610930565b6000610a208484610a1b604083013534613a89565b61205e565b9050600460009054906101000a90046001600160a01b03166001600160a01b031663d0e30db085604001356040518263ffffffff1660e01b81526004016000604051808303818588803b158015610a7657600080fd5b505af1158015610a8a573d6000803e3d6000fd5b50939450505050505b92915050565b6001546000906001600160a01b03163314610ac65760405162461bcd60e51b8152600401610930906139ce565b95945050505050565b610ad7612011565b6004546001600160a01b0316610af360c0830160a08401613750565b6001600160a01b031614610b435760405162461bcd60e51b81526020600482015260176024820152760a4cce27440c8e6e840e8ded6cadc40dad2e6dac2e8c6d604b1b6044820152606401610930565b8060c00135341015610b925760405162461bcd60e51b815260206004820152601860248201527714999c4e881a5b9cdd59999a58da595b9d08185b5bdd5b9d60421b6044820152606401610930565b600080610b9e836124ab565b6000828152600760209081526040808320805460ff191660081790555193955091935091610bd191859160019101613aa0565b60408051601f198184030181528282528051602091820120908301520160408051601f198184030181529190529050610c2582610c11602087018761376b565b83610c2060c089013534613a89565b612741565b610c44610c3a61016086016101408701613750565b8560c0013561275d565b7fb97bb040c4582b3252c1079bcea2a781f656ef09ceb53be48b2d615c61198bc583610c7861016087016101408801613750565b610c8860c0880160a08901613750565b8760c00135604051610c9d9493929190613abf565b60405180910390a150505050565b610cb3612011565b610cc360a083016080840161376b565b6001600160401b0316610cd9602084018461376b565b6001600160401b031614610d2a5760405162461bcd60e51b815260206004820152601860248201527705266713a206e6f742073616d6520636861696e20737761760441b6044820152606401610930565b6004546001600160a01b0316610d4660c0840160a08501613750565b6001600160a01b031614610d965760405162461bcd60e51b81526020600482015260176024820152760a4cce27440c8e6e840e8ded6cadc40dad2e6dac2e8c6d604b1b6044820152606401610930565b8160c001353414610df35760405162461bcd60e51b815260206004820152602160248201527f5266713a206e617469766520746f6b656e20616d6f756e74206d69736d6174636044820152600d60fb1b6064820152608401610930565b6000610dfe836124ab565b509050610e20610e1661016085016101408601613750565b8460c0013561275d565b610e2b83828461283e565b7fb97bb040c4582b3252c1079bcea2a781f656ef09ceb53be48b2d615c61198bc581610e5f61016086016101408701613750565b610e6f60c0870160a08801613750565b8660c00135604051610e849493929190613abf565b60405180910390a1505050565b33610ea46000546001600160a01b031690565b6001600160a01b031614610eca5760405162461bcd60e51b815260040161093090613ae4565b610ed381612977565b50565b610edf33610f2c565b610f225760405162461bcd60e51b815260206004820152601460248201527321b0b63632b91034b9903737ba103830bab9b2b960611b6044820152606401610930565b610f2a612a34565b565b6001600160a01b031660009081526002602052604090205460ff1690565b33610f5d6000546001600160a01b031690565b6001600160a01b031614610f835760405162461bcd60e51b815260040161093090613ae4565b600180546001600160a01b0319166001600160a01b0383169081179091556040519081527f3f8223bcd8b3b875473e9f9e14e1ad075451a2b5ffd31591655da9a01516bf5e906020015b60405180910390a150565b60015460405163299aee5160e11b81526000916001600160a01b031690635335dca29061100b9086908690600401613b19565b60206040518083038186803b15801561102357600080fd5b505afa158015611037573d6000803e3d6000fd5b505050506040513d601f19601f8201168201806040525081019061105b9190613b48565b9392505050565b6001546000906001600160a01b0316331461108f5760405162461bcd60e51b8152600401610930906139ce565b979650505050505050565b336110ad6000546001600160a01b031690565b6001600160a01b0316146110d35760405162461bcd60e51b815260040161093090613ae4565b600480546001600160a01b0319166001600160a01b0392909216919091179055565b6110fd612011565b6004546001600160a01b03166111196040850160208601613750565b6001600160a01b03161461113f5760405162461bcd60e51b815260040161093090613a3c565b60008061114d858585612a89565b6000828152600760205260409020805460ff19166005179055909250905061118a61118061016087016101408801613750565b8660400135612bdf565b7f2e0668a62a5f556368dca9c7113e20f2852c05155548243804bf714ce72b25a682826111bd6040890160208a01613750565b88604001356040516111d29493929190613abf565b60405180910390a15050505050565b6008546001600160a01b03166112395760405162461bcd60e51b815260206004820152601d60248201527f5266713a2074726561737572792061646472657373206e6f74207365740000006044820152606401610930565b6001600160a01b038082166000818152600a602052604081208054919055600854909261126892911683612d17565b600854604080516001600160a01b039283168152918416602083015281018290527ff228de527fc1b9843baac03b9a04565473a263375950e63435d4138464386f469060600160405180910390a15050565b336112cd6000546001600160a01b031690565b6001600160a01b0316146112f35760405162461bcd60e51b815260040161093090613ae4565b610ed381612d7a565b610f2a33612d7a565b61130d612011565b4261131f610100830160e0840161376b565b6001600160401b0316106113455760405162461bcd60e51b815260040161093090613b61565b6001600160401b03461661135f60a083016080840161376b565b6001600160401b0316146113b15760405162461bcd60e51b81526020600482015260196024820152780a4cce27440c8e6e840c6d0c2d2dc92c840dad2e6dac2e8c6d603b1b6044820152606401610930565b60006005816113c3602085018561376b565b6001600160401b031681526020810191909152604001600020546001600160a01b03169050806114355760405162461bcd60e51b815260206004820152601d60248201527f5266713a207372632072667120636f6e7472616374206e6f74207365740000006044820152606401610930565b600061144083611d3a565b90506000808281526007602052604090205460ff166008811115611466576114666135c8565b146114b35760405162461bcd60e51b815260206004820152601b60248201527f5266713a2071756f746520616c726561647920657865637574656400000000006044820152606401610930565b6000818152600760209081526040808320805460ff19166006179055516114df91849160029101613aa0565b60408051601f198184030181528282528051602091820120908301520160408051601f1981840301815291905290506115268361151f602087018761376b565b8334612741565b6040518281527f7cdd4403cff3a09d96c1ffe4ad1cc5c195e9053463a55edfc2944644ec02211890602001610c9d565b336115696000546001600160a01b031690565b6001600160a01b03161461158f5760405162461bcd60e51b815260040161093090613ae4565b610ed381612e18565b6115a133610f2c565b6115e45760405162461bcd60e51b815260206004820152601460248201527321b0b63632b91034b9903737ba103830bab9b2b960611b6044820152606401610930565b610f2a612ec2565b6001546000906001600160a01b031633146116195760405162461bcd60e51b8152600401610930906139ce565b602083146116695760405162461bcd60e51b815260206004820152601d60248201527f5266713a20696e636f7272656374206d657373616765206c656e6774680000006044820152606401610930565b6001600160401b0385166000908152600560205260409020546001600160a01b0390811690871681146116a0576002915050610ac6565b6001600660006116b08789613ba2565b81526020810191909152604001600020805460ff19169115159190911790555060019695505050505050565b6116e4612011565b60006116f1848484612f05565b90506116ff8482600061283e565b50505050565b61170d612011565b600080611719836124ab565b6000828152600760208181526040808420805460ff191690931790925590519395509193509161174e91859160019101613aa0565b60408051601f198184030181528282528051602091820120908301520160408051601f19818403018152919052905061178e8261151f602087018761376b565b610c44336117a461016087016101408801613750565b60c087018035906117b89060a08a01613750565b6001600160a01b0316929190612f8e565b336117dc6000546001600160a01b031690565b6001600160a01b0316146118025760405162461bcd60e51b815260040161093090613ae4565b600880546001600160a01b0319166001600160a01b0383169081179091556040519081527fb17659014001857e7557191ad74dc9e967b181eaed0895975325e3848debbc4290602001610fcd565b3360009081526003602052604090205460ff166118a85760405162461bcd60e51b815260206004820152601660248201527521b0b63632b91034b9903737ba1033b7bb32b93737b960511b6044820152606401610930565b8281146118ee5760405162461bcd60e51b81526020600482015260146024820152730a4cce27440d8cadccee8d040dad2e6dac2e8c6d60631b6044820152606401610930565b60005b83811015611a8d57620f424083838381811061190f5761190f613bc0565b90506020020160208101906119249190613bea565b63ffffffff16106119775760405162461bcd60e51b815260206004820152601d60248201527f5266713a206665652070657263656e7461676520746f6f206c617267650000006044820152606401610930565b84848281811061198957611989613bc0565b905060200201602081019061199e919061376b565b6001600160401b03166119f7578282828181106119bd576119bd613bc0565b90506020020160208101906119d29190613bea565b600860146101000a81548163ffffffff021916908363ffffffff160217905550611a7b565b828282818110611a0957611a09613bc0565b9050602002016020810190611a1e9190613bea565b60096000878785818110611a3457611a34613bc0565b9050602002016020810190611a49919061376b565b6001600160401b031681526020810191909152604001600020805463ffffffff191663ffffffff929092169190911790555b80611a8581613c05565b9150506118f1565b507f541df5e570cf10ffe04899eebd9eebebd1c54e2bd4af9f24b23fb4a40c6ea00b84848484604051610c9d9493929190613c67565b611acb612011565b6004546001600160a01b0316611ae76040850160208601613750565b6001600160a01b031614611b0d5760405162461bcd60e51b815260040161093090613a3c565b6000611b1a848484612f05565b90506116ff8482600161283e565b611b30612011565b611b4060a083016080840161376b565b6001600160401b0316611b56602084018461376b565b6001600160401b031614611ba75760405162461bcd60e51b815260206004820152601860248201527705266713a206e6f742073616d6520636861696e20737761760441b6044820152606401610930565b6000611bb2836124ab565b509050610e2033611bcb61016086016101408701613750565b60c086018035906117b89060a08901613750565b33611bf26000546001600160a01b031690565b6001600160a01b031614611c185760405162461bcd60e51b815260040161093090613ae4565b828114611c5e5760405162461bcd60e51b81526020600482015260146024820152730a4cce27440d8cadccee8d040dad2e6dac2e8c6d60631b6044820152606401610930565b60005b83811015611d0457828282818110611c7b57611c7b613bc0565b9050602002016020810190611c909190613750565b60056000878785818110611ca657611ca6613bc0565b9050602002016020810190611cbb919061376b565b6001600160401b03168152602081019190915260400160002080546001600160a01b0319166001600160a01b039290921691909117905580611cfc81613c05565b915050611c61565b507fb4739c640c5970d8ce88b6c31f3706099efca660e282d47b0a267a0bb572d8b784848484604051610c9d9493929190613cc7565b6000611d49602083018361376b565b611d596040840160208501613750565b60408401356060850135611d7360a087016080880161376b565b611d8360c0880160a08901613750565b60c0880135611d996101008a0160e08b0161376b565b611dab6101208b016101008c0161376b565b611dbd6101408c016101208d01613750565b611dcf6101608d016101408e01613750565b611de16101808e016101608f01613750565b8d610180016020810190611df59190613750565b604051602001611e119d9c9b9a99989796959493929190613d1d565b604051602081830303815290604052805190602001209050919050565b610f2a33612fc6565b6000611e41612011565b6000611e4e84843461205e565b905061105b3330604087018035906117b89060208a01613750565b33611e7c6000546001600160a01b031690565b6001600160a01b031614611ea25760405162461bcd60e51b815260040161093090613ae4565b610ed381612fc6565b33611ebe6000546001600160a01b031690565b6001600160a01b031614611ee45760405162461bcd60e51b815260040161093090613ae4565b6001600160a01b038116611f495760405162461bcd60e51b815260206004820152602660248201527f4f776e61626c653a206e6577206f776e657220697320746865207a65726f206160448201526564647265737360d01b6064820152608401610930565b610ed38161307f565b611f5a612011565b600080611f68858585612a89565b6000828152600760205260409020805492945090925060049160ff1916600183021790555061118a8160408701803590611fa59060208a01613750565b6001600160a01b03169190612d17565b6001600160401b03821660009081526009602052604081205463ffffffff1680611feb5750600854600160a01b900463ffffffff165b620f4240611fff63ffffffff831685613e35565b6120099190613e54565b949350505050565b600154600160a01b900460ff1615610f2a5760405162461bcd60e51b815260206004820152601060248201526f14185d5cd8589b194e881c185d5cd95960821b6044820152606401610930565b600042836001600160401b031611801561209957506001600160401b03831661208e610100860160e0870161376b565b6001600160401b0316115b6120e55760405162461bcd60e51b815260206004820152601b60248201527f5266713a20696e617070726f70726961746520646561646c696e6500000000006044820152606401610930565b60006120f961016086016101408701613750565b6001600160a01b03161415801561212b5750600061211f6101a086016101808701613750565b6001600160a01b031614155b61218a5760405162461bcd60e51b815260206004820152602a60248201527f5266713a20696e76616c6964207265636569766572206f72206c6971756964696044820152693a3ca83937bb34b232b960b11b6064820152608401610930565b6001600160401b0346166121a1602086018661376b565b6001600160401b0316146121f75760405162461bcd60e51b815260206004820152601960248201527f5266713a2073726320636861696e4964206d69736d61746368000000000000006044820152606401610930565b3361220a61014086016101208701613750565b6001600160a01b0316146122575760405162461bcd60e51b81526020600482015260146024820152730a4cce27440e6cadcc8cae440dad2e6dac2e8c6d60631b6044820152606401610930565b600061226285611d3a565b90506000808281526007602052604090205460ff166008811115612288576122886135c8565b146122ce5760405162461bcd60e51b81526020600482015260166024820152755266713a2071756f746520686173682065786973747360501b6044820152606401610930565b60006122ed6122e360a088016080890161376b565b8760400135611fb5565b905061230160608701356040880135613a89565b8111156123505760405162461bcd60e51b815260206004820152601e60248201527f5266713a20696e73756666696369656e742070726f746f636f6c2066656500006044820152606401610930565b6000828152600760205260409020805460ff1916600117905561237960a087016080880161376b565b6001600160401b031661238f602088018861376b565b6001600160401b0316146124695760006005816123b260a08a0160808b0161376b565b6001600160401b031681526020810191909152604001600020546001600160a01b03169050806124245760405162461bcd60e51b815260206004820152601960248201527f5266713a2064737420636f6e7472616374206e6f7420736574000000000000006044820152606401610930565b60008360405160200161243991815260200190565b60408051601f1981840301815291905290506124668261245f60a08b0160808c0161376b565b8389612741565b50505b7f3e4de2d1674631d426ae2a89635b421e6d40a31d27681afdf0eed67e81d07bcb828760405161249a929190613e76565b60405180910390a150949350505050565b600080426124c0610100850160e0860161376b565b6001600160401b0316116125165760405162461bcd60e51b815260206004820152601d60248201527f5266713a207472616e7366657220646561646c696e65207061737365640000006044820152606401610930565b6001600160401b03461661253060a085016080860161376b565b6001600160401b0316146125825760405162461bcd60e51b81526020600482015260196024820152780a4cce27440c8e6e840c6d0c2d2dc92c840dad2e6dac2e8c6d603b1b6044820152606401610930565b600061258d84611d3a565b905060006005816125a1602088018861376b565b6001600160401b031681526020810191909152604001600020546001600160a01b031690506125d660a086016080870161376b565b6001600160401b03166125ec602087018761376b565b6001600160401b0316146126c55760008281526007602052604081205460ff16600881111561261d5761261d6135c8565b1461266a5760405162461bcd60e51b815260206004820152601b60248201527f5266713a2071756f746520616c726561647920657865637574656400000000006044820152606401610930565b6001600160a01b0381166126c05760405162461bcd60e51b815260206004820152601d60248201527f5266713a206473742072667120636f6e7472616374206e6f74207365740000006044820152606401610930565b612737565b600160008381526007602052604090205460ff1660088111156126ea576126ea6135c8565b146127375760405162461bcd60e51b815260206004820152601d60248201527f5266713a206e6f206465706f736974206f6e2073616d6520636861696e0000006044820152606401610930565b9094909350915050565b6001546116ff908590859085906001600160a01b0316856130cf565b6004546001600160a01b03166127855760405162461bcd60e51b815260040161093090613a05565b6000826001600160a01b03168261c35090604051600060405180830381858888f193505050503d80600081146127d7576040519150601f19603f3d011682016040523d82523d6000602084013e6127dc565b606091505b50509050806128395760405162461bcd60e51b8152602060048201526024808201527f5266713a206661696c656420746f207472616e73666572206e6174697665207460448201526337b5b2b760e11b6064820152608401610930565b505050565b61285060608401356040850135613a89565b600a60006128646040870160208801613750565b6001600160a01b03166001600160a01b0316815260200190815260200160002060008282546128939190613ff0565b909155505080156128db576000828152600760205260409020805460ff191660031790556128d66128cc6101a085016101808601613750565b8460600135612bdf565b61291e565b6000828152600760205260409020805460ff1916600217905561291e6129096101a085016101808601613750565b6060850135611fa56040870160208801613750565b7ff29b32a17c591b8b3b1216ce0ffb67c07f3478e99b50c5ccf8602878b1ee6376826129526101a086016101808701613750565b6129626040870160208801613750565b8660600135604051610e849493929190613abf565b6001600160a01b03811660009081526003602052604090205460ff16156129e05760405162461bcd60e51b815260206004820152601b60248201527f4163636f756e7420697320616c726561647920676f7665726e6f7200000000006044820152606401610930565b6001600160a01b038116600081815260036020908152604091829020805460ff1916600117905590519182527fdc5a48d79e2e147530ff63ecdbed5a5a66adb9d5cf339384d5d076da197c40b59101610fcd565b612a3c61313a565b6001805460ff60a01b191690557f5db9ee0a495bf2e6ff9c91a7834c1ba4fdd244a5e8aa4e537bd38aeae4b073aa335b6040516001600160a01b03909116815260200160405180910390a1565b6000806000612a9786611d3a565b9050600160008281526007602052604090205460ff166008811115612abe57612abe6135c8565b14612b075760405162461bcd60e51b81526020600482015260196024820152780a4cce27440d2dcc6dee4e4cac6e840e2eadee8ca40d0c2e6d603b1b6044820152606401610930565b612b1760a087016080880161376b565b6001600160401b0316612b2d602088018861376b565b6001600160401b031614612b4d57612b48858583600261318a565b612b85565b42612b5f610100880160e0890161376b565b6001600160401b031610612b855760405162461bcd60e51b815260040161093090613b61565b600080612b9a61018089016101608a01613750565b6001600160a01b031614612bbf57612bba61018088016101608901613750565b612bd1565b612bd161014088016101208901613750565b919791965090945050505050565b6004546001600160a01b0316612c075760405162461bcd60e51b815260040161093090613a05565b60048054604051632e1a7d4d60e01b81529182018390526001600160a01b031690632e1a7d4d90602401600060405180830381600087803b158015612c4b57600080fd5b505af1158015612c5f573d6000803e3d6000fd5b505050506000826001600160a01b03168261c35090604051600060405180830381858888f193505050503d8060008114612cb5576040519150601f19603f3d011682016040523d82523d6000602084013e612cba565b606091505b50509050806128395760405162461bcd60e51b8152602060048201526024808201527f5266713a206661696c656420746f207769746864726177206e6174697665207460448201526337b5b2b760e11b6064820152608401610930565b6040516001600160a01b03831660248201526044810182905261283990849063a9059cbb60e01b906064015b60408051601f198184030181529190526020810180516001600160e01b03166001600160e01b0319909316929092179091526132e5565b612d8381610f2c565b612dc75760405162461bcd60e51b815260206004820152601560248201527420b1b1b7bab73a1034b9903737ba103830bab9b2b960591b6044820152606401610930565b6001600160a01b038116600081815260026020908152604091829020805460ff1916905590519182527fcd265ebaf09df2871cc7bd4133404a235ba12eff2041bb89d9c714a2621c7c7e9101610fcd565b612e2181610f2c565b15612e6e5760405162461bcd60e51b815260206004820152601960248201527f4163636f756e7420697320616c726561647920706175736572000000000000006044820152606401610930565b6001600160a01b038116600081815260026020908152604091829020805460ff1916600117905590519182527f6719d08c1888103bea251a4ed56406bd0c3e69723c8a1686e017e7bbe159b6f89101610fcd565b612eca612011565b6001805460ff60a01b1916600160a01b1790557f62e78cea01bee320cd4e420270b5ea74000d11b0c9f74754ebdbfc544b05a258612a6c3390565b600080612f1185611d3a565b9050600160008281526007602052604090205460ff166008811115612f3857612f386135c8565b14612f815760405162461bcd60e51b81526020600482015260196024820152780a4cce27440d2dcc6dee4e4cac6e840e2eadee8ca40d0c2e6d603b1b6044820152606401610930565b612009848483600161318a565b6040516001600160a01b03808516602483015283166044820152606481018290526116ff9085906323b872dd60e01b90608401612d43565b6001600160a01b03811660009081526003602052604090205460ff1661302e5760405162461bcd60e51b815260206004820152601760248201527f4163636f756e74206973206e6f7420676f7665726e6f720000000000000000006044820152606401610930565b6001600160a01b038116600081815260036020908152604091829020805460ff1916905590519182527f1ebe834e73d60a5fec822c1e1727d34bc79f2ad977ed504581cc1822fe20fb5b9101610fcd565b600080546001600160a01b038381166001600160a01b0319831681178455604051919092169283917f8be0079c531659141344cd1fd0a4f28419497f9722a3daafe3b4186f6b6457e09190a35050565b604051634f9e72ad60e11b81526001600160a01b03831690639f3ce55a90839061310190899089908990600401614060565b6000604051808303818588803b15801561311a57600080fd5b505af115801561312e573d6000803e3d6000fd5b50505050505050505050565b600154600160a01b900460ff16610f2a5760405162461bcd60e51b815260206004820152601460248201527314185d5cd8589b194e881b9bdd081c185d5cd95960621b6044820152606401610930565b6000828260405160200161319f929190613aa0565b60408051601f1981840301815291815281516020928301206000818152600690935291205490915060ff16613278576001546040516000916001600160a01b0316906131ee9088908890614093565b6000604051808303816000865af19150503d806000811461322b576040519150601f19603f3d011682016040523d82523d6000602084013e613230565b606091505b50509050806132765760405162461bcd60e51b8152602060048201526012602482015271195e1958dd5d19481b5cd9c819985a5b195960721b6044820152606401610930565b505b60008181526006602052604090205460ff166132c95760405162461bcd60e51b815260206004820152601060248201526f5266713a20696e76616c6964206d736760801b6044820152606401610930565b6000908152600660205260409020805460ff1916905550505050565b600061333a826040518060400160405280602081526020017f5361666545524332303a206c6f772d6c6576656c2063616c6c206661696c6564815250856001600160a01b03166133b79092919063ffffffff16565b805190915015612839578080602001905181019061335891906140a3565b6128395760405162461bcd60e51b815260206004820152602a60248201527f5361666545524332303a204552433230206f7065726174696f6e20646964206e6044820152691bdd081cdd58d8d9595960b21b6064820152608401610930565b60606120098484600085856001600160a01b0385163b6134195760405162461bcd60e51b815260206004820152601d60248201527f416464726573733a2063616c6c20746f206e6f6e2d636f6e74726163740000006044820152606401610930565b600080866001600160a01b0316858760405161343591906140c0565b60006040518083038185875af1925050503d8060008114613472576040519150601f19603f3d011682016040523d82523d6000602084013e613477565b606091505b509150915061108f8282866060831561349157508161105b565b8251156134a15782518084602001fd5b8160405162461bcd60e51b815260040161093091906140dc565b60008083601f8401126134cd57600080fd5b5081356001600160401b038111156134e457600080fd5b6020830191508360208285010111156134fc57600080fd5b9250929050565b80356001600160401b038116811461351a57600080fd5b919050565b80356001600160a01b038116811461351a57600080fd5b6000806000806000806080878903121561354f57600080fd5b86356001600160401b038082111561356657600080fd5b6135728a838b016134bb565b909850965086915061358660208a01613503565b9550604089013591508082111561359c57600080fd5b506135a989828a016134bb565b90945092506135bc90506060880161351f565b90509295509295509295565b634e487b7160e01b600052602160045260246000fd5b60038110610ed357610ed36135c8565b602081016135fb836135de565b91905290565b60006101a0828403121561361457600080fd5b50919050565b6000806101c0838503121561362e57600080fd5b6136388484613601565b91506136476101a08401613503565b90509250929050565b60008060008060006080868803121561366857600080fd5b6136718661351f565b94506020860135935060408601356001600160401b0381111561369357600080fd5b61369f888289016134bb565b90945092506136b290506060870161351f565b90509295509295909350565b60006101a082840312156136d157600080fd5b61105b8383613601565b8015158114610ed357600080fd5b6000806101c083850312156136fd57600080fd5b6137078484613601565b91506101a0830135613718816136db565b809150509250929050565b60006020828403121561373557600080fd5b5035919050565b60208101600983106135fb576135fb6135c8565b60006020828403121561376257600080fd5b61105b8261351f565b60006020828403121561377d57600080fd5b61105b82613503565b6000806020838503121561379957600080fd5b82356001600160401b038111156137af57600080fd5b6137bb858286016134bb565b90969095509350505050565b600080600080600080600060c0888a0312156137e257600080fd5b6137eb8861351f565b96506137f96020890161351f565b95506040880135945061380e60608901613503565b935060808801356001600160401b0381111561382957600080fd5b6138358a828b016134bb565b9094509250613848905060a0890161351f565b905092959891949750929550565b60008060006101c0848603121561386c57600080fd5b6138768585613601565b92506101a08401356001600160401b0381111561389257600080fd5b61389e868287016134bb565b9497909650939450505050565b6000806000806000608086880312156138c357600080fd5b6138cc8661351f565b94506138da60208701613503565b935060408601356001600160401b0381111561369357600080fd5b60008083601f84011261390757600080fd5b5081356001600160401b0381111561391e57600080fd5b6020830191508360208260051b85010111156134fc57600080fd5b6000806000806040858703121561394f57600080fd5b84356001600160401b038082111561396657600080fd5b613972888389016138f5565b9096509450602087013591508082111561398b57600080fd5b50613998878288016138f5565b95989497509550505050565b600080604083850312156139b757600080fd5b6139c083613503565b946020939093013593505050565b60208082526019908201527f63616c6c6572206973206e6f74206d6573736167652062757300000000000000604082015260600190565b60208082526018908201527f5266713a206e61746976652077726170206e6f74207365740000000000000000604082015260600190565b60208082526017908201527f5266713a2073726320746f6b656e206d69736d61746368000000000000000000604082015260600190565b634e487b7160e01b600052601160045260246000fd5b600082821015613a9b57613a9b613a73565b500390565b828152613aac826135de565b60f89190911b6020820152602101919050565b9384526001600160a01b03928316602085015291166040830152606082015260800190565b6020808252818101527f4f776e61626c653a2063616c6c6572206973206e6f7420746865206f776e6572604082015260600190565b60208152816020820152818360408301376000818301604090810191909152601f909201601f19160101919050565b600060208284031215613b5a57600080fd5b5051919050565b60208082526021908201527f5266713a207472616e7366657220646561646c696e65206e6f742070617373656040820152601960fa1b606082015260800190565b80356020831015610a9357600019602084900360031b1b1692915050565b634e487b7160e01b600052603260045260246000fd5b803563ffffffff8116811461351a57600080fd5b600060208284031215613bfc57600080fd5b61105b82613bd6565b6000600019821415613c1957613c19613a73565b5060010190565b8183526000602080850194508260005b85811015613c5c576001600160401b03613c4983613503565b1687529582019590820190600101613c30565b509495945050505050565b604081526000613c7b604083018688613c20565b8281036020848101919091528482528591810160005b86811015613cba5763ffffffff613ca785613bd6565b1682529282019290820190600101613c91565b5098975050505050505050565b604081526000613cdb604083018688613c20565b8281036020848101919091528482528591810160005b86811015613cba576001600160a01b03613d0a8561351f565b1682529282019290820190600101613cf1565b6001600160401b0360c01b8e60c01b1681526bffffffffffffffffffffffff198d60601b1660088201528b601c8201528a603c820152613d6c605c82018b60c01b6001600160c01b0319169052565b613d85606482018a60601b6001600160601b0319169052565b876078820152613da4609882018860c01b6001600160c01b0319169052565b613dbd60a082018760c01b6001600160c01b0319169052565b613dd660a882018660601b6001600160601b0319169052565b613def60bc82018560601b6001600160601b0319169052565b613e0860d082018460601b6001600160601b0319169052565b613e2160e482018360601b6001600160601b0319169052565b60f8019d9c50505050505050505050505050565b6000816000190483118215151615613e4f57613e4f613a73565b500290565b600082613e7157634e487b7160e01b600052601260045260246000fd5b500490565b8281526101c08101613e9b60208301613e8e85613503565b6001600160401b03169052565b613ea76020840161351f565b6001600160a01b0381166040840152506040830135606083015260608301356080830152613ed760808401613503565b6001600160401b03811660a084015250613ef360a0840161351f565b6001600160a01b03811660c08401525060c083013560e0830152613f1960e08401613503565b610100613f30818501836001600160401b03169052565b613f3b818601613503565b915050610120613f55818501836001600160401b03169052565b613f6081860161351f565b915050610140613f7a818501836001600160a01b03169052565b613f8581860161351f565b915050610160613f9f818501836001600160a01b03169052565b613faa81860161351f565b915050610180613fc4818501836001600160a01b03169052565b613fcf81860161351f565b915050613fe86101a08401826001600160a01b03169052565b509392505050565b6000821982111561400357614003613a73565b500190565b60005b8381101561402357818101518382015260200161400b565b838111156116ff5750506000910152565b6000815180845261404c816020860160208601614008565b601f01601f19169290920160200192915050565b6001600160a01b03841681526001600160401b0383166020820152606060408201819052600090610ac690830184614034565b8183823760009101908152919050565b6000602082840312156140b557600080fd5b815161105b816136db565b600082516140d2818460208701614008565b9190910192915050565b60208152600061105b602083018461403456fea2646970667358221220081cfef8fc02f0b5799906fd74bc149d75040891f8b7c2a1e06544c9b8d2502564736f6c63430008090033",
  "linkReferences": {},
  "deployedLinkReferences": {}
}