{
  "_format": "hh-sol-artifact-1",
  "contractName": "PeggedTokenBridgeV2",
  "sourceName": "contracts/cBridge/pegged-bridge/PeggedTokenBridgeV2.sol",
  "abi": [
    {
      "anonymous": false,
      "inputs": [
        {
          "indexed": false,
          "internalType": "bytes32",
          "name": "burnId",
          "type": "bytes32"
        },
        {
          "indexed": false,
          "internalType": "address",
          "name": "token",
          "type": "address"
        },
        {
          "indexed": false,
          "internalType": "address",
          "name": "account",
          "type": "address"
        },
        {
          "indexed": false,
          "internalType": "uint256",
          "name": "amount",
          "type": "uint256"
        },
        {
          "indexed": false,
          "internalType": "uint64",
          "name": "toChainId",
          "type": "uint64"
        },
        {
          "indexed": false,
          "internalType": "address",
          "name": "toAccount",
          "type": "address"
        },
        {
          "indexed": false,
          "internalType": "uint64",
          "name": "nonce",
          "type": "uint64"
        }
      ],
      "name": "Burn",
      "type": "event"
    },
    {
      "anonymous": false,
      "inputs": [
        {
          "indexed": false,
          "internalType": "uint256",
          "name": "period",
          "type": "uint256"
        }
      ],
      "name": "DelayPeriodUpdated",
      "type": "event"
    },
    {
      "anonymous": false,
      "inputs": [
        {
          "indexed": false,
          "internalType": "address",
          "name": "token",
          "type": "address"
        },
        {
          "indexed": false,
          "internalType": "uint256",
          "name": "threshold",
          "type": "uint256"
        }
      ],
      "name": "DelayThresholdUpdated",
      "type": "event"
    },
    {
      "anonymous": false,
      "inputs": [
        {
          "indexed": false,
          "internalType": "bytes32",
          "name": "id",
          "type": "bytes32"
        }
      ],
      "name": "DelayedTransferAdded",
      "type": "event"
    },
    {
      "anonymous": false,
      "inputs": [
        {
          "indexed": false,
          "internalType": "bytes32",
          "name": "id",
          "type": "bytes32"
        },
        {
          "indexed": false,
          "internalType": "address",
          "name": "receiver",
          "type": "address"
        },
        {
          "indexed": false,
          "internalType": "address",
          "name": "token",
          "type": "address"
        },
        {
          "indexed": false,
          "internalType": "uint256",
          "name": "amount",
          "type": "uint256"
        }
      ],
      "name": "DelayedTransferExecuted",
      "type": "event"
    },
    {
      "anonymous": false,
      "inputs": [
        {
          "indexed": false,
          "internalType": "uint256",
          "name": "length",
          "type": "uint256"
        }
      ],
      "name": "EpochLengthUpdated",
      "type": "event"
    },
    {
      "anonymous": false,
      "inputs": [
        {
          "indexed": false,
          "internalType": "address",
          "name": "token",
          "type": "address"
        },
        {
          "indexed": false,
          "internalType": "uint256",
          "name": "cap",
          "type": "uint256"
        }
      ],
      "name": "EpochVolumeUpdated",
      "type": "event"
    },
    {
      "anonymous": false,
      "inputs": [
        {
          "indexed": false,
          "internalType": "address",
          "name": "account",
          "type": "address"
        }
      ],
      "name": "GovernorAdded",
      "type": "event"
    },
    {
      "anonymous": false,
      "inputs": [
        {
          "indexed": false,
          "internalType": "address",
          "name": "account",
          "type": "address"
        }
      ],
      "name": "GovernorRemoved",
      "type": "event"
    },
    {
      "anonymous": false,
      "inputs": [
        {
          "indexed": false,
          "internalType": "address",
          "name": "token",
          "type": "address"
        },
        {
          "indexed": false,
          "internalType": "uint256",
          "name": "amount",
          "type": "uint256"
        }
      ],
      "name": "MaxBurnUpdated",
      "type": "event"
    },
    {
      "anonymous": false,
      "inputs": [
        {
          "indexed": false,
          "internalType": "address",
          "name": "token",
          "type": "address"
        },
        {
          "indexed": false,
          "internalType": "uint256",
          "name": "amount",
          "type": "uint256"
        }
      ],
      "name": "MinBurnUpdated",
      "type": "event"
    },
    {
      "anonymous": false,
      "inputs": [
        {
          "indexed": false,
          "internalType": "bytes32",
          "name": "mintId",
          "type": "bytes32"
        },
        {
          "indexed": false,
          "internalType": "address",
          "name": "token",
          "type": "address"
        },
        {
          "indexed": false,
          "internalType": "address",
          "name": "account",
          "type": "address"
        },
        {
          "indexed": false,
          "internalType": "uint256",
          "name": "amount",
          "type": "uint256"
        },
        {
          "indexed": false,
          "internalType": "uint64",
          "name": "refChainId",
          "type": "uint64"
        },
        {
          "indexed": false,
          "internalType": "bytes32",
          "name": "refId",
          "type": "bytes32"
        },
        {
          "indexed": false,
          "internalType": "address",
          "name": "depositor",
          "type": "address"
        }
      ],
      "name": "Mint",
      "type": "event"
    },
    {
      "anonymous": false,
      "inputs": [
        {
          "indexed": true,
          "internalType": "address",
          "name": "previousOwner",
          "type": "address"
        },
        {
          "indexed": true,
          "internalType": "address",
          "name": "newOwner",
          "type": "address"
        }
      ],
      "name": "OwnershipTransferred",
      "type": "event"
    },
    {
      "anonymous": false,
      "inputs": [
        {
          "indexed": false,
          "internalType": "address",
          "name": "account",
          "type": "address"
        }
      ],
      "name": "Paused",
      "type": "event"
    },
    {
      "anonymous": false,
      "inputs": [
        {
          "indexed": false,
          "internalType": "address",
          "name": "account",
          "type": "address"
        }
      ],
      "name": "PauserAdded",
      "type": "event"
    },
    {
      "anonymous": false,
      "inputs": [
        {
          "indexed": false,
          "internalType": "address",
          "name": "account",
          "type": "address"
        }
      ],
      "name": "PauserRemoved",
      "type": "event"
    },
    {
      "anonymous": false,
      "inputs": [
        {
          "indexed": false,
          "internalType": "address",
          "name": "token",
          "type": "address"
        },
        {
          "indexed": false,
          "internalType": "uint256",
          "name": "supply",
          "type": "uint256"
        }
      ],
      "name": "SupplyUpdated",
      "type": "event"
    },
    {
      "anonymous": false,
      "inputs": [
        {
          "indexed": false,
          "internalType": "address",
          "name": "account",
          "type": "address"
        }
      ],
      "name": "Unpaused",
      "type": "event"
    },
    {
      "inputs": [
        {
          "internalType": "address",
          "name": "_account",
          "type": "address"
        }
      ],
      "name": "addGovernor",
      "outputs": [],
      "stateMutability": "nonpayable",
      "type": "function"
    },
    {
      "inputs": [
        {
          "internalType": "address",
          "name": "account",
          "type": "address"
        }
      ],
      "name": "addPauser",
      "outputs": [],
      "stateMutability": "nonpayable",
      "type": "function"
    },
    {
      "inputs": [
        {
          "internalType": "address",
          "name": "_token",
          "type": "address"
        },
        {
          "internalType": "uint256",
          "name": "_amount",
          "type": "uint256"
        },
        {
          "internalType": "uint64",
          "name": "_toChainId",
          "type": "uint64"
        },
        {
          "internalType": "address",
          "name": "_toAccount",
          "type": "address"
        },
        {
          "internalType": "uint64",
          "name": "_nonce",
          "type": "uint64"
        }
      ],
      "name": "burn",
      "outputs": [
        {
          "internalType": "bytes32",
          "name": "",
          "type": "bytes32"
        }
      ],
      "stateMutability": "nonpayable",
      "type": "function"
    },
    {
      "inputs": [
        {
          "internalType": "address",
          "name": "_token",
          "type": "address"
        },
        {
          "internalType": "uint256",
          "name": "_amount",
          "type": "uint256"
        },
        {
          "internalType": "uint64",
          "name": "_toChainId",
          "type": "uint64"
        },
        {
          "internalType": "address",
          "name": "_toAccount",
          "type": "address"
        },
        {
          "internalType": "uint64",
          "name": "_nonce",
          "type": "uint64"
        }
      ],
      "name": "burnFrom",
      "outputs": [
        {
          "internalType": "bytes32",
          "name": "",
          "type": "bytes32"
        }
      ],
      "stateMutability": "nonpayable",
      "type": "function"
    },
    {
      "inputs": [
        {
          "internalType": "address",
          "name": "_token",
          "type": "address"
        },
        {
          "internalType": "uint256",
          "name": "_delta",
          "type": "uint256"
        }
      ],
      "name": "decreaseSupply",
      "outputs": [],
      "stateMutability": "nonpayable",
      "type": "function"
    },
    {
      "inputs": [],
      "name": "delayPeriod",
      "outputs": [
        {
          "internalType": "uint256",
          "name": "",
          "type": "uint256"
        }
      ],
      "stateMutability": "view",
      "type": "function"
    },
    {
      "inputs": [
        {
          "internalType": "address",
          "name": "",
          "type": "address"
        }
      ],
      "name": "delayThresholds",
      "outputs": [
        {
          "internalType": "uint256",
          "name": "",
          "type": "uint256"
        }
      ],
      "stateMutability": "view",
      "type": "function"
    },
    {
      "inputs": [
        {
          "internalType": "bytes32",
          "name": "",
          "type": "bytes32"
        }
      ],
      "name": "delayedTransfers",
      "outputs": [
        {
          "internalType": "address",
          "name": "receiver",
          "type": "address"
        },
        {
          "internalType": "address",
          "name": "token",
          "type": "address"
        },
        {
          "internalType": "uint256",
          "name": "amount",
          "type": "uint256"
        },
        {
          "internalType": "uint256",
          "name": "timestamp",
          "type": "uint256"
        }
      ],
      "stateMutability": "view",
      "type": "function"
    },
    {
      "inputs": [],
      "name": "epochLength",
      "outputs": [
        {
          "internalType": "uint256",
          "name": "",
          "type": "uint256"
        }
      ],
      "stateMutability": "view",
      "type": "function"
    },
    {
      "inputs": [
        {
          "internalType": "address",
          "name": "",
          "type": "address"
        }
      ],
      "name": "epochVolumeCaps",
      "outputs": [
        {
          "internalType": "uint256",
          "name": "",
          "type": "uint256"
        }
      ],
      "stateMutability": "view",
      "type": "function"
    },
    {
      "inputs": [
        {
          "internalType": "address",
          "name": "",
          "type": "address"
        }
      ],
      "name": "epochVolumes",
      "outputs": [
        {
          "internalType": "uint256",
          "name": "",
          "type": "uint256"
        }
      ],
      "stateMutability": "view",
      "type": "function"
    },
    {
      "inputs": [
        {
          "internalType": "bytes32",
          "name": "id",
          "type": "bytes32"
        }
      ],
      "name": "executeDelayedTransfer",
      "outputs": [],
      "stateMutability": "nonpayable",
      "type": "function"
    },
    {
      "inputs": [
        {
          "internalType": "address",
          "name": "",
          "type": "address"
        }
      ],
      "name": "governors",
      "outputs": [
        {
          "internalType": "bool",
          "name": "",
          "type": "bool"
        }
      ],
      "stateMutability": "view",
      "type": "function"
    },
    {
      "inputs": [
        {
          "internalType": "address",
          "name": "_token",
          "type": "address"
        },
        {
          "internalType": "uint256",
          "name": "_delta",
          "type": "uint256"
        }
      ],
      "name": "increaseSupply",
      "outputs": [],
      "stateMutability": "nonpayable",
      "type": "function"
    },
    {
      "inputs": [
        {
          "internalType": "address",
          "name": "_account",
          "type": "address"
        }
      ],
      "name": "isGovernor",
      "outputs": [
        {
          "internalType": "bool",
          "name": "",
          "type": "bool"
        }
      ],
      "stateMutability": "view",
      "type": "function"
    },
    {
      "inputs": [
        {
          "internalType": "address",
          "name": "account",
          "type": "address"
        }
      ],
      "name": "isPauser",
      "outputs": [
        {
          "internalType": "bool",
          "name": "",
          "type": "bool"
        }
      ],
      "stateMutability": "view",
      "type": "function"
    },
    {
      "inputs": [
        {
          "internalType": "address",
          "name": "",
          "type": "address"
        }
      ],
      "name": "lastOpTimestamps",
      "outputs": [
        {
          "internalType": "uint256",
          "name": "",
          "type": "uint256"
        }
      ],
      "stateMutability": "view",
      "type": "function"
    },
    {
      "inputs": [
        {
          "internalType": "address",
          "name": "",
          "type": "address"
        }
      ],
      "name": "maxBurn",
      "outputs": [
        {
          "internalType": "uint256",
          "name": "",
          "type": "uint256"
        }
      ],
      "stateMutability": "view",
      "type": "function"
    },
    {
      "inputs": [
        {
          "internalType": "address",
          "name": "",
          "type": "address"
        }
      ],
      "name": "minBurn",
      "outputs": [
        {
          "internalType": "uint256",
          "name": "",
          "type": "uint256"
        }
      ],
      "stateMutability": "view",
      "type": "function"
    },
    {
      "inputs": [
        {
          "internalType": "bytes",
          "name": "_request",
          "type": "bytes"
        },
        {
          "internalType": "bytes[]",
          "name": "_sigs",
          "type": "bytes[]"
        },
        {
          "internalType": "address[]",
          "name": "_signers",
          "type": "address[]"
        },
        {
          "internalType": "uint256[]",
          "name": "_powers",
          "type": "uint256[]"
        }
      ],
      "name": "mint",
      "outputs": [
        {
          "internalType": "bytes32",
          "name": "",
          "type": "bytes32"
        }
      ],
      "stateMutability": "nonpayable",
      "type": "function"
    },
    {
      "inputs": [],
      "name": "owner",
      "outputs": [
        {
          "internalType": "address",
          "name": "",
          "type": "address"
        }
      ],
      "stateMutability": "view",
      "type": "function"
    },
    {
      "inputs": [],
      "name": "pause",
      "outputs": [],
      "stateMutability": "nonpayable",
      "type": "function"
    },
    {
      "inputs": [],
      "name": "paused",
      "outputs": [
        {
          "internalType": "bool",
          "name": "",
          "type": "bool"
        }
      ],
      "stateMutability": "view",
      "type": "function"
    },
    {
      "inputs": [
        {
          "internalType": "address",
          "name": "",
          "type": "address"
        }
      ],
      "name": "pausers",
      "outputs": [
        {
          "internalType": "bool",
          "name": "",
          "type": "bool"
        }
      ],
      "stateMutability": "view",
      "type": "function"
    },
    {
      "inputs": [
        {
          "internalType": "bytes32",
          "name": "",
          "type": "bytes32"
        }
      ],
      "name": "records",
      "outputs": [
        {
          "internalType": "bool",
          "name": "",
          "type": "bool"
        }
      ],
      "stateMutability": "view",
      "type": "function"
    },
    {
      "inputs": [
        {
          "internalType": "address",
          "name": "_account",
          "type": "address"
        }
      ],
      "name": "removeGovernor",
      "outputs": [],
      "stateMutability": "nonpayable",
      "type": "function"
    },
    {
      "inputs": [
        {
          "internalType": "address",
          "name": "account",
          "type": "address"
        }
      ],
      "name": "removePauser",
      "outputs": [],
      "stateMutability": "nonpayable",
      "type": "function"
    },
    {
      "inputs": [],
      "name": "renounceGovernor",
      "outputs": [],
      "stateMutability": "nonpayable",
      "type": "function"
    },
    {
      "inputs": [],
      "name": "renouncePauser",
      "outputs": [],
      "stateMutability": "nonpayable",
      "type": "function"
    },
    {
      "inputs": [
        {
          "internalType": "uint256",
          "name": "_period",
          "type": "uint256"
        }
      ],
      "name": "setDelayPeriod",
      "outputs": [],
      "stateMutability": "nonpayable",
      "type": "function"
    },
    {
      "inputs": [
        {
          "internalType": "address[]",
          "name": "_tokens",
          "type": "address[]"
        },
        {
          "internalType": "uint256[]",
          "name": "_thresholds",
          "type": "uint256[]"
        }
      ],
      "name": "setDelayThresholds",
      "outputs": [],
      "stateMutability": "nonpayable",
      "type": "function"
    },
    {
      "inputs": [
        {
          "internalType": "uint256",
          "name": "_length",
          "type": "uint256"
        }
      ],
      "name": "setEpochLength",
      "outputs": [],
      "stateMutability": "nonpayable",
      "type": "function"
    },
    {
      "inputs": [
        {
          "internalType": "address[]",
          "name": "_tokens",
          "type": "address[]"
        },
        {
          "internalType": "uint256[]",
          "name": "_caps",
          "type": "uint256[]"
        }
      ],
      "name": "setEpochVolumeCaps",
      "outputs": [],
      "stateMutability": "nonpayable",
      "type": "function"
    },
    {
      "inputs": [
        {
          "internalType": "address[]",
          "name": "_tokens",
          "type": "address[]"
        },
        {
          "internalType": "uint256[]",
          "name": "_amounts",
          "type": "uint256[]"
        }
      ],
      "name": "setMaxBurn",
      "outputs": [],
      "stateMutability": "nonpayable",
      "type": "function"
    },
    {
      "inputs": [
        {
          "internalType": "address[]",
          "name": "_tokens",
          "type": "address[]"
        },
        {
          "internalType": "uint256[]",
          "name": "_amounts",
          "type": "uint256[]"
        }
      ],
      "name": "setMinBurn",
      "outputs": [],
      "stateMutability": "nonpayable",
      "type": "function"
    },
    {
      "inputs": [
        {
          "internalType": "address",
          "name": "_token",
          "type": "address"
        },
        {
          "internalType": "uint256",
          "name": "_supply",
          "type": "uint256"
        }
      ],
      "name": "setSupply",
      "outputs": [],
      "stateMutability": "nonpayable",
      "type": "function"
    },
    {
      "inputs": [],
      "name": "sigsVerifier",
      "outputs": [
        {
          "internalType": "contract ISigsVerifier",
          "name": "",
          "type": "address"
        }
      ],
      "stateMutability": "view",
      "type": "function"
    },
    {
      "inputs": [
        {
          "internalType": "address",
          "name": "",
          "type": "address"
        }
      ],
      "name": "supplies",
      "outputs": [
        {
          "internalType": "uint256",
          "name": "",
          "type": "uint256"
        }
      ],
      "stateMutability": "view",
      "type": "function"
    },
    {
      "inputs": [
        {
          "internalType": "address",
          "name": "newOwner",
          "type": "address"
        }
      ],
      "name": "transferOwnership",
      "outputs": [],
      "stateMutability": "nonpayable",
      "type": "function"
    },
    {
      "inputs": [],
      "name": "unpause",
      "outputs": [],
      "stateMutability": "nonpayable",
      "type": "function"
    }
  ],
  "bytecode": "0x60806040523480156200001157600080fd5b506200001d3362000046565b6000805460ff60a01b19169055620000353362000096565b620000403362000161565b62000221565b600080546001600160a01b038381166001600160a01b0319831681178455604051919092169283917f8be0079c531659141344cd1fd0a4f28419497f9722a3daafe3b4186f6b6457e09190a35050565b6001600160a01b03811660009081526001602052604090205460ff1615620001055760405162461bcd60e51b815260206004820152601960248201527f4163636f756e7420697320616c7265616479207061757365720000000000000060448201526064015b60405180910390fd5b6001600160a01b038116600081815260016020818152604092839020805460ff191690921790915590519182527f6719d08c1888103bea251a4ed56406bd0c3e69723c8a1686e017e7bbe159b6f891015b60405180910390a150565b6001600160a01b03811660009081526002602052604090205460ff1615620001cc5760405162461bcd60e51b815260206004820152601b60248201527f4163636f756e7420697320616c726561647920676f7665726e6f7200000000006044820152606401620000fc565b6001600160a01b038116600081815260026020908152604091829020805460ff1916600117905590519182527fdc5a48d79e2e147530ff63ecdbed5a5a66adb9d5cf339384d5d076da197c40b5910162000156565b6129c380620002316000396000f3fe608060405234801561001057600080fd5b50600436106102485760003560e01c806382dc1ec41161013b578063bf4816f0116100b8578063eecdac881161007c578063eecdac88146105af578063f2fde38b146105c2578063f8321383146105d5578063f8734302146105f5578063f9a8ea081461060857600080fd5b8063bf4816f014610550578063ccf2683b14610563578063e026049c14610571578063e3eece2614610579578063e43581b81461059c57600080fd5b8063a0029301116100ff578063a002930114610494578063adc0d57f146104a7578063b1c94d9414610514578063b4d8cedc1461051d578063b5f2bc471461053057600080fd5b806382dc1ec41461042e5780638456cb59146104415780638da5cb5b146104495780639e25fc5c1461046e5780639e422c331461048157600080fd5b806352532faa116101c95780636b2c0f551161018d5780636b2c0f55146103bd5780636ef8d66d146103d057806379fcd8ee146103d85780637f856013146103eb57806380f51c121461040b57600080fd5b806352532faa1461034f57806354eea7961461036f57806357d775f8146103825780635c975abb1461038b57806360216b001461039d57600080fd5b80633d572107116102105780633d572107146102ee5780633f4ba83a1461030157806346fbf68e1461030957806347b16c6c1461031c578063497bf3b21461032f57600080fd5b806301e647251461024d57806315d0975c1461028557806317bdbae51461029a578063274cee31146102ad5780633c4a25d0146102db575b600080fd5b61027061025b366004612374565b600a6020526000908152604090205460ff1681565b60405190151581526020015b60405180910390f35b6102986102933660046123a9565b61061b565b005b6102986102a836600461241f565b6106e1565b6102cd6102bb36600461248b565b600b6020526000908152604090205481565b60405190815260200161027c565b6102986102e936600461248b565b61081e565b6102986102fc366004612374565b610863565b6102986108c4565b61027061031736600461248b565b61091a565b61029861032a36600461241f565b610938565b6102cd61033d36600461248b565b600d6020526000908152604090205481565b6102cd61035d36600461248b565b60086020526000908152604090205481565b61029861037d366004612374565b610a6e565b6102cd60035481565b600054600160a01b900460ff16610270565b6102cd6103ab36600461248b565b60046020526000908152604090205481565b6102986103cb36600461248b565b610ac8565b610298610b0a565b6102986103e63660046123a9565b610b13565b6102cd6103f936600461248b565b600c6020526000908152604090205481565b61027061041936600461248b565b60016020526000908152604090205460ff1681565b61029861043c36600461248b565b610b74565b610298610bb6565b6000546001600160a01b03165b6040516001600160a01b03909116815260200161027c565b61029861047c366004612374565b610c0a565b6102cd61048f3660046124c5565b610c8e565b6102cd6104a23660046124c5565b610d15565b6104e96104b5366004612374565b60076020526000908152604090208054600182015460028301546003909301546001600160a01b0392831693919092169184565b604080516001600160a01b03958616815294909316602085015291830152606082015260800161027c565b6102cd60095481565b61029861052b3660046123a9565b610d5f565b6102cd61053e36600461248b565b60056020526000908152604090205481565b61029861055e36600461241f565b610de5565b6104566015602960991b0181565b610298610f1b565b61027061058736600461248b565b60026020526000908152604090205460ff1681565b6102706105aa36600461248b565b610f24565b6102986105bd36600461248b565b610f42565b6102986105d036600461248b565b610f84565b6102cd6105e336600461248b565b60066020526000908152604090205481565b6102cd610603366004612523565b61102b565b61029861061636600461241f565b6113fa565b3361062e6000546001600160a01b031690565b6001600160a01b03161461065d5760405162461bcd60e51b815260040161065490612612565b60405180910390fd5b6001600160a01b0382166000908152600b60205260408120805483929061068590849061265d565b90915550506001600160a01b0382166000908152600b6020526040908190205490517feb2f7272b55acd6dea98f5742868e8d2221ad82acb36b2d0cdd00150290e9499916106d591859190612674565b60405180910390a15050565b6106ea33610f24565b6107065760405162461bcd60e51b81526004016106549061268d565b8281146107255760405162461bcd60e51b8152600401610654906126bd565b60005b8381101561081757828282818110610742576107426126e6565b905060200201356008600087878581811061075f5761075f6126e6565b9050602002016020810190610774919061248b565b6001600160a01b031681526020810191909152604001600020557fceaad6533bfb481492fb3e08ef19297f46611b8fa9de5ef4cf8dc23a56ad09ce8585838181106107c1576107c16126e6565b90506020020160208101906107d6919061248b565b8484848181106107e8576107e86126e6565b905060200201356040516107fd929190612674565b60405180910390a18061080f816126fc565b915050610728565b5050505050565b336108316000546001600160a01b031690565b6001600160a01b0316146108575760405162461bcd60e51b815260040161065490612612565b61086081611530565b50565b61086c33610f24565b6108885760405162461bcd60e51b81526004016106549061268d565b60098190556040518181527fc0a39f234199b125fb93713c4d067bdcebbf691087f87b79c0feb92b156ba8b6906020015b60405180910390a150565b6108cd3361091a565b6109105760405162461bcd60e51b815260206004820152601460248201527321b0b63632b91034b9903737ba103830bab9b2b960611b6044820152606401610654565b6109186115da565b565b6001600160a01b031660009081526001602052604090205460ff1690565b61094133610f24565b61095d5760405162461bcd60e51b81526004016106549061268d565b82811461097c5760405162461bcd60e51b8152600401610654906126bd565b60005b8381101561081757828282818110610999576109996126e6565b90506020020135600560008787858181106109b6576109b66126e6565b90506020020160208101906109cb919061248b565b6001600160a01b031681526020810191909152604001600020557f608e49c22994f20b5d3496dca088b88dfd81b4a3e8cc3809ea1e10a320107e89858583818110610a1857610a186126e6565b9050602002016020810190610a2d919061248b565b848484818110610a3f57610a3f6126e6565b90506020020135604051610a54929190612674565b60405180910390a180610a66816126fc565b91505061097f565b610a7733610f24565b610a935760405162461bcd60e51b81526004016106549061268d565b60038190556040518181527f2664fec2ff76486ac58ed087310855b648b15b9d19f3de8529e95f7c46b7d6b3906020016108b9565b33610adb6000546001600160a01b031690565b6001600160a01b031614610b015760405162461bcd60e51b815260040161065490612612565b6108608161162f565b6109183361162f565b33610b266000546001600160a01b031690565b6001600160a01b031614610b4c5760405162461bcd60e51b815260040161065490612612565b6001600160a01b0382166000908152600b602052604081208054839290610685908490612717565b33610b876000546001600160a01b031690565b6001600160a01b031614610bad5760405162461bcd60e51b815260040161065490612612565b610860816116cd565b610bbf3361091a565b610c025760405162461bcd60e51b815260206004820152601460248201527321b0b63632b91034b9903737ba103830bab9b2b960611b6044820152606401610654565b610918611778565b610c126117bb565b6000610c1d82611808565b6020810151815160408084015190516340c10f1960e01b81529394506001600160a01b03909216926340c10f1992610c589291600401612674565b600060405180830381600087803b158015610c7257600080fd5b505af1158015610c86573d6000803e3d6000fd5b505050505050565b6000610c986117bb565b6000610ca787878787876119cd565b60405163079cc67960e41b81529091506001600160a01b038816906379cc679090610cd89033908a90600401612674565b600060405180830381600087803b158015610cf257600080fd5b505af1158015610d06573d6000803e3d6000fd5b50929998505050505050505050565b6000610d1f6117bb565b6000610d2e87878787876119cd565b604051632770a7eb60e21b81529091506001600160a01b03881690639dc29fac90610cd89033908a90600401612674565b33610d726000546001600160a01b031690565b6001600160a01b031614610d985760405162461bcd60e51b815260040161065490612612565b6001600160a01b0382166000908152600b602052604090819020829055517feb2f7272b55acd6dea98f5742868e8d2221ad82acb36b2d0cdd00150290e9499906106d59084908490612674565b610dee33610f24565b610e0a5760405162461bcd60e51b81526004016106549061268d565b828114610e295760405162461bcd60e51b8152600401610654906126bd565b60005b8381101561081757828282818110610e4657610e466126e6565b90506020020135600c6000878785818110610e6357610e636126e6565b9050602002016020810190610e78919061248b565b6001600160a01b031681526020810191909152604001600020557f3796cd0b17a8734f8da819920625598e9a18be490f686725282e5383f1d06683858583818110610ec557610ec56126e6565b9050602002016020810190610eda919061248b565b848484818110610eec57610eec6126e6565b90506020020135604051610f01929190612674565b60405180910390a180610f13816126fc565b915050610e2c565b61091833611c3d565b6001600160a01b031660009081526002602052604090205460ff1690565b33610f556000546001600160a01b031690565b6001600160a01b031614610f7b5760405162461bcd60e51b815260040161065490612612565b61086081611c3d565b33610f976000546001600160a01b031690565b6001600160a01b031614610fbd5760405162461bcd60e51b815260040161065490612612565b6001600160a01b0381166110225760405162461bcd60e51b815260206004820152602660248201527f4f776e61626c653a206e6577206f776e657220697320746865207a65726f206160448201526564647265737360d01b6064820152608401610654565b61086081611ce3565b60006110356117bb565b6000463060405160200161106d92919091825260601b6001600160601b031916602082015263135a5b9d60e21b603482015260380190565b6040516020818303038152906040528051906020012090506015602960991b016001600160a01b031663682dbc22828c8c6040516020016110b09392919061272f565b6040516020818303038152906040528a8a8a8a8a8a6040518863ffffffff1660e01b81526004016110e79796959493929190612884565b60006040518083038186803b1580156110ff57600080fd5b505afa158015611113573d6000803e3d6000fd5b5050505060006111588b8b8080601f016020809104026020016040519081016040528093929190818152602001838380828437600092019190915250611d3392505050565b6020818101518251604080850151606080870151608088015160a089015185516001600160601b031998851b8916818b015296841b88166034880152604887019490945290821b861660688601526001600160c01b031960c09190911b16607c850152608484019190915230901b90921660a48201528151808203609801815260b890910182528051908301206000818152600a9093529120549192509060ff16156112365760405162461bcd60e51b815260206004820152600d60248201526c7265636f72642065786973747360981b6044820152606401610654565b6000818152600a602052604090819020805460ff191660011790558251908301516112619190611e95565b81516001600160a01b0316600090815260086020526040902054801580159061128d5750808360400151115b156112af576112aa82846020015185600001518660400151611fa2565b61131b565b8251602084015160408086015190516340c10f1960e01b81526001600160a01b03909316926340c10f19926112e8929091600401612674565b600060405180830381600087803b15801561130257600080fd5b505af1158015611316573d6000803e3d6000fd5b505050505b60408084015184516001600160a01b03166000908152600b60205291822080549192909161134a908490612717565b925050819055507f5bc84ecccfced5bb04bfc7f3efcdbe7f5cd21949ef146811b4d1967fe41f777a8284600001518560200151866040015187608001518860a0015189606001516040516113e297969594939291909687526001600160a01b0395861660208801529385166040870152606086019290925267ffffffffffffffff16608085015260a08401521660c082015260e00190565b60405180910390a1509b9a5050505050505050505050565b61140333610f24565b61141f5760405162461bcd60e51b81526004016106549061268d565b82811461143e5760405162461bcd60e51b8152600401610654906126bd565b60005b838110156108175782828281811061145b5761145b6126e6565b90506020020135600d6000878785818110611478576114786126e6565b905060200201602081019061148d919061248b565b6001600160a01b031681526020810191909152604001600020557fa3181379f6db47d9037efc6b6e8e3efe8c55ddb090b4f0512c152f97c4e47da58585838181106114da576114da6126e6565b90506020020160208101906114ef919061248b565b848484818110611501576115016126e6565b90506020020135604051611516929190612674565b60405180910390a180611528816126fc565b915050611441565b61153981610f24565b156115865760405162461bcd60e51b815260206004820152601b60248201527f4163636f756e7420697320616c726561647920676f7665726e6f7200000000006044820152606401610654565b6001600160a01b038116600081815260026020908152604091829020805460ff1916600117905590519182527fdc5a48d79e2e147530ff63ecdbed5a5a66adb9d5cf339384d5d076da197c40b591016108b9565b6115e26120b5565b6000805460ff60a01b191690557f5db9ee0a495bf2e6ff9c91a7834c1ba4fdd244a5e8aa4e537bd38aeae4b073aa335b6040516001600160a01b03909116815260200160405180910390a1565b6116388161091a565b61167c5760405162461bcd60e51b815260206004820152601560248201527420b1b1b7bab73a1034b9903737ba103830bab9b2b960591b6044820152606401610654565b6001600160a01b038116600081815260016020908152604091829020805460ff1916905590519182527fcd265ebaf09df2871cc7bd4133404a235ba12eff2041bb89d9c714a2621c7c7e91016108b9565b6116d68161091a565b156117235760405162461bcd60e51b815260206004820152601960248201527f4163636f756e7420697320616c726561647920706175736572000000000000006044820152606401610654565b6001600160a01b038116600081815260016020818152604092839020805460ff191690921790915590519182527f6719d08c1888103bea251a4ed56406bd0c3e69723c8a1686e017e7bbe159b6f891016108b9565b6117806117bb565b6000805460ff60a01b1916600160a01b1790557f62e78cea01bee320cd4e420270b5ea74000d11b0c9f74754ebdbfc544b05a2586116123390565b600054600160a01b900460ff16156109185760405162461bcd60e51b815260206004820152601060248201526f14185d5cd8589b194e881c185d5cd95960821b6044820152606401610654565b604080516080810182526000808252602082018190529181018290526060810191909152600082815260076020908152604091829020825160808101845281546001600160a01b03908116825260018301541692810192909252600281015492820192909252600390910154606082018190526118c75760405162461bcd60e51b815260206004820152601a60248201527f64656c61796564207472616e73666572206e6f742065786973740000000000006044820152606401610654565b60095481606001516118d99190612717565b42116119275760405162461bcd60e51b815260206004820152601d60248201527f64656c61796564207472616e73666572207374696c6c206c6f636b65640000006044820152606401610654565b600083815260076020908152604080832080546001600160a01b03199081168255600182018054909116905560028101849055600301929092558251908301518383015192517f3b40e5089937425d14cdd96947e5661868357e224af59bd8b24a4b8a330d4426936119bf93889390929091909384526001600160a01b03928316602085015291166040830152606082015260800190565b60405180910390a192915050565b6001600160a01b0385166000908152600c60205260408120548511611a275760405162461bcd60e51b815260206004820152601060248201526f185b5bdd5b9d081d1bdbc81cdb585b1b60821b6044820152606401610654565b6001600160a01b0386166000908152600d60205260409020541580611a6457506001600160a01b0386166000908152600d60205260409020548511155b611aa35760405162461bcd60e51b815260206004820152601060248201526f616d6f756e7420746f6f206c6172676560801b6044820152606401610654565b6001600160a01b0386166000908152600b602052604081208054879290611acb90849061265d565b90915550506040516001600160601b031933606090811b8216602084015288811b82166034840152604883018890526001600160c01b031960c088811b8216606886015287831b8416607086015286811b8216608486015246901b16608c84015230901b16609482015260009060a80160408051601f1981840301815291815281516020928301206000818152600a90935291205490915060ff1615611ba35760405162461bcd60e51b815260206004820152600d60248201526c7265636f72642065786973747360981b6044820152606401610654565b6000818152600a6020908152604091829020805460ff1916600117905581518381526001600160a01b038a81169282019290925233928101929092526060820188905267ffffffffffffffff878116608084015290861660a0830152841660c08201527f6298d7b58f235730b3b399dc5c282f15dae8b022e5fbbf89cee21fd83c8810a39060e00160405180910390a19695505050505050565b611c4681610f24565b611c925760405162461bcd60e51b815260206004820152601760248201527f4163636f756e74206973206e6f7420676f7665726e6f720000000000000000006044820152606401610654565b6001600160a01b038116600081815260026020908152604091829020805460ff1916905590519182527f1ebe834e73d60a5fec822c1e1727d34bc79f2ad977ed504581cc1822fe20fb5b91016108b9565b600080546001600160a01b038381166001600160a01b0319831681178455604051919092169283917f8be0079c531659141344cd1fd0a4f28419497f9722a3daafe3b4186f6b6457e09190a35050565b6040805160c08101825260008082526020808301829052828401829052606083018290526080830182905260a0830182905283518085019094528184528301849052909190805b60208301515183511015611e8d57611d9183612105565b90925090508160011415611dc057611db0611dab8461213f565b6121fc565b6001600160a01b03168452611d7a565b8160021415611de857611dd5611dab8461213f565b6001600160a01b03166020850152611d7a565b8160031415611e0c57611e02611dfd8461213f565b61220d565b6040850152611d7a565b8160041415611e3457611e21611dab8461213f565b6001600160a01b03166060850152611d7a565b8160051415611e5a57611e4683612244565b67ffffffffffffffff166080850152611d7a565b8160061415611e7e57611e74611e6f8461213f565b6122c6565b60a0850152611d7a565b611e8883826122de565b611d7a565b505050919050565b600354611ea0575050565b6001600160a01b03821660009081526005602052604090205480611ec357505050565b6001600160a01b03831660009081526004602052604081205460035490914291611eed8184612920565b611ef79190612942565b6001600160a01b038716600090815260066020526040902054909150811115611f2257849250611f2f565b611f2c8584612717565b92505b83831115611f745760405162461bcd60e51b81526020600482015260126024820152710766f6c756d652065786365656473206361760741b6044820152606401610654565b506001600160a01b039094166000908152600460209081526040808320939093556006905220929092555050565b600084815260076020526040902060030154156120015760405162461bcd60e51b815260206004820152601f60248201527f64656c61796564207472616e7366657220616c726561647920657869737473006044820152606401610654565b604080516080810182526001600160a01b0380861682528481166020808401918252838501868152426060860190815260008b8152600790935291869020945185549085166001600160a01b031991821617865592516001860180549190951693169290921790925551600283015551600390910155517fcbcfffe5102114216a85d3aceb14ad4b81a3935b1b5c468fadf3889eb9c5dce6906120a79086815260200190565b60405180910390a150505050565b600054600160a01b900460ff166109185760405162461bcd60e51b815260206004820152601460248201527314185d5cd8589b194e881b9bdd081c185d5cd95960621b6044820152606401610654565b600080600061211384612244565b9050612120600882612920565b925080600716600581111561213757612137612961565b915050915091565b6060600061214c83612244565b905060008184600001516121609190612717565b905083602001515181111561217457600080fd5b8167ffffffffffffffff81111561218d5761218d612977565b6040519080825280601f01601f1916602001820160405280156121b7576020820181803683370190505b50602080860151865192955091818601919083010160005b858110156121f15781810151838201526121ea602082612717565b90506121cf565b505050935250919050565b600061220782612355565b92915050565b600060208251111561221e57600080fd5b6020820151905081516020612233919061265d565b61223e906008612942565b1c919050565b602080820151825181019091015160009182805b600a8110156122c05783811a9150612271816007612942565b82607f16901b8517945081608016600014156122ae57612292816001612717565b865187906122a1908390612717565b9052509395945050505050565b806122b8816126fc565b915050612258565b50600080fd5b600081516020146122d657600080fd5b506020015190565b60008160058111156122f2576122f2612961565b14156123065761230182612244565b505050565b600281600581111561231a5761231a612961565b141561024857600061232b83612244565b9050808360000181815161233f9190612717565b9052506020830151518351111561230157600080fd5b6000815160141461236557600080fd5b5060200151600160601b900490565b60006020828403121561238657600080fd5b5035919050565b80356001600160a01b03811681146123a457600080fd5b919050565b600080604083850312156123bc57600080fd5b6123c58361238d565b946020939093013593505050565b60008083601f8401126123e557600080fd5b50813567ffffffffffffffff8111156123fd57600080fd5b6020830191508360208260051b850101111561241857600080fd5b9250929050565b6000806000806040858703121561243557600080fd5b843567ffffffffffffffff8082111561244d57600080fd5b612459888389016123d3565b9096509450602087013591508082111561247257600080fd5b5061247f878288016123d3565b95989497509550505050565b60006020828403121561249d57600080fd5b6124a68261238d565b9392505050565b803567ffffffffffffffff811681146123a457600080fd5b600080600080600060a086880312156124dd57600080fd5b6124e68661238d565b9450602086013593506124fb604087016124ad565b92506125096060870161238d565b9150612517608087016124ad565b90509295509295909350565b6000806000806000806000806080898b03121561253f57600080fd5b883567ffffffffffffffff8082111561255757600080fd5b818b0191508b601f83011261256b57600080fd5b81358181111561257a57600080fd5b8c602082850101111561258c57600080fd5b60209283019a509850908a013590808211156125a757600080fd5b6125b38c838d016123d3565b909850965060408b01359150808211156125cc57600080fd5b6125d88c838d016123d3565b909650945060608b01359150808211156125f157600080fd5b506125fe8b828c016123d3565b999c989b5096995094979396929594505050565b6020808252818101527f4f776e61626c653a2063616c6c6572206973206e6f7420746865206f776e6572604082015260600190565b634e487b7160e01b600052601160045260246000fd5b60008282101561266f5761266f612647565b500390565b6001600160a01b03929092168252602082015260400190565b60208082526016908201527521b0b63632b91034b9903737ba1033b7bb32b93737b960511b604082015260600190565b6020808252600f908201526e0d8cadccee8d040dad2e6dac2e8c6d608b1b604082015260600190565b634e487b7160e01b600052603260045260246000fd5b600060001982141561271057612710612647565b5060010190565b6000821982111561272a5761272a612647565b500190565b838152818360208301376000910160200190815292915050565b81835281816020850137506000828201602090810191909152601f909101601f19169091010190565b60008383855260208086019550808560051b8301018460005b878110156127fa57848303601f19018952813536889003601e190181126127b157600080fd5b8701803567ffffffffffffffff8111156127ca57600080fd5b8036038913156127d957600080fd5b6127e68582888501612749565b9a86019a945050509083019060010161278b565b5090979650505050505050565b8183526000602080850194508260005b85811015612843576001600160a01b036128308361238d565b1687529582019590820190600101612817565b509495945050505050565b81835260006001600160fb1b0383111561286757600080fd5b8260051b8083602087013760009401602001938452509192915050565b608081526000885180608084015260005b818110156128b2576020818c0181015160a0868401015201612895565b818111156128c457600060a083860101525b50601f01601f1916820182810360a090810160208501526128e8908201898b612772565b905082810360408401526128fd818789612807565b9050828103606084015261291281858761284e565b9a9950505050505050505050565b60008261293d57634e487b7160e01b600052601260045260246000fd5b500490565b600081600019048311821515161561295c5761295c612647565b500290565b634e487b7160e01b600052602160045260246000fd5b634e487b7160e01b600052604160045260246000fdfea2646970667358221220157bc23bb40f3223871d6fe78d9253a69341e2d15d82656cbee6ecd06c0296eb64736f6c63430008090033",
  "linkReferences": {},
  "deployedLinkReferences": {}
}