{
  "_format": "hh-sol-artifact-1",
  "contractName": "IntermediaryOriginalToken",
  "sourceName": "contracts/cBridge/pegged-bridge/tokens/IntermediaryOriginalToken.sol",
  "abi": [
    {
      "inputs": [
        {
          "internalType": "string",
          "name": "name_",
          "type": "string"
        },
        {
          "internalType": "string",
          "name": "symbol_",
          "type": "string"
        },
        {
          "internalType": "address[]",
          "name": "bridges_",
          "type": "address[]"
        },
        {
          "internalType": "address",
          "name": "canonical_",
          "type": "address"
        }
      ],
      "stateMutability": "nonpayable",
      "type": "constructor"
    },
    {
      "anonymous": false,
      "inputs": [
        {
          "indexed": true,
          "internalType": "address",
          "name": "owner",
          "type": "address"
        },
        {
          "indexed": true,
          "internalType": "address",
          "name": "spender",
          "type": "address"
        },
        {
          "indexed": false,
          "internalType": "uint256",
          "name": "value",
          "type": "uint256"
        }
      ],
      "name": "Approval",
      "type": "event"
    },
    {
      "anonymous": false,
      "inputs": [
        {
          "indexed": false,
          "internalType": "address",
          "name": "bridge",
          "type": "address"
        },
        {
          "indexed": false,
          "internalType": "bool",
          "name": "enable",
          "type": "bool"
        }
      ],
      "name": "BridgeUpdated",
      "type": "event"
    },
    {
      "anonymous": false,
      "inputs": [
        {
          "indexed": true,
          "internalType": "address",
          "name": "previousOwner",
          "type": "address"
        },
        {
          "indexed": true,
          "internalType": "address",
          "name": "newOwner",
          "type": "address"
        }
      ],
      "name": "OwnershipTransferred",
      "type": "event"
    },
    {
      "anonymous": false,
      "inputs": [
        {
          "indexed": true,
          "internalType": "address",
          "name": "from",
          "type": "address"
        },
        {
          "indexed": true,
          "internalType": "address",
          "name": "to",
          "type": "address"
        },
        {
          "indexed": false,
          "internalType": "uint256",
          "name": "value",
          "type": "uint256"
        }
      ],
      "name": "Transfer",
      "type": "event"
    },
    {
      "inputs": [
        {
          "internalType": "address",
          "name": "owner",
          "type": "address"
        },
        {
          "internalType": "address",
          "name": "spender",
          "type": "address"
        }
      ],
      "name": "allowance",
      "outputs": [
        {
          "internalType": "uint256",
          "name": "",
          "type": "uint256"
        }
      ],
      "stateMutability": "view",
      "type": "function"
    },
    {
      "inputs": [
        {
          "internalType": "address",
          "name": "spender",
          "type": "address"
        },
        {
          "internalType": "uint256",
          "name": "amount",
          "type": "uint256"
        }
      ],
      "name": "approve",
      "outputs": [
        {
          "internalType": "bool",
          "name": "",
          "type": "bool"
        }
      ],
      "stateMutability": "nonpayable",
      "type": "function"
    },
    {
      "inputs": [
        {
          "internalType": "address",
          "name": "account",
          "type": "address"
        }
      ],
      "name": "balanceOf",
      "outputs": [
        {
          "internalType": "uint256",
          "name": "",
          "type": "uint256"
        }
      ],
      "stateMutability": "view",
      "type": "function"
    },
    {
      "inputs": [
        {
          "internalType": "address",
          "name": "",
          "type": "address"
        }
      ],
      "name": "bridges",
      "outputs": [
        {
          "internalType": "bool",
          "name": "",
          "type": "bool"
        }
      ],
      "stateMutability": "view",
      "type": "function"
    },
    {
      "inputs": [],
      "name": "canonical",
      "outputs": [
        {
          "internalType": "address",
          "name": "",
          "type": "address"
        }
      ],
      "stateMutability": "view",
      "type": "function"
    },
    {
      "inputs": [],
      "name": "decimals",
      "outputs": [
        {
          "internalType": "uint8",
          "name": "",
          "type": "uint8"
        }
      ],
      "stateMutability": "view",
      "type": "function"
    },
    {
      "inputs": [
        {
          "internalType": "address",
          "name": "spender",
          "type": "address"
        },
        {
          "internalType": "uint256",
          "name": "subtractedValue",
          "type": "uint256"
        }
      ],
      "name": "decreaseAllowance",
      "outputs": [
        {
          "internalType": "bool",
          "name": "",
          "type": "bool"
        }
      ],
      "stateMutability": "nonpayable",
      "type": "function"
    },
    {
      "inputs": [],
      "name": "getOwner",
      "outputs": [
        {
          "internalType": "address",
          "name": "",
          "type": "address"
        }
      ],
      "stateMutability": "view",
      "type": "function"
    },
    {
      "inputs": [
        {
          "internalType": "address",
          "name": "spender",
          "type": "address"
        },
        {
          "internalType": "uint256",
          "name": "addedValue",
          "type": "uint256"
        }
      ],
      "name": "increaseAllowance",
      "outputs": [
        {
          "internalType": "bool",
          "name": "",
          "type": "bool"
        }
      ],
      "stateMutability": "nonpayable",
      "type": "function"
    },
    {
      "inputs": [],
      "name": "name",
      "outputs": [
        {
          "internalType": "string",
          "name": "",
          "type": "string"
        }
      ],
      "stateMutability": "view",
      "type": "function"
    },
    {
      "inputs": [],
      "name": "owner",
      "outputs": [
        {
          "internalType": "address",
          "name": "",
          "type": "address"
        }
      ],
      "stateMutability": "view",
      "type": "function"
    },
    {
      "inputs": [],
      "name": "renounceOwnership",
      "outputs": [],
      "stateMutability": "nonpayable",
      "type": "function"
    },
    {
      "inputs": [],
      "name": "symbol",
      "outputs": [
        {
          "internalType": "string",
          "name": "",
          "type": "string"
        }
      ],
      "stateMutability": "view",
      "type": "function"
    },
    {
      "inputs": [],
      "name": "totalSupply",
      "outputs": [
        {
          "internalType": "uint256",
          "name": "",
          "type": "uint256"
        }
      ],
      "stateMutability": "view",
      "type": "function"
    },
    {
      "inputs": [
        {
          "internalType": "address",
          "name": "_to",
          "type": "address"
        },
        {
          "internalType": "uint256",
          "name": "_amount",
          "type": "uint256"
        }
      ],
      "name": "transfer",
      "outputs": [
        {
          "internalType": "bool",
          "name": "",
          "type": "bool"
        }
      ],
      "stateMutability": "nonpayable",
      "type": "function"
    },
    {
      "inputs": [
        {
          "internalType": "address",
          "name": "_from",
          "type": "address"
        },
        {
          "internalType": "address",
          "name": "_to",
          "type": "address"
        },
        {
          "internalType": "uint256",
          "name": "_amount",
          "type": "uint256"
        }
      ],
      "name": "transferFrom",
      "outputs": [
        {
          "internalType": "bool",
          "name": "",
          "type": "bool"
        }
      ],
      "stateMutability": "nonpayable",
      "type": "function"
    },
    {
      "inputs": [
        {
          "internalType": "address",
          "name": "newOwner",
          "type": "address"
        }
      ],
      "name": "transferOwnership",
      "outputs": [],
      "stateMutability": "nonpayable",
      "type": "function"
    },
    {
      "inputs": [
        {
          "internalType": "address",
          "name": "_bridge",
          "type": "address"
        },
        {
          "internalType": "bool",
          "name": "_enable",
          "type": "bool"
        }
      ],
      "name": "updateBridge",
      "outputs": [],
      "stateMutability": "nonpayable",
      "type": "function"
    }
  ],
  "bytecode": "0x60a06040523480156200001157600080fd5b50604051620016ff380380620016ff8339810160408190526200003491620002fd565b8351849084906200004d9060039060208501906200015c565b508051620000639060049060208401906200015c565b505050620000806200007a6200010660201b60201c565b6200010a565b60005b8251811015620000ef57600160066000858481518110620000a857620000a862000416565b6020908102919091018101516001600160a01b03168252810191909152604001600020805460ff191691151591909117905580620000e6816200042c565b91505062000083565b506001600160a01b03166080525062000493915050565b3390565b600580546001600160a01b038381166001600160a01b0319831681179093556040519116919082907f8be0079c531659141344cd1fd0a4f28419497f9722a3daafe3b4186f6b6457e090600090a35050565b8280546200016a9062000456565b90600052602060002090601f0160209004810192826200018e5760008555620001d9565b82601f10620001a957805160ff1916838001178555620001d9565b82800160010185558215620001d9579182015b82811115620001d9578251825591602001919060010190620001bc565b50620001e7929150620001eb565b5090565b5b80821115620001e75760008155600101620001ec565b634e487b7160e01b600052604160045260246000fd5b604051601f8201601f191681016001600160401b038111828210171562000243576200024362000202565b604052919050565b600082601f8301126200025d57600080fd5b81516001600160401b0381111562000279576200027962000202565b60206200028f601f8301601f1916820162000218565b8281528582848701011115620002a457600080fd5b60005b83811015620002c4578581018301518282018401528201620002a7565b83811115620002d65760008385840101525b5095945050505050565b80516001600160a01b0381168114620002f857600080fd5b919050565b600080600080608085870312156200031457600080fd5b84516001600160401b03808211156200032c57600080fd5b6200033a888389016200024b565b95506020915081870151818111156200035257600080fd5b6200036089828a016200024b565b9550506040870151818111156200037657600080fd5b8701601f810189136200038857600080fd5b8051828111156200039d576200039d62000202565b8060051b9250620003b084840162000218565b818152928201840192848101908b851115620003cb57600080fd5b928501925b84841015620003f457620003e484620002e0565b82529285019290850190620003d0565b8097505050505050506200040b60608601620002e0565b905092959194509250565b634e487b7160e01b600052603260045260246000fd5b60006000198214156200044f57634e487b7160e01b600052601160045260246000fd5b5060010190565b600181811c908216806200046b57607f821691505b602082108114156200048d57634e487b7160e01b600052602260045260246000fd5b50919050565b60805161123b620004c4600039600081816101860152818161039c015281816103dd01526105ff015261123b6000f3fe608060405234801561001057600080fd5b50600436106101165760003560e01c806377a1c531116100a2578063a457c2d711610071578063a457c2d714610254578063a9059cbb14610267578063ced67f0c1461027a578063dd62ed3e1461029d578063f2fde38b146102b057600080fd5b806377a1c53114610220578063893d20e8146102335780638da5cb5b1461023b57806395d89b411461024c57600080fd5b806326afaadd116100e957806326afaadd14610181578063313ce567146101c057806339509351146101da57806370a08231146101ed578063715018a61461021657600080fd5b806306fdde031461011b578063095ea7b31461013957806318160ddd1461015c57806323b872dd1461016e575b600080fd5b6101236102c3565b6040516101309190610fe1565b60405180910390f35b61014c610147366004611030565b610355565b6040519015158152602001610130565b6002545b604051908152602001610130565b61014c61017c36600461105a565b61036d565b6101a87f000000000000000000000000000000000000000000000000000000000000000081565b6040516001600160a01b039091168152602001610130565b6101c86103d9565b60405160ff9091168152602001610130565b61014c6101e8366004611030565b610471565b6101606101fb366004611096565b6001600160a01b031660009081526020819052604090205490565b61021e610493565b005b61021e61022e3660046110bf565b6104a7565b6101a8610512565b6005546001600160a01b03166101a8565b610123610526565b61014c610262366004611030565b610535565b61014c610275366004611030565b6105c0565b61014c610288366004611096565b60066020526000908152604090205460ff1681565b6101606102ab3660046110f6565b610626565b61021e6102be366004611096565b610651565b6060600380546102d290611129565b80601f01602080910402602001604051908101604052809291908181526020018280546102fe90611129565b801561034b5780601f106103205761010080835404028352916020019161034b565b820191906000526020600020905b81548152906001019060200180831161032e57829003601f168201915b5050505050905090565b6000336103638185856106ca565b5060019392505050565b3360009081526006602052604081205460ff16156103c45761038f84836107ef565b6103c46001600160a01b037f0000000000000000000000000000000000000000000000000000000000000000168530856108ce565b6103cf84848461093f565b90505b9392505050565b60007f00000000000000000000000000000000000000000000000000000000000000006001600160a01b031663313ce5676040518163ffffffff1660e01b815260040160206040518083038186803b15801561043457600080fd5b505afa158015610448573d6000803e3d6000fd5b505050506040513d601f19601f8201168201806040525081019061046c9190611164565b905090565b6000336103638185856104848383610626565b61048e919061119d565b6106ca565b61049b610958565b6104a560006109b2565b565b6104af610958565b6001600160a01b038216600081815260066020908152604091829020805460ff19168515159081179091558251938452908301527fc055b4e789c2063cb72e97133fc94c4af61fd9b04767fa06b1946698aa66ca40910160405180910390a15050565b600061046c6005546001600160a01b031690565b6060600480546102d290611129565b600033816105438286610626565b9050838110156105a85760405162461bcd60e51b815260206004820152602560248201527f45524332303a2064656372656173656420616c6c6f77616e63652062656c6f77604482015264207a65726f60d81b60648201526084015b60405180910390fd5b6105b582868684036106ca565b506001949350505050565b6000806105cd8484610a04565b3360009081526006602052604090205490915060ff16156103d2576105f28484610a12565b6103d26001600160a01b037f0000000000000000000000000000000000000000000000000000000000000000168585610b5d565b6001600160a01b03918216600090815260016020908152604080832093909416825291909152205490565b610659610958565b6001600160a01b0381166106be5760405162461bcd60e51b815260206004820152602660248201527f4f776e61626c653a206e6577206f776e657220697320746865207a65726f206160448201526564647265737360d01b606482015260840161059f565b6106c7816109b2565b50565b6001600160a01b03831661072c5760405162461bcd60e51b8152602060048201526024808201527f45524332303a20617070726f76652066726f6d20746865207a65726f206164646044820152637265737360e01b606482015260840161059f565b6001600160a01b03821661078d5760405162461bcd60e51b815260206004820152602260248201527f45524332303a20617070726f766520746f20746865207a65726f206164647265604482015261737360f01b606482015260840161059f565b6001600160a01b0383811660008181526001602090815260408083209487168084529482529182902085905590518481527f8c5be1e5ebec7d5bd14f71427d1e84f3dd0314c0f7b2291e5b200ac8c7c3b92591015b60405180910390a3505050565b6001600160a01b0382166108455760405162461bcd60e51b815260206004820152601f60248201527f45524332303a206d696e7420746f20746865207a65726f206164647265737300604482015260640161059f565b8060026000828254610857919061119d565b90915550506001600160a01b0382166000908152602081905260408120805483929061088490849061119d565b90915550506040518181526001600160a01b038316906000907fddf252ad1be2c89b69c2b068fc378daa952ba7f163c4a11628f55a4df523b3ef9060200160405180910390a35050565b6040516001600160a01b03808516602483015283166044820152606481018290526109399085906323b872dd60e01b906084015b60408051601f198184030181529190526020810180516001600160e01b03166001600160e01b031990931692909217909152610b8d565b50505050565b60003361094d858285610c5f565b6105b5858585610cd3565b6005546001600160a01b031633146104a55760405162461bcd60e51b815260206004820181905260248201527f4f776e61626c653a2063616c6c6572206973206e6f7420746865206f776e6572604482015260640161059f565b600580546001600160a01b038381166001600160a01b0319831681179093556040519116919082907f8be0079c531659141344cd1fd0a4f28419497f9722a3daafe3b4186f6b6457e090600090a35050565b600033610363818585610cd3565b6001600160a01b038216610a725760405162461bcd60e51b815260206004820152602160248201527f45524332303a206275726e2066726f6d20746865207a65726f206164647265736044820152607360f81b606482015260840161059f565b6001600160a01b03821660009081526020819052604090205481811015610ae65760405162461bcd60e51b815260206004820152602260248201527f45524332303a206275726e20616d6f756e7420657863656564732062616c616e604482015261636560f01b606482015260840161059f565b6001600160a01b0383166000908152602081905260408120838303905560028054849290610b159084906111b5565b90915550506040518281526000906001600160a01b038516907fddf252ad1be2c89b69c2b068fc378daa952ba7f163c4a11628f55a4df523b3ef906020016107e2565b505050565b6040516001600160a01b038316602482015260448101829052610b5890849063a9059cbb60e01b90606401610902565b6000610be2826040518060400160405280602081526020017f5361666545524332303a206c6f772d6c6576656c2063616c6c206661696c6564815250856001600160a01b0316610ea19092919063ffffffff16565b805190915015610b585780806020019051810190610c0091906111cc565b610b585760405162461bcd60e51b815260206004820152602a60248201527f5361666545524332303a204552433230206f7065726174696f6e20646964206e6044820152691bdd081cdd58d8d9595960b21b606482015260840161059f565b6000610c6b8484610626565b905060001981146109395781811015610cc65760405162461bcd60e51b815260206004820152601d60248201527f45524332303a20696e73756666696369656e7420616c6c6f77616e6365000000604482015260640161059f565b61093984848484036106ca565b6001600160a01b038316610d375760405162461bcd60e51b815260206004820152602560248201527f45524332303a207472616e736665722066726f6d20746865207a65726f206164604482015264647265737360d81b606482015260840161059f565b6001600160a01b038216610d995760405162461bcd60e51b815260206004820152602360248201527f45524332303a207472616e7366657220746f20746865207a65726f206164647260448201526265737360e81b606482015260840161059f565b6001600160a01b03831660009081526020819052604090205481811015610e115760405162461bcd60e51b815260206004820152602660248201527f45524332303a207472616e7366657220616d6f756e7420657863656564732062604482015265616c616e636560d01b606482015260840161059f565b6001600160a01b03808516600090815260208190526040808220858503905591851681529081208054849290610e4890849061119d565b92505081905550826001600160a01b0316846001600160a01b03167fddf252ad1be2c89b69c2b068fc378daa952ba7f163c4a11628f55a4df523b3ef84604051610e9491815260200190565b60405180910390a3610939565b60606103cf8484600085856001600160a01b0385163b610f035760405162461bcd60e51b815260206004820152601d60248201527f416464726573733a2063616c6c20746f206e6f6e2d636f6e7472616374000000604482015260640161059f565b600080866001600160a01b03168587604051610f1f91906111e9565b60006040518083038185875af1925050503d8060008114610f5c576040519150601f19603f3d011682016040523d82523d6000602084013e610f61565b606091505b5091509150610f71828286610f7c565b979650505050505050565b60608315610f8b5750816103d2565b825115610f9b5782518084602001fd5b8160405162461bcd60e51b815260040161059f9190610fe1565b60005b83811015610fd0578181015183820152602001610fb8565b838111156109395750506000910152565b6020815260008251806020840152611000816040850160208701610fb5565b601f01601f19169190910160400192915050565b80356001600160a01b038116811461102b57600080fd5b919050565b6000806040838503121561104357600080fd5b61104c83611014565b946020939093013593505050565b60008060006060848603121561106f57600080fd5b61107884611014565b925061108660208501611014565b9150604084013590509250925092565b6000602082840312156110a857600080fd5b6103d282611014565b80151581146106c757600080fd5b600080604083850312156110d257600080fd5b6110db83611014565b915060208301356110eb816110b1565b809150509250929050565b6000806040838503121561110957600080fd5b61111283611014565b915061112060208401611014565b90509250929050565b600181811c9082168061113d57607f821691505b6020821081141561115e57634e487b7160e01b600052602260045260246000fd5b50919050565b60006020828403121561117657600080fd5b815160ff811681146103d257600080fd5b634e487b7160e01b600052601160045260246000fd5b600082198211156111b0576111b0611187565b500190565b6000828210156111c7576111c7611187565b500390565b6000602082840312156111de57600080fd5b81516103d2816110b1565b600082516111fb818460208701610fb5565b919091019291505056fea26469706673582212202f7e546f4f4b377df80c0fca3814ec6ecadc9c7db549dee383160ec4e147fe6364736f6c63430008090033",
  "linkReferences": {},
  "deployedLinkReferences": {}
}