{
  "_format": "hh-sol-artifact-1",
  "contractName": "NFTBridge",
  "sourceName": "contracts/cBridge/message/apps/nft-bridge/NFTBridge.sol",
  "abi": [
    {
      "inputs": [
        {
          "internalType": "address",
          "name": "_msgBus",
          "type": "address"
        }
      ],
      "stateMutability": "nonpayable",
      "type": "constructor"
    },
    {
      "anonymous": false,
      "inputs": [
        {
          "indexed": false,
          "internalType": "bytes",
          "name": "returnData",
          "type": "bytes"
        }
      ],
      "name": "ExtCallErr",
      "type": "event"
    },
    {
      "anonymous": false,
      "inputs": [
        {
          "indexed": false,
          "internalType": "uint256",
          "name": "amount",
          "type": "uint256"
        }
      ],
      "name": "FeeClaimed",
      "type": "event"
    },
    {
      "anonymous": false,
      "inputs": [
        {
          "indexed": false,
          "internalType": "address",
          "name": "messageBus",
          "type": "address"
        }
      ],
      "name": "MessageBusUpdated",
      "type": "event"
    },
    {
      "anonymous": false,
      "inputs": [
        {
          "indexed": true,
          "internalType": "address",
          "name": "previousOwner",
          "type": "address"
        },
        {
          "indexed": true,
          "internalType": "address",
          "name": "newOwner",
          "type": "address"
        }
      ],
      "name": "OwnershipTransferred",
      "type": "event"
    },
    {
      "anonymous": false,
      "inputs": [
        {
          "indexed": false,
          "internalType": "address",
          "name": "account",
          "type": "address"
        }
      ],
      "name": "Paused",
      "type": "event"
    },
    {
      "anonymous": false,
      "inputs": [
        {
          "indexed": false,
          "internalType": "address",
          "name": "account",
          "type": "address"
        }
      ],
      "name": "PauserAdded",
      "type": "event"
    },
    {
      "anonymous": false,
      "inputs": [
        {
          "indexed": false,
          "internalType": "address",
          "name": "account",
          "type": "address"
        }
      ],
      "name": "PauserRemoved",
      "type": "event"
    },
    {
      "anonymous": false,
      "inputs": [
        {
          "indexed": false,
          "internalType": "address",
          "name": "receiver",
          "type": "address"
        },
        {
          "indexed": false,
          "internalType": "address",
          "name": "nft",
          "type": "address"
        },
        {
          "indexed": false,
          "internalType": "uint256",
          "name": "id",
          "type": "uint256"
        },
        {
          "indexed": false,
          "internalType": "uint64",
          "name": "srcChid",
          "type": "uint64"
        }
      ],
      "name": "Received",
      "type": "event"
    },
    {
      "anonymous": false,
      "inputs": [
        {
          "indexed": false,
          "internalType": "address",
          "name": "sender",
          "type": "address"
        },
        {
          "indexed": false,
          "internalType": "address",
          "name": "srcNft",
          "type": "address"
        },
        {
          "indexed": false,
          "internalType": "uint256",
          "name": "id",
          "type": "uint256"
        },
        {
          "indexed": false,
          "internalType": "uint64",
          "name": "dstChid",
          "type": "uint64"
        },
        {
          "indexed": false,
          "internalType": "address",
          "name": "receiver",
          "type": "address"
        },
        {
          "indexed": false,
          "internalType": "address",
          "name": "dstNft",
          "type": "address"
        }
      ],
      "name": "Sent",
      "type": "event"
    },
    {
      "anonymous": false,
      "inputs": [
        {
          "indexed": false,
          "internalType": "address",
          "name": "sender",
          "type": "address"
        },
        {
          "indexed": false,
          "internalType": "address",
          "name": "srcNft",
          "type": "address"
        },
        {
          "indexed": false,
          "internalType": "uint256",
          "name": "id",
          "type": "uint256"
        },
        {
          "indexed": false,
          "internalType": "uint64",
          "name": "dstChid",
          "type": "uint64"
        },
        {
          "indexed": false,
          "internalType": "bytes",
          "name": "receiver",
          "type": "bytes"
        },
        {
          "indexed": false,
          "internalType": "bytes",
          "name": "dstNft",
          "type": "bytes"
        }
      ],
      "name": "Sent2",
      "type": "event"
    },
    {
      "anonymous": false,
      "inputs": [
        {
          "indexed": false,
          "internalType": "uint64",
          "name": "dstChid",
          "type": "uint64"
        },
        {
          "indexed": false,
          "internalType": "address",
          "name": "dstNftBridge",
          "type": "address"
        }
      ],
      "name": "SetDestBridge",
      "type": "event"
    },
    {
      "anonymous": false,
      "inputs": [
        {
          "indexed": false,
          "internalType": "uint64",
          "name": "dstChid",
          "type": "uint64"
        },
        {
          "indexed": false,
          "internalType": "bytes",
          "name": "dstNftBridge",
          "type": "bytes"
        }
      ],
      "name": "SetDestBridge2",
      "type": "event"
    },
    {
      "anonymous": false,
      "inputs": [
        {
          "indexed": false,
          "internalType": "address",
          "name": "srcNft",
          "type": "address"
        },
        {
          "indexed": false,
          "internalType": "uint64",
          "name": "dstChid",
          "type": "uint64"
        },
        {
          "indexed": false,
          "internalType": "address",
          "name": "dstNft",
          "type": "address"
        }
      ],
      "name": "SetDestNFT",
      "type": "event"
    },
    {
      "anonymous": false,
      "inputs": [
        {
          "indexed": false,
          "internalType": "address",
          "name": "srcNft",
          "type": "address"
        },
        {
          "indexed": false,
          "internalType": "uint64",
          "name": "dstChid",
          "type": "uint64"
        },
        {
          "indexed": false,
          "internalType": "bytes",
          "name": "dstNft",
          "type": "bytes"
        }
      ],
      "name": "SetDestNFT2",
      "type": "event"
    },
    {
      "anonymous": false,
      "inputs": [
        {
          "indexed": false,
          "internalType": "address",
          "name": "nft",
          "type": "address"
        },
        {
          "indexed": false,
          "internalType": "bool",
          "name": "isOrig",
          "type": "bool"
        }
      ],
      "name": "SetOrigNFT",
      "type": "event"
    },
    {
      "anonymous": false,
      "inputs": [
        {
          "indexed": false,
          "internalType": "uint64",
          "name": "chid",
          "type": "uint64"
        },
        {
          "indexed": false,
          "internalType": "uint256",
          "name": "fee",
          "type": "uint256"
        }
      ],
      "name": "SetTxFee",
      "type": "event"
    },
    {
      "anonymous": false,
      "inputs": [
        {
          "indexed": false,
          "internalType": "address",
          "name": "account",
          "type": "address"
        }
      ],
      "name": "Unpaused",
      "type": "event"
    },
    {
      "inputs": [
        {
          "internalType": "address",
          "name": "account",
          "type": "address"
        }
      ],
      "name": "addPauser",
      "outputs": [],
      "stateMutability": "nonpayable",
      "type": "function"
    },
    {
      "inputs": [],
      "name": "claimFee",
      "outputs": [],
      "stateMutability": "nonpayable",
      "type": "function"
    },
    {
      "inputs": [
        {
          "internalType": "address",
          "name": "_nft",
          "type": "address"
        }
      ],
      "name": "delOrigNFT",
      "outputs": [],
      "stateMutability": "nonpayable",
      "type": "function"
    },
    {
      "inputs": [
        {
          "internalType": "uint64",
          "name": "",
          "type": "uint64"
        }
      ],
      "name": "destBridge",
      "outputs": [
        {
          "internalType": "address",
          "name": "",
          "type": "address"
        }
      ],
      "stateMutability": "view",
      "type": "function"
    },
    {
      "inputs": [
        {
          "internalType": "uint64",
          "name": "",
          "type": "uint64"
        }
      ],
      "name": "destBridge2",
      "outputs": [
        {
          "internalType": "bytes",
          "name": "",
          "type": "bytes"
        }
      ],
      "stateMutability": "view",
      "type": "function"
    },
    {
      "inputs": [
        {
          "internalType": "address",
          "name": "",
          "type": "address"
        },
        {
          "internalType": "uint64",
          "name": "",
          "type": "uint64"
        }
      ],
      "name": "destNFTAddr",
      "outputs": [
        {
          "internalType": "address",
          "name": "",
          "type": "address"
        }
      ],
      "stateMutability": "view",
      "type": "function"
    },
    {
      "inputs": [
        {
          "internalType": "address",
          "name": "",
          "type": "address"
        },
        {
          "internalType": "uint64",
          "name": "",
          "type": "uint64"
        }
      ],
      "name": "destNFTAddr2",
      "outputs": [
        {
          "internalType": "bytes",
          "name": "",
          "type": "bytes"
        }
      ],
      "stateMutability": "view",
      "type": "function"
    },
    {
      "inputs": [
        {
          "internalType": "uint64",
          "name": "",
          "type": "uint64"
        }
      ],
      "name": "destTxFee",
      "outputs": [
        {
          "internalType": "uint256",
          "name": "",
          "type": "uint256"
        }
      ],
      "stateMutability": "view",
      "type": "function"
    },
    {
      "inputs": [
        {
          "internalType": "bytes",
          "name": "sender",
          "type": "bytes"
        },
        {
          "internalType": "uint64",
          "name": "srcChid",
          "type": "uint64"
        },
        {
          "internalType": "bytes",
          "name": "_message",
          "type": "bytes"
        },
        {
          "internalType": "address",
          "name": "",
          "type": "address"
        }
      ],
      "name": "executeMessage",
      "outputs": [
        {
          "internalType": "enum IMessageReceiverApp.ExecutionStatus",
          "name": "",
          "type": "uint8"
        }
      ],
      "stateMutability": "payable",
      "type": "function"
    },
    {
      "inputs": [
        {
          "internalType": "address",
          "name": "sender",
          "type": "address"
        },
        {
          "internalType": "uint64",
          "name": "srcChid",
          "type": "uint64"
        },
        {
          "internalType": "bytes",
          "name": "_message",
          "type": "bytes"
        },
        {
          "internalType": "address",
          "name": "",
          "type": "address"
        }
      ],
      "name": "executeMessage",
      "outputs": [
        {
          "internalType": "enum IMessageReceiverApp.ExecutionStatus",
          "name": "",
          "type": "uint8"
        }
      ],
      "stateMutability": "payable",
      "type": "function"
    },
    {
      "inputs": [
        {
          "internalType": "address",
          "name": "_sender",
          "type": "address"
        },
        {
          "internalType": "address",
          "name": "_token",
          "type": "address"
        },
        {
          "internalType": "uint256",
          "name": "_amount",
          "type": "uint256"
        },
        {
          "internalType": "uint64",
          "name": "_srcChainId",
          "type": "uint64"
        },
        {
          "internalType": "bytes",
          "name": "_message",
          "type": "bytes"
        },
        {
          "internalType": "address",
          "name": "_executor",
          "type": "address"
        }
      ],
      "name": "executeMessageWithTransfer",
      "outputs": [
        {
          "internalType": "enum IMessageReceiverApp.ExecutionStatus",
          "name": "",
          "type": "uint8"
        }
      ],
      "stateMutability": "payable",
      "type": "function"
    },
    {
      "inputs": [
        {
          "internalType": "address",
          "name": "_sender",
          "type": "address"
        },
        {
          "internalType": "address",
          "name": "_token",
          "type": "address"
        },
        {
          "internalType": "uint256",
          "name": "_amount",
          "type": "uint256"
        },
        {
          "internalType": "uint64",
          "name": "_srcChainId",
          "type": "uint64"
        },
        {
          "internalType": "bytes",
          "name": "_message",
          "type": "bytes"
        },
        {
          "internalType": "address",
          "name": "_executor",
          "type": "address"
        }
      ],
      "name": "executeMessageWithTransferFallback",
      "outputs": [
        {
          "internalType": "enum IMessageReceiverApp.ExecutionStatus",
          "name": "",
          "type": "uint8"
        }
      ],
      "stateMutability": "payable",
      "type": "function"
    },
    {
      "inputs": [
        {
          "internalType": "address",
          "name": "_token",
          "type": "address"
        },
        {
          "internalType": "uint256",
          "name": "_amount",
          "type": "uint256"
        },
        {
          "internalType": "bytes",
          "name": "_message",
          "type": "bytes"
        },
        {
          "internalType": "address",
          "name": "_executor",
          "type": "address"
        }
      ],
      "name": "executeMessageWithTransferRefund",
      "outputs": [
        {
          "internalType": "enum IMessageReceiverApp.ExecutionStatus",
          "name": "",
          "type": "uint8"
        }
      ],
      "stateMutability": "payable",
      "type": "function"
    },
    {
      "inputs": [
        {
          "internalType": "address",
          "name": "_msgBus",
          "type": "address"
        }
      ],
      "name": "init",
      "outputs": [],
      "stateMutability": "nonpayable",
      "type": "function"
    },
    {
      "inputs": [
        {
          "internalType": "address",
          "name": "account",
          "type": "address"
        }
      ],
      "name": "isPauser",
      "outputs": [
        {
          "internalType": "bool",
          "name": "",
          "type": "bool"
        }
      ],
      "stateMutability": "view",
      "type": "function"
    },
    {
      "inputs": [],
      "name": "messageBus",
      "outputs": [
        {
          "internalType": "address",
          "name": "",
          "type": "address"
        }
      ],
      "stateMutability": "view",
      "type": "function"
    },
    {
      "inputs": [
        {
          "internalType": "address",
          "name": "",
          "type": "address"
        }
      ],
      "name": "origNFT",
      "outputs": [
        {
          "internalType": "bool",
          "name": "",
          "type": "bool"
        }
      ],
      "stateMutability": "view",
      "type": "function"
    },
    {
      "inputs": [],
      "name": "owner",
      "outputs": [
        {
          "internalType": "address",
          "name": "",
          "type": "address"
        }
      ],
      "stateMutability": "view",
      "type": "function"
    },
    {
      "inputs": [],
      "name": "pause",
      "outputs": [],
      "stateMutability": "nonpayable",
      "type": "function"
    },
    {
      "inputs": [],
      "name": "paused",
      "outputs": [
        {
          "internalType": "bool",
          "name": "",
          "type": "bool"
        }
      ],
      "stateMutability": "view",
      "type": "function"
    },
    {
      "inputs": [
        {
          "internalType": "address",
          "name": "",
          "type": "address"
        }
      ],
      "name": "pausers",
      "outputs": [
        {
          "internalType": "bool",
          "name": "",
          "type": "bool"
        }
      ],
      "stateMutability": "view",
      "type": "function"
    },
    {
      "inputs": [
        {
          "internalType": "address",
          "name": "account",
          "type": "address"
        }
      ],
      "name": "removePauser",
      "outputs": [],
      "stateMutability": "nonpayable",
      "type": "function"
    },
    {
      "inputs": [],
      "name": "renouncePauser",
      "outputs": [],
      "stateMutability": "nonpayable",
      "type": "function"
    },
    {
      "inputs": [
        {
          "internalType": "uint64",
          "name": "_dstChid",
          "type": "uint64"
        },
        {
          "internalType": "address",
          "name": "_sender",
          "type": "address"
        },
        {
          "internalType": "bytes",
          "name": "_receiver",
          "type": "bytes"
        },
        {
          "internalType": "uint256",
          "name": "_id",
          "type": "uint256"
        },
        {
          "internalType": "string",
          "name": "_uri",
          "type": "string"
        }
      ],
      "name": "sendMsg",
      "outputs": [],
      "stateMutability": "payable",
      "type": "function"
    },
    {
      "inputs": [
        {
          "internalType": "uint64",
          "name": "_dstChid",
          "type": "uint64"
        },
        {
          "internalType": "address",
          "name": "_sender",
          "type": "address"
        },
        {
          "internalType": "address",
          "name": "_receiver",
          "type": "address"
        },
        {
          "internalType": "uint256",
          "name": "_id",
          "type": "uint256"
        },
        {
          "internalType": "string",
          "name": "_uri",
          "type": "string"
        }
      ],
      "name": "sendMsg",
      "outputs": [],
      "stateMutability": "payable",
      "type": "function"
    },
    {
      "inputs": [
        {
          "internalType": "address",
          "name": "_nft",
          "type": "address"
        },
        {
          "internalType": "uint256",
          "name": "_id",
          "type": "uint256"
        },
        {
          "internalType": "uint64",
          "name": "_dstChid",
          "type": "uint64"
        },
        {
          "internalType": "bytes",
          "name": "_receiver",
          "type": "bytes"
        }
      ],
      "name": "sendTo",
      "outputs": [],
      "stateMutability": "payable",
      "type": "function"
    },
    {
      "inputs": [
        {
          "internalType": "address",
          "name": "_nft",
          "type": "address"
        },
        {
          "internalType": "uint256",
          "name": "_id",
          "type": "uint256"
        },
        {
          "internalType": "uint64",
          "name": "_dstChid",
          "type": "uint64"
        },
        {
          "internalType": "address",
          "name": "_receiver",
          "type": "address"
        }
      ],
      "name": "sendTo",
      "outputs": [],
      "stateMutability": "payable",
      "type": "function"
    },
    {
      "inputs": [
        {
          "internalType": "uint64",
          "name": "dstChid",
          "type": "uint64"
        },
        {
          "internalType": "address",
          "name": "dstNftBridge",
          "type": "address"
        }
      ],
      "name": "setDestBridge",
      "outputs": [],
      "stateMutability": "nonpayable",
      "type": "function"
    },
    {
      "inputs": [
        {
          "internalType": "uint64",
          "name": "dstChid",
          "type": "uint64"
        },
        {
          "internalType": "bytes",
          "name": "dstNftBridge",
          "type": "bytes"
        }
      ],
      "name": "setDestBridge",
      "outputs": [],
      "stateMutability": "nonpayable",
      "type": "function"
    },
    {
      "inputs": [
        {
          "internalType": "uint64[]",
          "name": "dstChid",
          "type": "uint64[]"
        },
        {
          "internalType": "address[]",
          "name": "dstNftBridge",
          "type": "address[]"
        }
      ],
      "name": "setDestBridges",
      "outputs": [],
      "stateMutability": "nonpayable",
      "type": "function"
    },
    {
      "inputs": [
        {
          "internalType": "address",
          "name": "srcNft",
          "type": "address"
        },
        {
          "internalType": "uint64",
          "name": "dstChid",
          "type": "uint64"
        },
        {
          "internalType": "bytes",
          "name": "dstNft",
          "type": "bytes"
        }
      ],
      "name": "setDestNFT",
      "outputs": [],
      "stateMutability": "nonpayable",
      "type": "function"
    },
    {
      "inputs": [
        {
          "internalType": "address",
          "name": "srcNft",
          "type": "address"
        },
        {
          "internalType": "uint64",
          "name": "dstChid",
          "type": "uint64"
        },
        {
          "internalType": "address",
          "name": "dstNft",
          "type": "address"
        }
      ],
      "name": "setDestNFT",
      "outputs": [],
      "stateMutability": "nonpayable",
      "type": "function"
    },
    {
      "inputs": [
        {
          "internalType": "address",
          "name": "srcNft",
          "type": "address"
        },
        {
          "internalType": "uint64[]",
          "name": "dstChid",
          "type": "uint64[]"
        },
        {
          "internalType": "address[]",
          "name": "dstNft",
          "type": "address[]"
        }
      ],
      "name": "setDestNFTs",
      "outputs": [],
      "stateMutability": "nonpayable",
      "type": "function"
    },
    {
      "inputs": [
        {
          "internalType": "address",
          "name": "_messageBus",
          "type": "address"
        }
      ],
      "name": "setMessageBus",
      "outputs": [],
      "stateMutability": "nonpayable",
      "type": "function"
    },
    {
      "inputs": [
        {
          "internalType": "address",
          "name": "_nft",
          "type": "address"
        }
      ],
      "name": "setOrigNFT",
      "outputs": [],
      "stateMutability": "nonpayable",
      "type": "function"
    },
    {
      "inputs": [
        {
          "internalType": "uint64",
          "name": "chid",
          "type": "uint64"
        },
        {
          "internalType": "uint256",
          "name": "fee",
          "type": "uint256"
        }
      ],
      "name": "setTxFee",
      "outputs": [],
      "stateMutability": "nonpayable",
      "type": "function"
    },
    {
      "inputs": [
        {
          "internalType": "uint64",
          "name": "_dstChid",
          "type": "uint64"
        },
        {
          "internalType": "address",
          "name": "_nft",
          "type": "address"
        },
        {
          "internalType": "uint256",
          "name": "_id",
          "type": "uint256"
        }
      ],
      "name": "totalFee",
      "outputs": [
        {
          "internalType": "uint256",
          "name": "",
          "type": "uint256"
        }
      ],
      "stateMutability": "view",
      "type": "function"
    },
    {
      "inputs": [
        {
          "internalType": "address",
          "name": "newOwner",
          "type": "address"
        }
      ],
      "name": "transferOwnership",
      "outputs": [],
      "stateMutability": "nonpayable",
      "type": "function"
    },
    {
      "inputs": [],
      "name": "unpause",
      "outputs": [],
      "stateMutability": "nonpayable",
      "type": "function"
    }
  ],
  "bytecode": "0x60806040523480156200001157600080fd5b506040516200393638038062003936833981016040819052620000349162000195565b6200003f336200007d565b6001805460ff60a01b191690556200005733620000cd565b600180546001600160a01b0319166001600160a01b0392909216919091179055620001c7565b600080546001600160a01b038381166001600160a01b0319831681178455604051919092169283917f8be0079c531659141344cd1fd0a4f28419497f9722a3daafe3b4186f6b6457e09190a35050565b6001600160a01b03811660009081526002602052604090205460ff16156200013b5760405162461bcd60e51b815260206004820152601960248201527f4163636f756e7420697320616c72656164792070617573657200000000000000604482015260640160405180910390fd5b6001600160a01b038116600081815260026020908152604091829020805460ff1916600117905590519182527f6719d08c1888103bea251a4ed56406bd0c3e69723c8a1686e017e7bbe159b6f8910160405180910390a150565b600060208284031215620001a857600080fd5b81516001600160a01b0381168114620001c057600080fd5b9392505050565b61375f80620001d76000396000f3fe6080604052600436106102305760003560e01c80636ef8d66d1161012e5780639e041b9d116100ab578063ed99bf431161006f578063ed99bf4314610697578063edea7592146106b7578063ee91bab8146106d7578063f0cb57ce146106ea578063f2fde38b146106fd57600080fd5b80639e041b9d146105e35780639f825f0714610624578063a1a227fa14610644578063b2c8877514610664578063da754f441461067757600080fd5b80638da5cb5b116100f25780638da5cb5b1461055d57806395b6a1911461057b57806399d32fc41461059b5780639c1a65bd146105b05780639c649fdf146105d057600080fd5b80636ef8d66d146104e35780637cd2bffc1461047e57806380f51c12146104f857806382dc1ec4146105285780638456cb591461054857600080fd5b80633f4ba83a116101bc578063583624b711610180578063583624b71461045e5780635ab7afc61461047e5780635c975abb146104915780635d5b09f2146104b05780636b2c0f55146104c357600080fd5b80633f4ba83a146103c957806343a8c137146103de57806346fbf68e146103fe5780634cc423511461041e578063547cad121461043e57600080fd5b8063151ff4eb11610203578063151ff4eb146102d357806319ab453c1461030e5780631de13e431461032e57806327cbe7051461035b5780632d5fa47c146103a957600080fd5b8063063ce4e514610235578063065c38fd1461025e5780630bcb4982146102805780631140c84e14610293575b600080fd5b61024861024336600461297c565b61071d565b6040516102559190612a11565b60405180910390f35b34801561026a57600080fd5b5061027e610279366004612a39565b6107d4565b005b61024861028e366004612a56565b61086f565b34801561029f57600080fd5b506102c36102ae366004612a39565b60066020526000908152604090205460ff1681565b6040519015158152602001610255565b3480156102df57600080fd5b506103006102ee366004612ac9565b60036020526000908152604090205481565b604051908152602001610255565b34801561031a57600080fd5b5061027e610329366004612a39565b6108a5565b34801561033a57600080fd5b5061034e610349366004612ae4565b6108cf565b6040516102559190612b75565b34801561036757600080fd5b50610391610376366004612ac9565b6004602052600090815260409020546001600160a01b031681565b6040516001600160a01b039091168152602001610255565b3480156103b557600080fd5b5061027e6103c4366004612bcc565b610974565b3480156103d557600080fd5b5061027e610ab1565b3480156103ea57600080fd5b5061027e6103f9366004612c4e565b610b07565b34801561040a57600080fd5b506102c3610419366004612a39565b610bed565b34801561042a57600080fd5b5061034e610439366004612ac9565b610c0b565b34801561044a57600080fd5b5061027e610459366004612a39565b610c24565b34801561046a57600080fd5b5061027e610479366004612cb9565b610cab565b61024861048c366004612d0f565b610d5f565b34801561049d57600080fd5b50600154600160a01b900460ff166102c3565b61027e6104be366004612da5565b610d97565b3480156104cf57600080fd5b5061027e6104de366004612a39565b610fd4565b3480156104ef57600080fd5b5061027e611019565b34801561050457600080fd5b506102c3610513366004612a39565b60026020526000908152604090205460ff1681565b34801561053457600080fd5b5061027e610543366004612a39565b611022565b34801561055457600080fd5b5061027e611064565b34801561056957600080fd5b506000546001600160a01b0316610391565b34801561058757600080fd5b5061027e610596366004612e04565b6110b8565b3480156105a757600080fd5b5061027e61117a565b3480156105bc57600080fd5b506103006105cb366004612e4d565b611213565b6102486105de366004612e8c565b6114a8565b3480156105ef57600080fd5b506103916105fe366004612ae4565b60056020908152600092835260408084209091529082529020546001600160a01b031681565b34801561063057600080fd5b5061027e61063f366004612ed8565b611529565b34801561065057600080fd5b50600154610391906001600160a01b031681565b61027e610672366004612f02565b6115bb565b34801561068357600080fd5b5061027e610692366004612f53565b6117cf565b3480156106a357600080fd5b5061027e6106b2366004612a39565b611871565b3480156106c357600080fd5b5061027e6106d2366004612f8a565b611901565b61027e6106e5366004612fdc565b611991565b61027e6106f8366004613078565b611a9b565b34801561070957600080fd5b5061027e610718366004612a39565b611b7d565b6001546000906001600160a01b031633146107535760405162461bcd60e51b815260040161074a906130fa565b60405180910390fd5b600154600160a01b900460ff16806107af57506001600160401b03851660009081526007602052604090819020905161078c919061316c565b604051809103902087876040516107a4929190613208565b604051809103902014155b156107bc575060026107ca565b6107c7848487611c24565b90505b9695505050505050565b336107e76000546001600160a01b031690565b6001600160a01b03161461080d5760405162461bcd60e51b815260040161074a90613218565b6001600160a01b038116600081815260066020908152604091829020805460ff191660019081179091558251938452908301527f9800fb32bf5eb9a3b2e42c910912da10ed1881dc538475101797669146166bf891015b60405180910390a150565b6001546000906001600160a01b0316331461089c5760405162461bcd60e51b815260040161074a906130fa565b95945050505050565b6108ad611e53565b600180546001600160a01b0319166001600160a01b0392909216919091179055565b6008602090815260009283526040808420909152908252902080546108f390613131565b80601f016020809104026020016040519081016040528092919081815260200182805461091f90613131565b801561096c5780601f106109415761010080835404028352916020019161096c565b820191906000526020600020905b81548152906001019060200180831161094f57829003601f168201915b505050505081565b336109876000546001600160a01b031690565b6001600160a01b0316146109ad5760405162461bcd60e51b815260040161074a90613218565b8281146109ee5760405162461bcd60e51b815260206004820152600f60248201526e0d8cadccee8d040dad2e6dac2e8c6d608b1b604482015260640161074a565b60005b83811015610aa957828282818110610a0b57610a0b61324d565b9050602002016020810190610a209190612a39565b6001600160a01b038716600090815260056020526040812090878785818110610a4b57610a4b61324d565b9050602002016020810190610a609190612ac9565b6001600160401b03168152602081019190915260400160002080546001600160a01b0319166001600160a01b039290921691909117905580610aa181613279565b9150506109f1565b505050505050565b610aba33610bed565b610afd5760405162461bcd60e51b815260206004820152601460248201527321b0b63632b91034b9903737ba103830bab9b2b960611b604482015260640161074a565b610b05611ea9565b565b33610b1a6000546001600160a01b031690565b6001600160a01b031614610b405760405162461bcd60e51b815260040161074a90613218565b60005b83811015610be657828282818110610b5d57610b5d61324d565b9050602002016020810190610b729190612a39565b60046000878785818110610b8857610b8861324d565b9050602002016020810190610b9d9190612ac9565b6001600160401b03168152602081019190915260400160002080546001600160a01b0319166001600160a01b039290921691909117905580610bde81613279565b915050610b43565b5050505050565b6001600160a01b031660009081526002602052604090205460ff1690565b600760205260009081526040902080546108f390613131565b33610c376000546001600160a01b031690565b6001600160a01b031614610c5d5760405162461bcd60e51b815260040161074a90613218565b600180546001600160a01b0319166001600160a01b0383169081179091556040519081527f3f8223bcd8b3b875473e9f9e14e1ad075451a2b5ffd31591655da9a01516bf5e90602001610864565b33610cbe6000546001600160a01b031690565b6001600160a01b031614610ce45760405162461bcd60e51b815260040161074a90613218565b6001600160a01b03841660009081526008602090815260408083206001600160401b03871684529091529020610d1b908383612871565b507f1a8a0120788995f98396f44447190686d4b5978184ca4f9d726d541aed6fb7d684848484604051610d5194939291906132bd565b60405180910390a150505050565b6001546000906001600160a01b03163314610d8c5760405162461bcd60e51b815260040161074a906130fa565b979650505050505050565b610d9f611efe565b6040516331a9108f60e11b8152600481018590526001600160a01b03861690636352211e9060240160206040518083038186803b158015610ddf57600080fd5b505afa158015610df3573d6000803e3d6000fd5b505050506040513d601f19601f82011682018060405250810190610e1791906132f1565b6001600160a01b0316336001600160a01b031614610e695760405162461bcd60e51b815260206004820152600f60248201526e3737ba103a37b5b2b71037bbb732b960891b604482015260640161074a565b60405163c87b56dd60e01b8152600481018590526000906001600160a01b0387169063c87b56dd9060240160006040518083038186803b158015610eac57600080fd5b505afa158015610ec0573d6000803e3d6000fd5b505050506040513d6000823e601f3d908101601f19168201604052610ee891908101906133a3565b9050610ef48686611f4b565b600080610f0188876120f7565b91509150610f878287604051806080016040528089898080601f016020809104026020016040519081016040528093929190818152602001838380828437600092019190915250505090825250602080820187905260408083018e905260609092018990529051610f73929101613415565b6040516020818303038152906040526122f2565b7f161c0f80e624fd7198682c940eb06e3a33589fef44e083931a0a7908ea1a1a5e33898989898987604051610fc29796959493929190613477565b60405180910390a15050505050505050565b33610fe76000546001600160a01b031690565b6001600160a01b03161461100d5760405162461bcd60e51b815260040161074a90613218565b61101681612449565b50565b610b0533612449565b336110356000546001600160a01b031690565b6001600160a01b03161461105b5760405162461bcd60e51b815260040161074a90613218565b611016816124e7565b61106d33610bed565b6110b05760405162461bcd60e51b815260206004820152601460248201527321b0b63632b91034b9903737ba103830bab9b2b960611b604482015260640161074a565b610b05612591565b336110cb6000546001600160a01b031690565b6001600160a01b0316146110f15760405162461bcd60e51b815260040161074a90613218565b6001600160a01b0383811660008181526005602090815260408083206001600160401b0388168085529083529281902080546001600160a01b03191695871695861790558051938452908301919091528101919091527fa5a9b84f1b7eb437335ea919a3ff6de6e242e4733d0100a77391106173794871906060015b60405180910390a1505050565b3361118d6000546001600160a01b031690565b6001600160a01b0316146111b35760405162461bcd60e51b815260040161074a90613218565b6040514790339082156108fc029083906000818181858888f193505050501580156111e2573d6000803e3d6000fd5b506040518181527f62b10e3ff3d45b5ff546e740b893897facb1680285f989a64ae932d62c5388e190602001610864565b60405163c87b56dd60e01b81526004810182905260009081906001600160a01b0385169063c87b56dd9060240160006040518083038186803b15801561125857600080fd5b505afa15801561126c573d6000803e3d6000fd5b505050506040513d6000823e601f3d908101601f1916820160405261129491908101906133a3565b6001600160a01b03851660009081526008602090815260408083206001600160401b038a168452909152812080549293506060926112d190613131565b80601f01602080910402602001604051908101604052809291908181526020018280546112fd90613131565b801561134a5780601f1061131f5761010080835404028352916020019161134a565b820191906000526020600020905b81548152906001019060200180831161132d57829003601f168201915b505050505090506000815111156113a25760405180608001604052808281526020018281526020018681526020018481525060405160200161138c9190613415565b60405160208183030381529060405291506113f7565b6040518060800160405280876001600160a01b03168152602001876001600160a01b03168152602001868152602001848152506040516020016113e591906134da565b60405160208183030381529060405291505b6001600160401b0387166000908152600360205260409081902054600154915163299aee5160e11b815290916001600160a01b031690635335dca290611441908690600401612b75565b60206040518083038186803b15801561145957600080fd5b505afa15801561146d573d6000803e3d6000fd5b505050506040513d601f19601f820116820180604052508101906114919190613527565b61149b9190613540565b93505050505b9392505050565b6001546000906001600160a01b031633146114d55760405162461bcd60e51b815260040161074a906130fa565b600154600160a01b900460ff168061151157506001600160401b0385166000908152600460205260409020546001600160a01b03878116911614155b1561151e5750600261089c565b6107ca848487611c24565b3361153c6000546001600160a01b031690565b6001600160a01b0316146115625760405162461bcd60e51b815260040161074a90613218565b6001600160401b038216600081815260036020908152604091829020849055815192835282018390527f446a287c2114fa54d0083d97ce8f6f15b2ce29fa1c2df4b5a580d581ea7c4ad391015b60405180910390a15050565b6115c3611efe565b6040516331a9108f60e11b8152600481018490526001600160a01b03851690636352211e9060240160206040518083038186803b15801561160357600080fd5b505afa158015611617573d6000803e3d6000fd5b505050506040513d601f19601f8201168201806040525081019061163b91906132f1565b6001600160a01b0316336001600160a01b03161461168d5760405162461bcd60e51b815260206004820152600f60248201526e3737ba103a37b5b2b71037bbb732b960891b604482015260640161074a565b60405163c87b56dd60e01b8152600481018490526000906001600160a01b0386169063c87b56dd9060240160006040518083038186803b1580156116d057600080fd5b505afa1580156116e4573d6000803e3d6000fd5b505050506040513d6000823e601f3d908101601f1916820160405261170c91908101906133a3565b90506117188585611f4b565b60008061172587866125d4565b9150915061178582866040518060800160405280886001600160a01b03168152602001856001600160a01b031681526020018a81526020018781525060405160200161177191906134da565b6040516020818303038152906040526126b2565b7f40143e5b72b2109d658cfa709dec6213f60364dbd08b7253cdaf5f4e0c49561c3388888888866040516117be96959493929190613558565b60405180910390a150505050505050565b336117e26000546001600160a01b031690565b6001600160a01b0316146118085760405162461bcd60e51b815260040161074a90613218565b6001600160401b03821660008181526004602090815260409182902080546001600160a01b0319166001600160a01b0386169081179091558251938452908301527f3e776334b24c927645043308f89ac1ca734002e5a921ff384a70dcbb88c92cd491016115af565b336118846000546001600160a01b031690565b6001600160a01b0316146118aa5760405162461bcd60e51b815260040161074a90613218565b6001600160a01b0381166000818152600660209081526040808320805460ff191690558051938452908301919091527f9800fb32bf5eb9a3b2e42c910912da10ed1881dc538475101797669146166bf89101610864565b336119146000546001600160a01b031690565b6001600160a01b03161461193a5760405162461bcd60e51b815260040161074a90613218565b6001600160401b038316600090815260076020526040902061195d908383612871565b507ff00f7a8fa03b713f64d18cad2ad60051000162263e005d5ed22c692f42c4a2eb83838360405161116d9392919061359b565b611999611efe565b336000806119a7838b6120f7565b91509150611a4c828b60405180608001604052808c8c8080601f016020809104026020016040519081016040528093929190818152602001838380828437600092019190915250505090825250602080820187905260408083018d90528051601f8c018390048302810183019091528a8152606090920191908b908b90819084018382808284376000920191909152505050915250604051610f739190602001613415565b7f161c0f80e624fd7198682c940eb06e3a33589fef44e083931a0a7908ea1a1a5e8984888d8c8c87604051611a879796959493929190613477565b60405180910390a150505050505050505050565b611aa3611efe565b33600080611ab1838a6125d4565b91509150611b31828a60405180608001604052808b6001600160a01b03168152602001856001600160a01b031681526020018a815260200189898080601f016020809104026020016040519081016040528093929190818152602001838380828437600092019190915250505091525060405161177191906020016134da565b7f40143e5b72b2109d658cfa709dec6213f60364dbd08b7253cdaf5f4e0c49561c8884888c8b86604051611b6a96959493929190613558565b60405180910390a1505050505050505050565b33611b906000546001600160a01b031690565b6001600160a01b031614611bb65760405162461bcd60e51b815260040161074a90613218565b6001600160a01b038116611c1b5760405162461bcd60e51b815260206004820152602660248201527f4f776e61626c653a206e6577206f776e657220697320746865207a65726f206160448201526564647265737360d01b606482015260840161074a565b611016816127d1565b600080611c33848601866135be565b6020808201516001600160a01b031660009081526006909152604090205490915060ff16151560011415611d4a576020810151815160408084015190516323b872dd60e01b81523060048201526001600160a01b03928316602482015260448101919091529116906323b872dd90606401600060405180830381600087803b158015611cbe57600080fd5b505af1925050508015611ccf575060015b611d45573d808015611cfd576040519150601f19603f3d011682016040523d82523d6000602084013e611d02565b606091505b507f2c4d9008b1f58a23591c25a813b398a54f438d50b85bedea3d6e7302ee08a81081604051611d329190612b75565b60405180910390a16002925050506114a1565b611de2565b60208101518151604080840151606085015191516333eba6f160e11b81526001600160a01b03909416936367d74de293611d899390929160040161369b565b600060405180830381600087803b158015611da357600080fd5b505af1925050508015611db4575060015b611de2573d808015611cfd576040519150601f19603f3d011682016040523d82523d6000602084013e611d02565b805160208083015160408085015181516001600160a01b0395861681529490921692840192909252828201526001600160401b0385166060830152517f0aac355db06d21352d6b898d8e0ae1334d55f65b6c4c09e26951166a8eb4dba79181900360800190a1506001949350505050565b6000546001600160a01b031615611ea05760405162461bcd60e51b81526020600482015260116024820152701bdddb995c88185b1c9958591e481cd95d607a1b604482015260640161074a565b610b05336127d1565b611eb1612821565b6001805460ff60a01b191690557f5db9ee0a495bf2e6ff9c91a7834c1ba4fdd244a5e8aa4e537bd38aeae4b073aa335b6040516001600160a01b03909116815260200160405180910390a1565b600154600160a01b900460ff1615610b055760405162461bcd60e51b815260206004820152601060248201526f14185d5cd8589b194e881c185d5cd95960821b604482015260640161074a565b6001600160a01b03821660009081526006602052604090205460ff161515600114156120a1576040516323b872dd60e01b8152336004820152306024820152604481018290526001600160a01b038316906323b872dd90606401600060405180830381600087803b158015611fbf57600080fd5b505af1158015611fd3573d6000803e3d6000fd5b50506040516331a9108f60e11b8152600481018490523092506001600160a01b0385169150636352211e9060240160206040518083038186803b15801561201957600080fd5b505afa15801561202d573d6000803e3d6000fd5b505050506040513d601f19601f8201168201806040525081019061205191906132f1565b6001600160a01b03161461209d5760405162461bcd60e51b81526020600482015260136024820152721d1c985b9cd9995c881391950819985a5b1959606a1b604482015260640161074a565b5050565b604051630852cd8d60e31b8152600481018290526001600160a01b038316906342966c6890602401600060405180830381600087803b1580156120e357600080fd5b505af1158015610aa9573d6000803e3d6000fd5b6001600160401b03811660009081526007602052604090208054606091829161211f90613131565b80601f016020809104026020016040519081016040528092919081815260200182805461214b90613131565b80156121985780601f1061216d57610100808354040283529160200191612198565b820191906000526020600020905b81548152906001019060200180831161217b57829003601f168201915b505050505091508151600014156121ed5760405162461bcd60e51b815260206004820152601960248201527819195cdd0813919508109c9a5919d9481b9bdd08199bdd5b99603a1b604482015260640161074a565b6001600160a01b03841660009081526008602090815260408083206001600160401b03871684529091529020805461222490613131565b80601f016020809104026020016040519081016040528092919081815260200182805461225090613131565b801561229d5780601f106122725761010080835404028352916020019161229d565b820191906000526020600020905b81548152906001019060200180831161228057829003601f168201915b505050505090508051600014156122eb5760405162461bcd60e51b815260206004820152601260248201527119195cdd08139195081b9bdd08199bdd5b9960721b604482015260640161074a565b9250929050565b60015460405163299aee5160e11b81526000916001600160a01b031690635335dca290612323908590600401612b75565b60206040518083038186803b15801561233b57600080fd5b505afa15801561234f573d6000803e3d6000fd5b505050506040513d601f19601f820116820180604052508101906123739190613527565b6001600160401b0384166000908152600360205260409020549091506123999082613540565b3410156123db5760405162461bcd60e51b815260206004820152601060248201526f696e73756666696369656e742066656560801b604482015260640161074a565b600154604051637d7a101d60e01b81526001600160a01b0390911690637d7a101d908390612411908890889088906004016136c2565b6000604051808303818588803b15801561242a57600080fd5b505af115801561243e573d6000803e3d6000fd5b505050505050505050565b61245281610bed565b6124965760405162461bcd60e51b815260206004820152601560248201527420b1b1b7bab73a1034b9903737ba103830bab9b2b960591b604482015260640161074a565b6001600160a01b038116600081815260026020908152604091829020805460ff1916905590519182527fcd265ebaf09df2871cc7bd4133404a235ba12eff2041bb89d9c714a2621c7c7e9101610864565b6124f081610bed565b1561253d5760405162461bcd60e51b815260206004820152601960248201527f4163636f756e7420697320616c72656164792070617573657200000000000000604482015260640161074a565b6001600160a01b038116600081815260026020908152604091829020805460ff1916600117905590519182527f6719d08c1888103bea251a4ed56406bd0c3e69723c8a1686e017e7bbe159b6f89101610864565b612599611efe565b6001805460ff60a01b1916600160a01b1790557f62e78cea01bee320cd4e420270b5ea74000d11b0c9f74754ebdbfc544b05a258611ee13390565b6001600160401b0381166000908152600460205260408120546001600160a01b031690816126405760405162461bcd60e51b815260206004820152601960248201527819195cdd0813919508109c9a5919d9481b9bdd08199bdd5b99603a1b604482015260640161074a565b506001600160a01b0380841660009081526005602090815260408083206001600160401b038716845290915290205416806122eb5760405162461bcd60e51b815260206004820152601260248201527119195cdd08139195081b9bdd08199bdd5b9960721b604482015260640161074a565b60015460405163299aee5160e11b81526000916001600160a01b031690635335dca2906126e3908590600401612b75565b60206040518083038186803b1580156126fb57600080fd5b505afa15801561270f573d6000803e3d6000fd5b505050506040513d601f19601f820116820180604052508101906127339190613527565b6001600160401b0384166000908152600360205260409020549091506127599082613540565b34101561279b5760405162461bcd60e51b815260206004820152601060248201526f696e73756666696369656e742066656560801b604482015260640161074a565b600154604051634f9e72ad60e11b81526001600160a01b0390911690639f3ce55a908390612411908890889088906004016136f6565b600080546001600160a01b038381166001600160a01b0319831681178455604051919092169283917f8be0079c531659141344cd1fd0a4f28419497f9722a3daafe3b4186f6b6457e09190a35050565b600154600160a01b900460ff16610b055760405162461bcd60e51b815260206004820152601460248201527314185d5cd8589b194e881b9bdd081c185d5cd95960621b604482015260640161074a565b82805461287d90613131565b90600052602060002090601f01602090048101928261289f57600085556128e5565b82601f106128b85782800160ff198235161785556128e5565b828001600101855582156128e5579182015b828111156128e55782358255916020019190600101906128ca565b506128f19291506128f5565b5090565b5b808211156128f157600081556001016128f6565b60008083601f84011261291c57600080fd5b5081356001600160401b0381111561293357600080fd5b6020830191508360208285010111156122eb57600080fd5b80356001600160401b038116811461296257600080fd5b919050565b6001600160a01b038116811461101657600080fd5b6000806000806000806080878903121561299557600080fd5b86356001600160401b03808211156129ac57600080fd5b6129b88a838b0161290a565b90985096508691506129cc60208a0161294b565b955060408901359150808211156129e257600080fd5b506129ef89828a0161290a565b9094509250506060870135612a0381612967565b809150509295509295509295565b6020810160038310612a3357634e487b7160e01b600052602160045260246000fd5b91905290565b600060208284031215612a4b57600080fd5b81356114a181612967565b600080600080600060808688031215612a6e57600080fd5b8535612a7981612967565b94506020860135935060408601356001600160401b03811115612a9b57600080fd5b612aa78882890161290a565b9094509250506060860135612abb81612967565b809150509295509295909350565b600060208284031215612adb57600080fd5b6114a18261294b565b60008060408385031215612af757600080fd5b8235612b0281612967565b9150612b106020840161294b565b90509250929050565b60005b83811015612b34578181015183820152602001612b1c565b83811115612b43576000848401525b50505050565b60008151808452612b61816020860160208601612b19565b601f01601f19169290920160200192915050565b6020815260006114a16020830184612b49565b60008083601f840112612b9a57600080fd5b5081356001600160401b03811115612bb157600080fd5b6020830191508360208260051b85010111156122eb57600080fd5b600080600080600060608688031215612be457600080fd5b8535612bef81612967565b945060208601356001600160401b0380821115612c0b57600080fd5b612c1789838a01612b88565b90965094506040880135915080821115612c3057600080fd5b50612c3d88828901612b88565b969995985093965092949392505050565b60008060008060408587031215612c6457600080fd5b84356001600160401b0380821115612c7b57600080fd5b612c8788838901612b88565b90965094506020870135915080821115612ca057600080fd5b50612cad87828801612b88565b95989497509550505050565b60008060008060608587031215612ccf57600080fd5b8435612cda81612967565b9350612ce86020860161294b565b925060408501356001600160401b03811115612d0357600080fd5b612cad8782880161290a565b600080600080600080600060c0888a031215612d2a57600080fd5b8735612d3581612967565b96506020880135612d4581612967565b955060408801359450612d5a6060890161294b565b935060808801356001600160401b03811115612d7557600080fd5b612d818a828b0161290a565b90945092505060a0880135612d9581612967565b8091505092959891949750929550565b600080600080600060808688031215612dbd57600080fd5b8535612dc881612967565b945060208601359350612ddd6040870161294b565b925060608601356001600160401b03811115612df857600080fd5b612c3d8882890161290a565b600080600060608486031215612e1957600080fd5b8335612e2481612967565b9250612e326020850161294b565b91506040840135612e4281612967565b809150509250925092565b600080600060608486031215612e6257600080fd5b612e6b8461294b565b92506020840135612e7b81612967565b929592945050506040919091013590565b600080600080600060808688031215612ea457600080fd5b8535612eaf81612967565b9450612ebd6020870161294b565b935060408601356001600160401b03811115612a9b57600080fd5b60008060408385031215612eeb57600080fd5b612ef48361294b565b946020939093013593505050565b60008060008060808587031215612f1857600080fd5b8435612f2381612967565b935060208501359250612f386040860161294b565b91506060850135612f4881612967565b939692955090935050565b60008060408385031215612f6657600080fd5b612f6f8361294b565b91506020830135612f7f81612967565b809150509250929050565b600080600060408486031215612f9f57600080fd5b612fa88461294b565b925060208401356001600160401b03811115612fc357600080fd5b612fcf8682870161290a565b9497909650939450505050565b600080600080600080600060a0888a031215612ff757600080fd5b6130008861294b565b9650602088013561301081612967565b955060408801356001600160401b038082111561302c57600080fd5b6130388b838c0161290a565b909750955060608a0135945060808a013591508082111561305857600080fd5b506130658a828b0161290a565b989b979a50959850939692959293505050565b60008060008060008060a0878903121561309157600080fd5b61309a8761294b565b955060208701356130aa81612967565b945060408701356130ba81612967565b93506060870135925060808701356001600160401b038111156130dc57600080fd5b6130e889828a0161290a565b979a9699509497509295939492505050565b60208082526019908201527f63616c6c6572206973206e6f74206d6573736167652062757300000000000000604082015260600190565b600181811c9082168061314557607f821691505b6020821081141561316657634e487b7160e01b600052602260045260246000fd5b50919050565b600080835481600182811c91508083168061318857607f831692505b60208084108214156131a857634e487b7160e01b86526022600452602486fd5b8180156131bc57600181146131cd576131fa565b60ff198616895284890196506131fa565b60008a81526020902060005b868110156131f25781548b8201529085019083016131d9565b505084890196505b509498975050505050505050565b8183823760009101908152919050565b6020808252818101527f4f776e61626c653a2063616c6c6572206973206e6f7420746865206f776e6572604082015260600190565b634e487b7160e01b600052603260045260246000fd5b634e487b7160e01b600052601160045260246000fd5b600060001982141561328d5761328d613263565b5060010190565b81835281816020850137506000828201602090810191909152601f909101601f19169091010190565b6001600160a01b03851681526001600160401b03841660208201526060604082018190526000906107ca9083018486613294565b60006020828403121561330357600080fd5b81516114a181612967565b634e487b7160e01b600052604160045260246000fd5b604051608081016001600160401b03811182821017156133465761334661330e565b60405290565b604051601f8201601f191681016001600160401b03811182821017156133745761337461330e565b604052919050565b60006001600160401b038211156133955761339561330e565b50601f01601f191660200190565b6000602082840312156133b557600080fd5b81516001600160401b038111156133cb57600080fd5b8201601f810184136133dc57600080fd5b80516133ef6133ea8261337c565b61334c565b81815285602083850101111561340457600080fd5b61089c826020830160208601612b19565b60208152600082516080602084015261343160a0840182612b49565b90506020840151601f198085840301604086015261344f8383612b49565b92506040860151606086015260608601519150808584030160808601525061089c8282612b49565b6001600160a01b03888116825287166020820152604081018690526001600160401b038516606082015260c0608082018190526000906134ba9083018587613294565b82810360a08401526134cc8185612b49565b9a9950505050505050505050565b60208152600060018060a01b038084511660208401528060208501511660408401525060408301516060830152606083015160808084015261351f60a0840182612b49565b949350505050565b60006020828403121561353957600080fd5b5051919050565b6000821982111561355357613553613263565b500190565b6001600160a01b039687168152948616602086015260408501939093526001600160401b039190911660608401528316608083015290911660a082015260c00190565b6001600160401b038416815260406020820152600061089c604083018486613294565b600060208083850312156135d157600080fd5b82356001600160401b03808211156135e857600080fd5b90840190608082870312156135fc57600080fd5b613604613324565b823561360f81612967565b81528284013561361e81612967565b818501526040838101359082015260608301358281111561363e57600080fd5b80840193505086601f84011261365357600080fd5b823591506136636133ea8361337c565b828152878584860101111561367757600080fd5b82858501868301376000858483010152806060830152508094505050505092915050565b60018060a01b038416815282602082015260606040820152600061089c6060830184612b49565b6060815260006136d56060830186612b49565b6001600160401b038516602084015282810360408401526107ca8185612b49565b6001600160a01b03841681526001600160401b038316602082015260606040820181905260009061089c90830184612b4956fea264697066735822122069260ce065b37121929e8bcd764303e0ba34dab9112828023fb61f6f9cd5e56d64736f6c63430008090033",
  "linkReferences": {},
  "deployedLinkReferences": {}
}