{
  "_format": "hh-sol-artifact-1",
  "contractName": "SimpleGovernance",
  "sourceName": "contracts/cBridge/governed-owner/SimpleGovernance.sol",
  "abi": [
    {
      "inputs": [
        {
          "internalType": "address[]",
          "name": "_voters",
          "type": "address[]"
        },
        {
          "internalType": "uint256[]",
          "name": "_powers",
          "type": "uint256[]"
        },
        {
          "internalType": "address[]",
          "name": "_proxies",
          "type": "address[]"
        },
        {
          "internalType": "uint256",
          "name": "_activePeriod",
          "type": "uint256"
        },
        {
          "internalType": "uint256",
          "name": "_quorumThreshold",
          "type": "uint256"
        },
        {
          "internalType": "uint256",
          "name": "_fastPassThreshold",
          "type": "uint256"
        }
      ],
      "stateMutability": "nonpayable",
      "type": "constructor"
    },
    {
      "anonymous": false,
      "inputs": [
        {
          "indexed": false,
          "internalType": "address[]",
          "name": "voters",
          "type": "address[]"
        },
        {
          "indexed": false,
          "internalType": "uint256[]",
          "name": "powers",
          "type": "uint256[]"
        },
        {
          "indexed": false,
          "internalType": "address[]",
          "name": "proxies",
          "type": "address[]"
        },
        {
          "indexed": false,
          "internalType": "uint256",
          "name": "activePeriod",
          "type": "uint256"
        },
        {
          "indexed": false,
          "internalType": "uint256",
          "name": "quorumThreshold",
          "type": "uint256"
        },
        {
          "indexed": false,
          "internalType": "uint256",
          "name": "fastPassThreshold",
          "type": "uint256"
        }
      ],
      "name": "Initiated",
      "type": "event"
    },
    {
      "anonymous": false,
      "inputs": [
        {
          "indexed": false,
          "internalType": "uint256",
          "name": "proposalId",
          "type": "uint256"
        },
        {
          "indexed": false,
          "internalType": "enum SimpleGovernance.ParamName",
          "name": "name",
          "type": "uint8"
        },
        {
          "indexed": false,
          "internalType": "uint256",
          "name": "value",
          "type": "uint256"
        }
      ],
      "name": "ParamChangeProposalCreated",
      "type": "event"
    },
    {
      "anonymous": false,
      "inputs": [
        {
          "indexed": false,
          "internalType": "uint256",
          "name": "proposalId",
          "type": "uint256"
        },
        {
          "indexed": false,
          "internalType": "enum SimpleGovernance.ProposalType",
          "name": "proposalType",
          "type": "uint8"
        },
        {
          "indexed": false,
          "internalType": "address",
          "name": "target",
          "type": "address"
        },
        {
          "indexed": false,
          "internalType": "bytes",
          "name": "data",
          "type": "bytes"
        },
        {
          "indexed": false,
          "internalType": "uint256",
          "name": "deadline",
          "type": "uint256"
        },
        {
          "indexed": false,
          "internalType": "address",
          "name": "proposer",
          "type": "address"
        }
      ],
      "name": "ProposalCreated",
      "type": "event"
    },
    {
      "anonymous": false,
      "inputs": [
        {
          "indexed": false,
          "internalType": "uint256",
          "name": "proposalId",
          "type": "uint256"
        }
      ],
      "name": "ProposalExecuted",
      "type": "event"
    },
    {
      "anonymous": false,
      "inputs": [
        {
          "indexed": false,
          "internalType": "uint256",
          "name": "proposalId",
          "type": "uint256"
        },
        {
          "indexed": false,
          "internalType": "address",
          "name": "voter",
          "type": "address"
        },
        {
          "indexed": false,
          "internalType": "bool",
          "name": "vote",
          "type": "bool"
        }
      ],
      "name": "ProposalVoted",
      "type": "event"
    },
    {
      "anonymous": false,
      "inputs": [
        {
          "indexed": false,
          "internalType": "uint256",
          "name": "proposalId",
          "type": "uint256"
        },
        {
          "indexed": false,
          "internalType": "address[]",
          "name": "addrs",
          "type": "address[]"
        },
        {
          "indexed": false,
          "internalType": "bool[]",
          "name": "ops",
          "type": "bool[]"
        }
      ],
      "name": "ProxyUpdateProposalCreated",
      "type": "event"
    },
    {
      "anonymous": false,
      "inputs": [
        {
          "indexed": false,
          "internalType": "uint256",
          "name": "proposalId",
          "type": "uint256"
        },
        {
          "indexed": false,
          "internalType": "address",
          "name": "receiver",
          "type": "address"
        },
        {
          "indexed": false,
          "internalType": "address",
          "name": "token",
          "type": "address"
        },
        {
          "indexed": false,
          "internalType": "uint256",
          "name": "amount",
          "type": "uint256"
        }
      ],
      "name": "TransferTokenProposalCreated",
      "type": "event"
    },
    {
      "anonymous": false,
      "inputs": [
        {
          "indexed": false,
          "internalType": "uint256",
          "name": "proposalId",
          "type": "uint256"
        },
        {
          "indexed": false,
          "internalType": "address[]",
          "name": "voters",
          "type": "address[]"
        },
        {
          "indexed": false,
          "internalType": "uint256[]",
          "name": "powers",
          "type": "uint256[]"
        }
      ],
      "name": "VoterUpdateProposalCreated",
      "type": "event"
    },
    {
      "inputs": [],
      "name": "MAX_ACTIVE_PERIOD",
      "outputs": [
        {
          "internalType": "uint256",
          "name": "",
          "type": "uint256"
        }
      ],
      "stateMutability": "view",
      "type": "function"
    },
    {
      "inputs": [],
      "name": "MIN_ACTIVE_PERIOD",
      "outputs": [
        {
          "internalType": "uint256",
          "name": "",
          "type": "uint256"
        }
      ],
      "stateMutability": "view",
      "type": "function"
    },
    {
      "inputs": [],
      "name": "THRESHOLD_DECIMAL",
      "outputs": [
        {
          "internalType": "uint256",
          "name": "",
          "type": "uint256"
        }
      ],
      "stateMutability": "view",
      "type": "function"
    },
    {
      "inputs": [
        {
          "internalType": "uint256",
          "name": "_proposalId",
          "type": "uint256"
        },
        {
          "internalType": "enum SimpleGovernance.ProposalType",
          "name": "_type",
          "type": "uint8"
        }
      ],
      "name": "countVotes",
      "outputs": [
        {
          "internalType": "uint256",
          "name": "",
          "type": "uint256"
        },
        {
          "internalType": "uint256",
          "name": "",
          "type": "uint256"
        },
        {
          "internalType": "bool",
          "name": "",
          "type": "bool"
        }
      ],
      "stateMutability": "view",
      "type": "function"
    },
    {
      "inputs": [
        {
          "internalType": "enum SimpleGovernance.ParamName",
          "name": "_name",
          "type": "uint8"
        },
        {
          "internalType": "uint256",
          "name": "_value",
          "type": "uint256"
        }
      ],
      "name": "createParamChangeProposal",
      "outputs": [
        {
          "internalType": "uint256",
          "name": "",
          "type": "uint256"
        }
      ],
      "stateMutability": "nonpayable",
      "type": "function"
    },
    {
      "inputs": [
        {
          "internalType": "address",
          "name": "_target",
          "type": "address"
        },
        {
          "internalType": "bytes",
          "name": "_data",
          "type": "bytes"
        }
      ],
      "name": "createProposal",
      "outputs": [
        {
          "internalType": "uint256",
          "name": "",
          "type": "uint256"
        }
      ],
      "stateMutability": "nonpayable",
      "type": "function"
    },
    {
      "inputs": [
        {
          "internalType": "address",
          "name": "_proposer",
          "type": "address"
        },
        {
          "internalType": "address",
          "name": "_target",
          "type": "address"
        },
        {
          "internalType": "bytes",
          "name": "_data",
          "type": "bytes"
        },
        {
          "internalType": "enum SimpleGovernance.ProposalType",
          "name": "_type",
          "type": "uint8"
        }
      ],
      "name": "createProposal",
      "outputs": [
        {
          "internalType": "uint256",
          "name": "",
          "type": "uint256"
        }
      ],
      "stateMutability": "nonpayable",
      "type": "function"
    },
    {
      "inputs": [
        {
          "internalType": "address[]",
          "name": "_addrs",
          "type": "address[]"
        },
        {
          "internalType": "bool[]",
          "name": "_ops",
          "type": "bool[]"
        }
      ],
      "name": "createProxyUpdateProposal",
      "outputs": [
        {
          "internalType": "uint256",
          "name": "",
          "type": "uint256"
        }
      ],
      "stateMutability": "nonpayable",
      "type": "function"
    },
    {
      "inputs": [
        {
          "internalType": "address",
          "name": "_receiver",
          "type": "address"
        },
        {
          "internalType": "address",
          "name": "_token",
          "type": "address"
        },
        {
          "internalType": "uint256",
          "name": "_amount",
          "type": "uint256"
        }
      ],
      "name": "createTransferTokenProposal",
      "outputs": [
        {
          "internalType": "uint256",
          "name": "",
          "type": "uint256"
        }
      ],
      "stateMutability": "nonpayable",
      "type": "function"
    },
    {
      "inputs": [
        {
          "internalType": "address[]",
          "name": "_voters",
          "type": "address[]"
        },
        {
          "internalType": "uint256[]",
          "name": "_powers",
          "type": "uint256[]"
        }
      ],
      "name": "createVoterUpdateProposal",
      "outputs": [
        {
          "internalType": "uint256",
          "name": "",
          "type": "uint256"
        }
      ],
      "stateMutability": "nonpayable",
      "type": "function"
    },
    {
      "inputs": [
        {
          "internalType": "uint256",
          "name": "_proposalId",
          "type": "uint256"
        },
        {
          "internalType": "enum SimpleGovernance.ProposalType",
          "name": "_type",
          "type": "uint8"
        },
        {
          "internalType": "address",
          "name": "_target",
          "type": "address"
        },
        {
          "internalType": "bytes",
          "name": "_data",
          "type": "bytes"
        }
      ],
      "name": "executeProposal",
      "outputs": [],
      "stateMutability": "nonpayable",
      "type": "function"
    },
    {
      "inputs": [
        {
          "internalType": "uint256",
          "name": "_proposalId",
          "type": "uint256"
        },
        {
          "internalType": "address",
          "name": "_voter",
          "type": "address"
        }
      ],
      "name": "getVote",
      "outputs": [
        {
          "internalType": "bool",
          "name": "",
          "type": "bool"
        }
      ],
      "stateMutability": "view",
      "type": "function"
    },
    {
      "inputs": [],
      "name": "getVoters",
      "outputs": [
        {
          "internalType": "address[]",
          "name": "",
          "type": "address[]"
        },
        {
          "internalType": "uint256[]",
          "name": "",
          "type": "uint256[]"
        }
      ],
      "stateMutability": "view",
      "type": "function"
    },
    {
      "inputs": [],
      "name": "nextProposalId",
      "outputs": [
        {
          "internalType": "uint256",
          "name": "",
          "type": "uint256"
        }
      ],
      "stateMutability": "view",
      "type": "function"
    },
    {
      "inputs": [
        {
          "internalType": "enum SimpleGovernance.ParamName",
          "name": "",
          "type": "uint8"
        }
      ],
      "name": "params",
      "outputs": [
        {
          "internalType": "uint256",
          "name": "",
          "type": "uint256"
        }
      ],
      "stateMutability": "view",
      "type": "function"
    },
    {
      "inputs": [
        {
          "internalType": "uint256",
          "name": "",
          "type": "uint256"
        }
      ],
      "name": "proposals",
      "outputs": [
        {
          "internalType": "bytes32",
          "name": "dataHash",
          "type": "bytes32"
        },
        {
          "internalType": "uint256",
          "name": "deadline",
          "type": "uint256"
        }
      ],
      "stateMutability": "view",
      "type": "function"
    },
    {
      "inputs": [
        {
          "internalType": "address",
          "name": "",
          "type": "address"
        }
      ],
      "name": "proposerProxies",
      "outputs": [
        {
          "internalType": "bool",
          "name": "",
          "type": "bool"
        }
      ],
      "stateMutability": "view",
      "type": "function"
    },
    {
      "inputs": [
        {
          "internalType": "uint256",
          "name": "_proposalId",
          "type": "uint256"
        },
        {
          "internalType": "bool",
          "name": "_vote",
          "type": "bool"
        }
      ],
      "name": "voteProposal",
      "outputs": [],
      "stateMutability": "nonpayable",
      "type": "function"
    },
    {
      "inputs": [
        {
          "internalType": "address",
          "name": "",
          "type": "address"
        }
      ],
      "name": "voterPowers",
      "outputs": [
        {
          "internalType": "uint256",
          "name": "",
          "type": "uint256"
        }
      ],
      "stateMutability": "view",
      "type": "function"
    },
    {
      "inputs": [
        {
          "internalType": "uint256",
          "name": "",
          "type": "uint256"
        }
      ],
      "name": "voters",
      "outputs": [
        {
          "internalType": "address",
          "name": "",
          "type": "address"
        }
      ],
      "stateMutability": "view",
      "type": "function"
    },
    {
      "stateMutability": "payable",
      "type": "receive"
    }
  ],
  "bytecode": "0x60806040523480156200001157600080fd5b5060405162002dba38038062002dba8339810160408190526200003491620004be565b6000865111801562000047575084518651145b620000995760405162461bcd60e51b815260206004820152601360248201527f696e76616c696420696e697420766f746572730000000000000000000000000060448201526064015b60405180910390fd5b6224ea008311158015620000af5750610e108310155b620000fd5760405162461bcd60e51b815260206004820152601560248201527f696e76616c69642061637469766520706572696f640000000000000000000000604482015260640162000090565b6064821080156200010e5750818111155b6200015c5760405162461bcd60e51b815260206004820152601760248201527f696e76616c696420696e6974207468726573686f6c6473000000000000000000604482015260640162000090565b60005b8651811015620001c857620001b3878281518110620001825762000182620005c5565b60200260200101518783815181106200019f576200019f620005c5565b60200260200101516200030060201b60201c565b80620001bf81620005db565b9150506200015f565b5060005b84518110156200023857600160056000878481518110620001f157620001f1620005c5565b6020908102919091018101516001600160a01b03168252810191909152604001600020805460ff1916911515919091179055806200022f81620005db565b915050620001cc565b50600060208190527fad3228b676f7d3cd4284a5443f17f1962b36e491b30a40b2405849e597ba5fb58490557fada5013122d395ba3c54772283fb069b10426056ef8ca54750cb9bb552a59e7d839055600290527fabbb5caa7dda850e60932de0934eb1f9d0f59695050f761dc64e443e5030a5698190556040517f158672b778fadeb5bab2d0c5af83fa0f0e4d847119d334543d7df06d393d8fe590620002ec908890889088908890889088906200064b565b60405180910390a1505050505050620006d0565b600081116200033f5760405162461bcd60e51b815260206004820152600a6024820152693d32b937903837bbb2b960b11b604482015260640162000090565b6001600160a01b038216600090815260046020526040902054620003a957600380546001810182556000919091527fc2575a0e9e593c00f959f8c92f12db2869c3395a3b0502d05e2516446f71f85b0180546001600160a01b0319166001600160a01b0384161790555b6001600160a01b03909116600090815260046020526040902055565b634e487b7160e01b600052604160045260246000fd5b604051601f8201601f191681016001600160401b0381118282101715620004065762000406620003c5565b604052919050565b60006001600160401b038211156200042a576200042a620003c5565b5060051b60200190565b600082601f8301126200044657600080fd5b815160206200045f62000459836200040e565b620003db565b82815260059290921b840181019181810190868411156200047f57600080fd5b8286015b84811015620004b35780516001600160a01b0381168114620004a55760008081fd5b835291830191830162000483565b509695505050505050565b60008060008060008060c08789031215620004d857600080fd5b86516001600160401b0380821115620004f057600080fd5b620004fe8a838b0162000434565b97506020915081890151818111156200051657600080fd5b8901601f81018b136200052857600080fd5b80516200053962000459826200040e565b81815260059190911b8201840190848101908d8311156200055957600080fd5b928501925b8284101562000579578351825292850192908501906200055e565b60408d0151909a509450505050808211156200059457600080fd5b50620005a389828a0162000434565b945050606087015192506080870151915060a087015190509295509295509295565b634e487b7160e01b600052603260045260246000fd5b6000600019821415620005fe57634e487b7160e01b600052601160045260246000fd5b5060010190565b600081518084526020808501945080840160005b83811015620006405781516001600160a01b03168752958201959082019060010162000619565b509495945050505050565b60c0815260006200066060c083018962000605565b82810360208481019190915288518083528982019282019060005b8181101562000699578451835293830193918301916001016200067b565b50508481036040860152620006af818a62000605565b606086019890985250505050608081019290925260a0909101529392505050565b6126da80620006e06000396000f3fe6080604052600436106101235760003560e01c8063a24066fa116100a0578063df30b8ef11610064578063df30b8ef146103bf578063e6c942bd146103df578063eaac3915146103f4578063eb505dd514610414578063fd4802741461044157600080fd5b8063a24066fa146102e4578063bc3f931f146102fa578063bcfb9b6114610344578063cdd7225314610364578063da58c7d91461038757600080fd5b80633c10498c116100e75780633c10498c1461022e5780633ccbf0811461024e57806352a844471461026e57806356fd3def146102855780638b06fdcf146102a757600080fd5b8063013cf08b1461012f5780631937c7841461017d578063197ba2b0146101bd5780631adc646d146101eb5780632ab09d141461021857600080fd5b3661012a57005b600080fd5b34801561013b57600080fd5b5061016361014a366004611aee565b6001602081905260009182526040909120805491015482565b604080519283526020830191909152015b60405180910390f35b34801561018957600080fd5b506101ad610198366004611b1f565b60056020526000908152604090205460ff1681565b6040519015158152602001610174565b3480156101c957600080fd5b506101dd6101d8366004611bff565b610461565b604051908152602001610174565b3480156101f757600080fd5b506101dd610206366004611b1f565b60046020526000908152604090205481565b34801561022457600080fd5b506101dd60025481565b34801561023a57600080fd5b506101dd610249366004611c4e565b610477565b34801561025a57600080fd5b506101dd610269366004611cda565b610519565b34801561027a57600080fd5b506101dd6224ea0081565b34801561029157600080fd5b506102a56102a0366004611d59565b6105f4565b005b3480156102b357600080fd5b506102c76102c2366004611df5565b610c76565b604080519384526020840192909252151590820152606001610174565b3480156102f057600080fd5b506101dd610e1081565b34801561030657600080fd5b506101ad610315366004611e21565b60008281526001602090815260408083206001600160a01b038516845260020190915290205460ff1692915050565b34801561035057600080fd5b506102a561035f366004611e5f565b610e3c565b34801561037057600080fd5b50610379610f46565b604051610174929190611e84565b34801561039357600080fd5b506103a76103a2366004611aee565b6110e3565b6040516001600160a01b039091168152602001610174565b3480156103cb57600080fd5b506101dd6103da366004611cda565b61110d565b3480156103eb57600080fd5b506101dd606481565b34801561040057600080fd5b506101dd61040f366004611f17565b6111dc565b34801561042057600080fd5b506101dd61042f366004611f41565b60006020819052908152604090205481565b34801561044d57600080fd5b506101dd61045c366004611f5c565b611258565b60006104703384846000611338565b9392505050565b604080516001600160a01b0385811660208301528416818301526060808201849052825180830390910181526080909101909152600090816104bc3382846005611338565b604080518281526001600160a01b0389811660208301528816818301526060810187905290519192507f24acc0bfc20f5066ae099e5b19b383477c0b39b73753040457defd1086e7ce3c919081900360800190a195945050505050565b600083821461056f5760405162461bcd60e51b815260206004820181905260248201527f5f616464727320616e64205f6f7073206c656e677468206e6f74206d6174636860448201526064015b60405180910390fd5b600085858585604051602001610588949392919061204e565b604051602081830303815290604052905060006105a9336000846004611338565b90507f17a666a7f3280baa6bed91a68c95dcd406666c510fb0bd72d39477ec4edc9cec81888888886040516105e2959493929190612075565b60405180910390a19695505050505050565b3360009081526004602052604090205461065a5760405162461bcd60e51b815260206004820152602160248201527f6f6e6c7920766f7465722063616e206578656375746520612070726f706f73616044820152601b60fa1b6064820152608401610566565b60008581526001602081905260409091209081015442106106af5760405162461bcd60e51b815260206004820152600f60248201526e191958591b1a5b99481c185cdcd959608a1b6044820152606401610566565b80546040516106c89087908790879087906020016120db565b60405160208183030381529060405280519060200120146107215760405162461bcd60e51b81526020600482015260136024820152720c8c2e8c240d0c2e6d040dcdee840dac2e8c6d606b1b6044820152606401610566565b600060018083018290553382526002830160205260408220805460ff1916909117905561074e8787610c76565b92505050806107925760405162461bcd60e51b815260206004820152601060248201526f6e6f7420656e6f75676820766f74657360801b6044820152606401610566565b60008660058111156107a6576107a66120ae565b14806107c3575060018660058111156107c1576107c16120ae565b145b1561085c57600080866001600160a01b031686866040516107e5929190612115565b6000604051808303816000865af19150503d8060008114610822576040519150601f19603f3d011682016040523d82523d6000602084013e610827565b606091505b509150915081610836826114a2565b906108545760405162461bcd60e51b8152600401610566919061217d565b505050610c3a565b6002866005811115610870576108706120ae565b1415610a235760008061088585870187611f17565b915091508060008084600281111561089f5761089f6120ae565b60028111156108b0576108b06120ae565b815260208101919091526040016000908120919091558260028111156108d8576108d86120ae565b141561093c576224ea0081111580156108f35750610e108110155b6109375760405162461bcd60e51b81526020600482015260156024820152741a5b9d985b1a59081858dd1a5d99481c195c9a5bd9605a1b6044820152606401610566565b610a1c565b6001826002811115610950576109506120ae565b148061096d5750600282600281111561096b5761096b6120ae565b145b15610a1c57600060208190527fabbb5caa7dda850e60932de0934eb1f9d0f59695050f761dc64e443e5030a5695460019091527fada5013122d395ba3c54772283fb069b10426056ef8ca54750cb9bb552a59e7d54108015906109d05750606481105b80156109dc5750600081115b610a1c5760405162461bcd60e51b81526020600482015260116024820152701a5b9d985b1a59081d1a1c995cda1bdb19607a1b6044820152606401610566565b5050610c3a565b6003866005811115610a3757610a376120ae565b1415610af357600080610a4c85870187612222565b9150915060005b8251811015610854576000828281518110610a7057610a706122dc565b60200260200101511115610abf57610aba838281518110610a9357610a936122dc565b6020026020010151838381518110610aad57610aad6122dc565b6020026020010151611507565b610ae1565b610ae1838281518110610ad457610ad46122dc565b60200260200101516115c9565b80610aeb81612308565b915050610a53565b6004866005811115610b0757610b076120ae565b1415610bfb57600080610b1c85870187612323565b9150915060005b825181101561085457818181518110610b3e57610b3e6122dc565b602002602001015115610ba757600160056000858481518110610b6357610b636122dc565b60200260200101516001600160a01b03166001600160a01b0316815260200190815260200160002060006101000a81548160ff021916908315150217905550610be9565b60056000848381518110610bbd57610bbd6122dc565b6020908102919091018101516001600160a01b03168252810191909152604001600020805460ff191690555b80610bf381612308565b915050610b23565b6005866005811115610c0f57610c0f6120ae565b1415610c3a5760008080610c2586880188611c4e565b925092509250610c3683838361178b565b5050505b6040518781527f712ae1383f79ac853f8d882153778e0260ef8f03b504e2866e0593e04d2b291f9060200160405180910390a150505050505050565b600080808080805b60035463ffffffff82161015610d9557610ce18860038363ffffffff1681548110610cab57610cab6122dc565b60009182526020808320909101549282526001815260408083206001600160a01b03909416835260029093019052205460ff1690565b15610d35576004600060038363ffffffff1681548110610d0357610d036122dc565b60009182526020808320909101546001600160a01b03168352820192909252604001902054610d3290846123d7565b92505b6004600060038363ffffffff1681548110610d5257610d526122dc565b60009182526020808320909101546001600160a01b03168352820192909252604001902054610d8190836123d7565b915080610d8d816123ef565b915050610c7e565b5060006001876005811115610dac57610dac6120ae565b1415610de45750600260009081526020527fabbb5caa7dda850e60932de0934eb1f9d0f59695050f761dc64e443e5030a56954610e12565b50600160009081526020527fada5013122d395ba3c54772283fb069b10426056ef8ca54750cb9bb552a59e7d545b60006064610e208385612413565b610e2a9190612432565b92999398505050861015945092505050565b33600090815260046020526040902054610e885760405162461bcd60e51b815260206004820152600d60248201526c34b73b30b634b2103b37ba32b960991b6044820152606401610566565b6000828152600160208190526040909120908101544210610edd5760405162461bcd60e51b815260206004820152600f60248201526e191958591b1a5b99481c185cdcd959608a1b6044820152606401610566565b336000818152600283016020908152604091829020805460ff1916861515908117909155825187815291820193909352908101919091527f0def80f9a3b4c7a4251442658ccf516bf33ea4acaf31638fc6da8ebdb0f64c729060600160405180910390a1505050565b60608060006003805490506001600160401b03811115610f6857610f68611b3c565b604051908082528060200260200182016040528015610f91578160200160208202803683370190505b506003549091506000906001600160401b03811115610fb257610fb2611b3c565b604051908082528060200260200182016040528015610fdb578160200160208202803683370190505b50905060005b60035463ffffffff821610156110d95760038163ffffffff168154811061100a5761100a6122dc565b9060005260206000200160009054906101000a90046001600160a01b0316838263ffffffff1681518110611040576110406122dc565b60200260200101906001600160a01b031690816001600160a01b0316815250506004600060038363ffffffff168154811061107d5761107d6122dc565b60009182526020808320909101546001600160a01b031683528201929092526040019020548251839063ffffffff84169081106110bc576110bc6122dc565b6020908102919091010152806110d1816123ef565b915050610fe1565b5090939092509050565b600381815481106110f357600080fd5b6000918252602090912001546001600160a01b0316905081565b60008382146111695760405162461bcd60e51b815260206004820152602260248201527f766f7465727320616e6420706f77657273206c656e677468206e6f74206d61746044820152610c6d60f31b6064820152608401610566565b600085858585604051602001611182949392919061248a565b604051602081830303815290604052905060006111a3336000846003611338565b90507fcdd3bbb4db706a8c147c0a0b06f84b9c6240e234dce693114df5802f80ff96da81888888886040516105e29594939291906124b1565b60008083836040516020016111f29291906124f2565b60405160208183030381529060405290506000611213336000846002611338565b90507f03ca21bbd8905a0941439454af0577ee1f4cf8bd9c3d45ef0872a293fc63d9c98186866040516112489392919061250d565b60405180910390a1949350505050565b3360009081526005602052604081205460ff166112b75760405162461bcd60e51b815260206004820152601b60248201527f73656e646572206973206e6f7420612076616c69642070726f787900000000006044820152606401610566565b60008260058111156112cb576112cb6120ae565b14806112e8575060018260058111156112e6576112e66120ae565b145b6113235760405162461bcd60e51b815260206004820152600c60248201526b696e76616c6964207479706560a01b6044820152606401610566565b61132f85858585611338565b95945050505050565b6001600160a01b03841660009081526004602052604081205461139d5760405162461bcd60e51b815260206004820181905260248201527f6f6e6c7920766f7465722063616e2063726561746520612070726f706f73616c6044820152606401610566565b600280549060019060006113b183856123d7565b909155505060008181526001602090815260409182902091516113da918691899189910161252f565b60408051601f1981840301815291905280516020918201208255600080805290527fad3228b676f7d3cd4284a5443f17f1962b36e491b30a40b2405849e597ba5fb55461142790426123d7565b60018083019182556001600160a01b038916600090815260028401602052604090819020805460ff1916909217909155905490517fddb3e2b975a8b576dab0af8108180d63dc83bd9bb0b5bede5f305bf9fe2cfbed9161149091859188918b918b918e90612575565b60405180910390a15095945050505050565b60606044825110156114e757505060408051808201909152601d81527f5472616e73616374696f6e2072657665727465642073696c656e746c79000000602082015290565b6004820191508180602001905181019061150191906125d1565b92915050565b600081116115445760405162461bcd60e51b815260206004820152600a6024820152693d32b937903837bbb2b960b11b6044820152606401610566565b6001600160a01b0382166000908152600460205260409020546115ad57600380546001810182556000919091527fc2575a0e9e593c00f959f8c92f12db2869c3395a3b0502d05e2516446f71f85b0180546001600160a01b0319166001600160a01b0384161790555b6001600160a01b03909116600090815260046020526040902055565b6001600160a01b03811660009081526004602052604090205461161c5760405162461bcd60e51b815260206004820152600b60248201526a3737ba1030903b37ba32b960a91b6044820152606401610566565b60035460009061162e9060019061263e565b905060005b60035481101561175057826001600160a01b03166003828154811061165a5761165a6122dc565b6000918252602090912001546001600160a01b0316141561173e57818110156116eb5760038281548110611690576116906122dc565b600091825260209091200154600380546001600160a01b0390921691839081106116bc576116bc6122dc565b9060005260206000200160006101000a8154816001600160a01b0302191690836001600160a01b031602179055505b60038054806116fc576116fc612655565b60008281526020808220830160001990810180546001600160a01b03191690559092019092556001600160a01b03949094168152600490935250506040812055565b8061174881612308565b915050611633565b5060405162461bcd60e51b815260206004820152600f60248201526e1d9bdd195c881b9bdd08199bdd5b99608a1b6044820152606401610566565b6001600160a01b038216611847576000836001600160a01b03168261c35090604051600060405180830381858888f193505050503d80600081146117eb576040519150601f19603f3d011682016040523d82523d6000602084013e6117f0565b606091505b50509050806118415760405162461bcd60e51b815260206004820152601b60248201527f6661696c656420746f2073656e64206e617469766520746f6b656e00000000006044820152606401610566565b50505050565b61185b6001600160a01b0383168483611860565b505050565b604080516001600160a01b03848116602483015260448083018590528351808403909101815260649092018352602080830180516001600160e01b031663a9059cbb60e01b17905283518085019094528084527f5361666545524332303a206c6f772d6c6576656c2063616c6c206661696c65649084015261185b928692916000916118f091851690849061196d565b80519091501561185b578080602001905181019061190e919061266b565b61185b5760405162461bcd60e51b815260206004820152602a60248201527f5361666545524332303a204552433230206f7065726174696f6e20646964206e6044820152691bdd081cdd58d8d9595960b21b6064820152608401610566565b606061197c8484600085611984565b949350505050565b6060824710156119e55760405162461bcd60e51b815260206004820152602660248201527f416464726573733a20696e73756666696369656e742062616c616e636520666f6044820152651c8818d85b1b60d21b6064820152608401610566565b6001600160a01b0385163b611a3c5760405162461bcd60e51b815260206004820152601d60248201527f416464726573733a2063616c6c20746f206e6f6e2d636f6e74726163740000006044820152606401610566565b600080866001600160a01b03168587604051611a589190612688565b60006040518083038185875af1925050503d8060008114611a95576040519150601f19603f3d011682016040523d82523d6000602084013e611a9a565b606091505b5091509150611aaa828286611ab5565b979650505050505050565b60608315611ac4575081610470565b825115611ad45782518084602001fd5b8160405162461bcd60e51b8152600401610566919061217d565b600060208284031215611b0057600080fd5b5035919050565b6001600160a01b0381168114611b1c57600080fd5b50565b600060208284031215611b3157600080fd5b813561047081611b07565b634e487b7160e01b600052604160045260246000fd5b604051601f8201601f191681016001600160401b0381118282101715611b7a57611b7a611b3c565b604052919050565b60006001600160401b03821115611b9b57611b9b611b3c565b50601f01601f191660200190565b600082601f830112611bba57600080fd5b8135611bcd611bc882611b82565b611b52565b818152846020838601011115611be257600080fd5b816020850160208301376000918101602001919091529392505050565b60008060408385031215611c1257600080fd5b8235611c1d81611b07565b915060208301356001600160401b03811115611c3857600080fd5b611c4485828601611ba9565b9150509250929050565b600080600060608486031215611c6357600080fd5b8335611c6e81611b07565b92506020840135611c7e81611b07565b929592945050506040919091013590565b60008083601f840112611ca157600080fd5b5081356001600160401b03811115611cb857600080fd5b6020830191508360208260051b8501011115611cd357600080fd5b9250929050565b60008060008060408587031215611cf057600080fd5b84356001600160401b0380821115611d0757600080fd5b611d1388838901611c8f565b90965094506020870135915080821115611d2c57600080fd5b50611d3987828801611c8f565b95989497509550505050565b803560068110611d5457600080fd5b919050565b600080600080600060808688031215611d7157600080fd5b85359450611d8160208701611d45565b93506040860135611d9181611b07565b925060608601356001600160401b0380821115611dad57600080fd5b818801915088601f830112611dc157600080fd5b813581811115611dd057600080fd5b896020828501011115611de257600080fd5b9699959850939650602001949392505050565b60008060408385031215611e0857600080fd5b82359150611e1860208401611d45565b90509250929050565b60008060408385031215611e3457600080fd5b823591506020830135611e4681611b07565b809150509250929050565b8015158114611b1c57600080fd5b60008060408385031215611e7257600080fd5b823591506020830135611e4681611e51565b604080825283519082018190526000906020906060840190828701845b82811015611ec65781516001600160a01b031684529284019290840190600101611ea1565b5050508381038285015284518082528583019183019060005b81811015611efb57835183529284019291840191600101611edf565b5090979650505050505050565b803560038110611d5457600080fd5b60008060408385031215611f2a57600080fd5b611f3383611f08565b946020939093013593505050565b600060208284031215611f5357600080fd5b61047082611f08565b60008060008060808587031215611f7257600080fd5b8435611f7d81611b07565b93506020850135611f8d81611b07565b925060408501356001600160401b03811115611fa857600080fd5b611fb487828801611ba9565b925050611fc360608601611d45565b905092959194509250565b8183526000602080850194508260005b8581101561200c578135611ff181611b07565b6001600160a01b031687529582019590820190600101611fde565b509495945050505050565b8183526000602080850194508260005b8581101561200c57813561203a81611e51565b151587529582019590820190600101612027565b604081526000612062604083018688611fce565b8281036020840152611aaa818587612017565b85815260606020820152600061208f606083018688611fce565b82810360408401526120a2818587612017565b98975050505050505050565b634e487b7160e01b600052602160045260246000fd5b600681106120d4576120d46120ae565b60f81b9052565b6120e581866120c4565b6bffffffffffffffffffffffff198460601b16600182015281836015830137600091016015019081529392505050565b8183823760009101908152919050565b60005b83811015612140578181015183820152602001612128565b838111156118415750506000910152565b60008151808452612169816020860160208601612125565b601f01601f19169290920160200192915050565b6020815260006104706020830184612151565b60006001600160401b038211156121a9576121a9611b3c565b5060051b60200190565b600082601f8301126121c457600080fd5b813560206121d4611bc883612190565b82815260059290921b840181019181810190868411156121f357600080fd5b8286015b8481101561221757803561220a81611b07565b83529183019183016121f7565b509695505050505050565b6000806040838503121561223557600080fd5b82356001600160401b038082111561224c57600080fd5b612258868387016121b3565b935060209150818501358181111561226f57600080fd5b85019050601f8101861361228257600080fd5b8035612290611bc882612190565b81815260059190911b820183019083810190888311156122af57600080fd5b928401925b828410156122cd578335825292840192908401906122b4565b80955050505050509250929050565b634e487b7160e01b600052603260045260246000fd5b634e487b7160e01b600052601160045260246000fd5b600060001982141561231c5761231c6122f2565b5060010190565b6000806040838503121561233657600080fd5b82356001600160401b038082111561234d57600080fd5b612359868387016121b3565b935060209150818501358181111561237057600080fd5b85019050601f8101861361238357600080fd5b8035612391611bc882612190565b81815260059190911b820183019083810190888311156123b057600080fd5b928401925b828410156122cd5783356123c881611e51565b825292840192908401906123b5565b600082198211156123ea576123ea6122f2565b500190565b600063ffffffff80831681811415612409576124096122f2565b6001019392505050565b600081600019048311821515161561242d5761242d6122f2565b500290565b60008261244f57634e487b7160e01b600052601260045260246000fd5b500490565b81835260006001600160fb1b0383111561246d57600080fd5b8260051b8083602087013760009401602001938452509192915050565b60408152600061249e604083018688611fce565b8281036020840152611aaa818587612454565b8581526060602082015260006124cb606083018688611fce565b82810360408401526120a2818587612454565b600381106124ee576124ee6120ae565b9052565b6040810161250082856124de565b8260208301529392505050565b8381526060810161252160208301856124de565b826040830152949350505050565b61253981856120c4565b6bffffffffffffffffffffffff198360601b16600182015260008251612566816015850160208701612125565b91909101601501949350505050565b86815260006006871061258a5761258a6120ae565b602082018790526001600160a01b03868116604084015260c0606084018190526125b690840187612151565b60808401959095529290921660a09091015250949350505050565b6000602082840312156125e357600080fd5b81516001600160401b038111156125f957600080fd5b8201601f8101841361260a57600080fd5b8051612618611bc882611b82565b81815285602083850101111561262d57600080fd5b61132f826020830160208601612125565b600082821015612650576126506122f2565b500390565b634e487b7160e01b600052603160045260246000fd5b60006020828403121561267d57600080fd5b815161047081611e51565b6000825161269a818460208701612125565b919091019291505056fea2646970667358221220d40e689d08d53f378c57d678944c1d0f073992fd0a7da5a8744a711d4171e32664736f6c63430008090033",
  "linkReferences": {},
  "deployedLinkReferences": {}
}