{
  "_format": "hh-sol-artifact-1",
  "contractName": "MessageBusSender",
  "sourceName": "contracts/cBridge/message/messagebus/MessageBusSender.sol",
  "abi": [
    {
      "inputs": [
        {
          "internalType": "contract ISigsVerifier",
          "name": "_sigsVerifier",
          "type": "address"
        }
      ],
      "stateMutability": "nonpayable",
      "type": "constructor"
    },
    {
      "anonymous": false,
      "inputs": [
        {
          "indexed": false,
          "internalType": "uint256",
          "name": "feeBase",
          "type": "uint256"
        }
      ],
      "name": "FeeBaseUpdated",
      "type": "event"
    },
    {
      "anonymous": false,
      "inputs": [
        {
          "indexed": false,
          "internalType": "uint256",
          "name": "feePerByte",
          "type": "uint256"
        }
      ],
      "name": "FeePerByteUpdated",
      "type": "event"
    },
    {
      "anonymous": false,
      "inputs": [
        {
          "indexed": false,
          "internalType": "address",
          "name": "receiver",
          "type": "address"
        },
        {
          "indexed": false,
          "internalType": "uint256",
          "name": "amount",
          "type": "uint256"
        }
      ],
      "name": "FeeWithdrawn",
      "type": "event"
    },
    {
      "anonymous": false,
      "inputs": [
        {
          "indexed": true,
          "internalType": "address",
          "name": "sender",
          "type": "address"
        },
        {
          "indexed": false,
          "internalType": "address",
          "name": "receiver",
          "type": "address"
        },
        {
          "indexed": false,
          "internalType": "uint256",
          "name": "dstChainId",
          "type": "uint256"
        },
        {
          "indexed": false,
          "internalType": "bytes",
          "name": "message",
          "type": "bytes"
        },
        {
          "indexed": false,
          "internalType": "uint256",
          "name": "fee",
          "type": "uint256"
        }
      ],
      "name": "Message",
      "type": "event"
    },
    {
      "anonymous": false,
      "inputs": [
        {
          "indexed": true,
          "internalType": "address",
          "name": "sender",
          "type": "address"
        },
        {
          "indexed": false,
          "internalType": "bytes",
          "name": "receiver",
          "type": "bytes"
        },
        {
          "indexed": false,
          "internalType": "uint256",
          "name": "dstChainId",
          "type": "uint256"
        },
        {
          "indexed": false,
          "internalType": "bytes",
          "name": "message",
          "type": "bytes"
        },
        {
          "indexed": false,
          "internalType": "uint256",
          "name": "fee",
          "type": "uint256"
        }
      ],
      "name": "Message2",
      "type": "event"
    },
    {
      "anonymous": false,
      "inputs": [
        {
          "indexed": true,
          "internalType": "address",
          "name": "sender",
          "type": "address"
        },
        {
          "indexed": false,
          "internalType": "address",
          "name": "receiver",
          "type": "address"
        },
        {
          "indexed": false,
          "internalType": "uint256",
          "name": "dstChainId",
          "type": "uint256"
        },
        {
          "indexed": false,
          "internalType": "address",
          "name": "bridge",
          "type": "address"
        },
        {
          "indexed": false,
          "internalType": "bytes32",
          "name": "srcTransferId",
          "type": "bytes32"
        },
        {
          "indexed": false,
          "internalType": "bytes",
          "name": "message",
          "type": "bytes"
        },
        {
          "indexed": false,
          "internalType": "uint256",
          "name": "fee",
          "type": "uint256"
        }
      ],
      "name": "MessageWithTransfer",
      "type": "event"
    },
    {
      "anonymous": false,
      "inputs": [
        {
          "indexed": true,
          "internalType": "address",
          "name": "previousOwner",
          "type": "address"
        },
        {
          "indexed": true,
          "internalType": "address",
          "name": "newOwner",
          "type": "address"
        }
      ],
      "name": "OwnershipTransferred",
      "type": "event"
    },
    {
      "inputs": [
        {
          "internalType": "bytes",
          "name": "_message",
          "type": "bytes"
        }
      ],
      "name": "calcFee",
      "outputs": [
        {
          "internalType": "uint256",
          "name": "",
          "type": "uint256"
        }
      ],
      "stateMutability": "view",
      "type": "function"
    },
    {
      "inputs": [],
      "name": "feeBase",
      "outputs": [
        {
          "internalType": "uint256",
          "name": "",
          "type": "uint256"
        }
      ],
      "stateMutability": "view",
      "type": "function"
    },
    {
      "inputs": [],
      "name": "feePerByte",
      "outputs": [
        {
          "internalType": "uint256",
          "name": "",
          "type": "uint256"
        }
      ],
      "stateMutability": "view",
      "type": "function"
    },
    {
      "inputs": [],
      "name": "owner",
      "outputs": [
        {
          "internalType": "address",
          "name": "",
          "type": "address"
        }
      ],
      "stateMutability": "view",
      "type": "function"
    },
    {
      "inputs": [
        {
          "internalType": "bytes",
          "name": "_receiver",
          "type": "bytes"
        },
        {
          "internalType": "uint256",
          "name": "_dstChainId",
          "type": "uint256"
        },
        {
          "internalType": "bytes",
          "name": "_message",
          "type": "bytes"
        }
      ],
      "name": "sendMessage",
      "outputs": [],
      "stateMutability": "payable",
      "type": "function"
    },
    {
      "inputs": [
        {
          "internalType": "address",
          "name": "_receiver",
          "type": "address"
        },
        {
          "internalType": "uint256",
          "name": "_dstChainId",
          "type": "uint256"
        },
        {
          "internalType": "bytes",
          "name": "_message",
          "type": "bytes"
        }
      ],
      "name": "sendMessage",
      "outputs": [],
      "stateMutability": "payable",
      "type": "function"
    },
    {
      "inputs": [
        {
          "internalType": "address",
          "name": "_receiver",
          "type": "address"
        },
        {
          "internalType": "uint256",
          "name": "_dstChainId",
          "type": "uint256"
        },
        {
          "internalType": "address",
          "name": "_srcBridge",
          "type": "address"
        },
        {
          "internalType": "bytes32",
          "name": "_srcTransferId",
          "type": "bytes32"
        },
        {
          "internalType": "bytes",
          "name": "_message",
          "type": "bytes"
        }
      ],
      "name": "sendMessageWithTransfer",
      "outputs": [],
      "stateMutability": "payable",
      "type": "function"
    },
    {
      "inputs": [
        {
          "internalType": "uint256",
          "name": "_fee",
          "type": "uint256"
        }
      ],
      "name": "setFeeBase",
      "outputs": [],
      "stateMutability": "nonpayable",
      "type": "function"
    },
    {
      "inputs": [
        {
          "internalType": "uint256",
          "name": "_fee",
          "type": "uint256"
        }
      ],
      "name": "setFeePerByte",
      "outputs": [],
      "stateMutability": "nonpayable",
      "type": "function"
    },
    {
      "inputs": [],
      "name": "sigsVerifier",
      "outputs": [
        {
          "internalType": "contract ISigsVerifier",
          "name": "",
          "type": "address"
        }
      ],
      "stateMutability": "view",
      "type": "function"
    },
    {
      "inputs": [
        {
          "internalType": "address",
          "name": "newOwner",
          "type": "address"
        }
      ],
      "name": "transferOwnership",
      "outputs": [],
      "stateMutability": "nonpayable",
      "type": "function"
    },
    {
      "inputs": [
        {
          "internalType": "address",
          "name": "_account",
          "type": "address"
        },
        {
          "internalType": "uint256",
          "name": "_cumulativeFee",
          "type": "uint256"
        },
        {
          "internalType": "bytes[]",
          "name": "_sigs",
          "type": "bytes[]"
        },
        {
          "internalType": "address[]",
          "name": "_signers",
          "type": "address[]"
        },
        {
          "internalType": "uint256[]",
          "name": "_powers",
          "type": "uint256[]"
        }
      ],
      "name": "withdrawFee",
      "outputs": [],
      "stateMutability": "nonpayable",
      "type": "function"
    },
    {
      "inputs": [
        {
          "internalType": "address",
          "name": "",
          "type": "address"
        }
      ],
      "name": "withdrawnFees",
      "outputs": [
        {
          "internalType": "uint256",
          "name": "",
          "type": "uint256"
        }
      ],
      "stateMutability": "view",
      "type": "function"
    }
  ],
  "bytecode": "0x60a060405234801561001057600080fd5b506040516110ba3803806110ba83398101604081905261002f91610099565b61003833610049565b6001600160a01b03166080526100c9565b600080546001600160a01b038381166001600160a01b0319831681178455604051919092169283917f8be0079c531659141344cd1fd0a4f28419497f9722a3daafe3b4186f6b6457e09190a35050565b6000602082840312156100ab57600080fd5b81516001600160a01b03811681146100c257600080fd5b9392505050565b608051610fcf6100eb600039600081816101fc01526103950152610fcf6000f3fe6080604052600436106100c25760003560e01c80638da5cb5b1161007f578063ccf2683b11610059578063ccf2683b146101ea578063e2c1ed251461021e578063f2fde38b1461023e578063f60bbe2a1461025e57600080fd5b80638da5cb5b1461018f57806395e911a8146101c15780639f3ce55a146101d757600080fd5b806306c28bd6146100c75780632ff4c411146100e95780634289fbb3146101095780635335dca21461011c5780635b3e5f501461014f5780637d7a101d1461017c575b600080fd5b3480156100d357600080fd5b506100e76100e2366004610943565b610274565b005b3480156100f557600080fd5b506100e76101043660046109c4565b6102f2565b6100e7610117366004610aba565b61057e565b34801561012857600080fd5b5061013c610137366004610b32565b610667565b6040519081526020015b60405180910390f35b34801561015b57600080fd5b5061013c61016a366004610b74565b60036020526000908152604090205481565b6100e761018a366004610b8f565b61068b565b34801561019b57600080fd5b506000546001600160a01b03165b6040516001600160a01b039091168152602001610146565b3480156101cd57600080fd5b5061013c60015481565b6100e76101e5366004610c09565b6106e8565b3480156101f657600080fd5b506101a97f000000000000000000000000000000000000000000000000000000000000000081565b34801561022a57600080fd5b506100e7610239366004610943565b610742565b34801561024a57600080fd5b506100e7610259366004610b74565b6107b0565b34801561026a57600080fd5b5061013c60025481565b336102876000546001600160a01b031690565b6001600160a01b0316146102b65760405162461bcd60e51b81526004016102ad90610c63565b60405180910390fd5b60018190556040518181527f892dfdc99ecd3bb4f2f2cb118dca02f0bd16640ff156d3c6459d4282e336a5f2906020015b60405180910390a150565b6000463060405160200161033692919091825260601b6bffffffffffffffffffffffff191660208201526a776974686472617746656560a81b6034820152603f0190565b60408051808303601f19018152828252805160209182012090830181905260608c901b6bffffffffffffffffffffffff19168383015260548084018c9052825180850390910181526074840192839052633416de1160e11b90925292507f00000000000000000000000000000000000000000000000000000000000000006001600160a01b03169163682dbc22916103dc918b908b908b908b908b908b90607801610dcf565b60006040518083038186803b1580156103f457600080fd5b505afa158015610408573d6000803e3d6000fd5b505050506001600160a01b03891660009081526003602052604081205461042f908a610e81565b9050600081116104815760405162461bcd60e51b815260206004820152601960248201527f4e6f206e657720616d6f756e7420746f2077697468647261770000000000000060448201526064016102ad565b6001600160a01b038a166000818152600360205260408082208c90555190919061c35090849084818181858888f193505050503d80600081146104e0576040519150601f19603f3d011682016040523d82523d6000602084013e6104e5565b606091505b505090508061052f5760405162461bcd60e51b81526020600482015260166024820152756661696c656420746f2077697468647261772066656560501b60448201526064016102ad565b604080516001600160a01b038d168152602081018490527f78473f3f373f7673597f4f0fa5873cb4d375fea6d4339ad6b56dbd411513cb3f910160405180910390a15050505050505050505050565b468514156105c05760405162461bcd60e51b815260206004820152600f60248201526e125b9d985b1a590818da185a5b9259608a1b60448201526064016102ad565b60006105cc8383610667565b9050803410156106115760405162461bcd60e51b815260206004820152601060248201526f496e73756666696369656e742066656560801b60448201526064016102ad565b336001600160a01b03167f172762498a59a3bc4fed3f2b63f94f17ea0193cffdc304fe7d3eaf4d342d2f66888888888888346040516106569796959493929190610e98565b60405180910390a250505050505050565b6002546000906106779083610ee7565b6001546106849190610f06565b9392505050565b61069683838361085a565b336001600160a01b03167fe66fbe37d84ca73c589f782ac278844918ea6c56a4917f58707f715588080df28686868686346040516106d996959493929190610f1e565b60405180910390a25050505050565b6106f383838361085a565b336001600160a01b03167fce3972bfffe49d317e1d128047a97a3d86b25c94f6f04409f988ef854d25e0e48585858534604051610734959493929190610f5f565b60405180910390a250505050565b336107556000546001600160a01b031690565b6001600160a01b03161461077b5760405162461bcd60e51b81526004016102ad90610c63565b60028190556040518181527f210d4d5d2d36d571207dac98e383e2441c684684c885fb2d7c54f8d24422074c906020016102e7565b336107c36000546001600160a01b031690565b6001600160a01b0316146107e95760405162461bcd60e51b81526004016102ad90610c63565b6001600160a01b03811661084e5760405162461bcd60e51b815260206004820152602660248201527f4f776e61626c653a206e6577206f776e657220697320746865207a65726f206160448201526564647265737360d01b60648201526084016102ad565b610857816108f3565b50565b4683141561089c5760405162461bcd60e51b815260206004820152600f60248201526e125b9d985b1a590818da185a5b9259608a1b60448201526064016102ad565b60006108a88383610667565b9050803410156108ed5760405162461bcd60e51b815260206004820152601060248201526f496e73756666696369656e742066656560801b60448201526064016102ad565b50505050565b600080546001600160a01b038381166001600160a01b0319831681178455604051919092169283917f8be0079c531659141344cd1fd0a4f28419497f9722a3daafe3b4186f6b6457e09190a35050565b60006020828403121561095557600080fd5b5035919050565b80356001600160a01b038116811461097357600080fd5b919050565b60008083601f84011261098a57600080fd5b50813567ffffffffffffffff8111156109a257600080fd5b6020830191508360208260051b85010111156109bd57600080fd5b9250929050565b60008060008060008060008060a0898b0312156109e057600080fd5b6109e98961095c565b975060208901359650604089013567ffffffffffffffff80821115610a0d57600080fd5b610a198c838d01610978565b909850965060608b0135915080821115610a3257600080fd5b610a3e8c838d01610978565b909650945060808b0135915080821115610a5757600080fd5b50610a648b828c01610978565b999c989b5096995094979396929594505050565b60008083601f840112610a8a57600080fd5b50813567ffffffffffffffff811115610aa257600080fd5b6020830191508360208285010111156109bd57600080fd5b60008060008060008060a08789031215610ad357600080fd5b610adc8761095c565b955060208701359450610af16040880161095c565b935060608701359250608087013567ffffffffffffffff811115610b1457600080fd5b610b2089828a01610a78565b979a9699509497509295939492505050565b60008060208385031215610b4557600080fd5b823567ffffffffffffffff811115610b5c57600080fd5b610b6885828601610a78565b90969095509350505050565b600060208284031215610b8657600080fd5b6106848261095c565b600080600080600060608688031215610ba757600080fd5b853567ffffffffffffffff80821115610bbf57600080fd5b610bcb89838a01610a78565b9097509550602088013594506040880135915080821115610beb57600080fd5b50610bf888828901610a78565b969995985093965092949392505050565b60008060008060608587031215610c1f57600080fd5b610c288561095c565b935060208501359250604085013567ffffffffffffffff811115610c4b57600080fd5b610c5787828801610a78565b95989497509550505050565b6020808252818101527f4f776e61626c653a2063616c6c6572206973206e6f7420746865206f776e6572604082015260600190565b81835281816020850137506000828201602090810191909152601f909101601f19169091010190565b81835260006020808501808196508560051b810191508460005b87811015610d455782840389528135601e19883603018112610cfc57600080fd5b8701803567ffffffffffffffff811115610d1557600080fd5b803603891315610d2457600080fd5b610d318682898501610c98565b9a87019a9550505090840190600101610cdb565b5091979650505050505050565b8183526000602080850194508260005b85811015610d8e576001600160a01b03610d7b8361095c565b1687529582019590820190600101610d62565b509495945050505050565b81835260006001600160fb1b03831115610db257600080fd5b8260051b8083602087013760009401602001938452509192915050565b608081526000885180608084015260005b81811015610dfd576020818c0181015160a0868401015201610de0565b81811115610e0f57600060a083860101525b50601f01601f1916820182810360a09081016020850152610e33908201898b610cc1565b90508281036040840152610e48818789610d52565b90508281036060840152610e5d818587610d99565b9a9950505050505050505050565b634e487b7160e01b600052601160045260246000fd5b600082821015610e9357610e93610e6b565b500390565b6001600160a01b03888116825260208201889052861660408201526060810185905260c060808201819052600090610ed39083018587610c98565b90508260a083015298975050505050505050565b6000816000190483118215151615610f0157610f01610e6b565b500290565b60008219821115610f1957610f19610e6b565b500190565b608081526000610f3260808301888a610c98565b8660208401528281036040840152610f4b818688610c98565b915050826060830152979650505050505050565b60018060a01b0386168152846020820152608060408201526000610f87608083018587610c98565b9050826060830152969550505050505056fea26469706673582212209c94eb02ecbad99ab8f1fcb179c4ec8492282a95c62c791b3bfc528b41b4ddd164736f6c63430008090033",
  "linkReferences": {},
  "deployedLinkReferences": {}
}