{
  "_format": "hh-sol-artifact-1",
  "contractName": "DummySwap",
  "sourceName": "contracts/cBridge/test-helpers/DummySwap.sol",
  "abi": [
    {
      "inputs": [
        {
          "internalType": "uint256",
          "name": "_fakeSlippage",
          "type": "uint256"
        }
      ],
      "stateMutability": "nonpayable",
      "type": "constructor"
    },
    {
      "inputs": [
        {
          "internalType": "uint256",
          "name": "_fakeSlippage",
          "type": "uint256"
        }
      ],
      "name": "setFakeSlippage",
      "outputs": [],
      "stateMutability": "nonpayable",
      "type": "function"
    },
    {
      "inputs": [
        {
          "internalType": "uint256",
          "name": "amountIn",
          "type": "uint256"
        },
        {
          "internalType": "uint256",
          "name": "amountOutMin",
          "type": "uint256"
        },
        {
          "internalType": "address[]",
          "name": "path",
          "type": "address[]"
        },
        {
          "internalType": "address",
          "name": "to",
          "type": "address"
        },
        {
          "internalType": "uint256",
          "name": "deadline",
          "type": "uint256"
        }
      ],
      "name": "swapExactTokensForTokens",
      "outputs": [
        {
          "internalType": "uint256[]",
          "name": "amounts",
          "type": "uint256[]"
        }
      ],
      "stateMutability": "nonpayable",
      "type": "function"
    }
  ],
  "bytecode": "0x6080604052620f424060015534801561001757600080fd5b5060405161089c38038061089c8339810160408190526100369161003e565b600055610057565b60006020828403121561005057600080fd5b5051919050565b610836806100666000396000f3fe608060405234801561001057600080fd5b50600436106100365760003560e01c806338ed17391461003b578063d155615514610064575b600080fd5b61004e6100493660046105c1565b610079565b60405161005b9190610663565b60405180910390f35b6100776100723660046106a7565b600055565b005b6060811580159061008957504282115b6100ce5760405162461bcd60e51b8152602060048201526011602482015270191958591b1a5b9948195e18d959591959607a1b60448201526064015b60405180910390fd5b6001841161012d5760405162461bcd60e51b815260206004820152602660248201527f70617468206d7573742068617665206d6f7265207468616e203120746f6b656e604482015265081a5b881a5d60d21b60648201526084016100c5565b84846000818110610140576101406106c0565b905060200201602081019061015591906106d6565b6040516323b872dd60e01b8152336004820152306024820152604481018990526001600160a01b0391909116906323b872dd90606401602060405180830381600087803b1580156101a557600080fd5b505af11580156101b9573d6000803e3d6000fd5b505050506040513d601f19601f820116820180604052508101906101dd91906106f1565b5060006001546000546001546101f39190610729565b6101fd908a610740565b610207919061075f565b90508681116102475760405162461bcd60e51b815260206004820152600c60248201526b62616420736c69707061676560a01b60448201526064016100c5565b61028d84828888610259600182610729565b818110610268576102686106c0565b905060200201602081019061027d91906106d6565b6001600160a01b031691906102f9565b60408051600280825260608201835260009260208301908036833701905050905088816000815181106102c2576102c26106c0565b60200260200101818152505081816001815181106102e2576102e26106c0565b602090810291909101015298975050505050505050565b604080516001600160a01b038416602482015260448082018490528251808303909101815260649091019091526020810180516001600160e01b031663a9059cbb60e01b17905261034b908490610350565b505050565b60006103a5826040518060400160405280602081526020017f5361666545524332303a206c6f772d6c6576656c2063616c6c206661696c6564815250856001600160a01b03166104229092919063ffffffff16565b80519091501561034b57808060200190518101906103c391906106f1565b61034b5760405162461bcd60e51b815260206004820152602a60248201527f5361666545524332303a204552433230206f7065726174696f6e20646964206e6044820152691bdd081cdd58d8d9595960b21b60648201526084016100c5565b6060610431848460008561043b565b90505b9392505050565b60608247101561049c5760405162461bcd60e51b815260206004820152602660248201527f416464726573733a20696e73756666696369656e742062616c616e636520666f6044820152651c8818d85b1b60d21b60648201526084016100c5565b6001600160a01b0385163b6104f35760405162461bcd60e51b815260206004820152601d60248201527f416464726573733a2063616c6c20746f206e6f6e2d636f6e747261637400000060448201526064016100c5565b600080866001600160a01b0316858760405161050f91906107b1565b60006040518083038185875af1925050503d806000811461054c576040519150601f19603f3d011682016040523d82523d6000602084013e610551565b606091505b509150915061056182828661056c565b979650505050505050565b6060831561057b575081610434565b82511561058b5782518084602001fd5b8160405162461bcd60e51b81526004016100c591906107cd565b80356001600160a01b03811681146105bc57600080fd5b919050565b60008060008060008060a087890312156105da57600080fd5b8635955060208701359450604087013567ffffffffffffffff8082111561060057600080fd5b818901915089601f83011261061457600080fd5b81358181111561062357600080fd5b8a60208260051b850101111561063857600080fd5b602083019650809550505050610650606088016105a5565b9150608087013590509295509295509295565b6020808252825182820181905260009190848201906040850190845b8181101561069b5783518352928401929184019160010161067f565b50909695505050505050565b6000602082840312156106b957600080fd5b5035919050565b634e487b7160e01b600052603260045260246000fd5b6000602082840312156106e857600080fd5b610434826105a5565b60006020828403121561070357600080fd5b8151801515811461043457600080fd5b634e487b7160e01b600052601160045260246000fd5b60008282101561073b5761073b610713565b500390565b600081600019048311821515161561075a5761075a610713565b500290565b60008261077c57634e487b7160e01b600052601260045260246000fd5b500490565b60005b8381101561079c578181015183820152602001610784565b838111156107ab576000848401525b50505050565b600082516107c3818460208701610781565b9190910192915050565b60208152600082518060208401526107ec816040850160208701610781565b601f01601f1916919091016040019291505056fea2646970667358221220ab65264e3e1ec8814d9b9efacdc0256475ef8dd6318d521c53eb6bb62cbb168864736f6c63430008090033",
  "linkReferences": {},
  "deployedLinkReferences": {}
}