{
  "_format": "hh-sol-artifact-1",
  "contractName": "MCNNFT",
  "sourceName": "contracts/cBridge/message/apps/nft-bridge/MCNNFT.sol",
  "abi": [
    {
      "inputs": [
        {
          "internalType": "string",
          "name": "name_",
          "type": "string"
        },
        {
          "internalType": "string",
          "name": "symbol_",
          "type": "string"
        },
        {
          "internalType": "address",
          "name": "_nftBridge",
          "type": "address"
        }
      ],
      "stateMutability": "nonpayable",
      "type": "constructor"
    },
    {
      "anonymous": false,
      "inputs": [
        {
          "indexed": true,
          "internalType": "address",
          "name": "owner",
          "type": "address"
        },
        {
          "indexed": true,
          "internalType": "address",
          "name": "approved",
          "type": "address"
        },
        {
          "indexed": true,
          "internalType": "uint256",
          "name": "tokenId",
          "type": "uint256"
        }
      ],
      "name": "Approval",
      "type": "event"
    },
    {
      "anonymous": false,
      "inputs": [
        {
          "indexed": true,
          "internalType": "address",
          "name": "owner",
          "type": "address"
        },
        {
          "indexed": true,
          "internalType": "address",
          "name": "operator",
          "type": "address"
        },
        {
          "indexed": false,
          "internalType": "bool",
          "name": "approved",
          "type": "bool"
        }
      ],
      "name": "ApprovalForAll",
      "type": "event"
    },
    {
      "anonymous": false,
      "inputs": [
        {
          "indexed": false,
          "internalType": "address",
          "name": "",
          "type": "address"
        }
      ],
      "name": "NFTBridgeUpdated",
      "type": "event"
    },
    {
      "anonymous": false,
      "inputs": [
        {
          "indexed": true,
          "internalType": "address",
          "name": "previousOwner",
          "type": "address"
        },
        {
          "indexed": true,
          "internalType": "address",
          "name": "newOwner",
          "type": "address"
        }
      ],
      "name": "OwnershipTransferred",
      "type": "event"
    },
    {
      "anonymous": false,
      "inputs": [
        {
          "indexed": false,
          "internalType": "address",
          "name": "account",
          "type": "address"
        }
      ],
      "name": "Paused",
      "type": "event"
    },
    {
      "anonymous": false,
      "inputs": [
        {
          "indexed": false,
          "internalType": "address",
          "name": "account",
          "type": "address"
        }
      ],
      "name": "PauserAdded",
      "type": "event"
    },
    {
      "anonymous": false,
      "inputs": [
        {
          "indexed": false,
          "internalType": "address",
          "name": "account",
          "type": "address"
        }
      ],
      "name": "PauserRemoved",
      "type": "event"
    },
    {
      "anonymous": false,
      "inputs": [
        {
          "indexed": true,
          "internalType": "address",
          "name": "from",
          "type": "address"
        },
        {
          "indexed": true,
          "internalType": "address",
          "name": "to",
          "type": "address"
        },
        {
          "indexed": true,
          "internalType": "uint256",
          "name": "tokenId",
          "type": "uint256"
        }
      ],
      "name": "Transfer",
      "type": "event"
    },
    {
      "anonymous": false,
      "inputs": [
        {
          "indexed": false,
          "internalType": "address",
          "name": "account",
          "type": "address"
        }
      ],
      "name": "Unpaused",
      "type": "event"
    },
    {
      "inputs": [
        {
          "internalType": "address",
          "name": "account",
          "type": "address"
        }
      ],
      "name": "addPauser",
      "outputs": [],
      "stateMutability": "nonpayable",
      "type": "function"
    },
    {
      "inputs": [
        {
          "internalType": "address",
          "name": "to",
          "type": "address"
        },
        {
          "internalType": "uint256",
          "name": "tokenId",
          "type": "uint256"
        }
      ],
      "name": "approve",
      "outputs": [],
      "stateMutability": "nonpayable",
      "type": "function"
    },
    {
      "inputs": [
        {
          "internalType": "address",
          "name": "owner",
          "type": "address"
        }
      ],
      "name": "balanceOf",
      "outputs": [
        {
          "internalType": "uint256",
          "name": "",
          "type": "uint256"
        }
      ],
      "stateMutability": "view",
      "type": "function"
    },
    {
      "inputs": [
        {
          "internalType": "address",
          "name": "to",
          "type": "address"
        },
        {
          "internalType": "uint256",
          "name": "id",
          "type": "uint256"
        },
        {
          "internalType": "string",
          "name": "uri",
          "type": "string"
        }
      ],
      "name": "bridgeMint",
      "outputs": [],
      "stateMutability": "nonpayable",
      "type": "function"
    },
    {
      "inputs": [
        {
          "internalType": "uint64",
          "name": "_dstChid",
          "type": "uint64"
        },
        {
          "internalType": "uint256",
          "name": "_id",
          "type": "uint256"
        },
        {
          "internalType": "bytes",
          "name": "_receiver",
          "type": "bytes"
        }
      ],
      "name": "crossChain",
      "outputs": [],
      "stateMutability": "payable",
      "type": "function"
    },
    {
      "inputs": [
        {
          "internalType": "uint64",
          "name": "_dstChid",
          "type": "uint64"
        },
        {
          "internalType": "uint256",
          "name": "_id",
          "type": "uint256"
        },
        {
          "internalType": "address",
          "name": "_receiver",
          "type": "address"
        }
      ],
      "name": "crossChain",
      "outputs": [],
      "stateMutability": "payable",
      "type": "function"
    },
    {
      "inputs": [
        {
          "internalType": "uint256",
          "name": "tokenId",
          "type": "uint256"
        }
      ],
      "name": "getApproved",
      "outputs": [
        {
          "internalType": "address",
          "name": "",
          "type": "address"
        }
      ],
      "stateMutability": "view",
      "type": "function"
    },
    {
      "inputs": [
        {
          "internalType": "address",
          "name": "owner",
          "type": "address"
        },
        {
          "internalType": "address",
          "name": "operator",
          "type": "address"
        }
      ],
      "name": "isApprovedForAll",
      "outputs": [
        {
          "internalType": "bool",
          "name": "",
          "type": "bool"
        }
      ],
      "stateMutability": "view",
      "type": "function"
    },
    {
      "inputs": [
        {
          "internalType": "address",
          "name": "account",
          "type": "address"
        }
      ],
      "name": "isPauser",
      "outputs": [
        {
          "internalType": "bool",
          "name": "",
          "type": "bool"
        }
      ],
      "stateMutability": "view",
      "type": "function"
    },
    {
      "inputs": [
        {
          "internalType": "address",
          "name": "to",
          "type": "address"
        },
        {
          "internalType": "uint256",
          "name": "id",
          "type": "uint256"
        },
        {
          "internalType": "string",
          "name": "uri",
          "type": "string"
        }
      ],
      "name": "mint",
      "outputs": [],
      "stateMutability": "nonpayable",
      "type": "function"
    },
    {
      "inputs": [],
      "name": "name",
      "outputs": [
        {
          "internalType": "string",
          "name": "",
          "type": "string"
        }
      ],
      "stateMutability": "view",
      "type": "function"
    },
    {
      "inputs": [],
      "name": "nftBridge",
      "outputs": [
        {
          "internalType": "address",
          "name": "",
          "type": "address"
        }
      ],
      "stateMutability": "view",
      "type": "function"
    },
    {
      "inputs": [],
      "name": "owner",
      "outputs": [
        {
          "internalType": "address",
          "name": "",
          "type": "address"
        }
      ],
      "stateMutability": "view",
      "type": "function"
    },
    {
      "inputs": [
        {
          "internalType": "uint256",
          "name": "tokenId",
          "type": "uint256"
        }
      ],
      "name": "ownerOf",
      "outputs": [
        {
          "internalType": "address",
          "name": "",
          "type": "address"
        }
      ],
      "stateMutability": "view",
      "type": "function"
    },
    {
      "inputs": [],
      "name": "pause",
      "outputs": [],
      "stateMutability": "nonpayable",
      "type": "function"
    },
    {
      "inputs": [],
      "name": "paused",
      "outputs": [
        {
          "internalType": "bool",
          "name": "",
          "type": "bool"
        }
      ],
      "stateMutability": "view",
      "type": "function"
    },
    {
      "inputs": [
        {
          "internalType": "address",
          "name": "",
          "type": "address"
        }
      ],
      "name": "pausers",
      "outputs": [
        {
          "internalType": "bool",
          "name": "",
          "type": "bool"
        }
      ],
      "stateMutability": "view",
      "type": "function"
    },
    {
      "inputs": [
        {
          "internalType": "address",
          "name": "account",
          "type": "address"
        }
      ],
      "name": "removePauser",
      "outputs": [],
      "stateMutability": "nonpayable",
      "type": "function"
    },
    {
      "inputs": [],
      "name": "renouncePauser",
      "outputs": [],
      "stateMutability": "nonpayable",
      "type": "function"
    },
    {
      "inputs": [
        {
          "internalType": "address",
          "name": "from",
          "type": "address"
        },
        {
          "internalType": "address",
          "name": "to",
          "type": "address"
        },
        {
          "internalType": "uint256",
          "name": "tokenId",
          "type": "uint256"
        }
      ],
      "name": "safeTransferFrom",
      "outputs": [],
      "stateMutability": "nonpayable",
      "type": "function"
    },
    {
      "inputs": [
        {
          "internalType": "address",
          "name": "from",
          "type": "address"
        },
        {
          "internalType": "address",
          "name": "to",
          "type": "address"
        },
        {
          "internalType": "uint256",
          "name": "tokenId",
          "type": "uint256"
        },
        {
          "internalType": "bytes",
          "name": "data",
          "type": "bytes"
        }
      ],
      "name": "safeTransferFrom",
      "outputs": [],
      "stateMutability": "nonpayable",
      "type": "function"
    },
    {
      "inputs": [
        {
          "internalType": "address",
          "name": "operator",
          "type": "address"
        },
        {
          "internalType": "bool",
          "name": "approved",
          "type": "bool"
        }
      ],
      "name": "setApprovalForAll",
      "outputs": [],
      "stateMutability": "nonpayable",
      "type": "function"
    },
    {
      "inputs": [
        {
          "internalType": "address",
          "name": "_newBridge",
          "type": "address"
        }
      ],
      "name": "setNFTBridge",
      "outputs": [],
      "stateMutability": "nonpayable",
      "type": "function"
    },
    {
      "inputs": [
        {
          "internalType": "bytes4",
          "name": "interfaceId",
          "type": "bytes4"
        }
      ],
      "name": "supportsInterface",
      "outputs": [
        {
          "internalType": "bool",
          "name": "",
          "type": "bool"
        }
      ],
      "stateMutability": "view",
      "type": "function"
    },
    {
      "inputs": [],
      "name": "symbol",
      "outputs": [
        {
          "internalType": "string",
          "name": "",
          "type": "string"
        }
      ],
      "stateMutability": "view",
      "type": "function"
    },
    {
      "inputs": [
        {
          "internalType": "uint256",
          "name": "tokenId",
          "type": "uint256"
        }
      ],
      "name": "tokenURI",
      "outputs": [
        {
          "internalType": "string",
          "name": "",
          "type": "string"
        }
      ],
      "stateMutability": "view",
      "type": "function"
    },
    {
      "inputs": [
        {
          "internalType": "uint64",
          "name": "_dstChid",
          "type": "uint64"
        },
        {
          "internalType": "uint256",
          "name": "_id",
          "type": "uint256"
        }
      ],
      "name": "totalFee",
      "outputs": [
        {
          "internalType": "uint256",
          "name": "",
          "type": "uint256"
        }
      ],
      "stateMutability": "view",
      "type": "function"
    },
    {
      "inputs": [
        {
          "internalType": "address",
          "name": "from",
          "type": "address"
        },
        {
          "internalType": "address",
          "name": "to",
          "type": "address"
        },
        {
          "internalType": "uint256",
          "name": "tokenId",
          "type": "uint256"
        }
      ],
      "name": "transferFrom",
      "outputs": [],
      "stateMutability": "nonpayable",
      "type": "function"
    },
    {
      "inputs": [
        {
          "internalType": "address",
          "name": "newOwner",
          "type": "address"
        }
      ],
      "name": "transferOwnership",
      "outputs": [],
      "stateMutability": "nonpayable",
      "type": "function"
    },
    {
      "inputs": [],
      "name": "unpause",
      "outputs": [],
      "stateMutability": "nonpayable",
      "type": "function"
    }
  ],
  "bytecode": "0x60806040523480156200001157600080fd5b506040516200285838038062002858833981016040819052620000349162000338565b82826200004133620000ad565b815162000056906001906020850190620001c5565b5080516200006c906002906020840190620001c5565b50506008805460ff19169055506200008433620000fd565b600a80546001600160a01b0319166001600160a01b039290921691909117905550620004029050565b600080546001600160a01b038381166001600160a01b0319831681178455604051919092169283917f8be0079c531659141344cd1fd0a4f28419497f9722a3daafe3b4186f6b6457e09190a35050565b6001600160a01b03811660009081526009602052604090205460ff16156200016b5760405162461bcd60e51b815260206004820152601960248201527f4163636f756e7420697320616c72656164792070617573657200000000000000604482015260640160405180910390fd5b6001600160a01b038116600081815260096020908152604091829020805460ff1916600117905590519182527f6719d08c1888103bea251a4ed56406bd0c3e69723c8a1686e017e7bbe159b6f8910160405180910390a150565b828054620001d390620003c5565b90600052602060002090601f016020900481019282620001f7576000855562000242565b82601f106200021257805160ff191683800117855562000242565b8280016001018555821562000242579182015b828111156200024257825182559160200191906001019062000225565b506200025092915062000254565b5090565b5b8082111562000250576000815560010162000255565b634e487b7160e01b600052604160045260246000fd5b600082601f8301126200029357600080fd5b81516001600160401b0380821115620002b057620002b06200026b565b604051601f8301601f19908116603f01168101908282118183101715620002db57620002db6200026b565b81604052838152602092508683858801011115620002f857600080fd5b600091505b838210156200031c5785820183015181830184015290820190620002fd565b838211156200032e5760008385830101525b9695505050505050565b6000806000606084860312156200034e57600080fd5b83516001600160401b03808211156200036657600080fd5b620003748783880162000281565b945060208601519150808211156200038b57600080fd5b506200039a8682870162000281565b604086015190935090506001600160a01b0381168114620003ba57600080fd5b809150509250925092565b600181811c90821680620003da57607f821691505b60208210811415620003fc57634e487b7160e01b600052602260045260246000fd5b50919050565b61244680620004126000396000f3fe6080604052600436106101cd5760003560e01c80636ef8d66d116100f7578063a22cb46511610095578063c87b56dd11610064578063c87b56dd14610511578063d3fc986414610531578063e985e9c514610551578063f2fde38b1461059a57600080fd5b8063a22cb46514610491578063a481d59b146104b1578063af91b174146104d1578063b88d4fde146104f157600080fd5b806382dc1ec4116100d157806382dc1ec4146104295780638456cb59146104495780638da5cb5b1461045e57806395d89b411461047c57600080fd5b80636ef8d66d146103c457806370a08231146103d957806380f51c12146103f957600080fd5b80633f4ba83a1161016f5780635c975abb1161013e5780635c975abb1461034c5780636352211e1461036457806367d74de2146103845780636b2c0f55146103a457600080fd5b80633f4ba83a146102e457806342842e0e146102f9578063446456b81461031957806346fbf68e1461032c57600080fd5b8063095ea7b3116101ab578063095ea7b314610261578063183b42731461028357806323b872dd146102b157806331c9cbcf146102d157600080fd5b806301ffc9a7146101d257806306fdde0314610207578063081812fc14610229575b600080fd5b3480156101de57600080fd5b506101f26101ed366004611cd4565b6105ba565b60405190151581526020015b60405180910390f35b34801561021357600080fd5b5061021c61060c565b6040516101fe9190611d49565b34801561023557600080fd5b50610249610244366004611d5c565b61069e565b6040516001600160a01b0390911681526020016101fe565b34801561026d57600080fd5b5061028161027c366004611d91565b6106c5565b005b34801561028f57600080fd5b506102a361029e366004611dd3565b6107e0565b6040519081526020016101fe565b3480156102bd57600080fd5b506102816102cc366004611def565b61087a565b6102816102df366004611e2b565b6108ab565b3480156102f057600080fd5b50610281610999565b34801561030557600080fd5b50610281610314366004611def565b6109ef565b610281610327366004611eb2565b610a0a565b34801561033857600080fd5b506101f2610347366004611eee565b610af5565b34801561035857600080fd5b5060085460ff166101f2565b34801561037057600080fd5b5061024961037f366004611d5c565b610b13565b34801561039057600080fd5b5061028161039f366004611f95565b610b73565b3480156103b057600080fd5b506102816103bf366004611eee565b610bd8565b3480156103d057600080fd5b50610281610c1d565b3480156103e557600080fd5b506102a36103f4366004611eee565b610c26565b34801561040557600080fd5b506101f2610414366004611eee565b60096020526000908152604090205460ff1681565b34801561043557600080fd5b50610281610444366004611eee565b610cac565b34801561045557600080fd5b50610281610cee565b34801561046a57600080fd5b506000546001600160a01b0316610249565b34801561048857600080fd5b5061021c610d42565b34801561049d57600080fd5b506102816104ac366004612000565b610d51565b3480156104bd57600080fd5b506102816104cc366004611eee565b610d60565b3480156104dd57600080fd5b50600a54610249906001600160a01b031681565b3480156104fd57600080fd5b5061028161050c36600461203c565b610dee565b34801561051d57600080fd5b5061021c61052c366004611d5c565b610e26565b34801561053d57600080fd5b5061028161054c366004611f95565b610f37565b34801561055d57600080fd5b506101f261056c3660046120b8565b6001600160a01b03918216600090815260066020908152604080832093909416825291909152205460ff1690565b3480156105a657600080fd5b506102816105b5366004611eee565b610f70565b60006001600160e01b031982166380ac58cd60e01b14806105eb57506001600160e01b03198216635b5e139f60e01b145b8061060657506301ffc9a760e01b6001600160e01b03198316145b92915050565b60606001805461061b906120eb565b80601f0160208091040260200160405190810160405280929190818152602001828054610647906120eb565b80156106945780601f1061066957610100808354040283529160200191610694565b820191906000526020600020905b81548152906001019060200180831161067757829003601f168201915b5050505050905090565b60006106a982611017565b506000908152600560205260409020546001600160a01b031690565b60006106d082610b13565b9050806001600160a01b0316836001600160a01b031614156107435760405162461bcd60e51b815260206004820152602160248201527f4552433732313a20617070726f76616c20746f2063757272656e74206f776e656044820152603960f91b60648201526084015b60405180910390fd5b336001600160a01b038216148061075f575061075f813361056c565b6107d15760405162461bcd60e51b815260206004820152603e60248201527f4552433732313a20617070726f76652063616c6c6572206973206e6f7420746f60448201527f6b656e206f776e6572206e6f7220617070726f76656420666f7220616c6c0000606482015260840161073a565b6107db8383611076565b505050565b600a54604051639c1a65bd60e01b815267ffffffffffffffff84166004820152306024820152604481018390526000916001600160a01b031690639c1a65bd9060640160206040518083038186803b15801561083b57600080fd5b505afa15801561084f573d6000803e3d6000fd5b505050506040513d601f19601f820116820180604052508101906108739190612126565b9392505050565b61088433826110e4565b6108a05760405162461bcd60e51b815260040161073a9061213f565b6107db838383611162565b6108b36112fe565b6108bc83610b13565b6001600160a01b0316336001600160a01b03161461090e5760405162461bcd60e51b815260206004820152600f60248201526e3737ba103a37b5b2b71037bbb732b960891b604482015260640161073a565b600061091984610e26565b905061092484611344565b600a54604051631dd2375760e31b81526001600160a01b039091169063ee91bab89034906109609089903390899089908c908a9060040161218d565b6000604051808303818588803b15801561097957600080fd5b505af115801561098d573d6000803e3d6000fd5b50505050505050505050565b6109a233610af5565b6109e55760405162461bcd60e51b815260206004820152601460248201527321b0b63632b91034b9903737ba103830bab9b2b960611b604482015260640161073a565b6109ed611384565b565b6107db83838360405180602001604052806000815250610dee565b610a126112fe565b610a1b82610b13565b6001600160a01b0316336001600160a01b031614610a6d5760405162461bcd60e51b815260206004820152600f60248201526e3737ba103a37b5b2b71037bbb732b960891b604482015260640161073a565b6000610a7883610e26565b9050610a8383611344565b600a54604051637865abe760e11b81526001600160a01b039091169063f0cb57ce903490610abd908890339088908a9089906004016121fe565b6000604051808303818588803b158015610ad657600080fd5b505af1158015610aea573d6000803e3d6000fd5b505050505050505050565b6001600160a01b031660009081526009602052604090205460ff1690565b6000818152600360205260408120546001600160a01b0316806106065760405162461bcd60e51b8152602060048201526018602482015277115490cdcc8c4e881a5b9d985b1a59081d1bdad95b88125160421b604482015260640161073a565b600a546001600160a01b03163314610bc45760405162461bcd60e51b815260206004820152601460248201527363616c6c6572206973206e6f742062726964676560601b604482015260640161073a565b610bce83836113d6565b6107db8282611518565b33610beb6000546001600160a01b031690565b6001600160a01b031614610c115760405162461bcd60e51b815260040161073a9061224c565b610c1a816115b2565b50565b6109ed336115b2565b60006001600160a01b038216610c905760405162461bcd60e51b815260206004820152602960248201527f4552433732313a2061646472657373207a65726f206973206e6f7420612076616044820152683634b21037bbb732b960b91b606482015260840161073a565b506001600160a01b031660009081526004602052604090205490565b33610cbf6000546001600160a01b031690565b6001600160a01b031614610ce55760405162461bcd60e51b815260040161073a9061224c565b610c1a81611650565b610cf733610af5565b610d3a5760405162461bcd60e51b815260206004820152601460248201527321b0b63632b91034b9903737ba103830bab9b2b960611b604482015260640161073a565b6109ed6116fa565b60606002805461061b906120eb565b610d5c338383611737565b5050565b33610d736000546001600160a01b031690565b6001600160a01b031614610d995760405162461bcd60e51b815260040161073a9061224c565b600a80546001600160a01b0319166001600160a01b0383169081179091556040519081527ff4bc0bf59fb83d1858c773c97d46d5e804f4245cd5091252952b86ee5f3ba210906020015b60405180910390a150565b610df833836110e4565b610e145760405162461bcd60e51b815260040161073a9061213f565b610e2084848484611806565b50505050565b6060610e3182611017565b60008281526007602052604081208054610e4a906120eb565b80601f0160208091040260200160405190810160405280929190818152602001828054610e76906120eb565b8015610ec35780601f10610e9857610100808354040283529160200191610ec3565b820191906000526020600020905b815481529060010190602001808311610ea657829003601f168201915b505050505090506000610ee160408051602081019091526000815290565b9050805160001415610ef4575092915050565b815115610f26578082604051602001610f0e929190612281565b60405160208183030381529060405292505050919050565b610f2f84611839565b949350505050565b33610f4a6000546001600160a01b031690565b6001600160a01b031614610bc45760405162461bcd60e51b815260040161073a9061224c565b33610f836000546001600160a01b031690565b6001600160a01b031614610fa95760405162461bcd60e51b815260040161073a9061224c565b6001600160a01b03811661100e5760405162461bcd60e51b815260206004820152602660248201527f4f776e61626c653a206e6577206f776e657220697320746865207a65726f206160448201526564647265737360d01b606482015260840161073a565b610c1a816118ac565b6000818152600360205260409020546001600160a01b0316610c1a5760405162461bcd60e51b8152602060048201526018602482015277115490cdcc8c4e881a5b9d985b1a59081d1bdad95b88125160421b604482015260640161073a565b600081815260056020526040902080546001600160a01b0319166001600160a01b03841690811790915581906110ab82610b13565b6001600160a01b03167f8c5be1e5ebec7d5bd14f71427d1e84f3dd0314c0f7b2291e5b200ac8c7c3b92560405160405180910390a45050565b6000806110f083610b13565b9050806001600160a01b0316846001600160a01b0316148061113757506001600160a01b0380821660009081526006602090815260408083209388168352929052205460ff165b80610f2f5750836001600160a01b03166111508461069e565b6001600160a01b031614949350505050565b826001600160a01b031661117582610b13565b6001600160a01b0316146111d95760405162461bcd60e51b815260206004820152602560248201527f4552433732313a207472616e736665722066726f6d20696e636f72726563742060448201526437bbb732b960d91b606482015260840161073a565b6001600160a01b03821661123b5760405162461bcd60e51b8152602060048201526024808201527f4552433732313a207472616e7366657220746f20746865207a65726f206164646044820152637265737360e01b606482015260840161073a565b611246600082611076565b6001600160a01b038316600090815260046020526040812080546001929061126f9084906122c6565b90915550506001600160a01b038216600090815260046020526040812080546001929061129d9084906122dd565b909155505060008181526003602052604080822080546001600160a01b0319166001600160a01b0386811691821790925591518493918716917fddf252ad1be2c89b69c2b068fc378daa952ba7f163c4a11628f55a4df523b3ef91a4505050565b60085460ff16156109ed5760405162461bcd60e51b815260206004820152601060248201526f14185d5cd8589b194e881c185d5cd95960821b604482015260640161073a565b61134d816118fc565b60008181526007602052604090208054611366906120eb565b159050610c1a576000818152600760205260408120610c1a91611beb565b61138c611997565b6008805460ff191690557f5db9ee0a495bf2e6ff9c91a7834c1ba4fdd244a5e8aa4e537bd38aeae4b073aa335b6040516001600160a01b03909116815260200160405180910390a1565b6001600160a01b03821661142c5760405162461bcd60e51b815260206004820181905260248201527f4552433732313a206d696e7420746f20746865207a65726f2061646472657373604482015260640161073a565b6000818152600360205260409020546001600160a01b0316156114915760405162461bcd60e51b815260206004820152601c60248201527f4552433732313a20746f6b656e20616c7265616479206d696e74656400000000604482015260640161073a565b6001600160a01b03821660009081526004602052604081208054600192906114ba9084906122dd565b909155505060008181526003602052604080822080546001600160a01b0319166001600160a01b03861690811790915590518392907fddf252ad1be2c89b69c2b068fc378daa952ba7f163c4a11628f55a4df523b3ef908290a45050565b6000828152600360205260409020546001600160a01b03166115935760405162461bcd60e51b815260206004820152602e60248201527f45524337323155524953746f726167653a2055524920736574206f66206e6f6e60448201526d32bc34b9ba32b73a103a37b5b2b760911b606482015260840161073a565b600082815260076020908152604090912082516107db92840190611c25565b6115bb81610af5565b6115ff5760405162461bcd60e51b815260206004820152601560248201527420b1b1b7bab73a1034b9903737ba103830bab9b2b960591b604482015260640161073a565b6001600160a01b038116600081815260096020908152604091829020805460ff1916905590519182527fcd265ebaf09df2871cc7bd4133404a235ba12eff2041bb89d9c714a2621c7c7e9101610de3565b61165981610af5565b156116a65760405162461bcd60e51b815260206004820152601960248201527f4163636f756e7420697320616c72656164792070617573657200000000000000604482015260640161073a565b6001600160a01b038116600081815260096020908152604091829020805460ff1916600117905590519182527f6719d08c1888103bea251a4ed56406bd0c3e69723c8a1686e017e7bbe159b6f89101610de3565b6117026112fe565b6008805460ff191660011790557f62e78cea01bee320cd4e420270b5ea74000d11b0c9f74754ebdbfc544b05a2586113b93390565b816001600160a01b0316836001600160a01b031614156117995760405162461bcd60e51b815260206004820152601960248201527f4552433732313a20617070726f766520746f2063616c6c657200000000000000604482015260640161073a565b6001600160a01b03838116600081815260066020908152604080832094871680845294825291829020805460ff191686151590811790915591519182527f17307eab39ab6107e8899845ad3d59bd9653f200f220920489ca2b5937696c31910160405180910390a3505050565b611811848484611162565b61181d848484846119e0565b610e205760405162461bcd60e51b815260040161073a906122f5565b606061184482611017565b600061185b60408051602081019091526000815290565b9050600081511161187b5760405180602001604052806000815250610873565b8061188584611aed565b604051602001611896929190612281565b6040516020818303038152906040529392505050565b600080546001600160a01b038381166001600160a01b0319831681178455604051919092169283917f8be0079c531659141344cd1fd0a4f28419497f9722a3daafe3b4186f6b6457e09190a35050565b600061190782610b13565b9050611914600083611076565b6001600160a01b038116600090815260046020526040812080546001929061193d9084906122c6565b909155505060008281526003602052604080822080546001600160a01b0319169055518391906001600160a01b038416907fddf252ad1be2c89b69c2b068fc378daa952ba7f163c4a11628f55a4df523b3ef908390a45050565b60085460ff166109ed5760405162461bcd60e51b815260206004820152601460248201527314185d5cd8589b194e881b9bdd081c185d5cd95960621b604482015260640161073a565b60006001600160a01b0384163b15611ae257604051630a85bd0160e11b81526001600160a01b0385169063150b7a0290611a24903390899088908890600401612347565b602060405180830381600087803b158015611a3e57600080fd5b505af1925050508015611a6e575060408051601f3d908101601f19168201909252611a6b91810190612384565b60015b611ac8573d808015611a9c576040519150601f19603f3d011682016040523d82523d6000602084013e611aa1565b606091505b508051611ac05760405162461bcd60e51b815260040161073a906122f5565b805181602001fd5b6001600160e01b031916630a85bd0160e11b149050610f2f565b506001949350505050565b606081611b115750506040805180820190915260018152600360fc1b602082015290565b8160005b8115611b3b5780611b25816123a1565b9150611b349050600a836123d2565b9150611b15565b60008167ffffffffffffffff811115611b5657611b56611f09565b6040519080825280601f01601f191660200182016040528015611b80576020820181803683370190505b5090505b8415610f2f57611b956001836122c6565b9150611ba2600a866123e6565b611bad9060306122dd565b60f81b818381518110611bc257611bc26123fa565b60200101906001600160f81b031916908160001a905350611be4600a866123d2565b9450611b84565b508054611bf7906120eb565b6000825580601f10611c07575050565b601f016020900490600052602060002090810190610c1a9190611ca9565b828054611c31906120eb565b90600052602060002090601f016020900481019282611c535760008555611c99565b82601f10611c6c57805160ff1916838001178555611c99565b82800160010185558215611c99579182015b82811115611c99578251825591602001919060010190611c7e565b50611ca5929150611ca9565b5090565b5b80821115611ca55760008155600101611caa565b6001600160e01b031981168114610c1a57600080fd5b600060208284031215611ce657600080fd5b813561087381611cbe565b60005b83811015611d0c578181015183820152602001611cf4565b83811115610e205750506000910152565b60008151808452611d35816020860160208601611cf1565b601f01601f19169290920160200192915050565b6020815260006108736020830184611d1d565b600060208284031215611d6e57600080fd5b5035919050565b80356001600160a01b0381168114611d8c57600080fd5b919050565b60008060408385031215611da457600080fd5b611dad83611d75565b946020939093013593505050565b803567ffffffffffffffff81168114611d8c57600080fd5b60008060408385031215611de657600080fd5b611dad83611dbb565b600080600060608486031215611e0457600080fd5b611e0d84611d75565b9250611e1b60208501611d75565b9150604084013590509250925092565b60008060008060608587031215611e4157600080fd5b611e4a85611dbb565b935060208501359250604085013567ffffffffffffffff80821115611e6e57600080fd5b818701915087601f830112611e8257600080fd5b813581811115611e9157600080fd5b886020828501011115611ea357600080fd5b95989497505060200194505050565b600080600060608486031215611ec757600080fd5b611ed084611dbb565b925060208401359150611ee560408501611d75565b90509250925092565b600060208284031215611f0057600080fd5b61087382611d75565b634e487b7160e01b600052604160045260246000fd5b600067ffffffffffffffff80841115611f3a57611f3a611f09565b604051601f8501601f19908116603f01168101908282118183101715611f6257611f62611f09565b81604052809350858152868686011115611f7b57600080fd5b858560208301376000602087830101525050509392505050565b600080600060608486031215611faa57600080fd5b611fb384611d75565b925060208401359150604084013567ffffffffffffffff811115611fd657600080fd5b8401601f81018613611fe757600080fd5b611ff686823560208401611f1f565b9150509250925092565b6000806040838503121561201357600080fd5b61201c83611d75565b91506020830135801515811461203157600080fd5b809150509250929050565b6000806000806080858703121561205257600080fd5b61205b85611d75565b935061206960208601611d75565b925060408501359150606085013567ffffffffffffffff81111561208c57600080fd5b8501601f8101871361209d57600080fd5b6120ac87823560208401611f1f565b91505092959194509250565b600080604083850312156120cb57600080fd5b6120d483611d75565b91506120e260208401611d75565b90509250929050565b600181811c908216806120ff57607f821691505b6020821081141561212057634e487b7160e01b600052602260045260246000fd5b50919050565b60006020828403121561213857600080fd5b5051919050565b6020808252602e908201527f4552433732313a2063616c6c6572206973206e6f7420746f6b656e206f776e6560408201526d1c881b9bdc88185c1c1c9bdd995960921b606082015260800190565b67ffffffffffffffff871681526001600160a01b038616602082015260a0604082018190528101849052838560c0830137600060c085830101526000601f19601f860116820184606084015260c08382030160808401526121f160c0820185611d1d565b9998505050505050505050565b67ffffffffffffffff861681526001600160a01b038581166020830152841660408201526060810183905260a06080820181905260009061224190830184611d1d565b979650505050505050565b6020808252818101527f4f776e61626c653a2063616c6c6572206973206e6f7420746865206f776e6572604082015260600190565b60008351612293818460208801611cf1565b8351908301906122a7818360208801611cf1565b01949350505050565b634e487b7160e01b600052601160045260246000fd5b6000828210156122d8576122d86122b0565b500390565b600082198211156122f0576122f06122b0565b500190565b60208082526032908201527f4552433732313a207472616e7366657220746f206e6f6e20455243373231526560408201527131b2b4bb32b91034b6b83632b6b2b73a32b960711b606082015260800190565b6001600160a01b038581168252841660208201526040810183905260806060820181905260009061237a90830184611d1d565b9695505050505050565b60006020828403121561239657600080fd5b815161087381611cbe565b60006000198214156123b5576123b56122b0565b5060010190565b634e487b7160e01b600052601260045260246000fd5b6000826123e1576123e16123bc565b500490565b6000826123f5576123f56123bc565b500690565b634e487b7160e01b600052603260045260246000fdfea2646970667358221220566c1bbebc82f66eda3887d57cd99f16dd2cb5c4bf3b581027e10184aa1c170764736f6c63430008090033",
  "linkReferences": {},
  "deployedLinkReferences": {}
}