{
  "_format": "hh-sol-artifact-1",
  "contractName": "ContractAsSender",
  "sourceName": "contracts/cBridge/integration-examples/ContractAsSender.sol",
  "abi": [
    {
      "anonymous": false,
      "inputs": [
        {
          "indexed": false,
          "internalType": "enum BridgeTransferLib.BridgeSendType",
          "name": "bridgeSendType",
          "type": "uint8"
        },
        {
          "indexed": false,
          "internalType": "address",
          "name": "bridgeAddr",
          "type": "address"
        }
      ],
      "name": "BridgeUpdated",
      "type": "event"
    },
    {
      "anonymous": false,
      "inputs": [
        {
          "indexed": false,
          "internalType": "address",
          "name": "depositor",
          "type": "address"
        },
        {
          "indexed": false,
          "internalType": "address",
          "name": "token",
          "type": "address"
        },
        {
          "indexed": false,
          "internalType": "uint256",
          "name": "amount",
          "type": "uint256"
        }
      ],
      "name": "Deposited",
      "type": "event"
    },
    {
      "anonymous": false,
      "inputs": [
        {
          "indexed": true,
          "internalType": "address",
          "name": "previousOwner",
          "type": "address"
        },
        {
          "indexed": true,
          "internalType": "address",
          "name": "newOwner",
          "type": "address"
        }
      ],
      "name": "OwnershipTransferred",
      "type": "event"
    },
    {
      "anonymous": false,
      "inputs": [
        {
          "indexed": false,
          "internalType": "address",
          "name": "account",
          "type": "address"
        }
      ],
      "name": "Paused",
      "type": "event"
    },
    {
      "anonymous": false,
      "inputs": [
        {
          "indexed": false,
          "internalType": "address",
          "name": "account",
          "type": "address"
        }
      ],
      "name": "PauserAdded",
      "type": "event"
    },
    {
      "anonymous": false,
      "inputs": [
        {
          "indexed": false,
          "internalType": "address",
          "name": "account",
          "type": "address"
        }
      ],
      "name": "PauserRemoved",
      "type": "event"
    },
    {
      "anonymous": false,
      "inputs": [
        {
          "indexed": false,
          "internalType": "address",
          "name": "account",
          "type": "address"
        }
      ],
      "name": "Unpaused",
      "type": "event"
    },
    {
      "inputs": [
        {
          "internalType": "address",
          "name": "account",
          "type": "address"
        }
      ],
      "name": "addPauser",
      "outputs": [],
      "stateMutability": "nonpayable",
      "type": "function"
    },
    {
      "inputs": [
        {
          "internalType": "enum BridgeTransferLib.BridgeSendType",
          "name": "",
          "type": "uint8"
        }
      ],
      "name": "bridges",
      "outputs": [
        {
          "internalType": "address",
          "name": "",
          "type": "address"
        }
      ],
      "stateMutability": "view",
      "type": "function"
    },
    {
      "inputs": [
        {
          "internalType": "address",
          "name": "_token",
          "type": "address"
        },
        {
          "internalType": "uint256",
          "name": "_amount",
          "type": "uint256"
        }
      ],
      "name": "deposit",
      "outputs": [],
      "stateMutability": "nonpayable",
      "type": "function"
    },
    {
      "inputs": [
        {
          "internalType": "address",
          "name": "account",
          "type": "address"
        }
      ],
      "name": "isPauser",
      "outputs": [
        {
          "internalType": "bool",
          "name": "",
          "type": "bool"
        }
      ],
      "stateMutability": "view",
      "type": "function"
    },
    {
      "inputs": [],
      "name": "nativeWrap",
      "outputs": [
        {
          "internalType": "address",
          "name": "",
          "type": "address"
        }
      ],
      "stateMutability": "view",
      "type": "function"
    },
    {
      "inputs": [],
      "name": "owner",
      "outputs": [
        {
          "internalType": "address",
          "name": "",
          "type": "address"
        }
      ],
      "stateMutability": "view",
      "type": "function"
    },
    {
      "inputs": [],
      "name": "pause",
      "outputs": [],
      "stateMutability": "nonpayable",
      "type": "function"
    },
    {
      "inputs": [],
      "name": "paused",
      "outputs": [
        {
          "internalType": "bool",
          "name": "",
          "type": "bool"
        }
      ],
      "stateMutability": "view",
      "type": "function"
    },
    {
      "inputs": [
        {
          "internalType": "address",
          "name": "",
          "type": "address"
        }
      ],
      "name": "pausers",
      "outputs": [
        {
          "internalType": "bool",
          "name": "",
          "type": "bool"
        }
      ],
      "stateMutability": "view",
      "type": "function"
    },
    {
      "inputs": [
        {
          "internalType": "bytes32",
          "name": "",
          "type": "bytes32"
        }
      ],
      "name": "records",
      "outputs": [
        {
          "internalType": "address",
          "name": "",
          "type": "address"
        }
      ],
      "stateMutability": "view",
      "type": "function"
    },
    {
      "inputs": [
        {
          "internalType": "bytes",
          "name": "_request",
          "type": "bytes"
        },
        {
          "internalType": "bytes[]",
          "name": "_sigs",
          "type": "bytes[]"
        },
        {
          "internalType": "address[]",
          "name": "_signers",
          "type": "address[]"
        },
        {
          "internalType": "uint256[]",
          "name": "_powers",
          "type": "uint256[]"
        },
        {
          "internalType": "enum BridgeTransferLib.BridgeSendType",
          "name": "_bridgeSendType",
          "type": "uint8"
        }
      ],
      "name": "refund",
      "outputs": [
        {
          "internalType": "bytes32",
          "name": "",
          "type": "bytes32"
        }
      ],
      "stateMutability": "nonpayable",
      "type": "function"
    },
    {
      "inputs": [
        {
          "internalType": "address",
          "name": "account",
          "type": "address"
        }
      ],
      "name": "removePauser",
      "outputs": [],
      "stateMutability": "nonpayable",
      "type": "function"
    },
    {
      "inputs": [],
      "name": "renouncePauser",
      "outputs": [],
      "stateMutability": "nonpayable",
      "type": "function"
    },
    {
      "inputs": [
        {
          "internalType": "enum BridgeTransferLib.BridgeSendType",
          "name": "_bridgeSendType",
          "type": "uint8"
        },
        {
          "internalType": "address",
          "name": "_addr",
          "type": "address"
        }
      ],
      "name": "setBridgeAddress",
      "outputs": [],
      "stateMutability": "nonpayable",
      "type": "function"
    },
    {
      "inputs": [
        {
          "internalType": "address",
          "name": "_weth",
          "type": "address"
        }
      ],
      "name": "setWrap",
      "outputs": [],
      "stateMutability": "nonpayable",
      "type": "function"
    },
    {
      "inputs": [
        {
          "internalType": "address",
          "name": "_receiver",
          "type": "address"
        },
        {
          "internalType": "address",
          "name": "_token",
          "type": "address"
        },
        {
          "internalType": "uint256",
          "name": "_amount",
          "type": "uint256"
        },
        {
          "internalType": "uint64",
          "name": "_dstChainId",
          "type": "uint64"
        },
        {
          "internalType": "uint64",
          "name": "_nonce",
          "type": "uint64"
        },
        {
          "internalType": "uint32",
          "name": "_maxSlippage",
          "type": "uint32"
        },
        {
          "internalType": "enum BridgeTransferLib.BridgeSendType",
          "name": "_bridgeSendType",
          "type": "uint8"
        }
      ],
      "name": "transfer",
      "outputs": [
        {
          "internalType": "bytes32",
          "name": "",
          "type": "bytes32"
        }
      ],
      "stateMutability": "nonpayable",
      "type": "function"
    },
    {
      "inputs": [
        {
          "internalType": "address",
          "name": "newOwner",
          "type": "address"
        }
      ],
      "name": "transferOwnership",
      "outputs": [],
      "stateMutability": "nonpayable",
      "type": "function"
    },
    {
      "inputs": [],
      "name": "unpause",
      "outputs": [],
      "stateMutability": "nonpayable",
      "type": "function"
    },
    {
      "stateMutability": "payable",
      "type": "receive"
    }
  ],
  "bytecode": "0x60806040523480156200001157600080fd5b506001600055620000223362000040565b6001805460ff60a01b191690556200003a3362000092565b6200015a565b600180546001600160a01b038381166001600160a01b0319831681179093556040519116919082907f8be0079c531659141344cd1fd0a4f28419497f9722a3daafe3b4186f6b6457e090600090a35050565b6001600160a01b03811660009081526002602052604090205460ff1615620001005760405162461bcd60e51b815260206004820152601960248201527f4163636f756e7420697320616c72656164792070617573657200000000000000604482015260640160405180910390fd5b6001600160a01b038116600081815260026020908152604091829020805460ff1916600117905590519182527f6719d08c1888103bea251a4ed56406bd0c3e69723c8a1686e017e7bbe159b6f8910160405180910390a150565b613861806200016a6000396000f3fe60806040526004361061010d5760003560e01c80636b2c0f551161009557806382dc1ec41161006457806382dc1ec41461031b5780638456cb591461033b5780638da5cb5b146103505780639ff9001a1461036e578063f2fde38b1461038e57600080fd5b80636b2c0f55146102965780636ef8d66d146102b657806380f51c12146102cb57806381cc8677146102fb57600080fd5b806346fbf68e116100dc57806346fbf68e146101d157806347e7ef24146102015780635c975abb1461022157806365d67c33146102405780636701d5141461027657600080fd5b806301e64725146101195780631edeeb231461016c5780633f4ba83a1461019a578063457bfa2f146101b157600080fd5b3661011457005b600080fd5b34801561012557600080fd5b5061014f6101343660046130ad565b6004602052600090815260409020546001600160a01b031681565b6040516001600160a01b0390911681526020015b60405180910390f35b34801561017857600080fd5b5061018c610187366004613125565b6103ae565b604051908152602001610163565b3480156101a657600080fd5b506101af6105dc565b005b3480156101bd57600080fd5b5060055461014f906001600160a01b031681565b3480156101dd57600080fd5b506101f16101ec366004613238565b610632565b6040519015158152602001610163565b34801561020d57600080fd5b506101af61021c366004613255565b610650565b34801561022d57600080fd5b50600154600160a01b900460ff166101f1565b34801561024c57600080fd5b5061014f61025b366004613281565b6003602052600090815260409020546001600160a01b031681565b34801561028257600080fd5b506101af61029136600461329c565b610720565b3480156102a257600080fd5b506101af6102b1366004613238565b610838565b3480156102c257600080fd5b506101af61087d565b3480156102d757600080fd5b506101f16102e6366004613238565b60026020526000908152604090205460ff1681565b34801561030757600080fd5b5061018c6103163660046132ea565b610886565b34801561032757600080fd5b506101af610336366004613238565b610a14565b34801561034757600080fd5b506101af610a56565b34801561035c57600080fd5b506001546001600160a01b031661014f565b34801561037a57600080fd5b506101af610389366004613238565b610aaa565b34801561039a57600080fd5b506101af6103a9366004613238565b610b05565b6000600260005414156103dc5760405162461bcd60e51b81526004016103d390613378565b60405180910390fd5b60026000556103e9610bac565b336103fc6001546001600160a01b031690565b6001600160a01b0316146104225760405162461bcd60e51b81526004016103d3906133af565b60006003600084600681111561043a5761043a6133e4565b600681111561044b5761044b6133e4565b81526020810191909152604001600020546001600160a01b03169050806104aa5760405162461bcd60e51b8152602060048201526013602482015272756e6b6e6f776e20627269646765207479706560681b60448201526064016103d3565b60006104c68c8c8c8c8c8c8c8c6104c08d610bf9565b8b610cc9565b60208101519091506001600160a01b031630146105165760405162461bcd60e51b815260206004820152600e60248201526d1a5b9d985b1a59081c99599d5b9960921b60448201526064016103d3565b60808101516000908152600460205260409020546001600160a01b0316806105905760405162461bcd60e51b815260206004820152602760248201527f756e6b6e6f776e207472616e73666572206964206f7220616c7265616479207260448201526619599d5b99195960ca1b60648201526084016103d3565b60808201516000908152600460205260409081902080546001600160a01b031916905582015160608301516105c6918391610e3a565b505160016000559b9a5050505050505050505050565b6105e533610632565b6106285760405162461bcd60e51b815260206004820152601460248201527321b0b63632b91034b9903737ba103830bab9b2b960611b60448201526064016103d3565b610630610fd8565b565b6001600160a01b031660009081526002602052604090205460ff1690565b600260005414156106735760405162461bcd60e51b81526004016103d390613378565b6002600055610680610bac565b336106936001546001600160a01b031690565b6001600160a01b0316146106b95760405162461bcd60e51b81526004016103d3906133af565b6106ce6001600160a01b03831633308461102d565b604080513381526001600160a01b03841660208201529081018290527f8752a472e571a816aea92eec8dae9baf628e840f4929fbcc2d155e6233ff68a79060600160405180910390a150506001600055565b336107336001546001600160a01b031690565b6001600160a01b0316146107595760405162461bcd60e51b81526004016103d3906133af565b6001600160a01b0381166107a15760405162461bcd60e51b815260206004820152600f60248201526e696e76616c6964206164647265737360881b60448201526064016103d3565b80600360008460068111156107b8576107b86133e4565b60068111156107c9576107c96133e4565b815260200190815260200160002060006101000a8154816001600160a01b0302191690836001600160a01b031602179055507fe85507dd8a6159a69bf9f4aa5ae1283824ec9948b7d4a03d5cb457070f312dfc828260405161082c9291906133fa565b60405180910390a15050565b3361084b6001546001600160a01b031690565b6001600160a01b0316146108715760405162461bcd60e51b81526004016103d3906133af565b61087a81611098565b50565b61063033611098565b6000600260005414156108ab5760405162461bcd60e51b81526004016103d390613378565b60026000556108b8610bac565b336108cb6001546001600160a01b031690565b6001600160a01b0316146108f15760405162461bcd60e51b81526004016103d3906133af565b600060036000846006811115610909576109096133e4565b600681111561091a5761091a6133e4565b81526020810191909152604001600020546001600160a01b03169050806109795760405162461bcd60e51b8152602060048201526013602482015272756e6b6e6f776e20627269646765207479706560681b60448201526064016103d3565b600061098b8a8a8a8a8a8a8a8961113d565b6000818152600460205260409020549091506001600160a01b0316156109e35760405162461bcd60e51b815260206004820152600d60248201526c7265636f72642065786973747360981b60448201526064016103d3565b600081815260046020526040902080546001600160a01b031916331790559150506001600055979650505050505050565b33610a276001546001600160a01b031690565b6001600160a01b031614610a4d5760405162461bcd60e51b81526004016103d3906133af565b61087a81611699565b610a5f33610632565b610aa25760405162461bcd60e51b815260206004820152601460248201527321b0b63632b91034b9903737ba103830bab9b2b960611b60448201526064016103d3565b610630611743565b33610abd6001546001600160a01b031690565b6001600160a01b031614610ae35760405162461bcd60e51b81526004016103d3906133af565b600580546001600160a01b0319166001600160a01b0392909216919091179055565b33610b186001546001600160a01b031690565b6001600160a01b031614610b3e5760405162461bcd60e51b81526004016103d3906133af565b6001600160a01b038116610ba35760405162461bcd60e51b815260206004820152602660248201527f4f776e61626c653a206e6577206f776e657220697320746865207a65726f206160448201526564647265737360d01b60648201526084016103d3565b61087a81611786565b600154600160a01b900460ff16156106305760405162461bcd60e51b815260206004820152601060248201526f14185d5cd8589b194e881c185d5cd95960821b60448201526064016103d3565b60006001826006811115610c0f57610c0f6133e4565b1415610c1d57506002919050565b6002826006811115610c3157610c316133e4565b1415610c3f57506004919050565b6003826006811115610c5357610c536133e4565b1415610c6157506003919050565b6004826006811115610c7557610c756133e4565b1415610c8357506006919050565b6005826006811115610c9757610c976133e4565b1480610cb457506006826006811115610cb257610cb26133e4565b145b15610cc157506005919050565b506000919050565b610cd161307f565b6001836006811115610ce557610ce56133e4565b1415610d0357610cfc8b8b8b8b8b8b8b8b8a6117d8565b9050610e2c565b6002836006811115610d1757610d176133e4565b1415610d2e57610cfc8b8b8b8b8b8b8b8b8a6119ec565b6004836006811115610d4257610d426133e4565b1415610d5957610cfc8b8b8b8b8b8b8b8b8a611c44565b6003836006811115610d6d57610d6d6133e4565b1415610d8457610cfc8b8b8b8b8b8b8b8b8a611dd9565b6006836006811115610d9857610d986133e4565b1415610daf57610cfc8b8b8b8b8b8b8b8b8a611f5f565b6005836006811115610dc357610dc36133e4565b1415610dda57610cfc8b8b8b8b8b8b8b8b8a6121f2565b60405162461bcd60e51b815260206004820152602160248201527f62726964676520726563656976652074797065206e6f7420737570706f7274656044820152601960fa1b60648201526084016103d3565b9a9950505050505050505050565b6001600160a01b038216610f1757804710610efe576000836001600160a01b03168261c350906040515b600060405180830381858888f193505050503d8060008114610ea2576040519150601f19603f3d011682016040523d82523d6000602084013e610ea7565b606091505b5050905080610ef85760405162461bcd60e51b815260206004820152601b60248201527f6661696c656420746f2073656e64206e617469766520746f6b656e000000000060448201526064016103d3565b50505050565b610f126001600160a01b03831684836123f4565b505050565b6005546001600160a01b0383811691161415610efe576040516370a0823160e01b815230600482015281906001600160a01b038416906370a082319060240160206040518083038186803b158015610f6e57600080fd5b505afa158015610f82573d6000803e3d6000fd5b505050506040513d601f19601f82011682018060405250810190610fa69190613434565b10610fbf57610f126001600160a01b03831684836123f4565b6000836001600160a01b03168261c35090604051610e64565b610fe0612424565b6001805460ff60a01b191690557f5db9ee0a495bf2e6ff9c91a7834c1ba4fdd244a5e8aa4e537bd38aeae4b073aa335b6040516001600160a01b03909116815260200160405180910390a1565b6040516001600160a01b0380851660248301528316604482015260648101829052610ef89085906323b872dd60e01b906084015b60408051601f198184030181529190526020810180516001600160e01b03166001600160e01b031990931692909217909152612474565b6110a181610632565b6110e55760405162461bcd60e51b815260206004820152601560248201527420b1b1b7bab73a1034b9903737ba103830bab9b2b960591b60448201526064016103d3565b6001600160a01b038116600081815260026020908152604091829020805460ff1916905590519182527fcd265ebaf09df2871cc7bd4133404a235ba12eff2041bb89d9c714a2621c7c7e91015b60405180910390a150565b6000806111546001600160a01b038a16848a612546565b6001846006811115611168576111686133e4565b141561127d5760405163a5977fbb60e01b81526001600160a01b038b811660048301528a81166024830152604482018a90526001600160401b03808a1660648401528816608483015263ffffffff871660a483015284169063a5977fbb9060c401600060405180830381600087803b1580156111e357600080fd5b505af11580156111f7573d6000803e3d6000fd5b50506040516001600160601b031930606090811b821660208401528e811b821660348401528d901b166048820152605c81018b90526001600160c01b031960c08b811b8216607c8401528a811b8216608484015246901b16608c82015260940191506112609050565b60405160208183030381529060405280519060200120905061168c565b6002846006811115611291576112916133e4565b141561137657826001600160a01b031663234636248a8a8a8e8b6040518663ffffffff1660e01b81526004016112cb95949392919061344d565b600060405180830381600087803b1580156112e557600080fd5b505af11580156112f9573d6000803e3d6000fd5b50505050308989898d8a466040516020016112609796959493929190606097881b6001600160601b0319908116825296881b87166014820152602881019590955260c093841b6001600160c01b031990811660488701529290961b909416605084015292811b831660648301529290921b16606c82015260740190565b600384600681111561138a5761138a6133e4565b141561149857604051636f3c863f60e11b81526001600160a01b038a81166004830152602482018a90528b811660448301526001600160401b038816606483015284169063de790c7e90608401600060405180830381600087803b1580156113f157600080fd5b505af1158015611405573d6000803e3d6000fd5b50506040516001600160601b031930606090811b821660208401528d811b82166034840152604883018d90528e901b1660688201526001600160c01b031960c08a811b8216607c84015246901b166084820152608c0191506114649050565b60408051601f19818403018152919052805160209091012090506114936001600160a01b038a16846000612607565b61168c565b60048460068111156114ac576114ac6133e4565b141561153f57826001600160a01b031663234636248a8a8a8e8b6040518663ffffffff1660e01b81526004016114e695949392919061344d565b602060405180830381600087803b15801561150057600080fd5b505af1158015611514573d6000803e3d6000fd5b505050506040513d601f19601f820116820180604052508101906115389190613434565b905061168c565b6005846006811115611553576115536133e4565b14156115f657826001600160a01b031663a00293018a8a8a8e8b6040518663ffffffff1660e01b815260040161158d95949392919061344d565b602060405180830381600087803b1580156115a757600080fd5b505af11580156115bb573d6000803e3d6000fd5b505050506040513d601f19601f820116820180604052508101906115df9190613434565b90506114936001600160a01b038a16846000612607565b600684600681111561160a5761160a6133e4565b141561164457826001600160a01b0316639e422c338a8a8a8e8b6040518663ffffffff1660e01b815260040161158d95949392919061344d565b60405162461bcd60e51b815260206004820152601e60248201527f6272696467652073656e642074797065206e6f7420737570706f72746564000060448201526064016103d3565b9998505050505050505050565b6116a281610632565b156116ef5760405162461bcd60e51b815260206004820152601960248201527f4163636f756e7420697320616c7265616479207061757365720000000000000060448201526064016103d3565b6001600160a01b038116600081815260026020908152604091829020805460ff1916600117905590519182527f6719d08c1888103bea251a4ed56406bd0c3e69723c8a1686e017e7bbe159b6f89101611132565b61174b610bac565b6001805460ff60a01b1916600160a01b1790557f62e78cea01bee320cd4e420270b5ea74000d11b0c9f74754ebdbfc544b05a2586110103390565b600180546001600160a01b038381166001600160a01b0319831681179093556040519116919082907f8be0079c531659141344cd1fd0a4f28419497f9722a3daafe3b4186f6b6457e090600090a35050565b6117e061307f565b6117e861307f565b60006118298c8c8080601f01602080910402602001604051908101604052809392919081815260200183838082843760009201919091525061272b92505050565b8051602080830151604080850151606080870151608088015160c0808a0151955198841b6001600160601b0319908116988a019890985295831b871660348901529290911b9094166048860152605c85019390935291811b6001600160c01b0319908116607c8501524690911b166084830152608c82015290915060ac0160408051601f19818403018152918152815160209283012080855260c08401516080860152838301516001600160a01b039081169386019390935283820151831685830152606080850151908601529051633c64f04b60e01b815291861691633c64f04b9161191c9160040190815260200190565b60206040518083038186803b15801561193457600080fd5b505afa158015611948573d6000803e3d6000fd5b505050506040513d601f19601f8201168201806040525081019061196c9190613488565b6119dd5760405163cdd1b25d60e01b81526001600160a01b0385169063cdd1b25d906119aa908f908f908f908f908f908f908f908f90600401613552565b600060405180830381600087803b1580156119c457600080fd5b505af11580156119d8573d6000803e3d6000fd5b505050505b509a9950505050505050505050565b6119f461307f565b6119fc61307f565b6000611a3d8c8c8080601f0160208091040260200160405190810160405280939291908181526020018383808284376000920191909152506128b892505050565b8051602080830151604080850151606080870151608088015193516001600160c01b031960c098891b8116978201979097529490961b90941660288401526001600160601b031990841b811660308401529390921b9092166044830152605882015290915060780160408051601f198184030181529181528151602092830120845260a08301516080850152828101516001600160a01b03908116858401526060840151825163457bfa2f60e01b81529251908216939188169263457bfa2f926004808301939192829003018186803b158015611b1957600080fd5b505afa158015611b2d573d6000803e3d6000fd5b505050506040513d601f19601f82011682018060405250810190611b519190613633565b6001600160a01b03161415611b6c5760006040830152611b80565b60608101516001600160a01b031660408301525b608081015160608301528151604051631c13568560e31b815260048101919091526001600160a01b0385169063e09ab428906024015b60206040518083038186803b158015611bce57600080fd5b505afa158015611be2573d6000803e3d6000fd5b505050506040513d601f19601f82011682018060405250810190611c069190613488565b6119dd57604051630144352560e71b81526001600160a01b0385169063a21a9280906119aa908f908f908f908f908f908f908f908f90600401613552565b611c4c61307f565b611c5461307f565b6000611c958c8c8080601f0160208091040260200160405190810160405280939291908181526020018383808284376000920191909152506129ff92505050565b9050806020015181600001518260400151836060015184608001518560a00151604051602001611cca96959493929190613650565b60408051601f198184030181529181528151602092830120845260a08301516080850152828201516001600160a01b03908116858401528351825163457bfa2f60e01b81529251908216939188169263457bfa2f926004808301939192829003018186803b158015611d3b57600080fd5b505afa158015611d4f573d6000803e3d6000fd5b505050506040513d601f19601f82011682018060405250810190611d739190613633565b6001600160a01b03161415611d8e5760006040830152611d9f565b80516001600160a01b031660408301525b6040818101516060840152825190516301e6472560e01b815260048101919091526001600160a01b038516906301e6472590602401611bb6565b611de161307f565b611de961307f565b6000611e2a8c8c8080601f016020809104026020016040519081016040528093929190818152602001838380828437600092019190915250612b4992505050565b9050806020015181600001518260400151836060015184608001518560a00151604051602001611e5f96959493929190613650565b60408051601f19818403018152918152815160209283012080855260a08401516080860152838301516001600160a01b0390811693860193909352835183168583015283820151606086015290516301e6472560e01b8152918616916301e6472591611ed19160040190815260200190565b60206040518083038186803b158015611ee957600080fd5b505afa158015611efd573d6000803e3d6000fd5b505050506040513d601f19601f82011682018060405250810190611f219190613488565b6119dd57604051637c39a18160e11b81526001600160a01b0385169063f8734302906119aa908f908f908f908f908f908f908f908f90600401613552565b611f6761307f565b611f6f61307f565b6000611fb08c8c8080601f0160208091040260200160405190810160405280939291908181526020018383808284376000920191909152506129ff92505050565b60a08101516040516301e6472560e01b81529192506001600160a01b038616916301e6472591611fe69160040190815260200190565b60206040518083038186803b158015611ffe57600080fd5b505afa158015612012573d6000803e3d6000fd5b505050506040513d601f19601f820116820180604052508101906120369190613488565b1561208f57806020015181600001518260400151836060015184608001518560a001518960405160200161207097969594939291906136a1565b60408051601f198184030181529190528051602090910120825261211e565b604051630144352560e71b81526001600160a01b0385169063a21a9280906120c9908f908f908f908f908f908f908f908f90600401613552565b602060405180830381600087803b1580156120e357600080fd5b505af11580156120f7573d6000803e3d6000fd5b505050506040513d601f19601f8201168201806040525081019061211b9190613434565b82525b60a081015160808301526020808201516001600160a01b039081168285015282516040805163457bfa2f60e01b81529051918316939288169263457bfa2f92600480840193829003018186803b15801561217757600080fd5b505afa15801561218b573d6000803e3d6000fd5b505050506040513d601f19601f820116820180604052508101906121af9190613633565b6001600160a01b031614156121ca57600060408301526121db565b80516001600160a01b031660408301525b6040015160608201529a9950505050505050505050565b6121fa61307f565b61220261307f565b60006122438c8c8080601f016020809104026020016040519081016040528093929190818152602001838380828437600092019190915250612b4992505050565b60a08101516040516301e6472560e01b81529192506001600160a01b038616916301e64725916122799160040190815260200190565b60206040518083038186803b15801561229157600080fd5b505afa1580156122a5573d6000803e3d6000fd5b505050506040513d601f19601f820116820180604052508101906122c99190613488565b1561232257806020015181600001518260400151836060015184608001518560a001518960405160200161230397969594939291906136a1565b60408051601f19818403018152919052805160209091012082526123b1565b604051637c39a18160e11b81526001600160a01b0385169063f87343029061235c908f908f908f908f908f908f908f908f90600401613552565b602060405180830381600087803b15801561237657600080fd5b505af115801561238a573d6000803e3d6000fd5b505050506040513d601f19601f820116820180604052508101906123ae9190613434565b82525b60a081015160808301526020808201516001600160a01b0390811691840191909152815116604080840191909152015160608201529a9950505050505050505050565b6040516001600160a01b038316602482015260448101829052610f1290849063a9059cbb60e01b90606401611061565b600154600160a01b900460ff166106305760405162461bcd60e51b815260206004820152601460248201527314185d5cd8589b194e881b9bdd081c185d5cd95960621b60448201526064016103d3565b60006124c9826040518060400160405280602081526020017f5361666545524332303a206c6f772d6c6576656c2063616c6c206661696c6564815250856001600160a01b0316612c939092919063ffffffff16565b805190915015610f1257808060200190518101906124e79190613488565b610f125760405162461bcd60e51b815260206004820152602a60248201527f5361666545524332303a204552433230206f7065726174696f6e20646964206e6044820152691bdd081cdd58d8d9595960b21b60648201526084016103d3565b604051636eb1769f60e11b81523060048201526001600160a01b038381166024830152600091839186169063dd62ed3e9060440160206040518083038186803b15801561259257600080fd5b505afa1580156125a6573d6000803e3d6000fd5b505050506040513d601f19601f820116820180604052508101906125ca9190613434565b6125d4919061370f565b6040516001600160a01b038516602482015260448101829052909150610ef890859063095ea7b360e01b90606401611061565b8015806126905750604051636eb1769f60e11b81523060048201526001600160a01b03838116602483015284169063dd62ed3e9060440160206040518083038186803b15801561265657600080fd5b505afa15801561266a573d6000803e3d6000fd5b505050506040513d601f19601f8201168201806040525081019061268e9190613434565b155b6126fb5760405162461bcd60e51b815260206004820152603660248201527f5361666545524332303a20617070726f76652066726f6d206e6f6e2d7a65726f60448201527520746f206e6f6e2d7a65726f20616c6c6f77616e636560501b60648201526084016103d3565b6040516001600160a01b038316602482015260448101829052610f1290849063095ea7b360e01b90606401611061565b6040805160e08101825260008082526020808301829052828401829052606083018290526080830182905260a0830182905260c0830182905283518085019094528184528301849052909190805b602083015151835110156128b05761279083612cac565b909250905081600114156127bf576127af6127aa84612ce6565b612da2565b6001600160a01b03168452612779565b81600214156127e7576127d46127aa84612ce6565b6001600160a01b03166020850152612779565b816003141561280f576127fc6127aa84612ce6565b6001600160a01b03166040850152612779565b81600414156128335761282961282484612ce6565b612db3565b6060850152612779565b81600514156128585761284583612dea565b6001600160401b03166080850152612779565b816006141561287d5761286a83612dea565b6001600160401b031660a0850152612779565b81600714156128a15761289761289284612ce6565b612e6c565b60c0850152612779565b6128ab8382612e84565b612779565b505050919050565b6040805160c08101825260008082526020808301829052828401829052606083018290526080830182905260a0830182905283518085019094528184528301849052909190805b602083015151835110156128b05761291683612cac565b9092509050816001141561293d5761292d83612dea565b6001600160401b031684526128ff565b81600214156129625761294f83612dea565b6001600160401b031660208501526128ff565b816003141561298a576129776127aa84612ce6565b6001600160a01b031660408501526128ff565b81600414156129b25761299f6127aa84612ce6565b6001600160a01b031660608501526128ff565b81600514156129d1576129c761282484612ce6565b60808501526128ff565b81600614156129f0576129e661289284612ce6565b60a08501526128ff565b6129fa8382612e84565b6128ff565b6040805160c08101825260008082526020808301829052828401829052606083018290526080830182905260a0830182905283518085019094528184528301849052909190805b602083015151835110156128b057612a5d83612cac565b90925090508160011415612a8757612a776127aa84612ce6565b6001600160a01b03168452612a46565b8160021415612aaf57612a9c6127aa84612ce6565b6001600160a01b03166020850152612a46565b8160031415612ace57612ac461282484612ce6565b6040850152612a46565b8160041415612af657612ae36127aa84612ce6565b6001600160a01b03166060850152612a46565b8160051415612b1b57612b0883612dea565b6001600160401b03166080850152612a46565b8160061415612b3a57612b3061289284612ce6565b60a0850152612a46565b612b448382612e84565b612a46565b6040805160c08101825260008082526020808301829052828401829052606083018290526080830182905260a0830182905283518085019094528184528301849052909190805b602083015151835110156128b057612ba783612cac565b90925090508160011415612bd157612bc16127aa84612ce6565b6001600160a01b03168452612b90565b8160021415612bf957612be66127aa84612ce6565b6001600160a01b03166020850152612b90565b8160031415612c1857612c0e61282484612ce6565b6040850152612b90565b8160041415612c4057612c2d6127aa84612ce6565b6001600160a01b03166060850152612b90565b8160051415612c6557612c5283612dea565b6001600160401b03166080850152612b90565b8160061415612c8457612c7a61289284612ce6565b60a0850152612b90565b612c8e8382612e84565b612b90565b6060612ca28484600085612ef6565b90505b9392505050565b6000806000612cba84612dea565b9050612cc7600882613727565b9250806007166005811115612cde57612cde6133e4565b915050915091565b60606000612cf383612dea565b90506000818460000151612d07919061370f565b9050836020015151811115612d1b57600080fd5b816001600160401b03811115612d3357612d33613749565b6040519080825280601f01601f191660200182016040528015612d5d576020820181803683370190505b50602080860151865192955091818601919083010160005b85811015612d97578181015183820152612d9060208261370f565b9050612d75565b505050935250919050565b6000612dad82613027565b92915050565b6000602082511115612dc457600080fd5b6020820151905081516020612dd9919061375f565b612de4906008613776565b1c919050565b602080820151825181019091015160009182805b600a811015612e665783811a9150612e17816007613776565b82607f16901b851794508160801660001415612e5457612e3881600161370f565b86518790612e4790839061370f565b9052509395945050505050565b80612e5e81613795565b915050612dfe565b50600080fd5b60008151602014612e7c57600080fd5b506020015190565b6000816005811115612e9857612e986133e4565b1415612ea757610f1282612dea565b6002816005811115612ebb57612ebb6133e4565b1415610114576000612ecc83612dea565b90508083600001818151612ee0919061370f565b90525060208301515183511115610f1257600080fd5b606082471015612f575760405162461bcd60e51b815260206004820152602660248201527f416464726573733a20696e73756666696369656e742062616c616e636520666f6044820152651c8818d85b1b60d21b60648201526084016103d3565b6001600160a01b0385163b612fae5760405162461bcd60e51b815260206004820152601d60248201527f416464726573733a2063616c6c20746f206e6f6e2d636f6e747261637400000060448201526064016103d3565b600080866001600160a01b03168587604051612fca91906137dc565b60006040518083038185875af1925050503d8060008114613007576040519150601f19603f3d011682016040523d82523d6000602084013e61300c565b606091505b509150915061301c828286613046565b979650505050505050565b6000815160141461303757600080fd5b5060200151600160601b900490565b60608315613055575081612ca5565b8251156130655782518084602001fd5b8160405162461bcd60e51b81526004016103d391906137f8565b6040805160a08101825260008082526020820181905291810182905260608101829052608081019190915290565b6000602082840312156130bf57600080fd5b5035919050565b60008083601f8401126130d857600080fd5b5081356001600160401b038111156130ef57600080fd5b6020830191508360208260051b850101111561310a57600080fd5b9250929050565b80356007811061312057600080fd5b919050565b600080600080600080600080600060a08a8c03121561314357600080fd5b89356001600160401b038082111561315a57600080fd5b818c0191508c601f83011261316e57600080fd5b81358181111561317d57600080fd5b8d602082850101111561318f57600080fd5b60209283019b509950908b013590808211156131aa57600080fd5b6131b68d838e016130c6565b909950975060408c01359150808211156131cf57600080fd5b6131db8d838e016130c6565b909750955060608c01359150808211156131f457600080fd5b506132018c828d016130c6565b9094509250613214905060808b01613111565b90509295985092959850929598565b6001600160a01b038116811461087a57600080fd5b60006020828403121561324a57600080fd5b8135612ca581613223565b6000806040838503121561326857600080fd5b823561327381613223565b946020939093013593505050565b60006020828403121561329357600080fd5b612ca582613111565b600080604083850312156132af57600080fd5b6132b883613111565b915060208301356132c881613223565b809150509250929050565b80356001600160401b038116811461312057600080fd5b600080600080600080600060e0888a03121561330557600080fd5b873561331081613223565b9650602088013561332081613223565b955060408801359450613335606089016132d3565b9350613343608089016132d3565b925060a088013563ffffffff8116811461335c57600080fd5b915061336a60c08901613111565b905092959891949750929550565b6020808252601f908201527f5265656e7472616e637947756172643a207265656e7472616e742063616c6c00604082015260600190565b6020808252818101527f4f776e61626c653a2063616c6c6572206973206e6f7420746865206f776e6572604082015260600190565b634e487b7160e01b600052602160045260246000fd5b604081016007841061341c57634e487b7160e01b600052602160045260246000fd5b9281526001600160a01b039190911660209091015290565b60006020828403121561344657600080fd5b5051919050565b6001600160a01b03958616815260208101949094526001600160401b0392831660408501529316606083015291909116608082015260a00190565b60006020828403121561349a57600080fd5b81518015158114612ca557600080fd5b81835281816020850137506000828201602090810191909152601f909101601f19169091010190565b8183526000602080850194508260005b858110156135115781356134f681613223565b6001600160a01b0316875295820195908201906001016134e3565b509495945050505050565b81835260006001600160fb1b0383111561353557600080fd5b8260051b8083602087013760009401602001938452509192915050565b608081526000613566608083018a8c6134aa565b82810360208401528088825260208201905060208960051b8301018a60005b8b8110156135f857848303601f190184528135368e9003601e190181126135ab57600080fd5b8d0180356001600160401b038111156135c357600080fd5b8036038f13156135d257600080fd5b6135e08582602085016134aa565b60209687019690955093909301925050600101613585565b5050848103604086015261360d81898b6134d3565b92505050828103606084015261362481858761351c565b9b9a5050505050505050505050565b60006020828403121561364557600080fd5b8151612ca581613223565b606096871b6001600160601b0319908116825295871b8616601482015260288101949094529190941b909216604882015260c09290921b6001600160c01b031916605c830152606482015260840190565b606097881b6001600160601b0319908116825296881b87166014820152602881019590955292861b8516604885015260c09190911b6001600160c01b031916605c840152606483015290921b16608482015260980190565b634e487b7160e01b600052601160045260246000fd5b60008219821115613722576137226136f9565b500190565b60008261374457634e487b7160e01b600052601260045260246000fd5b500490565b634e487b7160e01b600052604160045260246000fd5b600082821015613771576137716136f9565b500390565b6000816000190483118215151615613790576137906136f9565b500290565b60006000198214156137a9576137a96136f9565b5060010190565b60005b838110156137cb5781810151838201526020016137b3565b83811115610ef85750506000910152565b600082516137ee8184602087016137b0565b9190910192915050565b60208152600082518060208401526138178160408501602087016137b0565b601f01601f1916919091016040019291505056fea264697066735822122047712c481252e74ddf25ff5349ed87e912ea6dc00a3f4068378a6f66fcdc73a164736f6c63430008090033",
  "linkReferences": {},
  "deployedLinkReferences": {}
}