{
  "_format": "hh-sol-artifact-1",
  "contractName": "Staking",
  "sourceName": "contracts/cBridge/staking/Staking.sol",
  "abi": [
    {
      "inputs": [
        {
          "internalType": "address",
          "name": "_celerTokenAddress",
          "type": "address"
        },
        {
          "internalType": "uint256",
          "name": "_proposalDeposit",
          "type": "uint256"
        },
        {
          "internalType": "uint256",
          "name": "_votingPeriod",
          "type": "uint256"
        },
        {
          "internalType": "uint256",
          "name": "_unbondingPeriod",
          "type": "uint256"
        },
        {
          "internalType": "uint256",
          "name": "_maxBondedValidators",
          "type": "uint256"
        },
        {
          "internalType": "uint256",
          "name": "_minValidatorTokens",
          "type": "uint256"
        },
        {
          "internalType": "uint256",
          "name": "_minSelfDelegation",
          "type": "uint256"
        },
        {
          "internalType": "uint256",
          "name": "_advanceNoticePeriod",
          "type": "uint256"
        },
        {
          "internalType": "uint256",
          "name": "_validatorBondInterval",
          "type": "uint256"
        },
        {
          "internalType": "uint256",
          "name": "_maxSlashFactor",
          "type": "uint256"
        }
      ],
      "stateMutability": "nonpayable",
      "type": "constructor"
    },
    {
      "anonymous": false,
      "inputs": [
        {
          "indexed": true,
          "internalType": "address",
          "name": "valAddr",
          "type": "address"
        },
        {
          "indexed": true,
          "internalType": "address",
          "name": "delAddr",
          "type": "address"
        },
        {
          "indexed": false,
          "internalType": "uint256",
          "name": "valTokens",
          "type": "uint256"
        },
        {
          "indexed": false,
          "internalType": "uint256",
          "name": "delShares",
          "type": "uint256"
        },
        {
          "indexed": false,
          "internalType": "int256",
          "name": "tokenDiff",
          "type": "int256"
        }
      ],
      "name": "DelegationUpdate",
      "type": "event"
    },
    {
      "anonymous": false,
      "inputs": [
        {
          "indexed": true,
          "internalType": "address",
          "name": "previousOwner",
          "type": "address"
        },
        {
          "indexed": true,
          "internalType": "address",
          "name": "newOwner",
          "type": "address"
        }
      ],
      "name": "OwnershipTransferred",
      "type": "event"
    },
    {
      "anonymous": false,
      "inputs": [
        {
          "indexed": false,
          "internalType": "address",
          "name": "account",
          "type": "address"
        }
      ],
      "name": "Paused",
      "type": "event"
    },
    {
      "anonymous": false,
      "inputs": [
        {
          "indexed": false,
          "internalType": "address",
          "name": "account",
          "type": "address"
        }
      ],
      "name": "PauserAdded",
      "type": "event"
    },
    {
      "anonymous": false,
      "inputs": [
        {
          "indexed": false,
          "internalType": "address",
          "name": "account",
          "type": "address"
        }
      ],
      "name": "PauserRemoved",
      "type": "event"
    },
    {
      "anonymous": false,
      "inputs": [
        {
          "indexed": true,
          "internalType": "address",
          "name": "valAddr",
          "type": "address"
        },
        {
          "indexed": false,
          "internalType": "uint64",
          "name": "nonce",
          "type": "uint64"
        },
        {
          "indexed": false,
          "internalType": "uint256",
          "name": "slashAmt",
          "type": "uint256"
        }
      ],
      "name": "Slash",
      "type": "event"
    },
    {
      "anonymous": false,
      "inputs": [
        {
          "indexed": true,
          "internalType": "address",
          "name": "recipient",
          "type": "address"
        },
        {
          "indexed": false,
          "internalType": "uint256",
          "name": "amount",
          "type": "uint256"
        }
      ],
      "name": "SlashAmtCollected",
      "type": "event"
    },
    {
      "anonymous": false,
      "inputs": [
        {
          "indexed": true,
          "internalType": "address",
          "name": "valAddr",
          "type": "address"
        },
        {
          "indexed": true,
          "internalType": "address",
          "name": "delAddr",
          "type": "address"
        },
        {
          "indexed": false,
          "internalType": "uint256",
          "name": "amount",
          "type": "uint256"
        }
      ],
      "name": "Undelegated",
      "type": "event"
    },
    {
      "anonymous": false,
      "inputs": [
        {
          "indexed": false,
          "internalType": "address",
          "name": "account",
          "type": "address"
        }
      ],
      "name": "Unpaused",
      "type": "event"
    },
    {
      "anonymous": false,
      "inputs": [
        {
          "indexed": true,
          "internalType": "address",
          "name": "valAddr",
          "type": "address"
        },
        {
          "indexed": false,
          "internalType": "string",
          "name": "key",
          "type": "string"
        },
        {
          "indexed": false,
          "internalType": "bytes",
          "name": "data",
          "type": "bytes"
        },
        {
          "indexed": false,
          "internalType": "address",
          "name": "from",
          "type": "address"
        }
      ],
      "name": "ValidatorNotice",
      "type": "event"
    },
    {
      "anonymous": false,
      "inputs": [
        {
          "indexed": true,
          "internalType": "address",
          "name": "valAddr",
          "type": "address"
        },
        {
          "indexed": true,
          "internalType": "enum DataTypes.ValidatorStatus",
          "name": "status",
          "type": "uint8"
        }
      ],
      "name": "ValidatorStatusUpdate",
      "type": "event"
    },
    {
      "anonymous": false,
      "inputs": [
        {
          "indexed": false,
          "internalType": "address",
          "name": "account",
          "type": "address"
        }
      ],
      "name": "WhitelistedAdded",
      "type": "event"
    },
    {
      "anonymous": false,
      "inputs": [
        {
          "indexed": false,
          "internalType": "address",
          "name": "account",
          "type": "address"
        }
      ],
      "name": "WhitelistedRemoved",
      "type": "event"
    },
    {
      "inputs": [],
      "name": "CELER_TOKEN",
      "outputs": [
        {
          "internalType": "contract IERC20",
          "name": "",
          "type": "address"
        }
      ],
      "stateMutability": "view",
      "type": "function"
    },
    {
      "inputs": [
        {
          "internalType": "address",
          "name": "account",
          "type": "address"
        }
      ],
      "name": "addPauser",
      "outputs": [],
      "stateMutability": "nonpayable",
      "type": "function"
    },
    {
      "inputs": [
        {
          "internalType": "address",
          "name": "account",
          "type": "address"
        }
      ],
      "name": "addWhitelisted",
      "outputs": [],
      "stateMutability": "nonpayable",
      "type": "function"
    },
    {
      "inputs": [],
      "name": "bondValidator",
      "outputs": [],
      "stateMutability": "nonpayable",
      "type": "function"
    },
    {
      "inputs": [],
      "name": "bondedTokens",
      "outputs": [
        {
          "internalType": "uint256",
          "name": "",
          "type": "uint256"
        }
      ],
      "stateMutability": "view",
      "type": "function"
    },
    {
      "inputs": [
        {
          "internalType": "uint256",
          "name": "",
          "type": "uint256"
        }
      ],
      "name": "bondedValAddrs",
      "outputs": [
        {
          "internalType": "address",
          "name": "",
          "type": "address"
        }
      ],
      "stateMutability": "view",
      "type": "function"
    },
    {
      "inputs": [],
      "name": "collectForfeiture",
      "outputs": [],
      "stateMutability": "nonpayable",
      "type": "function"
    },
    {
      "inputs": [
        {
          "internalType": "address",
          "name": "_valAddr",
          "type": "address"
        }
      ],
      "name": "completeUndelegate",
      "outputs": [],
      "stateMutability": "nonpayable",
      "type": "function"
    },
    {
      "inputs": [
        {
          "internalType": "address",
          "name": "_valAddr",
          "type": "address"
        }
      ],
      "name": "confirmUnbondedValidator",
      "outputs": [],
      "stateMutability": "nonpayable",
      "type": "function"
    },
    {
      "inputs": [
        {
          "internalType": "address",
          "name": "_valAddr",
          "type": "address"
        },
        {
          "internalType": "uint256",
          "name": "_tokens",
          "type": "uint256"
        }
      ],
      "name": "delegate",
      "outputs": [],
      "stateMutability": "nonpayable",
      "type": "function"
    },
    {
      "inputs": [
        {
          "internalType": "uint256",
          "name": "_amount",
          "type": "uint256"
        }
      ],
      "name": "drainToken",
      "outputs": [],
      "stateMutability": "nonpayable",
      "type": "function"
    },
    {
      "inputs": [],
      "name": "forfeiture",
      "outputs": [
        {
          "internalType": "uint256",
          "name": "",
          "type": "uint256"
        }
      ],
      "stateMutability": "view",
      "type": "function"
    },
    {
      "inputs": [],
      "name": "getBondedValidatorNum",
      "outputs": [
        {
          "internalType": "uint256",
          "name": "",
          "type": "uint256"
        }
      ],
      "stateMutability": "view",
      "type": "function"
    },
    {
      "inputs": [],
      "name": "getBondedValidatorsTokens",
      "outputs": [
        {
          "components": [
            {
              "internalType": "address",
              "name": "valAddr",
              "type": "address"
            },
            {
              "internalType": "uint256",
              "name": "tokens",
              "type": "uint256"
            }
          ],
          "internalType": "struct DataTypes.ValidatorTokens[]",
          "name": "",
          "type": "tuple[]"
        }
      ],
      "stateMutability": "view",
      "type": "function"
    },
    {
      "inputs": [
        {
          "internalType": "address",
          "name": "_valAddr",
          "type": "address"
        },
        {
          "internalType": "address",
          "name": "_delAddr",
          "type": "address"
        }
      ],
      "name": "getDelegatorInfo",
      "outputs": [
        {
          "components": [
            {
              "internalType": "address",
              "name": "valAddr",
              "type": "address"
            },
            {
              "internalType": "uint256",
              "name": "tokens",
              "type": "uint256"
            },
            {
              "internalType": "uint256",
              "name": "shares",
              "type": "uint256"
            },
            {
              "components": [
                {
                  "internalType": "uint256",
                  "name": "shares",
                  "type": "uint256"
                },
                {
                  "internalType": "uint256",
                  "name": "creationBlock",
                  "type": "uint256"
                }
              ],
              "internalType": "struct DataTypes.Undelegation[]",
              "name": "undelegations",
              "type": "tuple[]"
            },
            {
              "internalType": "uint256",
              "name": "undelegationTokens",
              "type": "uint256"
            },
            {
              "internalType": "uint256",
              "name": "withdrawableUndelegationTokens",
              "type": "uint256"
            }
          ],
          "internalType": "struct DataTypes.DelegatorInfo",
          "name": "",
          "type": "tuple"
        }
      ],
      "stateMutability": "view",
      "type": "function"
    },
    {
      "inputs": [
        {
          "internalType": "enum DataTypes.ParamName",
          "name": "_name",
          "type": "uint8"
        }
      ],
      "name": "getParamValue",
      "outputs": [
        {
          "internalType": "uint256",
          "name": "",
          "type": "uint256"
        }
      ],
      "stateMutability": "view",
      "type": "function"
    },
    {
      "inputs": [],
      "name": "getQuorumTokens",
      "outputs": [
        {
          "internalType": "uint256",
          "name": "",
          "type": "uint256"
        }
      ],
      "stateMutability": "view",
      "type": "function"
    },
    {
      "inputs": [],
      "name": "getValidatorNum",
      "outputs": [
        {
          "internalType": "uint256",
          "name": "",
          "type": "uint256"
        }
      ],
      "stateMutability": "view",
      "type": "function"
    },
    {
      "inputs": [
        {
          "internalType": "address",
          "name": "_valAddr",
          "type": "address"
        }
      ],
      "name": "getValidatorStatus",
      "outputs": [
        {
          "internalType": "enum DataTypes.ValidatorStatus",
          "name": "",
          "type": "uint8"
        }
      ],
      "stateMutability": "view",
      "type": "function"
    },
    {
      "inputs": [
        {
          "internalType": "address",
          "name": "_valAddr",
          "type": "address"
        }
      ],
      "name": "getValidatorTokens",
      "outputs": [
        {
          "internalType": "uint256",
          "name": "",
          "type": "uint256"
        }
      ],
      "stateMutability": "view",
      "type": "function"
    },
    {
      "inputs": [],
      "name": "govContract",
      "outputs": [
        {
          "internalType": "address",
          "name": "",
          "type": "address"
        }
      ],
      "stateMutability": "view",
      "type": "function"
    },
    {
      "inputs": [
        {
          "internalType": "address",
          "name": "_valAddr",
          "type": "address"
        },
        {
          "internalType": "bool",
          "name": "_checkSelfDelegation",
          "type": "bool"
        }
      ],
      "name": "hasMinRequiredTokens",
      "outputs": [
        {
          "internalType": "bool",
          "name": "",
          "type": "bool"
        }
      ],
      "stateMutability": "view",
      "type": "function"
    },
    {
      "inputs": [
        {
          "internalType": "address",
          "name": "_signer",
          "type": "address"
        },
        {
          "internalType": "uint256",
          "name": "_minSelfDelegation",
          "type": "uint256"
        },
        {
          "internalType": "uint64",
          "name": "_commissionRate",
          "type": "uint64"
        }
      ],
      "name": "initializeValidator",
      "outputs": [],
      "stateMutability": "nonpayable",
      "type": "function"
    },
    {
      "inputs": [
        {
          "internalType": "address",
          "name": "_addr",
          "type": "address"
        }
      ],
      "name": "isBondedValidator",
      "outputs": [
        {
          "internalType": "bool",
          "name": "",
          "type": "bool"
        }
      ],
      "stateMutability": "view",
      "type": "function"
    },
    {
      "inputs": [
        {
          "internalType": "address",
          "name": "account",
          "type": "address"
        }
      ],
      "name": "isPauser",
      "outputs": [
        {
          "internalType": "bool",
          "name": "",
          "type": "bool"
        }
      ],
      "stateMutability": "view",
      "type": "function"
    },
    {
      "inputs": [
        {
          "internalType": "address",
          "name": "account",
          "type": "address"
        }
      ],
      "name": "isWhitelisted",
      "outputs": [
        {
          "internalType": "bool",
          "name": "",
          "type": "bool"
        }
      ],
      "stateMutability": "view",
      "type": "function"
    },
    {
      "inputs": [],
      "name": "nextBondBlock",
      "outputs": [
        {
          "internalType": "uint256",
          "name": "",
          "type": "uint256"
        }
      ],
      "stateMutability": "view",
      "type": "function"
    },
    {
      "inputs": [],
      "name": "owner",
      "outputs": [
        {
          "internalType": "address",
          "name": "",
          "type": "address"
        }
      ],
      "stateMutability": "view",
      "type": "function"
    },
    {
      "inputs": [
        {
          "internalType": "enum DataTypes.ParamName",
          "name": "",
          "type": "uint8"
        }
      ],
      "name": "params",
      "outputs": [
        {
          "internalType": "uint256",
          "name": "",
          "type": "uint256"
        }
      ],
      "stateMutability": "view",
      "type": "function"
    },
    {
      "inputs": [],
      "name": "pause",
      "outputs": [],
      "stateMutability": "nonpayable",
      "type": "function"
    },
    {
      "inputs": [],
      "name": "paused",
      "outputs": [
        {
          "internalType": "bool",
          "name": "",
          "type": "bool"
        }
      ],
      "stateMutability": "view",
      "type": "function"
    },
    {
      "inputs": [
        {
          "internalType": "address",
          "name": "",
          "type": "address"
        }
      ],
      "name": "pausers",
      "outputs": [
        {
          "internalType": "bool",
          "name": "",
          "type": "bool"
        }
      ],
      "stateMutability": "view",
      "type": "function"
    },
    {
      "inputs": [
        {
          "internalType": "address",
          "name": "account",
          "type": "address"
        }
      ],
      "name": "removePauser",
      "outputs": [],
      "stateMutability": "nonpayable",
      "type": "function"
    },
    {
      "inputs": [
        {
          "internalType": "address",
          "name": "account",
          "type": "address"
        }
      ],
      "name": "removeWhitelisted",
      "outputs": [],
      "stateMutability": "nonpayable",
      "type": "function"
    },
    {
      "inputs": [],
      "name": "renouncePauser",
      "outputs": [],
      "stateMutability": "nonpayable",
      "type": "function"
    },
    {
      "inputs": [],
      "name": "rewardContract",
      "outputs": [
        {
          "internalType": "address",
          "name": "",
          "type": "address"
        }
      ],
      "stateMutability": "view",
      "type": "function"
    },
    {
      "inputs": [
        {
          "internalType": "address",
          "name": "_addr",
          "type": "address"
        }
      ],
      "name": "setGovContract",
      "outputs": [],
      "stateMutability": "nonpayable",
      "type": "function"
    },
    {
      "inputs": [
        {
          "internalType": "uint256",
          "name": "_maxSlashFactor",
          "type": "uint256"
        }
      ],
      "name": "setMaxSlashFactor",
      "outputs": [],
      "stateMutability": "nonpayable",
      "type": "function"
    },
    {
      "inputs": [
        {
          "internalType": "enum DataTypes.ParamName",
          "name": "_name",
          "type": "uint8"
        },
        {
          "internalType": "uint256",
          "name": "_value",
          "type": "uint256"
        }
      ],
      "name": "setParamValue",
      "outputs": [],
      "stateMutability": "nonpayable",
      "type": "function"
    },
    {
      "inputs": [
        {
          "internalType": "address",
          "name": "_addr",
          "type": "address"
        }
      ],
      "name": "setRewardContract",
      "outputs": [],
      "stateMutability": "nonpayable",
      "type": "function"
    },
    {
      "inputs": [
        {
          "internalType": "bool",
          "name": "_whitelistEnabled",
          "type": "bool"
        }
      ],
      "name": "setWhitelistEnabled",
      "outputs": [],
      "stateMutability": "nonpayable",
      "type": "function"
    },
    {
      "inputs": [
        {
          "internalType": "address",
          "name": "",
          "type": "address"
        }
      ],
      "name": "signerVals",
      "outputs": [
        {
          "internalType": "address",
          "name": "",
          "type": "address"
        }
      ],
      "stateMutability": "view",
      "type": "function"
    },
    {
      "inputs": [
        {
          "internalType": "bytes",
          "name": "_slashRequest",
          "type": "bytes"
        },
        {
          "internalType": "bytes[]",
          "name": "_sigs",
          "type": "bytes[]"
        }
      ],
      "name": "slash",
      "outputs": [],
      "stateMutability": "nonpayable",
      "type": "function"
    },
    {
      "inputs": [
        {
          "internalType": "uint256",
          "name": "",
          "type": "uint256"
        }
      ],
      "name": "slashNonces",
      "outputs": [
        {
          "internalType": "bool",
          "name": "",
          "type": "bool"
        }
      ],
      "stateMutability": "view",
      "type": "function"
    },
    {
      "inputs": [
        {
          "internalType": "address",
          "name": "newOwner",
          "type": "address"
        }
      ],
      "name": "transferOwnership",
      "outputs": [],
      "stateMutability": "nonpayable",
      "type": "function"
    },
    {
      "inputs": [
        {
          "internalType": "address",
          "name": "_valAddr",
          "type": "address"
        },
        {
          "internalType": "uint256",
          "name": "_shares",
          "type": "uint256"
        }
      ],
      "name": "undelegateShares",
      "outputs": [],
      "stateMutability": "nonpayable",
      "type": "function"
    },
    {
      "inputs": [
        {
          "internalType": "address",
          "name": "_valAddr",
          "type": "address"
        },
        {
          "internalType": "uint256",
          "name": "_tokens",
          "type": "uint256"
        }
      ],
      "name": "undelegateTokens",
      "outputs": [],
      "stateMutability": "nonpayable",
      "type": "function"
    },
    {
      "inputs": [],
      "name": "unpause",
      "outputs": [],
      "stateMutability": "nonpayable",
      "type": "function"
    },
    {
      "inputs": [
        {
          "internalType": "uint64",
          "name": "_newRate",
          "type": "uint64"
        }
      ],
      "name": "updateCommissionRate",
      "outputs": [],
      "stateMutability": "nonpayable",
      "type": "function"
    },
    {
      "inputs": [
        {
          "internalType": "uint256",
          "name": "_minSelfDelegation",
          "type": "uint256"
        }
      ],
      "name": "updateMinSelfDelegation",
      "outputs": [],
      "stateMutability": "nonpayable",
      "type": "function"
    },
    {
      "inputs": [
        {
          "internalType": "address",
          "name": "_signer",
          "type": "address"
        }
      ],
      "name": "updateValidatorSigner",
      "outputs": [],
      "stateMutability": "nonpayable",
      "type": "function"
    },
    {
      "inputs": [
        {
          "internalType": "uint256",
          "name": "",
          "type": "uint256"
        }
      ],
      "name": "valAddrs",
      "outputs": [
        {
          "internalType": "address",
          "name": "",
          "type": "address"
        }
      ],
      "stateMutability": "view",
      "type": "function"
    },
    {
      "inputs": [
        {
          "internalType": "address",
          "name": "_valAddr",
          "type": "address"
        },
        {
          "internalType": "string",
          "name": "_key",
          "type": "string"
        },
        {
          "internalType": "bytes",
          "name": "_data",
          "type": "bytes"
        }
      ],
      "name": "validatorNotice",
      "outputs": [],
      "stateMutability": "nonpayable",
      "type": "function"
    },
    {
      "inputs": [
        {
          "internalType": "address",
          "name": "",
          "type": "address"
        }
      ],
      "name": "validators",
      "outputs": [
        {
          "internalType": "enum DataTypes.ValidatorStatus",
          "name": "status",
          "type": "uint8"
        },
        {
          "internalType": "address",
          "name": "signer",
          "type": "address"
        },
        {
          "internalType": "uint256",
          "name": "tokens",
          "type": "uint256"
        },
        {
          "internalType": "uint256",
          "name": "shares",
          "type": "uint256"
        },
        {
          "internalType": "uint256",
          "name": "undelegationTokens",
          "type": "uint256"
        },
        {
          "internalType": "uint256",
          "name": "undelegationShares",
          "type": "uint256"
        },
        {
          "internalType": "uint256",
          "name": "minSelfDelegation",
          "type": "uint256"
        },
        {
          "internalType": "uint64",
          "name": "bondBlock",
          "type": "uint64"
        },
        {
          "internalType": "uint64",
          "name": "unbondBlock",
          "type": "uint64"
        },
        {
          "internalType": "uint64",
          "name": "commissionRate",
          "type": "uint64"
        }
      ],
      "stateMutability": "view",
      "type": "function"
    },
    {
      "inputs": [
        {
          "internalType": "bytes",
          "name": "_msg",
          "type": "bytes"
        },
        {
          "internalType": "bytes[]",
          "name": "_sigs",
          "type": "bytes[]"
        }
      ],
      "name": "verifySignatures",
      "outputs": [
        {
          "internalType": "bool",
          "name": "",
          "type": "bool"
        }
      ],
      "stateMutability": "view",
      "type": "function"
    },
    {
      "inputs": [
        {
          "internalType": "bytes",
          "name": "_msg",
          "type": "bytes"
        },
        {
          "internalType": "bytes[]",
          "name": "_sigs",
          "type": "bytes[]"
        },
        {
          "internalType": "address[]",
          "name": "",
          "type": "address[]"
        },
        {
          "internalType": "uint256[]",
          "name": "",
          "type": "uint256[]"
        }
      ],
      "name": "verifySigs",
      "outputs": [],
      "stateMutability": "view",
      "type": "function"
    },
    {
      "inputs": [
        {
          "internalType": "address",
          "name": "",
          "type": "address"
        }
      ],
      "name": "whitelist",
      "outputs": [
        {
          "internalType": "bool",
          "name": "",
          "type": "bool"
        }
      ],
      "stateMutability": "view",
      "type": "function"
    },
    {
      "inputs": [],
      "name": "whitelistEnabled",
      "outputs": [
        {
          "internalType": "bool",
          "name": "",
          "type": "bool"
        }
      ],
      "stateMutability": "view",
      "type": "function"
    },
    {
      "stateMutability": "payable",
      "type": "receive"
    }
  ],
  "bytecode": "0x60a06040523480156200001157600080fd5b5060405162005c5c38038062005c5c8339810160408190526200003491620002cd565b6200003f33620001b4565b6000805460ff60a01b19169055620000573362000204565b6001600160a01b0399909916608052600b6020527fdf7de25b7f1fd6d0b5205f0e18f1f35bd7b8d84cce336588d184533ce43a6f76979097557f72c6bfb7988af3a1efa6568f02a999bc52252641c659d85961ca3d372b57d5cf959095557fa50eece07c7db1631545c0069bd8f5f54d5935e215d59097edf258a44ba91634939093557f64c15cc42be7899b001f818cf4433057002112c418d1d3a67cd5cb453051d33e919091557f12d0c11577e2f0950f57c455c117796550b79f444811db8ba2f69c57b646c784557febae6141bae5521e99e0a8d610356b0f501fea54980b59c84841db43ba7204f4557f0387e9d1203691d8e3362a7e4c6723de358a4010d7f31ecbec3fbfc61d1c75fc557ff5559028dc9ba50d75343c779b2f75e13a84a14662932fc67a486f263ca31a965560086000527f71f482bdabd1ea844d62c952b094e632959690d7448ca2aab34034ec98569358556200035a565b600080546001600160a01b038381166001600160a01b0319831681178455604051919092169283917f8be0079c531659141344cd1fd0a4f28419497f9722a3daafe3b4186f6b6457e09190a35050565b6001600160a01b03811660009081526001602052604090205460ff1615620002725760405162461bcd60e51b815260206004820152601960248201527f4163636f756e7420697320616c72656164792070617573657200000000000000604482015260640160405180910390fd5b6001600160a01b038116600081815260016020818152604092839020805460ff191690921790915590519182527f6719d08c1888103bea251a4ed56406bd0c3e69723c8a1686e017e7bbe159b6f8910160405180910390a150565b6000806000806000806000806000806101408b8d031215620002ee57600080fd5b8a516001600160a01b03811681146200030657600080fd5b809a505060208b0151985060408b0151975060608b0151965060808b0151955060a08b0151945060c08b0151935060e08b015192506101008b015191506101208b015190509295989b9194979a5092959850565b6080516158b5620003a76000396000818161096e01528181610d4f01528181610f6401528181611a0401528181611a7f01528181611f7901528181612ca0015261408801526158b56000f3fe6080604052600436106103855760003560e01c80636ea69d62116101d157806390e360f811610102578063b4f7fa34116100a0578063eb505dd51161006f578063eb505dd514610abf578063eecefef814610aec578063f2fde38b14610b19578063fa52c7d814610b3957600080fd5b8063b4f7fa3414610a26578063c8f9f98414610a46578063dcfdc1e114610a7f578063e909156d14610a9f57600080fd5b8063960dc08a116100dc578063960dc08a1461095c5780639b19251a14610990578063a310624f146109c0578063acc62ccf14610a0657600080fd5b806390e360f8146108ec5780639146f1101461091c57806392bb243c1461093c57600080fd5b80638338f0e51161016f57806388d996e81161014957806388d996e81461087957806389f9aab5146108995780638a74d5fe146108ae5780638da5cb5b146108ce57600080fd5b80638338f0e51461083857806383cfb3181461084e5780638456cb591461086457600080fd5b80637a50dbd2116101ab5780637a50dbd2146107b357806380f51c12146107d357806382d7b4b81461080357806382dc1ec41461081857600080fd5b80636ea69d621461075e5780636ef8d66d1461077e57806371bc02161461079357600080fd5b8063410ae02c116102b6578063525eba2111610254578063682dbc2211610223578063682dbc22146106c857806368706e54146106e85780636b2c0f55146107085780636d3087831461072857600080fd5b8063525eba21146106535780635c975abb146106735780635e593eff1461069257806365d5d420146106b257600080fd5b806347abfdbf1161029057806347abfdbf146105d957806349955e39146105f957806351508f0a1461061957806351fb012d1461063957600080fd5b8063410ae02c1461057957806346fbf68e14610599578063473849bd146105b957600080fd5b80632fa4d12b116103235780633985c4e6116102fd5780633985c4e6146104d95780633af32abf146104f95780633f4ba83a146105425780634021d4d51461055757600080fd5b80632fa4d12b1461047757806336f1635f146104af578063386c024a146104c457600080fd5b8063145aa1161161035f578063145aa116146103f35780631a203257146104135780631cfe4f0b14610433578063291d95491461045757600080fd5b8063026e402b14610391578063052d9e7e146103b357806310154bad146103d357600080fd5b3661038c57005b600080fd5b34801561039d57600080fd5b506103b16103ac366004614d78565b610bd1565b005b3480156103bf57600080fd5b506103b16103ce366004614db0565b610dd7565b3480156103df57600080fd5b506103b16103ee366004614dcd565b610e23565b3480156103ff57600080fd5b506103b161040e366004614de8565b610f16565b34801561041f57600080fd5b506103b161042e366004614de8565b610f8e565b34801561043f57600080fd5b506006545b6040519081526020015b60405180910390f35b34801561046357600080fd5b506103b1610472366004614dcd565b610ff5565b34801561048357600080fd5b50600c54610497906001600160a01b031681565b6040516001600160a01b03909116815260200161044e565b3480156104bb57600080fd5b506103b16110d9565b3480156104d057600080fd5b50610444611446565b3480156104e557600080fd5b506103b16104f4366004614e86565b611473565b34801561050557600080fd5b50610532610514366004614dcd565b6001600160a01b031660009081526002602052604090205460ff1690565b604051901515815260200161044e565b34801561054e57600080fd5b506103b1611b85565b34801561056357600080fd5b5061056c611bdb565b60405161044e9190614ef1565b34801561058557600080fd5b50610444610594366004614f58565b611cdb565b3480156105a557600080fd5b506105326105b4366004614dcd565b611d1a565b3480156105c557600080fd5b506103b16105d4366004614dcd565b611d38565b3480156105e557600080fd5b506105326105f4366004614f73565b611ff8565b34801561060557600080fd5b506103b1610614366004614fc1565b6120b2565b34801561062557600080fd5b506103b1610634366004614dcd565b6121c3565b34801561064557600080fd5b506003546105329060ff1681565b34801561065f57600080fd5b506103b161066e366004614fdc565b61221e565b34801561067f57600080fd5b50600054600160a01b900460ff16610532565b34801561069e57600080fd5b506103b16106ad366004614de8565b612640565b3480156106be57600080fd5b5061044460045481565b3480156106d457600080fd5b506103b16106e33660046150cd565b61280c565b3480156106f457600080fd5b506103b1610703366004614dcd565b612867565b34801561071457600080fd5b506103b1610723366004614dcd565b6128c2565b34801561073457600080fd5b50610497610743366004614dcd565b6009602052600090815260409020546001600160a01b031681565b34801561076a57600080fd5b50600d54610497906001600160a01b031681565b34801561078a57600080fd5b506103b1612904565b34801561079f57600080fd5b506103b16107ae366004614dcd565b61290d565b3480156107bf57600080fd5b506103b16107ce366004614dcd565b612a4a565b3480156107df57600080fd5b506105326107ee366004614dcd565b60016020526000908152604090205460ff1681565b34801561080f57600080fd5b506103b1612c45565b34801561082457600080fd5b506103b1610833366004614dcd565b612cd1565b34801561084457600080fd5b50610444600e5481565b34801561085a57600080fd5b5061044460055481565b34801561087057600080fd5b506103b1612d13565b34801561088557600080fd5b506103b1610894366004614d78565b612d67565b3480156108a557600080fd5b50600754610444565b3480156108ba57600080fd5b506105326108c936600461520f565b612e35565b3480156108da57600080fd5b506000546001600160a01b0316610497565b3480156108f857600080fd5b50610532610907366004614de8565b600a6020526000908152604090205460ff1681565b34801561092857600080fd5b506103b1610937366004615286565b61300e565b34801561094857600080fd5b50610497610957366004614de8565b61309a565b34801561096857600080fd5b506104977f000000000000000000000000000000000000000000000000000000000000000081565b34801561099c57600080fd5b506105326109ab366004614dcd565b60026020526000908152604090205460ff1681565b3480156109cc57600080fd5b506109f96109db366004614dcd565b6001600160a01b031660009081526008602052604090205460ff1690565b60405161044e919061533e565b348015610a1257600080fd5b50610497610a21366004614de8565b6130c4565b348015610a3257600080fd5b50610532610a41366004614dcd565b6130d4565b348015610a5257600080fd5b50610444610a61366004614dcd565b6001600160a01b031660009081526008602052604090206001015490565b348015610a8b57600080fd5b506103b1610a9a366004614d78565b61310c565b348015610aab57600080fd5b506103b1610aba36600461534c565b6131cf565b348015610acb57600080fd5b50610444610ada366004614f58565b600b6020526000908152604090205481565b348015610af857600080fd5b50610b0c610b07366004615368565b6132c2565b60405161044e919061539b565b348015610b2557600080fd5b506103b1610b34366004614dcd565b6135ba565b348015610b4557600080fd5b50610bbb610b54366004614dcd565b600860205260009081526040902080546001820154600283015460038401546004850154600686015460079096015460ff8616966101009096046001600160a01b031695906001600160401b0380821691600160401b8104821691600160801b909104168a565b60405161044e9a99989796959493929190615439565b610bd9613661565b33670de0b6b3a7640000821015610c325760405162461bcd60e51b815260206004820152601860248201527726b4b734b6b0b61030b6b7bab73a1034b990189021a2a62960411b60448201526064015b60405180910390fd5b6001600160a01b038316600090815260086020526040812090815460ff166003811115610c6157610c61615306565b1415610c7f5760405162461bcd60e51b8152600401610c29906154a4565b6000610c9484836001015484600201546136ae565b6001600160a01b0384166000908152600584016020526040812080549293509183918391610cc39084906154f1565b9250508190555081836002016000828254610cde91906154f1565b9250508190555084836001016000828254610cf991906154f1565b9091555060039050835460ff166003811115610d1757610d17615306565b1415610d42578460046000828254610d2f91906154f1565b90915550506001830154610d42906136db565b610d776001600160a01b037f0000000000000000000000000000000000000000000000000000000000000000168530886137dd565b6001830154815460408051928352602083019190915281018690526001600160a01b0380861691908816907f2e289e5a72f8e92e344eb866e0a32621f332835d2df2cf1f76e5a345b23cf1ea9060600160405180910390a3505050505050565b33610dea6000546001600160a01b031690565b6001600160a01b031614610e105760405162461bcd60e51b8152600401610c2990615509565b6003805460ff1916911515919091179055565b33610e366000546001600160a01b031690565b6001600160a01b031614610e5c5760405162461bcd60e51b8152600401610c2990615509565b6001600160a01b03811660009081526002602052604090205460ff1615610ebb5760405162461bcd60e51b8152602060048201526013602482015272105b1c9958591e481dda1a5d195b1a5cdd1959606a1b6044820152606401610c29565b6001600160a01b038116600081815260026020908152604091829020805460ff1916600117905590519182527fee1504a83b6d4a361f4c1dc78ab59bfa30d6a3b6612c403e86bb01ef2984295f91015b60405180910390a150565b610f1e613848565b33610f316000546001600160a01b031690565b6001600160a01b031614610f575760405162461bcd60e51b8152600401610c2990615509565b610f8b6001600160a01b037f0000000000000000000000000000000000000000000000000000000000000000163383613898565b50565b33610fa16000546001600160a01b031690565b6001600160a01b031614610fc75760405162461bcd60e51b8152600401610c2990615509565b6008600052600b6020527f71f482bdabd1ea844d62c952b094e632959690d7448ca2aab34034ec9856935855565b336110086000546001600160a01b031690565b6001600160a01b03161461102e5760405162461bcd60e51b8152600401610c2990615509565b6001600160a01b03811660009081526002602052604090205460ff166110885760405162461bcd60e51b815260206004820152600f60248201526e139bdd081dda1a5d195b1a5cdd1959608a1b6044820152606401610c29565b6001600160a01b038116600081815260026020908152604091829020805460ff1916905590519182527f270d9b30cf5b0793bbfd54c9d5b94aeb49462b8148399000265144a8722da6b69101610f0b565b336000818152600960205260409020546001600160a01b0316156111125750336000908152600960205260409020546001600160a01b03165b6001600160a01b03811660009081526008602052604090206001815460ff16600381111561114257611142615306565b148061116357506002815460ff16600381111561116157611161615306565b145b6111aa5760405162461bcd60e51b8152602060048201526018602482015277496e76616c69642076616c696461746f722073746174757360401b6044820152606401610c29565b60078101546001600160401b03164310156112005760405162461bcd60e51b8152602060048201526016602482015275109bdb9908189b1bd8dac81b9bdd081c995858da195960521b6044820152606401610c29565b6005544310156112525760405162461bcd60e51b815260206004820152601b60248201527f546f6f206672657175656e742076616c696461746f7220626f6e6400000000006044820152606401610c29565b6007600052600b6020527ff5559028dc9ba50d75343c779b2f75e13a84a14662932fc67a486f263ca31a965461128890436154f1565b600555611296826001611ff8565b6112d85760405162461bcd60e51b81526020600482015260136024820152724e6f742068617665206d696e20746f6b656e7360681b6044820152606401610c29565b6003600052600b6020527f64c15cc42be7899b001f818cf4433057002112c418d1d3a67cd5cb453051d33e5460075481111561132957611317836138c8565b61132482600101546136db565b505050565b6000196000805b838110156113de578260086000600784815481106113505761135061553e565b60009182526020808320909101546001600160a01b0316835282019290925260400190206001015410156113cc5780915060086000600783815481106113985761139861553e565b60009182526020808320909101546001600160a01b031683528201929092526040019020600101549250826113cc576113de565b806113d681615554565b915050611330565b50818460010154116114285760405162461bcd60e51b8152602060048201526013602482015272496e73756666696369656e7420746f6b656e7360681b6044820152606401610c29565b611432858261391c565b61143f84600101546136db565b5050505050565b600060036004546002611459919061556f565b611463919061558e565b61146e9060016154f1565b905090565b61147b613661565b600046306040516020016114b992919091825260601b6bffffffffffffffffffffffff19166020820152640a6d8c2e6d60db1b603482015260390190565b6040516020818303038152906040528051906020012090506115038186866040516020016114e9939291906155b0565b60408051601f198184030181529190526108c984866155ca565b50600061154586868080601f01602080910402602001604051908101604052809392919081815260200183838082843760009201919091525061399792505050565b905080606001516001600160401b031642106115935760405162461bcd60e51b815260206004820152600d60248201526c14db185cda08195e1c1a5c9959609a1b6044820152606401610c29565b620f424081604001516001600160401b031611156115ea5760405162461bcd60e51b815260206004820152601460248201527324b73b30b634b21039b630b9b4103330b1ba37b960611b6044820152606401610c29565b6008600052600b6020527f71f482bdabd1ea844d62c952b094e632959690d7448ca2aab34034ec985693585460408201516001600160401b031611156116725760405162461bcd60e51b815260206004820152601760248201527f457863656564206d617820736c61736820666163746f720000000000000000006044820152606401610c29565b6020808201516001600160401b03166000908152600a909152604090205460ff16156116d35760405162461bcd60e51b815260206004820152601060248201526f5573656420736c617368206e6f6e636560801b6044820152606401610c29565b6020808201516001600160401b03166000908152600a82526040808220805460ff1916600117905583516001600160a01b0381168352600890935290206003815460ff16600381111561172857611728615306565b148061174957506002815460ff16600381111561174757611747615306565b145b6117905760405162461bcd60e51b8152602060048201526018602482015277496e76616c69642076616c696461746f722073746174757360401b6044820152606401610c29565b6000620f424084604001516001600160401b031683600101546117b3919061556f565b6117bd919061558e565b9050808260010160008282546117d391906155d7565b9091555060039050825460ff1660038111156117f1576117f1615306565b141561183f57806004600082825461180991906155d7565b909155505060808401516001600160401b0316151580611831575061182f836001611ff8565b155b1561183f5761183f83613c04565b6002825460ff16600381111561185757611857615306565b1480156118715750600084608001516001600160401b0316115b156118b257608084015161188e906001600160401b0316436154f1565b60078301805467ffffffffffffffff19166001600160401b03929092169190911790555b60006001600160a01b0316836001600160a01b03167f2e289e5a72f8e92e344eb866e0a32621f332835d2df2cf1f76e5a345b23cf1ea84600101546000856118f9906155ee565b6040805193845260208401929092529082015260600160405180910390a36000620f424085604001516001600160401b0316846003015461193a919061556f565b611944919061558e565b90508083600301600082825461195a91906155d7565b9091555061196a905081836154f1565b91506000805b8660a0015151811015611b045760008760a0015182815181106119955761199561553e565b60200260200101519050848160200151846119b091906154f1565b11156119c6576119c083866155d7565b60208201525b602081015115611af15760208101516119df90846154f1565b81519093506001600160a01b0316611a6a576020810151611a2c906001600160a01b037f000000000000000000000000000000000000000000000000000000000000000016903390613898565b60208082015160405190815233917fb1375221b23a15d2f6887c7dbdc6745a07d9a5245076d51fb41879590ebbd2a3910160405180910390a2611af1565b80516020820151611aa5916001600160a01b037f00000000000000000000000000000000000000000000000000000000000000001691613898565b80600001516001600160a01b03167fb1375221b23a15d2f6887c7dbdc6745a07d9a5245076d51fb41879590ebbd2a38260200151604051611ae891815260200190565b60405180910390a25b5080611afc81615554565b915050611970565b50611b0f81846155d7565b600e6000828254611b2091906154f1565b9091555050602080870151604080516001600160401b0390921682529181018590526001600160a01b038716917f10863f35bc5db9fda133333468bf7b1ceaaa88cb4263c061f890f97b79bf9008910160405180910390a25050505050505050505050565b611b8e33611d1a565b611bd15760405162461bcd60e51b815260206004820152601460248201527321b0b63632b91034b9903737ba103830bab9b2b960611b6044820152606401610c29565b611bd9613d61565b565b6007546060906000906001600160401b03811115611bfb57611bfb615018565b604051908082528060200260200182016040528015611c4057816020015b6040805180820190915260008082526020820152815260200190600190039081611c195790505b50905060005b600754811015611cd557600060078281548110611c6557611c6561553e565b60009182526020808320909101546040805180820182526001600160a01b039092168083528085526008845293206001015491810191909152845191925090849084908110611cb657611cb661553e565b6020026020010181905250508080611ccd90615554565b915050611c46565b50919050565b6000600b6000836008811115611cf357611cf3615306565b6008811115611d0457611d04615306565b8152602001908152602001600020549050919050565b6001600160a01b031660009081526001602052604090205460ff1690565b6001600160a01b03811660009081526008602052604081203391815460ff166003811115611d6857611d68615306565b1415611d865760405162461bcd60e51b8152600401610c29906154a4565b6001600160a01b03821660009081526005820160209081526040822060028352600b9091527fa50eece07c7db1631545c0069bd8f5f54d5935e215d59097edf258a44ba916345483549192909160019060ff166003811115611dea57611dea615306565b60028501549114915063ffffffff1660005b600285015463ffffffff64010000000090910481169083161015611eae578280611e4c575063ffffffff821660009081526001808701602052604090912001544390611e499086906154f1565b11155b15611e975763ffffffff82166000908152600186016020526040902054611e7390826154f1565b63ffffffff8316600090815260018088016020526040822082815501559050611e9c565b611eae565b81611ea68161560b565b925050611dfc565b60028501805463ffffffff191663ffffffff841617905580611f205760405162461bcd60e51b815260206004820152602560248201527f4e6f20756e64656c65676174696f6e20726561647920746f20626520636f6d706044820152641b195d195960da1b6064820152608401610c29565b6000611f358288600301548960040154613db6565b905081876004016000828254611f4b91906155d7565b9250508190555080876003016000828254611f6691906155d7565b90915550611fa090506001600160a01b037f0000000000000000000000000000000000000000000000000000000000000000168983613898565b876001600160a01b0316896001600160a01b03167f4d10bd049775c77bd7f255195afba5088028ecb3c7c277d393ccff7934f2f92c83604051611fe591815260200190565b60405180910390a3505050505050505050565b6001600160a01b03821660009081526008602090815260408220600181015460048452600b9092527f12d0c11577e2f0950f57c455c117796550b79f444811db8ba2f69c57b646c78454909190811015612057576000925050506120ac565b83156120a5576001600160a01b0385166000908152600583016020526040812054600284015461208991908490613db6565b905082600601548110156120a357600093505050506120ac565b505b6001925050505b92915050565b33600081815260086020526040812090815460ff1660038111156120d8576120d8615306565b14156120f65760405162461bcd60e51b8152600401610c29906154a4565b612710836001600160401b031611156121445760405162461bcd60e51b815260206004820152601060248201526f496e76616c6964206e6577207261746560801b6044820152606401610c29565b60078101805467ffffffffffffffff60801b1916600160801b6001600160401b038616908102919091179091556040805160208101929092526001600160a01b03841691600080516020615860833981519152910160408051601f19818403018152908290526121b691600090615687565b60405180910390a2505050565b336121d66000546001600160a01b031690565b6001600160a01b0316146121fc5760405162461bcd60e51b8152600401610c2990615509565b600d80546001600160a01b0319166001600160a01b0392909216919091179055565b612226613661565b60035460ff1615612290573360009081526002602052604090205460ff166122905760405162461bcd60e51b815260206004820152601960248201527f43616c6c6572206973206e6f742077686974656c6973746564000000000000006044820152606401610c29565b33600081815260086020526040812090815460ff1660038111156122b6576122b6615306565b146123035760405162461bcd60e51b815260206004820152601860248201527f56616c696461746f7220697320696e697469616c697a656400000000000000006044820152606401610c29565b6001600160a01b03851660009081526008602052604081205460ff16600381111561233057612330615306565b146123795760405162461bcd60e51b815260206004820152601960248201527829b4b3b732b91034b99037ba3432b9103b30b634b230ba37b960391b6044820152606401610c29565b6001600160a01b0382811660009081526009602052604090205416156123e15760405162461bcd60e51b815260206004820152601960248201527f56616c696461746f72206973206f74686572207369676e6572000000000000006044820152606401610c29565b6001600160a01b03858116600090815260096020526040902054161561243f5760405162461bcd60e51b815260206004820152601360248201527214da59db995c88185b1c9958591e481d5cd959606a1b6044820152606401610c29565b612710836001600160401b0316111561249a5760405162461bcd60e51b815260206004820152601760248201527f496e76616c696420636f6d6d697373696f6e20726174650000000000000000006044820152606401610c29565b6005600052600b6020527febae6141bae5521e99e0a8d610356b0f501fea54980b59c84841db43ba7204f4548410156125155760405162461bcd60e51b815260206004820181905260248201527f496e73756666696369656e74206d696e2073656c662064656c65676174696f6e6044820152606401610c29565b80546001600160a81b03191660ff196101006001600160a01b03888116918202929092169290921760019081178455600680850188905560078501805467ffffffffffffffff60801b1916600160801b6001600160401b038a1602179055805491820190557ff652222313e28459528d920b65115c16c04f3efc82aaedc97be59f3f377c0d3f0180546001600160a01b031990811692861692831790915560009283526009602052604090922080549092161790556125d48285610bd1565b604080516001600160a01b0387811660208301529181018690526001600160401b0385166060820152908316906000805160206158608339815191529060800160408051601f1981840301815290829052612631916000906156d2565b60405180910390a25050505050565b33600081815260086020526040812090815460ff16600381111561266657612666615306565b14156126845760405162461bcd60e51b8152600401610c29906154a4565b6005600052600b6020527febae6141bae5521e99e0a8d610356b0f501fea54980b59c84841db43ba7204f4548310156126ff5760405162461bcd60e51b815260206004820181905260248201527f496e73756666696369656e74206d696e2073656c662064656c65676174696f6e6044820152606401610c29565b80600601548310156127c1576003815460ff16600381111561272357612723615306565b14156127675760405162461bcd60e51b815260206004820152601360248201527215985b1a59185d1bdc881a5cc8189bdb991959606a1b6044820152606401610c29565b6006600052600b6020527f0387e9d1203691d8e3362a7e4c6723de358a4010d7f31ecbec3fbfc61d1c75fc5461279d90436154f1565b60078201805467ffffffffffffffff19166001600160401b03929092169190911790555b6006810183905560408051602081018590526001600160a01b03841691600080516020615860833981519152910160408051601f19818403018152908290526121b691600090615700565b61281a876108c987896155ca565b61285e5760405162461bcd60e51b81526020600482015260156024820152744661696c656420746f20766572696679207369677360581b6044820152606401610c29565b50505050505050565b3361287a6000546001600160a01b031690565b6001600160a01b0316146128a05760405162461bcd60e51b8152600401610c2990615509565b600c80546001600160a01b0319166001600160a01b0392909216919091179055565b336128d56000546001600160a01b031690565b6001600160a01b0316146128fb5760405162461bcd60e51b8152600401610c2990615509565b610f8b81613dcf565b611bd933613dcf565b6001600160a01b03811660009081526008602052604090206002815460ff16600381111561293d5761293d615306565b1461298a5760405162461bcd60e51b815260206004820152601760248201527f56616c696461746f72206e6f7420756e626f6e64696e670000000000000000006044820152606401610c29565b6007810154600160401b90046001600160401b03164310156129ee5760405162461bcd60e51b815260206004820152601860248201527f556e626f6e6420626c6f636b206e6f74207265616368656400000000000000006044820152606401610c29565b805460ff19166001908117825560078201805467ffffffffffffffff60401b191690555b6040516001600160a01b038416907fd5e59fa85493a77fb57f6bf9080f2f71fde9de0eadc62b27b43b6263f3f1f59a90600090a35050565b33600081815260086020526040812090815460ff166003811115612a7057612a70615306565b1415612abe5760405162461bcd60e51b815260206004820152601960248201527f56616c696461746f72206e6f7420696e697469616c697a6564000000000000006044820152606401610c29565b6001600160a01b038381166000908152600960205260409020541615612b1c5760405162461bcd60e51b815260206004820152601360248201527214da59db995c88185b1c9958591e481d5cd959606a1b6044820152606401610c29565b816001600160a01b0316836001600160a01b031614612bab576001600160a01b03831660009081526008602052604081205460ff166003811115612b6257612b62615306565b14612bab5760405162461bcd60e51b815260206004820152601960248201527829b4b3b732b91034b99037ba3432b9103b30b634b230ba37b960391b6044820152606401610c29565b8054610100908190046001600160a01b03908116600090815260096020908152604080832080546001600160a01b03199081169091558654610100600160a81b0319168986169687021787558584529281902080549093169387169384179092558151908101939093529091600080516020615860833981519152910160408051601f19818403018152908290526121b69160009061573d565b6000600e5411612c8c5760405162461bcd60e51b8152602060048201526012602482015271139bdd1a1a5b99c81d1bc818dbdb1b1958dd60721b6044820152606401610c29565b600d54600e54612cca916001600160a01b037f0000000000000000000000000000000000000000000000000000000000000000811692911690613898565b6000600e55565b33612ce46000546001600160a01b031690565b6001600160a01b031614612d0a5760405162461bcd60e51b8152600401610c2990615509565b610f8b81613e6d565b612d1c33611d1a565b612d5f5760405162461bcd60e51b815260206004820152601460248201527321b0b63632b91034b9903737ba103830bab9b2b960611b6044820152606401610c29565b611bd9613f18565b670de0b6b3a7640000811015612dbf5760405162461bcd60e51b815260206004820152601960248201527f4d696e696d616c20616d6f756e742069732031207368617265000000000000006044820152606401610c29565b6001600160a01b038216600090815260086020526040812090815460ff166003811115612dee57612dee615306565b1415612e0c5760405162461bcd60e51b8152600401610c29906154a4565b6000612e218383600101548460020154613db6565b9050612e2f82858386613f5b565b50505050565b600080612e9684805190602001206040517f19457468657265756d205369676e6564204d6573736167653a0a3332000000006020820152603c8101829052600090605c01604051602081830303815290604052805190602001209050919050565b905060008080612ea4611446565b905060005b8651811015612fd0576000612ee0888381518110612ec957612ec961553e565b6020026020010151876142fe90919063ffffffff16565b9050836001600160a01b0316816001600160a01b031611612f435760405162461bcd60e51b815260206004820152601e60248201527f5369676e657273206e6f7420696e20617363656e64696e67206f7264657200006044820152606401610c29565b6001600160a01b038082166000908152600960209081526040808320549093168252600890522090935083906003815460ff166003811115612f8757612f87615306565b14612f93575050612fbe565b6001810154612fa290876154f1565b9550838610612fbb5760019750505050505050506120ac565b50505b80612fc881615554565b915050612ea9565b5060405162461bcd60e51b8152602060048201526012602482015271145d5bdc9d5b481b9bdd081c995858da195960721b6044820152606401610c29565b6001600160a01b038516600090815260086020526040812090815460ff16600381111561303d5761303d615306565b141561305b5760405162461bcd60e51b8152600401610c29906154a4565b856001600160a01b0316600080516020615860833981519152868686863360405161308a959493929190615796565b60405180910390a2505050505050565b600681815481106130aa57600080fd5b6000918252602090912001546001600160a01b0316905081565b600781815481106130aa57600080fd5b600060036001600160a01b03831660009081526008602052604090205460ff16600381111561310557613105615306565b1492915050565b670de0b6b3a764000081101561315f5760405162461bcd60e51b815260206004820152601860248201527726b4b734b6b0b61030b6b7bab73a1034b990189021a2a62960411b6044820152606401610c29565b6001600160a01b038216600090815260086020526040812090815460ff16600381111561318e5761318e615306565b14156131ac5760405162461bcd60e51b8152600401610c29906154a4565b60006131c183836001015484600201546136ae565b9050612e2f82858584613f5b565b600c546001600160a01b031633146132295760405162461bcd60e51b815260206004820152601a60248201527f43616c6c6572206973206e6f7420676f7620636f6e74726163740000000000006044820152606401610c29565b600382600881111561323d5761323d615306565b1415613285576007548110156132855760405162461bcd60e51b815260206004820152600d60248201526c696e76616c69642076616c756560981b6044820152606401610c29565b80600b600084600881111561329c5761329c615306565b60088111156132ad576132ad615306565b81526020810191909152604001600020555050565b6133046040518060c0016040528060006001600160a01b0316815260200160008152602001600081526020016060815260200160008152602001600081525090565b6001600160a01b0380841660009081526008602090815260408083209386168352600584019091528120805460018401546002850154929392613348929190613db6565b60026000908152600b6020527fa50eece07c7db1631545c0069bd8f5f54d5935e215d59097edf258a44ba916345485549293509091829190829060019060ff16600381111561339957613399615306565b6002880154911491506000906133c09063ffffffff808216916401000000009004166157d8565b63ffffffff1690506000816001600160401b038111156133e2576133e2615018565b60405190808252806020026020018201604052801561342757816020015b60408051808201909152600080825260208201528152602001906001900390816134005790505b50905060005b8281101561353e57600289015460018a01906000906134529063ffffffff16846154f1565b8152602001908152602001600020604051806040016040529081600082015481526020016001820154815250508282815181106134915761349161553e565b60200260200101819052508181815181106134ae576134ae61553e565b602002602001015160000151876134c591906154f1565b965083806134fb575043858383815181106134e2576134e261553e565b6020026020010151602001516134f891906154f1565b11155b1561352c578181815181106135125761351261553e565b6020026020010151600001518661352991906154f1565b95505b8061353681615554565b91505061342d565b506000613554878b600301548c60040154613db6565b9050600061356b878c600301548d60040154613db6565b90506040518060c001604052808f6001600160a01b031681526020018a81526020018b600001548152602001848152602001838152602001828152509b50505050505050505050505092915050565b336135cd6000546001600160a01b031690565b6001600160a01b0316146135f35760405162461bcd60e51b8152600401610c2990615509565b6001600160a01b0381166136585760405162461bcd60e51b815260206004820152602660248201527f4f776e61626c653a206e6577206f776e657220697320746865207a65726f206160448201526564647265737360d01b6064820152608401610c29565b610f8b81614322565b600054600160a01b900460ff1615611bd95760405162461bcd60e51b815260206004820152601060248201526f14185d5cd8589b194e881c185d5cd95960821b6044820152606401610c29565b6000826136bc5750826136d4565b826136c7838661556f565b6136d1919061558e565b90505b9392505050565b60075460028114806136ed5750806003145b15613763576136fa611446565b821061375f5760405162461bcd60e51b815260206004820152602e60248201527f53696e676c652076616c696461746f722073686f756c64206e6f74206861766560448201526d2071756f72756d20746f6b656e7360901b6064820152608401610c29565b5050565b600381111561375f57600360045461377b919061558e565b821061375f5760405162461bcd60e51b815260206004820152602b60248201527f53696e676c652076616c696461746f722073686f756c64206e6f74206861766560448201526a20312f3320746f6b656e7360a81b6064820152608401610c29565b6040516001600160a01b0380851660248301528316604482015260648101829052612e2f9085906323b872dd60e01b906084015b60408051601f198184030181529190526020810180516001600160e01b03166001600160e01b031990931692909217909152614372565b600054600160a01b900460ff16611bd95760405162461bcd60e51b815260206004820152601460248201527314185d5cd8589b194e881b9bdd081c185d5cd95960621b6044820152606401610c29565b6040516001600160a01b03831660248201526044810182905261132490849063a9059cbb60e01b90606401613811565b600780546001810182556000919091527fa66cc928b5edb82af9bd49922954155ab7b0942694bea4ce44661d9a8736c6880180546001600160a01b0319166001600160a01b038316179055610f8b81614444565b61394c600782815481106139325761393261553e565b6000918252602090912001546001600160a01b03166144a5565b81600782815481106139605761396061553e565b9060005260206000200160006101000a8154816001600160a01b0302191690836001600160a01b0316021790555061375f82614444565b6040805160c0810182526000808252602080830182905282840182905260608084018390526080840183905260a0840152835180850190945281845283018490529091906139e682600661454a565b9050806006815181106139fb576139fb61553e565b60200260200101516001600160401b03811115613a1a57613a1a615018565b604051908082528060200260200182016040528015613a5f57816020015b6040805180820190915260008082526020820152815260200190600190039081613a385790505b508360a00181905250600081600681518110613a7d57613a7d61553e565b6020026020010181815250506000805b60208401515184511015613bfb57613aa484614603565b90925090508160011415613ad357613ac3613abe8561463d565b6146f9565b6001600160a01b03168552613a8d565b8160021415613af857613ae584614704565b6001600160401b03166020860152613a8d565b8160031415613b1d57613b0a84614704565b6001600160401b03166040860152613a8d565b8160041415613b4257613b2f84614704565b6001600160401b03166060860152613a8d565b8160051415613b6757613b5484614704565b6001600160401b03166080860152613a8d565b8160061415613bec57613b81613b7c8561463d565b614786565b8560a0015184600681518110613b9957613b9961553e565b602002602001015181518110613bb157613bb161553e565b602002602001018190525082600681518110613bcf57613bcf61553e565b602002602001018051809190613be490615554565b905250613a8d565b613bf6848261482d565b613a8d565b50505050919050565b600754600090613c16906001906155d7565b905060005b600754811015613d2157826001600160a01b031660078281548110613c4257613c4261553e565b6000918252602090912001546001600160a01b03161415613d0f5781811015613cd35760078281548110613c7857613c7861553e565b600091825260209091200154600780546001600160a01b039092169183908110613ca457613ca461553e565b9060005260206000200160006101000a8154816001600160a01b0302191690836001600160a01b031602179055505b6007805480613ce457613ce46157fd565b600082815260209020810160001990810180546001600160a01b0319169055019055611324836144a5565b80613d1981615554565b915050613c1b565b5060405162461bcd60e51b81526020600482015260146024820152732737ba103137b73232b2103b30b634b230ba37b960611b6044820152606401610c29565b613d69613848565b6000805460ff60a01b191690557f5db9ee0a495bf2e6ff9c91a7834c1ba4fdd244a5e8aa4e537bd38aeae4b073aa335b6040516001600160a01b03909116815260200160405180910390a1565b600081613dc45750826136d4565b816136c7848661556f565b613dd881611d1a565b613e1c5760405162461bcd60e51b815260206004820152601560248201527420b1b1b7bab73a1034b9903737ba103830bab9b2b960591b6044820152606401610c29565b6001600160a01b038116600081815260016020908152604091829020805460ff1916905590519182527fcd265ebaf09df2871cc7bd4133404a235ba12eff2041bb89d9c714a2621c7c7e9101610f0b565b613e7681611d1a565b15613ec35760405162461bcd60e51b815260206004820152601960248201527f4163636f756e7420697320616c726561647920706175736572000000000000006044820152606401610c29565b6001600160a01b038116600081815260016020818152604092839020805460ff191690921790915590519182527f6719d08c1888103bea251a4ed56406bd0c3e69723c8a1686e017e7bbe159b6f89101610f0b565b613f20613661565b6000805460ff60a01b1916600160a01b1790557f62e78cea01bee320cd4e420270b5ea74000d11b0c9f74754ebdbfc544b05a258613d993390565b3360008181526005860160205260408120805490918491839190613f809084906155d7565b9250508190555082866002016000828254613f9b91906155d7565b9250508190555083866001016000828254613fb691906155d7565b90915550506002860154600187015414801590613fd557508054600210155b15613ffa578054600287018054600090613ff09084906155d7565b9091555050600081555b8054158061401157508054670de0b6b3a764000011155b61405d5760405162461bcd60e51b815260206004820152601b60248201527f6e6f7420656e6f7567682072656d61696e696e672073686172657300000000006044820152606401610c29565b6001865460ff16600381111561407557614075615306565b1415614103576140af6001600160a01b037f0000000000000000000000000000000000000000000000000000000000000000168386613898565b816001600160a01b0316856001600160a01b03167f4d10bd049775c77bd7f255195afba5088028ecb3c7c277d393ccff7934f2f92c866040516140f491815260200190565b60405180910390a35050612e2f565b6003865460ff16600381111561411b5761411b615306565b141561416557836004600082825461413391906155d7565b9250508190555061415885866001600160a01b0316846001600160a01b031614611ff8565b6141655761416585613c04565b6002810154600a906141889063ffffffff808216916401000000009004166157d8565b63ffffffff16106141db5760405162461bcd60e51b815260206004820152601f60248201527f457863656564206d617820756e64656c65676174696f6e20656e7472696573006044820152606401610c29565b60006141f085886003015489600401546136ae565b90508087600401600082825461420691906154f1565b925050819055508487600301600082825461422191906154f1565b909155505060028201805463ffffffff6401000000009182900481166000908152600180870160205260409091208581554391810191909155835490939290041690600461426e8361560b565b91906101000a81548163ffffffff021916908363ffffffff16021790555050836001600160a01b0316876001600160a01b03167f2e289e5a72f8e92e344eb866e0a32621f332835d2df2cf1f76e5a345b23cf1ea8a6001015486600001548a6142d6906155ee565b6040805193845260208401929092529082015260600160405180910390a35050505050505050565b600080600061430d858561489f565b9150915061431a816148e5565b509392505050565b600080546001600160a01b038381166001600160a01b0319831681178455604051919092169283917f8be0079c531659141344cd1fd0a4f28419497f9722a3daafe3b4186f6b6457e09190a35050565b60006143c7826040518060400160405280602081526020017f5361666545524332303a206c6f772d6c6576656c2063616c6c206661696c6564815250856001600160a01b0316614aa09092919063ffffffff16565b80519091501561132457808060200190518101906143e59190615813565b6113245760405162461bcd60e51b815260206004820152602a60248201527f5361666545524332303a204552433230206f7065726174696f6e20646964206e6044820152691bdd081cdd58d8d9595960b21b6064820152608401610c29565b6001600160a01b0381166000908152600860205260408120805460ff1916600317815560078101805467ffffffffffffffff60401b19169055600181015460048054929391929091906144989084906154f1565b9091555060039050612a12565b6001600160a01b03811660009081526008602090815260408220805460ff191660029081178255909252600b90527fa50eece07c7db1631545c0069bd8f5f54d5935e215d59097edf258a44ba91634546144ff90436154f1565b8160070160086101000a8154816001600160401b0302191690836001600160401b0316021790555080600101546004600082825461453d91906155d7565b9091555060029050612a12565b815160609061455a8360016154f1565b6001600160401b0381111561457157614571615018565b60405190808252806020026020018201604052801561459a578160200160208202803683370190505b5091506000805b602086015151865110156145fa576145b886614603565b809250819350505060018483815181106145d4576145d461553e565b602002602001018181516145e891906154f1565b9052506145f5868261482d565b6145a1565b50509092525090565b600080600061461184614704565b905061461e60088261558e565b925080600716600581111561463557614635615306565b915050915091565b6060600061464a83614704565b9050600081846000015161465e91906154f1565b905083602001515181111561467257600080fd5b816001600160401b0381111561468a5761468a615018565b6040519080825280601f01601f1916602001820160405280156146b4576020820181803683370190505b50602080860151865192955091818601919083010160005b858110156146ee5781810151838201526146e76020826154f1565b90506146cc565b505050935250919050565b60006120ac82614aaf565b602080820151825181019091015160009182805b600a8110156147805783811a915061473181600761556f565b82607f16901b85179450816080166000141561476e576147528160016154f1565b865187906147619083906154f1565b9052509395945050505050565b8061477881615554565b915050614718565b50600080fd5b6040805180820182526000808252602080830182905283518085019094528184528301849052909190805b60208301515183511015614825576147c883614603565b909250905081600114156147f2576147e2613abe8461463d565b6001600160a01b031684526147b1565b81600214156148165761480c6148078461463d565b614ace565b60208501526147b1565b614820838261482d565b6147b1565b505050919050565b600081600581111561484157614841615306565b14156148505761132482614704565b600281600581111561486457614864615306565b141561038c57600061487583614704565b9050808360000181815161488991906154f1565b9052506020830151518351111561132457600080fd5b6000808251604114156148d65760208301516040840151606085015160001a6148ca87828585614b05565b945094505050506148de565b506000905060025b9250929050565b60008160048111156148f9576148f9615306565b14156149025750565b600181600481111561491657614916615306565b14156149645760405162461bcd60e51b815260206004820152601860248201527f45434453413a20696e76616c6964207369676e617475726500000000000000006044820152606401610c29565b600281600481111561497857614978615306565b14156149c65760405162461bcd60e51b815260206004820152601f60248201527f45434453413a20696e76616c6964207369676e6174757265206c656e677468006044820152606401610c29565b60038160048111156149da576149da615306565b1415614a335760405162461bcd60e51b815260206004820152602260248201527f45434453413a20696e76616c6964207369676e6174757265202773272076616c604482015261756560f01b6064820152608401610c29565b6004816004811115614a4757614a47615306565b1415610f8b5760405162461bcd60e51b815260206004820152602260248201527f45434453413a20696e76616c6964207369676e6174757265202776272076616c604482015261756560f01b6064820152608401610c29565b60606136d18484600085614bf2565b60008151601414614abf57600080fd5b5060200151600160601b900490565b6000602082511115614adf57600080fd5b6020820151905081516020614af491906155d7565b614aff90600861556f565b1c919050565b6000807f7fffffffffffffffffffffffffffffff5d576e7357a4501ddfe92f46681b20a0831115614b3c5750600090506003614be9565b8460ff16601b14158015614b5457508460ff16601c14155b15614b655750600090506004614be9565b6040805160008082526020820180845289905260ff881692820192909252606081018690526080810185905260019060a0016020604051602081039080840390855afa158015614bb9573d6000803e3d6000fd5b5050604051601f1901519150506001600160a01b038116614be257600060019250925050614be9565b9150600090505b94509492505050565b606082471015614c535760405162461bcd60e51b815260206004820152602660248201527f416464726573733a20696e73756666696369656e742062616c616e636520666f6044820152651c8818d85b1b60d21b6064820152608401610c29565b6001600160a01b0385163b614caa5760405162461bcd60e51b815260206004820152601d60248201527f416464726573733a2063616c6c20746f206e6f6e2d636f6e74726163740000006044820152606401610c29565b600080866001600160a01b03168587604051614cc69190615830565b60006040518083038185875af1925050503d8060008114614d03576040519150601f19603f3d011682016040523d82523d6000602084013e614d08565b606091505b5091509150614d18828286614d23565b979650505050505050565b60608315614d325750816136d4565b825115614d425782518084602001fd5b8160405162461bcd60e51b8152600401610c29919061584c565b80356001600160a01b0381168114614d7357600080fd5b919050565b60008060408385031215614d8b57600080fd5b614d9483614d5c565b946020939093013593505050565b8015158114610f8b57600080fd5b600060208284031215614dc257600080fd5b81356136d481614da2565b600060208284031215614ddf57600080fd5b6136d482614d5c565b600060208284031215614dfa57600080fd5b5035919050565b60008083601f840112614e1357600080fd5b5081356001600160401b03811115614e2a57600080fd5b6020830191508360208285010111156148de57600080fd5b60008083601f840112614e5457600080fd5b5081356001600160401b03811115614e6b57600080fd5b6020830191508360208260051b85010111156148de57600080fd5b60008060008060408587031215614e9c57600080fd5b84356001600160401b0380821115614eb357600080fd5b614ebf88838901614e01565b90965094506020870135915080821115614ed857600080fd5b50614ee587828801614e42565b95989497509550505050565b602080825282518282018190526000919060409081850190868401855b82811015614f3c57815180516001600160a01b03168552860151868501529284019290850190600101614f0e565b5091979650505050505050565b803560098110614d7357600080fd5b600060208284031215614f6a57600080fd5b6136d482614f49565b60008060408385031215614f8657600080fd5b614f8f83614d5c565b91506020830135614f9f81614da2565b809150509250929050565b80356001600160401b0381168114614d7357600080fd5b600060208284031215614fd357600080fd5b6136d482614faa565b600080600060608486031215614ff157600080fd5b614ffa84614d5c565b92506020840135915061500f60408501614faa565b90509250925092565b634e487b7160e01b600052604160045260246000fd5b604051601f8201601f191681016001600160401b038111828210171561505657615056615018565b604052919050565b600082601f83011261506f57600080fd5b81356001600160401b0381111561508857615088615018565b61509b601f8201601f191660200161502e565b8181528460208386010111156150b057600080fd5b816020850160208301376000918101602001919091529392505050565b60008060008060008060006080888a0312156150e857600080fd5b87356001600160401b03808211156150ff57600080fd5b61510b8b838c0161505e565b985060208a013591508082111561512157600080fd5b61512d8b838c01614e42565b909850965060408a013591508082111561514657600080fd5b6151528b838c01614e42565b909650945060608a013591508082111561516b57600080fd5b506151788a828b01614e42565b989b979a50959850939692959293505050565b60006001600160401b03808411156151a5576151a5615018565b8360051b60206151b681830161502e565b868152935090840190808401878311156151cf57600080fd5b855b83811015615203578035858111156151e95760008081fd5b6151f58a828a0161505e565b8352509082019082016151d1565b50505050509392505050565b6000806040838503121561522257600080fd5b82356001600160401b038082111561523957600080fd5b6152458683870161505e565b9350602085013591508082111561525b57600080fd5b508301601f8101851361526d57600080fd5b61527c8582356020840161518b565b9150509250929050565b60008060008060006060868803121561529e57600080fd5b6152a786614d5c565b945060208601356001600160401b03808211156152c357600080fd5b6152cf89838a01614e01565b909650945060408801359150808211156152e857600080fd5b506152f588828901614e01565b969995985093965092949392505050565b634e487b7160e01b600052602160045260246000fd5b6004811061533a57634e487b7160e01b600052602160045260246000fd5b9052565b602081016120ac828461531c565b6000806040838503121561535f57600080fd5b614d9483614f49565b6000806040838503121561537b57600080fd5b61538483614d5c565b915061539260208401614d5c565b90509250929050565b602080825282516001600160a01b031682820152828101516040808401919091528084015160608085019190915284015160c06080850152805160e08501819052600093929183019184916101008701905b8084101561541657845180518352860151868301529385019360019390930192908201906153ed565b50608088015160a088015260a088015160c0880152809550505050505092915050565b6101408101615448828d61531c565b6001600160a01b039a909a16602082015260408101989098526060880196909652608087019490945260a086019290925260c08501526001600160401b0390811660e08501529081166101008401521661012090910152919050565b6020808252601c908201527f56616c696461746f72206973206e6f7420696e697469616c697a656400000000604082015260600190565b634e487b7160e01b600052601160045260246000fd5b60008219821115615504576155046154db565b500190565b6020808252818101527f4f776e61626c653a2063616c6c6572206973206e6f7420746865206f776e6572604082015260600190565b634e487b7160e01b600052603260045260246000fd5b6000600019821415615568576155686154db565b5060010190565b6000816000190483118215151615615589576155896154db565b500290565b6000826155ab57634e487b7160e01b600052601260045260246000fd5b500490565b838152818360208301376000910160200190815292915050565b60006136d436848461518b565b6000828210156155e9576155e96154db565b500390565b6000600160ff1b821415615604576156046154db565b5060000390565b600063ffffffff80831681811415615625576156256154db565b6001019392505050565b60005b8381101561564a578181015183820152602001615632565b83811115612e2f5750506000910152565b6000815180845261567381602086016020860161562f565b601f01601f19169290920160200192915050565b60608152600a60608201526931b7b6b6b4b9b9b4b7b760b11b608082015260a0602082015260006156bb60a083018561565b565b905060018060a01b03831660408301529392505050565b6060815260046060820152631a5b9a5d60e21b608082015260a0602082015260006156bb60a083018561565b565b60608152601360608201527236b4b716b9b2b63316b232b632b3b0ba34b7b760691b608082015260a0602082015260006156bb60a083018561565b565b60608152600660608201526539b4b3b732b960d11b608082015260a0602082015260006156bb60a083018561565b565b81835281816020850137506000828201602090810191909152601f909101601f19169091010190565b6060815260006157aa60608301878961576d565b82810360208401526157bd81868861576d565b91505060018060a01b03831660408301529695505050505050565b600063ffffffff838116908316818110156157f5576157f56154db565b039392505050565b634e487b7160e01b600052603160045260246000fd5b60006020828403121561582557600080fd5b81516136d481614da2565b6000825161584281846020870161562f565b9190910192915050565b6020815260006136d4602083018461565b56fe3683b59f352bc42833c21c736ba7631d3e35fed49723ebac8298d4e0f36e512ca2646970667358221220628db9041851a791cae07022a1e3925530aca61542a7e2200b2286bb8b868a3864736f6c63430008090033",
  "linkReferences": {},
  "deployedLinkReferences": {}
}