{
  "_format": "hh-sol-artifact-1",
  "contractName": "MintSwapCanonicalToken",
  "sourceName": "contracts/cBridge/pegged-bridge/tokens/MintSwapCanonicalToken.sol",
  "abi": [
    {
      "inputs": [
        {
          "internalType": "string",
          "name": "name_",
          "type": "string"
        },
        {
          "internalType": "string",
          "name": "symbol_",
          "type": "string"
        },
        {
          "internalType": "uint8",
          "name": "decimals_",
          "type": "uint8"
        }
      ],
      "stateMutability": "nonpayable",
      "type": "constructor"
    },
    {
      "anonymous": false,
      "inputs": [
        {
          "indexed": true,
          "internalType": "address",
          "name": "owner",
          "type": "address"
        },
        {
          "indexed": true,
          "internalType": "address",
          "name": "spender",
          "type": "address"
        },
        {
          "indexed": false,
          "internalType": "uint256",
          "name": "value",
          "type": "uint256"
        }
      ],
      "name": "Approval",
      "type": "event"
    },
    {
      "anonymous": false,
      "inputs": [
        {
          "indexed": false,
          "internalType": "address",
          "name": "bridge",
          "type": "address"
        },
        {
          "indexed": false,
          "internalType": "uint256",
          "name": "supplyCap",
          "type": "uint256"
        }
      ],
      "name": "BridgeSupplyCapUpdated",
      "type": "event"
    },
    {
      "anonymous": false,
      "inputs": [
        {
          "indexed": true,
          "internalType": "address",
          "name": "previousOwner",
          "type": "address"
        },
        {
          "indexed": true,
          "internalType": "address",
          "name": "newOwner",
          "type": "address"
        }
      ],
      "name": "OwnershipTransferred",
      "type": "event"
    },
    {
      "anonymous": false,
      "inputs": [
        {
          "indexed": false,
          "internalType": "address",
          "name": "token",
          "type": "address"
        },
        {
          "indexed": false,
          "internalType": "uint256",
          "name": "cap",
          "type": "uint256"
        }
      ],
      "name": "TokenSwapCapUpdated",
      "type": "event"
    },
    {
      "anonymous": false,
      "inputs": [
        {
          "indexed": true,
          "internalType": "address",
          "name": "from",
          "type": "address"
        },
        {
          "indexed": true,
          "internalType": "address",
          "name": "to",
          "type": "address"
        },
        {
          "indexed": false,
          "internalType": "uint256",
          "name": "value",
          "type": "uint256"
        }
      ],
      "name": "Transfer",
      "type": "event"
    },
    {
      "inputs": [
        {
          "internalType": "address",
          "name": "owner",
          "type": "address"
        },
        {
          "internalType": "address",
          "name": "spender",
          "type": "address"
        }
      ],
      "name": "allowance",
      "outputs": [
        {
          "internalType": "uint256",
          "name": "",
          "type": "uint256"
        }
      ],
      "stateMutability": "view",
      "type": "function"
    },
    {
      "inputs": [
        {
          "internalType": "address",
          "name": "spender",
          "type": "address"
        },
        {
          "internalType": "uint256",
          "name": "amount",
          "type": "uint256"
        }
      ],
      "name": "approve",
      "outputs": [
        {
          "internalType": "bool",
          "name": "",
          "type": "bool"
        }
      ],
      "stateMutability": "nonpayable",
      "type": "function"
    },
    {
      "inputs": [
        {
          "internalType": "address",
          "name": "account",
          "type": "address"
        }
      ],
      "name": "balanceOf",
      "outputs": [
        {
          "internalType": "uint256",
          "name": "",
          "type": "uint256"
        }
      ],
      "stateMutability": "view",
      "type": "function"
    },
    {
      "inputs": [
        {
          "internalType": "address",
          "name": "",
          "type": "address"
        }
      ],
      "name": "bridges",
      "outputs": [
        {
          "internalType": "uint256",
          "name": "cap",
          "type": "uint256"
        },
        {
          "internalType": "uint256",
          "name": "total",
          "type": "uint256"
        }
      ],
      "stateMutability": "view",
      "type": "function"
    },
    {
      "inputs": [
        {
          "internalType": "uint256",
          "name": "_amount",
          "type": "uint256"
        }
      ],
      "name": "burn",
      "outputs": [
        {
          "internalType": "bool",
          "name": "",
          "type": "bool"
        }
      ],
      "stateMutability": "nonpayable",
      "type": "function"
    },
    {
      "inputs": [
        {
          "internalType": "address",
          "name": "_from",
          "type": "address"
        },
        {
          "internalType": "uint256",
          "name": "_amount",
          "type": "uint256"
        }
      ],
      "name": "burn",
      "outputs": [
        {
          "internalType": "bool",
          "name": "",
          "type": "bool"
        }
      ],
      "stateMutability": "nonpayable",
      "type": "function"
    },
    {
      "inputs": [
        {
          "internalType": "address",
          "name": "_from",
          "type": "address"
        },
        {
          "internalType": "uint256",
          "name": "_amount",
          "type": "uint256"
        }
      ],
      "name": "burnFrom",
      "outputs": [
        {
          "internalType": "bool",
          "name": "",
          "type": "bool"
        }
      ],
      "stateMutability": "nonpayable",
      "type": "function"
    },
    {
      "inputs": [],
      "name": "decimals",
      "outputs": [
        {
          "internalType": "uint8",
          "name": "",
          "type": "uint8"
        }
      ],
      "stateMutability": "view",
      "type": "function"
    },
    {
      "inputs": [
        {
          "internalType": "address",
          "name": "spender",
          "type": "address"
        },
        {
          "internalType": "uint256",
          "name": "subtractedValue",
          "type": "uint256"
        }
      ],
      "name": "decreaseAllowance",
      "outputs": [
        {
          "internalType": "bool",
          "name": "",
          "type": "bool"
        }
      ],
      "stateMutability": "nonpayable",
      "type": "function"
    },
    {
      "inputs": [],
      "name": "getOwner",
      "outputs": [
        {
          "internalType": "address",
          "name": "",
          "type": "address"
        }
      ],
      "stateMutability": "view",
      "type": "function"
    },
    {
      "inputs": [
        {
          "internalType": "address",
          "name": "spender",
          "type": "address"
        },
        {
          "internalType": "uint256",
          "name": "addedValue",
          "type": "uint256"
        }
      ],
      "name": "increaseAllowance",
      "outputs": [
        {
          "internalType": "bool",
          "name": "",
          "type": "bool"
        }
      ],
      "stateMutability": "nonpayable",
      "type": "function"
    },
    {
      "inputs": [
        {
          "internalType": "address",
          "name": "_to",
          "type": "address"
        },
        {
          "internalType": "uint256",
          "name": "_amount",
          "type": "uint256"
        }
      ],
      "name": "mint",
      "outputs": [
        {
          "internalType": "bool",
          "name": "",
          "type": "bool"
        }
      ],
      "stateMutability": "nonpayable",
      "type": "function"
    },
    {
      "inputs": [],
      "name": "name",
      "outputs": [
        {
          "internalType": "string",
          "name": "",
          "type": "string"
        }
      ],
      "stateMutability": "view",
      "type": "function"
    },
    {
      "inputs": [],
      "name": "owner",
      "outputs": [
        {
          "internalType": "address",
          "name": "",
          "type": "address"
        }
      ],
      "stateMutability": "view",
      "type": "function"
    },
    {
      "inputs": [
        {
          "internalType": "address",
          "name": "_bridgeToken",
          "type": "address"
        },
        {
          "internalType": "uint256",
          "name": "_swapCap",
          "type": "uint256"
        }
      ],
      "name": "setBridgeTokenSwapCap",
      "outputs": [],
      "stateMutability": "nonpayable",
      "type": "function"
    },
    {
      "inputs": [
        {
          "internalType": "address",
          "name": "_bridgeToken",
          "type": "address"
        },
        {
          "internalType": "uint256",
          "name": "_amount",
          "type": "uint256"
        }
      ],
      "name": "swapBridgeForCanonical",
      "outputs": [
        {
          "internalType": "uint256",
          "name": "",
          "type": "uint256"
        }
      ],
      "stateMutability": "nonpayable",
      "type": "function"
    },
    {
      "inputs": [
        {
          "internalType": "address",
          "name": "_bridgeToken",
          "type": "address"
        },
        {
          "internalType": "uint256",
          "name": "_amount",
          "type": "uint256"
        }
      ],
      "name": "swapCanonicalForBridge",
      "outputs": [
        {
          "internalType": "uint256",
          "name": "",
          "type": "uint256"
        }
      ],
      "stateMutability": "nonpayable",
      "type": "function"
    },
    {
      "inputs": [
        {
          "internalType": "address",
          "name": "",
          "type": "address"
        }
      ],
      "name": "swapSupplies",
      "outputs": [
        {
          "internalType": "uint256",
          "name": "cap",
          "type": "uint256"
        },
        {
          "internalType": "uint256",
          "name": "total",
          "type": "uint256"
        }
      ],
      "stateMutability": "view",
      "type": "function"
    },
    {
      "inputs": [],
      "name": "symbol",
      "outputs": [
        {
          "internalType": "string",
          "name": "",
          "type": "string"
        }
      ],
      "stateMutability": "view",
      "type": "function"
    },
    {
      "inputs": [],
      "name": "totalSupply",
      "outputs": [
        {
          "internalType": "uint256",
          "name": "",
          "type": "uint256"
        }
      ],
      "stateMutability": "view",
      "type": "function"
    },
    {
      "inputs": [
        {
          "internalType": "address",
          "name": "to",
          "type": "address"
        },
        {
          "internalType": "uint256",
          "name": "amount",
          "type": "uint256"
        }
      ],
      "name": "transfer",
      "outputs": [
        {
          "internalType": "bool",
          "name": "",
          "type": "bool"
        }
      ],
      "stateMutability": "nonpayable",
      "type": "function"
    },
    {
      "inputs": [
        {
          "internalType": "address",
          "name": "from",
          "type": "address"
        },
        {
          "internalType": "address",
          "name": "to",
          "type": "address"
        },
        {
          "internalType": "uint256",
          "name": "amount",
          "type": "uint256"
        }
      ],
      "name": "transferFrom",
      "outputs": [
        {
          "internalType": "bool",
          "name": "",
          "type": "bool"
        }
      ],
      "stateMutability": "nonpayable",
      "type": "function"
    },
    {
      "inputs": [
        {
          "internalType": "address",
          "name": "newOwner",
          "type": "address"
        }
      ],
      "name": "transferOwnership",
      "outputs": [],
      "stateMutability": "nonpayable",
      "type": "function"
    },
    {
      "inputs": [
        {
          "internalType": "address",
          "name": "_bridge",
          "type": "address"
        },
        {
          "internalType": "uint256",
          "name": "_cap",
          "type": "uint256"
        }
      ],
      "name": "updateBridgeSupplyCap",
      "outputs": [],
      "stateMutability": "nonpayable",
      "type": "function"
    }
  ],
  "bytecode": "0x60a06040523480156200001157600080fd5b50604051620018c6380380620018c6833981016040819052620000349162000252565b8282828282816003908051906020019062000051929190620000df565b50805162000067906004906020840190620000df565b5050506200007b336200008d60201b60201c565b60ff1660805250620003149350505050565b600580546001600160a01b038381166001600160a01b0319831681179093556040519116919082907f8be0079c531659141344cd1fd0a4f28419497f9722a3daafe3b4186f6b6457e090600090a35050565b828054620000ed90620002d7565b90600052602060002090601f0160209004810192826200011157600085556200015c565b82601f106200012c57805160ff19168380011785556200015c565b828001600101855582156200015c579182015b828111156200015c5782518255916020019190600101906200013f565b506200016a9291506200016e565b5090565b5b808211156200016a57600081556001016200016f565b634e487b7160e01b600052604160045260246000fd5b600082601f830112620001ad57600080fd5b81516001600160401b0380821115620001ca57620001ca62000185565b604051601f8301601f19908116603f01168101908282118183101715620001f557620001f562000185565b816040528381526020925086838588010111156200021257600080fd5b600091505b8382101562000236578582018301518183018401529082019062000217565b83821115620002485760008385830101525b9695505050505050565b6000806000606084860312156200026857600080fd5b83516001600160401b03808211156200028057600080fd5b6200028e878388016200019b565b94506020860151915080821115620002a557600080fd5b50620002b4868287016200019b565b925050604084015160ff81168114620002cc57600080fd5b809150509250925092565b600181811c90821680620002ec57607f821691505b602082108114156200030e57634e487b7160e01b600052602260045260246000fd5b50919050565b6080516115966200033060003960006101e101526115966000f3fe608060405234801561001057600080fd5b50600436106101585760003560e01c806379cc6790116100c3578063a9059cbb1161007c578063a9059cbb1461031d578063cd04611914610330578063ced67f0c14610343578063dd62ed3e1461036a578063f2fde38b1461037d578063f716932e1461039057600080fd5b806379cc6790146102be578063893d20e8146102d15780638da5cb5b146102f157806395d89b41146103025780639dc29fac146102be578063a457c2d71461030a57600080fd5b806334faea1b1161011557806334faea1b1461020b578063395093511461024757806340c10f191461025a57806342966c681461026d5780634ce2f71a1461028057806370a082311461029557600080fd5b806306fdde031461015d578063095ea7b31461017b57806313f1a4a41461019e57806318160ddd146101bf57806323b872dd146101c7578063313ce567146101da575b600080fd5b6101656103a3565b6040516101729190611351565b60405180910390f35b61018e6101893660046113a0565b610435565b6040519015158152602001610172565b6101b16101ac3660046113a0565b61044d565b604051908152602001610172565b6002546101b1565b61018e6101d53660046113ca565b6104ef565b60405160ff7f0000000000000000000000000000000000000000000000000000000000000000168152602001610172565b610232610219366004611406565b6007602052600090815260409020805460019091015482565b60408051928352602083019190915201610172565b61018e6102553660046113a0565b610515565b61018e6102683660046113a0565b610537565b61018e61027b366004611421565b6105fd565b61029361028e3660046113a0565b610611565b005b6101b16102a3366004611406565b6001600160a01b031660009081526020819052604090205490565b61018e6102cc3660046113a0565b6106a3565b6102d96106af565b6040516001600160a01b039091168152602001610172565b6005546001600160a01b03166102d9565b6101656106c8565b61018e6103183660046113a0565b6106d7565b61018e61032b3660046113a0565b61075d565b61029361033e3660046113a0565b61076b565b610232610351366004611406565b6006602052600090815260409020805460019091015482565b6101b161037836600461143a565b6107f5565b61029361038b366004611406565b610820565b6101b161039e3660046113a0565b6108ca565b6060600380546103b29061146d565b80601f01602080910402602001604051908101604052809291908181526020018280546103de9061146d565b801561042b5780601f106104005761010080835404028352916020019161042b565b820191906000526020600020905b81548152906001019060200180831161040e57829003601f168201915b5050505050905090565b6000336104438185856109b2565b5060019392505050565b6001600160a01b038216600090815260076020526040812080546104af5760405162461bcd60e51b815260206004820152601460248201527334b73b30b634b210313934b233b2903a37b5b2b760611b60448201526064015b60405180910390fd5b828160010160008282546104c391906114be565b909155506104d390503384610ad7565b6104e76001600160a01b0385163385610c22565b509092915050565b6000336104fd858285610c85565b610508858585610cff565b60019150505b9392505050565b60003361044381858561052883836107f5565b61053291906114d5565b6109b2565b33600090815260066020526040812080546105855760405162461bcd60e51b815260206004820152600e60248201526d34b73b30b634b21031b0b63632b960911b60448201526064016104a6565b8281600101600082825461059991906114d5565b90915550508054600182015411156105f35760405162461bcd60e51b815260206004820152601960248201527f657863656564732062726964676520737570706c79206361700000000000000060448201526064016104a6565b6104438484610ecd565b60006106093383610ad7565b506001919050565b336106246005546001600160a01b031690565b6001600160a01b03161461064a5760405162461bcd60e51b81526004016104a6906114ed565b6001600160a01b038216600081815260066020908152604091829020849055815192835282018390527f59e1e4348943de408b89af8ab71e502ea722dd41efd1ff4a3548c60e83e91c6091015b60405180910390a15050565b600061050e8383610fac565b60006106c36005546001600160a01b031690565b905090565b6060600480546103b29061146d565b600033816106e582866107f5565b9050838110156107455760405162461bcd60e51b815260206004820152602560248201527f45524332303a2064656372656173656420616c6c6f77616e63652062656c6f77604482015264207a65726f60d81b60648201526084016104a6565b61075282868684036109b2565b506001949350505050565b600033610443818585610cff565b3361077e6005546001600160a01b031690565b6001600160a01b0316146107a45760405162461bcd60e51b81526004016104a6906114ed565b6001600160a01b038216600081815260076020908152604091829020849055815192835282018390527f51c7b3899924578d835c066303e3f765c25fea17d7b18840cd109a90f5c5601f9101610697565b6001600160a01b03918216600090815260016020908152604080832093909416825291909152205490565b336108336005546001600160a01b031690565b6001600160a01b0316146108595760405162461bcd60e51b81526004016104a6906114ed565b6001600160a01b0381166108be5760405162461bcd60e51b815260206004820152602660248201527f4f776e61626c653a206e6577206f776e657220697320746865207a65726f206160448201526564647265737360d01b60648201526084016104a6565b6108c781611048565b50565b6001600160a01b038216600090815260076020526040812080546109275760405162461bcd60e51b815260206004820152601460248201527334b73b30b634b210313934b233b2903a37b5b2b760611b60448201526064016104a6565b805460018201546109399085906114d5565b11156109795760405162461bcd60e51b815260206004820152600f60248201526e065786365656420737761702063617608c1b60448201526064016104a6565b8281600101600082825461098d91906114d5565b9091555061099d90503384610ecd565b6104e76001600160a01b03851633308661109a565b6001600160a01b038316610a145760405162461bcd60e51b8152602060048201526024808201527f45524332303a20617070726f76652066726f6d20746865207a65726f206164646044820152637265737360e01b60648201526084016104a6565b6001600160a01b038216610a755760405162461bcd60e51b815260206004820152602260248201527f45524332303a20617070726f766520746f20746865207a65726f206164647265604482015261737360f01b60648201526084016104a6565b6001600160a01b0383811660008181526001602090815260408083209487168084529482529182902085905590518481527f8c5be1e5ebec7d5bd14f71427d1e84f3dd0314c0f7b2291e5b200ac8c7c3b92591015b60405180910390a3505050565b6001600160a01b038216610b375760405162461bcd60e51b815260206004820152602160248201527f45524332303a206275726e2066726f6d20746865207a65726f206164647265736044820152607360f81b60648201526084016104a6565b6001600160a01b03821660009081526020819052604090205481811015610bab5760405162461bcd60e51b815260206004820152602260248201527f45524332303a206275726e20616d6f756e7420657863656564732062616c616e604482015261636560f01b60648201526084016104a6565b6001600160a01b0383166000908152602081905260408120838303905560028054849290610bda9084906114be565b90915550506040518281526000906001600160a01b038516907fddf252ad1be2c89b69c2b068fc378daa952ba7f163c4a11628f55a4df523b3ef90602001610aca565b505050565b6040516001600160a01b038316602482015260448101829052610c1d90849063a9059cbb60e01b906064015b60408051601f198184030181529190526020810180516001600160e01b03166001600160e01b0319909316929092179091526110d2565b6000610c9184846107f5565b90506000198114610cf95781811015610cec5760405162461bcd60e51b815260206004820152601d60248201527f45524332303a20696e73756666696369656e7420616c6c6f77616e636500000060448201526064016104a6565b610cf984848484036109b2565b50505050565b6001600160a01b038316610d635760405162461bcd60e51b815260206004820152602560248201527f45524332303a207472616e736665722066726f6d20746865207a65726f206164604482015264647265737360d81b60648201526084016104a6565b6001600160a01b038216610dc55760405162461bcd60e51b815260206004820152602360248201527f45524332303a207472616e7366657220746f20746865207a65726f206164647260448201526265737360e81b60648201526084016104a6565b6001600160a01b03831660009081526020819052604090205481811015610e3d5760405162461bcd60e51b815260206004820152602660248201527f45524332303a207472616e7366657220616d6f756e7420657863656564732062604482015265616c616e636560d01b60648201526084016104a6565b6001600160a01b03808516600090815260208190526040808220858503905591851681529081208054849290610e749084906114d5565b92505081905550826001600160a01b0316846001600160a01b03167fddf252ad1be2c89b69c2b068fc378daa952ba7f163c4a11628f55a4df523b3ef84604051610ec091815260200190565b60405180910390a3610cf9565b6001600160a01b038216610f235760405162461bcd60e51b815260206004820152601f60248201527f45524332303a206d696e7420746f20746865207a65726f20616464726573730060448201526064016104a6565b8060026000828254610f3591906114d5565b90915550506001600160a01b03821660009081526020819052604081208054839290610f629084906114d5565b90915550506040518181526001600160a01b038316906000907fddf252ad1be2c89b69c2b068fc378daa952ba7f163c4a11628f55a4df523b3ef9060200160405180910390a35050565b3360009081526006602052604081208054151580610fce575060008160010154115b156110335782816001015410156110275760405162461bcd60e51b815260206004820152601c60248201527f6578636565647320627269646765206d696e74656420616d6f756e740000000060448201526064016104a6565b60018101805484900390555b61103e843385610c85565b6104438484610ad7565b600580546001600160a01b038381166001600160a01b0319831681179093556040519116919082907f8be0079c531659141344cd1fd0a4f28419497f9722a3daafe3b4186f6b6457e090600090a35050565b6040516001600160a01b0380851660248301528316604482015260648101829052610cf99085906323b872dd60e01b90608401610c4e565b6000611127826040518060400160405280602081526020017f5361666545524332303a206c6f772d6c6576656c2063616c6c206661696c6564815250856001600160a01b03166111a49092919063ffffffff16565b805190915015610c1d57808060200190518101906111459190611522565b610c1d5760405162461bcd60e51b815260206004820152602a60248201527f5361666545524332303a204552433230206f7065726174696f6e20646964206e6044820152691bdd081cdd58d8d9595960b21b60648201526084016104a6565b60606111b384846000856111bb565b949350505050565b60608247101561121c5760405162461bcd60e51b815260206004820152602660248201527f416464726573733a20696e73756666696369656e742062616c616e636520666f6044820152651c8818d85b1b60d21b60648201526084016104a6565b6001600160a01b0385163b6112735760405162461bcd60e51b815260206004820152601d60248201527f416464726573733a2063616c6c20746f206e6f6e2d636f6e747261637400000060448201526064016104a6565b600080866001600160a01b0316858760405161128f9190611544565b60006040518083038185875af1925050503d80600081146112cc576040519150601f19603f3d011682016040523d82523d6000602084013e6112d1565b606091505b50915091506112e18282866112ec565b979650505050505050565b606083156112fb57508161050e565b82511561130b5782518084602001fd5b8160405162461bcd60e51b81526004016104a69190611351565b60005b83811015611340578181015183820152602001611328565b83811115610cf95750506000910152565b6020815260008251806020840152611370816040850160208701611325565b601f01601f19169190910160400192915050565b80356001600160a01b038116811461139b57600080fd5b919050565b600080604083850312156113b357600080fd5b6113bc83611384565b946020939093013593505050565b6000806000606084860312156113df57600080fd5b6113e884611384565b92506113f660208501611384565b9150604084013590509250925092565b60006020828403121561141857600080fd5b61050e82611384565b60006020828403121561143357600080fd5b5035919050565b6000806040838503121561144d57600080fd5b61145683611384565b915061146460208401611384565b90509250929050565b600181811c9082168061148157607f821691505b602082108114156114a257634e487b7160e01b600052602260045260246000fd5b50919050565b634e487b7160e01b600052601160045260246000fd5b6000828210156114d0576114d06114a8565b500390565b600082198211156114e8576114e86114a8565b500190565b6020808252818101527f4f776e61626c653a2063616c6c6572206973206e6f7420746865206f776e6572604082015260600190565b60006020828403121561153457600080fd5b8151801515811461050e57600080fd5b60008251611556818460208701611325565b919091019291505056fea2646970667358221220e5bacc2866704c0cdd07b0839d6b8e716b447f2d21ff5a4810c995e0cb49c72264736f6c63430008090033",
  "linkReferences": {},
  "deployedLinkReferences": {}
}