{
  "_format": "hh-sol-artifact-1",
  "contractName": "CrossChainSwap",
  "sourceName": "contracts/cBridge/message/apps/examples/TransferSwapSendBack.sol",
  "abi": [
    {
      "inputs": [
        {
          "internalType": "address",
          "name": "_messageBus",
          "type": "address"
        },
        {
          "internalType": "address",
          "name": "dex_",
          "type": "address"
        }
      ],
      "stateMutability": "nonpayable",
      "type": "constructor"
    },
    {
      "anonymous": false,
      "inputs": [
        {
          "indexed": false,
          "internalType": "address",
          "name": "messageBus",
          "type": "address"
        }
      ],
      "name": "MessageBusUpdated",
      "type": "event"
    },
    {
      "anonymous": false,
      "inputs": [
        {
          "indexed": true,
          "internalType": "address",
          "name": "previousOwner",
          "type": "address"
        },
        {
          "indexed": true,
          "internalType": "address",
          "name": "newOwner",
          "type": "address"
        }
      ],
      "name": "OwnershipTransferred",
      "type": "event"
    },
    {
      "inputs": [],
      "name": "dex",
      "outputs": [
        {
          "internalType": "address",
          "name": "",
          "type": "address"
        }
      ],
      "stateMutability": "view",
      "type": "function"
    },
    {
      "inputs": [
        {
          "internalType": "bytes",
          "name": "_sender",
          "type": "bytes"
        },
        {
          "internalType": "uint64",
          "name": "_srcChainId",
          "type": "uint64"
        },
        {
          "internalType": "bytes",
          "name": "_message",
          "type": "bytes"
        },
        {
          "internalType": "address",
          "name": "_executor",
          "type": "address"
        }
      ],
      "name": "executeMessage",
      "outputs": [
        {
          "internalType": "enum IMessageReceiverApp.ExecutionStatus",
          "name": "",
          "type": "uint8"
        }
      ],
      "stateMutability": "payable",
      "type": "function"
    },
    {
      "inputs": [
        {
          "internalType": "address",
          "name": "_sender",
          "type": "address"
        },
        {
          "internalType": "uint64",
          "name": "_srcChainId",
          "type": "uint64"
        },
        {
          "internalType": "bytes",
          "name": "_message",
          "type": "bytes"
        },
        {
          "internalType": "address",
          "name": "_executor",
          "type": "address"
        }
      ],
      "name": "executeMessage",
      "outputs": [
        {
          "internalType": "enum IMessageReceiverApp.ExecutionStatus",
          "name": "",
          "type": "uint8"
        }
      ],
      "stateMutability": "payable",
      "type": "function"
    },
    {
      "inputs": [
        {
          "internalType": "address",
          "name": "",
          "type": "address"
        },
        {
          "internalType": "address",
          "name": "_token",
          "type": "address"
        },
        {
          "internalType": "uint256",
          "name": "_amount",
          "type": "uint256"
        },
        {
          "internalType": "uint64",
          "name": "_srcChainId",
          "type": "uint64"
        },
        {
          "internalType": "bytes",
          "name": "_message",
          "type": "bytes"
        },
        {
          "internalType": "address",
          "name": "",
          "type": "address"
        }
      ],
      "name": "executeMessageWithTransfer",
      "outputs": [
        {
          "internalType": "enum IMessageReceiverApp.ExecutionStatus",
          "name": "",
          "type": "uint8"
        }
      ],
      "stateMutability": "payable",
      "type": "function"
    },
    {
      "inputs": [
        {
          "internalType": "address",
          "name": "_sender",
          "type": "address"
        },
        {
          "internalType": "address",
          "name": "_token",
          "type": "address"
        },
        {
          "internalType": "uint256",
          "name": "_amount",
          "type": "uint256"
        },
        {
          "internalType": "uint64",
          "name": "_srcChainId",
          "type": "uint64"
        },
        {
          "internalType": "bytes",
          "name": "_message",
          "type": "bytes"
        },
        {
          "internalType": "address",
          "name": "_executor",
          "type": "address"
        }
      ],
      "name": "executeMessageWithTransferFallback",
      "outputs": [
        {
          "internalType": "enum IMessageReceiverApp.ExecutionStatus",
          "name": "",
          "type": "uint8"
        }
      ],
      "stateMutability": "payable",
      "type": "function"
    },
    {
      "inputs": [
        {
          "internalType": "address",
          "name": "_token",
          "type": "address"
        },
        {
          "internalType": "uint256",
          "name": "_amount",
          "type": "uint256"
        },
        {
          "internalType": "bytes",
          "name": "_message",
          "type": "bytes"
        },
        {
          "internalType": "address",
          "name": "_executor",
          "type": "address"
        }
      ],
      "name": "executeMessageWithTransferRefund",
      "outputs": [
        {
          "internalType": "enum IMessageReceiverApp.ExecutionStatus",
          "name": "",
          "type": "uint8"
        }
      ],
      "stateMutability": "payable",
      "type": "function"
    },
    {
      "inputs": [],
      "name": "messageBus",
      "outputs": [
        {
          "internalType": "address",
          "name": "",
          "type": "address"
        }
      ],
      "stateMutability": "view",
      "type": "function"
    },
    {
      "inputs": [],
      "name": "owner",
      "outputs": [
        {
          "internalType": "address",
          "name": "",
          "type": "address"
        }
      ],
      "stateMutability": "view",
      "type": "function"
    },
    {
      "inputs": [
        {
          "internalType": "address",
          "name": "_messageBus",
          "type": "address"
        }
      ],
      "name": "setMessageBus",
      "outputs": [],
      "stateMutability": "nonpayable",
      "type": "function"
    },
    {
      "inputs": [
        {
          "internalType": "address",
          "name": "_receiver",
          "type": "address"
        },
        {
          "internalType": "address",
          "name": "_token",
          "type": "address"
        },
        {
          "internalType": "uint256",
          "name": "_amount",
          "type": "uint256"
        },
        {
          "internalType": "uint64",
          "name": "_dstChainId",
          "type": "uint64"
        },
        {
          "components": [
            {
              "internalType": "address",
              "name": "wantToken",
              "type": "address"
            },
            {
              "internalType": "address",
              "name": "user",
              "type": "address"
            },
            {
              "internalType": "bool",
              "name": "sendBack",
              "type": "bool"
            },
            {
              "internalType": "uint32",
              "name": "cbrMaxSlippage",
              "type": "uint32"
            }
          ],
          "internalType": "struct CrossChainSwap.SwapInfo",
          "name": "swapInfo",
          "type": "tuple"
        }
      ],
      "name": "startCrossChainSwap",
      "outputs": [],
      "stateMutability": "payable",
      "type": "function"
    },
    {
      "inputs": [
        {
          "internalType": "address",
          "name": "newOwner",
          "type": "address"
        }
      ],
      "name": "transferOwnership",
      "outputs": [],
      "stateMutability": "nonpayable",
      "type": "function"
    }
  ],
  "bytecode": "0x60806040523480156200001157600080fd5b506040516200209a3803806200209a8339810160408190526200003491620000e3565b81620000403362000076565b600180546001600160a01b039283166001600160a01b03199182161790915560028054939092169216919091179055506200011b565b600080546001600160a01b038381166001600160a01b0319831681178455604051919092169283917f8be0079c531659141344cd1fd0a4f28419497f9722a3daafe3b4186f6b6457e09190a35050565b80516001600160a01b0381168114620000de57600080fd5b919050565b60008060408385031215620000f757600080fd5b6200010283620000c6565b91506200011260208401620000c6565b90509250929050565b611f6f806200012b6000396000f3fe60806040526004361061009c5760003560e01c80637cd2bffc116100645780637cd2bffc1461014a5780638da5cb5b1461015d5780639c649fdf1461017b578063a1a227fa14610189578063f2fde38b146101a9578063f88954dc146101c957600080fd5b8063063ce4e5146100a15780630bcb4982146100ca578063547cad12146100dd5780635ab7afc6146100ff578063692058c214610112575b600080fd5b6100b46100af36600461172d565b6101dc565b6040516100c191906117d8565b60405180910390f35b6100b46100d8366004611800565b61021c565b3480156100e957600080fd5b506100fd6100f8366004611873565b610252565b005b6100b461010d366004611890565b61030f565b34801561011e57600080fd5b50600254610132906001600160a01b031681565b6040516001600160a01b0390911681526020016100c1565b6100b461015836600461196c565b610347565b34801561016957600080fd5b506000546001600160a01b0316610132565b6100b46100d8366004611a4f565b34801561019557600080fd5b50600154610132906001600160a01b031681565b3480156101b557600080fd5b506100fd6101c4366004611873565b61067d565b6100fd6101d7366004611a9b565b610757565b6001546000906001600160a01b031633146102125760405162461bcd60e51b815260040161020990611b0a565b60405180910390fd5b9695505050505050565b6001546000906001600160a01b031633146102495760405162461bcd60e51b815260040161020990611b0a565b95945050505050565b336102656000546001600160a01b031690565b6001600160a01b0316146102bb5760405162461bcd60e51b815260206004820181905260248201527f4f776e61626c653a2063616c6c6572206973206e6f7420746865206f776e65726044820152606401610209565b600180546001600160a01b0319166001600160a01b0383169081179091556040519081527f3f8223bcd8b3b875473e9f9e14e1ad075451a2b5ffd31591655da9a01516bf5e9060200160405180910390a150565b6001546000906001600160a01b0316331461033c5760405162461bcd60e51b815260040161020990611b0a565b979650505050505050565b6001546000906001600160a01b031633146103745760405162461bcd60e51b815260040161020990611b0a565b60008380602001905181019061038a9190611b61565b60025460405163095ea7b360e01b81526001600160a01b0391821660048201526024810189905291925088169063095ea7b390604401602060405180830381600087803b1580156103da57600080fd5b505af11580156103ee573d6000803e3d6000fd5b505050506040513d601f19601f820116820180604052508101906104129190611be5565b50604080516002808252606082018352600092602083019080368337019050509050878160008151811061044857610448611c02565b60200260200101906001600160a01b031690816001600160a01b03168152505081600001518160018151811061048057610480611c02565b60200260200101906001600160a01b031690816001600160a01b0316815250508160400151156105d7576001600260148282829054906101000a90046001600160401b03166104cf9190611c2e565b82546001600160401b039182166101009390930a9283029190920219909116179055506002546040516338ed173960e01b81526000916001600160a01b0316906338ed17399061052d908b9085908790309060001990600401611c59565b600060405180830381600087803b15801561054757600080fd5b505af115801561055b573d6000803e3d6000fd5b505050506040513d6000823e601f3d908101601f191682016040526105839190810190611cca565b90506105d083602001518460000151836001815181106105a5576105a5611c02565b60200260200101518a600260149054906101000a90046001600160401b031688606001516001610826565b505061066e565b60025460208301516040516338ed173960e01b81526001600160a01b03909216916338ed173991610616918b9160009187919060001990600401611c59565b600060405180830381600087803b15801561063057600080fd5b505af1158015610644573d6000803e3d6000fd5b505050506040513d6000823e601f3d908101601f1916820160405261066c9190810190611cca565b505b50600198975050505050505050565b336106906000546001600160a01b031690565b6001600160a01b0316146106e65760405162461bcd60e51b815260206004820181905260248201527f4f776e61626c653a2063616c6c6572206973206e6f7420746865206f776e65726044820152606401610209565b6001600160a01b03811661074b5760405162461bcd60e51b815260206004820152602660248201527f4f776e61626c653a206e6577206f776e657220697320746865207a65726f206160448201526564647265737360d01b6064820152608401610209565b6107548161086b565b50565b6001600260148282829054906101000a90046001600160401b031661077c9190611c2e565b92506101000a8154816001600160401b0302191690836001600160401b031602179055506107c0333085876001600160a01b03166108bb909392919063ffffffff16565b6000816040516020016107d39190611d63565b604051602081830303815290604052905061081d86868686600260149054906101000a90046001600160401b03168760600160208101906108149190611dca565b8760013461092c565b50505050505050565b600061085f8888888888886040518060200160405280600081525089600160009054906101000a90046001600160a01b03166000610963565b98975050505050505050565b600080546001600160a01b038381166001600160a01b0319831681178455604051919092169283917f8be0079c531659141344cd1fd0a4f28419497f9722a3daafe3b4186f6b6457e09190a35050565b6040516001600160a01b03808516602483015283166044820152606481018290526109269085906323b872dd60e01b906084015b60408051601f198184030181529190526020810180516001600160e01b03166001600160e01b0319909316929092179091526109fc565b50505050565b60006109558a8a8a8a8a8a8a8a600160009054906101000a90046001600160a01b03168b610963565b9a9950505050505050505050565b60008060006109788d8d8d8d8d8d8c8c610ad3565b88519193509150156109ec57846001600160a01b0316634289fbb3858f8d85878d6040518763ffffffff1660e01b81526004016109b9959493929190611e3f565b6000604051808303818588803b1580156109d257600080fd5b505af11580156109e6573d6000803e3d6000fd5b50505050505b509b9a5050505050505050505050565b6000610a51826040518060400160405280602081526020017f5361666545524332303a206c6f772d6c6576656c2063616c6c206661696c6564815250856001600160a01b03166112659092919063ffffffff16565b805190915015610ace5780806020019051810190610a6f9190611be5565b610ace5760405162461bcd60e51b815260206004820152602a60248201527f5361666545524332303a204552433230206f7065726174696f6e20646964206e6044820152691bdd081cdd58d8d9595960b21b6064820152608401610209565b505050565b6000806001846006811115610aea57610aea6117c2565b1415610c1857826001600160a01b03166382980dc46040518163ffffffff1660e01b815260040160206040518083038186803b158015610b2957600080fd5b505afa158015610b3d573d6000803e3d6000fd5b505050506040513d601f19601f82011682018060405250810190610b619190611e81565b9050610b776001600160a01b038a16828a61127e565b60405163a5977fbb60e01b81526001600160a01b038b811660048301528a81166024830152604482018a90526001600160401b03808a1660648401528816608483015263ffffffff871660a483015282169063a5977fbb9060c401600060405180830381600087803b158015610bec57600080fd5b505af1158015610c00573d6000803e3d6000fd5b50505050610c118a8a8a8a8a61133f565b9150611258565b6002846006811115610c2c57610c2c6117c2565b1415610d2c57826001600160a01b031663d8257d176040518163ffffffff1660e01b815260040160206040518083038186803b158015610c6b57600080fd5b505afa158015610c7f573d6000803e3d6000fd5b505050506040513d601f19601f82011682018060405250810190610ca39190611e81565b9050610cb96001600160a01b038a16828a61127e565b806001600160a01b031663234636248a8a8a8e8b6040518663ffffffff1660e01b8152600401610ced959493929190611e9e565b600060405180830381600087803b158015610d0757600080fd5b505af1158015610d1b573d6000803e3d6000fd5b50505050610c118a8a8a8a8a6113c2565b6003846006811115610d4057610d406117c2565b1415610ed157826001600160a01b031663dfa2dbaf6040518163ffffffff1660e01b815260040160206040518083038186803b158015610d7f57600080fd5b505afa158015610d93573d6000803e3d6000fd5b505050506040513d601f19601f82011682018060405250810190610db79190611e81565b9050610dcd6001600160a01b038a16828a61127e565b604051636f3c863f60e11b81526001600160a01b038a81166004830152602482018a90528b811660448301526001600160401b038816606483015282169063de790c7e90608401600060405180830381600087803b158015610e2e57600080fd5b505af1158015610e42573d6000803e3d6000fd5b50610e5c925050506001600160a01b038a1682600061142b565b604080516001600160601b031930606090811b82166020808501919091528d821b83166034850152604884018d9052908e901b90911660688301526001600160c01b031960c08a811b8216607c85015246901b1660848301528251808303606c018152608c9092019092528051910120610c11565b6004846006811115610ee557610ee56117c2565b1415610ff857826001600160a01b031663c66a9c5a6040518163ffffffff1660e01b815260040160206040518083038186803b158015610f2457600080fd5b505afa158015610f38573d6000803e3d6000fd5b505050506040513d601f19601f82011682018060405250810190610f5c9190611e81565b9050610f726001600160a01b038a16828a61127e565b806001600160a01b031663234636248a8a8a8e8b6040518663ffffffff1660e01b8152600401610fa6959493929190611e9e565b602060405180830381600087803b158015610fc057600080fd5b505af1158015610fd4573d6000803e3d6000fd5b505050506040513d601f19601f82011682018060405250810190610c119190611ed9565b600584600681111561100c5761100c6117c2565b141561113b57826001600160a01b03166395b12c276040518163ffffffff1660e01b815260040160206040518083038186803b15801561104b57600080fd5b505afa15801561105f573d6000803e3d6000fd5b505050506040513d601f19601f820116820180604052508101906110839190611e81565b90506110996001600160a01b038a16828a61127e565b806001600160a01b031663a00293018a8a8a8e8b6040518663ffffffff1660e01b81526004016110cd959493929190611e9e565b602060405180830381600087803b1580156110e757600080fd5b505af11580156110fb573d6000803e3d6000fd5b505050506040513d601f19601f8201168201806040525081019061111f9190611ed9565b91506111366001600160a01b038a1682600061142b565b611258565b600684600681111561114f5761114f6117c2565b141561121057826001600160a01b03166395b12c276040518163ffffffff1660e01b815260040160206040518083038186803b15801561118e57600080fd5b505afa1580156111a2573d6000803e3d6000fd5b505050506040513d601f19601f820116820180604052508101906111c69190611e81565b90506111dc6001600160a01b038a16828a61127e565b806001600160a01b0316639e422c338a8a8a8e8b6040518663ffffffff1660e01b81526004016110cd959493929190611e9e565b60405162461bcd60e51b815260206004820152601960248201527f6272696467652074797065206e6f7420737570706f72746564000000000000006044820152606401610209565b9850989650505050505050565b6060611274848460008561154f565b90505b9392505050565b604051636eb1769f60e11b81523060048201526001600160a01b038381166024830152600091839186169063dd62ed3e9060440160206040518083038186803b1580156112ca57600080fd5b505afa1580156112de573d6000803e3d6000fd5b505050506040513d601f19601f820116820180604052508101906113029190611ed9565b61130c9190611ef2565b6040516001600160a01b03851660248201526044810182905290915061092690859063095ea7b360e01b906064016108ef565b6040516001600160601b031930606090811b8216602084015287811b8216603484015286901b166048820152605c81018490526001600160c01b031960c084811b8216607c84015283811b8216608484015246901b16608c8201526000906094015b60405160208183030381529060405280519060200120905095945050505050565b6040516001600160601b031930606090811b8216602084015286811b82166034840152604883018690526001600160c01b031960c086811b821660688601529189901b909216607084015283811b8216608484015246901b16608c8201526000906094016113a1565b8015806114b45750604051636eb1769f60e11b81523060048201526001600160a01b03838116602483015284169063dd62ed3e9060440160206040518083038186803b15801561147a57600080fd5b505afa15801561148e573d6000803e3d6000fd5b505050506040513d601f19601f820116820180604052508101906114b29190611ed9565b155b61151f5760405162461bcd60e51b815260206004820152603660248201527f5361666545524332303a20617070726f76652066726f6d206e6f6e2d7a65726f60448201527520746f206e6f6e2d7a65726f20616c6c6f77616e636560501b6064820152608401610209565b6040516001600160a01b038316602482015260448101829052610ace90849063095ea7b360e01b906064016108ef565b6060824710156115b05760405162461bcd60e51b815260206004820152602660248201527f416464726573733a20696e73756666696369656e742062616c616e636520666f6044820152651c8818d85b1b60d21b6064820152608401610209565b6001600160a01b0385163b6116075760405162461bcd60e51b815260206004820152601d60248201527f416464726573733a2063616c6c20746f206e6f6e2d636f6e74726163740000006044820152606401610209565b600080866001600160a01b031685876040516116239190611f0a565b60006040518083038185875af1925050503d8060008114611660576040519150601f19603f3d011682016040523d82523d6000602084013e611665565b606091505b509150915061033c8282866060831561167f575081611277565b82511561168f5782518084602001fd5b8160405162461bcd60e51b81526004016102099190611f26565b60008083601f8401126116bb57600080fd5b5081356001600160401b038111156116d257600080fd5b6020830191508360208285010111156116ea57600080fd5b9250929050565b80356001600160401b038116811461170857600080fd5b919050565b6001600160a01b038116811461075457600080fd5b80356117088161170d565b6000806000806000806080878903121561174657600080fd5b86356001600160401b038082111561175d57600080fd5b6117698a838b016116a9565b909850965086915061177d60208a016116f1565b9550604089013591508082111561179357600080fd5b506117a089828a016116a9565b90945092505060608701356117b48161170d565b809150509295509295509295565b634e487b7160e01b600052602160045260246000fd5b60208101600383106117fa57634e487b7160e01b600052602160045260246000fd5b91905290565b60008060008060006080868803121561181857600080fd5b85356118238161170d565b94506020860135935060408601356001600160401b0381111561184557600080fd5b611851888289016116a9565b90945092505060608601356118658161170d565b809150509295509295909350565b60006020828403121561188557600080fd5b81356112778161170d565b600080600080600080600060c0888a0312156118ab57600080fd5b87356118b68161170d565b965060208801356118c68161170d565b9550604088013594506118db606089016116f1565b935060808801356001600160401b038111156118f657600080fd5b6119028a828b016116a9565b90945092505060a08801356119168161170d565b8091505092959891949750929550565b634e487b7160e01b600052604160045260246000fd5b604051601f8201601f191681016001600160401b038111828210171561196457611964611926565b604052919050565b60008060008060008060c0878903121561198557600080fd5b86356119908161170d565b95506020878101356119a18161170d565b9550604088013594506119b6606089016116f1565b935060808801356001600160401b03808211156119d257600080fd5b818a0191508a601f8301126119e657600080fd5b8135818111156119f8576119f8611926565b611a0a601f8201601f1916850161193c565b91508082528b84828501011115611a2057600080fd5b8084840185840137600084828401015250809450505050611a4360a08801611722565b90509295509295509295565b600080600080600060808688031215611a6757600080fd5b8535611a728161170d565b9450611a80602087016116f1565b935060408601356001600160401b0381111561184557600080fd5b6000806000806000858703610100811215611ab557600080fd5b8635611ac08161170d565b95506020870135611ad08161170d565b945060408701359350611ae5606088016116f1565b92506080607f1982011215611af957600080fd5b506080860190509295509295909350565b60208082526019908201527f63616c6c6572206973206e6f74206d6573736167652062757300000000000000604082015260600190565b801515811461075457600080fd5b63ffffffff8116811461075457600080fd5b600060808284031215611b7357600080fd5b604051608081018181106001600160401b0382111715611b9557611b95611926565b6040528251611ba38161170d565b81526020830151611bb38161170d565b60208201526040830151611bc681611b41565b60408201526060830151611bd981611b4f565b60608201529392505050565b600060208284031215611bf757600080fd5b815161127781611b41565b634e487b7160e01b600052603260045260246000fd5b634e487b7160e01b600052601160045260246000fd5b60006001600160401b03808316818516808303821115611c5057611c50611c18565b01949350505050565b600060a082018783526020878185015260a0604085015281875180845260c086019150828901935060005b81811015611ca95784516001600160a01b031683529383019391830191600101611c84565b50506001600160a01b03969096166060850152505050608001529392505050565b60006020808385031215611cdd57600080fd5b82516001600160401b0380821115611cf457600080fd5b818501915085601f830112611d0857600080fd5b815181811115611d1a57611d1a611926565b8060051b9150611d2b84830161193c565b8181529183018401918481019088841115611d4557600080fd5b938501935b8385101561085f57845182529385019390850190611d4a565b608081018235611d728161170d565b6001600160a01b039081168352602084013590611d8e8261170d565b1660208301526040830135611da281611b41565b151560408301526060830135611db781611b4f565b63ffffffff811660608401525092915050565b600060208284031215611ddc57600080fd5b813561127781611b4f565b60005b83811015611e02578181015183820152602001611dea565b838111156109265750506000910152565b60008151808452611e2b816020860160208601611de7565b601f01601f19169290920160200192915050565b6001600160a01b0386811682526001600160401b0386166020830152841660408201526060810183905260a06080820181905260009061033c90830184611e13565b600060208284031215611e9357600080fd5b81516112778161170d565b6001600160a01b03958616815260208101949094526001600160401b0392831660408501529316606083015291909116608082015260a00190565b600060208284031215611eeb57600080fd5b5051919050565b60008219821115611f0557611f05611c18565b500190565b60008251611f1c818460208701611de7565b9190910192915050565b6020815260006112776020830184611e1356fea26469706673582212201b1cfde30938c41c020cf21bf8cdce1c197bd4eea16806c2fe27e461b707095264736f6c63430008090033",
  "linkReferences": {},
  "deployedLinkReferences": {}
}