{
  "_format": "hh-sol-artifact-1",
  "contractName": "MsgExampleBasic",
  "sourceName": "contracts/cBridge/message/apps/examples/MsgExampleBasic.sol",
  "abi": [
    {
      "inputs": [
        {
          "internalType": "address",
          "name": "_messageBus",
          "type": "address"
        }
      ],
      "stateMutability": "nonpayable",
      "type": "constructor"
    },
    {
      "anonymous": false,
      "inputs": [
        {
          "indexed": false,
          "internalType": "address",
          "name": "messageBus",
          "type": "address"
        }
      ],
      "name": "MessageBusUpdated",
      "type": "event"
    },
    {
      "anonymous": false,
      "inputs": [
        {
          "indexed": false,
          "internalType": "address",
          "name": "srcContract",
          "type": "address"
        },
        {
          "indexed": false,
          "internalType": "uint64",
          "name": "srcChainId",
          "type": "uint64"
        },
        {
          "indexed": false,
          "internalType": "address",
          "name": "sender",
          "type": "address"
        },
        {
          "indexed": false,
          "internalType": "bytes",
          "name": "message",
          "type": "bytes"
        }
      ],
      "name": "MessageReceived",
      "type": "event"
    },
    {
      "anonymous": false,
      "inputs": [
        {
          "indexed": true,
          "internalType": "address",
          "name": "previousOwner",
          "type": "address"
        },
        {
          "indexed": true,
          "internalType": "address",
          "name": "newOwner",
          "type": "address"
        }
      ],
      "name": "OwnershipTransferred",
      "type": "event"
    },
    {
      "inputs": [
        {
          "internalType": "bytes",
          "name": "_sender",
          "type": "bytes"
        },
        {
          "internalType": "uint64",
          "name": "_srcChainId",
          "type": "uint64"
        },
        {
          "internalType": "bytes",
          "name": "_message",
          "type": "bytes"
        },
        {
          "internalType": "address",
          "name": "_executor",
          "type": "address"
        }
      ],
      "name": "executeMessage",
      "outputs": [
        {
          "internalType": "enum IMessageReceiverApp.ExecutionStatus",
          "name": "",
          "type": "uint8"
        }
      ],
      "stateMutability": "payable",
      "type": "function"
    },
    {
      "inputs": [
        {
          "internalType": "address",
          "name": "_srcContract",
          "type": "address"
        },
        {
          "internalType": "uint64",
          "name": "_srcChainId",
          "type": "uint64"
        },
        {
          "internalType": "bytes",
          "name": "_message",
          "type": "bytes"
        },
        {
          "internalType": "address",
          "name": "",
          "type": "address"
        }
      ],
      "name": "executeMessage",
      "outputs": [
        {
          "internalType": "enum IMessageReceiverApp.ExecutionStatus",
          "name": "",
          "type": "uint8"
        }
      ],
      "stateMutability": "payable",
      "type": "function"
    },
    {
      "inputs": [
        {
          "internalType": "address",
          "name": "_sender",
          "type": "address"
        },
        {
          "internalType": "address",
          "name": "_token",
          "type": "address"
        },
        {
          "internalType": "uint256",
          "name": "_amount",
          "type": "uint256"
        },
        {
          "internalType": "uint64",
          "name": "_srcChainId",
          "type": "uint64"
        },
        {
          "internalType": "bytes",
          "name": "_message",
          "type": "bytes"
        },
        {
          "internalType": "address",
          "name": "_executor",
          "type": "address"
        }
      ],
      "name": "executeMessageWithTransfer",
      "outputs": [
        {
          "internalType": "enum IMessageReceiverApp.ExecutionStatus",
          "name": "",
          "type": "uint8"
        }
      ],
      "stateMutability": "payable",
      "type": "function"
    },
    {
      "inputs": [
        {
          "internalType": "address",
          "name": "_sender",
          "type": "address"
        },
        {
          "internalType": "address",
          "name": "_token",
          "type": "address"
        },
        {
          "internalType": "uint256",
          "name": "_amount",
          "type": "uint256"
        },
        {
          "internalType": "uint64",
          "name": "_srcChainId",
          "type": "uint64"
        },
        {
          "internalType": "bytes",
          "name": "_message",
          "type": "bytes"
        },
        {
          "internalType": "address",
          "name": "_executor",
          "type": "address"
        }
      ],
      "name": "executeMessageWithTransferFallback",
      "outputs": [
        {
          "internalType": "enum IMessageReceiverApp.ExecutionStatus",
          "name": "",
          "type": "uint8"
        }
      ],
      "stateMutability": "payable",
      "type": "function"
    },
    {
      "inputs": [
        {
          "internalType": "address",
          "name": "_token",
          "type": "address"
        },
        {
          "internalType": "uint256",
          "name": "_amount",
          "type": "uint256"
        },
        {
          "internalType": "bytes",
          "name": "_message",
          "type": "bytes"
        },
        {
          "internalType": "address",
          "name": "_executor",
          "type": "address"
        }
      ],
      "name": "executeMessageWithTransferRefund",
      "outputs": [
        {
          "internalType": "enum IMessageReceiverApp.ExecutionStatus",
          "name": "",
          "type": "uint8"
        }
      ],
      "stateMutability": "payable",
      "type": "function"
    },
    {
      "inputs": [],
      "name": "messageBus",
      "outputs": [
        {
          "internalType": "address",
          "name": "",
          "type": "address"
        }
      ],
      "stateMutability": "view",
      "type": "function"
    },
    {
      "inputs": [],
      "name": "owner",
      "outputs": [
        {
          "internalType": "address",
          "name": "",
          "type": "address"
        }
      ],
      "stateMutability": "view",
      "type": "function"
    },
    {
      "inputs": [
        {
          "internalType": "address",
          "name": "_dstContract",
          "type": "address"
        },
        {
          "internalType": "uint64",
          "name": "_dstChainId",
          "type": "uint64"
        },
        {
          "internalType": "bytes",
          "name": "_message",
          "type": "bytes"
        }
      ],
      "name": "sendMessage",
      "outputs": [],
      "stateMutability": "payable",
      "type": "function"
    },
    {
      "inputs": [
        {
          "internalType": "address",
          "name": "_messageBus",
          "type": "address"
        }
      ],
      "name": "setMessageBus",
      "outputs": [],
      "stateMutability": "nonpayable",
      "type": "function"
    },
    {
      "inputs": [
        {
          "internalType": "address",
          "name": "newOwner",
          "type": "address"
        }
      ],
      "name": "transferOwnership",
      "outputs": [],
      "stateMutability": "nonpayable",
      "type": "function"
    }
  ],
  "bytecode": "0x608060405234801561001057600080fd5b50604051610bd1380380610bd183398101604081905261002f916100af565b806100393361005f565b600180546001600160a01b0319166001600160a01b0392909216919091179055506100df565b600080546001600160a01b038381166001600160a01b0319831681178455604051919092169283917f8be0079c531659141344cd1fd0a4f28419497f9722a3daafe3b4186f6b6457e09190a35050565b6000602082840312156100c157600080fd5b81516001600160a01b03811681146100d857600080fd5b9392505050565b610ae3806100ee6000396000f3fe6080604052600436106100915760003560e01c80638da5cb5b116100595780638da5cb5b146101075780639c649fdf14610139578063a1a227fa1461014c578063c81739cd1461016c578063f2fde38b1461017f57600080fd5b8063063ce4e5146100965780630bcb4982146100bf578063547cad12146100d25780635ab7afc6146100f45780637cd2bffc146100f4575b600080fd5b6100a96100a4366004610602565b61019f565b6040516100b69190610698565b60405180910390f35b6100a96100cd3660046106c0565b6101df565b3480156100de57600080fd5b506100f26100ed366004610734565b610215565b005b6100a9610102366004610758565b6102d2565b34801561011357600080fd5b506000546001600160a01b03165b6040516001600160a01b0390911681526020016100b6565b6100a96101473660046107ef565b61030a565b34801561015857600080fd5b50600154610121906001600160a01b031681565b6100f261017a36600461083c565b610395565b34801561018b57600080fd5b506100f261019a366004610734565b6103d0565b6001546000906001600160a01b031633146101d55760405162461bcd60e51b81526004016101cc9061089f565b60405180910390fd5b9695505050505050565b6001546000906001600160a01b0316331461020c5760405162461bcd60e51b81526004016101cc9061089f565b95945050505050565b336102286000546001600160a01b031690565b6001600160a01b03161461027e5760405162461bcd60e51b815260206004820181905260248201527f4f776e61626c653a2063616c6c6572206973206e6f7420746865206f776e657260448201526064016101cc565b600180546001600160a01b0319166001600160a01b0383169081179091556040519081527f3f8223bcd8b3b875473e9f9e14e1ad075451a2b5ffd31591655da9a01516bf5e9060200160405180910390a150565b6001546000906001600160a01b031633146102ff5760405162461bcd60e51b81526004016101cc9061089f565b979650505050505050565b6001546000906001600160a01b031633146103375760405162461bcd60e51b81526004016101cc9061089f565b600080610346858701876108ec565b915091507f89e5332ec6ff132178f395753d055e19755ab6620d41de1c27e0a135a54f6d678888848460405161037f94939291906109fd565b60405180910390a1506001979650505050505050565b60003383836040516020016103ac93929190610a39565b60405160208183030381529060405290506103c9858583346104aa565b5050505050565b336103e36000546001600160a01b031690565b6001600160a01b0316146104395760405162461bcd60e51b815260206004820181905260248201527f4f776e61626c653a2063616c6c6572206973206e6f7420746865206f776e657260448201526064016101cc565b6001600160a01b03811661049e5760405162461bcd60e51b815260206004820152602660248201527f4f776e61626c653a206e6577206f776e657220697320746865207a65726f206160448201526564647265737360d01b60648201526084016101cc565b6104a7816104cc565b50565b6001546104c6908590859085906001600160a01b03168561051c565b50505050565b600080546001600160a01b038381166001600160a01b0319831681178455604051919092169283917f8be0079c531659141344cd1fd0a4f28419497f9722a3daafe3b4186f6b6457e09190a35050565b604051634f9e72ad60e11b81526001600160a01b03831690639f3ce55a90839061054e90899089908990600401610a79565b6000604051808303818588803b15801561056757600080fd5b505af115801561057b573d6000803e3d6000fd5b50505050505050505050565b60008083601f84011261059957600080fd5b50813567ffffffffffffffff8111156105b157600080fd5b6020830191508360208285010111156105c957600080fd5b9250929050565b803567ffffffffffffffff811681146105e857600080fd5b919050565b6001600160a01b03811681146104a757600080fd5b6000806000806000806080878903121561061b57600080fd5b863567ffffffffffffffff8082111561063357600080fd5b61063f8a838b01610587565b909850965086915061065360208a016105d0565b9550604089013591508082111561066957600080fd5b5061067689828a01610587565b909450925050606087013561068a816105ed565b809150509295509295509295565b60208101600383106106ba57634e487b7160e01b600052602160045260246000fd5b91905290565b6000806000806000608086880312156106d857600080fd5b85356106e3816105ed565b945060208601359350604086013567ffffffffffffffff81111561070657600080fd5b61071288828901610587565b9094509250506060860135610726816105ed565b809150509295509295909350565b60006020828403121561074657600080fd5b8135610751816105ed565b9392505050565b600080600080600080600060c0888a03121561077357600080fd5b873561077e816105ed565b9650602088013561078e816105ed565b9550604088013594506107a3606089016105d0565b9350608088013567ffffffffffffffff8111156107bf57600080fd5b6107cb8a828b01610587565b90945092505060a08801356107df816105ed565b8091505092959891949750929550565b60008060008060006080868803121561080757600080fd5b8535610812816105ed565b9450610820602087016105d0565b9350604086013567ffffffffffffffff81111561070657600080fd5b6000806000806060858703121561085257600080fd5b843561085d816105ed565b935061086b602086016105d0565b9250604085013567ffffffffffffffff81111561088757600080fd5b61089387828801610587565b95989497509550505050565b60208082526019908201527f63616c6c6572206973206e6f74206d6573736167652062757300000000000000604082015260600190565b634e487b7160e01b600052604160045260246000fd5b600080604083850312156108ff57600080fd5b823561090a816105ed565b9150602083013567ffffffffffffffff8082111561092757600080fd5b818501915085601f83011261093b57600080fd5b81358181111561094d5761094d6108d6565b604051601f8201601f19908116603f01168101908382118183101715610975576109756108d6565b8160405282815288602084870101111561098e57600080fd5b8260208601602083013760006020848301015280955050505050509250929050565b6000815180845260005b818110156109d6576020818501810151868301820152016109ba565b818111156109e8576000602083870101525b50601f01601f19169290920160200192915050565b6001600160a01b03858116825267ffffffffffffffff85166020830152831660408201526080606082018190526000906101d5908301846109b0565b6001600160a01b03841681526040602082018190528101829052818360608301376000818301606090810191909152601f909201601f1916010192915050565b6001600160a01b038416815267ffffffffffffffff8316602082015260606040820181905260009061020c908301846109b056fea264697066735822122054253399ed8a6fd5359232193989ab2762a196f399f3253041b2a1851b7e83bd64736f6c63430008090033",
  "linkReferences": {},
  "deployedLinkReferences": {}
}