{
  "_format": "hh-sol-artifact-1",
  "contractName": "OrigNFT",
  "sourceName": "contracts/cBridge/message/apps/nft-bridge/OrigNFT.sol",
  "abi": [
    {
      "inputs": [
        {
          "internalType": "string",
          "name": "name_",
          "type": "string"
        },
        {
          "internalType": "string",
          "name": "symbol_",
          "type": "string"
        }
      ],
      "stateMutability": "nonpayable",
      "type": "constructor"
    },
    {
      "anonymous": false,
      "inputs": [
        {
          "indexed": true,
          "internalType": "address",
          "name": "owner",
          "type": "address"
        },
        {
          "indexed": true,
          "internalType": "address",
          "name": "approved",
          "type": "address"
        },
        {
          "indexed": true,
          "internalType": "uint256",
          "name": "tokenId",
          "type": "uint256"
        }
      ],
      "name": "Approval",
      "type": "event"
    },
    {
      "anonymous": false,
      "inputs": [
        {
          "indexed": true,
          "internalType": "address",
          "name": "owner",
          "type": "address"
        },
        {
          "indexed": true,
          "internalType": "address",
          "name": "operator",
          "type": "address"
        },
        {
          "indexed": false,
          "internalType": "bool",
          "name": "approved",
          "type": "bool"
        }
      ],
      "name": "ApprovalForAll",
      "type": "event"
    },
    {
      "anonymous": false,
      "inputs": [
        {
          "indexed": true,
          "internalType": "address",
          "name": "previousOwner",
          "type": "address"
        },
        {
          "indexed": true,
          "internalType": "address",
          "name": "newOwner",
          "type": "address"
        }
      ],
      "name": "OwnershipTransferred",
      "type": "event"
    },
    {
      "anonymous": false,
      "inputs": [
        {
          "indexed": true,
          "internalType": "address",
          "name": "from",
          "type": "address"
        },
        {
          "indexed": true,
          "internalType": "address",
          "name": "to",
          "type": "address"
        },
        {
          "indexed": true,
          "internalType": "uint256",
          "name": "tokenId",
          "type": "uint256"
        }
      ],
      "name": "Transfer",
      "type": "event"
    },
    {
      "inputs": [
        {
          "internalType": "address",
          "name": "to",
          "type": "address"
        },
        {
          "internalType": "uint256",
          "name": "tokenId",
          "type": "uint256"
        }
      ],
      "name": "approve",
      "outputs": [],
      "stateMutability": "nonpayable",
      "type": "function"
    },
    {
      "inputs": [
        {
          "internalType": "address",
          "name": "owner",
          "type": "address"
        }
      ],
      "name": "balanceOf",
      "outputs": [
        {
          "internalType": "uint256",
          "name": "",
          "type": "uint256"
        }
      ],
      "stateMutability": "view",
      "type": "function"
    },
    {
      "inputs": [
        {
          "internalType": "uint256",
          "name": "tokenId",
          "type": "uint256"
        }
      ],
      "name": "getApproved",
      "outputs": [
        {
          "internalType": "address",
          "name": "",
          "type": "address"
        }
      ],
      "stateMutability": "view",
      "type": "function"
    },
    {
      "inputs": [
        {
          "internalType": "address",
          "name": "owner",
          "type": "address"
        },
        {
          "internalType": "address",
          "name": "operator",
          "type": "address"
        }
      ],
      "name": "isApprovedForAll",
      "outputs": [
        {
          "internalType": "bool",
          "name": "",
          "type": "bool"
        }
      ],
      "stateMutability": "view",
      "type": "function"
    },
    {
      "inputs": [
        {
          "internalType": "address",
          "name": "to",
          "type": "address"
        },
        {
          "internalType": "uint256",
          "name": "id",
          "type": "uint256"
        },
        {
          "internalType": "string",
          "name": "uri",
          "type": "string"
        }
      ],
      "name": "mint",
      "outputs": [],
      "stateMutability": "nonpayable",
      "type": "function"
    },
    {
      "inputs": [],
      "name": "name",
      "outputs": [
        {
          "internalType": "string",
          "name": "",
          "type": "string"
        }
      ],
      "stateMutability": "view",
      "type": "function"
    },
    {
      "inputs": [],
      "name": "owner",
      "outputs": [
        {
          "internalType": "address",
          "name": "",
          "type": "address"
        }
      ],
      "stateMutability": "view",
      "type": "function"
    },
    {
      "inputs": [
        {
          "internalType": "uint256",
          "name": "tokenId",
          "type": "uint256"
        }
      ],
      "name": "ownerOf",
      "outputs": [
        {
          "internalType": "address",
          "name": "",
          "type": "address"
        }
      ],
      "stateMutability": "view",
      "type": "function"
    },
    {
      "inputs": [
        {
          "internalType": "address",
          "name": "from",
          "type": "address"
        },
        {
          "internalType": "address",
          "name": "to",
          "type": "address"
        },
        {
          "internalType": "uint256",
          "name": "tokenId",
          "type": "uint256"
        }
      ],
      "name": "safeTransferFrom",
      "outputs": [],
      "stateMutability": "nonpayable",
      "type": "function"
    },
    {
      "inputs": [
        {
          "internalType": "address",
          "name": "from",
          "type": "address"
        },
        {
          "internalType": "address",
          "name": "to",
          "type": "address"
        },
        {
          "internalType": "uint256",
          "name": "tokenId",
          "type": "uint256"
        },
        {
          "internalType": "bytes",
          "name": "data",
          "type": "bytes"
        }
      ],
      "name": "safeTransferFrom",
      "outputs": [],
      "stateMutability": "nonpayable",
      "type": "function"
    },
    {
      "inputs": [
        {
          "internalType": "address",
          "name": "operator",
          "type": "address"
        },
        {
          "internalType": "bool",
          "name": "approved",
          "type": "bool"
        }
      ],
      "name": "setApprovalForAll",
      "outputs": [],
      "stateMutability": "nonpayable",
      "type": "function"
    },
    {
      "inputs": [
        {
          "internalType": "bytes4",
          "name": "interfaceId",
          "type": "bytes4"
        }
      ],
      "name": "supportsInterface",
      "outputs": [
        {
          "internalType": "bool",
          "name": "",
          "type": "bool"
        }
      ],
      "stateMutability": "view",
      "type": "function"
    },
    {
      "inputs": [],
      "name": "symbol",
      "outputs": [
        {
          "internalType": "string",
          "name": "",
          "type": "string"
        }
      ],
      "stateMutability": "view",
      "type": "function"
    },
    {
      "inputs": [
        {
          "internalType": "uint256",
          "name": "tokenId",
          "type": "uint256"
        }
      ],
      "name": "tokenURI",
      "outputs": [
        {
          "internalType": "string",
          "name": "",
          "type": "string"
        }
      ],
      "stateMutability": "view",
      "type": "function"
    },
    {
      "inputs": [
        {
          "internalType": "address",
          "name": "from",
          "type": "address"
        },
        {
          "internalType": "address",
          "name": "to",
          "type": "address"
        },
        {
          "internalType": "uint256",
          "name": "tokenId",
          "type": "uint256"
        }
      ],
      "name": "transferFrom",
      "outputs": [],
      "stateMutability": "nonpayable",
      "type": "function"
    },
    {
      "inputs": [
        {
          "internalType": "address",
          "name": "newOwner",
          "type": "address"
        }
      ],
      "name": "transferOwnership",
      "outputs": [],
      "stateMutability": "nonpayable",
      "type": "function"
    }
  ],
  "bytecode": "0x60806040523480156200001157600080fd5b5060405162001a5438038062001a54833981016040819052620000349162000244565b8151829082906200004d906000906020850190620000d1565b50805162000063906001906020840190620000d1565b50505062000077336200007f60201b60201c565b5050620002eb565b600780546001600160a01b038381166001600160a01b0319831681179093556040519116919082907f8be0079c531659141344cd1fd0a4f28419497f9722a3daafe3b4186f6b6457e090600090a35050565b828054620000df90620002ae565b90600052602060002090601f0160209004810192826200010357600085556200014e565b82601f106200011e57805160ff19168380011785556200014e565b828001600101855582156200014e579182015b828111156200014e57825182559160200191906001019062000131565b506200015c92915062000160565b5090565b5b808211156200015c576000815560010162000161565b634e487b7160e01b600052604160045260246000fd5b600082601f8301126200019f57600080fd5b81516001600160401b0380821115620001bc57620001bc62000177565b604051601f8301601f19908116603f01168101908282118183101715620001e757620001e762000177565b816040528381526020925086838588010111156200020457600080fd5b600091505b8382101562000228578582018301518183018401529082019062000209565b838211156200023a5760008385830101525b9695505050505050565b600080604083850312156200025857600080fd5b82516001600160401b03808211156200027057600080fd5b6200027e868387016200018d565b935060208501519150808211156200029557600080fd5b50620002a4858286016200018d565b9150509250929050565b600181811c90821680620002c357607f821691505b60208210811415620002e557634e487b7160e01b600052602260045260246000fd5b50919050565b61175980620002fb6000396000f3fe608060405234801561001057600080fd5b50600436106101005760003560e01c80638da5cb5b11610097578063c87b56dd11610066578063c87b56dd1461021b578063d3fc98641461022e578063e985e9c514610241578063f2fde38b1461027d57600080fd5b80638da5cb5b146101dc57806395d89b41146101ed578063a22cb465146101f5578063b88d4fde1461020857600080fd5b806323b872dd116100d357806323b872dd1461018257806342842e0e146101955780636352211e146101a857806370a08231146101bb57600080fd5b806301ffc9a71461010557806306fdde031461012d578063081812fc14610142578063095ea7b31461016d575b600080fd5b6101186101133660046111eb565b610290565b60405190151581526020015b60405180910390f35b6101356102e2565b6040516101249190611260565b610155610150366004611273565b610374565b6040516001600160a01b039091168152602001610124565b61018061017b3660046112a8565b61039b565b005b6101806101903660046112d2565b6104b6565b6101806101a33660046112d2565b6104e7565b6101556101b6366004611273565b610502565b6101ce6101c936600461130e565b610562565b604051908152602001610124565b6007546001600160a01b0316610155565b6101356105e8565b610180610203366004611329565b6105f7565b6101806102163660046113f1565b610606565b610135610229366004611273565b61063e565b61018061023c36600461146d565b61074f565b61011861024f3660046114d8565b6001600160a01b03918216600090815260056020908152604080832093909416825291909152205460ff1690565b61018061028b36600461130e565b6107cc565b60006001600160e01b031982166380ac58cd60e01b14806102c157506001600160e01b03198216635b5e139f60e01b145b806102dc57506301ffc9a760e01b6001600160e01b03198316145b92915050565b6060600080546102f19061150b565b80601f016020809104026020016040519081016040528092919081815260200182805461031d9061150b565b801561036a5780601f1061033f5761010080835404028352916020019161036a565b820191906000526020600020905b81548152906001019060200180831161034d57829003601f168201915b5050505050905090565b600061037f826108a6565b506000908152600460205260409020546001600160a01b031690565b60006103a682610502565b9050806001600160a01b0316836001600160a01b031614156104195760405162461bcd60e51b815260206004820152602160248201527f4552433732313a20617070726f76616c20746f2063757272656e74206f776e656044820152603960f91b60648201526084015b60405180910390fd5b336001600160a01b03821614806104355750610435813361024f565b6104a75760405162461bcd60e51b815260206004820152603e60248201527f4552433732313a20617070726f76652063616c6c6572206973206e6f7420746f60448201527f6b656e206f776e6572206e6f7220617070726f76656420666f7220616c6c00006064820152608401610410565b6104b18383610905565b505050565b6104c03382610973565b6104dc5760405162461bcd60e51b815260040161041090611546565b6104b18383836109f1565b6104b183838360405180602001604052806000815250610606565b6000818152600260205260408120546001600160a01b0316806102dc5760405162461bcd60e51b8152602060048201526018602482015277115490cdcc8c4e881a5b9d985b1a59081d1bdad95b88125160421b6044820152606401610410565b60006001600160a01b0382166105cc5760405162461bcd60e51b815260206004820152602960248201527f4552433732313a2061646472657373207a65726f206973206e6f7420612076616044820152683634b21037bbb732b960b91b6064820152608401610410565b506001600160a01b031660009081526003602052604090205490565b6060600180546102f19061150b565b610602338383610b8d565b5050565b6106103383610973565b61062c5760405162461bcd60e51b815260040161041090611546565b61063884848484610c5c565b50505050565b6060610649826108a6565b600082815260066020526040812080546106629061150b565b80601f016020809104026020016040519081016040528092919081815260200182805461068e9061150b565b80156106db5780601f106106b0576101008083540402835291602001916106db565b820191906000526020600020905b8154815290600101906020018083116106be57829003601f168201915b5050505050905060006106f960408051602081019091526000815290565b905080516000141561070c575092915050565b81511561073e578082604051602001610726929190611594565b60405160208183030381529060405292505050919050565b61074784610c8f565b949350505050565b336107626007546001600160a01b031690565b6001600160a01b0316146107b85760405162461bcd60e51b815260206004820181905260248201527f4f776e61626c653a2063616c6c6572206973206e6f7420746865206f776e65726044820152606401610410565b6107c28383610d03565b6104b18282610e45565b336107df6007546001600160a01b031690565b6001600160a01b0316146108355760405162461bcd60e51b815260206004820181905260248201527f4f776e61626c653a2063616c6c6572206973206e6f7420746865206f776e65726044820152606401610410565b6001600160a01b03811661089a5760405162461bcd60e51b815260206004820152602660248201527f4f776e61626c653a206e6577206f776e657220697320746865207a65726f206160448201526564647265737360d01b6064820152608401610410565b6108a381610edf565b50565b6000818152600260205260409020546001600160a01b03166108a35760405162461bcd60e51b8152602060048201526018602482015277115490cdcc8c4e881a5b9d985b1a59081d1bdad95b88125160421b6044820152606401610410565b600081815260046020526040902080546001600160a01b0319166001600160a01b038416908117909155819061093a82610502565b6001600160a01b03167f8c5be1e5ebec7d5bd14f71427d1e84f3dd0314c0f7b2291e5b200ac8c7c3b92560405160405180910390a45050565b60008061097f83610502565b9050806001600160a01b0316846001600160a01b031614806109c657506001600160a01b0380821660009081526005602090815260408083209388168352929052205460ff165b806107475750836001600160a01b03166109df84610374565b6001600160a01b031614949350505050565b826001600160a01b0316610a0482610502565b6001600160a01b031614610a685760405162461bcd60e51b815260206004820152602560248201527f4552433732313a207472616e736665722066726f6d20696e636f72726563742060448201526437bbb732b960d91b6064820152608401610410565b6001600160a01b038216610aca5760405162461bcd60e51b8152602060048201526024808201527f4552433732313a207472616e7366657220746f20746865207a65726f206164646044820152637265737360e01b6064820152608401610410565b610ad5600082610905565b6001600160a01b0383166000908152600360205260408120805460019290610afe9084906115d9565b90915550506001600160a01b0382166000908152600360205260408120805460019290610b2c9084906115f0565b909155505060008181526002602052604080822080546001600160a01b0319166001600160a01b0386811691821790925591518493918716917fddf252ad1be2c89b69c2b068fc378daa952ba7f163c4a11628f55a4df523b3ef91a4505050565b816001600160a01b0316836001600160a01b03161415610bef5760405162461bcd60e51b815260206004820152601960248201527f4552433732313a20617070726f766520746f2063616c6c6572000000000000006044820152606401610410565b6001600160a01b03838116600081815260056020908152604080832094871680845294825291829020805460ff191686151590811790915591519182527f17307eab39ab6107e8899845ad3d59bd9653f200f220920489ca2b5937696c31910160405180910390a3505050565b610c678484846109f1565b610c7384848484610f31565b6106385760405162461bcd60e51b815260040161041090611608565b6060610c9a826108a6565b6000610cb160408051602081019091526000815290565b90506000815111610cd15760405180602001604052806000815250610cfc565b80610cdb8461103e565b604051602001610cec929190611594565b6040516020818303038152906040525b9392505050565b6001600160a01b038216610d595760405162461bcd60e51b815260206004820181905260248201527f4552433732313a206d696e7420746f20746865207a65726f20616464726573736044820152606401610410565b6000818152600260205260409020546001600160a01b031615610dbe5760405162461bcd60e51b815260206004820152601c60248201527f4552433732313a20746f6b656e20616c7265616479206d696e746564000000006044820152606401610410565b6001600160a01b0382166000908152600360205260408120805460019290610de79084906115f0565b909155505060008181526002602052604080822080546001600160a01b0319166001600160a01b03861690811790915590518392907fddf252ad1be2c89b69c2b068fc378daa952ba7f163c4a11628f55a4df523b3ef908290a45050565b6000828152600260205260409020546001600160a01b0316610ec05760405162461bcd60e51b815260206004820152602e60248201527f45524337323155524953746f726167653a2055524920736574206f66206e6f6e60448201526d32bc34b9ba32b73a103a37b5b2b760911b6064820152608401610410565b600082815260066020908152604090912082516104b19284019061113c565b600780546001600160a01b038381166001600160a01b0319831681179093556040519116919082907f8be0079c531659141344cd1fd0a4f28419497f9722a3daafe3b4186f6b6457e090600090a35050565b60006001600160a01b0384163b1561103357604051630a85bd0160e11b81526001600160a01b0385169063150b7a0290610f7590339089908890889060040161165a565b602060405180830381600087803b158015610f8f57600080fd5b505af1925050508015610fbf575060408051601f3d908101601f19168201909252610fbc91810190611697565b60015b611019573d808015610fed576040519150601f19603f3d011682016040523d82523d6000602084013e610ff2565b606091505b5080516110115760405162461bcd60e51b815260040161041090611608565b805181602001fd5b6001600160e01b031916630a85bd0160e11b149050610747565b506001949350505050565b6060816110625750506040805180820190915260018152600360fc1b602082015290565b8160005b811561108c5780611076816116b4565b91506110859050600a836116e5565b9150611066565b60008167ffffffffffffffff8111156110a7576110a7611365565b6040519080825280601f01601f1916602001820160405280156110d1576020820181803683370190505b5090505b8415610747576110e66001836115d9565b91506110f3600a866116f9565b6110fe9060306115f0565b60f81b8183815181106111135761111361170d565b60200101906001600160f81b031916908160001a905350611135600a866116e5565b94506110d5565b8280546111489061150b565b90600052602060002090601f01602090048101928261116a57600085556111b0565b82601f1061118357805160ff19168380011785556111b0565b828001600101855582156111b0579182015b828111156111b0578251825591602001919060010190611195565b506111bc9291506111c0565b5090565b5b808211156111bc57600081556001016111c1565b6001600160e01b0319811681146108a357600080fd5b6000602082840312156111fd57600080fd5b8135610cfc816111d5565b60005b8381101561122357818101518382015260200161120b565b838111156106385750506000910152565b6000815180845261124c816020860160208601611208565b601f01601f19169290920160200192915050565b602081526000610cfc6020830184611234565b60006020828403121561128557600080fd5b5035919050565b80356001600160a01b03811681146112a357600080fd5b919050565b600080604083850312156112bb57600080fd5b6112c48361128c565b946020939093013593505050565b6000806000606084860312156112e757600080fd5b6112f08461128c565b92506112fe6020850161128c565b9150604084013590509250925092565b60006020828403121561132057600080fd5b610cfc8261128c565b6000806040838503121561133c57600080fd5b6113458361128c565b91506020830135801515811461135a57600080fd5b809150509250929050565b634e487b7160e01b600052604160045260246000fd5b600067ffffffffffffffff8084111561139657611396611365565b604051601f8501601f19908116603f011681019082821181831017156113be576113be611365565b816040528093508581528686860111156113d757600080fd5b858560208301376000602087830101525050509392505050565b6000806000806080858703121561140757600080fd5b6114108561128c565b935061141e6020860161128c565b925060408501359150606085013567ffffffffffffffff81111561144157600080fd5b8501601f8101871361145257600080fd5b6114618782356020840161137b565b91505092959194509250565b60008060006060848603121561148257600080fd5b61148b8461128c565b925060208401359150604084013567ffffffffffffffff8111156114ae57600080fd5b8401601f810186136114bf57600080fd5b6114ce8682356020840161137b565b9150509250925092565b600080604083850312156114eb57600080fd5b6114f48361128c565b91506115026020840161128c565b90509250929050565b600181811c9082168061151f57607f821691505b6020821081141561154057634e487b7160e01b600052602260045260246000fd5b50919050565b6020808252602e908201527f4552433732313a2063616c6c6572206973206e6f7420746f6b656e206f776e6560408201526d1c881b9bdc88185c1c1c9bdd995960921b606082015260800190565b600083516115a6818460208801611208565b8351908301906115ba818360208801611208565b01949350505050565b634e487b7160e01b600052601160045260246000fd5b6000828210156115eb576115eb6115c3565b500390565b60008219821115611603576116036115c3565b500190565b60208082526032908201527f4552433732313a207472616e7366657220746f206e6f6e20455243373231526560408201527131b2b4bb32b91034b6b83632b6b2b73a32b960711b606082015260800190565b6001600160a01b038581168252841660208201526040810183905260806060820181905260009061168d90830184611234565b9695505050505050565b6000602082840312156116a957600080fd5b8151610cfc816111d5565b60006000198214156116c8576116c86115c3565b5060010190565b634e487b7160e01b600052601260045260246000fd5b6000826116f4576116f46116cf565b500490565b600082611708576117086116cf565b500690565b634e487b7160e01b600052603260045260246000fdfea2646970667358221220318dedb935ed644eb6783557866969c6e0206c3ed6f940972ec9c92f87e834f264736f6c63430008090033",
  "linkReferences": {},
  "deployedLinkReferences": {}
}