{
  "_format": "hh-sol-artifact-1",
  "contractName": "OriginalTokenVault",
  "sourceName": "contracts/cBridge/pegged-bridge/OriginalTokenVault.sol",
  "abi": [
    {
      "inputs": [
        {
          "internalType": "contract ISigsVerifier",
          "name": "_sigsVerifier",
          "type": "address"
        }
      ],
      "stateMutability": "nonpayable",
      "type": "constructor"
    },
    {
      "anonymous": false,
      "inputs": [
        {
          "indexed": false,
          "internalType": "uint256",
          "name": "period",
          "type": "uint256"
        }
      ],
      "name": "DelayPeriodUpdated",
      "type": "event"
    },
    {
      "anonymous": false,
      "inputs": [
        {
          "indexed": false,
          "internalType": "address",
          "name": "token",
          "type": "address"
        },
        {
          "indexed": false,
          "internalType": "uint256",
          "name": "threshold",
          "type": "uint256"
        }
      ],
      "name": "DelayThresholdUpdated",
      "type": "event"
    },
    {
      "anonymous": false,
      "inputs": [
        {
          "indexed": false,
          "internalType": "bytes32",
          "name": "id",
          "type": "bytes32"
        }
      ],
      "name": "DelayedTransferAdded",
      "type": "event"
    },
    {
      "anonymous": false,
      "inputs": [
        {
          "indexed": false,
          "internalType": "bytes32",
          "name": "id",
          "type": "bytes32"
        },
        {
          "indexed": false,
          "internalType": "address",
          "name": "receiver",
          "type": "address"
        },
        {
          "indexed": false,
          "internalType": "address",
          "name": "token",
          "type": "address"
        },
        {
          "indexed": false,
          "internalType": "uint256",
          "name": "amount",
          "type": "uint256"
        }
      ],
      "name": "DelayedTransferExecuted",
      "type": "event"
    },
    {
      "anonymous": false,
      "inputs": [
        {
          "indexed": false,
          "internalType": "bytes32",
          "name": "depositId",
          "type": "bytes32"
        },
        {
          "indexed": false,
          "internalType": "address",
          "name": "depositor",
          "type": "address"
        },
        {
          "indexed": false,
          "internalType": "address",
          "name": "token",
          "type": "address"
        },
        {
          "indexed": false,
          "internalType": "uint256",
          "name": "amount",
          "type": "uint256"
        },
        {
          "indexed": false,
          "internalType": "uint64",
          "name": "mintChainId",
          "type": "uint64"
        },
        {
          "indexed": false,
          "internalType": "address",
          "name": "mintAccount",
          "type": "address"
        }
      ],
      "name": "Deposited",
      "type": "event"
    },
    {
      "anonymous": false,
      "inputs": [
        {
          "indexed": false,
          "internalType": "uint256",
          "name": "length",
          "type": "uint256"
        }
      ],
      "name": "EpochLengthUpdated",
      "type": "event"
    },
    {
      "anonymous": false,
      "inputs": [
        {
          "indexed": false,
          "internalType": "address",
          "name": "token",
          "type": "address"
        },
        {
          "indexed": false,
          "internalType": "uint256",
          "name": "cap",
          "type": "uint256"
        }
      ],
      "name": "EpochVolumeUpdated",
      "type": "event"
    },
    {
      "anonymous": false,
      "inputs": [
        {
          "indexed": false,
          "internalType": "address",
          "name": "account",
          "type": "address"
        }
      ],
      "name": "GovernorAdded",
      "type": "event"
    },
    {
      "anonymous": false,
      "inputs": [
        {
          "indexed": false,
          "internalType": "address",
          "name": "account",
          "type": "address"
        }
      ],
      "name": "GovernorRemoved",
      "type": "event"
    },
    {
      "anonymous": false,
      "inputs": [
        {
          "indexed": false,
          "internalType": "address",
          "name": "token",
          "type": "address"
        },
        {
          "indexed": false,
          "internalType": "uint256",
          "name": "amount",
          "type": "uint256"
        }
      ],
      "name": "MaxDepositUpdated",
      "type": "event"
    },
    {
      "anonymous": false,
      "inputs": [
        {
          "indexed": false,
          "internalType": "address",
          "name": "token",
          "type": "address"
        },
        {
          "indexed": false,
          "internalType": "uint256",
          "name": "amount",
          "type": "uint256"
        }
      ],
      "name": "MinDepositUpdated",
      "type": "event"
    },
    {
      "anonymous": false,
      "inputs": [
        {
          "indexed": true,
          "internalType": "address",
          "name": "previousOwner",
          "type": "address"
        },
        {
          "indexed": true,
          "internalType": "address",
          "name": "newOwner",
          "type": "address"
        }
      ],
      "name": "OwnershipTransferred",
      "type": "event"
    },
    {
      "anonymous": false,
      "inputs": [
        {
          "indexed": false,
          "internalType": "address",
          "name": "account",
          "type": "address"
        }
      ],
      "name": "Paused",
      "type": "event"
    },
    {
      "anonymous": false,
      "inputs": [
        {
          "indexed": false,
          "internalType": "address",
          "name": "account",
          "type": "address"
        }
      ],
      "name": "PauserAdded",
      "type": "event"
    },
    {
      "anonymous": false,
      "inputs": [
        {
          "indexed": false,
          "internalType": "address",
          "name": "account",
          "type": "address"
        }
      ],
      "name": "PauserRemoved",
      "type": "event"
    },
    {
      "anonymous": false,
      "inputs": [
        {
          "indexed": false,
          "internalType": "address",
          "name": "account",
          "type": "address"
        }
      ],
      "name": "Unpaused",
      "type": "event"
    },
    {
      "anonymous": false,
      "inputs": [
        {
          "indexed": false,
          "internalType": "bytes32",
          "name": "withdrawId",
          "type": "bytes32"
        },
        {
          "indexed": false,
          "internalType": "address",
          "name": "receiver",
          "type": "address"
        },
        {
          "indexed": false,
          "internalType": "address",
          "name": "token",
          "type": "address"
        },
        {
          "indexed": false,
          "internalType": "uint256",
          "name": "amount",
          "type": "uint256"
        },
        {
          "indexed": false,
          "internalType": "uint64",
          "name": "refChainId",
          "type": "uint64"
        },
        {
          "indexed": false,
          "internalType": "bytes32",
          "name": "refId",
          "type": "bytes32"
        },
        {
          "indexed": false,
          "internalType": "address",
          "name": "burnAccount",
          "type": "address"
        }
      ],
      "name": "Withdrawn",
      "type": "event"
    },
    {
      "inputs": [
        {
          "internalType": "address",
          "name": "_account",
          "type": "address"
        }
      ],
      "name": "addGovernor",
      "outputs": [],
      "stateMutability": "nonpayable",
      "type": "function"
    },
    {
      "inputs": [
        {
          "internalType": "address",
          "name": "account",
          "type": "address"
        }
      ],
      "name": "addPauser",
      "outputs": [],
      "stateMutability": "nonpayable",
      "type": "function"
    },
    {
      "inputs": [],
      "name": "delayPeriod",
      "outputs": [
        {
          "internalType": "uint256",
          "name": "",
          "type": "uint256"
        }
      ],
      "stateMutability": "view",
      "type": "function"
    },
    {
      "inputs": [
        {
          "internalType": "address",
          "name": "",
          "type": "address"
        }
      ],
      "name": "delayThresholds",
      "outputs": [
        {
          "internalType": "uint256",
          "name": "",
          "type": "uint256"
        }
      ],
      "stateMutability": "view",
      "type": "function"
    },
    {
      "inputs": [
        {
          "internalType": "bytes32",
          "name": "",
          "type": "bytes32"
        }
      ],
      "name": "delayedTransfers",
      "outputs": [
        {
          "internalType": "address",
          "name": "receiver",
          "type": "address"
        },
        {
          "internalType": "address",
          "name": "token",
          "type": "address"
        },
        {
          "internalType": "uint256",
          "name": "amount",
          "type": "uint256"
        },
        {
          "internalType": "uint256",
          "name": "timestamp",
          "type": "uint256"
        }
      ],
      "stateMutability": "view",
      "type": "function"
    },
    {
      "inputs": [
        {
          "internalType": "address",
          "name": "_token",
          "type": "address"
        },
        {
          "internalType": "uint256",
          "name": "_amount",
          "type": "uint256"
        },
        {
          "internalType": "uint64",
          "name": "_mintChainId",
          "type": "uint64"
        },
        {
          "internalType": "address",
          "name": "_mintAccount",
          "type": "address"
        },
        {
          "internalType": "uint64",
          "name": "_nonce",
          "type": "uint64"
        }
      ],
      "name": "deposit",
      "outputs": [],
      "stateMutability": "nonpayable",
      "type": "function"
    },
    {
      "inputs": [
        {
          "internalType": "uint256",
          "name": "_amount",
          "type": "uint256"
        },
        {
          "internalType": "uint64",
          "name": "_mintChainId",
          "type": "uint64"
        },
        {
          "internalType": "address",
          "name": "_mintAccount",
          "type": "address"
        },
        {
          "internalType": "uint64",
          "name": "_nonce",
          "type": "uint64"
        }
      ],
      "name": "depositNative",
      "outputs": [],
      "stateMutability": "payable",
      "type": "function"
    },
    {
      "inputs": [],
      "name": "epochLength",
      "outputs": [
        {
          "internalType": "uint256",
          "name": "",
          "type": "uint256"
        }
      ],
      "stateMutability": "view",
      "type": "function"
    },
    {
      "inputs": [
        {
          "internalType": "address",
          "name": "",
          "type": "address"
        }
      ],
      "name": "epochVolumeCaps",
      "outputs": [
        {
          "internalType": "uint256",
          "name": "",
          "type": "uint256"
        }
      ],
      "stateMutability": "view",
      "type": "function"
    },
    {
      "inputs": [
        {
          "internalType": "address",
          "name": "",
          "type": "address"
        }
      ],
      "name": "epochVolumes",
      "outputs": [
        {
          "internalType": "uint256",
          "name": "",
          "type": "uint256"
        }
      ],
      "stateMutability": "view",
      "type": "function"
    },
    {
      "inputs": [
        {
          "internalType": "bytes32",
          "name": "id",
          "type": "bytes32"
        }
      ],
      "name": "executeDelayedTransfer",
      "outputs": [],
      "stateMutability": "nonpayable",
      "type": "function"
    },
    {
      "inputs": [
        {
          "internalType": "address",
          "name": "",
          "type": "address"
        }
      ],
      "name": "governors",
      "outputs": [
        {
          "internalType": "bool",
          "name": "",
          "type": "bool"
        }
      ],
      "stateMutability": "view",
      "type": "function"
    },
    {
      "inputs": [
        {
          "internalType": "address",
          "name": "_account",
          "type": "address"
        }
      ],
      "name": "isGovernor",
      "outputs": [
        {
          "internalType": "bool",
          "name": "",
          "type": "bool"
        }
      ],
      "stateMutability": "view",
      "type": "function"
    },
    {
      "inputs": [
        {
          "internalType": "address",
          "name": "account",
          "type": "address"
        }
      ],
      "name": "isPauser",
      "outputs": [
        {
          "internalType": "bool",
          "name": "",
          "type": "bool"
        }
      ],
      "stateMutability": "view",
      "type": "function"
    },
    {
      "inputs": [
        {
          "internalType": "address",
          "name": "",
          "type": "address"
        }
      ],
      "name": "lastOpTimestamps",
      "outputs": [
        {
          "internalType": "uint256",
          "name": "",
          "type": "uint256"
        }
      ],
      "stateMutability": "view",
      "type": "function"
    },
    {
      "inputs": [
        {
          "internalType": "address",
          "name": "",
          "type": "address"
        }
      ],
      "name": "maxDeposit",
      "outputs": [
        {
          "internalType": "uint256",
          "name": "",
          "type": "uint256"
        }
      ],
      "stateMutability": "view",
      "type": "function"
    },
    {
      "inputs": [
        {
          "internalType": "address",
          "name": "",
          "type": "address"
        }
      ],
      "name": "minDeposit",
      "outputs": [
        {
          "internalType": "uint256",
          "name": "",
          "type": "uint256"
        }
      ],
      "stateMutability": "view",
      "type": "function"
    },
    {
      "inputs": [],
      "name": "nativeWrap",
      "outputs": [
        {
          "internalType": "address",
          "name": "",
          "type": "address"
        }
      ],
      "stateMutability": "view",
      "type": "function"
    },
    {
      "inputs": [],
      "name": "owner",
      "outputs": [
        {
          "internalType": "address",
          "name": "",
          "type": "address"
        }
      ],
      "stateMutability": "view",
      "type": "function"
    },
    {
      "inputs": [],
      "name": "pause",
      "outputs": [],
      "stateMutability": "nonpayable",
      "type": "function"
    },
    {
      "inputs": [],
      "name": "paused",
      "outputs": [
        {
          "internalType": "bool",
          "name": "",
          "type": "bool"
        }
      ],
      "stateMutability": "view",
      "type": "function"
    },
    {
      "inputs": [
        {
          "internalType": "address",
          "name": "",
          "type": "address"
        }
      ],
      "name": "pausers",
      "outputs": [
        {
          "internalType": "bool",
          "name": "",
          "type": "bool"
        }
      ],
      "stateMutability": "view",
      "type": "function"
    },
    {
      "inputs": [
        {
          "internalType": "bytes32",
          "name": "",
          "type": "bytes32"
        }
      ],
      "name": "records",
      "outputs": [
        {
          "internalType": "bool",
          "name": "",
          "type": "bool"
        }
      ],
      "stateMutability": "view",
      "type": "function"
    },
    {
      "inputs": [
        {
          "internalType": "address",
          "name": "_account",
          "type": "address"
        }
      ],
      "name": "removeGovernor",
      "outputs": [],
      "stateMutability": "nonpayable",
      "type": "function"
    },
    {
      "inputs": [
        {
          "internalType": "address",
          "name": "account",
          "type": "address"
        }
      ],
      "name": "removePauser",
      "outputs": [],
      "stateMutability": "nonpayable",
      "type": "function"
    },
    {
      "inputs": [],
      "name": "renounceGovernor",
      "outputs": [],
      "stateMutability": "nonpayable",
      "type": "function"
    },
    {
      "inputs": [],
      "name": "renouncePauser",
      "outputs": [],
      "stateMutability": "nonpayable",
      "type": "function"
    },
    {
      "inputs": [
        {
          "internalType": "uint256",
          "name": "_period",
          "type": "uint256"
        }
      ],
      "name": "setDelayPeriod",
      "outputs": [],
      "stateMutability": "nonpayable",
      "type": "function"
    },
    {
      "inputs": [
        {
          "internalType": "address[]",
          "name": "_tokens",
          "type": "address[]"
        },
        {
          "internalType": "uint256[]",
          "name": "_thresholds",
          "type": "uint256[]"
        }
      ],
      "name": "setDelayThresholds",
      "outputs": [],
      "stateMutability": "nonpayable",
      "type": "function"
    },
    {
      "inputs": [
        {
          "internalType": "uint256",
          "name": "_length",
          "type": "uint256"
        }
      ],
      "name": "setEpochLength",
      "outputs": [],
      "stateMutability": "nonpayable",
      "type": "function"
    },
    {
      "inputs": [
        {
          "internalType": "address[]",
          "name": "_tokens",
          "type": "address[]"
        },
        {
          "internalType": "uint256[]",
          "name": "_caps",
          "type": "uint256[]"
        }
      ],
      "name": "setEpochVolumeCaps",
      "outputs": [],
      "stateMutability": "nonpayable",
      "type": "function"
    },
    {
      "inputs": [
        {
          "internalType": "address[]",
          "name": "_tokens",
          "type": "address[]"
        },
        {
          "internalType": "uint256[]",
          "name": "_amounts",
          "type": "uint256[]"
        }
      ],
      "name": "setMaxDeposit",
      "outputs": [],
      "stateMutability": "nonpayable",
      "type": "function"
    },
    {
      "inputs": [
        {
          "internalType": "address[]",
          "name": "_tokens",
          "type": "address[]"
        },
        {
          "internalType": "uint256[]",
          "name": "_amounts",
          "type": "uint256[]"
        }
      ],
      "name": "setMinDeposit",
      "outputs": [],
      "stateMutability": "nonpayable",
      "type": "function"
    },
    {
      "inputs": [
        {
          "internalType": "address",
          "name": "_weth",
          "type": "address"
        }
      ],
      "name": "setWrap",
      "outputs": [],
      "stateMutability": "nonpayable",
      "type": "function"
    },
    {
      "inputs": [],
      "name": "sigsVerifier",
      "outputs": [
        {
          "internalType": "contract ISigsVerifier",
          "name": "",
          "type": "address"
        }
      ],
      "stateMutability": "view",
      "type": "function"
    },
    {
      "inputs": [
        {
          "internalType": "address",
          "name": "newOwner",
          "type": "address"
        }
      ],
      "name": "transferOwnership",
      "outputs": [],
      "stateMutability": "nonpayable",
      "type": "function"
    },
    {
      "inputs": [],
      "name": "unpause",
      "outputs": [],
      "stateMutability": "nonpayable",
      "type": "function"
    },
    {
      "inputs": [
        {
          "internalType": "bytes",
          "name": "_request",
          "type": "bytes"
        },
        {
          "internalType": "bytes[]",
          "name": "_sigs",
          "type": "bytes[]"
        },
        {
          "internalType": "address[]",
          "name": "_signers",
          "type": "address[]"
        },
        {
          "internalType": "uint256[]",
          "name": "_powers",
          "type": "uint256[]"
        }
      ],
      "name": "withdraw",
      "outputs": [],
      "stateMutability": "nonpayable",
      "type": "function"
    },
    {
      "stateMutability": "payable",
      "type": "receive"
    }
  ],
  "bytecode": "0x60a06040523480156200001157600080fd5b506040516200320e3803806200320e833981016040819052620000349162000255565b6001600055620000443362000079565b6001805460ff60a01b191690556200005c33620000cb565b620000673362000195565b6001600160a01b031660805262000287565b600180546001600160a01b038381166001600160a01b0319831681179093556040519116919082907f8be0079c531659141344cd1fd0a4f28419497f9722a3daafe3b4186f6b6457e090600090a35050565b6001600160a01b03811660009081526002602052604090205460ff16156200013a5760405162461bcd60e51b815260206004820152601960248201527f4163636f756e7420697320616c7265616479207061757365720000000000000060448201526064015b60405180910390fd5b6001600160a01b038116600081815260026020908152604091829020805460ff1916600117905590519182527f6719d08c1888103bea251a4ed56406bd0c3e69723c8a1686e017e7bbe159b6f891015b60405180910390a150565b6001600160a01b03811660009081526003602052604090205460ff1615620002005760405162461bcd60e51b815260206004820152601b60248201527f4163636f756e7420697320616c726561647920676f7665726e6f720000000000604482015260640162000131565b6001600160a01b038116600081815260036020908152604091829020805460ff1916600117905590519182527fdc5a48d79e2e147530ff63ecdbed5a5a66adb9d5cf339384d5d076da197c40b591016200018a565b6000602082840312156200026857600080fd5b81516001600160a01b03811681146200028057600080fd5b9392505050565b608051612f64620002aa600039600081816106d901526112c20152612f646000f3fe6080604052600436106102285760003560e01c80636b2c0f5511610123578063adc0d57f116100ab578063e3eece261161006f578063e3eece2614610710578063e43581b814610740578063eecdac8814610760578063f2fde38b14610780578063f8321383146107a057600080fd5b8063adc0d57f1461060a578063b1c94d9414610684578063b5f2bc471461069a578063ccf2683b146106c7578063e026049c146106fb57600080fd5b80638456cb59116100f25780638456cb59146105775780638da5cb5b1461058c5780639e25fc5c146105aa5780639ff9001a146105ca578063a21a9280146105ea57600080fd5b80636b2c0f55146104f25780636ef8d66d1461051257806380f51c121461052757806382dc1ec41461055757600080fd5b8063402d267d116101b157806354eea7961161017557806354eea7961461045057806357d775f8146104705780635c975abb146104865780635ec2fa26146104a557806360216b00146104c557600080fd5b8063402d267d1461037e578063457bfa2f146103ab57806346fbf68e146103e357806347b16c6c1461040357806352532faa1461042357600080fd5b8063303b6442116101f8578063303b6442146102ce5780633c29f839146102ee5780633c4a25d0146103295780633d572107146103495780633f4ba83a1461036957600080fd5b8062a95fd71461023457806301e647251461024957806317bdbae51461028e57806323463624146102ae57600080fd5b3661022f57005b600080fd5b6102476102423660046128b0565b6107cd565b005b34801561025557600080fd5b506102796102643660046128fd565b600b6020526000908152604090205460ff1681565b60405190151581526020015b60405180910390f35b34801561029a57600080fd5b506102476102a9366004612962565b6109a1565b3480156102ba57600080fd5b506102476102c93660046129ce565b610aea565b3480156102da57600080fd5b506102476102e9366004612962565b610bbe565b3480156102fa57600080fd5b5061031b610309366004612a2c565b600c6020526000908152604090205481565b604051908152602001610285565b34801561033557600080fd5b50610247610344366004612a2c565b610d00565b34801561035557600080fd5b506102476103643660046128fd565b610d45565b34801561037557600080fd5b50610247610da6565b34801561038a57600080fd5b5061031b610399366004612a2c565b600d6020526000908152604090205481565b3480156103b757600080fd5b50600e546103cb906001600160a01b031681565b6040516001600160a01b039091168152602001610285565b3480156103ef57600080fd5b506102796103fe366004612a2c565b610dfc565b34801561040f57600080fd5b5061024761041e366004612962565b610e1a565b34801561042f57600080fd5b5061031b61043e366004612a2c565b60096020526000908152604090205481565b34801561045c57600080fd5b5061024761046b3660046128fd565b610f5c565b34801561047c57600080fd5b5061031b60045481565b34801561049257600080fd5b50600154600160a01b900460ff16610279565b3480156104b157600080fd5b506102476104c0366004612962565b610fb6565b3480156104d157600080fd5b5061031b6104e0366004612a2c565b60056020526000908152604090205481565b3480156104fe57600080fd5b5061024761050d366004612a2c565b6110f8565b34801561051e57600080fd5b5061024761113a565b34801561053357600080fd5b50610279610542366004612a2c565b60026020526000908152604090205460ff1681565b34801561056357600080fd5b50610247610572366004612a2c565b611143565b34801561058357600080fd5b50610247611185565b34801561059857600080fd5b506001546001600160a01b03166103cb565b3480156105b657600080fd5b506102476105c53660046128fd565b6111d9565b3480156105d657600080fd5b506102476105e5366004612a2c565b611209565b3480156105f657600080fd5b50610247610605366004612a47565b611264565b34801561061657600080fd5b506106596106253660046128fd565b60086020526000908152604090208054600182015460028301546003909301546001600160a01b0392831693919092169184565b604080516001600160a01b039586168152949093166020850152918301526060820152608001610285565b34801561069057600080fd5b5061031b600a5481565b3480156106a657600080fd5b5061031b6106b5366004612a2c565b60066020526000908152604090205481565b3480156106d357600080fd5b506103cb7f000000000000000000000000000000000000000000000000000000000000000081565b34801561070757600080fd5b506102476115ab565b34801561071c57600080fd5b5061027961072b366004612a2c565b60036020526000908152604090205460ff1681565b34801561074c57600080fd5b5061027961075b366004612a2c565b6115b4565b34801561076c57600080fd5b5061024761077b366004612a2c565b6115d2565b34801561078c57600080fd5b5061024761079b366004612a2c565b611614565b3480156107ac57600080fd5b5061031b6107bb366004612a2c565b60076020526000908152604090205481565b600260005414156108255760405162461bcd60e51b815260206004820152601f60248201527f5265656e7472616e637947756172643a207265656e7472616e742063616c6c0060448201526064015b60405180910390fd5b60026000556108326116bb565b8334146108735760405162461bcd60e51b815260206004820152600f60248201526e082dadeeadce840dad2e6dac2e8c6d608b1b604482015260640161081c565b600e546001600160a01b03166108c15760405162461bcd60e51b815260206004820152601360248201527213985d1a5d99481ddc985c081b9bdd081cd95d606a1b604482015260640161081c565b600e546000906108dd906001600160a01b031686868686611708565b9050600e60009054906101000a90046001600160a01b03166001600160a01b031663d0e30db0866040518263ffffffff1660e01b81526004016000604051808303818588803b15801561092f57600080fd5b505af1158015610943573d6000803e3d6000fd5b5050600e546040517f15d2eeefbe4963b5b2178f239ddcc730dda55f1c23c22efb79ded0eb854ac789945061098d935085925033916001600160a01b0316908a908a908a90612b36565b60405180910390a150506001600055505050565b6109aa336115b4565b6109c65760405162461bcd60e51b815260040161081c90612b74565b8281146109e55760405162461bcd60e51b815260040161081c90612ba4565b60005b83811015610ae357828282818110610a0257610a02612bcd565b9050602002013560096000878785818110610a1f57610a1f612bcd565b9050602002016020810190610a349190612a2c565b6001600160a01b031681526020810191909152604001600020557fceaad6533bfb481492fb3e08ef19297f46611b8fa9de5ef4cf8dc23a56ad09ce858583818110610a8157610a81612bcd565b9050602002016020810190610a969190612a2c565b848484818110610aa857610aa8612bcd565b604080516001600160a01b0390951685526020918202939093013590840152500160405180910390a180610adb81612bf9565b9150506109e8565b5050505050565b60026000541415610b3d5760405162461bcd60e51b815260206004820152601f60248201527f5265656e7472616e637947756172643a207265656e7472616e742063616c6c00604482015260640161081c565b6002600055610b4a6116bb565b6000610b598686868686611708565b9050610b706001600160a01b0387163330886118ce565b7f15d2eeefbe4963b5b2178f239ddcc730dda55f1c23c22efb79ded0eb854ac789813388888888604051610ba996959493929190612b36565b60405180910390a15050600160005550505050565b610bc7336115b4565b610be35760405162461bcd60e51b815260040161081c90612b74565b828114610c025760405162461bcd60e51b815260040161081c90612ba4565b60005b83811015610ae357828282818110610c1f57610c1f612bcd565b90506020020135600d6000878785818110610c3c57610c3c612bcd565b9050602002016020810190610c519190612a2c565b6001600160a01b031681526020810191909152604001600020557f0e5d348f9737ccc8b4cf0eea0ccf3670af071af8bea5d64664f10e700c08de72858583818110610c9e57610c9e612bcd565b9050602002016020810190610cb39190612a2c565b848484818110610cc557610cc5612bcd565b604080516001600160a01b0390951685526020918202939093013590840152500160405180910390a180610cf881612bf9565b915050610c05565b33610d136001546001600160a01b031690565b6001600160a01b031614610d395760405162461bcd60e51b815260040161081c90612c14565b610d428161193f565b50565b610d4e336115b4565b610d6a5760405162461bcd60e51b815260040161081c90612b74565b600a8190556040518181527fc0a39f234199b125fb93713c4d067bdcebbf691087f87b79c0feb92b156ba8b6906020015b60405180910390a150565b610daf33610dfc565b610df25760405162461bcd60e51b815260206004820152601460248201527321b0b63632b91034b9903737ba103830bab9b2b960611b604482015260640161081c565b610dfa6119e9565b565b6001600160a01b031660009081526002602052604090205460ff1690565b610e23336115b4565b610e3f5760405162461bcd60e51b815260040161081c90612b74565b828114610e5e5760405162461bcd60e51b815260040161081c90612ba4565b60005b83811015610ae357828282818110610e7b57610e7b612bcd565b9050602002013560066000878785818110610e9857610e98612bcd565b9050602002016020810190610ead9190612a2c565b6001600160a01b031681526020810191909152604001600020557f608e49c22994f20b5d3496dca088b88dfd81b4a3e8cc3809ea1e10a320107e89858583818110610efa57610efa612bcd565b9050602002016020810190610f0f9190612a2c565b848484818110610f2157610f21612bcd565b604080516001600160a01b0390951685526020918202939093013590840152500160405180910390a180610f5481612bf9565b915050610e61565b610f65336115b4565b610f815760405162461bcd60e51b815260040161081c90612b74565b60048190556040518181527f2664fec2ff76486ac58ed087310855b648b15b9d19f3de8529e95f7c46b7d6b390602001610d9b565b610fbf336115b4565b610fdb5760405162461bcd60e51b815260040161081c90612b74565b828114610ffa5760405162461bcd60e51b815260040161081c90612ba4565b60005b83811015610ae35782828281811061101757611017612bcd565b90506020020135600c600087878581811061103457611034612bcd565b90506020020160208101906110499190612a2c565b6001600160a01b031681526020810191909152604001600020557f0f48d517989455cd80ed52427e80553e66f9b69fd5cee8e26bd1a1f9c364fba685858381811061109657611096612bcd565b90506020020160208101906110ab9190612a2c565b8484848181106110bd576110bd612bcd565b604080516001600160a01b0390951685526020918202939093013590840152500160405180910390a1806110f081612bf9565b915050610ffd565b3361110b6001546001600160a01b031690565b6001600160a01b0316146111315760405162461bcd60e51b815260040161081c90612c14565b610d4281611a3e565b610dfa33611a3e565b336111566001546001600160a01b031690565b6001600160a01b03161461117c5760405162461bcd60e51b815260040161081c90612c14565b610d4281611adc565b61118e33610dfc565b6111d15760405162461bcd60e51b815260206004820152601460248201527321b0b63632b91034b9903737ba103830bab9b2b960611b604482015260640161081c565b610dfa611b86565b6111e16116bb565b60006111ec82611bc9565b9050611205816000015182602001518360400151611d8e565b5050565b3361121c6001546001600160a01b031690565b6001600160a01b0316146112425760405162461bcd60e51b815260040161081c90612c14565b600e80546001600160a01b0319166001600160a01b0392909216919091179055565b61126c6116bb565b600046306040516020016112a892919091825260601b6001600160601b031916602082015267576974686472617760c01b6034820152603c0190565b6040516020818303038152906040528051906020012090507f00000000000000000000000000000000000000000000000000000000000000006001600160a01b031663682dbc22828b8b60405160200161130493929190612c49565b6040516020818303038152906040528989898989896040518863ffffffff1660e01b815260040161133b9796959493929190612d61565b60006040518083038186803b15801561135357600080fd5b505afa158015611367573d6000803e3d6000fd5b5050505060006113ac8a8a8080601f016020809104026020016040519081016040528093929190818152602001838380828437600092019190915250611ec392505050565b6020818101518251604080850151606080870151608088015160a0890151855197841b6001600160601b0319908116898b015296841b871660348901526048880194909452911b909316606885015260c09290921b6001600160c01b031916607c8401526084808401929092528051808403909201825260a490920182528051908301206000818152600b9093529120549192509060ff16156114815760405162461bcd60e51b815260206004820152600d60248201526c7265636f72642065786973747360981b604482015260640161081c565b6000818152600b602052604090819020805460ff191660011790558251908301516114ac9190612025565b81516001600160a01b031660009081526009602052604090205480158015906114d85750808360400151115b156114fa576114f582846020015185600001518660400151612132565b611511565b611511836020015184600001518560400151611d8e565b602080840151845160408087015160808089015160a0808b01516060808d015187518d81526001600160a01b039a8b169b81019b909b52978916968a01969096529488019390935267ffffffffffffffff16908601528401521660c08201527f296a629c5265cb4e5319803d016902eb70a9079b89655fe2b7737821ed88beeb9060e00160405180910390a1505050505050505050505050565b610dfa33612245565b6001600160a01b031660009081526003602052604090205460ff1690565b336115e56001546001600160a01b031690565b6001600160a01b03161461160b5760405162461bcd60e51b815260040161081c90612c14565b610d4281612245565b336116276001546001600160a01b031690565b6001600160a01b03161461164d5760405162461bcd60e51b815260040161081c90612c14565b6001600160a01b0381166116b25760405162461bcd60e51b815260206004820152602660248201527f4f776e61626c653a206e6577206f776e657220697320746865207a65726f206160448201526564647265737360d01b606482015260840161081c565b610d42816122eb565b600154600160a01b900460ff1615610dfa5760405162461bcd60e51b815260206004820152601060248201526f14185d5cd8589b194e881c185d5cd95960821b604482015260640161081c565b6001600160a01b0385166000908152600c602052604081205485116117625760405162461bcd60e51b815260206004820152601060248201526f185b5bdd5b9d081d1bdbc81cdb585b1b60821b604482015260640161081c565b6001600160a01b0386166000908152600d6020526040902054158061179f57506001600160a01b0386166000908152600d60205260409020548511155b6117de5760405162461bcd60e51b815260206004820152601060248201526f616d6f756e7420746f6f206c6172676560801b604482015260640161081c565b6040516001600160601b031933606090811b8216602084015288811b82166034840152604883018890526001600160c01b031960c088811b821660688601529187901b909216607084015284811b8216608484015246901b16608c82015260009060940160408051601f1981840301815291815281516020928301206000818152600b90935291205490915060ff16156118aa5760405162461bcd60e51b815260206004820152600d60248201526c7265636f72642065786973747360981b604482015260640161081c565b6000818152600b60205260409020805460ff19166001179055905095945050505050565b6040516001600160a01b03808516602483015283166044820152606481018290526119399085906323b872dd60e01b906084015b60408051601f198184030181529190526020810180516001600160e01b03166001600160e01b03199093169290921790915261233d565b50505050565b611948816115b4565b156119955760405162461bcd60e51b815260206004820152601b60248201527f4163636f756e7420697320616c726561647920676f7665726e6f720000000000604482015260640161081c565b6001600160a01b038116600081815260036020908152604091829020805460ff1916600117905590519182527fdc5a48d79e2e147530ff63ecdbed5a5a66adb9d5cf339384d5d076da197c40b59101610d9b565b6119f161240f565b6001805460ff60a01b191690557f5db9ee0a495bf2e6ff9c91a7834c1ba4fdd244a5e8aa4e537bd38aeae4b073aa335b6040516001600160a01b03909116815260200160405180910390a1565b611a4781610dfc565b611a8b5760405162461bcd60e51b815260206004820152601560248201527420b1b1b7bab73a1034b9903737ba103830bab9b2b960591b604482015260640161081c565b6001600160a01b038116600081815260026020908152604091829020805460ff1916905590519182527fcd265ebaf09df2871cc7bd4133404a235ba12eff2041bb89d9c714a2621c7c7e9101610d9b565b611ae581610dfc565b15611b325760405162461bcd60e51b815260206004820152601960248201527f4163636f756e7420697320616c72656164792070617573657200000000000000604482015260640161081c565b6001600160a01b038116600081815260026020908152604091829020805460ff1916600117905590519182527f6719d08c1888103bea251a4ed56406bd0c3e69723c8a1686e017e7bbe159b6f89101610d9b565b611b8e6116bb565b6001805460ff60a01b1916600160a01b1790557f62e78cea01bee320cd4e420270b5ea74000d11b0c9f74754ebdbfc544b05a258611a213390565b604080516080810182526000808252602082018190529181018290526060810191909152600082815260086020908152604091829020825160808101845281546001600160a01b0390811682526001830154169281019290925260028101549282019290925260039091015460608201819052611c885760405162461bcd60e51b815260206004820152601a60248201527f64656c61796564207472616e73666572206e6f74206578697374000000000000604482015260640161081c565b600a548160600151611c9a9190612e41565b4211611ce85760405162461bcd60e51b815260206004820152601d60248201527f64656c61796564207472616e73666572207374696c6c206c6f636b6564000000604482015260640161081c565b600083815260086020908152604080832080546001600160a01b03199081168255600182018054909116905560028101849055600301929092558251908301518383015192517f3b40e5089937425d14cdd96947e5661868357e224af59bd8b24a4b8a330d442693611d8093889390929091909384526001600160a01b03928316602085015291166040830152606082015260800190565b60405180910390a192915050565b600e546001600160a01b0383811691161415611eaa57600e54604051632e1a7d4d60e01b8152600481018390526001600160a01b0390911690632e1a7d4d90602401600060405180830381600087803b158015611dea57600080fd5b505af1158015611dfe573d6000803e3d6000fd5b505050506000836001600160a01b03168261c35090604051600060405180830381858888f193505050503d8060008114611e54576040519150601f19603f3d011682016040523d82523d6000602084013e611e59565b606091505b50509050806119395760405162461bcd60e51b815260206004820152601b60248201527f6661696c656420746f2073656e64206e617469766520746f6b656e0000000000604482015260640161081c565b611ebe6001600160a01b038316848361245f565b505050565b6040805160c08101825260008082526020808301829052828401829052606083018290526080830182905260a0830182905283518085019094528184528301849052909190805b6020830151518351101561201d57611f218361248f565b90925090508160011415611f5057611f40611f3b846124c9565b612586565b6001600160a01b03168452611f0a565b8160021415611f7857611f65611f3b846124c9565b6001600160a01b03166020850152611f0a565b8160031415611f9c57611f92611f8d846124c9565b612597565b6040850152611f0a565b8160041415611fc457611fb1611f3b846124c9565b6001600160a01b03166060850152611f0a565b8160051415611fea57611fd6836125ce565b67ffffffffffffffff166080850152611f0a565b816006141561200e57612004611fff846124c9565b612650565b60a0850152611f0a565b6120188382612668565b611f0a565b505050919050565b600454612030575050565b6001600160a01b0382166000908152600660205260409020548061205357505050565b6001600160a01b0383166000908152600560205260408120546004549091429161207d8184612e59565b6120879190612e7b565b6001600160a01b0387166000908152600760205260409020549091508111156120b2578492506120bf565b6120bc8584612e41565b92505b838311156121045760405162461bcd60e51b81526020600482015260126024820152710766f6c756d652065786365656473206361760741b604482015260640161081c565b506001600160a01b039094166000908152600560209081526040808320939093556007905220929092555050565b600084815260086020526040902060030154156121915760405162461bcd60e51b815260206004820152601f60248201527f64656c61796564207472616e7366657220616c72656164792065786973747300604482015260640161081c565b604080516080810182526001600160a01b0380861682528481166020808401918252838501868152426060860190815260008b8152600890935291869020945185549085166001600160a01b031991821617865592516001860180549190951693169290921790925551600283015551600390910155517fcbcfffe5102114216a85d3aceb14ad4b81a3935b1b5c468fadf3889eb9c5dce6906122379086815260200190565b60405180910390a150505050565b61224e816115b4565b61229a5760405162461bcd60e51b815260206004820152601760248201527f4163636f756e74206973206e6f7420676f7665726e6f72000000000000000000604482015260640161081c565b6001600160a01b038116600081815260036020908152604091829020805460ff1916905590519182527f1ebe834e73d60a5fec822c1e1727d34bc79f2ad977ed504581cc1822fe20fb5b9101610d9b565b600180546001600160a01b038381166001600160a01b0319831681179093556040519116919082907f8be0079c531659141344cd1fd0a4f28419497f9722a3daafe3b4186f6b6457e090600090a35050565b6000612392826040518060400160405280602081526020017f5361666545524332303a206c6f772d6c6576656c2063616c6c206661696c6564815250856001600160a01b03166126da9092919063ffffffff16565b805190915015611ebe57808060200190518101906123b09190612e9a565b611ebe5760405162461bcd60e51b815260206004820152602a60248201527f5361666545524332303a204552433230206f7065726174696f6e20646964206e6044820152691bdd081cdd58d8d9595960b21b606482015260840161081c565b600154600160a01b900460ff16610dfa5760405162461bcd60e51b815260206004820152601460248201527314185d5cd8589b194e881b9bdd081c185d5cd95960621b604482015260640161081c565b6040516001600160a01b038316602482015260448101829052611ebe90849063a9059cbb60e01b90606401611902565b600080600061249d846125ce565b90506124aa600882612e59565b92508060071660058111156124c1576124c1612ebc565b915050915091565b606060006124d6836125ce565b905060008184600001516124ea9190612e41565b90508360200151518111156124fe57600080fd5b8167ffffffffffffffff81111561251757612517612ed2565b6040519080825280601f01601f191660200182016040528015612541576020820181803683370190505b50602080860151865192955091818601919083010160005b8581101561257b578181015183820152612574602082612e41565b9050612559565b505050935250919050565b6000612591826126f3565b92915050565b60006020825111156125a857600080fd5b60208201519050815160206125bd9190612ee8565b6125c8906008612e7b565b1c919050565b602080820151825181019091015160009182805b600a81101561264a5783811a91506125fb816007612e7b565b82607f16901b8517945081608016600014156126385761261c816001612e41565b8651879061262b908390612e41565b9052509395945050505050565b8061264281612bf9565b9150506125e2565b50600080fd5b6000815160201461266057600080fd5b506020015190565b600081600581111561267c5761267c612ebc565b141561268b57611ebe826125ce565b600281600581111561269f5761269f612ebc565b141561022f5760006126b0836125ce565b905080836000018181516126c49190612e41565b90525060208301515183511115611ebe57600080fd5b60606126e98484600085612712565b90505b9392505050565b6000815160141461270357600080fd5b5060200151600160601b900490565b6060824710156127735760405162461bcd60e51b815260206004820152602660248201527f416464726573733a20696e73756666696369656e742062616c616e636520666f6044820152651c8818d85b1b60d21b606482015260840161081c565b6001600160a01b0385163b6127ca5760405162461bcd60e51b815260206004820152601d60248201527f416464726573733a2063616c6c20746f206e6f6e2d636f6e7472616374000000604482015260640161081c565b600080866001600160a01b031685876040516127e69190612eff565b60006040518083038185875af1925050503d8060008114612823576040519150601f19603f3d011682016040523d82523d6000602084013e612828565b606091505b5091509150612838828286612843565b979650505050505050565b606083156128525750816126ec565b8251156128625782518084602001fd5b8160405162461bcd60e51b815260040161081c9190612f1b565b803567ffffffffffffffff8116811461289457600080fd5b919050565b80356001600160a01b038116811461289457600080fd5b600080600080608085870312156128c657600080fd5b843593506128d66020860161287c565b92506128e460408601612899565b91506128f26060860161287c565b905092959194509250565b60006020828403121561290f57600080fd5b5035919050565b60008083601f84011261292857600080fd5b50813567ffffffffffffffff81111561294057600080fd5b6020830191508360208260051b850101111561295b57600080fd5b9250929050565b6000806000806040858703121561297857600080fd5b843567ffffffffffffffff8082111561299057600080fd5b61299c88838901612916565b909650945060208701359150808211156129b557600080fd5b506129c287828801612916565b95989497509550505050565b600080600080600060a086880312156129e657600080fd5b6129ef86612899565b945060208601359350612a046040870161287c565b9250612a1260608701612899565b9150612a206080870161287c565b90509295509295909350565b600060208284031215612a3e57600080fd5b6126ec82612899565b6000806000806000806000806080898b031215612a6357600080fd5b883567ffffffffffffffff80821115612a7b57600080fd5b818b0191508b601f830112612a8f57600080fd5b813581811115612a9e57600080fd5b8c6020828501011115612ab057600080fd5b60209283019a509850908a01359080821115612acb57600080fd5b612ad78c838d01612916565b909850965060408b0135915080821115612af057600080fd5b612afc8c838d01612916565b909650945060608b0135915080821115612b1557600080fd5b50612b228b828c01612916565b999c989b5096995094979396929594505050565b9586526001600160a01b0394851660208701529284166040860152606085019190915267ffffffffffffffff1660808401521660a082015260c00190565b60208082526016908201527521b0b63632b91034b9903737ba1033b7bb32b93737b960511b604082015260600190565b6020808252600f908201526e0d8cadccee8d040dad2e6dac2e8c6d608b1b604082015260600190565b634e487b7160e01b600052603260045260246000fd5b634e487b7160e01b600052601160045260246000fd5b6000600019821415612c0d57612c0d612be3565b5060010190565b6020808252818101527f4f776e61626c653a2063616c6c6572206973206e6f7420746865206f776e6572604082015260600190565b838152818360208301376000910160200190815292915050565b60005b83811015612c7e578181015183820152602001612c66565b838111156119395750506000910152565b60008151808452612ca7816020860160208601612c63565b601f01601f19169290920160200192915050565b81835281816020850137506000828201602090810191909152601f909101601f19169091010190565b8183526000602080850194508260005b85811015612d20576001600160a01b03612d0d83612899565b1687529582019590820190600101612cf4565b509495945050505050565b81835260006001600160fb1b03831115612d4457600080fd5b8260051b8083602087013760009401602001938452509192915050565b608081526000612d74608083018a612c8f565b82810360208401528088825260208201905060208960051b8301018a60005b8b811015612e0757848303601f190184528135368e9003601e19018112612db957600080fd5b8d01803567ffffffffffffffff811115612dd257600080fd5b8036038f1315612de157600080fd5b612def858260208501612cbb565b60209687019690955093909301925050600101612d93565b50508481036040860152612e1c81898b612ce4565b925050508281036060840152612e33818587612d2b565b9a9950505050505050505050565b60008219821115612e5457612e54612be3565b500190565b600082612e7657634e487b7160e01b600052601260045260246000fd5b500490565b6000816000190483118215151615612e9557612e95612be3565b500290565b600060208284031215612eac57600080fd5b815180151581146126ec57600080fd5b634e487b7160e01b600052602160045260246000fd5b634e487b7160e01b600052604160045260246000fd5b600082821015612efa57612efa612be3565b500390565b60008251612f11818460208701612c63565b9190910192915050565b6020815260006126ec6020830184612c8f56fea26469706673582212208f28192e6bc2d4913d7958787fc27bd561692a6d622e2244017e7ba88f935b5f64736f6c63430008090033",
  "linkReferences": {},
  "deployedLinkReferences": {}
}