{
  "_format": "hh-sol-artifact-1",
  "contractName": "MintSwapCanonicalTokenUpgradable",
  "sourceName": "contracts/cBridge/pegged-bridge/tokens/MintSwapCanonicalTokenUpgradable.sol",
  "abi": [
    {
      "inputs": [
        {
          "internalType": "string",
          "name": "name_",
          "type": "string"
        },
        {
          "internalType": "string",
          "name": "symbol_",
          "type": "string"
        },
        {
          "internalType": "uint8",
          "name": "decimals_",
          "type": "uint8"
        }
      ],
      "stateMutability": "nonpayable",
      "type": "constructor"
    },
    {
      "anonymous": false,
      "inputs": [
        {
          "indexed": true,
          "internalType": "address",
          "name": "owner",
          "type": "address"
        },
        {
          "indexed": true,
          "internalType": "address",
          "name": "spender",
          "type": "address"
        },
        {
          "indexed": false,
          "internalType": "uint256",
          "name": "value",
          "type": "uint256"
        }
      ],
      "name": "Approval",
      "type": "event"
    },
    {
      "anonymous": false,
      "inputs": [
        {
          "indexed": false,
          "internalType": "address",
          "name": "bridge",
          "type": "address"
        },
        {
          "indexed": false,
          "internalType": "uint256",
          "name": "supplyCap",
          "type": "uint256"
        }
      ],
      "name": "BridgeSupplyCapUpdated",
      "type": "event"
    },
    {
      "anonymous": false,
      "inputs": [
        {
          "indexed": true,
          "internalType": "address",
          "name": "previousOwner",
          "type": "address"
        },
        {
          "indexed": true,
          "internalType": "address",
          "name": "newOwner",
          "type": "address"
        }
      ],
      "name": "OwnershipTransferred",
      "type": "event"
    },
    {
      "anonymous": false,
      "inputs": [
        {
          "indexed": false,
          "internalType": "address",
          "name": "token",
          "type": "address"
        },
        {
          "indexed": false,
          "internalType": "uint256",
          "name": "cap",
          "type": "uint256"
        }
      ],
      "name": "TokenSwapCapUpdated",
      "type": "event"
    },
    {
      "anonymous": false,
      "inputs": [
        {
          "indexed": true,
          "internalType": "address",
          "name": "from",
          "type": "address"
        },
        {
          "indexed": true,
          "internalType": "address",
          "name": "to",
          "type": "address"
        },
        {
          "indexed": false,
          "internalType": "uint256",
          "name": "value",
          "type": "uint256"
        }
      ],
      "name": "Transfer",
      "type": "event"
    },
    {
      "inputs": [
        {
          "internalType": "address",
          "name": "owner",
          "type": "address"
        },
        {
          "internalType": "address",
          "name": "spender",
          "type": "address"
        }
      ],
      "name": "allowance",
      "outputs": [
        {
          "internalType": "uint256",
          "name": "",
          "type": "uint256"
        }
      ],
      "stateMutability": "view",
      "type": "function"
    },
    {
      "inputs": [
        {
          "internalType": "address",
          "name": "spender",
          "type": "address"
        },
        {
          "internalType": "uint256",
          "name": "amount",
          "type": "uint256"
        }
      ],
      "name": "approve",
      "outputs": [
        {
          "internalType": "bool",
          "name": "",
          "type": "bool"
        }
      ],
      "stateMutability": "nonpayable",
      "type": "function"
    },
    {
      "inputs": [
        {
          "internalType": "address",
          "name": "account",
          "type": "address"
        }
      ],
      "name": "balanceOf",
      "outputs": [
        {
          "internalType": "uint256",
          "name": "",
          "type": "uint256"
        }
      ],
      "stateMutability": "view",
      "type": "function"
    },
    {
      "inputs": [
        {
          "internalType": "address",
          "name": "",
          "type": "address"
        }
      ],
      "name": "bridges",
      "outputs": [
        {
          "internalType": "uint256",
          "name": "cap",
          "type": "uint256"
        },
        {
          "internalType": "uint256",
          "name": "total",
          "type": "uint256"
        }
      ],
      "stateMutability": "view",
      "type": "function"
    },
    {
      "inputs": [
        {
          "internalType": "uint256",
          "name": "_amount",
          "type": "uint256"
        }
      ],
      "name": "burn",
      "outputs": [
        {
          "internalType": "bool",
          "name": "",
          "type": "bool"
        }
      ],
      "stateMutability": "nonpayable",
      "type": "function"
    },
    {
      "inputs": [
        {
          "internalType": "address",
          "name": "_from",
          "type": "address"
        },
        {
          "internalType": "uint256",
          "name": "_amount",
          "type": "uint256"
        }
      ],
      "name": "burn",
      "outputs": [
        {
          "internalType": "bool",
          "name": "",
          "type": "bool"
        }
      ],
      "stateMutability": "nonpayable",
      "type": "function"
    },
    {
      "inputs": [
        {
          "internalType": "address",
          "name": "_from",
          "type": "address"
        },
        {
          "internalType": "uint256",
          "name": "_amount",
          "type": "uint256"
        }
      ],
      "name": "burnFrom",
      "outputs": [
        {
          "internalType": "bool",
          "name": "",
          "type": "bool"
        }
      ],
      "stateMutability": "nonpayable",
      "type": "function"
    },
    {
      "inputs": [],
      "name": "decimals",
      "outputs": [
        {
          "internalType": "uint8",
          "name": "",
          "type": "uint8"
        }
      ],
      "stateMutability": "view",
      "type": "function"
    },
    {
      "inputs": [
        {
          "internalType": "address",
          "name": "spender",
          "type": "address"
        },
        {
          "internalType": "uint256",
          "name": "subtractedValue",
          "type": "uint256"
        }
      ],
      "name": "decreaseAllowance",
      "outputs": [
        {
          "internalType": "bool",
          "name": "",
          "type": "bool"
        }
      ],
      "stateMutability": "nonpayable",
      "type": "function"
    },
    {
      "inputs": [],
      "name": "getOwner",
      "outputs": [
        {
          "internalType": "address",
          "name": "",
          "type": "address"
        }
      ],
      "stateMutability": "view",
      "type": "function"
    },
    {
      "inputs": [
        {
          "internalType": "address",
          "name": "spender",
          "type": "address"
        },
        {
          "internalType": "uint256",
          "name": "addedValue",
          "type": "uint256"
        }
      ],
      "name": "increaseAllowance",
      "outputs": [
        {
          "internalType": "bool",
          "name": "",
          "type": "bool"
        }
      ],
      "stateMutability": "nonpayable",
      "type": "function"
    },
    {
      "inputs": [
        {
          "internalType": "string",
          "name": "name_",
          "type": "string"
        },
        {
          "internalType": "string",
          "name": "symbol_",
          "type": "string"
        }
      ],
      "name": "init",
      "outputs": [],
      "stateMutability": "nonpayable",
      "type": "function"
    },
    {
      "inputs": [
        {
          "internalType": "address",
          "name": "_to",
          "type": "address"
        },
        {
          "internalType": "uint256",
          "name": "_amount",
          "type": "uint256"
        }
      ],
      "name": "mint",
      "outputs": [
        {
          "internalType": "bool",
          "name": "",
          "type": "bool"
        }
      ],
      "stateMutability": "nonpayable",
      "type": "function"
    },
    {
      "inputs": [],
      "name": "name",
      "outputs": [
        {
          "internalType": "string",
          "name": "",
          "type": "string"
        }
      ],
      "stateMutability": "view",
      "type": "function"
    },
    {
      "inputs": [],
      "name": "owner",
      "outputs": [
        {
          "internalType": "address",
          "name": "",
          "type": "address"
        }
      ],
      "stateMutability": "view",
      "type": "function"
    },
    {
      "inputs": [
        {
          "internalType": "address",
          "name": "_bridgeToken",
          "type": "address"
        },
        {
          "internalType": "uint256",
          "name": "_swapCap",
          "type": "uint256"
        }
      ],
      "name": "setBridgeTokenSwapCap",
      "outputs": [],
      "stateMutability": "nonpayable",
      "type": "function"
    },
    {
      "inputs": [
        {
          "internalType": "address",
          "name": "_bridgeToken",
          "type": "address"
        },
        {
          "internalType": "uint256",
          "name": "_amount",
          "type": "uint256"
        }
      ],
      "name": "swapBridgeForCanonical",
      "outputs": [
        {
          "internalType": "uint256",
          "name": "",
          "type": "uint256"
        }
      ],
      "stateMutability": "nonpayable",
      "type": "function"
    },
    {
      "inputs": [
        {
          "internalType": "address",
          "name": "_bridgeToken",
          "type": "address"
        },
        {
          "internalType": "uint256",
          "name": "_amount",
          "type": "uint256"
        }
      ],
      "name": "swapCanonicalForBridge",
      "outputs": [
        {
          "internalType": "uint256",
          "name": "",
          "type": "uint256"
        }
      ],
      "stateMutability": "nonpayable",
      "type": "function"
    },
    {
      "inputs": [
        {
          "internalType": "address",
          "name": "",
          "type": "address"
        }
      ],
      "name": "swapSupplies",
      "outputs": [
        {
          "internalType": "uint256",
          "name": "cap",
          "type": "uint256"
        },
        {
          "internalType": "uint256",
          "name": "total",
          "type": "uint256"
        }
      ],
      "stateMutability": "view",
      "type": "function"
    },
    {
      "inputs": [],
      "name": "symbol",
      "outputs": [
        {
          "internalType": "string",
          "name": "",
          "type": "string"
        }
      ],
      "stateMutability": "view",
      "type": "function"
    },
    {
      "inputs": [],
      "name": "totalSupply",
      "outputs": [
        {
          "internalType": "uint256",
          "name": "",
          "type": "uint256"
        }
      ],
      "stateMutability": "view",
      "type": "function"
    },
    {
      "inputs": [
        {
          "internalType": "address",
          "name": "to",
          "type": "address"
        },
        {
          "internalType": "uint256",
          "name": "amount",
          "type": "uint256"
        }
      ],
      "name": "transfer",
      "outputs": [
        {
          "internalType": "bool",
          "name": "",
          "type": "bool"
        }
      ],
      "stateMutability": "nonpayable",
      "type": "function"
    },
    {
      "inputs": [
        {
          "internalType": "address",
          "name": "from",
          "type": "address"
        },
        {
          "internalType": "address",
          "name": "to",
          "type": "address"
        },
        {
          "internalType": "uint256",
          "name": "amount",
          "type": "uint256"
        }
      ],
      "name": "transferFrom",
      "outputs": [
        {
          "internalType": "bool",
          "name": "",
          "type": "bool"
        }
      ],
      "stateMutability": "nonpayable",
      "type": "function"
    },
    {
      "inputs": [
        {
          "internalType": "address",
          "name": "newOwner",
          "type": "address"
        }
      ],
      "name": "transferOwnership",
      "outputs": [],
      "stateMutability": "nonpayable",
      "type": "function"
    },
    {
      "inputs": [
        {
          "internalType": "address",
          "name": "_bridge",
          "type": "address"
        },
        {
          "internalType": "uint256",
          "name": "_cap",
          "type": "uint256"
        }
      ],
      "name": "updateBridgeSupplyCap",
      "outputs": [],
      "stateMutability": "nonpayable",
      "type": "function"
    }
  ],
  "bytecode": "0x60a06040523480156200001157600080fd5b5060405162001b2838038062001b28833981016040819052620000349162000258565b8282828282828282816003908051906020019062000054929190620000e5565b5080516200006a906004906020840190620000e5565b5050506200007e336200009360201b60201c565b60ff16608052506200031a9650505050505050565b600580546001600160a01b038381166001600160a01b0319831681179093556040519116919082907f8be0079c531659141344cd1fd0a4f28419497f9722a3daafe3b4186f6b6457e090600090a35050565b828054620000f390620002dd565b90600052602060002090601f01602090048101928262000117576000855562000162565b82601f106200013257805160ff191683800117855562000162565b8280016001018555821562000162579182015b828111156200016257825182559160200191906001019062000145565b506200017092915062000174565b5090565b5b8082111562000170576000815560010162000175565b634e487b7160e01b600052604160045260246000fd5b600082601f830112620001b357600080fd5b81516001600160401b0380821115620001d057620001d06200018b565b604051601f8301601f19908116603f01168101908282118183101715620001fb57620001fb6200018b565b816040528381526020925086838588010111156200021857600080fd5b600091505b838210156200023c57858201830151818301840152908201906200021d565b838211156200024e5760008385830101525b9695505050505050565b6000806000606084860312156200026e57600080fd5b83516001600160401b03808211156200028657600080fd5b6200029487838801620001a1565b94506020860151915080821115620002ab57600080fd5b50620002ba86828701620001a1565b925050604084015160ff81168114620002d257600080fd5b809150509250925092565b600181811c90821680620002f257607f821691505b602082108114156200031457634e487b7160e01b600052602260045260246000fd5b50919050565b6080516117f26200033660003960006101fc01526117f26000f3fe608060405234801561001057600080fd5b50600436106101735760003560e01c806370a08231116100de578063a457c2d711610097578063ced67f0c11610071578063ced67f0c14610371578063dd62ed3e14610398578063f2fde38b146103ab578063f716932e146103be57600080fd5b8063a457c2d714610338578063a9059cbb1461034b578063cd0461191461035e57600080fd5b806370a08231146102c357806379cc6790146102ec578063893d20e8146102ff5780638da5cb5b1461031f57806395d89b41146103305780639dc29fac146102ec57600080fd5b806334faea1b1161013057806334faea1b14610226578063395093511461026257806340c10f191461027557806342966c68146102885780634ce2f71a1461029b5780637029144c146102b057600080fd5b806306fdde0314610178578063095ea7b31461019657806313f1a4a4146101b957806318160ddd146101da57806323b872dd146101e2578063313ce567146101f5575b600080fd5b6101806103d1565b60405161018d91906114a6565b60405180910390f35b6101a96101a43660046114f5565b610463565b604051901515815260200161018d565b6101cc6101c73660046114f5565b61047b565b60405190815260200161018d565b6002546101cc565b6101a96101f036600461151f565b61051d565b60405160ff7f000000000000000000000000000000000000000000000000000000000000000016815260200161018d565b61024d61023436600461155b565b6007602052600090815260409020805460019091015482565b6040805192835260208301919091520161018d565b6101a96102703660046114f5565b610543565b6101a96102833660046114f5565b610565565b6101a9610296366004611576565b61062b565b6102ae6102a93660046114f5565b61063f565b005b6102ae6102be366004611632565b6106d1565b6101cc6102d136600461155b565b6001600160a01b031660009081526020819052604090205490565b6101a96102fa3660046114f5565b610705565b610307610711565b6040516001600160a01b03909116815260200161018d565b6005546001600160a01b0316610307565b61018061072a565b6101a96103463660046114f5565b610739565b6101a96103593660046114f5565b6107bf565b6102ae61036c3660046114f5565b6107cd565b61024d61037f36600461155b565b6006602052600090815260409020805460019091015482565b6101cc6103a6366004611696565b610857565b6102ae6103b936600461155b565b610882565b6101cc6103cc3660046114f5565b61092c565b6060600880546103e0906116c9565b80601f016020809104026020016040519081016040528092919081815260200182805461040c906116c9565b80156104595780601f1061042e57610100808354040283529160200191610459565b820191906000526020600020905b81548152906001019060200180831161043c57829003601f168201915b5050505050905090565b600033610471818585610a14565b5060019392505050565b6001600160a01b038216600090815260076020526040812080546104dd5760405162461bcd60e51b815260206004820152601460248201527334b73b30b634b210313934b233b2903a37b5b2b760611b60448201526064015b60405180910390fd5b828160010160008282546104f1919061171a565b9091555061050190503384610b38565b6105156001600160a01b0385163385610c86565b509092915050565b60003361052b858285610ce9565b610536858585610d63565b60019150505b9392505050565b6000336104718185856105568383610857565b6105609190611731565b610a14565b33600090815260066020526040812080546105b35760405162461bcd60e51b815260206004820152600e60248201526d34b73b30b634b21031b0b63632b960911b60448201526064016104d4565b828160010160008282546105c79190611731565b90915550508054600182015411156106215760405162461bcd60e51b815260206004820152601960248201527f657863656564732062726964676520737570706c79206361700000000000000060448201526064016104d4565b6104718484610f31565b60006106373383610b38565b506001919050565b336106526005546001600160a01b031690565b6001600160a01b0316146106785760405162461bcd60e51b81526004016104d490611749565b6001600160a01b038216600081815260066020908152604091829020849055815192835282018390527f59e1e4348943de408b89af8ab71e502ea722dd41efd1ff4a3548c60e83e91c6091015b60405180910390a15050565b6106d9611010565b81516106ec9060089060208501906113e1565b5080516107009060099060208401906113e1565b505050565b600061053c8383611068565b60006107256005546001600160a01b031690565b905090565b6060600980546103e0906116c9565b600033816107478286610857565b9050838110156107a75760405162461bcd60e51b815260206004820152602560248201527f45524332303a2064656372656173656420616c6c6f77616e63652062656c6f77604482015264207a65726f60d81b60648201526084016104d4565b6107b48286868403610a14565b506001949350505050565b600033610471818585610d63565b336107e06005546001600160a01b031690565b6001600160a01b0316146108065760405162461bcd60e51b81526004016104d490611749565b6001600160a01b038216600081815260076020908152604091829020849055815192835282018390527f51c7b3899924578d835c066303e3f765c25fea17d7b18840cd109a90f5c5601f91016106c5565b6001600160a01b03918216600090815260016020908152604080832093909416825291909152205490565b336108956005546001600160a01b031690565b6001600160a01b0316146108bb5760405162461bcd60e51b81526004016104d490611749565b6001600160a01b0381166109205760405162461bcd60e51b815260206004820152602660248201527f4f776e61626c653a206e6577206f776e657220697320746865207a65726f206160448201526564647265737360d01b60648201526084016104d4565b61092981611104565b50565b6001600160a01b038216600090815260076020526040812080546109895760405162461bcd60e51b815260206004820152601460248201527334b73b30b634b210313934b233b2903a37b5b2b760611b60448201526064016104d4565b8054600182015461099b908590611731565b11156109db5760405162461bcd60e51b815260206004820152600f60248201526e065786365656420737761702063617608c1b60448201526064016104d4565b828160010160008282546109ef9190611731565b909155506109ff90503384610f31565b6105156001600160a01b038516333086611156565b6001600160a01b038316610a765760405162461bcd60e51b8152602060048201526024808201527f45524332303a20617070726f76652066726f6d20746865207a65726f206164646044820152637265737360e01b60648201526084016104d4565b6001600160a01b038216610ad75760405162461bcd60e51b815260206004820152602260248201527f45524332303a20617070726f766520746f20746865207a65726f206164647265604482015261737360f01b60648201526084016104d4565b6001600160a01b0383811660008181526001602090815260408083209487168084529482529182902085905590518481527f8c5be1e5ebec7d5bd14f71427d1e84f3dd0314c0f7b2291e5b200ac8c7c3b925910160405180910390a3505050565b6001600160a01b038216610b985760405162461bcd60e51b815260206004820152602160248201527f45524332303a206275726e2066726f6d20746865207a65726f206164647265736044820152607360f81b60648201526084016104d4565b6001600160a01b03821660009081526020819052604090205481811015610c0c5760405162461bcd60e51b815260206004820152602260248201527f45524332303a206275726e20616d6f756e7420657863656564732062616c616e604482015261636560f01b60648201526084016104d4565b6001600160a01b0383166000908152602081905260408120838303905560028054849290610c3b90849061171a565b90915550506040518281526000906001600160a01b038516907fddf252ad1be2c89b69c2b068fc378daa952ba7f163c4a11628f55a4df523b3ef9060200160405180910390a3505050565b6040516001600160a01b03831660248201526044810182905261070090849063a9059cbb60e01b906064015b60408051601f198184030181529190526020810180516001600160e01b03166001600160e01b03199093169290921790915261118e565b6000610cf58484610857565b90506000198114610d5d5781811015610d505760405162461bcd60e51b815260206004820152601d60248201527f45524332303a20696e73756666696369656e7420616c6c6f77616e636500000060448201526064016104d4565b610d5d8484848403610a14565b50505050565b6001600160a01b038316610dc75760405162461bcd60e51b815260206004820152602560248201527f45524332303a207472616e736665722066726f6d20746865207a65726f206164604482015264647265737360d81b60648201526084016104d4565b6001600160a01b038216610e295760405162461bcd60e51b815260206004820152602360248201527f45524332303a207472616e7366657220746f20746865207a65726f206164647260448201526265737360e81b60648201526084016104d4565b6001600160a01b03831660009081526020819052604090205481811015610ea15760405162461bcd60e51b815260206004820152602660248201527f45524332303a207472616e7366657220616d6f756e7420657863656564732062604482015265616c616e636560d01b60648201526084016104d4565b6001600160a01b03808516600090815260208190526040808220858503905591851681529081208054849290610ed8908490611731565b92505081905550826001600160a01b0316846001600160a01b03167fddf252ad1be2c89b69c2b068fc378daa952ba7f163c4a11628f55a4df523b3ef84604051610f2491815260200190565b60405180910390a3610d5d565b6001600160a01b038216610f875760405162461bcd60e51b815260206004820152601f60248201527f45524332303a206d696e7420746f20746865207a65726f20616464726573730060448201526064016104d4565b8060026000828254610f999190611731565b90915550506001600160a01b03821660009081526020819052604081208054839290610fc6908490611731565b90915550506040518181526001600160a01b038316906000907fddf252ad1be2c89b69c2b068fc378daa952ba7f163c4a11628f55a4df523b3ef9060200160405180910390a35050565b6005546001600160a01b03161561105d5760405162461bcd60e51b81526020600482015260116024820152701bdddb995c88185b1c9958591e481cd95d607a1b60448201526064016104d4565b61106633611104565b565b336000908152600660205260408120805415158061108a575060008160010154115b156110ef5782816001015410156110e35760405162461bcd60e51b815260206004820152601c60248201527f6578636565647320627269646765206d696e74656420616d6f756e740000000060448201526064016104d4565b60018101805484900390555b6110fa843385610ce9565b6104718484610b38565b600580546001600160a01b038381166001600160a01b0319831681179093556040519116919082907f8be0079c531659141344cd1fd0a4f28419497f9722a3daafe3b4186f6b6457e090600090a35050565b6040516001600160a01b0380851660248301528316604482015260648101829052610d5d9085906323b872dd60e01b90608401610cb2565b60006111e3826040518060400160405280602081526020017f5361666545524332303a206c6f772d6c6576656c2063616c6c206661696c6564815250856001600160a01b03166112609092919063ffffffff16565b8051909150156107005780806020019051810190611201919061177e565b6107005760405162461bcd60e51b815260206004820152602a60248201527f5361666545524332303a204552433230206f7065726174696f6e20646964206e6044820152691bdd081cdd58d8d9595960b21b60648201526084016104d4565b606061126f8484600085611277565b949350505050565b6060824710156112d85760405162461bcd60e51b815260206004820152602660248201527f416464726573733a20696e73756666696369656e742062616c616e636520666f6044820152651c8818d85b1b60d21b60648201526084016104d4565b6001600160a01b0385163b61132f5760405162461bcd60e51b815260206004820152601d60248201527f416464726573733a2063616c6c20746f206e6f6e2d636f6e747261637400000060448201526064016104d4565b600080866001600160a01b0316858760405161134b91906117a0565b60006040518083038185875af1925050503d8060008114611388576040519150601f19603f3d011682016040523d82523d6000602084013e61138d565b606091505b509150915061139d8282866113a8565b979650505050505050565b606083156113b757508161053c565b8251156113c75782518084602001fd5b8160405162461bcd60e51b81526004016104d491906114a6565b8280546113ed906116c9565b90600052602060002090601f01602090048101928261140f5760008555611455565b82601f1061142857805160ff1916838001178555611455565b82800160010185558215611455579182015b8281111561145557825182559160200191906001019061143a565b50611461929150611465565b5090565b5b808211156114615760008155600101611466565b60005b8381101561149557818101518382015260200161147d565b83811115610d5d5750506000910152565b60208152600082518060208401526114c581604085016020870161147a565b601f01601f19169190910160400192915050565b80356001600160a01b03811681146114f057600080fd5b919050565b6000806040838503121561150857600080fd5b611511836114d9565b946020939093013593505050565b60008060006060848603121561153457600080fd5b61153d846114d9565b925061154b602085016114d9565b9150604084013590509250925092565b60006020828403121561156d57600080fd5b61053c826114d9565b60006020828403121561158857600080fd5b5035919050565b634e487b7160e01b600052604160045260246000fd5b600082601f8301126115b657600080fd5b813567ffffffffffffffff808211156115d1576115d161158f565b604051601f8301601f19908116603f011681019082821181831017156115f9576115f961158f565b8160405283815286602085880101111561161257600080fd5b836020870160208301376000602085830101528094505050505092915050565b6000806040838503121561164557600080fd5b823567ffffffffffffffff8082111561165d57600080fd5b611669868387016115a5565b9350602085013591508082111561167f57600080fd5b5061168c858286016115a5565b9150509250929050565b600080604083850312156116a957600080fd5b6116b2836114d9565b91506116c0602084016114d9565b90509250929050565b600181811c908216806116dd57607f821691505b602082108114156116fe57634e487b7160e01b600052602260045260246000fd5b50919050565b634e487b7160e01b600052601160045260246000fd5b60008282101561172c5761172c611704565b500390565b6000821982111561174457611744611704565b500190565b6020808252818101527f4f776e61626c653a2063616c6c6572206973206e6f7420746865206f776e6572604082015260600190565b60006020828403121561179057600080fd5b8151801515811461053c57600080fd5b600082516117b281846020870161147a565b919091019291505056fea2646970667358221220a99295a0974dec0f4a8d4a86e11921c698ac65772882afb1169d7f5e3f9a4fdd64736f6c63430008090033",
  "linkReferences": {},
  "deployedLinkReferences": {}
}