{
  "_format": "hh-sol-artifact-1",
  "contractName": "MintSwapCanonicalTokenUpgradableFreezable",
  "sourceName": "contracts/cBridge/pegged-bridge/tokens/freezable/MintSwapCanonicalTokenUpgradableFreezable.sol",
  "abi": [
    {
      "inputs": [
        {
          "internalType": "string",
          "name": "name_",
          "type": "string"
        },
        {
          "internalType": "string",
          "name": "symbol_",
          "type": "string"
        },
        {
          "internalType": "uint8",
          "name": "decimals_",
          "type": "uint8"
        }
      ],
      "stateMutability": "nonpayable",
      "type": "constructor"
    },
    {
      "anonymous": false,
      "inputs": [
        {
          "indexed": true,
          "internalType": "address",
          "name": "owner",
          "type": "address"
        },
        {
          "indexed": true,
          "internalType": "address",
          "name": "spender",
          "type": "address"
        },
        {
          "indexed": false,
          "internalType": "uint256",
          "name": "value",
          "type": "uint256"
        }
      ],
      "name": "Approval",
      "type": "event"
    },
    {
      "anonymous": false,
      "inputs": [
        {
          "indexed": false,
          "internalType": "address",
          "name": "bridge",
          "type": "address"
        },
        {
          "indexed": false,
          "internalType": "uint256",
          "name": "supplyCap",
          "type": "uint256"
        }
      ],
      "name": "BridgeSupplyCapUpdated",
      "type": "event"
    },
    {
      "anonymous": false,
      "inputs": [
        {
          "indexed": false,
          "internalType": "address",
          "name": "account",
          "type": "address"
        }
      ],
      "name": "Frozen",
      "type": "event"
    },
    {
      "anonymous": false,
      "inputs": [
        {
          "indexed": true,
          "internalType": "address",
          "name": "previousOwner",
          "type": "address"
        },
        {
          "indexed": true,
          "internalType": "address",
          "name": "newOwner",
          "type": "address"
        }
      ],
      "name": "OwnershipTransferred",
      "type": "event"
    },
    {
      "anonymous": false,
      "inputs": [
        {
          "indexed": false,
          "internalType": "address",
          "name": "token",
          "type": "address"
        },
        {
          "indexed": false,
          "internalType": "uint256",
          "name": "cap",
          "type": "uint256"
        }
      ],
      "name": "TokenSwapCapUpdated",
      "type": "event"
    },
    {
      "anonymous": false,
      "inputs": [
        {
          "indexed": true,
          "internalType": "address",
          "name": "from",
          "type": "address"
        },
        {
          "indexed": true,
          "internalType": "address",
          "name": "to",
          "type": "address"
        },
        {
          "indexed": false,
          "internalType": "uint256",
          "name": "value",
          "type": "uint256"
        }
      ],
      "name": "Transfer",
      "type": "event"
    },
    {
      "anonymous": false,
      "inputs": [
        {
          "indexed": false,
          "internalType": "address",
          "name": "account",
          "type": "address"
        }
      ],
      "name": "Unfrozen",
      "type": "event"
    },
    {
      "inputs": [
        {
          "internalType": "address",
          "name": "owner",
          "type": "address"
        },
        {
          "internalType": "address",
          "name": "spender",
          "type": "address"
        }
      ],
      "name": "allowance",
      "outputs": [
        {
          "internalType": "uint256",
          "name": "",
          "type": "uint256"
        }
      ],
      "stateMutability": "view",
      "type": "function"
    },
    {
      "inputs": [
        {
          "internalType": "address",
          "name": "spender",
          "type": "address"
        },
        {
          "internalType": "uint256",
          "name": "amount",
          "type": "uint256"
        }
      ],
      "name": "approve",
      "outputs": [
        {
          "internalType": "bool",
          "name": "",
          "type": "bool"
        }
      ],
      "stateMutability": "nonpayable",
      "type": "function"
    },
    {
      "inputs": [
        {
          "internalType": "address",
          "name": "account",
          "type": "address"
        }
      ],
      "name": "balanceOf",
      "outputs": [
        {
          "internalType": "uint256",
          "name": "",
          "type": "uint256"
        }
      ],
      "stateMutability": "view",
      "type": "function"
    },
    {
      "inputs": [
        {
          "internalType": "address",
          "name": "",
          "type": "address"
        }
      ],
      "name": "bridges",
      "outputs": [
        {
          "internalType": "uint256",
          "name": "cap",
          "type": "uint256"
        },
        {
          "internalType": "uint256",
          "name": "total",
          "type": "uint256"
        }
      ],
      "stateMutability": "view",
      "type": "function"
    },
    {
      "inputs": [
        {
          "internalType": "uint256",
          "name": "_amount",
          "type": "uint256"
        }
      ],
      "name": "burn",
      "outputs": [
        {
          "internalType": "bool",
          "name": "",
          "type": "bool"
        }
      ],
      "stateMutability": "nonpayable",
      "type": "function"
    },
    {
      "inputs": [
        {
          "internalType": "address",
          "name": "_from",
          "type": "address"
        },
        {
          "internalType": "uint256",
          "name": "_amount",
          "type": "uint256"
        }
      ],
      "name": "burn",
      "outputs": [
        {
          "internalType": "bool",
          "name": "",
          "type": "bool"
        }
      ],
      "stateMutability": "nonpayable",
      "type": "function"
    },
    {
      "inputs": [
        {
          "internalType": "address",
          "name": "_from",
          "type": "address"
        },
        {
          "internalType": "uint256",
          "name": "_amount",
          "type": "uint256"
        }
      ],
      "name": "burnFrom",
      "outputs": [
        {
          "internalType": "bool",
          "name": "",
          "type": "bool"
        }
      ],
      "stateMutability": "nonpayable",
      "type": "function"
    },
    {
      "inputs": [],
      "name": "decimals",
      "outputs": [
        {
          "internalType": "uint8",
          "name": "",
          "type": "uint8"
        }
      ],
      "stateMutability": "view",
      "type": "function"
    },
    {
      "inputs": [
        {
          "internalType": "address",
          "name": "spender",
          "type": "address"
        },
        {
          "internalType": "uint256",
          "name": "subtractedValue",
          "type": "uint256"
        }
      ],
      "name": "decreaseAllowance",
      "outputs": [
        {
          "internalType": "bool",
          "name": "",
          "type": "bool"
        }
      ],
      "stateMutability": "nonpayable",
      "type": "function"
    },
    {
      "inputs": [
        {
          "internalType": "address",
          "name": "_account",
          "type": "address"
        }
      ],
      "name": "freeze",
      "outputs": [],
      "stateMutability": "nonpayable",
      "type": "function"
    },
    {
      "inputs": [],
      "name": "getOwner",
      "outputs": [
        {
          "internalType": "address",
          "name": "",
          "type": "address"
        }
      ],
      "stateMutability": "view",
      "type": "function"
    },
    {
      "inputs": [
        {
          "internalType": "address",
          "name": "spender",
          "type": "address"
        },
        {
          "internalType": "uint256",
          "name": "addedValue",
          "type": "uint256"
        }
      ],
      "name": "increaseAllowance",
      "outputs": [
        {
          "internalType": "bool",
          "name": "",
          "type": "bool"
        }
      ],
      "stateMutability": "nonpayable",
      "type": "function"
    },
    {
      "inputs": [
        {
          "internalType": "string",
          "name": "name_",
          "type": "string"
        },
        {
          "internalType": "string",
          "name": "symbol_",
          "type": "string"
        }
      ],
      "name": "init",
      "outputs": [],
      "stateMutability": "nonpayable",
      "type": "function"
    },
    {
      "inputs": [
        {
          "internalType": "address",
          "name": "_account",
          "type": "address"
        }
      ],
      "name": "isFrozen",
      "outputs": [
        {
          "internalType": "bool",
          "name": "",
          "type": "bool"
        }
      ],
      "stateMutability": "view",
      "type": "function"
    },
    {
      "inputs": [
        {
          "internalType": "address",
          "name": "_to",
          "type": "address"
        },
        {
          "internalType": "uint256",
          "name": "_amount",
          "type": "uint256"
        }
      ],
      "name": "mint",
      "outputs": [
        {
          "internalType": "bool",
          "name": "",
          "type": "bool"
        }
      ],
      "stateMutability": "nonpayable",
      "type": "function"
    },
    {
      "inputs": [],
      "name": "name",
      "outputs": [
        {
          "internalType": "string",
          "name": "",
          "type": "string"
        }
      ],
      "stateMutability": "view",
      "type": "function"
    },
    {
      "inputs": [],
      "name": "owner",
      "outputs": [
        {
          "internalType": "address",
          "name": "",
          "type": "address"
        }
      ],
      "stateMutability": "view",
      "type": "function"
    },
    {
      "inputs": [
        {
          "internalType": "address",
          "name": "_bridgeToken",
          "type": "address"
        },
        {
          "internalType": "uint256",
          "name": "_swapCap",
          "type": "uint256"
        }
      ],
      "name": "setBridgeTokenSwapCap",
      "outputs": [],
      "stateMutability": "nonpayable",
      "type": "function"
    },
    {
      "inputs": [
        {
          "internalType": "address",
          "name": "_bridgeToken",
          "type": "address"
        },
        {
          "internalType": "uint256",
          "name": "_amount",
          "type": "uint256"
        }
      ],
      "name": "swapBridgeForCanonical",
      "outputs": [
        {
          "internalType": "uint256",
          "name": "",
          "type": "uint256"
        }
      ],
      "stateMutability": "nonpayable",
      "type": "function"
    },
    {
      "inputs": [
        {
          "internalType": "address",
          "name": "_bridgeToken",
          "type": "address"
        },
        {
          "internalType": "uint256",
          "name": "_amount",
          "type": "uint256"
        }
      ],
      "name": "swapCanonicalForBridge",
      "outputs": [
        {
          "internalType": "uint256",
          "name": "",
          "type": "uint256"
        }
      ],
      "stateMutability": "nonpayable",
      "type": "function"
    },
    {
      "inputs": [
        {
          "internalType": "address",
          "name": "",
          "type": "address"
        }
      ],
      "name": "swapSupplies",
      "outputs": [
        {
          "internalType": "uint256",
          "name": "cap",
          "type": "uint256"
        },
        {
          "internalType": "uint256",
          "name": "total",
          "type": "uint256"
        }
      ],
      "stateMutability": "view",
      "type": "function"
    },
    {
      "inputs": [],
      "name": "symbol",
      "outputs": [
        {
          "internalType": "string",
          "name": "",
          "type": "string"
        }
      ],
      "stateMutability": "view",
      "type": "function"
    },
    {
      "inputs": [],
      "name": "totalSupply",
      "outputs": [
        {
          "internalType": "uint256",
          "name": "",
          "type": "uint256"
        }
      ],
      "stateMutability": "view",
      "type": "function"
    },
    {
      "inputs": [
        {
          "internalType": "address",
          "name": "to",
          "type": "address"
        },
        {
          "internalType": "uint256",
          "name": "amount",
          "type": "uint256"
        }
      ],
      "name": "transfer",
      "outputs": [
        {
          "internalType": "bool",
          "name": "",
          "type": "bool"
        }
      ],
      "stateMutability": "nonpayable",
      "type": "function"
    },
    {
      "inputs": [
        {
          "internalType": "address",
          "name": "from",
          "type": "address"
        },
        {
          "internalType": "address",
          "name": "to",
          "type": "address"
        },
        {
          "internalType": "uint256",
          "name": "amount",
          "type": "uint256"
        }
      ],
      "name": "transferFrom",
      "outputs": [
        {
          "internalType": "bool",
          "name": "",
          "type": "bool"
        }
      ],
      "stateMutability": "nonpayable",
      "type": "function"
    },
    {
      "inputs": [
        {
          "internalType": "address",
          "name": "newOwner",
          "type": "address"
        }
      ],
      "name": "transferOwnership",
      "outputs": [],
      "stateMutability": "nonpayable",
      "type": "function"
    },
    {
      "inputs": [
        {
          "internalType": "address",
          "name": "_account",
          "type": "address"
        }
      ],
      "name": "unfreeze",
      "outputs": [],
      "stateMutability": "nonpayable",
      "type": "function"
    },
    {
      "inputs": [
        {
          "internalType": "address",
          "name": "_bridge",
          "type": "address"
        },
        {
          "internalType": "uint256",
          "name": "_cap",
          "type": "uint256"
        }
      ],
      "name": "updateBridgeSupplyCap",
      "outputs": [],
      "stateMutability": "nonpayable",
      "type": "function"
    }
  ],
  "bytecode": "0x60a06040523480156200001157600080fd5b5060405162001dff38038062001dff83398101604081905262000034916200025e565b8282828282828282828282816003908051906020019062000057929190620000eb565b5080516200006d906004906020840190620000eb565b50505062000081336200009960201b60201c565b60ff1660805250620003209950505050505050505050565b600580546001600160a01b038381166001600160a01b0319831681179093556040519116919082907f8be0079c531659141344cd1fd0a4f28419497f9722a3daafe3b4186f6b6457e090600090a35050565b828054620000f990620002e3565b90600052602060002090601f0160209004810192826200011d576000855562000168565b82601f106200013857805160ff191683800117855562000168565b8280016001018555821562000168579182015b82811115620001685782518255916020019190600101906200014b565b50620001769291506200017a565b5090565b5b808211156200017657600081556001016200017b565b634e487b7160e01b600052604160045260246000fd5b600082601f830112620001b957600080fd5b81516001600160401b0380821115620001d657620001d662000191565b604051601f8301601f19908116603f0116810190828211818310171562000201576200020162000191565b816040528381526020925086838588010111156200021e57600080fd5b600091505b8382101562000242578582018301518183018401529082019062000223565b83821115620002545760008385830101525b9695505050505050565b6000806000606084860312156200027457600080fd5b83516001600160401b03808211156200028c57600080fd5b6200029a87838801620001a7565b94506020860151915080821115620002b157600080fd5b50620002c086828701620001a7565b925050604084015160ff81168114620002d857600080fd5b809150509250925092565b600181811c90821680620002f857607f821691505b602082108114156200031a57634e487b7160e01b600052602260045260246000fd5b50919050565b608051611ac36200033c600039600061024d0152611ac36000f3fe608060405234801561001057600080fd5b50600436106101c45760003560e01c806379cc6790116100f9578063a9059cbb11610097578063dd62ed3e11610071578063dd62ed3e1461040f578063e583983614610422578063f2fde38b1461044e578063f716932e1461046157600080fd5b8063a9059cbb146103c2578063cd046119146103d5578063ced67f0c146103e857600080fd5b80638da5cb5b116100d35780638da5cb5b1461039657806395d89b41146103a75780639dc29fac14610350578063a457c2d7146103af57600080fd5b806379cc679014610350578063893d20e8146103635780638d1fdf2f1461038357600080fd5b8063395093511161016657806345c8b1a61161014057806345c8b1a6146102ec5780634ce2f71a146103015780637029144c1461031457806370a082311461032757600080fd5b806339509351146102b357806340c10f19146102c657806342966c68146102d957600080fd5b806318160ddd116101a257806318160ddd1461022b57806323b872dd14610233578063313ce5671461024657806334faea1b1461027757600080fd5b806306fdde03146101c9578063095ea7b3146101e757806313f1a4a41461020a575b600080fd5b6101d1610474565b6040516101de9190611777565b60405180910390f35b6101fa6101f53660046117c6565b610506565b60405190151581526020016101de565b61021d6102183660046117c6565b61051e565b6040519081526020016101de565b60025461021d565b6101fa6102413660046117f0565b6105c0565b60405160ff7f00000000000000000000000000000000000000000000000000000000000000001681526020016101de565b61029e61028536600461182c565b6007602052600090815260409020805460019091015482565b604080519283526020830191909152016101de565b6101fa6102c13660046117c6565b6105e6565b6101fa6102d43660046117c6565b610608565b6101fa6102e7366004611847565b6106ce565b6102ff6102fa36600461182c565b6106e2565b005b6102ff61030f3660046117c6565b610773565b6102ff610322366004611903565b610805565b61021d61033536600461182c565b6001600160a01b031660009081526020819052604090205490565b6101fa61035e3660046117c6565b610839565b61036b610845565b6040516001600160a01b0390911681526020016101de565b6102ff61039136600461182c565b61085e565b6005546001600160a01b031661036b565b6101d16108eb565b6101fa6103bd3660046117c6565b6108fa565b6101fa6103d03660046117c6565b610980565b6102ff6103e33660046117c6565b61098e565b61029e6103f636600461182c565b6006602052600090815260409020805460019091015482565b61021d61041d366004611967565b610a18565b6101fa61043036600461182c565b6001600160a01b03166000908152600a602052604090205460ff1690565b6102ff61045c36600461182c565b610a43565b61021d61046f3660046117c6565b610aed565b6060600880546104839061199a565b80601f01602080910402602001604051908101604052809291908181526020018280546104af9061199a565b80156104fc5780601f106104d1576101008083540402835291602001916104fc565b820191906000526020600020905b8154815290600101906020018083116104df57829003601f168201915b5050505050905090565b600033610514818585610bd5565b5060019392505050565b6001600160a01b038216600090815260076020526040812080546105805760405162461bcd60e51b815260206004820152601460248201527334b73b30b634b210313934b233b2903a37b5b2b760611b60448201526064015b60405180910390fd5b8281600101600082825461059491906119eb565b909155506105a490503384610cf9565b6105b86001600160a01b0385163385610e53565b509092915050565b6000336105ce858285610eb6565b6105d9858585610f30565b60019150505b9392505050565b6000336105148185856105f98383610a18565b6106039190611a02565b610bd5565b33600090815260066020526040812080546106565760405162461bcd60e51b815260206004820152600e60248201526d34b73b30b634b21031b0b63632b960911b6044820152606401610577565b8281600101600082825461066a9190611a02565b90915550508054600182015411156106c45760405162461bcd60e51b815260206004820152601960248201527f657863656564732062726964676520737570706c7920636170000000000000006044820152606401610577565b6105148484611109565b60006106da3383610cf9565b506001919050565b336106f56005546001600160a01b031690565b6001600160a01b03161461071b5760405162461bcd60e51b815260040161057790611a1a565b6001600160a01b0381166000818152600a6020908152604091829020805460ff1916905590519182527f4feb53e305297ab8fb8f3420c95ea04737addc254a7270d8fc4605d2b9c61dba91015b60405180910390a150565b336107866005546001600160a01b031690565b6001600160a01b0316146107ac5760405162461bcd60e51b815260040161057790611a1a565b6001600160a01b038216600081815260066020908152604091829020849055815192835282018390527f59e1e4348943de408b89af8ab71e502ea722dd41efd1ff4a3548c60e83e91c6091015b60405180910390a15050565b61080d6111f4565b81516108209060089060208501906116b2565b5080516108349060099060208401906116b2565b505050565b60006105df838361124c565b60006108596005546001600160a01b031690565b905090565b336108716005546001600160a01b031690565b6001600160a01b0316146108975760405162461bcd60e51b815260040161057790611a1a565b6001600160a01b0381166000818152600a6020908152604091829020805460ff1916600117905590519182527f8a5c4736a33c7b7f29a2c34ea9ff9608afc5718d56f6fd6dcbd2d3711a1a49139101610768565b6060600980546104839061199a565b600033816109088286610a18565b9050838110156109685760405162461bcd60e51b815260206004820152602560248201527f45524332303a2064656372656173656420616c6c6f77616e63652062656c6f77604482015264207a65726f60d81b6064820152608401610577565b6109758286868403610bd5565b506001949350505050565b600033610514818585610f30565b336109a16005546001600160a01b031690565b6001600160a01b0316146109c75760405162461bcd60e51b815260040161057790611a1a565b6001600160a01b038216600081815260076020908152604091829020849055815192835282018390527f51c7b3899924578d835c066303e3f765c25fea17d7b18840cd109a90f5c5601f91016107f9565b6001600160a01b03918216600090815260016020908152604080832093909416825291909152205490565b33610a566005546001600160a01b031690565b6001600160a01b031614610a7c5760405162461bcd60e51b815260040161057790611a1a565b6001600160a01b038116610ae15760405162461bcd60e51b815260206004820152602660248201527f4f776e61626c653a206e6577206f776e657220697320746865207a65726f206160448201526564647265737360d01b6064820152608401610577565b610aea816112e8565b50565b6001600160a01b03821660009081526007602052604081208054610b4a5760405162461bcd60e51b815260206004820152601460248201527334b73b30b634b210313934b233b2903a37b5b2b760611b6044820152606401610577565b80546001820154610b5c908590611a02565b1115610b9c5760405162461bcd60e51b815260206004820152600f60248201526e065786365656420737761702063617608c1b6044820152606401610577565b82816001016000828254610bb09190611a02565b90915550610bc090503384611109565b6105b86001600160a01b03851633308661133a565b6001600160a01b038316610c375760405162461bcd60e51b8152602060048201526024808201527f45524332303a20617070726f76652066726f6d20746865207a65726f206164646044820152637265737360e01b6064820152608401610577565b6001600160a01b038216610c985760405162461bcd60e51b815260206004820152602260248201527f45524332303a20617070726f766520746f20746865207a65726f206164647265604482015261737360f01b6064820152608401610577565b6001600160a01b0383811660008181526001602090815260408083209487168084529482529182902085905590518481527f8c5be1e5ebec7d5bd14f71427d1e84f3dd0314c0f7b2291e5b200ac8c7c3b925910160405180910390a3505050565b6001600160a01b038216610d595760405162461bcd60e51b815260206004820152602160248201527f45524332303a206275726e2066726f6d20746865207a65726f206164647265736044820152607360f81b6064820152608401610577565b610d6582600083611372565b6001600160a01b03821660009081526020819052604090205481811015610dd95760405162461bcd60e51b815260206004820152602260248201527f45524332303a206275726e20616d6f756e7420657863656564732062616c616e604482015261636560f01b6064820152608401610577565b6001600160a01b0383166000908152602081905260408120838303905560028054849290610e089084906119eb565b90915550506040518281526000906001600160a01b038516907fddf252ad1be2c89b69c2b068fc378daa952ba7f163c4a11628f55a4df523b3ef9060200160405180910390a3505050565b6040516001600160a01b03831660248201526044810182905261083490849063a9059cbb60e01b906064015b60408051601f198184030181529190526020810180516001600160e01b03166001600160e01b03199093169290921790915261145f565b6000610ec28484610a18565b90506000198114610f2a5781811015610f1d5760405162461bcd60e51b815260206004820152601d60248201527f45524332303a20696e73756666696369656e7420616c6c6f77616e63650000006044820152606401610577565b610f2a8484848403610bd5565b50505050565b6001600160a01b038316610f945760405162461bcd60e51b815260206004820152602560248201527f45524332303a207472616e736665722066726f6d20746865207a65726f206164604482015264647265737360d81b6064820152608401610577565b6001600160a01b038216610ff65760405162461bcd60e51b815260206004820152602360248201527f45524332303a207472616e7366657220746f20746865207a65726f206164647260448201526265737360e81b6064820152608401610577565b611001838383611372565b6001600160a01b038316600090815260208190526040902054818110156110795760405162461bcd60e51b815260206004820152602660248201527f45524332303a207472616e7366657220616d6f756e7420657863656564732062604482015265616c616e636560d01b6064820152608401610577565b6001600160a01b038085166000908152602081905260408082208585039055918516815290812080548492906110b0908490611a02565b92505081905550826001600160a01b0316846001600160a01b03167fddf252ad1be2c89b69c2b068fc378daa952ba7f163c4a11628f55a4df523b3ef846040516110fc91815260200190565b60405180910390a3610f2a565b6001600160a01b03821661115f5760405162461bcd60e51b815260206004820152601f60248201527f45524332303a206d696e7420746f20746865207a65726f2061646472657373006044820152606401610577565b61116b60008383611372565b806002600082825461117d9190611a02565b90915550506001600160a01b038216600090815260208190526040812080548392906111aa908490611a02565b90915550506040518181526001600160a01b038316906000907fddf252ad1be2c89b69c2b068fc378daa952ba7f163c4a11628f55a4df523b3ef9060200160405180910390a35050565b6005546001600160a01b0316156112415760405162461bcd60e51b81526020600482015260116024820152701bdddb995c88185b1c9958591e481cd95d607a1b6044820152606401610577565b61124a336112e8565b565b336000908152600660205260408120805415158061126e575060008160010154115b156112d35782816001015410156112c75760405162461bcd60e51b815260206004820152601c60248201527f6578636565647320627269646765206d696e74656420616d6f756e74000000006044820152606401610577565b60018101805484900390555b6112de843385610eb6565b6105148484610cf9565b600580546001600160a01b038381166001600160a01b0319831681179093556040519116919082907f8be0079c531659141344cd1fd0a4f28419497f9722a3daafe3b4186f6b6457e090600090a35050565b6040516001600160a01b0380851660248301528316604482015260648101829052610f2a9085906323b872dd60e01b90608401610e7f565b6001600160a01b0383166000908152600a602052604090205460ff16156113ea5760405162461bcd60e51b815260206004820152602660248201527f4552433230467265657a61626c653a2066726f6d206163636f756e7420697320604482015265333937bd32b760d11b6064820152608401610577565b6001600160a01b0382166000908152600a602052604090205460ff16156108345760405162461bcd60e51b8152602060048201526024808201527f4552433230467265657a61626c653a20746f206163636f756e7420697320667260448201526337bd32b760e11b6064820152608401610577565b60006114b4826040518060400160405280602081526020017f5361666545524332303a206c6f772d6c6576656c2063616c6c206661696c6564815250856001600160a01b03166115319092919063ffffffff16565b80519091501561083457808060200190518101906114d29190611a4f565b6108345760405162461bcd60e51b815260206004820152602a60248201527f5361666545524332303a204552433230206f7065726174696f6e20646964206e6044820152691bdd081cdd58d8d9595960b21b6064820152608401610577565b60606115408484600085611548565b949350505050565b6060824710156115a95760405162461bcd60e51b815260206004820152602660248201527f416464726573733a20696e73756666696369656e742062616c616e636520666f6044820152651c8818d85b1b60d21b6064820152608401610577565b6001600160a01b0385163b6116005760405162461bcd60e51b815260206004820152601d60248201527f416464726573733a2063616c6c20746f206e6f6e2d636f6e74726163740000006044820152606401610577565b600080866001600160a01b0316858760405161161c9190611a71565b60006040518083038185875af1925050503d8060008114611659576040519150601f19603f3d011682016040523d82523d6000602084013e61165e565b606091505b509150915061166e828286611679565b979650505050505050565b606083156116885750816105df565b8251156116985782518084602001fd5b8160405162461bcd60e51b81526004016105779190611777565b8280546116be9061199a565b90600052602060002090601f0160209004810192826116e05760008555611726565b82601f106116f957805160ff1916838001178555611726565b82800160010185558215611726579182015b8281111561172657825182559160200191906001019061170b565b50611732929150611736565b5090565b5b808211156117325760008155600101611737565b60005b8381101561176657818101518382015260200161174e565b83811115610f2a5750506000910152565b602081526000825180602084015261179681604085016020870161174b565b601f01601f19169190910160400192915050565b80356001600160a01b03811681146117c157600080fd5b919050565b600080604083850312156117d957600080fd5b6117e2836117aa565b946020939093013593505050565b60008060006060848603121561180557600080fd5b61180e846117aa565b925061181c602085016117aa565b9150604084013590509250925092565b60006020828403121561183e57600080fd5b6105df826117aa565b60006020828403121561185957600080fd5b5035919050565b634e487b7160e01b600052604160045260246000fd5b600082601f83011261188757600080fd5b813567ffffffffffffffff808211156118a2576118a2611860565b604051601f8301601f19908116603f011681019082821181831017156118ca576118ca611860565b816040528381528660208588010111156118e357600080fd5b836020870160208301376000602085830101528094505050505092915050565b6000806040838503121561191657600080fd5b823567ffffffffffffffff8082111561192e57600080fd5b61193a86838701611876565b9350602085013591508082111561195057600080fd5b5061195d85828601611876565b9150509250929050565b6000806040838503121561197a57600080fd5b611983836117aa565b9150611991602084016117aa565b90509250929050565b600181811c908216806119ae57607f821691505b602082108114156119cf57634e487b7160e01b600052602260045260246000fd5b50919050565b634e487b7160e01b600052601160045260246000fd5b6000828210156119fd576119fd6119d5565b500390565b60008219821115611a1557611a156119d5565b500190565b6020808252818101527f4f776e61626c653a2063616c6c6572206973206e6f7420746865206f776e6572604082015260600190565b600060208284031215611a6157600080fd5b815180151581146105df57600080fd5b60008251611a8381846020870161174b565b919091019291505056fea2646970667358221220d934c221585eeaf545c4ef1253228d3a286cc66f91b53953a67da6a45aca806464736f6c63430008090033",
  "linkReferences": {},
  "deployedLinkReferences": {}
}