{
  "_format": "hh-sol-artifact-1",
  "contractName": "ExchangeDeposit",
  "sourceName": "contracts/bitbank/ExchangeDeposit.sol",
  "abi": [
    {
      "inputs": [
        {
          "internalType": "address payable",
          "name": "coldAddr",
          "type": "address"
        },
        {
          "internalType": "address payable",
          "name": "adminAddr",
          "type": "address"
        },
        {
          "internalType": "address payable",
          "name": "thisAddr",
          "type": "address"
        }
      ],
      "stateMutability": "nonpayable",
      "type": "constructor"
    },
    {
      "anonymous": false,
      "inputs": [
        {
          "indexed": true,
          "internalType": "address",
          "name": "receiver",
          "type": "address"
        },
        {
          "indexed": false,
          "internalType": "uint256",
          "name": "amount",
          "type": "uint256"
        }
      ],
      "name": "Deposit",
      "type": "event"
    },
    {
      "stateMutability": "payable",
      "type": "fallback"
    },
    {
      "inputs": [],
      "name": "adminAddress",
      "outputs": [
        {
          "internalType": "address payable",
          "name": "",
          "type": "address"
        }
      ],
      "stateMutability": "view",
      "type": "function"
    },
    {
      "inputs": [
        {
          "internalType": "address payable",
          "name": "newAddress",
          "type": "address"
        }
      ],
      "name": "changeColdAddress",
      "outputs": [],
      "stateMutability": "nonpayable",
      "type": "function"
    },
    {
      "inputs": [
        {
          "internalType": "address payable",
          "name": "newAddress",
          "type": "address"
        }
      ],
      "name": "changeImplAddress",
      "outputs": [],
      "stateMutability": "nonpayable",
      "type": "function"
    },
    {
      "inputs": [
        {
          "internalType": "uint256",
          "name": "newMinInput",
          "type": "uint256"
        }
      ],
      "name": "changeMinInput",
      "outputs": [],
      "stateMutability": "nonpayable",
      "type": "function"
    },
    {
      "inputs": [],
      "name": "coldAddress",
      "outputs": [
        {
          "internalType": "address payable",
          "name": "",
          "type": "address"
        }
      ],
      "stateMutability": "view",
      "type": "function"
    },
    {
      "inputs": [
        {
          "internalType": "contract IERC20",
          "name": "instance",
          "type": "address"
        }
      ],
      "name": "gatherErc20",
      "outputs": [],
      "stateMutability": "nonpayable",
      "type": "function"
    },
    {
      "inputs": [],
      "name": "gatherEth",
      "outputs": [],
      "stateMutability": "nonpayable",
      "type": "function"
    },
    {
      "inputs": [],
      "name": "implementation",
      "outputs": [
        {
          "internalType": "address payable",
          "name": "",
          "type": "address"
        }
      ],
      "stateMutability": "view",
      "type": "function"
    },
    {
      "inputs": [],
      "name": "kill",
      "outputs": [],
      "stateMutability": "nonpayable",
      "type": "function"
    },
    {
      "inputs": [],
      "name": "minimumInput",
      "outputs": [
        {
          "internalType": "uint256",
          "name": "",
          "type": "uint256"
        }
      ],
      "stateMutability": "view",
      "type": "function"
    },
    {
      "inputs": [],
      "name": "thisAddress",
      "outputs": [
        {
          "internalType": "address payable",
          "name": "",
          "type": "address"
        }
      ],
      "stateMutability": "view",
      "type": "function"
    },
    {
      "stateMutability": "payable",
      "type": "receive"
    }
  ],
  "bytecode": "0x60c0604052662386f26fc1000060015534801561001b57600080fd5b506040516115783803806115788339818101604052606081101561003e57600080fd5b50805160208201516040909201519091906001600160a01b038316610098576040805162461bcd60e51b81526020600482015260196024820152600080516020611558833981519152604482015290519081900360640190fd5b6001600160a01b0382166100e1576040805162461bcd60e51b81526020600482015260196024820152600080516020611558833981519152604482015290519081900360640190fd5b6001600160a01b03811661012a576040805162461bcd60e51b81526020600482015260196024820152600080516020611558833981519152604482015290519081900360640190fd5b600080546001600160a01b0319166001600160a01b03948516178155606083811b6001600160601b03199081166080529083901b1660a0529183169216906113b0906101a890398061059152806105cc5280610e685280610f5852508061077b52806109055280610aa55280610d685280610f3452506113b06000f3fe6080604052600436106100a05760003560e01c806388bc06731161006457806388bc0673146104c7578063ab413f1c146104dc578063cb56d18e146104f1578063d4dca69b14610524578063dca67d7b14610539578063fc6f94681461056c5761021d565b80632663d52d146103fb5780632ffdb1c51461042757806341c0e1b51461044e5780635c60da1b146104635780636296aa3f146104945761021d565b3661021d576000546001600160a01b03166100f2576040805162461bcd60e51b815260206004820152600d60248201526c09240c2da40c8cac2c840745a5609b1b604482015290519081900360640190fd5b60015434101561013c576040805162461bcd60e51b815260206004820152601060248201526f105b5bdd5b9d081d1bdbc81cdb585b1b60821b604482015290519081900360640190fd5b600080546040516001600160a01b039091169034908381818185875af1925050503d8060008114610189576040519150601f19603f3d011682016040523d82523d6000602084013e61018e565b606091505b50509050806101e4576040805162461bcd60e51b815260206004820152601760248201527f466f7277617264696e672066756e6473206661696c6564000000000000000000604482015290519081900360640190fd5b60408051348152905133917fe1fffcc4923d04b559f4d29a8bfc6cda04eb5b0d3c460751c2402c5c5cc9109c919081900360200190a250005b6000610227610581565b6001600160a01b031663ab413f1c6040518163ffffffff1660e01b815260040160206040518083038186803b15801561025f57600080fd5b505afa158015610273573d6000803e3d6000fd5b505050506040513d602081101561028957600080fd5b50516001600160a01b031614156102d7576040805162461bcd60e51b815260206004820152600d60248201526c09240c2da40c8cac2c840745a5609b1b604482015290519081900360640190fd5b60006102e16105bc565b90506001600160a01b03811661033e576040805162461bcd60e51b815260206004820152601960248201527f46616c6c6261636b20636f6e7472616374206e6f742073657400000000000000604482015290519081900360640190fd5b6000816001600160a01b03166000366040518083838082843760405192019450600093509091505080830381855af49150503d806000811461039c576040519150601f19603f3d011682016040523d82523d6000602084013e6103a1565b606091505b50509050806103f7576040805162461bcd60e51b815260206004820152601860248201527f46616c6c6261636b20636f6e7472616374206661696c65640000000000000000604482015290519081900360640190fd5b5050005b34801561040757600080fd5b506104256004803603602081101561041e57600080fd5b5035610664565b005b34801561043357600080fd5b5061043c6107e8565b60408051918252519081900360200190f35b34801561045a57600080fd5b506104256107ee565b34801561046f57600080fd5b5061047861097f565b604080516001600160a01b039092168252519081900360200190f35b3480156104a057600080fd5b50610425600480360360208110156104b757600080fd5b50356001600160a01b031661098e565b3480156104d357600080fd5b50610425610b8a565b3480156104e857600080fd5b50610478610c42565b3480156104fd57600080fd5b506104256004803603602081101561051457600080fd5b50356001600160a01b0316610c51565b34801561053057600080fd5b50610478610e66565b34801561054557600080fd5b506104256004803603602081101561055c57600080fd5b50356001600160a01b0316610e8a565b34801561057857600080fd5b50610478610f32565b600061058b610f56565b6105b5577f00000000000000000000000000000000000000000000000000000000000000006105b7565b305b905090565b60006105c6610f56565b610654577f00000000000000000000000000000000000000000000000000000000000000006001600160a01b0316635c60da1b6040518163ffffffff1660e01b815260040160206040518083038186803b15801561062357600080fd5b505afa158015610637573d6000803e3d6000fd5b505050506040513d602081101561064d57600080fd5b50516105b7565b506002546001600160a01b031690565b61066c610f56565b6106b6576040805162461bcd60e51b815260206004820152601660248201527510d85b1b1a5b99c815dc9bdb99c810dbdb9d1c9858dd60521b604482015290519081900360640190fd5b60006106c0610581565b6001600160a01b031663ab413f1c6040518163ffffffff1660e01b815260040160206040518083038186803b1580156106f857600080fd5b505afa15801561070c573d6000803e3d6000fd5b505050506040513d602081101561072257600080fd5b50516001600160a01b03161415610770576040805162461bcd60e51b815260206004820152600d60248201526c09240c2da40c8cac2c840745a5609b1b604482015290519081900360640190fd5b336001600160a01b037f000000000000000000000000000000000000000000000000000000000000000016146107e3576040805162461bcd60e51b81526020600482015260136024820152722ab730baba3437b934bd32b21031b0b63632b960691b604482015290519081900360640190fd5b600155565b60015481565b6107f6610f56565b610840576040805162461bcd60e51b815260206004820152601660248201527510d85b1b1a5b99c815dc9bdb99c810dbdb9d1c9858dd60521b604482015290519081900360640190fd5b600061084a610581565b6001600160a01b031663ab413f1c6040518163ffffffff1660e01b815260040160206040518083038186803b15801561088257600080fd5b505afa158015610896573d6000803e3d6000fd5b505050506040513d60208110156108ac57600080fd5b50516001600160a01b031614156108fa576040805162461bcd60e51b815260206004820152600d60248201526c09240c2da40c8cac2c840745a5609b1b604482015290519081900360640190fd5b336001600160a01b037f0000000000000000000000000000000000000000000000000000000000000000161461096d576040805162461bcd60e51b81526020600482015260136024820152722ab730baba3437b934bd32b21031b0b63632b960691b604482015290519081900360640190fd5b600080546001600160a01b0319169055565b6002546001600160a01b031681565b610996610f56565b6109e0576040805162461bcd60e51b815260206004820152601660248201527510d85b1b1a5b99c815dc9bdb99c810dbdb9d1c9858dd60521b604482015290519081900360640190fd5b60006109ea610581565b6001600160a01b031663ab413f1c6040518163ffffffff1660e01b815260040160206040518083038186803b158015610a2257600080fd5b505afa158015610a36573d6000803e3d6000fd5b505050506040513d6020811015610a4c57600080fd5b50516001600160a01b03161415610a9a576040805162461bcd60e51b815260206004820152600d60248201526c09240c2da40c8cac2c840745a5609b1b604482015290519081900360640190fd5b336001600160a01b037f00000000000000000000000000000000000000000000000000000000000000001614610b0d576040805162461bcd60e51b81526020600482015260136024820152722ab730baba3437b934bd32b21031b0b63632b960691b604482015290519081900360640190fd5b6001600160a01b038116610b68576040805162461bcd60e51b815260206004820152601960248201527f30783020697320616e20696e76616c6964206164647265737300000000000000604482015290519081900360640190fd5b600080546001600160a01b0319166001600160a01b0392909216919091179055565b4780610b965750610c40565b6000610ba0610f85565b6040516001600160a01b0391909116908390600081818185875af1925050503d8060008114610beb576040519150601f19603f3d011682016040523d82523d6000602084013e610bf0565b606091505b5050905080610c3d576040805162461bcd60e51b8152602060048201526014602482015273086deead8c840dcdee840cec2e8d0cae4408aa8960631b604482015290519081900360640190fd5b50505b565b6000546001600160a01b031681565b610c59610f56565b610ca3576040805162461bcd60e51b815260206004820152601660248201527510d85b1b1a5b99c815dc9bdb99c810dbdb9d1c9858dd60521b604482015290519081900360640190fd5b6000610cad610581565b6001600160a01b031663ab413f1c6040518163ffffffff1660e01b815260040160206040518083038186803b158015610ce557600080fd5b505afa158015610cf9573d6000803e3d6000fd5b505050506040513d6020811015610d0f57600080fd5b50516001600160a01b03161415610d5d576040805162461bcd60e51b815260206004820152600d60248201526c09240c2da40c8cac2c840745a5609b1b604482015290519081900360640190fd5b336001600160a01b037f00000000000000000000000000000000000000000000000000000000000000001614610dd0576040805162461bcd60e51b81526020600482015260136024820152722ab730baba3437b934bd32b21031b0b63632b960691b604482015290519081900360640190fd5b6001600160a01b0381161580610df35750610df3816001600160a01b0316611080565b610e44576040805162461bcd60e51b815260206004820152601f60248201527f696d706c656d656e746174696f6e206d75737420626520636f6e747261637400604482015290519081900360640190fd5b600280546001600160a01b0319166001600160a01b0392909216919091179055565b7f000000000000000000000000000000000000000000000000000000000000000081565b604080516370a0823160e01b815230600482015290516000916001600160a01b038416916370a0823191602480820192602092909190829003018186803b158015610ed457600080fd5b505afa158015610ee8573d6000803e3d6000fd5b505050506040513d6020811015610efe57600080fd5b5051905080610f0d5750610f2f565b610c3d610f18610f85565b6001600160a01b038416908363ffffffff61108616565b50565b7f000000000000000000000000000000000000000000000000000000000000000081565b7f00000000000000000000000000000000000000000000000000000000000000006001600160a01b0316301490565b600080610f90610581565b90506000816001600160a01b031663ab413f1c6040518163ffffffff1660e01b815260040160206040518083038186803b158015610fcd57600080fd5b505afa158015610fe1573d6000803e3d6000fd5b505050506040513d6020811015610ff757600080fd5b5051905060006001600160a01b038216156110125781611078565b826001600160a01b031663fc6f94686040518163ffffffff1660e01b815260040160206040518083038186803b15801561104b57600080fd5b505afa15801561105f573d6000803e3d6000fd5b505050506040513d602081101561107557600080fd5b50515b935050505090565b3b151590565b604080516001600160a01b038416602482015260448082018490528251808303909101815260649091019091526020810180516001600160e01b031663a9059cbb60e01b1790526110d89084906110dd565b505050565b6060611132826040518060400160405280602081526020017f5361666545524332303a206c6f772d6c6576656c2063616c6c206661696c6564815250856001600160a01b031661118e9092919063ffffffff16565b8051909150156110d85780806020019051602081101561115157600080fd5b50516110d85760405162461bcd60e51b815260040180806020018281038252602a815260200180611351602a913960400191505060405180910390fd5b606061119d84846000856111a5565b949350505050565b60606111b085611080565b611201576040805162461bcd60e51b815260206004820152601d60248201527f416464726573733a2063616c6c20746f206e6f6e2d636f6e7472616374000000604482015290519081900360640190fd5b60006060866001600160a01b031685876040518082805190602001908083835b602083106112405780518252601f199092019160209182019101611221565b6001836020036101000a03801982511681845116808217855250505050505090500191505060006040518083038185875af1925050503d80600081146112a2576040519150601f19603f3d011682016040523d82523d6000602084013e6112a7565b606091505b509150915081156112bb57915061119d9050565b8051156112cb5780518082602001fd5b8360405162461bcd60e51b81526004018080602001828103825283818151815260200191508051906020019080838360005b838110156113155781810151838201526020016112fd565b50505050905090810190601f1680156113425780820380516001836020036101000a031916815260200191505b509250505060405180910390fdfe5361666545524332303a204552433230206f7065726174696f6e20646964206e6f742073756363656564a2646970667358221220186bde0d9b36823fed4f13c80a6d371e15ae371d5d8c928dcf853bd9560c276c64736f6c634300060b003330783020697320616e20696e76616c6964206164647265737300000000000000",
  "linkReferences": {},
  "deployedLinkReferences": {}
}