{
  "_format": "hh-sol-artifact-1",
  "contractName": "GovernedOwnerProxy",
  "sourceName": "contracts/cBridge/governed-owner/GovernedOwnerProxy.sol",
  "abi": [
    {
      "inputs": [
        {
          "internalType": "address",
          "name": "_initializer",
          "type": "address"
        }
      ],
      "stateMutability": "nonpayable",
      "type": "constructor"
    },
    {
      "anonymous": false,
      "inputs": [
        {
          "indexed": false,
          "internalType": "uint256",
          "name": "proposalId",
          "type": "uint256"
        },
        {
          "indexed": false,
          "internalType": "address",
          "name": "target",
          "type": "address"
        },
        {
          "indexed": false,
          "internalType": "address",
          "name": "proxy",
          "type": "address"
        },
        {
          "indexed": false,
          "internalType": "address",
          "name": "newAdmin",
          "type": "address"
        }
      ],
      "name": "ChangeProxyAdminProposalCreated",
      "type": "event"
    },
    {
      "anonymous": false,
      "inputs": [
        {
          "indexed": false,
          "internalType": "uint256",
          "name": "proposalId",
          "type": "uint256"
        },
        {
          "indexed": false,
          "internalType": "address",
          "name": "target",
          "type": "address"
        },
        {
          "indexed": false,
          "internalType": "address",
          "name": "token",
          "type": "address"
        },
        {
          "indexed": false,
          "internalType": "uint256",
          "name": "amount",
          "type": "uint256"
        }
      ],
      "name": "DrainTokenProposalCreated",
      "type": "event"
    },
    {
      "anonymous": false,
      "inputs": [
        {
          "indexed": false,
          "internalType": "uint256",
          "name": "proposalId",
          "type": "uint256"
        },
        {
          "indexed": false,
          "internalType": "address",
          "name": "target",
          "type": "address"
        },
        {
          "indexed": false,
          "internalType": "uint256",
          "name": "period",
          "type": "uint256"
        }
      ],
      "name": "IncreaseNoticePeriodProposalCreated",
      "type": "event"
    },
    {
      "anonymous": false,
      "inputs": [
        {
          "indexed": false,
          "internalType": "uint256",
          "name": "proposalId",
          "type": "uint256"
        },
        {
          "indexed": false,
          "internalType": "address",
          "name": "target",
          "type": "address"
        }
      ],
      "name": "NotifyResetSignersProposalCreated",
      "type": "event"
    },
    {
      "anonymous": false,
      "inputs": [
        {
          "indexed": false,
          "internalType": "uint256",
          "name": "proposalId",
          "type": "uint256"
        },
        {
          "indexed": false,
          "internalType": "address",
          "name": "target",
          "type": "address"
        },
        {
          "indexed": false,
          "internalType": "address[]",
          "name": "signers",
          "type": "address[]"
        },
        {
          "indexed": false,
          "internalType": "uint256[]",
          "name": "powers",
          "type": "uint256[]"
        }
      ],
      "name": "ResetSignersProposalCreated",
      "type": "event"
    },
    {
      "anonymous": false,
      "inputs": [
        {
          "indexed": false,
          "internalType": "uint256",
          "name": "proposalId",
          "type": "uint256"
        },
        {
          "indexed": false,
          "internalType": "address",
          "name": "target",
          "type": "address"
        },
        {
          "indexed": false,
          "internalType": "enum OwnerDataTypes.BridgeType",
          "name": "bridgeType",
          "type": "uint8"
        },
        {
          "indexed": false,
          "internalType": "address",
          "name": "bridgeAddr",
          "type": "address"
        }
      ],
      "name": "SetBridgeAddressProposalCreated",
      "type": "event"
    },
    {
      "anonymous": false,
      "inputs": [
        {
          "indexed": false,
          "internalType": "uint256",
          "name": "proposalId",
          "type": "uint256"
        },
        {
          "indexed": false,
          "internalType": "address",
          "name": "target",
          "type": "address"
        },
        {
          "indexed": false,
          "internalType": "address",
          "name": "bridgeToken",
          "type": "address"
        },
        {
          "indexed": false,
          "internalType": "uint256",
          "name": "cap",
          "type": "uint256"
        }
      ],
      "name": "SetBridgeTokenSwapCapProposalCreated",
      "type": "event"
    },
    {
      "anonymous": false,
      "inputs": [
        {
          "indexed": false,
          "internalType": "uint256",
          "name": "proposalId",
          "type": "uint256"
        },
        {
          "indexed": false,
          "internalType": "address",
          "name": "target",
          "type": "address"
        },
        {
          "indexed": false,
          "internalType": "address",
          "name": "addr",
          "type": "address"
        }
      ],
      "name": "SetGovContractProposalCreated",
      "type": "event"
    },
    {
      "anonymous": false,
      "inputs": [
        {
          "indexed": false,
          "internalType": "uint256",
          "name": "proposalId",
          "type": "uint256"
        },
        {
          "indexed": false,
          "internalType": "address",
          "name": "target",
          "type": "address"
        },
        {
          "indexed": false,
          "internalType": "uint256",
          "name": "maxSlashFactor",
          "type": "uint256"
        }
      ],
      "name": "SetMaxSlashFactorProposalCreated",
      "type": "event"
    },
    {
      "anonymous": false,
      "inputs": [
        {
          "indexed": false,
          "internalType": "uint256",
          "name": "proposalId",
          "type": "uint256"
        },
        {
          "indexed": false,
          "internalType": "address",
          "name": "target",
          "type": "address"
        },
        {
          "indexed": false,
          "internalType": "enum OwnerDataTypes.MsgFeeType",
          "name": "feeType",
          "type": "uint8"
        },
        {
          "indexed": false,
          "internalType": "uint256",
          "name": "fee",
          "type": "uint256"
        }
      ],
      "name": "SetMsgFeeProposalCreated",
      "type": "event"
    },
    {
      "anonymous": false,
      "inputs": [
        {
          "indexed": false,
          "internalType": "uint256",
          "name": "proposalId",
          "type": "uint256"
        },
        {
          "indexed": false,
          "internalType": "address",
          "name": "target",
          "type": "address"
        },
        {
          "indexed": false,
          "internalType": "address",
          "name": "token",
          "type": "address"
        }
      ],
      "name": "SetNativeWrapProposalCreated",
      "type": "event"
    },
    {
      "anonymous": false,
      "inputs": [
        {
          "indexed": false,
          "internalType": "uint256",
          "name": "proposalId",
          "type": "uint256"
        },
        {
          "indexed": false,
          "internalType": "address",
          "name": "target",
          "type": "address"
        },
        {
          "indexed": false,
          "internalType": "uint256",
          "name": "usage",
          "type": "uint256"
        }
      ],
      "name": "SetPreExecuteMessageGasUsageProposalCreated",
      "type": "event"
    },
    {
      "anonymous": false,
      "inputs": [
        {
          "indexed": false,
          "internalType": "uint256",
          "name": "proposalId",
          "type": "uint256"
        },
        {
          "indexed": false,
          "internalType": "address",
          "name": "target",
          "type": "address"
        },
        {
          "indexed": false,
          "internalType": "address",
          "name": "addr",
          "type": "address"
        }
      ],
      "name": "SetRewardContractProposalCreated",
      "type": "event"
    },
    {
      "anonymous": false,
      "inputs": [
        {
          "indexed": false,
          "internalType": "uint256",
          "name": "proposalId",
          "type": "uint256"
        },
        {
          "indexed": false,
          "internalType": "address",
          "name": "target",
          "type": "address"
        },
        {
          "indexed": false,
          "internalType": "bool",
          "name": "enabled",
          "type": "bool"
        }
      ],
      "name": "SetWhitelistEnableProposalCreated",
      "type": "event"
    },
    {
      "anonymous": false,
      "inputs": [
        {
          "indexed": false,
          "internalType": "uint256",
          "name": "proposalId",
          "type": "uint256"
        },
        {
          "indexed": false,
          "internalType": "address",
          "name": "target",
          "type": "address"
        },
        {
          "indexed": false,
          "internalType": "uint256",
          "name": "newOwner",
          "type": "uint256"
        }
      ],
      "name": "TransferOwnershipProposalCreated",
      "type": "event"
    },
    {
      "anonymous": false,
      "inputs": [
        {
          "indexed": false,
          "internalType": "uint256",
          "name": "proposalId",
          "type": "uint256"
        },
        {
          "indexed": false,
          "internalType": "address",
          "name": "target",
          "type": "address"
        },
        {
          "indexed": false,
          "internalType": "address",
          "name": "bridgeAddr",
          "type": "address"
        }
      ],
      "name": "UpdateBridgeProposalCreated",
      "type": "event"
    },
    {
      "anonymous": false,
      "inputs": [
        {
          "indexed": false,
          "internalType": "uint256",
          "name": "proposalId",
          "type": "uint256"
        },
        {
          "indexed": false,
          "internalType": "address",
          "name": "target",
          "type": "address"
        },
        {
          "indexed": false,
          "internalType": "address",
          "name": "bridge",
          "type": "address"
        },
        {
          "indexed": false,
          "internalType": "uint256",
          "name": "cap",
          "type": "uint256"
        }
      ],
      "name": "UpdateBridgeSupplyCapProposalCreated",
      "type": "event"
    },
    {
      "anonymous": false,
      "inputs": [
        {
          "indexed": false,
          "internalType": "uint256",
          "name": "proposalId",
          "type": "uint256"
        },
        {
          "indexed": false,
          "internalType": "address",
          "name": "target",
          "type": "address"
        },
        {
          "indexed": false,
          "internalType": "enum OwnerDataTypes.Action",
          "name": "action",
          "type": "uint8"
        },
        {
          "indexed": false,
          "internalType": "address",
          "name": "account",
          "type": "address"
        }
      ],
      "name": "UpdateGovernorProposalCreated",
      "type": "event"
    },
    {
      "anonymous": false,
      "inputs": [
        {
          "indexed": false,
          "internalType": "uint256",
          "name": "proposalId",
          "type": "uint256"
        },
        {
          "indexed": false,
          "internalType": "address",
          "name": "target",
          "type": "address"
        },
        {
          "indexed": false,
          "internalType": "enum OwnerDataTypes.Action",
          "name": "action",
          "type": "uint8"
        },
        {
          "indexed": false,
          "internalType": "address",
          "name": "account",
          "type": "address"
        }
      ],
      "name": "UpdatePauserProposalCreated",
      "type": "event"
    },
    {
      "anonymous": false,
      "inputs": [
        {
          "indexed": false,
          "internalType": "uint256",
          "name": "proposalId",
          "type": "uint256"
        },
        {
          "indexed": false,
          "internalType": "address",
          "name": "target",
          "type": "address"
        },
        {
          "indexed": false,
          "internalType": "enum OwnerDataTypes.Action",
          "name": "action",
          "type": "uint8"
        },
        {
          "indexed": false,
          "internalType": "address",
          "name": "token",
          "type": "address"
        },
        {
          "indexed": false,
          "internalType": "uint256",
          "name": "supply",
          "type": "uint256"
        }
      ],
      "name": "UpdateSupplyProposalCreated",
      "type": "event"
    },
    {
      "anonymous": false,
      "inputs": [
        {
          "indexed": false,
          "internalType": "uint256",
          "name": "proposalId",
          "type": "uint256"
        },
        {
          "indexed": false,
          "internalType": "address",
          "name": "target",
          "type": "address"
        },
        {
          "indexed": false,
          "internalType": "enum OwnerDataTypes.Action",
          "name": "action",
          "type": "uint8"
        },
        {
          "indexed": false,
          "internalType": "address",
          "name": "account",
          "type": "address"
        }
      ],
      "name": "UpdateWhitelistedProposalCreated",
      "type": "event"
    },
    {
      "anonymous": false,
      "inputs": [
        {
          "indexed": false,
          "internalType": "uint256",
          "name": "proposalId",
          "type": "uint256"
        },
        {
          "indexed": false,
          "internalType": "address",
          "name": "target",
          "type": "address"
        },
        {
          "indexed": false,
          "internalType": "address",
          "name": "proxy",
          "type": "address"
        },
        {
          "indexed": false,
          "internalType": "address",
          "name": "implementation",
          "type": "address"
        },
        {
          "indexed": false,
          "internalType": "bytes",
          "name": "data",
          "type": "bytes"
        }
      ],
      "name": "UpgradeAndCallProposalCreated",
      "type": "event"
    },
    {
      "anonymous": false,
      "inputs": [
        {
          "indexed": false,
          "internalType": "uint256",
          "name": "proposalId",
          "type": "uint256"
        },
        {
          "indexed": false,
          "internalType": "address",
          "name": "target",
          "type": "address"
        },
        {
          "indexed": false,
          "internalType": "address",
          "name": "proxy",
          "type": "address"
        },
        {
          "indexed": false,
          "internalType": "address",
          "name": "implementation",
          "type": "address"
        }
      ],
      "name": "UpgradeProposalCreated",
      "type": "event"
    },
    {
      "anonymous": false,
      "inputs": [
        {
          "indexed": false,
          "internalType": "uint256",
          "name": "proposalId",
          "type": "uint256"
        },
        {
          "indexed": false,
          "internalType": "address",
          "name": "target",
          "type": "address"
        },
        {
          "indexed": false,
          "internalType": "address",
          "name": "implementation",
          "type": "address"
        },
        {
          "indexed": false,
          "internalType": "bytes",
          "name": "data",
          "type": "bytes"
        }
      ],
      "name": "UpgradeToAndCallProposalCreated",
      "type": "event"
    },
    {
      "anonymous": false,
      "inputs": [
        {
          "indexed": false,
          "internalType": "uint256",
          "name": "proposalId",
          "type": "uint256"
        },
        {
          "indexed": false,
          "internalType": "address",
          "name": "target",
          "type": "address"
        },
        {
          "indexed": false,
          "internalType": "address",
          "name": "implementation",
          "type": "address"
        }
      ],
      "name": "UpgradeToProposalCreated",
      "type": "event"
    },
    {
      "inputs": [],
      "name": "gov",
      "outputs": [
        {
          "internalType": "contract SimpleGovernance",
          "name": "",
          "type": "address"
        }
      ],
      "stateMutability": "view",
      "type": "function"
    },
    {
      "inputs": [
        {
          "internalType": "contract SimpleGovernance",
          "name": "_gov",
          "type": "address"
        }
      ],
      "name": "initGov",
      "outputs": [],
      "stateMutability": "nonpayable",
      "type": "function"
    },
    {
      "inputs": [
        {
          "internalType": "address",
          "name": "_target",
          "type": "address"
        },
        {
          "internalType": "address",
          "name": "_proxy",
          "type": "address"
        },
        {
          "internalType": "address",
          "name": "_newAdmin",
          "type": "address"
        }
      ],
      "name": "proposeChangeProxyAdmin",
      "outputs": [],
      "stateMutability": "nonpayable",
      "type": "function"
    },
    {
      "inputs": [
        {
          "internalType": "address",
          "name": "_target",
          "type": "address"
        },
        {
          "internalType": "address",
          "name": "_token",
          "type": "address"
        },
        {
          "internalType": "uint256",
          "name": "_amount",
          "type": "uint256"
        }
      ],
      "name": "proposeDrainToken",
      "outputs": [],
      "stateMutability": "nonpayable",
      "type": "function"
    },
    {
      "inputs": [
        {
          "internalType": "address",
          "name": "_target",
          "type": "address"
        },
        {
          "internalType": "uint256",
          "name": "_period",
          "type": "uint256"
        }
      ],
      "name": "proposeIncreaseNoticePeriod",
      "outputs": [],
      "stateMutability": "nonpayable",
      "type": "function"
    },
    {
      "inputs": [
        {
          "internalType": "address",
          "name": "_target",
          "type": "address"
        }
      ],
      "name": "proposeNotifyResetSigners",
      "outputs": [],
      "stateMutability": "nonpayable",
      "type": "function"
    },
    {
      "inputs": [
        {
          "internalType": "address",
          "name": "_target",
          "type": "address"
        },
        {
          "internalType": "address[]",
          "name": "_signers",
          "type": "address[]"
        },
        {
          "internalType": "uint256[]",
          "name": "_powers",
          "type": "uint256[]"
        }
      ],
      "name": "proposeResetSigners",
      "outputs": [],
      "stateMutability": "nonpayable",
      "type": "function"
    },
    {
      "inputs": [
        {
          "internalType": "address",
          "name": "_target",
          "type": "address"
        },
        {
          "internalType": "enum OwnerDataTypes.BridgeType",
          "name": "_bridgeType",
          "type": "uint8"
        },
        {
          "internalType": "address",
          "name": "_bridgeAddr",
          "type": "address"
        }
      ],
      "name": "proposeSetBridgeAddress",
      "outputs": [],
      "stateMutability": "nonpayable",
      "type": "function"
    },
    {
      "inputs": [
        {
          "internalType": "address",
          "name": "_target",
          "type": "address"
        },
        {
          "internalType": "address",
          "name": "_bridgeToken",
          "type": "address"
        },
        {
          "internalType": "uint256",
          "name": "_swapCap",
          "type": "uint256"
        }
      ],
      "name": "proposeSetBridgeTokenSwapCap",
      "outputs": [],
      "stateMutability": "nonpayable",
      "type": "function"
    },
    {
      "inputs": [
        {
          "internalType": "address",
          "name": "_target",
          "type": "address"
        },
        {
          "internalType": "address",
          "name": "_addr",
          "type": "address"
        }
      ],
      "name": "proposeSetGovContract",
      "outputs": [],
      "stateMutability": "nonpayable",
      "type": "function"
    },
    {
      "inputs": [
        {
          "internalType": "address",
          "name": "_target",
          "type": "address"
        },
        {
          "internalType": "uint256",
          "name": "_maxSlashFactor",
          "type": "uint256"
        }
      ],
      "name": "proposeSetMaxSlashFactor",
      "outputs": [],
      "stateMutability": "nonpayable",
      "type": "function"
    },
    {
      "inputs": [
        {
          "internalType": "address",
          "name": "_target",
          "type": "address"
        },
        {
          "internalType": "enum OwnerDataTypes.MsgFeeType",
          "name": "_feeType",
          "type": "uint8"
        },
        {
          "internalType": "uint256",
          "name": "_fee",
          "type": "uint256"
        }
      ],
      "name": "proposeSetMsgFee",
      "outputs": [],
      "stateMutability": "nonpayable",
      "type": "function"
    },
    {
      "inputs": [
        {
          "internalType": "address",
          "name": "_target",
          "type": "address"
        },
        {
          "internalType": "address",
          "name": "_token",
          "type": "address"
        }
      ],
      "name": "proposeSetNativeWrap",
      "outputs": [],
      "stateMutability": "nonpayable",
      "type": "function"
    },
    {
      "inputs": [
        {
          "internalType": "address",
          "name": "_target",
          "type": "address"
        },
        {
          "internalType": "uint256",
          "name": "_usage",
          "type": "uint256"
        }
      ],
      "name": "proposeSetPreExecuteMessageGasUsage",
      "outputs": [],
      "stateMutability": "nonpayable",
      "type": "function"
    },
    {
      "inputs": [
        {
          "internalType": "address",
          "name": "_target",
          "type": "address"
        },
        {
          "internalType": "address",
          "name": "_addr",
          "type": "address"
        }
      ],
      "name": "proposeSetRewardContract",
      "outputs": [],
      "stateMutability": "nonpayable",
      "type": "function"
    },
    {
      "inputs": [
        {
          "internalType": "address",
          "name": "_target",
          "type": "address"
        },
        {
          "internalType": "bool",
          "name": "_enable",
          "type": "bool"
        }
      ],
      "name": "proposeSetWhitelistEnable",
      "outputs": [],
      "stateMutability": "nonpayable",
      "type": "function"
    },
    {
      "inputs": [
        {
          "internalType": "address",
          "name": "_target",
          "type": "address"
        },
        {
          "internalType": "uint256",
          "name": "_newOwner",
          "type": "uint256"
        }
      ],
      "name": "proposeTransferOwnership",
      "outputs": [],
      "stateMutability": "nonpayable",
      "type": "function"
    },
    {
      "inputs": [
        {
          "internalType": "address",
          "name": "_target",
          "type": "address"
        },
        {
          "internalType": "address",
          "name": "_bridge",
          "type": "address"
        },
        {
          "internalType": "uint256",
          "name": "_cap",
          "type": "uint256"
        }
      ],
      "name": "proposeUpdateBridgeSupplyCap",
      "outputs": [],
      "stateMutability": "nonpayable",
      "type": "function"
    },
    {
      "inputs": [
        {
          "internalType": "address",
          "name": "_target",
          "type": "address"
        },
        {
          "internalType": "enum OwnerDataTypes.Action",
          "name": "_action",
          "type": "uint8"
        },
        {
          "internalType": "address",
          "name": "_account",
          "type": "address"
        }
      ],
      "name": "proposeUpdateGovernor",
      "outputs": [],
      "stateMutability": "nonpayable",
      "type": "function"
    },
    {
      "inputs": [
        {
          "internalType": "address",
          "name": "_target",
          "type": "address"
        },
        {
          "internalType": "enum OwnerDataTypes.Action",
          "name": "_action",
          "type": "uint8"
        },
        {
          "internalType": "address",
          "name": "_account",
          "type": "address"
        }
      ],
      "name": "proposeUpdatePauser",
      "outputs": [],
      "stateMutability": "nonpayable",
      "type": "function"
    },
    {
      "inputs": [
        {
          "internalType": "address",
          "name": "_target",
          "type": "address"
        },
        {
          "internalType": "enum OwnerDataTypes.Action",
          "name": "_action",
          "type": "uint8"
        },
        {
          "internalType": "address",
          "name": "_token",
          "type": "address"
        },
        {
          "internalType": "uint256",
          "name": "_supply",
          "type": "uint256"
        }
      ],
      "name": "proposeUpdateSupply",
      "outputs": [],
      "stateMutability": "nonpayable",
      "type": "function"
    },
    {
      "inputs": [
        {
          "internalType": "address",
          "name": "_target",
          "type": "address"
        },
        {
          "internalType": "enum OwnerDataTypes.Action",
          "name": "_action",
          "type": "uint8"
        },
        {
          "internalType": "address",
          "name": "_account",
          "type": "address"
        }
      ],
      "name": "proposeUpdateWhitelisted",
      "outputs": [],
      "stateMutability": "nonpayable",
      "type": "function"
    },
    {
      "inputs": [
        {
          "internalType": "address",
          "name": "_target",
          "type": "address"
        },
        {
          "internalType": "address",
          "name": "_proxy",
          "type": "address"
        },
        {
          "internalType": "address",
          "name": "_implementation",
          "type": "address"
        }
      ],
      "name": "proposeUpgrade",
      "outputs": [],
      "stateMutability": "nonpayable",
      "type": "function"
    },
    {
      "inputs": [
        {
          "internalType": "address",
          "name": "_target",
          "type": "address"
        },
        {
          "internalType": "address",
          "name": "_proxy",
          "type": "address"
        },
        {
          "internalType": "address",
          "name": "_implementation",
          "type": "address"
        },
        {
          "internalType": "bytes",
          "name": "_data",
          "type": "bytes"
        }
      ],
      "name": "proposeUpgradeAndCall",
      "outputs": [],
      "stateMutability": "nonpayable",
      "type": "function"
    },
    {
      "inputs": [
        {
          "internalType": "address",
          "name": "_target",
          "type": "address"
        },
        {
          "internalType": "address",
          "name": "_implementation",
          "type": "address"
        }
      ],
      "name": "proposeUpgradeTo",
      "outputs": [],
      "stateMutability": "nonpayable",
      "type": "function"
    },
    {
      "inputs": [
        {
          "internalType": "address",
          "name": "_target",
          "type": "address"
        },
        {
          "internalType": "address",
          "name": "_implementation",
          "type": "address"
        },
        {
          "internalType": "bytes",
          "name": "_data",
          "type": "bytes"
        }
      ],
      "name": "proposeUpgradeToAndCall",
      "outputs": [],
      "stateMutability": "nonpayable",
      "type": "function"
    }
  ],
  "bytecode": "0x60806040523480156200001157600080fd5b5060405162002afb38038062002afb83398101604081905262000034916200005a565b600180546001600160a01b0319166001600160a01b03929092169190911790556200008c565b6000602082840312156200006d57600080fd5b81516001600160a01b03811681146200008557600080fd5b9392505050565b612a5f806200009c6000396000f3fe608060405234801561001057600080fd5b506004361061018d5760003560e01c806377e96d21116100de578063a71ac5f011610097578063adf43efb11610071578063adf43efb14610352578063bcf612fc14610365578063d19bf98b14610378578063dc797ce31461038b57600080fd5b8063a71ac5f014610319578063a9ed9d161461032c578063aa9f79431461033f57600080fd5b806377e96d21146102a757806378a4f076146102ba5780637f1f1990146102cd57806382887e02146102e05780639f492e7c146102f3578063a2ac8d861461030657600080fd5b8063224468a81161014b57806339acf6951161012557806339acf6951461025b57806339f2b6511461026e578063656fe066146102815780636a5c93581461029457600080fd5b8063224468a8146102225780632ef754af1461023557806338cd4d091461024857600080fd5b8062395f11146101925780630de54802146101a757806312d43a51146101ba578063173a06f9146101e95780631a6ca6da146101fc5780631de8a0161461020f575b600080fd5b6101a56101a0366004612252565b61039e565b005b6101a56101b536600461227e565b6104b4565b6000546101cd906001600160a01b031681565b6040516001600160a01b03909116815260200160405180910390f35b6101a56101f7366004612303565b6105c7565b6101a561020a36600461227e565b6106f0565b6101a561021d366004612386565b610803565b6101a561023036600461227e565b610932565b6101a56102433660046123e5565b610a45565b6101a5610256366004612252565b610c03565b6101a5610269366004612476565b610d0f565b6101a561027c366004612252565b610e33565b6101a561028f3660046124db565b610f3f565b6101a56102a2366004612252565b6110d5565b6101a56102b5366004612520565b6111e1565b6101a56102c8366004612550565b6112ff565b6101a56102db36600461257e565b61145b565b6101a56102ee3660046125b2565b61166f565b6101a5610301366004612550565b611783565b6101a56103143660046125e5565b6118df565b6101a5610327366004612609565b6119dc565b6101a561033a3660046125e5565b611af4565b6101a561034d366004612386565b611bc0565b6101a5610360366004612550565b611ce4565b6101a561037336600461227e565b611e40565b6101a5610386366004612520565b611f53565b6101a5610399366004612520565b61211c565b60408051602480820184905282518083039091018152604490910182526020810180516001600160e01b0316631a20325760e01b179052600080549251633f52009d60e21b8152919290916001600160a01b039091169063fd4802749061040f90339088908790879060040161269e565b602060405180830381600087803b15801561042957600080fd5b505af115801561043d573d6000803e3d6000fd5b505050506040513d601f19601f82011682018060405250810190610461919061271d565b604080518281526001600160a01b03871660208201529081018590529091507f170cfbd4ca14e4c07750912ad957e666499c81fdfef63021cde154c6ffaac2d7906060015b60405180910390a150505050565b604080516001600160a01b0383811660248084019190915283518084039091018152604490920183526020820180516001600160e01b0316631a1c1b9560e21b179052600080549351633f52009d60e21b81529293909291169063fd4802749061052890339088908790879060040161269e565b602060405180830381600087803b15801561054257600080fd5b505af1158015610556573d6000803e3d6000fd5b505050506040513d601f19601f8201168201806040525081019061057a919061271d565b604080518281526001600160a01b0380881660208301528616918101919091529091507f0440d8b8371306b54b33893631962ccab8e82436d91eb4a2c481454cc2ed4781906060016104a6565b600063a7bdf45a60e01b858585856040516024016105e894939291906127b5565b60408051601f198184030181529181526020820180516001600160e01b03166001600160e01b031990941693909317909252600080549251633f52009d60e21b8152919350916001600160a01b03169063fd480274906106529033908b908790879060040161269e565b602060405180830381600087803b15801561066c57600080fd5b505af1158015610680573d6000803e3d6000fd5b505050506040513d601f19601f820116820180604052508101906106a4919061271d565b90507f4c42642dbb775b1ef06ad1492581510de04ccfb5ad078338d6ae369b56f356a08188888888886040516106df969594939291906127e7565b60405180910390a150505050505050565b604080516001600160a01b0383811660248084019190915283518084039091018152604490920183526020820180516001600160e01b0316631b2ce7f360e11b179052600080549351633f52009d60e21b81529293909291169063fd4802749061076490339088908790879060040161269e565b602060405180830381600087803b15801561077e57600080fd5b505af1158015610792573d6000803e3d6000fd5b505050506040513d601f19601f820116820180604052508101906107b6919061271d565b604080518281526001600160a01b0380881660208301528616918101919091529091507f322efec8297181586148e7711ed39e230b706795edf152fd4e3a3a8fc009d33b906060016104a6565b604080516001600160a01b03848116602483015283811660448084019190915283518084039091018152606490920183526020820180516001600160e01b0316633f7f93af60e11b179052600080549351633f52009d60e21b81529293909291169063fd4802749061087f90339089908790879060040161269e565b602060405180830381600087803b15801561089957600080fd5b505af11580156108ad573d6000803e3d6000fd5b505050506040513d601f19601f820116820180604052508101906108d1919061271d565b604080518281526001600160a01b0380891660208301528088169282019290925290851660608201529091507f892ed68a932643ffae382937ae40947f858726f5014c80e6612255d981508090906080015b60405180910390a15050505050565b604080516001600160a01b0383811660248084019190915283518084039091018152604490920183526020820180516001600160e01b0316634ffc800d60e11b179052600080549351633f52009d60e21b81529293909291169063fd480274906109a690339088908790879060040161269e565b602060405180830381600087803b1580156109c057600080fd5b505af11580156109d4573d6000803e3d6000fd5b505050506040513d601f19601f820116820180604052508101906109f8919061271d565b604080518281526001600160a01b0380881660208301528616918101919091529091507f0691c48365957fae1547e6922078da4127a4ec5beedd4aca7b80a5c793722556906060016104a6565b600080846002811115610a5a57610a5a612674565b1415610a6e5750632d3633b760e21b610afc565b6001846002811115610a8257610a82612674565b1415610a965750633cfe6c7760e11b610afc565b6002846002811115610aaa57610aaa612674565b1415610abe575063057425d760e21b610afc565b60405162461bcd60e51b815260206004820152600e60248201526d34b73b30b634b21030b1ba34b7b760911b60448201526064015b60405180910390fd5b604080516001600160a01b038581166024830152604480830186905283518084039091018152606490920183526020820180516001600160e01b03166001600160e01b03198616179052600080549351633f52009d60e21b81529293909291169063fd48027490610b789033908b90879060019060040161269e565b602060405180830381600087803b158015610b9257600080fd5b505af1158015610ba6573d6000803e3d6000fd5b505050506040513d601f19601f82011682018060405250810190610bca919061271d565b90507f68a1245119792f0c0b4396c9d85ed7e432c53279527235d14c64bc4e801d2bb081888888886040516106df959493929190612842565b60408051602480820184905282518083039091018152604490910182526020810180516001600160e01b0316634586f33160e01b179052600080549251633f52009d60e21b8152919290916001600160a01b039091169063fd48027490610c7490339088908790879060040161269e565b602060405180830381600087803b158015610c8e57600080fd5b505af1158015610ca2573d6000803e3d6000fd5b505050506040513d601f19601f82011682018060405250810190610cc6919061271d565b604080518281526001600160a01b03871660208201529081018590529091507fa140c5e7d56a62eaaaa3aeb3b9d49c5fc85004d8d25920be0bce5e08a0b7ec9b906060016104a6565b6000634f1ef28660e01b848484604051602401610d2e939291906128a4565b60408051601f198184030181529181526020820180516001600160e01b03166001600160e01b031990941693909317909252600080549251633f52009d60e21b8152919350916001600160a01b03169063fd48027490610d989033908a908790879060040161269e565b602060405180830381600087803b158015610db257600080fd5b505af1158015610dc6573d6000803e3d6000fd5b505050506040513d601f19601f82011682018060405250810190610dea919061271d565b90507f7936bef0e4e9424795215dbcddd145b5f6ccbe6d35ed9ceacc3c9cec1b1a1ed18187878787604051610e239594939291906128c9565b60405180910390a1505050505050565b60408051602480820184905282518083039091018152604490910182526020810180516001600160e01b0316637906491560e11b179052600080549251633f52009d60e21b8152919290916001600160a01b039091169063fd48027490610ea490339088908790879060040161269e565b602060405180830381600087803b158015610ebe57600080fd5b505af1158015610ed2573d6000803e3d6000fd5b505050506040513d601f19601f82011682018060405250810190610ef6919061271d565b604080518281526001600160a01b03871660208201529081018590529091507f27cc981a956034897b297d307eaa4e907654717913a238daf3e32a5bd0e18aea906060016104a6565b600080836001811115610f5457610f54612674565b1415610f68575063e2c1ed2560e01b610fcb565b6001836001811115610f7c57610f7c612674565b1415610f90575063036145eb60e11b610fcb565b60405162461bcd60e51b815260206004820152601060248201526f696e76616c696420666565207479706560801b6044820152606401610af3565b60008183604051602401610fe191815260200190565b60408051601f198184030181529181526020820180516001600160e01b03166001600160e01b031990941693909317909252600080549251633f52009d60e21b8152919350916001600160a01b03169063fd4802749061104c9033908a90879060019060040161269e565b602060405180830381600087803b15801561106657600080fd5b505af115801561107a573d6000803e3d6000fd5b505050506040513d601f19601f8201168201806040525081019061109e919061271d565b90507f924ed1dc9162d297ef826f4eb457b22796e62033fea2fb6f201c13661d04c64181878787604051610e2394939291906128fc565b60408051602480820184905282518083039091018152604490910182526020810180516001600160e01b031663f2fde38b60e01b179052600080549251633f52009d60e21b8152919290916001600160a01b039091169063fd4802749061114690339088908790879060040161269e565b602060405180830381600087803b15801561116057600080fd5b505af1158015611174573d6000803e3d6000fd5b505050506040513d601f19601f82011682018060405250810190611198919061271d565b604080518281526001600160a01b03871660208201529081018590529091507f2e7f126e99465c6c540098e0eca13d2fc8d71908debbf31d908bee17e2866d0c906060016104a6565b604080516001600160a01b038481166024830152604480830185905283518084039091018152606490920183526020820180516001600160e01b031663cd04611960e01b179052600080549351633f52009d60e21b81529293909291169063fd4802749061125990339089908790879060040161269e565b602060405180830381600087803b15801561127357600080fd5b505af1158015611287573d6000803e3d6000fd5b505050506040513d601f19601f820116820180604052508101906112ab919061271d565b604080518281526001600160a01b038089166020830152871691810191909152606081018590529091507fbbf294b7b2aadbd73c0198ccea847bbc640871eb1ad2a0b01ac080d077f088e790608001610923565b6000600183600281111561131557611315612674565b141561132957506320b707b160e21b61134d565b600283600281111561133d5761133d612674565b1415610abe5750636b2c0f5560e01b5b6040516001600160a01b0383166024820152600090829060440160408051601f198184030181529181526020820180516001600160e01b03166001600160e01b031990941693909317909252600080549251633f52009d60e21b8152919350916001600160a01b03169063fd480274906113d29033908a90879060019060040161269e565b602060405180830381600087803b1580156113ec57600080fd5b505af1158015611400573d6000803e3d6000fd5b505050506040513d601f19601f82011682018060405250810190611424919061271d565b90507f9fe02e73a05d9dc9d3f3cb9423f6531a055a6083c43978dc2b64d6e505e4366581878787604051610e239493929190612934565b60008083600481111561147057611470612674565b1415611484575063588be02b60e01b611562565b600183600481111561149857611498612674565b14156114ac57506301e5ff3360e11b611562565b60028360048111156114c0576114c0612674565b14156114d45750639b05a77560e01b611562565b60038360048111156114e8576114e8612674565b14156114fc5750634177ea8160e11b611562565b600483600481111561151057611510612674565b1415611524575063f83b0fb960e01b611562565b60405162461bcd60e51b8152602060048201526013602482015272696e76616c696420627269646765207479706560681b6044820152606401610af3565b6040516001600160a01b0383166024820152600090829060440160408051601f198184030181529181526020820180516001600160e01b03166001600160e01b031990941693909317909252600080549251633f52009d60e21b8152919350916001600160a01b03169063fd480274906115e69033908a908790879060040161269e565b602060405180830381600087803b15801561160057600080fd5b505af1158015611614573d6000803e3d6000fd5b505050506040513d601f19601f82011682018060405250810190611638919061271d565b90507f1605f3e8c96ab34dc0790b6937e2f0c59bb340db6e689a77bc500789d32314f881878787604051610e23949392919061296b565b6040805182151560248083019190915282518083039091018152604490910182526020810180516001600160e01b0316630296cf3f60e11b179052600080549251633f52009d60e21b8152919290916001600160a01b039091169063fd480274906116e490339088908790879060040161269e565b602060405180830381600087803b1580156116fe57600080fd5b505af1158015611712573d6000803e3d6000fd5b505050506040513d601f19601f82011682018060405250810190611736919061271d565b604080518281526001600160a01b0387166020820152851515918101919091529091507fb415e98e9740cf326dbeb0b43f0fa7d742ab13c6c2fc4e0042b6289cca074526906060016104a6565b6000600183600281111561179957611799612674565b14156117ad57506310154bad60e01b6117d1565b60028360028111156117c1576117c1612674565b1415610abe575063291d954960e01b5b6040516001600160a01b0383166024820152600090829060440160408051601f198184030181529181526020820180516001600160e01b03166001600160e01b031990941693909317909252600080549251633f52009d60e21b8152919350916001600160a01b03169063fd480274906118569033908a90879060019060040161269e565b602060405180830381600087803b15801561187057600080fd5b505af1158015611884573d6000803e3d6000fd5b505050506040513d601f19601f820116820180604052508101906118a8919061271d565b90507f4336c9be2e5abfad187a39a7f7346158c644f54824688bb5a5b335f9306fb9bb81878787604051610e239493929190612934565b6040805160048082526024820183526020820180516001600160e01b03166325c38b9f60e01b179052600080549351633f52009d60e21b8152929390926001600160a01b039091169163fd48027491611941913391889188916001910161269e565b602060405180830381600087803b15801561195b57600080fd5b505af115801561196f573d6000803e3d6000fd5b505050506040513d601f19601f82011682018060405250810190611993919061271d565b604080518281526001600160a01b03861660208201529192507f149a32d950b4bc0cb34725d5a842addc6f3e428807357a578301e078cc644357910160405180910390a1505050565b6000639623609d60e01b858585856040516024016119fd94939291906129ab565b60408051601f198184030181529181526020820180516001600160e01b03166001600160e01b031990941693909317909252600080549251633f52009d60e21b8152919350916001600160a01b03169063fd48027490611a679033908b908790879060040161269e565b602060405180830381600087803b158015611a8157600080fd5b505af1158015611a95573d6000803e3d6000fd5b505050506040513d601f19601f82011682018060405250810190611ab9919061271d565b90507ff6b46465ce70c6b53ccde6e33cdd45c1906ded1e8553ff64ebdadf97d3ac29518188888888886040516106df969594939291906129e2565b6001546001600160a01b03163314611b4e5760405162461bcd60e51b815260206004820152601960248201527f6f6e6c7920696e697469616c697a65722063616e20696e6974000000000000006044820152606401610af3565b6000546001600160a01b031615611b9e5760405162461bcd60e51b815260206004820152601460248201527319dbdd881859191c88185b1c9958591e481cd95d60621b6044820152606401610af3565b600080546001600160a01b0319166001600160a01b0392909216919091179055565b604080516001600160a01b03848116602483015283811660448084019190915283518084039091018152606490920183526020820180516001600160e01b031663266a23b160e21b179052600080549351633f52009d60e21b81529293909291169063fd48027490611c3c90339089908790879060040161269e565b602060405180830381600087803b158015611c5657600080fd5b505af1158015611c6a573d6000803e3d6000fd5b505050506040513d601f19601f82011682018060405250810190611c8e919061271d565b604080518281526001600160a01b0380891660208301528088169282019290925290851660608201529091507fc1dead51ac2e9fa286784eeefebacaf915332934c6d6fd290ec2c8de51c7863290608001610923565b60006001836002811115611cfa57611cfa612674565b1415611d0e57506303c4a25d60e41b611d32565b6002836002811115611d2257611d22612674565b1415610abe5750631dd9b59160e31b5b6040516001600160a01b0383166024820152600090829060440160408051601f198184030181529181526020820180516001600160e01b03166001600160e01b031990941693909317909252600080549251633f52009d60e21b8152919350916001600160a01b03169063fd48027490611db79033908a90879060019060040161269e565b602060405180830381600087803b158015611dd157600080fd5b505af1158015611de5573d6000803e3d6000fd5b505050506040513d601f19601f82011682018060405250810190611e09919061271d565b90507f725ab9c9498b34fa1336448b0dc8dfb419461e03707ace510d44e8bb63d8485181878787604051610e239493929190612934565b604080516001600160a01b0383811660248084019190915283518084039091018152604490920183526020820180516001600160e01b03166328a8478560e11b179052600080549351633f52009d60e21b81529293909291169063fd48027490611eb490339088908790879060040161269e565b602060405180830381600087803b158015611ece57600080fd5b505af1158015611ee2573d6000803e3d6000fd5b505050506040513d601f19601f82011682018060405250810190611f06919061271d565b604080518281526001600160a01b0380881660208301528616918101919091529091507f8aaee1ae0ee9b8019d672115e172cd8fd03686f0f117ce65aa0ed224ca6d12b3906060016104a6565b60606001600160a01b038316611fc657506040805180820182526012815271323930b4b72a37b5b2b7143ab4b73a191a9b60711b60209182015281516024808201859052835180830390910181526044909101909252810180516001600160e01b031663a76cd1bb60e01b17905261203f565b50604080518082018252601a81527f647261696e546f6b656e28616464726573732c75696e7432353600000000000060209182015281516001600160a01b03851660248201526044808201859052835180830390910181526064909101909252810180516001600160e01b0316634dd256db60e11b1790525b60008054604051633f52009d60e21b81526001600160a01b039091169063fd4802749061207690339089908790879060040161269e565b602060405180830381600087803b15801561209057600080fd5b505af11580156120a4573d6000803e3d6000fd5b505050506040513d601f19601f820116820180604052508101906120c8919061271d565b604080518281526001600160a01b038089166020830152871691810191909152606081018590529091507f07315b20d3a4862680a34cedf6a8b62bd45bdf98fa602f664417d8a84d47c1bc90608001610923565b604080516001600160a01b038481166024830152604480830185905283518084039091018152606490920183526020820180516001600160e01b03166326717b8d60e11b179052600080549351633f52009d60e21b81529293909291169063fd4802749061219490339089908790879060040161269e565b602060405180830381600087803b1580156121ae57600080fd5b505af11580156121c2573d6000803e3d6000fd5b505050506040513d601f19601f820116820180604052508101906121e6919061271d565b604080518281526001600160a01b038089166020830152871691810191909152606081018590529091507fdf93094bf7ed4f11758b798f8463ab250ae3db9edc392c26b92443f3cf73100490608001610923565b6001600160a01b038116811461224f57600080fd5b50565b6000806040838503121561226557600080fd5b82356122708161223a565b946020939093013593505050565b6000806040838503121561229157600080fd5b823561229c8161223a565b915060208301356122ac8161223a565b809150509250929050565b60008083601f8401126122c957600080fd5b50813567ffffffffffffffff8111156122e157600080fd5b6020830191508360208260051b85010111156122fc57600080fd5b9250929050565b60008060008060006060868803121561231b57600080fd5b85356123268161223a565b9450602086013567ffffffffffffffff8082111561234357600080fd5b61234f89838a016122b7565b9096509450604088013591508082111561236857600080fd5b50612375888289016122b7565b969995985093965092949392505050565b60008060006060848603121561239b57600080fd5b83356123a68161223a565b925060208401356123b68161223a565b915060408401356123c68161223a565b809150509250925092565b8035600381106123e057600080fd5b919050565b600080600080608085870312156123fb57600080fd5b84356124068161223a565b9350612414602086016123d1565b925060408501356124248161223a565b9396929550929360600135925050565b60008083601f84011261244657600080fd5b50813567ffffffffffffffff81111561245e57600080fd5b6020830191508360208285010111156122fc57600080fd5b6000806000806060858703121561248c57600080fd5b84356124978161223a565b935060208501356124a78161223a565b9250604085013567ffffffffffffffff8111156124c357600080fd5b6124cf87828801612434565b95989497509550505050565b6000806000606084860312156124f057600080fd5b83356124fb8161223a565b925060208401356002811061250f57600080fd5b929592945050506040919091013590565b60008060006060848603121561253557600080fd5b83356125408161223a565b9250602084013561250f8161223a565b60008060006060848603121561256557600080fd5b83356125708161223a565b92506123b6602085016123d1565b60008060006060848603121561259357600080fd5b833561259e8161223a565b92506020840135600581106123b657600080fd5b600080604083850312156125c557600080fd5b82356125d08161223a565b9150602083013580151581146122ac57600080fd5b6000602082840312156125f757600080fd5b81356126028161223a565b9392505050565b60008060008060006080868803121561262157600080fd5b853561262c8161223a565b9450602086013561263c8161223a565b9350604086013561264c8161223a565b9250606086013567ffffffffffffffff81111561266857600080fd5b61237588828901612434565b634e487b7160e01b600052602160045260246000fd5b6006811061269a5761269a612674565b9052565b600060018060a01b038087168352602081871681850152608060408501528551915081608085015260005b828110156126e55786810182015185820160a0015281016126c9565b828111156126f757600060a084870101525b5050601f01601f1916820160a0019050612714606083018461268a565b95945050505050565b60006020828403121561272f57600080fd5b5051919050565b8183526000602080850194508260005b858110156127745781356127598161223a565b6001600160a01b031687529582019590820190600101612746565b509495945050505050565b81835260006001600160fb1b0383111561279857600080fd5b8260051b8083602087013760009401602001938452509192915050565b6040815260006127c9604083018688612736565b82810360208401526127dc81858761277f565b979650505050505050565b8681526001600160a01b03861660208201526080604082018190526000906128129083018688612736565b828103606084015261282581858761277f565b9998505050505050505050565b6003811061269a5761269a612674565b8581526001600160a01b03858116602083015260a08201906128676040840187612832565b939093166060820152608001529392505050565b81835281816020850137506000828201602090810191909152601f909101601f19169091010190565b6001600160a01b0384168152604060208201819052600090612714908301848661287b565b8581526001600160a01b038581166020830152841660408201526080606082018190526000906127dc908301848661287b565b8481526001600160a01b0384166020820152608081016002841061292257612922612674565b60408201939093526060015292915050565b8481526001600160a01b03848116602083015260808201906129596040840186612832565b80841660608401525095945050505050565b8481526001600160a01b03848116602083015260808201906005851061299357612993612674565b84604084015280841660608401525095945050505050565b6001600160a01b038581168252841660208201526060604082018190526000906129d8908301848661287b565b9695505050505050565b8681526001600160a01b03868116602083015285811660408301528416606082015260a060808201819052600090612a1d908301848661287b565b9897505050505050505056fea2646970667358221220c2fb92bd8d76cf01750515aa2757d9b6a977244f6f1155c43b83ece63ebd21a964736f6c63430008090033",
  "linkReferences": {},
  "deployedLinkReferences": {}
}