{
  "_format": "hh-sol-artifact-1",
  "contractName": "TealswapPair",
  "sourceName": "contracts/Tealswap/core/TealswapPair.sol",
  "abi": [
    {
      "inputs": [],
      "stateMutability": "nonpayable",
      "type": "constructor"
    },
    {
      "anonymous": false,
      "inputs": [
        {
          "indexed": true,
          "internalType": "address",
          "name": "owner",
          "type": "address"
        },
        {
          "indexed": true,
          "internalType": "address",
          "name": "spender",
          "type": "address"
        },
        {
          "indexed": false,
          "internalType": "uint256",
          "name": "value",
          "type": "uint256"
        }
      ],
      "name": "Approval",
      "type": "event"
    },
    {
      "anonymous": false,
      "inputs": [
        {
          "indexed": true,
          "internalType": "address",
          "name": "sender",
          "type": "address"
        },
        {
          "indexed": false,
          "internalType": "uint256",
          "name": "amount0",
          "type": "uint256"
        },
        {
          "indexed": false,
          "internalType": "uint256",
          "name": "amount1",
          "type": "uint256"
        },
        {
          "indexed": true,
          "internalType": "address",
          "name": "to",
          "type": "address"
        }
      ],
      "name": "Burn",
      "type": "event"
    },
    {
      "anonymous": false,
      "inputs": [
        {
          "indexed": true,
          "internalType": "address",
          "name": "sender",
          "type": "address"
        },
        {
          "indexed": false,
          "internalType": "uint256",
          "name": "amount0",
          "type": "uint256"
        },
        {
          "indexed": false,
          "internalType": "uint256",
          "name": "amount1",
          "type": "uint256"
        }
      ],
      "name": "Mint",
      "type": "event"
    },
    {
      "anonymous": false,
      "inputs": [
        {
          "indexed": false,
          "internalType": "address",
          "name": "account",
          "type": "address"
        }
      ],
      "name": "Paused",
      "type": "event"
    },
    {
      "anonymous": false,
      "inputs": [
        {
          "indexed": true,
          "internalType": "address",
          "name": "sender",
          "type": "address"
        },
        {
          "indexed": false,
          "internalType": "uint256",
          "name": "amount0In",
          "type": "uint256"
        },
        {
          "indexed": false,
          "internalType": "uint256",
          "name": "amount1In",
          "type": "uint256"
        },
        {
          "indexed": false,
          "internalType": "uint256",
          "name": "amount0Out",
          "type": "uint256"
        },
        {
          "indexed": false,
          "internalType": "uint256",
          "name": "amount1Out",
          "type": "uint256"
        },
        {
          "indexed": true,
          "internalType": "address",
          "name": "to",
          "type": "address"
        }
      ],
      "name": "Swap",
      "type": "event"
    },
    {
      "anonymous": false,
      "inputs": [
        {
          "indexed": false,
          "internalType": "uint112",
          "name": "reserve0",
          "type": "uint112"
        },
        {
          "indexed": false,
          "internalType": "uint112",
          "name": "reserve1",
          "type": "uint112"
        }
      ],
      "name": "Sync",
      "type": "event"
    },
    {
      "anonymous": false,
      "inputs": [
        {
          "indexed": true,
          "internalType": "address",
          "name": "from",
          "type": "address"
        },
        {
          "indexed": true,
          "internalType": "address",
          "name": "to",
          "type": "address"
        },
        {
          "indexed": false,
          "internalType": "uint256",
          "name": "value",
          "type": "uint256"
        }
      ],
      "name": "Transfer",
      "type": "event"
    },
    {
      "anonymous": false,
      "inputs": [
        {
          "indexed": false,
          "internalType": "address",
          "name": "account",
          "type": "address"
        }
      ],
      "name": "Unpaused",
      "type": "event"
    },
    {
      "inputs": [],
      "name": "DOMAIN_SEPARATOR",
      "outputs": [
        {
          "internalType": "bytes32",
          "name": "",
          "type": "bytes32"
        }
      ],
      "stateMutability": "view",
      "type": "function"
    },
    {
      "inputs": [],
      "name": "MINIMUM_LIQUIDITY",
      "outputs": [
        {
          "internalType": "uint256",
          "name": "",
          "type": "uint256"
        }
      ],
      "stateMutability": "view",
      "type": "function"
    },
    {
      "inputs": [],
      "name": "PERMIT_TYPEHASH",
      "outputs": [
        {
          "internalType": "bytes32",
          "name": "",
          "type": "bytes32"
        }
      ],
      "stateMutability": "view",
      "type": "function"
    },
    {
      "inputs": [
        {
          "internalType": "address",
          "name": "",
          "type": "address"
        },
        {
          "internalType": "address",
          "name": "",
          "type": "address"
        }
      ],
      "name": "allowance",
      "outputs": [
        {
          "internalType": "uint256",
          "name": "",
          "type": "uint256"
        }
      ],
      "stateMutability": "view",
      "type": "function"
    },
    {
      "inputs": [
        {
          "internalType": "address",
          "name": "spender",
          "type": "address"
        },
        {
          "internalType": "uint256",
          "name": "value",
          "type": "uint256"
        }
      ],
      "name": "approve",
      "outputs": [
        {
          "internalType": "bool",
          "name": "",
          "type": "bool"
        }
      ],
      "stateMutability": "nonpayable",
      "type": "function"
    },
    {
      "inputs": [
        {
          "internalType": "address",
          "name": "",
          "type": "address"
        }
      ],
      "name": "balanceOf",
      "outputs": [
        {
          "internalType": "uint256",
          "name": "",
          "type": "uint256"
        }
      ],
      "stateMutability": "view",
      "type": "function"
    },
    {
      "inputs": [
        {
          "internalType": "address",
          "name": "to",
          "type": "address"
        }
      ],
      "name": "burn",
      "outputs": [
        {
          "internalType": "uint256",
          "name": "amount0",
          "type": "uint256"
        },
        {
          "internalType": "uint256",
          "name": "amount1",
          "type": "uint256"
        }
      ],
      "stateMutability": "nonpayable",
      "type": "function"
    },
    {
      "inputs": [
        {
          "internalType": "uint256",
          "name": "_feeBps",
          "type": "uint256"
        },
        {
          "internalType": "uint256",
          "name": "_protocolFeeDivider",
          "type": "uint256"
        }
      ],
      "name": "changeFee",
      "outputs": [],
      "stateMutability": "nonpayable",
      "type": "function"
    },
    {
      "inputs": [],
      "name": "decimals",
      "outputs": [
        {
          "internalType": "uint8",
          "name": "",
          "type": "uint8"
        }
      ],
      "stateMutability": "view",
      "type": "function"
    },
    {
      "inputs": [],
      "name": "factory",
      "outputs": [
        {
          "internalType": "address",
          "name": "",
          "type": "address"
        }
      ],
      "stateMutability": "view",
      "type": "function"
    },
    {
      "inputs": [],
      "name": "feeBps",
      "outputs": [
        {
          "internalType": "uint256",
          "name": "",
          "type": "uint256"
        }
      ],
      "stateMutability": "view",
      "type": "function"
    },
    {
      "inputs": [],
      "name": "getReserves",
      "outputs": [
        {
          "internalType": "uint112",
          "name": "_reserve0",
          "type": "uint112"
        },
        {
          "internalType": "uint112",
          "name": "_reserve1",
          "type": "uint112"
        },
        {
          "internalType": "uint32",
          "name": "_blockTimestampLast",
          "type": "uint32"
        }
      ],
      "stateMutability": "view",
      "type": "function"
    },
    {
      "inputs": [
        {
          "internalType": "address",
          "name": "_token0",
          "type": "address"
        },
        {
          "internalType": "address",
          "name": "_token1",
          "type": "address"
        }
      ],
      "name": "initialize",
      "outputs": [],
      "stateMutability": "nonpayable",
      "type": "function"
    },
    {
      "inputs": [],
      "name": "kLast",
      "outputs": [
        {
          "internalType": "uint256",
          "name": "",
          "type": "uint256"
        }
      ],
      "stateMutability": "view",
      "type": "function"
    },
    {
      "inputs": [
        {
          "internalType": "address",
          "name": "to",
          "type": "address"
        }
      ],
      "name": "mint",
      "outputs": [
        {
          "internalType": "uint256",
          "name": "liquidity",
          "type": "uint256"
        }
      ],
      "stateMutability": "nonpayable",
      "type": "function"
    },
    {
      "inputs": [],
      "name": "mintFee",
      "outputs": [],
      "stateMutability": "nonpayable",
      "type": "function"
    },
    {
      "inputs": [],
      "name": "name",
      "outputs": [
        {
          "internalType": "string",
          "name": "",
          "type": "string"
        }
      ],
      "stateMutability": "view",
      "type": "function"
    },
    {
      "inputs": [
        {
          "internalType": "address",
          "name": "",
          "type": "address"
        }
      ],
      "name": "nonces",
      "outputs": [
        {
          "internalType": "uint256",
          "name": "",
          "type": "uint256"
        }
      ],
      "stateMutability": "view",
      "type": "function"
    },
    {
      "inputs": [],
      "name": "pause",
      "outputs": [],
      "stateMutability": "nonpayable",
      "type": "function"
    },
    {
      "inputs": [],
      "name": "paused",
      "outputs": [
        {
          "internalType": "bool",
          "name": "",
          "type": "bool"
        }
      ],
      "stateMutability": "view",
      "type": "function"
    },
    {
      "inputs": [
        {
          "internalType": "address",
          "name": "owner",
          "type": "address"
        },
        {
          "internalType": "address",
          "name": "spender",
          "type": "address"
        },
        {
          "internalType": "uint256",
          "name": "value",
          "type": "uint256"
        },
        {
          "internalType": "uint256",
          "name": "deadline",
          "type": "uint256"
        },
        {
          "internalType": "uint8",
          "name": "v",
          "type": "uint8"
        },
        {
          "internalType": "bytes32",
          "name": "r",
          "type": "bytes32"
        },
        {
          "internalType": "bytes32",
          "name": "s",
          "type": "bytes32"
        }
      ],
      "name": "permit",
      "outputs": [],
      "stateMutability": "nonpayable",
      "type": "function"
    },
    {
      "inputs": [],
      "name": "price0CumulativeLast",
      "outputs": [
        {
          "internalType": "uint256",
          "name": "",
          "type": "uint256"
        }
      ],
      "stateMutability": "view",
      "type": "function"
    },
    {
      "inputs": [],
      "name": "price1CumulativeLast",
      "outputs": [
        {
          "internalType": "uint256",
          "name": "",
          "type": "uint256"
        }
      ],
      "stateMutability": "view",
      "type": "function"
    },
    {
      "inputs": [],
      "name": "protocolFeeDivider",
      "outputs": [
        {
          "internalType": "uint256",
          "name": "",
          "type": "uint256"
        }
      ],
      "stateMutability": "view",
      "type": "function"
    },
    {
      "inputs": [
        {
          "internalType": "address",
          "name": "to",
          "type": "address"
        }
      ],
      "name": "skim",
      "outputs": [],
      "stateMutability": "nonpayable",
      "type": "function"
    },
    {
      "inputs": [
        {
          "internalType": "uint256",
          "name": "amount0Out",
          "type": "uint256"
        },
        {
          "internalType": "uint256",
          "name": "amount1Out",
          "type": "uint256"
        },
        {
          "internalType": "address",
          "name": "to",
          "type": "address"
        },
        {
          "internalType": "bytes",
          "name": "data",
          "type": "bytes"
        }
      ],
      "name": "swap",
      "outputs": [],
      "stateMutability": "nonpayable",
      "type": "function"
    },
    {
      "inputs": [],
      "name": "symbol",
      "outputs": [
        {
          "internalType": "string",
          "name": "",
          "type": "string"
        }
      ],
      "stateMutability": "view",
      "type": "function"
    },
    {
      "inputs": [],
      "name": "sync",
      "outputs": [],
      "stateMutability": "nonpayable",
      "type": "function"
    },
    {
      "inputs": [],
      "name": "token0",
      "outputs": [
        {
          "internalType": "address",
          "name": "",
          "type": "address"
        }
      ],
      "stateMutability": "view",
      "type": "function"
    },
    {
      "inputs": [],
      "name": "token1",
      "outputs": [
        {
          "internalType": "address",
          "name": "",
          "type": "address"
        }
      ],
      "stateMutability": "view",
      "type": "function"
    },
    {
      "inputs": [],
      "name": "totalSupply",
      "outputs": [
        {
          "internalType": "uint256",
          "name": "",
          "type": "uint256"
        }
      ],
      "stateMutability": "view",
      "type": "function"
    },
    {
      "inputs": [
        {
          "internalType": "address",
          "name": "to",
          "type": "address"
        },
        {
          "internalType": "uint256",
          "name": "value",
          "type": "uint256"
        }
      ],
      "name": "transfer",
      "outputs": [
        {
          "internalType": "bool",
          "name": "",
          "type": "bool"
        }
      ],
      "stateMutability": "nonpayable",
      "type": "function"
    },
    {
      "inputs": [
        {
          "internalType": "address",
          "name": "from",
          "type": "address"
        },
        {
          "internalType": "address",
          "name": "to",
          "type": "address"
        },
        {
          "internalType": "uint256",
          "name": "value",
          "type": "uint256"
        }
      ],
      "name": "transferFrom",
      "outputs": [
        {
          "internalType": "bool",
          "name": "",
          "type": "bool"
        }
      ],
      "stateMutability": "nonpayable",
      "type": "function"
    },
    {
      "inputs": [],
      "name": "unpause",
      "outputs": [],
      "stateMutability": "nonpayable",
      "type": "function"
    }
  ],
  "bytecode": "0x60c0604052601060808190526f2628102a27a5a2a72096aa27a5a2a72160811b60a09081526200003391600091906200011e565b506001600d553480156200004657600080fd5b50620000516200006d565b600680546001600160a81b0319166101003302179055620002a5565b7f8b73c3c69bb8fe3d512ecc4cf759cc79239f7b179b0ffacaa9a75d522b39400f60006040516200009f919062000201565b60408051918290038220828201825260018352603160f81b6020938401528151928301939093528101919091527fc89efdaa54c0f20c7adf612882df0950f5a951637e0307cdcb4c672f298b8bc660608201524660808201523060a082015260c00160408051601f198184030181529190528051602090910120600455565b8280546200012c90620001c4565b90600052602060002090601f0160209004810192826200015057600085556200019b565b82601f106200016b57805160ff19168380011785556200019b565b828001600101855582156200019b579182015b828111156200019b5782518255916020019190600101906200017e565b50620001a9929150620001ad565b5090565b5b80821115620001a95760008155600101620001ae565b600181811c90821680620001d957607f821691505b60208210811415620001fb57634e487b7160e01b600052602260045260246000fd5b50919050565b600080835481600182811c9150808316806200021e57607f831692505b60208084108214156200023f57634e487b7160e01b86526022600452602486fd5b818015620002565760018114620002685762000297565b60ff1986168952848901965062000297565b60008a81526020902060005b868110156200028f5781548b82015290850190830162000274565b505084890196505b509498975050505050505050565b612b8380620002b56000396000f3fe608060405234801561001057600080fd5b50600436106102065760003560e01c80636a6278421161011a578063ba9a7a56116100ad578063d505accf1161007c578063d505accf14610489578063dd62ed3e1461049c578063e3ca2d65146104c7578063fd615558146104da578063fff6cae9146104e357600080fd5b8063ba9a7a5614610442578063bc25cf771461044b578063c45a01551461045e578063d21220a71461047657600080fd5b80638456cb59116100e95780638456cb59146103d957806389afcb44146103e157806395d89b4114610409578063a9059cbb1461042f57600080fd5b80636a6278421461037d57806370a08231146103905780637464fc3d146103b05780637ecebe00146103b957600080fd5b806324a9d8531161019d5780633f4ba83a1161016c5780633f4ba83a14610345578063485cc9551461034d5780635909c0d5146103605780635a3d5493146103695780635c975abb1461037257600080fd5b806324a9d853146102f257806330adf81f146102fb578063313ce567146103225780633644e5151461033c57600080fd5b80630dfe1681116101d95780630dfe16811461029557806313966db5146102c057806318160ddd146102c857806323b872dd146102df57600080fd5b8063022c0d9f1461020b57806306fdde03146102205780630902f1ac1461023e578063095ea7b314610272575b600080fd5b61021e6102193660046124cb565b6104eb565b005b610228610a1f565b6040516102359190612591565b60405180910390f35b610246610aad565b604080516001600160701b03948516815293909216602084015263ffffffff1690820152606001610235565b6102856102803660046125c4565b610ad7565b6040519015158152602001610235565b6007546102a8906001600160a01b031681565b6040516001600160a01b039091168152602001610235565b61021e610aed565b6102d160015481565b604051908152602001610235565b6102856102ed3660046125f0565b610c7e565b6102d1600e5481565b6102d17f6e71edae12b1b97f4d1f60370fef10105fa2faae0126114a169c64845d6126c981565b61032a601281565b60405160ff9091168152602001610235565b6102d160045481565b61021e610cf8565b61021e61035b366004612631565b610d31565b6102d1600a5481565b6102d1600b5481565b60065460ff16610285565b6102d161038b36600461266a565b610ec1565b6102d161039e36600461266a565b60026020526000908152604090205481565b6102d1600c5481565b6102d16103c736600461266a565b60056020526000908152604090205481565b61021e6111b1565b6103f46103ef36600461266a565b6111e8565b60408051928352602083019190915201610235565b6102286040518060400160405280600781526020016605445414c2d4c560cc1b81525081565b61028561043d3660046125c4565b611590565b6102d16103e881565b61021e61045936600461266a565b61159d565b6006546102a89061010090046001600160a01b031681565b6008546102a8906001600160a01b031681565b61021e610497366004612687565b6116c7565b6102d16104aa366004612631565b600360209081526000928352604080842090915290825290205481565b61021e6104d53660046126fe565b6118da565b6102d1600f5481565b61021e6119a3565b6104f3611aed565b600d5460011461051e5760405162461bcd60e51b815260040161051590612720565b60405180910390fd5b6000600d55841515806105315750600084115b6105895760405162461bcd60e51b8152602060048201526024808201527f5465616c737761703a20494e53554646494349454e545f4f55545055545f414d60448201526313d5539560e21b6064820152608401610515565b600080610594610aad565b5091509150816001600160701b0316871080156105b95750806001600160701b031686105b6106055760405162461bcd60e51b815260206004820181905260248201527f5465616c737761703a20494e53554646494349454e545f4c49515549444954596044820152606401610515565b60075460085460009182916001600160a01b039182169190811690891682148015906106435750806001600160a01b0316896001600160a01b031614155b6106865760405162461bcd60e51b81526020600482015260146024820152735465616c737761703a20494e56414c49445f544f60601b6044820152606401610515565b8a1561069757610697828a8d611b33565b89156106a8576106a8818a8c611b33565b861561071457604051627d5ea360e31b81526001600160a01b038a16906303eaf518906106e19033908f908f908e908e9060040161274a565b600060405180830381600087803b1580156106fb57600080fd5b505af115801561070f573d6000803e3d6000fd5b505050505b6040516370a0823160e01b81523060048201526001600160a01b038316906370a082319060240160206040518083038186803b15801561075357600080fd5b505afa158015610767573d6000803e3d6000fd5b505050506040513d601f19601f8201168201806040525081019061078b9190612796565b6040516370a0823160e01b81523060048201529094506001600160a01b038216906370a082319060240160206040518083038186803b1580156107cd57600080fd5b505afa1580156107e1573d6000803e3d6000fd5b505050506040513d601f19601f820116820180604052508101906108059190612796565b92505050600089856001600160701b031661082091906127c5565b831161082d57600061084a565b6108408a6001600160701b0387166127c5565b61084a90846127c5565b905060006108618a6001600160701b0387166127c5565b831161086e57600061088b565b6108818a6001600160701b0387166127c5565b61088b90846127c5565b9050600082118061089c5750600081115b6108f45760405162461bcd60e51b815260206004820152602360248201527f5465616c737761703a20494e53554646494349454e545f494e5055545f414d4f60448201526215539560ea1b6064820152608401610515565b600e54600061090382856127dc565b61090f876127106127dc565b61091991906127c5565b9050600061092783856127dc565b610933876127106127dc565b61093d91906127c5565b90506109556001600160701b03808a16908b166127dc565b610963906305f5e1006127dc565b61096d82846127dc565b10156109a95760405162461bcd60e51b815260206004820152600b60248201526a5465616c737761703a204b60a81b6044820152606401610515565b5050506109b884848888611c7e565b60408051838152602081018390529081018c9052606081018b90526001600160a01b038a169033907fd78ad95fa46c994b6551d0da85fc275fe613ce37657fb8d5e3d130840159d8229060800160405180910390a350506001600d55505050505050505050565b60008054610a2c906127fb565b80601f0160208091040260200160405190810160405280929190818152602001828054610a58906127fb565b8015610aa55780601f10610a7a57610100808354040283529160200191610aa5565b820191906000526020600020905b815481529060010190602001808311610a8857829003601f168201915b505050505081565b6009546001600160701b0380821692600160701b830490911691600160e01b900463ffffffff1690565b6000610ae4338484611e45565b50600192915050565b610af5611aed565b600d54600114610b175760405162461bcd60e51b815260040161051590612720565b6000600d81905580610b27610aad565b506007546040516370a0823160e01b81523060048201529294509092506000916001600160a01b03909116906370a082319060240160206040518083038186803b158015610b7457600080fd5b505afa158015610b88573d6000803e3d6000fd5b505050506040513d601f19601f82011682018060405250810190610bac9190612796565b6008546040516370a0823160e01b81523060048201529192506000916001600160a01b03909116906370a082319060240160206040518083038186803b158015610bf557600080fd5b505afa158015610c09573d6000803e3d6000fd5b505050506040513d601f19601f82011682018060405250810190610c2d9190612796565b90506000610c3b8585611ea7565b9050610c4983838787611c7e565b8015610c7257600954610c6e906001600160701b03600160701b8204811691166127dc565b600c555b50506001600d55505050565b6001600160a01b038316600090815260036020908152604080832033845290915281205460001914610ce3576001600160a01b038416600090815260036020908152604080832033845290915281208054849290610cdd9084906127c5565b90915550505b610cee848484612011565b5060019392505050565b60065461010090046001600160a01b03163314610d275760405162461bcd60e51b815260040161051590612830565b610d2f6120b9565b565b60065461010090046001600160a01b03163314610d605760405162461bcd60e51b815260040161051590612830565b600780546001600160a01b038085166001600160a01b0319928316811790935560088054918516919092161790556019600f556064600e55604080516395d89b4160e01b815290516395d89b4191600480820192600092909190829003018186803b158015610dce57600080fd5b505afa158015610de2573d6000803e3d6000fd5b505050506040513d6000823e601f3d908101601f19168201604052610e0a9190810190612873565b816001600160a01b03166395d89b416040518163ffffffff1660e01b815260040160006040518083038186803b158015610e4357600080fd5b505afa158015610e57573d6000803e3d6000fd5b505050506040513d6000823e601f3d908101601f19168201604052610e7f9190810190612873565b604051602001610e90929190612920565b60405160208183030381529060405260009080519060200190610eb492919061241a565b50610ebd61210b565b5050565b6000610ecb611aed565b600d54600114610eed5760405162461bcd60e51b815260040161051590612720565b6000600d81905580610efd610aad565b506007546040516370a0823160e01b81523060048201529294509092506000916001600160a01b03909116906370a082319060240160206040518083038186803b158015610f4a57600080fd5b505afa158015610f5e573d6000803e3d6000fd5b505050506040513d601f19601f82011682018060405250810190610f829190612796565b6008546040516370a0823160e01b81523060048201529192506000916001600160a01b03909116906370a082319060240160206040518083038186803b158015610fcb57600080fd5b505afa158015610fdf573d6000803e3d6000fd5b505050506040513d601f19601f820116820180604052508101906110039190612796565b9050600061101a6001600160701b038616846127c5565b905060006110316001600160701b038616846127c5565b9050600061103f8787611ea7565b6001549091508061107d576103e861105f61105a85876127dc565b6121ba565b61106991906127c5565b985061107860006103e861222a565b6110c4565b6110c16001600160701b03891661109483876127dc565b61109e9190612981565b6001600160701b0389166110b284876127dc565b6110bc9190612981565b6122bc565b98505b600089116111245760405162461bcd60e51b815260206004820152602760248201527f5465616c737761703a20494e53554646494349454e545f4c495155494449545960448201526617d3525395115160ca1b6064820152608401610515565b61112e8a8a61222a565b61113a86868a8a611c7e565b81156111635760095461115f906001600160701b03600160701b8204811691166127dc565b600c555b604080518581526020810185905233917f4c209b5fc8ad50758f13e2e1088ba56a560dff690a1c6fef26394f4c03821c4f910160405180910390a250506001600d5550949695505050505050565b60065461010090046001600160a01b031633146111e05760405162461bcd60e51b815260040161051590612830565b610d2f6122d4565b6000806111f3611aed565b600d546001146112155760405162461bcd60e51b815260040161051590612720565b6000600d81905580611225610aad565b506007546008546040516370a0823160e01b81523060048201529395509193506001600160a01b039081169291169060009083906370a082319060240160206040518083038186803b15801561127a57600080fd5b505afa15801561128e573d6000803e3d6000fd5b505050506040513d601f19601f820116820180604052508101906112b29190612796565b6040516370a0823160e01b81523060048201529091506000906001600160a01b038416906370a082319060240160206040518083038186803b1580156112f757600080fd5b505afa15801561130b573d6000803e3d6000fd5b505050506040513d601f19601f8201168201806040525081019061132f9190612796565b3060009081526002602052604081205491925061134c8888611ea7565b6001549091508061135d86856127dc565b6113679190612981565b9a508061137485856127dc565b61137e9190612981565b995060008b118015611390575060008a115b6113ec5760405162461bcd60e51b815260206004820152602760248201527f5465616c737761703a20494e53554646494349454e545f4c495155494449545960448201526617d0955493915160ca1b6064820152608401610515565b6113f63084612311565b611401878d8d611b33565b61140c868d8c611b33565b6040516370a0823160e01b81523060048201526001600160a01b038816906370a082319060240160206040518083038186803b15801561144b57600080fd5b505afa15801561145f573d6000803e3d6000fd5b505050506040513d601f19601f820116820180604052508101906114839190612796565b6040516370a0823160e01b81523060048201529095506001600160a01b038716906370a082319060240160206040518083038186803b1580156114c557600080fd5b505afa1580156114d9573d6000803e3d6000fd5b505050506040513d601f19601f820116820180604052508101906114fd9190612796565b935061150b85858b8b611c7e565b811561153457600954611530906001600160701b03600160701b8204811691166127dc565b600c555b604080518c8152602081018c90526001600160a01b038e169133917fdccd412f0b1252819cb1fd330b93224ca42612892bb3f4f789976e6d81936496910160405180910390a35050505050505050506001600d81905550915091565b6000610ae4338484612011565b6115a5611aed565b600d546001146115c75760405162461bcd60e51b815260040161051590612720565b6000600d556007546008546009546040516370a0823160e01b81523060048201526001600160a01b03938416939092169161167591849186916001600160701b03169083906370a08231906024015b60206040518083038186803b15801561162e57600080fd5b505afa158015611642573d6000803e3d6000fd5b505050506040513d601f19601f820116820180604052508101906116669190612796565b61167091906127c5565b611b33565b6009546040516370a0823160e01b81523060048201526116bd9183918691600160701b90046001600160701b0316906001600160a01b038416906370a0823190602401611616565b50506001600d5550565b4284101561170b5760405162461bcd60e51b81526020600482015260116024820152701519585b1cddd85c0e8811561412549151607a1b6044820152606401610515565b6004546001600160a01b038816600090815260056020526040812080549192917f6e71edae12b1b97f4d1f60370fef10105fa2faae0126114a169c64845d6126c9918b918b918b91908761175e83612995565b909155506040805160208101969096526001600160a01b0394851690860152929091166060840152608083015260a082015260c0810187905260e001604051602081830303815290604052805190602001206040516020016117d792919061190160f01b81526002810192909252602282015260420190565b60408051601f198184030181528282528051602091820120600080855291840180845281905260ff88169284019290925260608301869052608083018590529092509060019060a0016020604051602081039080840390855afa158015611842573d6000803e3d6000fd5b5050604051601f1901519150506001600160a01b038116158015906118785750886001600160a01b0316816001600160a01b0316145b6118c45760405162461bcd60e51b815260206004820152601b60248201527f5465616c737761703a20494e56414c49445f5349474e415455524500000000006044820152606401610515565b6118cf898989611e45565b505050505050505050565b60065461010090046001600160a01b031633146119095760405162461bcd60e51b815260040161051590612830565b61271082106119475760405162461bcd60e51b815260206004820152600a6024820152694261642066656542707360b01b6044820152606401610515565b600081116119905760405162461bcd60e51b81526020600482015260166024820152752130b210383937ba37b1b7b62332b2a234bb34b232b960511b6044820152606401610515565b611998610aed565b600e91909155600f55565b6119ab611aed565b600d546001146119cd5760405162461bcd60e51b815260040161051590612720565b6000600d556007546040516370a0823160e01b8152306004820152611ae6916001600160a01b0316906370a082319060240160206040518083038186803b158015611a1757600080fd5b505afa158015611a2b573d6000803e3d6000fd5b505050506040513d601f19601f82011682018060405250810190611a4f9190612796565b6008546040516370a0823160e01b81523060048201526001600160a01b03909116906370a082319060240160206040518083038186803b158015611a9257600080fd5b505afa158015611aa6573d6000803e3d6000fd5b505050506040513d601f19601f82011682018060405250810190611aca9190612796565b6009546001600160701b0380821691600160701b900416611c7e565b6001600d55565b60065460ff1615610d2f5760405162461bcd60e51b815260206004820152601060248201526f14185d5cd8589b194e881c185d5cd95960821b6044820152606401610515565b604080518082018252601981527f7472616e7366657228616464726573732c75696e74323536290000000000000060209182015281516001600160a01b0385811660248301526044808301869052845180840390910181526064909201845291810180516001600160e01b031663a9059cbb60e01b17905291516000928392871691611bbf91906129b0565b6000604051808303816000865af19150503d8060008114611bfc576040519150601f19603f3d011682016040523d82523d6000602084013e611c01565b606091505b5091509150818015611c2b575080511580611c2b575080806020019051810190611c2b91906129cc565b611c775760405162461bcd60e51b815260206004820152601960248201527f5465616c737761703a205452414e534645525f4641494c4544000000000000006044820152606401610515565b5050505050565b6001600160701b038411801590611c9c57506001600160701b038311155b611cdd5760405162461bcd60e51b81526020600482015260126024820152715465616c737761703a204f564552464c4f5760701b6044820152606401610515565b6000611cee640100000000426129ee565b600954909150600090611d0e90600160e01b900463ffffffff1683612a02565b905060008163ffffffff16118015611d2e57506001600160701b03841615155b8015611d4257506001600160701b03831615155b15611dad578063ffffffff16611d6a85611d5b8661239d565b6001600160e01b0316906123bc565b600a80546001600160e01b03929092169290920201905563ffffffff8116611d9584611d5b8761239d565b600b80546001600160e01b0392909216929092020190555b6009805463ffffffff8416600160e01b026001600160e01b036001600160701b03898116600160701b9081026001600160e01b03199095168c83161794909417918216831794859055604080519382169282169290921783529290930490911660208201527f1c411e9a96e071241c2f21f7726b17ae89e3cab4c78be50e062b03a9fffbbad1910160405180910390a1505050505050565b6001600160a01b0383811660008181526003602090815260408083209487168084529482529182902085905590518481527f8c5be1e5ebec7d5bd14f71427d1e84f3dd0314c0f7b2291e5b200ac8c7c3b92591015b60405180910390a3505050565b600080600660019054906101000a90046001600160a01b03166001600160a01b031663017e7e586040518163ffffffff1660e01b815260040160206040518083038186803b158015611ef857600080fd5b505afa158015611f0c573d6000803e3d6000fd5b505050506040513d601f19601f82011682018060405250810190611f309190612a27565b90506001600160a01b03811615801590611f4c57506000600f54115b600c549092508215611ffd578015611ff8576000611f7961105a6001600160701b038088169089166127dc565b90506000611f86836121ba565b905080821115611ff5576000611f9c82846127c5565b600154611fa991906127dc565b90506000826001600f54611fbd91906127c5565b611fc790866127dc565b611fd19190612a44565b90506000611fdf8284612981565b90508015611ff157611ff1878261222a565b5050505b50505b612009565b8015612009576000600c555b505092915050565b6001600160a01b0383166000908152600260205260409020546120359082906127c5565b6001600160a01b038085166000908152600260205260408082209390935590841681522054612065908290612a44565b6001600160a01b0380841660008181526002602052604090819020939093559151908516907fddf252ad1be2c89b69c2b068fc378daa952ba7f163c4a11628f55a4df523b3ef90611e9a9085815260200190565b6120c16123d1565b6006805460ff191690557f5db9ee0a495bf2e6ff9c91a7834c1ba4fdd244a5e8aa4e537bd38aeae4b073aa335b6040516001600160a01b03909116815260200160405180910390a1565b7f8b73c3c69bb8fe3d512ecc4cf759cc79239f7b179b0ffacaa9a75d522b39400f600060405161213b9190612a5c565b60408051918290038220828201825260018352603160f81b6020938401528151928301939093528101919091527fc89efdaa54c0f20c7adf612882df0950f5a951637e0307cdcb4c672f298b8bc660608201524660808201523060a082015260c00160408051601f198184030181529190528051602090910120600455565b6000600382111561221b57508060006121d4600283612981565b6121df906001612a44565b90505b81811015612215579050806002816121fa8186612981565b6122049190612a44565b61220e9190612981565b90506121e2565b50919050565b8115612225575060015b919050565b806001546122389190612a44565b6001556001600160a01b03821660009081526002602052604090205461225f908290612a44565b6001600160a01b0383166000818152600260205260408082209390935591519091907fddf252ad1be2c89b69c2b068fc378daa952ba7f163c4a11628f55a4df523b3ef906122b09085815260200190565b60405180910390a35050565b60008183106122cb57816122cd565b825b9392505050565b6122dc611aed565b6006805460ff191660011790557f62e78cea01bee320cd4e420270b5ea74000d11b0c9f74754ebdbfc544b05a2586120ee3390565b6001600160a01b0382166000908152600260205260409020546123359082906127c5565b6001600160a01b03831660009081526002602052604090205560015461235c9082906127c5565b6001556040518181526000906001600160a01b038416907fddf252ad1be2c89b69c2b068fc378daa952ba7f163c4a11628f55a4df523b3ef906020016122b0565b60006123b6600160701b6001600160701b038416612af8565b92915050565b60006122cd6001600160701b03831684612b27565b60065460ff16610d2f5760405162461bcd60e51b815260206004820152601460248201527314185d5cd8589b194e881b9bdd081c185d5cd95960621b6044820152606401610515565b828054612426906127fb565b90600052602060002090601f016020900481019282612448576000855561248e565b82601f1061246157805160ff191683800117855561248e565b8280016001018555821561248e579182015b8281111561248e578251825591602001919060010190612473565b5061249a92915061249e565b5090565b5b8082111561249a576000815560010161249f565b6001600160a01b03811681146124c857600080fd5b50565b6000806000806000608086880312156124e357600080fd5b853594506020860135935060408601356124fc816124b3565b9250606086013567ffffffffffffffff8082111561251957600080fd5b818801915088601f83011261252d57600080fd5b81358181111561253c57600080fd5b89602082850101111561254e57600080fd5b9699959850939650602001949392505050565b60005b8381101561257c578181015183820152602001612564565b8381111561258b576000848401525b50505050565b60208152600082518060208401526125b0816040850160208701612561565b601f01601f19169190910160400192915050565b600080604083850312156125d757600080fd5b82356125e2816124b3565b946020939093013593505050565b60008060006060848603121561260557600080fd5b8335612610816124b3565b92506020840135612620816124b3565b929592945050506040919091013590565b6000806040838503121561264457600080fd5b823561264f816124b3565b9150602083013561265f816124b3565b809150509250929050565b60006020828403121561267c57600080fd5b81356122cd816124b3565b600080600080600080600060e0888a0312156126a257600080fd5b87356126ad816124b3565b965060208801356126bd816124b3565b95506040880135945060608801359350608088013560ff811681146126e157600080fd5b9699959850939692959460a0840135945060c09093013592915050565b6000806040838503121561271157600080fd5b50508035926020909101359150565b60208082526010908201526f1519585b1cddd85c0e881313d0d2d15160821b604082015260600190565b60018060a01b038616815284602082015283604082015260806060820152816080820152818360a0830137600081830160a090810191909152601f909201601f19160101949350505050565b6000602082840312156127a857600080fd5b5051919050565b634e487b7160e01b600052601160045260246000fd5b6000828210156127d7576127d76127af565b500390565b60008160001904831182151516156127f6576127f66127af565b500290565b600181811c9082168061280f57607f821691505b6020821081141561221557634e487b7160e01b600052602260045260246000fd5b6020808252601390820152722a32b0b639bbb0b81d102327a92124a22222a760691b604082015260600190565b634e487b7160e01b600052604160045260246000fd5b60006020828403121561288557600080fd5b815167ffffffffffffffff8082111561289d57600080fd5b818401915084601f8301126128b157600080fd5b8151818111156128c3576128c361285d565b604051601f8201601f19908116603f011681019083821181831017156128eb576128eb61285d565b8160405282815287602084870101111561290457600080fd5b612915836020830160208801612561565b979650505050505050565b6202628160ed1b81526000835161293e816003850160208801612561565b602d60f81b600391840191820152835161295f816004840160208801612561565b01600401949350505050565b634e487b7160e01b600052601260045260246000fd5b6000826129905761299061296b565b500490565b60006000198214156129a9576129a96127af565b5060010190565b600082516129c2818460208701612561565b9190910192915050565b6000602082840312156129de57600080fd5b815180151581146122cd57600080fd5b6000826129fd576129fd61296b565b500690565b600063ffffffff83811690831681811015612a1f57612a1f6127af565b039392505050565b600060208284031215612a3957600080fd5b81516122cd816124b3565b60008219821115612a5757612a576127af565b500190565b600080835481600182811c915080831680612a7857607f831692505b6020808410821415612a9857634e487b7160e01b86526022600452602486fd5b818015612aac5760018114612abd57612aea565b60ff19861689528489019650612aea565b60008a81526020902060005b86811015612ae25781548b820152908501908301612ac9565b505084890196505b509498975050505050505050565b60006001600160e01b0382811684821681151582840482111615612b1e57612b1e6127af565b02949350505050565b60006001600160e01b0383811680612b4157612b4161296b565b9216919091049291505056fea2646970667358221220c6fe8cd8d8615c38fae7ac95e9f68715c1ad88dcacb1d3bd4259e5b8f1d405d264736f6c63430008090033",
  "linkReferences": {},
  "deployedLinkReferences": {}
}