{
  "_format": "hh-sol-artifact-1",
  "contractName": "MaiBridgeToken",
  "sourceName": "contracts/cBridge/pegged-bridge/tokens/customized/MaiBridgeToken.sol",
  "abi": [
    {
      "inputs": [
        {
          "internalType": "string",
          "name": "name_",
          "type": "string"
        },
        {
          "internalType": "string",
          "name": "symbol_",
          "type": "string"
        },
        {
          "internalType": "address",
          "name": "bridge_",
          "type": "address"
        },
        {
          "internalType": "address",
          "name": "maihub_",
          "type": "address"
        }
      ],
      "stateMutability": "nonpayable",
      "type": "constructor"
    },
    {
      "anonymous": false,
      "inputs": [
        {
          "indexed": true,
          "internalType": "address",
          "name": "owner",
          "type": "address"
        },
        {
          "indexed": true,
          "internalType": "address",
          "name": "spender",
          "type": "address"
        },
        {
          "indexed": false,
          "internalType": "uint256",
          "name": "value",
          "type": "uint256"
        }
      ],
      "name": "Approval",
      "type": "event"
    },
    {
      "anonymous": false,
      "inputs": [
        {
          "indexed": false,
          "internalType": "address",
          "name": "bridge",
          "type": "address"
        }
      ],
      "name": "BridgeUpdated",
      "type": "event"
    },
    {
      "anonymous": false,
      "inputs": [
        {
          "indexed": true,
          "internalType": "address",
          "name": "previousOwner",
          "type": "address"
        },
        {
          "indexed": true,
          "internalType": "address",
          "name": "newOwner",
          "type": "address"
        }
      ],
      "name": "OwnershipTransferred",
      "type": "event"
    },
    {
      "anonymous": false,
      "inputs": [
        {
          "indexed": true,
          "internalType": "address",
          "name": "from",
          "type": "address"
        },
        {
          "indexed": true,
          "internalType": "address",
          "name": "to",
          "type": "address"
        },
        {
          "indexed": false,
          "internalType": "uint256",
          "name": "value",
          "type": "uint256"
        }
      ],
      "name": "Transfer",
      "type": "event"
    },
    {
      "inputs": [
        {
          "internalType": "address",
          "name": "owner",
          "type": "address"
        },
        {
          "internalType": "address",
          "name": "spender",
          "type": "address"
        }
      ],
      "name": "allowance",
      "outputs": [
        {
          "internalType": "uint256",
          "name": "",
          "type": "uint256"
        }
      ],
      "stateMutability": "view",
      "type": "function"
    },
    {
      "inputs": [
        {
          "internalType": "address",
          "name": "spender",
          "type": "address"
        },
        {
          "internalType": "uint256",
          "name": "amount",
          "type": "uint256"
        }
      ],
      "name": "approve",
      "outputs": [
        {
          "internalType": "bool",
          "name": "",
          "type": "bool"
        }
      ],
      "stateMutability": "nonpayable",
      "type": "function"
    },
    {
      "inputs": [],
      "name": "asset",
      "outputs": [
        {
          "internalType": "address",
          "name": "",
          "type": "address"
        }
      ],
      "stateMutability": "view",
      "type": "function"
    },
    {
      "inputs": [
        {
          "internalType": "address",
          "name": "account",
          "type": "address"
        }
      ],
      "name": "balanceOf",
      "outputs": [
        {
          "internalType": "uint256",
          "name": "",
          "type": "uint256"
        }
      ],
      "stateMutability": "view",
      "type": "function"
    },
    {
      "inputs": [],
      "name": "bridge",
      "outputs": [
        {
          "internalType": "address",
          "name": "",
          "type": "address"
        }
      ],
      "stateMutability": "view",
      "type": "function"
    },
    {
      "inputs": [
        {
          "internalType": "address",
          "name": "_from",
          "type": "address"
        },
        {
          "internalType": "uint256",
          "name": "_amount",
          "type": "uint256"
        }
      ],
      "name": "burn",
      "outputs": [
        {
          "internalType": "bool",
          "name": "",
          "type": "bool"
        }
      ],
      "stateMutability": "nonpayable",
      "type": "function"
    },
    {
      "inputs": [],
      "name": "decimals",
      "outputs": [
        {
          "internalType": "uint8",
          "name": "",
          "type": "uint8"
        }
      ],
      "stateMutability": "view",
      "type": "function"
    },
    {
      "inputs": [
        {
          "internalType": "address",
          "name": "spender",
          "type": "address"
        },
        {
          "internalType": "uint256",
          "name": "subtractedValue",
          "type": "uint256"
        }
      ],
      "name": "decreaseAllowance",
      "outputs": [
        {
          "internalType": "bool",
          "name": "",
          "type": "bool"
        }
      ],
      "stateMutability": "nonpayable",
      "type": "function"
    },
    {
      "inputs": [],
      "name": "getOwner",
      "outputs": [
        {
          "internalType": "address",
          "name": "",
          "type": "address"
        }
      ],
      "stateMutability": "view",
      "type": "function"
    },
    {
      "inputs": [
        {
          "internalType": "address",
          "name": "spender",
          "type": "address"
        },
        {
          "internalType": "uint256",
          "name": "addedValue",
          "type": "uint256"
        }
      ],
      "name": "increaseAllowance",
      "outputs": [
        {
          "internalType": "bool",
          "name": "",
          "type": "bool"
        }
      ],
      "stateMutability": "nonpayable",
      "type": "function"
    },
    {
      "inputs": [],
      "name": "maihub",
      "outputs": [
        {
          "internalType": "address",
          "name": "",
          "type": "address"
        }
      ],
      "stateMutability": "view",
      "type": "function"
    },
    {
      "inputs": [
        {
          "internalType": "address",
          "name": "_to",
          "type": "address"
        },
        {
          "internalType": "uint256",
          "name": "_amount",
          "type": "uint256"
        }
      ],
      "name": "mint",
      "outputs": [
        {
          "internalType": "bool",
          "name": "",
          "type": "bool"
        }
      ],
      "stateMutability": "nonpayable",
      "type": "function"
    },
    {
      "inputs": [],
      "name": "name",
      "outputs": [
        {
          "internalType": "string",
          "name": "",
          "type": "string"
        }
      ],
      "stateMutability": "view",
      "type": "function"
    },
    {
      "inputs": [],
      "name": "owner",
      "outputs": [
        {
          "internalType": "address",
          "name": "",
          "type": "address"
        }
      ],
      "stateMutability": "view",
      "type": "function"
    },
    {
      "inputs": [],
      "name": "renounceOwnership",
      "outputs": [],
      "stateMutability": "nonpayable",
      "type": "function"
    },
    {
      "inputs": [],
      "name": "symbol",
      "outputs": [
        {
          "internalType": "string",
          "name": "",
          "type": "string"
        }
      ],
      "stateMutability": "view",
      "type": "function"
    },
    {
      "inputs": [],
      "name": "totalSupply",
      "outputs": [
        {
          "internalType": "uint256",
          "name": "",
          "type": "uint256"
        }
      ],
      "stateMutability": "view",
      "type": "function"
    },
    {
      "inputs": [
        {
          "internalType": "address",
          "name": "to",
          "type": "address"
        },
        {
          "internalType": "uint256",
          "name": "amount",
          "type": "uint256"
        }
      ],
      "name": "transfer",
      "outputs": [
        {
          "internalType": "bool",
          "name": "",
          "type": "bool"
        }
      ],
      "stateMutability": "nonpayable",
      "type": "function"
    },
    {
      "inputs": [
        {
          "internalType": "address",
          "name": "from",
          "type": "address"
        },
        {
          "internalType": "address",
          "name": "to",
          "type": "address"
        },
        {
          "internalType": "uint256",
          "name": "amount",
          "type": "uint256"
        }
      ],
      "name": "transferFrom",
      "outputs": [
        {
          "internalType": "bool",
          "name": "",
          "type": "bool"
        }
      ],
      "stateMutability": "nonpayable",
      "type": "function"
    },
    {
      "inputs": [
        {
          "internalType": "address",
          "name": "newOwner",
          "type": "address"
        }
      ],
      "name": "transferOwnership",
      "outputs": [],
      "stateMutability": "nonpayable",
      "type": "function"
    },
    {
      "inputs": [
        {
          "internalType": "address",
          "name": "_bridge",
          "type": "address"
        }
      ],
      "name": "updateBridge",
      "outputs": [],
      "stateMutability": "nonpayable",
      "type": "function"
    }
  ],
  "bytecode": "0x60c06040523480156200001157600080fd5b50604051620019e7380380620019e7833981016040819052620000349162000316565b8351849084906200004d90600390602085019062000186565b5080516200006390600490602084019062000186565b505050620000806200007a6200013060201b60201c565b62000134565b600680546001600160a01b0319166001600160a01b038481169190911790915581166080819052604080516338d52e0f60e01b815290516338d52e0f91600480820192602092909190829003018186803b158015620000de57600080fd5b505afa158015620000f3573d6000803e3d6000fd5b505050506040513d601f19601f82011682018060405250810190620001199190620003a5565b6001600160a01b031660a052506200040792505050565b3390565b600580546001600160a01b038381166001600160a01b0319831681179093556040519116919082907f8be0079c531659141344cd1fd0a4f28419497f9722a3daafe3b4186f6b6457e090600090a35050565b8280546200019490620003ca565b90600052602060002090601f016020900481019282620001b8576000855562000203565b82601f10620001d357805160ff191683800117855562000203565b8280016001018555821562000203579182015b8281111562000203578251825591602001919060010190620001e6565b506200021192915062000215565b5090565b5b8082111562000211576000815560010162000216565b634e487b7160e01b600052604160045260246000fd5b600082601f8301126200025457600080fd5b81516001600160401b03808211156200027157620002716200022c565b604051601f8301601f19908116603f011681019082821181831017156200029c576200029c6200022c565b81604052838152602092508683858801011115620002b957600080fd5b600091505b83821015620002dd5785820183015181830184015290820190620002be565b83821115620002ef5760008385830101525b9695505050505050565b80516001600160a01b03811681146200031157600080fd5b919050565b600080600080608085870312156200032d57600080fd5b84516001600160401b03808211156200034557600080fd5b620003538883890162000242565b955060208701519150808211156200036a57600080fd5b50620003798782880162000242565b9350506200038a60408601620002f9565b91506200039a60608601620002f9565b905092959194509250565b600060208284031215620003b857600080fd5b620003c382620002f9565b9392505050565b600181811c90821680620003df57607f821691505b602082108114156200040157634e487b7160e01b600052602260045260246000fd5b50919050565b60805160a05161158262000465600039600081816101c1015281816103f5015281816105c6015281816106ec01526107210152600081816102c6015281816105140152818161055501528181610743015261078401526115826000f3fe608060405234801561001057600080fd5b50600436106101375760003560e01c8063715018a6116100b8578063a457c2d71161007c578063a457c2d71461029b578063a9059cbb146102ae578063b80781bd146102c1578063dd62ed3e146102e8578063e78cea92146102fb578063f2fde38b1461030e57600080fd5b8063715018a61461025f578063893d20e8146102675780638da5cb5b1461026f57806395d89b41146102805780639dc29fac1461028857600080fd5b806338d52e0f116100ff57806338d52e0f146101bc57806339509351146101fb57806340c10f191461020e5780636eb382121461022157806370a082311461023657600080fd5b806306fdde031461013c578063095ea7b31461015a57806318160ddd1461017d57806323b872dd1461018f578063313ce567146101a2575b600080fd5b610144610321565b604051610151919061134f565b60405180910390f35b61016d61016836600461139e565b6103b3565b6040519015158152602001610151565b6002545b604051908152602001610151565b61016d61019d3660046113c8565b6103cb565b6101aa6103f1565b60405160ff9091168152602001610151565b6101e37f000000000000000000000000000000000000000000000000000000000000000081565b6040516001600160a01b039091168152602001610151565b61016d61020936600461139e565b610489565b61016d61021c36600461139e565b6104ab565b61023461022f366004611404565b6105f8565b005b610181610244366004611404565b6001600160a01b031660009081526020819052604090205490565b610234610654565b6101e3610668565b6005546001600160a01b03166101e3565b61014461067c565b61016d61029636600461139e565b61068b565b61016d6102a936600461139e565b6107f2565b61016d6102bc36600461139e565b610878565b6101e37f000000000000000000000000000000000000000000000000000000000000000081565b6101816102f636600461141f565b610886565b6006546101e3906001600160a01b031681565b61023461031c366004611404565b6108b1565b60606003805461033090611452565b80601f016020809104026020016040519081016040528092919081815260200182805461035c90611452565b80156103a95780601f1061037e576101008083540402835291602001916103a9565b820191906000526020600020905b81548152906001019060200180831161038c57829003601f168201915b5050505050905090565b6000336103c181858561092a565b5060019392505050565b6000336103d9858285610a4e565b6103e4858585610ac8565b60019150505b9392505050565b60007f00000000000000000000000000000000000000000000000000000000000000006001600160a01b031663313ce5676040518163ffffffff1660e01b815260040160206040518083038186803b15801561044c57600080fd5b505afa158015610460573d6000803e3d6000fd5b505050506040513d601f19601f82011682018060405250810190610484919061148d565b905090565b6000336103c181858561049c8383610886565b6104a691906114c6565b61092a565b6006546000906001600160a01b031633146105045760405162461bcd60e51b815260206004820152601460248201527363616c6c6572206973206e6f742062726964676560601b60448201526064015b60405180910390fd5b61050e3083610c96565b610539307f00000000000000000000000000000000000000000000000000000000000000008461092a565b6040516315b9c5c360e21b8152306004820152602481018390527f00000000000000000000000000000000000000000000000000000000000000006001600160a01b0316906356e7170c90604401600060405180830381600087803b1580156105a157600080fd5b505af11580156105b5573d6000803e3d6000fd5b506105ef9250506001600160a01b037f00000000000000000000000000000000000000000000000000000000000000001690508484610d75565b50600192915050565b610600610ddd565b600680546001600160a01b0319166001600160a01b0383169081179091556040519081527fe1694c0b21fdceff6411daed547c7463c2341b9695387bc82595b5b9b1851d4a9060200160405180910390a150565b61065c610ddd565b6106666000610e37565b565b60006104846005546001600160a01b031690565b60606004805461033090611452565b6006546000906001600160a01b031633146106df5760405162461bcd60e51b815260206004820152601460248201527363616c6c6572206973206e6f742062726964676560601b60448201526064016104fb565b6107146001600160a01b037f000000000000000000000000000000000000000000000000000000000000000016843085610e89565b6107686001600160a01b037f0000000000000000000000000000000000000000000000000000000000000000167f000000000000000000000000000000000000000000000000000000000000000084610ec1565b60405163086cba5760e11b8152306004820152602481018390527f00000000000000000000000000000000000000000000000000000000000000006001600160a01b0316906310d974ae90604401600060405180830381600087803b1580156107d057600080fd5b505af11580156107e4573d6000803e3d6000fd5b505050506105ef3083610f82565b600033816108008286610886565b9050838110156108605760405162461bcd60e51b815260206004820152602560248201527f45524332303a2064656372656173656420616c6c6f77616e63652062656c6f77604482015264207a65726f60d81b60648201526084016104fb565b61086d828686840361092a565b506001949350505050565b6000336103c1818585610ac8565b6001600160a01b03918216600090815260016020908152604080832093909416825291909152205490565b6108b9610ddd565b6001600160a01b03811661091e5760405162461bcd60e51b815260206004820152602660248201527f4f776e61626c653a206e6577206f776e657220697320746865207a65726f206160448201526564647265737360d01b60648201526084016104fb565b61092781610e37565b50565b6001600160a01b03831661098c5760405162461bcd60e51b8152602060048201526024808201527f45524332303a20617070726f76652066726f6d20746865207a65726f206164646044820152637265737360e01b60648201526084016104fb565b6001600160a01b0382166109ed5760405162461bcd60e51b815260206004820152602260248201527f45524332303a20617070726f766520746f20746865207a65726f206164647265604482015261737360f01b60648201526084016104fb565b6001600160a01b0383811660008181526001602090815260408083209487168084529482529182902085905590518481527f8c5be1e5ebec7d5bd14f71427d1e84f3dd0314c0f7b2291e5b200ac8c7c3b925910160405180910390a3505050565b6000610a5a8484610886565b90506000198114610ac25781811015610ab55760405162461bcd60e51b815260206004820152601d60248201527f45524332303a20696e73756666696369656e7420616c6c6f77616e636500000060448201526064016104fb565b610ac2848484840361092a565b50505050565b6001600160a01b038316610b2c5760405162461bcd60e51b815260206004820152602560248201527f45524332303a207472616e736665722066726f6d20746865207a65726f206164604482015264647265737360d81b60648201526084016104fb565b6001600160a01b038216610b8e5760405162461bcd60e51b815260206004820152602360248201527f45524332303a207472616e7366657220746f20746865207a65726f206164647260448201526265737360e81b60648201526084016104fb565b6001600160a01b03831660009081526020819052604090205481811015610c065760405162461bcd60e51b815260206004820152602660248201527f45524332303a207472616e7366657220616d6f756e7420657863656564732062604482015265616c616e636560d01b60648201526084016104fb565b6001600160a01b03808516600090815260208190526040808220858503905591851681529081208054849290610c3d9084906114c6565b92505081905550826001600160a01b0316846001600160a01b03167fddf252ad1be2c89b69c2b068fc378daa952ba7f163c4a11628f55a4df523b3ef84604051610c8991815260200190565b60405180910390a3610ac2565b6001600160a01b038216610cec5760405162461bcd60e51b815260206004820152601f60248201527f45524332303a206d696e7420746f20746865207a65726f20616464726573730060448201526064016104fb565b8060026000828254610cfe91906114c6565b90915550506001600160a01b03821660009081526020819052604081208054839290610d2b9084906114c6565b90915550506040518181526001600160a01b038316906000907fddf252ad1be2c89b69c2b068fc378daa952ba7f163c4a11628f55a4df523b3ef9060200160405180910390a35050565b6040516001600160a01b038316602482015260448101829052610dd890849063a9059cbb60e01b906064015b60408051601f198184030181529190526020810180516001600160e01b03166001600160e01b0319909316929092179091526110d0565b505050565b6005546001600160a01b031633146106665760405162461bcd60e51b815260206004820181905260248201527f4f776e61626c653a2063616c6c6572206973206e6f7420746865206f776e657260448201526064016104fb565b600580546001600160a01b038381166001600160a01b0319831681179093556040519116919082907f8be0079c531659141344cd1fd0a4f28419497f9722a3daafe3b4186f6b6457e090600090a35050565b6040516001600160a01b0380851660248301528316604482015260648101829052610ac29085906323b872dd60e01b90608401610da1565b604051636eb1769f60e11b81523060048201526001600160a01b038381166024830152600091839186169063dd62ed3e9060440160206040518083038186803b158015610f0d57600080fd5b505afa158015610f21573d6000803e3d6000fd5b505050506040513d601f19601f82011682018060405250810190610f4591906114de565b610f4f91906114c6565b6040516001600160a01b038516602482015260448101829052909150610ac290859063095ea7b360e01b90606401610da1565b6001600160a01b038216610fe25760405162461bcd60e51b815260206004820152602160248201527f45524332303a206275726e2066726f6d20746865207a65726f206164647265736044820152607360f81b60648201526084016104fb565b6001600160a01b038216600090815260208190526040902054818110156110565760405162461bcd60e51b815260206004820152602260248201527f45524332303a206275726e20616d6f756e7420657863656564732062616c616e604482015261636560f01b60648201526084016104fb565b6001600160a01b03831660009081526020819052604081208383039055600280548492906110859084906114f7565b90915550506040518281526000906001600160a01b038516907fddf252ad1be2c89b69c2b068fc378daa952ba7f163c4a11628f55a4df523b3ef9060200160405180910390a3505050565b6000611125826040518060400160405280602081526020017f5361666545524332303a206c6f772d6c6576656c2063616c6c206661696c6564815250856001600160a01b03166111a29092919063ffffffff16565b805190915015610dd85780806020019051810190611143919061150e565b610dd85760405162461bcd60e51b815260206004820152602a60248201527f5361666545524332303a204552433230206f7065726174696f6e20646964206e6044820152691bdd081cdd58d8d9595960b21b60648201526084016104fb565b60606111b184846000856111b9565b949350505050565b60608247101561121a5760405162461bcd60e51b815260206004820152602660248201527f416464726573733a20696e73756666696369656e742062616c616e636520666f6044820152651c8818d85b1b60d21b60648201526084016104fb565b6001600160a01b0385163b6112715760405162461bcd60e51b815260206004820152601d60248201527f416464726573733a2063616c6c20746f206e6f6e2d636f6e747261637400000060448201526064016104fb565b600080866001600160a01b0316858760405161128d9190611530565b60006040518083038185875af1925050503d80600081146112ca576040519150601f19603f3d011682016040523d82523d6000602084013e6112cf565b606091505b50915091506112df8282866112ea565b979650505050505050565b606083156112f95750816103ea565b8251156113095782518084602001fd5b8160405162461bcd60e51b81526004016104fb919061134f565b60005b8381101561133e578181015183820152602001611326565b83811115610ac25750506000910152565b602081526000825180602084015261136e816040850160208701611323565b601f01601f19169190910160400192915050565b80356001600160a01b038116811461139957600080fd5b919050565b600080604083850312156113b157600080fd5b6113ba83611382565b946020939093013593505050565b6000806000606084860312156113dd57600080fd5b6113e684611382565b92506113f460208501611382565b9150604084013590509250925092565b60006020828403121561141657600080fd5b6103ea82611382565b6000806040838503121561143257600080fd5b61143b83611382565b915061144960208401611382565b90509250929050565b600181811c9082168061146657607f821691505b6020821081141561148757634e487b7160e01b600052602260045260246000fd5b50919050565b60006020828403121561149f57600080fd5b815160ff811681146103ea57600080fd5b634e487b7160e01b600052601160045260246000fd5b600082198211156114d9576114d96114b0565b500190565b6000602082840312156114f057600080fd5b5051919050565b600082821015611509576115096114b0565b500390565b60006020828403121561152057600080fd5b815180151581146103ea57600080fd5b60008251611542818460208701611323565b919091019291505056fea264697066735822122092d6d255edb37f1c6676aeccdc81d0f95566b694fe73a30db2c6f7040558360664736f6c63430008090033",
  "linkReferences": {},
  "deployedLinkReferences": {}
}