{
  "_format": "hh-sol-artifact-1",
  "contractName": "TransferSwap",
  "sourceName": "contracts/cBridge/message/apps/examples/TransferSwap.sol",
  "abi": [
    {
      "inputs": [
        {
          "internalType": "address",
          "name": "_messageBus",
          "type": "address"
        },
        {
          "internalType": "address",
          "name": "_supportedDex",
          "type": "address"
        },
        {
          "internalType": "address",
          "name": "_nativeWrap",
          "type": "address"
        }
      ],
      "stateMutability": "nonpayable",
      "type": "constructor"
    },
    {
      "anonymous": false,
      "inputs": [
        {
          "indexed": false,
          "internalType": "bytes32",
          "name": "id",
          "type": "bytes32"
        },
        {
          "indexed": false,
          "internalType": "uint64",
          "name": "srcChainId",
          "type": "uint64"
        },
        {
          "indexed": false,
          "internalType": "uint256",
          "name": "amountIn",
          "type": "uint256"
        },
        {
          "indexed": false,
          "internalType": "address",
          "name": "tokenIn",
          "type": "address"
        },
        {
          "indexed": false,
          "internalType": "uint256",
          "name": "amountOut",
          "type": "uint256"
        },
        {
          "indexed": false,
          "internalType": "address",
          "name": "tokenOut",
          "type": "address"
        }
      ],
      "name": "DirectSwap",
      "type": "event"
    },
    {
      "anonymous": false,
      "inputs": [
        {
          "indexed": false,
          "internalType": "address",
          "name": "messageBus",
          "type": "address"
        }
      ],
      "name": "MessageBusUpdated",
      "type": "event"
    },
    {
      "anonymous": false,
      "inputs": [
        {
          "indexed": true,
          "internalType": "address",
          "name": "previousOwner",
          "type": "address"
        },
        {
          "indexed": true,
          "internalType": "address",
          "name": "newOwner",
          "type": "address"
        }
      ],
      "name": "OwnershipTransferred",
      "type": "event"
    },
    {
      "anonymous": false,
      "inputs": [
        {
          "indexed": false,
          "internalType": "bytes32",
          "name": "id",
          "type": "bytes32"
        },
        {
          "indexed": false,
          "internalType": "uint256",
          "name": "dstAmount",
          "type": "uint256"
        },
        {
          "indexed": false,
          "internalType": "enum TransferSwap.SwapStatus",
          "name": "status",
          "type": "uint8"
        }
      ],
      "name": "SwapRequestDone",
      "type": "event"
    },
    {
      "anonymous": false,
      "inputs": [
        {
          "indexed": false,
          "internalType": "bytes32",
          "name": "id",
          "type": "bytes32"
        },
        {
          "indexed": false,
          "internalType": "uint64",
          "name": "dstChainId",
          "type": "uint64"
        },
        {
          "indexed": false,
          "internalType": "uint256",
          "name": "srcAmount",
          "type": "uint256"
        },
        {
          "indexed": false,
          "internalType": "address",
          "name": "srcToken",
          "type": "address"
        },
        {
          "indexed": false,
          "internalType": "address",
          "name": "dstToken",
          "type": "address"
        }
      ],
      "name": "SwapRequestSent",
      "type": "event"
    },
    {
      "inputs": [
        {
          "internalType": "bytes",
          "name": "_sender",
          "type": "bytes"
        },
        {
          "internalType": "uint64",
          "name": "_srcChainId",
          "type": "uint64"
        },
        {
          "internalType": "bytes",
          "name": "_message",
          "type": "bytes"
        },
        {
          "internalType": "address",
          "name": "_executor",
          "type": "address"
        }
      ],
      "name": "executeMessage",
      "outputs": [
        {
          "internalType": "enum IMessageReceiverApp.ExecutionStatus",
          "name": "",
          "type": "uint8"
        }
      ],
      "stateMutability": "payable",
      "type": "function"
    },
    {
      "inputs": [
        {
          "internalType": "address",
          "name": "_sender",
          "type": "address"
        },
        {
          "internalType": "uint64",
          "name": "_srcChainId",
          "type": "uint64"
        },
        {
          "internalType": "bytes",
          "name": "_message",
          "type": "bytes"
        },
        {
          "internalType": "address",
          "name": "_executor",
          "type": "address"
        }
      ],
      "name": "executeMessage",
      "outputs": [
        {
          "internalType": "enum IMessageReceiverApp.ExecutionStatus",
          "name": "",
          "type": "uint8"
        }
      ],
      "stateMutability": "payable",
      "type": "function"
    },
    {
      "inputs": [
        {
          "internalType": "address",
          "name": "",
          "type": "address"
        },
        {
          "internalType": "address",
          "name": "_token",
          "type": "address"
        },
        {
          "internalType": "uint256",
          "name": "_amount",
          "type": "uint256"
        },
        {
          "internalType": "uint64",
          "name": "_srcChainId",
          "type": "uint64"
        },
        {
          "internalType": "bytes",
          "name": "_message",
          "type": "bytes"
        },
        {
          "internalType": "address",
          "name": "",
          "type": "address"
        }
      ],
      "name": "executeMessageWithTransfer",
      "outputs": [
        {
          "internalType": "enum IMessageReceiverApp.ExecutionStatus",
          "name": "",
          "type": "uint8"
        }
      ],
      "stateMutability": "payable",
      "type": "function"
    },
    {
      "inputs": [
        {
          "internalType": "address",
          "name": "",
          "type": "address"
        },
        {
          "internalType": "address",
          "name": "",
          "type": "address"
        },
        {
          "internalType": "uint256",
          "name": "",
          "type": "uint256"
        },
        {
          "internalType": "uint64",
          "name": "_srcChainId",
          "type": "uint64"
        },
        {
          "internalType": "bytes",
          "name": "_message",
          "type": "bytes"
        },
        {
          "internalType": "address",
          "name": "",
          "type": "address"
        }
      ],
      "name": "executeMessageWithTransferFallback",
      "outputs": [
        {
          "internalType": "enum IMessageReceiverApp.ExecutionStatus",
          "name": "",
          "type": "uint8"
        }
      ],
      "stateMutability": "payable",
      "type": "function"
    },
    {
      "inputs": [
        {
          "internalType": "address",
          "name": "_token",
          "type": "address"
        },
        {
          "internalType": "uint256",
          "name": "_amount",
          "type": "uint256"
        },
        {
          "internalType": "bytes",
          "name": "_message",
          "type": "bytes"
        },
        {
          "internalType": "address",
          "name": "_executor",
          "type": "address"
        }
      ],
      "name": "executeMessageWithTransferRefund",
      "outputs": [
        {
          "internalType": "enum IMessageReceiverApp.ExecutionStatus",
          "name": "",
          "type": "uint8"
        }
      ],
      "stateMutability": "payable",
      "type": "function"
    },
    {
      "inputs": [],
      "name": "messageBus",
      "outputs": [
        {
          "internalType": "address",
          "name": "",
          "type": "address"
        }
      ],
      "stateMutability": "view",
      "type": "function"
    },
    {
      "inputs": [
        {
          "internalType": "address",
          "name": "",
          "type": "address"
        }
      ],
      "name": "minSwapAmounts",
      "outputs": [
        {
          "internalType": "uint256",
          "name": "",
          "type": "uint256"
        }
      ],
      "stateMutability": "view",
      "type": "function"
    },
    {
      "inputs": [],
      "name": "nativeWrap",
      "outputs": [
        {
          "internalType": "address",
          "name": "",
          "type": "address"
        }
      ],
      "stateMutability": "view",
      "type": "function"
    },
    {
      "inputs": [],
      "name": "owner",
      "outputs": [
        {
          "internalType": "address",
          "name": "",
          "type": "address"
        }
      ],
      "stateMutability": "view",
      "type": "function"
    },
    {
      "inputs": [
        {
          "internalType": "address",
          "name": "_messageBus",
          "type": "address"
        }
      ],
      "name": "setMessageBus",
      "outputs": [],
      "stateMutability": "nonpayable",
      "type": "function"
    },
    {
      "inputs": [
        {
          "internalType": "address",
          "name": "_token",
          "type": "address"
        },
        {
          "internalType": "uint256",
          "name": "_minSwapAmount",
          "type": "uint256"
        }
      ],
      "name": "setMinSwapAmount",
      "outputs": [],
      "stateMutability": "nonpayable",
      "type": "function"
    },
    {
      "inputs": [
        {
          "internalType": "address",
          "name": "_nativeWrap",
          "type": "address"
        }
      ],
      "name": "setNativeWrap",
      "outputs": [],
      "stateMutability": "nonpayable",
      "type": "function"
    },
    {
      "inputs": [
        {
          "internalType": "address",
          "name": "_dex",
          "type": "address"
        },
        {
          "internalType": "bool",
          "name": "_enabled",
          "type": "bool"
        }
      ],
      "name": "setSupportedDex",
      "outputs": [],
      "stateMutability": "nonpayable",
      "type": "function"
    },
    {
      "inputs": [
        {
          "internalType": "address",
          "name": "newOwner",
          "type": "address"
        }
      ],
      "name": "transferOwnership",
      "outputs": [],
      "stateMutability": "nonpayable",
      "type": "function"
    },
    {
      "inputs": [
        {
          "internalType": "address",
          "name": "_receiver",
          "type": "address"
        },
        {
          "internalType": "uint256",
          "name": "_amountIn",
          "type": "uint256"
        },
        {
          "internalType": "uint64",
          "name": "_dstChainId",
          "type": "uint64"
        },
        {
          "components": [
            {
              "internalType": "address[]",
              "name": "path",
              "type": "address[]"
            },
            {
              "internalType": "address",
              "name": "dex",
              "type": "address"
            },
            {
              "internalType": "uint256",
              "name": "deadline",
              "type": "uint256"
            },
            {
              "internalType": "uint256",
              "name": "minRecvAmt",
              "type": "uint256"
            }
          ],
          "internalType": "struct TransferSwap.SwapInfo",
          "name": "_srcSwap",
          "type": "tuple"
        },
        {
          "components": [
            {
              "internalType": "address[]",
              "name": "path",
              "type": "address[]"
            },
            {
              "internalType": "address",
              "name": "dex",
              "type": "address"
            },
            {
              "internalType": "uint256",
              "name": "deadline",
              "type": "uint256"
            },
            {
              "internalType": "uint256",
              "name": "minRecvAmt",
              "type": "uint256"
            }
          ],
          "internalType": "struct TransferSwap.SwapInfo",
          "name": "_dstSwap",
          "type": "tuple"
        },
        {
          "internalType": "uint32",
          "name": "_maxBridgeSlippage",
          "type": "uint32"
        },
        {
          "internalType": "uint64",
          "name": "_nonce",
          "type": "uint64"
        }
      ],
      "name": "transferWithSwap",
      "outputs": [],
      "stateMutability": "payable",
      "type": "function"
    },
    {
      "inputs": [
        {
          "internalType": "address",
          "name": "_receiver",
          "type": "address"
        },
        {
          "internalType": "uint256",
          "name": "_amountIn",
          "type": "uint256"
        },
        {
          "internalType": "uint64",
          "name": "_dstChainId",
          "type": "uint64"
        },
        {
          "components": [
            {
              "internalType": "address[]",
              "name": "path",
              "type": "address[]"
            },
            {
              "internalType": "address",
              "name": "dex",
              "type": "address"
            },
            {
              "internalType": "uint256",
              "name": "deadline",
              "type": "uint256"
            },
            {
              "internalType": "uint256",
              "name": "minRecvAmt",
              "type": "uint256"
            }
          ],
          "internalType": "struct TransferSwap.SwapInfo",
          "name": "_srcSwap",
          "type": "tuple"
        },
        {
          "components": [
            {
              "internalType": "address[]",
              "name": "path",
              "type": "address[]"
            },
            {
              "internalType": "address",
              "name": "dex",
              "type": "address"
            },
            {
              "internalType": "uint256",
              "name": "deadline",
              "type": "uint256"
            },
            {
              "internalType": "uint256",
              "name": "minRecvAmt",
              "type": "uint256"
            }
          ],
          "internalType": "struct TransferSwap.SwapInfo",
          "name": "_dstSwap",
          "type": "tuple"
        },
        {
          "internalType": "uint32",
          "name": "_maxBridgeSlippage",
          "type": "uint32"
        },
        {
          "internalType": "uint64",
          "name": "_nonce",
          "type": "uint64"
        },
        {
          "internalType": "bool",
          "name": "_nativeOut",
          "type": "bool"
        }
      ],
      "name": "transferWithSwapNative",
      "outputs": [],
      "stateMutability": "payable",
      "type": "function"
    },
    {
      "stateMutability": "payable",
      "type": "receive"
    }
  ],
  "bytecode": "0x60806040523480156200001157600080fd5b5060405162002f0438038062002f048339810160408190526200003491620000fa565b8262000040336200008d565b600180546001600160a01b03199081166001600160a01b039384161782559382166000908152600360205260409020805460ff191690911790556004805490931691161790555062000144565b600080546001600160a01b038381166001600160a01b0319831681178455604051919092169283917f8be0079c531659141344cd1fd0a4f28419497f9722a3daafe3b4186f6b6457e09190a35050565b80516001600160a01b0381168114620000f557600080fd5b919050565b6000806000606084860312156200011057600080fd5b6200011b84620000dd565b92506200012b60208501620000dd565b91506200013b60408501620000dd565b90509250925092565b612db080620001546000396000f3fe6080604052600436106100f75760003560e01c80635fdb3d8d1161008a578063a1a227fa11610059578063a1a227fa14610279578063a8a7e29c14610299578063d9b796de146102ac578063f2fde38b146102cc57600080fd5b80635fdb3d8d146102275780637cd2bffc1461023a5780638da5cb5b1461024d5780639c649fdf1461026b57600080fd5b8063496dbfd9116100c6578063496dbfd9146101b2578063547cad12146101d45780635ab7afc6146101f45780635b5a66a71461020757600080fd5b8063063ce4e5146101035780630bcb49821461012c57806334e181251461013f578063457bfa2f1461017a57600080fd5b366100fe57005b600080fd5b61011661011136600461212c565b6102ec565b60405161012391906121d8565b60405180910390f35b61011661013a3660046121f2565b61032c565b34801561014b57600080fd5b5061016c61015a366004612265565b60026020526000908152604090205481565b604051908152602001610123565b34801561018657600080fd5b5060045461019a906001600160a01b031681565b6040516001600160a01b039091168152602001610123565b3480156101be57600080fd5b506101d26101cd366004612282565b610362565b005b3480156101e057600080fd5b506101d26101ef366004612265565b6103b7565b61011661020236600461231c565b610444565b34801561021357600080fd5b506101d2610222366004612265565b6104e9565b6101d261023536600461243b565b610544565b61011661024836600461231c565b6106db565b34801561025957600080fd5b506000546001600160a01b031661019a565b61011661013a366004612505565b34801561028557600080fd5b5060015461019a906001600160a01b031681565b6101d26102a7366004612553565b610900565b3480156102b857600080fd5b506101d26102c736600461260a565b6109ab565b3480156102d857600080fd5b506101d26102e7366004612265565b610a0f565b6001546000906001600160a01b031633146103225760405162461bcd60e51b815260040161031990612643565b60405180910390fd5b9695505050505050565b6001546000906001600160a01b031633146103595760405162461bcd60e51b815260040161031990612643565b95945050505050565b336103756000546001600160a01b031690565b6001600160a01b03161461039b5760405162461bcd60e51b81526004016103199061267a565b6001600160a01b03909116600090815260026020526040902055565b336103ca6000546001600160a01b031690565b6001600160a01b0316146103f05760405162461bcd60e51b81526004016103199061267a565b600180546001600160a01b0319166001600160a01b0383169081179091556040519081527f3f8223bcd8b3b875473e9f9e14e1ad075451a2b5ffd31591655da9a01516bf5e9060200160405180910390a150565b6001546000906001600160a01b031633146104715760405162461bcd60e51b815260040161031990612643565b60008380602001905181019061048791906126f3565b9050600061049b8260200151874688610ab9565b90507fccbb695db2dfb79e3f69bcf724d11b850c79b0ae358e62d60ed94044f38a2b9c81600060026040516104d293929190612859565b60405180910390a150600098975050505050505050565b336104fc6000546001600160a01b031690565b6001600160a01b0316146105225760405162461bcd60e51b81526004016103199061267a565b600480546001600160a01b0319166001600160a01b0392909216919091179055565b33321461057d5760405162461bcd60e51b81526020600482015260076024820152664e6f7420454f4160c81b6044820152606401610319565b863410156105c35760405162461bcd60e51b8152602060048201526013602482015272105b5bdd5b9d081a5b9cdd59999a58da595b9d606a1b6044820152606401610319565b6004546001600160a01b03166105d98680612874565b60008181106105ea576105ea6128bd565b90506020020160208101906105ff9190612265565b6001600160a01b0316146106465760405162461bcd60e51b815260206004820152600e60248201526d0e8ded6cadc40dad2e6dac2e8c6d60931b6044820152606401610319565b6004805460408051630d0e30db60e41b815290516001600160a01b039092169263d0e30db0928b92808301926000929182900301818588803b15801561068b57600080fd5b505af115801561069f573d6000803e3d6000fd5b50505050506106d1888888886106b4906128d3565b6106bd896128d3565b8888888f346106cc91906129af565b610af3565b5050505050505050565b6001546000906001600160a01b031633146107085760405162461bcd60e51b815260040161031990612643565b60008380602001905181019061071e91906126f3565b805151805191925090600090610736576107366128bd565b60200260200101516001600160a01b0316876001600160a01b0316146107d75760405162461bcd60e51b815260206004820152604a60248201527f6272696467656420746f6b656e206d757374206265207468652073616d65206160448201527f732074686520666972737420746f6b656e20696e2064657374696e6174696f6e606482015269040e6eec2e040e0c2e8d60b31b608482015260a401610319565b60006107e98260200151874688610ab9565b8251515190915060009060019081101561087c57835160019061080c908b610d21565b93509050801561085d578451518051610854919061082c906001906129af565b8151811061083c5761083c6128bd565b60200260200101518487602001518860600151610e6e565b60019150610876565b61086e8b8b87602001516000610e6e565b899250600391505b506108b4565b83515180516108ad9190600090610895576108956128bd565b60200260200101518a86602001518760600151610e6e565b5087905060015b7fccbb695db2dfb79e3f69bcf724d11b850c79b0ae358e62d60ed94044f38a2b9c8383836040516108e793929190612859565b60405180910390a15060019a9950505050505050505050565b3332146109395760405162461bcd60e51b81526020600482015260076024820152664e6f7420454f4160c81b6044820152606401610319565b6109803330886109498880612874565b600081811061095a5761095a6128bd565b905060200201602081019061096f9190612265565b6001600160a01b0316929190610fde565b6109a287878761098f886128d3565b610998886128d3565b8787600034610af3565b50505050505050565b336109be6000546001600160a01b031690565b6001600160a01b0316146109e45760405162461bcd60e51b81526004016103199061267a565b6001600160a01b03919091166000908152600360205260409020805460ff1916911515919091179055565b33610a226000546001600160a01b031690565b6001600160a01b031614610a485760405162461bcd60e51b81526004016103199061267a565b6001600160a01b038116610aad5760405162461bcd60e51b815260206004820152602660248201527f4f776e61626c653a206e6577206f776e657220697320746865207a65726f206160448201526564647265737360d01b6064820152608401610319565b610ab681611049565b50565b600084848484604051602001610ad294939291906129f2565b6040516020818303038152906040528051906020012090505b949350505050565b855151610b385760405162461bcd60e51b81526020600482015260136024820152720cadae0e8f240e6e4c640e6eec2e040e0c2e8d606b1b6044820152606401610319565b8551805160009190610b4c906001906129af565b81518110610b5c57610b5c6128bd565b60200260200101519050600260008860000151600081518110610b8157610b816128bd565b60200260200101516001600160a01b03166001600160a01b03168152602001908152602001600020548911610c0c5760405162461bcd60e51b815260206004820152602b60248201527f616d6f756e74206d7573742062652067726561746572207468616e206d696e2060448201526a1cddd85c08185b5bdd5b9d60aa1b6064820152608401610319565b865151469060011080610c315750806001600160401b0316896001600160401b031614155b610c735760405162461bcd60e51b81526020600482015260136024820152721b9bdbdc081a5cc81b9bdd08185b1b1bddd959606a1b6044820152606401610319565b8751518a9060011015610cd1576001610c8c8a8d610d21565b9250905080610ccf5760405162461bcd60e51b815260206004820152600f60248201526e1cdc98c81cddd85c0819985a5b1959608a1b6044820152606401610319565b505b816001600160401b03168a6001600160401b03161415610cff57610cfa8c8c848c8a8887611099565b610d13565b610d138c8c848d8d8d8d8d8d8d8d8c611177565b505050505050505050505050565b6020808301516001600160a01b03166000908152600390915260408120548190819060ff16610d5557600092509050610e67565b610d958560200151858760000151600081518110610d7557610d756128bd565b60200260200101516001600160a01b03166113019092919063ffffffff16565b84602001516001600160a01b03166338ed17398587606001518860000151308a604001516040518663ffffffff1660e01b8152600401610dd9959493929190612a92565b600060405180830381600087803b158015610df357600080fd5b505af1925050508015610e2857506040513d6000823e601f3d908101601f19168201604052610e259190810190612ace565b60015b610e3757600092509050610e67565b60018160018351610e4891906129af565b81518110610e5857610e586128bd565b60200260200101519350935050505b9250929050565b8015610fc4576004546001600160a01b03858116911614610ec25760405162461bcd60e51b815260206004820152600e60248201526d0e8ded6cadc40dad2e6dac2e8c6d60931b6044820152606401610319565b60048054604051632e1a7d4d60e01b81529182018590526001600160a01b031690632e1a7d4d90602401600060405180830381600087803b158015610f0657600080fd5b505af1158015610f1a573d6000803e3d6000fd5b505050506000826001600160a01b03168461c35090604051600060405180830381858888f193505050503d8060008114610f70576040519150601f19603f3d011682016040523d82523d6000602084013e610f75565b606091505b5050905080610fbe5760405162461bcd60e51b81526020600482015260156024820152746661696c656420746f2073656e64206e617469766560581b6044820152606401610319565b50610fd8565b610fd86001600160a01b03851683856113c2565b50505050565b6040516001600160a01b0380851660248301528316604482015260648101829052610fd89085906323b872dd60e01b906084015b60408051601f198184030181529190526020810180516001600160e01b03166001600160e01b0319909316929092179091526113f7565b600080546001600160a01b038381166001600160a01b0319831681178455604051919092169283917f8be0079c531659141344cd1fd0a4f28419497f9722a3daafe3b4186f6b6457e09190a35050565b6110ad6001600160a01b03831688836113c2565b600033868986886040516020016110c8959493929190612b9a565b6040516020818303038152906040528051906020012090507fdbd876e57420a75850bd1ce36de349d111ab4ff35e2c2379af8acc7503769174818789886000015160008151811061111b5761111b6128bd565b602090810291909101810151604080519586526001600160401b0390941691850191909152918301526001600160a01b03908116606083015260808201859052851660a082015260c00160405180910390a15050505050505050565b8651516111bc5760405162461bcd60e51b81526020600482015260136024820152720cadae0e8f240c8e6e840e6eec2e040e0c2e8d606b1b6044820152606401610319565b60006040518060800160405280898152602001336001600160a01b03168152602001876001600160401b031681526020018615158152506040516020016112039190612bde565b60405160208183030381529060405290506000611222338d8d85610ab9565b90506112368e85858e8b8d8860018d6114c9565b507f600b63623f19b18f8f0e7825ec78b3d9779d8124c76ad75b58aac7167f04f8d2818c8f8d60000151600081518110611272576112726128bd565b60209081029190910101518d51805161128d906001906129af565b8151811061129d5761129d6128bd565b60200260200101516040516112e99594939291909485526001600160401b0393909316602085015260408401919091526001600160a01b03908116606084015216608082015260a00190565b60405180910390a15050505050505050505050505050565b604051636eb1769f60e11b81523060048201526001600160a01b038381166024830152600091839186169063dd62ed3e9060440160206040518083038186803b15801561134d57600080fd5b505afa158015611361573d6000803e3d6000fd5b505050506040513d601f19601f820116820180604052508101906113859190612c37565b61138f9190612c50565b6040516001600160a01b038516602482015260448101829052909150610fd890859063095ea7b360e01b90606401611012565b6040516001600160a01b0383166024820152604481018290526113f290849063a9059cbb60e01b90606401611012565b505050565b600061144c826040518060400160405280602081526020017f5361666545524332303a206c6f772d6c6576656c2063616c6c206661696c6564815250856001600160a01b03166115009092919063ffffffff16565b8051909150156113f2578080602001905181019061146a9190612c68565b6113f25760405162461bcd60e51b815260206004820152602a60248201527f5361666545524332303a204552433230206f7065726174696f6e20646964206e6044820152691bdd081cdd58d8d9595960b21b6064820152608401610319565b60006114f28a8a8a8a8a8a8a8a600160009054906101000a90046001600160a01b03168b611519565b9a9950505050505050505050565b606061150f84846000856115b2565b90505b9392505050565b600080600061152e8d8d8d8d8d8d8c8c6116e3565b88519193509150156115a257846001600160a01b0316634289fbb3858f8d85878d6040518763ffffffff1660e01b815260040161156f959493929190612cb1565b6000604051808303818588803b15801561158857600080fd5b505af115801561159c573d6000803e3d6000fd5b50505050505b509b9a5050505050505050505050565b6060824710156116135760405162461bcd60e51b815260206004820152602660248201527f416464726573733a20696e73756666696369656e742062616c616e636520666f6044820152651c8818d85b1b60d21b6064820152608401610319565b6001600160a01b0385163b61166a5760405162461bcd60e51b815260206004820152601d60248201527f416464726573733a2063616c6c20746f206e6f6e2d636f6e74726163740000006044820152606401610319565b600080866001600160a01b031685876040516116869190612cf3565b60006040518083038185875af1925050503d80600081146116c3576040519150601f19603f3d011682016040523d82523d6000602084013e6116c8565b606091505b50915091506116d8828286611e0c565b979650505050505050565b60008060018460068111156116fa576116fa6121c2565b141561182857826001600160a01b03166382980dc46040518163ffffffff1660e01b815260040160206040518083038186803b15801561173957600080fd5b505afa15801561174d573d6000803e3d6000fd5b505050506040513d601f19601f820116820180604052508101906117719190612d0f565b90506117876001600160a01b038a16828a611301565b60405163a5977fbb60e01b81526001600160a01b038b811660048301528a81166024830152604482018a90526001600160401b03808a1660648401528816608483015263ffffffff871660a483015282169063a5977fbb9060c401600060405180830381600087803b1580156117fc57600080fd5b505af1158015611810573d6000803e3d6000fd5b505050506118218a8a8a8a8a611e45565b9150611dff565b600284600681111561183c5761183c6121c2565b141561193c57826001600160a01b031663d8257d176040518163ffffffff1660e01b815260040160206040518083038186803b15801561187b57600080fd5b505afa15801561188f573d6000803e3d6000fd5b505050506040513d601f19601f820116820180604052508101906118b39190612d0f565b90506118c96001600160a01b038a16828a611301565b806001600160a01b031663234636248a8a8a8e8b6040518663ffffffff1660e01b81526004016118fd959493929190612d2c565b600060405180830381600087803b15801561191757600080fd5b505af115801561192b573d6000803e3d6000fd5b505050506118218a8a8a8a8a611ec8565b6003846006811115611950576119506121c2565b1415611a7857826001600160a01b031663dfa2dbaf6040518163ffffffff1660e01b815260040160206040518083038186803b15801561198f57600080fd5b505afa1580156119a3573d6000803e3d6000fd5b505050506040513d601f19601f820116820180604052508101906119c79190612d0f565b90506119dd6001600160a01b038a16828a611301565b604051636f3c863f60e11b81526001600160a01b038a81166004830152602482018a90528b811660448301526001600160401b038816606483015282169063de790c7e90608401600060405180830381600087803b158015611a3e57600080fd5b505af1158015611a52573d6000803e3d6000fd5b50611a6c925050506001600160a01b038a16826000611f31565b6118218a8a8a89612055565b6004846006811115611a8c57611a8c6121c2565b1415611b9f57826001600160a01b031663c66a9c5a6040518163ffffffff1660e01b815260040160206040518083038186803b158015611acb57600080fd5b505afa158015611adf573d6000803e3d6000fd5b505050506040513d601f19601f82011682018060405250810190611b039190612d0f565b9050611b196001600160a01b038a16828a611301565b806001600160a01b031663234636248a8a8a8e8b6040518663ffffffff1660e01b8152600401611b4d959493929190612d2c565b602060405180830381600087803b158015611b6757600080fd5b505af1158015611b7b573d6000803e3d6000fd5b505050506040513d601f19601f820116820180604052508101906118219190612c37565b6005846006811115611bb357611bb36121c2565b1415611ce257826001600160a01b03166395b12c276040518163ffffffff1660e01b815260040160206040518083038186803b158015611bf257600080fd5b505afa158015611c06573d6000803e3d6000fd5b505050506040513d601f19601f82011682018060405250810190611c2a9190612d0f565b9050611c406001600160a01b038a16828a611301565b806001600160a01b031663a00293018a8a8a8e8b6040518663ffffffff1660e01b8152600401611c74959493929190612d2c565b602060405180830381600087803b158015611c8e57600080fd5b505af1158015611ca2573d6000803e3d6000fd5b505050506040513d601f19601f82011682018060405250810190611cc69190612c37565b9150611cdd6001600160a01b038a16826000611f31565b611dff565b6006846006811115611cf657611cf66121c2565b1415611db757826001600160a01b03166395b12c276040518163ffffffff1660e01b815260040160206040518083038186803b158015611d3557600080fd5b505afa158015611d49573d6000803e3d6000fd5b505050506040513d601f19601f82011682018060405250810190611d6d9190612d0f565b9050611d836001600160a01b038a16828a611301565b806001600160a01b0316639e422c338a8a8a8e8b6040518663ffffffff1660e01b8152600401611c74959493929190612d2c565b60405162461bcd60e51b815260206004820152601960248201527f6272696467652074797065206e6f7420737570706f72746564000000000000006044820152606401610319565b9850989650505050505050565b60608315611e1b575081611512565b825115611e2b5782518084602001fd5b8160405162461bcd60e51b81526004016103199190612d67565b6040516001600160601b031930606090811b8216602084015287811b8216603484015286901b166048820152605c81018490526001600160c01b031960c084811b8216607c84015283811b8216608484015246901b16608c8201526000906094015b60405160208183030381529060405280519060200120905095945050505050565b6040516001600160601b031930606090811b8216602084015286811b82166034840152604883018690526001600160c01b031960c086811b821660688601529189901b909216607084015283811b8216608484015246901b16608c820152600090609401611ea7565b801580611fba5750604051636eb1769f60e11b81523060048201526001600160a01b03838116602483015284169063dd62ed3e9060440160206040518083038186803b158015611f8057600080fd5b505afa158015611f94573d6000803e3d6000fd5b505050506040513d601f19601f82011682018060405250810190611fb89190612c37565b155b6120255760405162461bcd60e51b815260206004820152603660248201527f5361666545524332303a20617070726f76652066726f6d206e6f6e2d7a65726f60448201527520746f206e6f6e2d7a65726f20616c6c6f77616e636560501b6064820152608401610319565b6040516001600160a01b0383166024820152604481018290526113f290849063095ea7b360e01b90606401611012565b6040516001600160601b031930606090811b8216602084015285811b821660348401526048830185905286901b1660688201526001600160c01b031960c083811b8216607c84015246901b166084820152600090608c01610ad2565b60008083601f8401126120c357600080fd5b5081356001600160401b038111156120da57600080fd5b602083019150836020828501011115610e6757600080fd5b6001600160401b0381168114610ab657600080fd5b6001600160a01b0381168114610ab657600080fd5b803561212781612107565b919050565b6000806000806000806080878903121561214557600080fd5b86356001600160401b038082111561215c57600080fd5b6121688a838b016120b1565b90985096506020890135915061217d826120f2565b9094506040880135908082111561219357600080fd5b506121a089828a016120b1565b90945092505060608701356121b481612107565b809150509295509295509295565b634e487b7160e01b600052602160045260246000fd5b60208101600383106121ec576121ec6121c2565b91905290565b60008060008060006080868803121561220a57600080fd5b853561221581612107565b94506020860135935060408601356001600160401b0381111561223757600080fd5b612243888289016120b1565b909450925050606086013561225781612107565b809150509295509295909350565b60006020828403121561227757600080fd5b813561151281612107565b6000806040838503121561229557600080fd5b82356122a081612107565b946020939093013593505050565b634e487b7160e01b600052604160045260246000fd5b604051608081016001600160401b03811182821017156122e6576122e66122ae565b60405290565b604051601f8201601f191681016001600160401b0381118282101715612314576123146122ae565b604052919050565b60008060008060008060c0878903121561233557600080fd5b863561234081612107565b955060208781013561235181612107565b9550604088013594506060880135612368816120f2565b935060808801356001600160401b038082111561238457600080fd5b818a0191508a601f83011261239857600080fd5b8135818111156123aa576123aa6122ae565b6123bc601f8201601f191685016122ec565b91508082528b848285010111156123d257600080fd5b80848401858401376000848284010152508094505050506123f560a0880161211c565b90509295509295509295565b60006080828403121561241357600080fd5b50919050565b803563ffffffff8116811461212757600080fd5b8015158114610ab657600080fd5b600080600080600080600080610100898b03121561245857600080fd5b883561246381612107565b975060208901359650604089013561247a816120f2565b955060608901356001600160401b038082111561249657600080fd5b6124a28c838d01612401565b965060808b01359150808211156124b857600080fd5b506124c58b828c01612401565b9450506124d460a08a01612419565b925060c08901356124e4816120f2565b915060e08901356124f48161242d565b809150509295985092959890939650565b60008060008060006080868803121561251d57600080fd5b853561252881612107565b94506020860135612538816120f2565b935060408601356001600160401b0381111561223757600080fd5b600080600080600080600060e0888a03121561256e57600080fd5b873561257981612107565b9650602088013595506040880135612590816120f2565b945060608801356001600160401b03808211156125ac57600080fd5b6125b88b838c01612401565b955060808a01359150808211156125ce57600080fd5b506125db8a828b01612401565b9350506125ea60a08901612419565b915060c08801356125fa816120f2565b8091505092959891949750929550565b6000806040838503121561261d57600080fd5b823561262881612107565b915060208301356126388161242d565b809150509250929050565b60208082526019908201527f63616c6c6572206973206e6f74206d6573736167652062757300000000000000604082015260600190565b6020808252818101527f4f776e61626c653a2063616c6c6572206973206e6f7420746865206f776e6572604082015260600190565b60006001600160401b038211156126c8576126c86122ae565b5060051b60200190565b805161212781612107565b8051612127816120f2565b80516121278161242d565b6000602080838503121561270657600080fd5b82516001600160401b038082111561271d57600080fd5b908401906080828703121561273157600080fd5b6127396122c4565b82518281111561274857600080fd5b83016080818903121561275a57600080fd5b6127626122c4565b81518481111561277157600080fd5b82019350601f8401891361278457600080fd5b8351612797612792826126af565b6122ec565b81815260059190911b8501870190878101908b8311156127b657600080fd5b958801955b828710156127dd5786516127ce81612107565b825295880195908801906127bb565b8352506127ed90508287016126d2565b86820152604082015160408201526060820151606082015280835250506128158484016126d2565b84820152612825604084016126dd565b6040820152612836606084016126e8565b60608201529695505050505050565b60048110612855576128556121c2565b9052565b8381526020810183905260608101610aeb6040830184612845565b6000808335601e1984360301811261288b57600080fd5b8301803591506001600160401b038211156128a557600080fd5b6020019150600581901b3603821315610e6757600080fd5b634e487b7160e01b600052603260045260246000fd5b6000608082360312156128e557600080fd5b6128ed6122c4565b82356001600160401b0381111561290357600080fd5b830136601f82011261291457600080fd5b80356020612924612792836126af565b82815260059290921b8301810191818101903684111561294357600080fd5b938201935b8385101561296a57843561295b81612107565b82529382019390820190612948565b85525061297886820161211c565b90840152505060408381013590820152606092830135928101929092525090565b634e487b7160e01b600052601160045260246000fd5b6000828210156129c1576129c1612999565b500390565b60005b838110156129e15781810151838201526020016129c9565b83811115610fd85750506000910152565b6bffffffffffffffffffffffff198560601b16815260006001600160401b0360c01b808660c01b166014840152808560c01b16601c840152508251612a3e8160248501602087016129c6565b9190910160240195945050505050565b600081518084526020808501945080840160005b83811015612a875781516001600160a01b031687529582019590820190600101612a62565b509495945050505050565b85815284602082015260a060408201526000612ab160a0830186612a4e565b6001600160a01b0394909416606083015250608001529392505050565b60006020808385031215612ae157600080fd5b82516001600160401b03811115612af757600080fd5b8301601f81018513612b0857600080fd5b8051612b16612792826126af565b81815260059190911b82018301908381019087831115612b3557600080fd5b928401925b828410156116d857835182529284019290840190612b3a565b6000815160808452612b686080850182612a4e565b6020848101516001600160a01b0316908601526040808501519086015260609384015193909401929092525090919050565b6001600160a01b0386811682526001600160401b03868116602084015290851660408301528316606082015260a0608082018190526000906116d890830184612b53565b602081526000825160806020840152612bfa60a0840182612b53565b905060018060a01b0360208501511660408401526001600160401b0360408501511660608401526060840151151560808401528091505092915050565b600060208284031215612c4957600080fd5b5051919050565b60008219821115612c6357612c63612999565b500190565b600060208284031215612c7a57600080fd5b81516115128161242d565b60008151808452612c9d8160208601602086016129c6565b601f01601f19169290920160200192915050565b6001600160a01b0386811682526001600160401b0386166020830152841660408201526060810183905260a0608082018190526000906116d890830184612c85565b60008251612d058184602087016129c6565b9190910192915050565b600060208284031215612d2157600080fd5b815161151281612107565b6001600160a01b03958616815260208101949094526001600160401b0392831660408501529316606083015291909116608082015260a00190565b6020815260006115126020830184612c8556fea2646970667358221220352922033a8e357bdd71456009897cf5bd60b6ee7ffb7027d9f23b28f6c1566264736f6c63430008090033",
  "linkReferences": {},
  "deployedLinkReferences": {}
}