{
  "_format": "hh-sol-artifact-1",
  "contractName": "StakingReward",
  "sourceName": "contracts/cBridge/staking/StakingReward.sol",
  "abi": [
    {
      "inputs": [
        {
          "internalType": "contract Staking",
          "name": "_staking",
          "type": "address"
        }
      ],
      "stateMutability": "nonpayable",
      "type": "constructor"
    },
    {
      "anonymous": false,
      "inputs": [
        {
          "indexed": true,
          "internalType": "address",
          "name": "previousOwner",
          "type": "address"
        },
        {
          "indexed": true,
          "internalType": "address",
          "name": "newOwner",
          "type": "address"
        }
      ],
      "name": "OwnershipTransferred",
      "type": "event"
    },
    {
      "anonymous": false,
      "inputs": [
        {
          "indexed": false,
          "internalType": "address",
          "name": "account",
          "type": "address"
        }
      ],
      "name": "Paused",
      "type": "event"
    },
    {
      "anonymous": false,
      "inputs": [
        {
          "indexed": false,
          "internalType": "address",
          "name": "account",
          "type": "address"
        }
      ],
      "name": "PauserAdded",
      "type": "event"
    },
    {
      "anonymous": false,
      "inputs": [
        {
          "indexed": false,
          "internalType": "address",
          "name": "account",
          "type": "address"
        }
      ],
      "name": "PauserRemoved",
      "type": "event"
    },
    {
      "anonymous": false,
      "inputs": [
        {
          "indexed": true,
          "internalType": "address",
          "name": "recipient",
          "type": "address"
        },
        {
          "indexed": false,
          "internalType": "uint256",
          "name": "reward",
          "type": "uint256"
        }
      ],
      "name": "StakingRewardClaimed",
      "type": "event"
    },
    {
      "anonymous": false,
      "inputs": [
        {
          "indexed": true,
          "internalType": "address",
          "name": "contributor",
          "type": "address"
        },
        {
          "indexed": false,
          "internalType": "uint256",
          "name": "contribution",
          "type": "uint256"
        }
      ],
      "name": "StakingRewardContributed",
      "type": "event"
    },
    {
      "anonymous": false,
      "inputs": [
        {
          "indexed": false,
          "internalType": "address",
          "name": "account",
          "type": "address"
        }
      ],
      "name": "Unpaused",
      "type": "event"
    },
    {
      "inputs": [
        {
          "internalType": "address",
          "name": "account",
          "type": "address"
        }
      ],
      "name": "addPauser",
      "outputs": [],
      "stateMutability": "nonpayable",
      "type": "function"
    },
    {
      "inputs": [
        {
          "internalType": "bytes",
          "name": "_rewardRequest",
          "type": "bytes"
        },
        {
          "internalType": "bytes[]",
          "name": "_sigs",
          "type": "bytes[]"
        }
      ],
      "name": "claimReward",
      "outputs": [],
      "stateMutability": "nonpayable",
      "type": "function"
    },
    {
      "inputs": [
        {
          "internalType": "address",
          "name": "",
          "type": "address"
        }
      ],
      "name": "claimedRewardAmounts",
      "outputs": [
        {
          "internalType": "uint256",
          "name": "",
          "type": "uint256"
        }
      ],
      "stateMutability": "view",
      "type": "function"
    },
    {
      "inputs": [
        {
          "internalType": "uint256",
          "name": "_amount",
          "type": "uint256"
        }
      ],
      "name": "contributeToRewardPool",
      "outputs": [],
      "stateMutability": "nonpayable",
      "type": "function"
    },
    {
      "inputs": [
        {
          "internalType": "uint256",
          "name": "_amount",
          "type": "uint256"
        }
      ],
      "name": "drainToken",
      "outputs": [],
      "stateMutability": "nonpayable",
      "type": "function"
    },
    {
      "inputs": [
        {
          "internalType": "address",
          "name": "account",
          "type": "address"
        }
      ],
      "name": "isPauser",
      "outputs": [
        {
          "internalType": "bool",
          "name": "",
          "type": "bool"
        }
      ],
      "stateMutability": "view",
      "type": "function"
    },
    {
      "inputs": [],
      "name": "owner",
      "outputs": [
        {
          "internalType": "address",
          "name": "",
          "type": "address"
        }
      ],
      "stateMutability": "view",
      "type": "function"
    },
    {
      "inputs": [],
      "name": "pause",
      "outputs": [],
      "stateMutability": "nonpayable",
      "type": "function"
    },
    {
      "inputs": [],
      "name": "paused",
      "outputs": [
        {
          "internalType": "bool",
          "name": "",
          "type": "bool"
        }
      ],
      "stateMutability": "view",
      "type": "function"
    },
    {
      "inputs": [
        {
          "internalType": "address",
          "name": "",
          "type": "address"
        }
      ],
      "name": "pausers",
      "outputs": [
        {
          "internalType": "bool",
          "name": "",
          "type": "bool"
        }
      ],
      "stateMutability": "view",
      "type": "function"
    },
    {
      "inputs": [
        {
          "internalType": "address",
          "name": "account",
          "type": "address"
        }
      ],
      "name": "removePauser",
      "outputs": [],
      "stateMutability": "nonpayable",
      "type": "function"
    },
    {
      "inputs": [],
      "name": "renouncePauser",
      "outputs": [],
      "stateMutability": "nonpayable",
      "type": "function"
    },
    {
      "inputs": [],
      "name": "staking",
      "outputs": [
        {
          "internalType": "contract Staking",
          "name": "",
          "type": "address"
        }
      ],
      "stateMutability": "view",
      "type": "function"
    },
    {
      "inputs": [
        {
          "internalType": "address",
          "name": "newOwner",
          "type": "address"
        }
      ],
      "name": "transferOwnership",
      "outputs": [],
      "stateMutability": "nonpayable",
      "type": "function"
    },
    {
      "inputs": [],
      "name": "unpause",
      "outputs": [],
      "stateMutability": "nonpayable",
      "type": "function"
    }
  ],
  "bytecode": "0x60a06040523480156200001157600080fd5b50604051620017c2380380620017c2833981016040819052620000349162000182565b6200003f3362000069565b6000805460ff60a01b191690556200005733620000b9565b6001600160a01b0316608052620001b4565b600080546001600160a01b038381166001600160a01b0319831681178455604051919092169283917f8be0079c531659141344cd1fd0a4f28419497f9722a3daafe3b4186f6b6457e09190a35050565b6001600160a01b03811660009081526001602052604090205460ff1615620001275760405162461bcd60e51b815260206004820152601960248201527f4163636f756e7420697320616c72656164792070617573657200000000000000604482015260640160405180910390fd5b6001600160a01b038116600081815260016020818152604092839020805460ff191690921790915590519182527f6719d08c1888103bea251a4ed56406bd0c3e69723c8a1686e017e7bbe159b6f8910160405180910390a150565b6000602082840312156200019557600080fd5b81516001600160a01b0381168114620001ad57600080fd5b9392505050565b6080516115d6620001ec6000396000818161015701528181610276015281816103ae015281816106b4015261086001526115d66000f3fe608060405234801561001057600080fd5b50600436106100f55760003560e01c80636ef8d66d116100975780638da5cb5b116100665780638da5cb5b146101fc57806396db0fef1461020d578063f2fde38b1461023b578063f8df0dc51461024e57600080fd5b80636ef8d66d146101b657806380f51c12146101be57806382dc1ec4146101e15780638456cb59146101f457600080fd5b806346fbf68e116100d357806346fbf68e1461012a5780634cf088d9146101525780635c975abb146101915780636b2c0f55146101a357600080fd5b80630a300b09146100fa578063145aa1161461010f5780633f4ba83a14610122575b600080fd5b61010d6101083660046111d6565b610261565b005b61010d61011d3660046111d6565b61035d565b61010d610450565b61013d610138366004611204565b6104a6565b60405190151581526020015b60405180910390f35b6101797f000000000000000000000000000000000000000000000000000000000000000081565b6040516001600160a01b039091168152602001610149565b600054600160a01b900460ff1661013d565b61010d6101b1366004611204565b6104c4565b61010d610506565b61013d6101cc366004611204565b60016020526000908152604090205460ff1681565b61010d6101ef366004611204565b61050f565b61010d610551565b6000546001600160a01b0316610179565b61022d61021b366004611204565b60026020526000908152604090205481565b604051908152602001610149565b61010d610249366004611204565b6105a5565b61010d61025c366004611221565b61064c565b610269610908565b60003390506103168130847f00000000000000000000000000000000000000000000000000000000000000006001600160a01b031663960dc08a6040518163ffffffff1660e01b815260040160206040518083038186803b1580156102cd57600080fd5b505afa1580156102e1573d6000803e3d6000fd5b505050506040513d601f19601f8201168201806040525081019061030591906112e6565b6001600160a01b0316929190610955565b806001600160a01b03167ff67017a05194c0853be9169be60cad9fa6e75d34b6b507a7a4261510e19c6d798360405161035191815260200190565b60405180910390a25050565b6103656109c6565b336103786000546001600160a01b031690565b6001600160a01b0316146103a75760405162461bcd60e51b815260040161039e90611303565b60405180910390fd5b61044d33827f00000000000000000000000000000000000000000000000000000000000000006001600160a01b031663960dc08a6040518163ffffffff1660e01b815260040160206040518083038186803b15801561040557600080fd5b505afa158015610419573d6000803e3d6000fd5b505050506040513d601f19601f8201168201806040525081019061043d91906112e6565b6001600160a01b03169190610a16565b50565b610459336104a6565b61049c5760405162461bcd60e51b815260206004820152601460248201527321b0b63632b91034b9903737ba103830bab9b2b960611b604482015260640161039e565b6104a4610a4b565b565b6001600160a01b031660009081526001602052604090205460ff1690565b336104d76000546001600160a01b031690565b6001600160a01b0316146104fd5760405162461bcd60e51b815260040161039e90611303565b61044d81610aa0565b6104a433610aa0565b336105226000546001600160a01b031690565b6001600160a01b0316146105485760405162461bcd60e51b815260040161039e90611303565b61044d81610b45565b61055a336104a6565b61059d5760405162461bcd60e51b815260206004820152601460248201527321b0b63632b91034b9903737ba103830bab9b2b960611b604482015260640161039e565b6104a4610bf0565b336105b86000546001600160a01b031690565b6001600160a01b0316146105de5760405162461bcd60e51b815260040161039e90611303565b6001600160a01b0381166106435760405162461bcd60e51b815260206004820152602660248201527f4f776e61626c653a206e6577206f776e657220697320746865207a65726f206160448201526564647265737360d01b606482015260840161039e565b61044d81610c33565b610654610908565b6000463060405160200161069a92919091825260601b6bffffffffffffffffffffffff191660208201526c14dd185ada5b99d4995dd85c99609a1b603482015260410190565b6040516020818303038152906040528051906020012090507f00000000000000000000000000000000000000000000000000000000000000006001600160a01b0316638a74d5fe8287876040516020016106f693929190611338565b60405160208183030381529060405285856040518463ffffffff1660e01b8152600401610725939291906113d3565b60206040518083038186803b15801561073d57600080fd5b505afa158015610751573d6000803e3d6000fd5b505050506040513d601f19601f820116820180604052508101906107759190611482565b5060006107b786868080601f016020809104026020016040519081016040528093929190818152602001838380828437600092019190915250610c8392505050565b60208082015182516001600160a01b0316600090815260029092526040822054929350916107e590836114ba565b9050600081116108275760405162461bcd60e51b815260206004820152600d60248201526c139bc81b995dc81c995dd85c99609a1b604482015260640161039e565b816002600085600001516001600160a01b03166001600160a01b03168152602001908152602001600020819055506108b78360000151827f00000000000000000000000000000000000000000000000000000000000000006001600160a01b031663960dc08a6040518163ffffffff1660e01b815260040160206040518083038186803b15801561040557600080fd5b82600001516001600160a01b03167f6dd401e61ba732582a5eba3d54ccc3afb3609cd3ac1a166d1d36f75fc0aedcda826040516108f691815260200190565b60405180910390a25050505050505050565b600054600160a01b900460ff16156104a45760405162461bcd60e51b815260206004820152601060248201526f14185d5cd8589b194e881c185d5cd95960821b604482015260640161039e565b6040516001600160a01b03808516602483015283166044820152606481018290526109c09085906323b872dd60e01b906084015b60408051601f198184030181529190526020810180516001600160e01b03166001600160e01b031990931692909217909152610d2f565b50505050565b600054600160a01b900460ff166104a45760405162461bcd60e51b815260206004820152601460248201527314185d5cd8589b194e881b9bdd081c185d5cd95960621b604482015260640161039e565b6040516001600160a01b038316602482015260448101829052610a4690849063a9059cbb60e01b90606401610989565b505050565b610a536109c6565b6000805460ff60a01b191690557f5db9ee0a495bf2e6ff9c91a7834c1ba4fdd244a5e8aa4e537bd38aeae4b073aa335b6040516001600160a01b03909116815260200160405180910390a1565b610aa9816104a6565b610aed5760405162461bcd60e51b815260206004820152601560248201527420b1b1b7bab73a1034b9903737ba103830bab9b2b960591b604482015260640161039e565b6001600160a01b038116600081815260016020908152604091829020805460ff1916905590519182527fcd265ebaf09df2871cc7bd4133404a235ba12eff2041bb89d9c714a2621c7c7e91015b60405180910390a150565b610b4e816104a6565b15610b9b5760405162461bcd60e51b815260206004820152601960248201527f4163636f756e7420697320616c72656164792070617573657200000000000000604482015260640161039e565b6001600160a01b038116600081815260016020818152604092839020805460ff191690921790915590519182527f6719d08c1888103bea251a4ed56406bd0c3e69723c8a1686e017e7bbe159b6f89101610b3a565b610bf8610908565b6000805460ff60a01b1916600160a01b1790557f62e78cea01bee320cd4e420270b5ea74000d11b0c9f74754ebdbfc544b05a258610a833390565b600080546001600160a01b038381166001600160a01b0319831681178455604051919092169283917f8be0079c531659141344cd1fd0a4f28419497f9722a3daafe3b4186f6b6457e09190a35050565b6040805180820182526000808252602080830182905283518085019094528184528301849052909190805b60208301515183511015610d2757610cc583610e01565b90925090508160011415610cf457610ce4610cdf84610e3b565b610ef8565b6001600160a01b03168452610cae565b8160021415610d1857610d0e610d0984610e3b565b610f09565b6020850152610cae565b610d228382610f40565b610cae565b505050919050565b6000610d84826040518060400160405280602081526020017f5361666545524332303a206c6f772d6c6576656c2063616c6c206661696c6564815250856001600160a01b0316610fb29092919063ffffffff16565b805190915015610a465780806020019051810190610da29190611482565b610a465760405162461bcd60e51b815260206004820152602a60248201527f5361666545524332303a204552433230206f7065726174696f6e20646964206e6044820152691bdd081cdd58d8d9595960b21b606482015260840161039e565b6000806000610e0f84610fcb565b9050610e1c6008826114d1565b9250806007166005811115610e3357610e336114f3565b915050915091565b60606000610e4883610fcb565b90506000818460000151610e5c9190611509565b9050836020015151811115610e7057600080fd5b8167ffffffffffffffff811115610e8957610e89611521565b6040519080825280601f01601f191660200182016040528015610eb3576020820181803683370190505b50602080860151865192955091818601919083010160005b85811015610eed578181015183820152610ee6602082611509565b9050610ecb565b505050935250919050565b6000610f038261104d565b92915050565b6000602082511115610f1a57600080fd5b6020820151905081516020610f2f91906114ba565b610f3a906008611537565b1c919050565b6000816005811115610f5457610f546114f3565b1415610f6357610a4682610fcb565b6002816005811115610f7757610f776114f3565b14156100f5576000610f8883610fcb565b90508083600001818151610f9c9190611509565b90525060208301515183511115610a4657600080fd5b6060610fc1848460008561106c565b90505b9392505050565b602080820151825181019091015160009182805b600a8110156110475783811a9150610ff8816007611537565b82607f16901b85179450816080166000141561103557611019816001611509565b86518790611028908390611509565b9052509395945050505050565b8061103f81611556565b915050610fdf565b50600080fd5b6000815160141461105d57600080fd5b5060200151600160601b900490565b6060824710156110cd5760405162461bcd60e51b815260206004820152602660248201527f416464726573733a20696e73756666696369656e742062616c616e636520666f6044820152651c8818d85b1b60d21b606482015260840161039e565b6001600160a01b0385163b6111245760405162461bcd60e51b815260206004820152601d60248201527f416464726573733a2063616c6c20746f206e6f6e2d636f6e7472616374000000604482015260640161039e565b600080866001600160a01b031685876040516111409190611571565b60006040518083038185875af1925050503d806000811461117d576040519150601f19603f3d011682016040523d82523d6000602084013e611182565b606091505b509150915061119282828661119d565b979650505050505050565b606083156111ac575081610fc4565b8251156111bc5782518084602001fd5b8160405162461bcd60e51b815260040161039e919061158d565b6000602082840312156111e857600080fd5b5035919050565b6001600160a01b038116811461044d57600080fd5b60006020828403121561121657600080fd5b8135610fc4816111ef565b6000806000806040858703121561123757600080fd5b843567ffffffffffffffff8082111561124f57600080fd5b818701915087601f83011261126357600080fd5b81358181111561127257600080fd5b88602082850101111561128457600080fd5b60209283019650945090860135908082111561129f57600080fd5b818701915087601f8301126112b357600080fd5b8135818111156112c257600080fd5b8860208260051b85010111156112d757600080fd5b95989497505060200194505050565b6000602082840312156112f857600080fd5b8151610fc4816111ef565b6020808252818101527f4f776e61626c653a2063616c6c6572206973206e6f7420746865206f776e6572604082015260600190565b838152818360208301376000910160200190815292915050565b60005b8381101561136d578181015183820152602001611355565b838111156109c05750506000910152565b60008151808452611396816020860160208601611352565b601f01601f19169290920160200192915050565b81835281816020850137506000828201602090810191909152601f909101601f19169091010190565b6040815260006113e6604083018661137e565b602083820381850152818583528183019050818660051b8401018760005b8881101561147357858303601f190184528135368b9003601e1901811261142a57600080fd5b8a01803567ffffffffffffffff81111561144357600080fd5b8036038c131561145257600080fd5b61145f85828985016113aa565b958701959450505090840190600101611404565b50909998505050505050505050565b60006020828403121561149457600080fd5b81518015158114610fc457600080fd5b634e487b7160e01b600052601160045260246000fd5b6000828210156114cc576114cc6114a4565b500390565b6000826114ee57634e487b7160e01b600052601260045260246000fd5b500490565b634e487b7160e01b600052602160045260246000fd5b6000821982111561151c5761151c6114a4565b500190565b634e487b7160e01b600052604160045260246000fd5b6000816000190483118215151615611551576115516114a4565b500290565b600060001982141561156a5761156a6114a4565b5060010190565b60008251611583818460208701611352565b9190910192915050565b602081526000610fc4602083018461137e56fea264697066735822122033d2c8b7518389ac5d058ff545091f4e901504887d682273ef2698e9a490eb8464736f6c63430008090033",
  "linkReferences": {},
  "deployedLinkReferences": {}
}