{
  "_format": "hh-sol-artifact-1",
  "contractName": "Govern",
  "sourceName": "contracts/cBridge/staking/Govern.sol",
  "abi": [
    {
      "inputs": [
        {
          "internalType": "contract Staking",
          "name": "_staking",
          "type": "address"
        },
        {
          "internalType": "address",
          "name": "_celerTokenAddress",
          "type": "address"
        },
        {
          "internalType": "address",
          "name": "_collector",
          "type": "address"
        }
      ],
      "stateMutability": "nonpayable",
      "type": "constructor"
    },
    {
      "anonymous": false,
      "inputs": [
        {
          "indexed": false,
          "internalType": "uint256",
          "name": "proposalId",
          "type": "uint256"
        },
        {
          "indexed": false,
          "internalType": "bool",
          "name": "passed",
          "type": "bool"
        },
        {
          "indexed": false,
          "internalType": "enum DataTypes.ParamName",
          "name": "name",
          "type": "uint8"
        },
        {
          "indexed": false,
          "internalType": "uint256",
          "name": "newValue",
          "type": "uint256"
        }
      ],
      "name": "ConfirmParamProposal",
      "type": "event"
    },
    {
      "anonymous": false,
      "inputs": [
        {
          "indexed": false,
          "internalType": "uint256",
          "name": "proposalId",
          "type": "uint256"
        },
        {
          "indexed": false,
          "internalType": "address",
          "name": "proposer",
          "type": "address"
        },
        {
          "indexed": false,
          "internalType": "uint256",
          "name": "deposit",
          "type": "uint256"
        },
        {
          "indexed": false,
          "internalType": "uint256",
          "name": "voteDeadline",
          "type": "uint256"
        },
        {
          "indexed": false,
          "internalType": "enum DataTypes.ParamName",
          "name": "name",
          "type": "uint8"
        },
        {
          "indexed": false,
          "internalType": "uint256",
          "name": "newValue",
          "type": "uint256"
        }
      ],
      "name": "CreateParamProposal",
      "type": "event"
    },
    {
      "anonymous": false,
      "inputs": [
        {
          "indexed": false,
          "internalType": "uint256",
          "name": "proposalId",
          "type": "uint256"
        },
        {
          "indexed": false,
          "internalType": "address",
          "name": "voter",
          "type": "address"
        },
        {
          "indexed": false,
          "internalType": "enum Govern.VoteOption",
          "name": "vote",
          "type": "uint8"
        }
      ],
      "name": "VoteParam",
      "type": "event"
    },
    {
      "inputs": [],
      "name": "celerToken",
      "outputs": [
        {
          "internalType": "contract IERC20",
          "name": "",
          "type": "address"
        }
      ],
      "stateMutability": "view",
      "type": "function"
    },
    {
      "inputs": [],
      "name": "collectForfeiture",
      "outputs": [],
      "stateMutability": "nonpayable",
      "type": "function"
    },
    {
      "inputs": [],
      "name": "collector",
      "outputs": [
        {
          "internalType": "address",
          "name": "",
          "type": "address"
        }
      ],
      "stateMutability": "view",
      "type": "function"
    },
    {
      "inputs": [
        {
          "internalType": "uint256",
          "name": "_proposalId",
          "type": "uint256"
        }
      ],
      "name": "confirmParamProposal",
      "outputs": [],
      "stateMutability": "nonpayable",
      "type": "function"
    },
    {
      "inputs": [
        {
          "internalType": "enum DataTypes.ParamName",
          "name": "_name",
          "type": "uint8"
        },
        {
          "internalType": "uint256",
          "name": "_value",
          "type": "uint256"
        }
      ],
      "name": "createParamProposal",
      "outputs": [],
      "stateMutability": "nonpayable",
      "type": "function"
    },
    {
      "inputs": [],
      "name": "forfeiture",
      "outputs": [
        {
          "internalType": "uint256",
          "name": "",
          "type": "uint256"
        }
      ],
      "stateMutability": "view",
      "type": "function"
    },
    {
      "inputs": [
        {
          "internalType": "uint256",
          "name": "_proposalId",
          "type": "uint256"
        },
        {
          "internalType": "address",
          "name": "_voter",
          "type": "address"
        }
      ],
      "name": "getParamProposalVote",
      "outputs": [
        {
          "internalType": "enum Govern.VoteOption",
          "name": "",
          "type": "uint8"
        }
      ],
      "stateMutability": "view",
      "type": "function"
    },
    {
      "inputs": [],
      "name": "nextParamProposalId",
      "outputs": [
        {
          "internalType": "uint256",
          "name": "",
          "type": "uint256"
        }
      ],
      "stateMutability": "view",
      "type": "function"
    },
    {
      "inputs": [
        {
          "internalType": "uint256",
          "name": "",
          "type": "uint256"
        }
      ],
      "name": "paramProposals",
      "outputs": [
        {
          "internalType": "address",
          "name": "proposer",
          "type": "address"
        },
        {
          "internalType": "uint256",
          "name": "deposit",
          "type": "uint256"
        },
        {
          "internalType": "uint256",
          "name": "voteDeadline",
          "type": "uint256"
        },
        {
          "internalType": "enum DataTypes.ParamName",
          "name": "name",
          "type": "uint8"
        },
        {
          "internalType": "uint256",
          "name": "newValue",
          "type": "uint256"
        },
        {
          "internalType": "enum Govern.ProposalStatus",
          "name": "status",
          "type": "uint8"
        }
      ],
      "stateMutability": "view",
      "type": "function"
    },
    {
      "inputs": [],
      "name": "staking",
      "outputs": [
        {
          "internalType": "contract Staking",
          "name": "",
          "type": "address"
        }
      ],
      "stateMutability": "view",
      "type": "function"
    },
    {
      "inputs": [
        {
          "internalType": "uint256",
          "name": "_proposalId",
          "type": "uint256"
        },
        {
          "internalType": "enum Govern.VoteOption",
          "name": "_vote",
          "type": "uint8"
        }
      ],
      "name": "voteParam",
      "outputs": [],
      "stateMutability": "nonpayable",
      "type": "function"
    }
  ],
  "bytecode": "0x60e06040523480156200001157600080fd5b50604051620015313803806200153183398101604081905262000034916200006b565b6001600160a01b0392831660805290821660a0521660c052620000bf565b6001600160a01b03811681146200006857600080fd5b50565b6000806000606084860312156200008157600080fd5b83516200008e8162000052565b6020850151909350620000a18162000052565b6040850151909250620000b48162000052565b809150509250925092565b60805160a05160c0516114046200012d600039600081816101ba01526105c70152600081816101f4015281816105a4015281816108ff0152610b6a01526000818160e40152818161024b015281816105fa01528181610882015281816109d90152610a9501526114046000f3fe608060405234801561001057600080fd5b50600436106100a95760003560e01c806382d7b4b81161007157806382d7b4b8146101a45780638338f0e5146101ac578063913e77ad146101b5578063934a18ec146101dc578063c6c21e9d146101ef578063e478ed9d1461021657600080fd5b806322da7927146100ae57806325ed6b35146100ca5780634cf088d9146100df578063581c53c51461011e5780637e5fb8f31461013e575b600080fd5b6100b760015481565b6040519081526020015b60405180910390f35b6100dd6100d8366004610f00565b610229565b005b6101067f000000000000000000000000000000000000000000000000000000000000000081565b6040516001600160a01b0390911681526020016100c1565b61013161012c366004610f45565b61051e565b6040516100c19190610f94565b61019261014c366004610fa2565b6000602081905290815260409020805460018201546002830154600384015460048501546005909501546001600160a01b03909416949293919260ff9182169290911686565b6040516100c196959493929190610fcb565b6100dd61054c565b6100b760025481565b6101067f000000000000000000000000000000000000000000000000000000000000000081565b6100dd6101ea366004610fa2565b6105f3565b6101067f000000000000000000000000000000000000000000000000000000000000000081565b6100dd61022436600461101d565b61099d565b33600360405163a310624f60e01b81526001600160a01b0383811660048301527f0000000000000000000000000000000000000000000000000000000000000000169063a310624f9060240160206040518083038186803b15801561028d57600080fd5b505afa1580156102a1573d6000803e3d6000fd5b505050506040513d601f19601f820116820180604052508101906102c5919061104d565b60038111156102d6576102d6610f6a565b146103285760405162461bcd60e51b815260206004820152601f60248201527f566f746572206973206e6f74206120626f6e6465642076616c696461746f720060448201526064015b60405180910390fd5b60008381526020819052604090206001600582015460ff16600281111561035157610351610f6a565b146103985760405162461bcd60e51b8152602060048201526017602482015276496e76616c69642070726f706f73616c2073746174757360481b604482015260640161031f565b806002015443106103e25760405162461bcd60e51b8152602060048201526014602482015273159bdd1948191958591b1a5b99481c185cdcd95960621b604482015260640161031f565b6001600160a01b038216600090815260068201602052604081205460ff16600381111561041157610411610f6a565b146104505760405162461bcd60e51b815260206004820152600f60248201526e159bdd195c881a185cc81d9bdd1959608a1b604482015260640161031f565b600083600381111561046457610464610f6a565b14156104a15760405162461bcd60e51b815260206004820152600c60248201526b496e76616c696420766f746560a01b604482015260640161031f565b6001600160a01b03821660009081526006820160205260409020805484919060ff191660018360038111156104d8576104d8610f6a565b02179055507f06c7ef6e19454637e93ee60cc680c61fb2ebabb57e58cf36d94141a5036b3d658483856040516105109392919061106a565b60405180910390a150505050565b6000828152602081815260408083206001600160a01b038516845260060190915290205460ff165b92915050565b6000600254116105935760405162461bcd60e51b8152602060048201526012602482015271139bdd1a1a5b99c81d1bc818dbdb1b1958dd60721b604482015260640161031f565b6002546105ec906001600160a01b037f000000000000000000000000000000000000000000000000000000000000000016907f000000000000000000000000000000000000000000000000000000000000000090610bf3565b6000600255565b60008060007f00000000000000000000000000000000000000000000000000000000000000006001600160a01b0316634021d4d56040518163ffffffff1660e01b815260040160006040518083038186803b15801561065157600080fd5b505afa158015610665573d6000803e3d6000fd5b505050506040513d6000823e601f3d908101601f1916820160405261068d91908101906110fd565b905060005b81518163ffffffff16101561075c5760016106d086848463ffffffff16815181106106bf576106bf6111d3565b60200260200101516000015161051e565b60038111156106e1576106e1610f6a565b141561071957818163ffffffff16815181106106ff576106ff6111d3565b6020026020010151602001518461071691906111ff565b93505b818163ffffffff1681518110610731576107316111d3565b6020026020010151602001518361074891906111ff565b92508061075481611217565b915050610692565b506000600361076c84600261123b565b610776919061125a565b6107819060016111ff565b60008681526020819052604090209085101591506001600582015460ff1660028111156107b0576107b0610f6a565b146107f75760405162461bcd60e51b8152602060048201526017602482015276496e76616c69642070726f706f73616c2073746174757360481b604482015260640161031f565b806002015443101561084b5760405162461bcd60e51b815260206004820152601960248201527f566f746520646561646c696e65206e6f74207265616368656400000000000000604482015260640161031f565b60058101805460ff19166002179055811561093057600381015460048083015460405163e909156d60e01b81526001600160a01b037f0000000000000000000000000000000000000000000000000000000000000000169363e909156d936108b99360ff909216920161127c565b600060405180830381600087803b1580156108d357600080fd5b505af11580156108e7573d6000803e3d6000fd5b50508254600184015461092b93506001600160a01b037f00000000000000000000000000000000000000000000000000000000000000008116935090911690610bf3565b61094c565b80600101546002600082825461094691906111ff565b90915550505b600381015460048201546040517fd0d659ab2c0f954d2f29cf2e13d8ff2e15e147f3424eb205a079c4caa6bfe1a99261098d928a92879260ff169190611297565b60405180910390a1505050505050565b600180546000818152602081905260409020916109ba91906111ff565b600155604051631042b80b60e21b815233906000906001600160a01b037f0000000000000000000000000000000000000000000000000000000000000000169063410ae02c90610a0e9084906004016112c2565b60206040518083038186803b158015610a2657600080fd5b505afa158015610a3a573d6000803e3d6000fd5b505050506040513d601f19601f82011682018060405250810190610a5e91906112d0565b83546001600160a01b0319166001600160a01b038481169190911785556001808601839055604051631042b80b60e21b81529293507f00000000000000000000000000000000000000000000000000000000000000009091169163410ae02c91610aca916004016112c2565b60206040518083038186803b158015610ae257600080fd5b505afa158015610af6573d6000803e3d6000fd5b505050506040513d601f19601f82011682018060405250810190610b1a91906112d0565b610b2490436111ff565b600284015560038301805486919060ff19166001836008811115610b4a57610b4a610f6a565b02179055506004830184905560058301805460ff19166001179055610b9a7f00000000000000000000000000000000000000000000000000000000000000006001600160a01b0316833084610c5b565b7f4a4d354dbdc4d7b757c1f44b6e074bb6e1afe33f4b9867ce48cfb7004d76f16060018054610bc991906112e9565b838386600201548989604051610be496959493929190611300565b60405180910390a15050505050565b6040516001600160a01b038316602482015260448101829052610c5690849063a9059cbb60e01b906064015b60408051601f198184030181529190526020810180516001600160e01b03166001600160e01b031990931692909217909152610c99565b505050565b6040516001600160a01b0380851660248301528316604482015260648101829052610c939085906323b872dd60e01b90608401610c1f565b50505050565b6000610cee826040518060400160405280602081526020017f5361666545524332303a206c6f772d6c6576656c2063616c6c206661696c6564815250856001600160a01b0316610d6b9092919063ffffffff16565b805190915015610c565780806020019051810190610d0c9190611331565b610c565760405162461bcd60e51b815260206004820152602a60248201527f5361666545524332303a204552433230206f7065726174696f6e20646964206e6044820152691bdd081cdd58d8d9595960b21b606482015260840161031f565b6060610d7a8484600085610d84565b90505b9392505050565b606082471015610de55760405162461bcd60e51b815260206004820152602660248201527f416464726573733a20696e73756666696369656e742062616c616e636520666f6044820152651c8818d85b1b60d21b606482015260840161031f565b6001600160a01b0385163b610e3c5760405162461bcd60e51b815260206004820152601d60248201527f416464726573733a2063616c6c20746f206e6f6e2d636f6e7472616374000000604482015260640161031f565b600080866001600160a01b03168587604051610e58919061137f565b60006040518083038185875af1925050503d8060008114610e95576040519150601f19603f3d011682016040523d82523d6000602084013e610e9a565b606091505b5091509150610eaa828286610eb7565b925050505b949350505050565b60608315610ec6575081610d7d565b825115610ed65782518084602001fd5b8160405162461bcd60e51b815260040161031f919061139b565b60048110610efd57600080fd5b50565b60008060408385031215610f1357600080fd5b823591506020830135610f2581610ef0565b809150509250929050565b6001600160a01b0381168114610efd57600080fd5b60008060408385031215610f5857600080fd5b823591506020830135610f2581610f30565b634e487b7160e01b600052602160045260246000fd5b60048110610f9057610f90610f6a565b9052565b602081016105468284610f80565b600060208284031215610fb457600080fd5b5035919050565b60098110610f9057610f90610f6a565b6001600160a01b0387168152602081018690526040810185905260c08101610ff66060830186610fbb565b8360808301526003831061100c5761100c610f6a565b8260a0830152979650505050505050565b6000806040838503121561103057600080fd5b82356009811061103f57600080fd5b946020939093013593505050565b60006020828403121561105f57600080fd5b8151610d7d81610ef0565b8381526001600160a01b038316602082015260608101610eaf6040830184610f80565b634e487b7160e01b600052604160045260246000fd5b6040805190810167ffffffffffffffff811182821017156110c6576110c661108d565b60405290565b604051601f8201601f1916810167ffffffffffffffff811182821017156110f5576110f561108d565b604052919050565b6000602080838503121561111057600080fd5b825167ffffffffffffffff8082111561112857600080fd5b818501915085601f83011261113c57600080fd5b81518181111561114e5761114e61108d565b61115c848260051b016110cc565b818152848101925060069190911b83018401908782111561117c57600080fd5b928401925b818410156111c8576040848903121561119a5760008081fd5b6111a26110a3565b84516111ad81610f30565b81528486015186820152835260409093019291840191611181565b979650505050505050565b634e487b7160e01b600052603260045260246000fd5b634e487b7160e01b600052601160045260246000fd5b60008219821115611212576112126111e9565b500190565b600063ffffffff80831681811415611231576112316111e9565b6001019392505050565b6000816000190483118215151615611255576112556111e9565b500290565b60008261127757634e487b7160e01b600052601260045260246000fd5b500490565b6040810161128a8285610fbb565b8260208301529392505050565b8481528315156020820152608081016112b36040830185610fbb565b82606083015295945050505050565b602081016105468284610fbb565b6000602082840312156112e257600080fd5b5051919050565b6000828210156112fb576112fb6111e9565b500390565b8681526001600160a01b0386166020820152604081018590526060810184905260c0810161100c6080830185610fbb565b60006020828403121561134357600080fd5b81518015158114610d7d57600080fd5b60005b8381101561136e578181015183820152602001611356565b83811115610c935750506000910152565b60008251611391818460208701611353565b9190910192915050565b60208152600082518060208401526113ba816040850160208701611353565b601f01601f1916919091016040019291505056fea264697066735822122067dc031845f1c68269982f30f0de139fe5b30c93100d1ab35b4fee8f36e9e84f64736f6c63430008090033",
  "linkReferences": {},
  "deployedLinkReferences": {}
}