{
  "_format": "hh-sol-artifact-1",
  "contractName": "TealswapRouter",
  "sourceName": "contracts/Tealswap/periphery/TealswapRouter.sol",
  "abi": [
    {
      "inputs": [],
      "name": "WETH",
      "outputs": [
        {
          "internalType": "address",
          "name": "",
          "type": "address"
        }
      ],
      "stateMutability": "view",
      "type": "function"
    },
    {
      "inputs": [
        {
          "internalType": "address",
          "name": "tokenA",
          "type": "address"
        },
        {
          "internalType": "address",
          "name": "tokenB",
          "type": "address"
        },
        {
          "internalType": "uint256",
          "name": "amountADesired",
          "type": "uint256"
        },
        {
          "internalType": "uint256",
          "name": "amountBDesired",
          "type": "uint256"
        },
        {
          "internalType": "uint256",
          "name": "amountAMin",
          "type": "uint256"
        },
        {
          "internalType": "uint256",
          "name": "amountBMin",
          "type": "uint256"
        },
        {
          "internalType": "address",
          "name": "to",
          "type": "address"
        },
        {
          "internalType": "uint256",
          "name": "deadline",
          "type": "uint256"
        }
      ],
      "name": "addLiquidity",
      "outputs": [
        {
          "internalType": "uint256",
          "name": "amountA",
          "type": "uint256"
        },
        {
          "internalType": "uint256",
          "name": "amountB",
          "type": "uint256"
        },
        {
          "internalType": "uint256",
          "name": "liquidity",
          "type": "uint256"
        }
      ],
      "stateMutability": "nonpayable",
      "type": "function"
    },
    {
      "inputs": [
        {
          "internalType": "address",
          "name": "token",
          "type": "address"
        },
        {
          "internalType": "uint256",
          "name": "amountTokenDesired",
          "type": "uint256"
        },
        {
          "internalType": "uint256",
          "name": "amountTokenMin",
          "type": "uint256"
        },
        {
          "internalType": "uint256",
          "name": "amountETHMin",
          "type": "uint256"
        },
        {
          "internalType": "address",
          "name": "to",
          "type": "address"
        },
        {
          "internalType": "uint256",
          "name": "deadline",
          "type": "uint256"
        }
      ],
      "name": "addLiquidityETH",
      "outputs": [
        {
          "internalType": "uint256",
          "name": "amountToken",
          "type": "uint256"
        },
        {
          "internalType": "uint256",
          "name": "amountETH",
          "type": "uint256"
        },
        {
          "internalType": "uint256",
          "name": "liquidity",
          "type": "uint256"
        }
      ],
      "stateMutability": "payable",
      "type": "function"
    },
    {
      "inputs": [],
      "name": "factory",
      "outputs": [
        {
          "internalType": "address",
          "name": "",
          "type": "address"
        }
      ],
      "stateMutability": "view",
      "type": "function"
    },
    {
      "inputs": [
        {
          "internalType": "uint256",
          "name": "amountOut",
          "type": "uint256"
        },
        {
          "internalType": "uint256",
          "name": "reserveIn",
          "type": "uint256"
        },
        {
          "internalType": "uint256",
          "name": "reserveOut",
          "type": "uint256"
        },
        {
          "internalType": "uint256",
          "name": "feeBps",
          "type": "uint256"
        }
      ],
      "name": "getAmountIn",
      "outputs": [
        {
          "internalType": "uint256",
          "name": "amountIn",
          "type": "uint256"
        }
      ],
      "stateMutability": "pure",
      "type": "function"
    },
    {
      "inputs": [
        {
          "internalType": "uint256",
          "name": "amountIn",
          "type": "uint256"
        },
        {
          "internalType": "uint256",
          "name": "reserveIn",
          "type": "uint256"
        },
        {
          "internalType": "uint256",
          "name": "reserveOut",
          "type": "uint256"
        },
        {
          "internalType": "uint256",
          "name": "feeBps",
          "type": "uint256"
        }
      ],
      "name": "getAmountOut",
      "outputs": [
        {
          "internalType": "uint256",
          "name": "amountOut",
          "type": "uint256"
        }
      ],
      "stateMutability": "pure",
      "type": "function"
    },
    {
      "inputs": [
        {
          "internalType": "uint256",
          "name": "amountOut",
          "type": "uint256"
        },
        {
          "internalType": "address[]",
          "name": "path",
          "type": "address[]"
        }
      ],
      "name": "getAmountsIn",
      "outputs": [
        {
          "internalType": "uint256[]",
          "name": "amounts",
          "type": "uint256[]"
        }
      ],
      "stateMutability": "view",
      "type": "function"
    },
    {
      "inputs": [
        {
          "internalType": "uint256",
          "name": "amountIn",
          "type": "uint256"
        },
        {
          "internalType": "address[]",
          "name": "path",
          "type": "address[]"
        }
      ],
      "name": "getAmountsOut",
      "outputs": [
        {
          "internalType": "uint256[]",
          "name": "amounts",
          "type": "uint256[]"
        }
      ],
      "stateMutability": "view",
      "type": "function"
    },
    {
      "inputs": [
        {
          "internalType": "address",
          "name": "tokenA",
          "type": "address"
        },
        {
          "internalType": "address",
          "name": "tokenB",
          "type": "address"
        }
      ],
      "name": "getReserves",
      "outputs": [
        {
          "internalType": "uint256",
          "name": "",
          "type": "uint256"
        },
        {
          "internalType": "uint256",
          "name": "",
          "type": "uint256"
        }
      ],
      "stateMutability": "view",
      "type": "function"
    },
    {
      "inputs": [
        {
          "internalType": "address",
          "name": "tokenA",
          "type": "address"
        },
        {
          "internalType": "address",
          "name": "tokenB",
          "type": "address"
        }
      ],
      "name": "pairFor",
      "outputs": [
        {
          "internalType": "address",
          "name": "",
          "type": "address"
        }
      ],
      "stateMutability": "view",
      "type": "function"
    },
    {
      "inputs": [
        {
          "internalType": "uint256",
          "name": "amountA",
          "type": "uint256"
        },
        {
          "internalType": "uint256",
          "name": "reserveA",
          "type": "uint256"
        },
        {
          "internalType": "uint256",
          "name": "reserveB",
          "type": "uint256"
        }
      ],
      "name": "quote",
      "outputs": [
        {
          "internalType": "uint256",
          "name": "amountB",
          "type": "uint256"
        }
      ],
      "stateMutability": "pure",
      "type": "function"
    },
    {
      "inputs": [
        {
          "internalType": "address",
          "name": "tokenA",
          "type": "address"
        },
        {
          "internalType": "address",
          "name": "tokenB",
          "type": "address"
        },
        {
          "internalType": "uint256",
          "name": "liquidity",
          "type": "uint256"
        },
        {
          "internalType": "uint256",
          "name": "amountAMin",
          "type": "uint256"
        },
        {
          "internalType": "uint256",
          "name": "amountBMin",
          "type": "uint256"
        },
        {
          "internalType": "address",
          "name": "to",
          "type": "address"
        },
        {
          "internalType": "uint256",
          "name": "deadline",
          "type": "uint256"
        }
      ],
      "name": "removeLiquidity",
      "outputs": [
        {
          "internalType": "uint256",
          "name": "amountA",
          "type": "uint256"
        },
        {
          "internalType": "uint256",
          "name": "amountB",
          "type": "uint256"
        }
      ],
      "stateMutability": "nonpayable",
      "type": "function"
    },
    {
      "inputs": [
        {
          "internalType": "address",
          "name": "token",
          "type": "address"
        },
        {
          "internalType": "uint256",
          "name": "liquidity",
          "type": "uint256"
        },
        {
          "internalType": "uint256",
          "name": "amountTokenMin",
          "type": "uint256"
        },
        {
          "internalType": "uint256",
          "name": "amountETHMin",
          "type": "uint256"
        },
        {
          "internalType": "address",
          "name": "to",
          "type": "address"
        },
        {
          "internalType": "uint256",
          "name": "deadline",
          "type": "uint256"
        }
      ],
      "name": "removeLiquidityETH",
      "outputs": [
        {
          "internalType": "uint256",
          "name": "amountToken",
          "type": "uint256"
        },
        {
          "internalType": "uint256",
          "name": "amountETH",
          "type": "uint256"
        }
      ],
      "stateMutability": "nonpayable",
      "type": "function"
    },
    {
      "inputs": [
        {
          "internalType": "address",
          "name": "token",
          "type": "address"
        },
        {
          "internalType": "uint256",
          "name": "liquidity",
          "type": "uint256"
        },
        {
          "internalType": "uint256",
          "name": "amountTokenMin",
          "type": "uint256"
        },
        {
          "internalType": "uint256",
          "name": "amountETHMin",
          "type": "uint256"
        },
        {
          "internalType": "address",
          "name": "to",
          "type": "address"
        },
        {
          "internalType": "uint256",
          "name": "deadline",
          "type": "uint256"
        }
      ],
      "name": "removeLiquidityETHSupportingFeeOnTransferTokens",
      "outputs": [
        {
          "internalType": "uint256",
          "name": "amountETH",
          "type": "uint256"
        }
      ],
      "stateMutability": "nonpayable",
      "type": "function"
    },
    {
      "inputs": [
        {
          "internalType": "address",
          "name": "token",
          "type": "address"
        },
        {
          "internalType": "uint256",
          "name": "liquidity",
          "type": "uint256"
        },
        {
          "internalType": "uint256",
          "name": "amountTokenMin",
          "type": "uint256"
        },
        {
          "internalType": "uint256",
          "name": "amountETHMin",
          "type": "uint256"
        },
        {
          "internalType": "address",
          "name": "to",
          "type": "address"
        },
        {
          "internalType": "uint256",
          "name": "deadline",
          "type": "uint256"
        },
        {
          "internalType": "bool",
          "name": "approveMax",
          "type": "bool"
        },
        {
          "internalType": "uint8",
          "name": "v",
          "type": "uint8"
        },
        {
          "internalType": "bytes32",
          "name": "r",
          "type": "bytes32"
        },
        {
          "internalType": "bytes32",
          "name": "s",
          "type": "bytes32"
        }
      ],
      "name": "removeLiquidityETHWithPermit",
      "outputs": [
        {
          "internalType": "uint256",
          "name": "amountToken",
          "type": "uint256"
        },
        {
          "internalType": "uint256",
          "name": "amountETH",
          "type": "uint256"
        }
      ],
      "stateMutability": "nonpayable",
      "type": "function"
    },
    {
      "inputs": [
        {
          "internalType": "address",
          "name": "token",
          "type": "address"
        },
        {
          "internalType": "uint256",
          "name": "liquidity",
          "type": "uint256"
        },
        {
          "internalType": "uint256",
          "name": "amountTokenMin",
          "type": "uint256"
        },
        {
          "internalType": "uint256",
          "name": "amountETHMin",
          "type": "uint256"
        },
        {
          "internalType": "address",
          "name": "to",
          "type": "address"
        },
        {
          "internalType": "uint256",
          "name": "deadline",
          "type": "uint256"
        },
        {
          "internalType": "bool",
          "name": "approveMax",
          "type": "bool"
        },
        {
          "internalType": "uint8",
          "name": "v",
          "type": "uint8"
        },
        {
          "internalType": "bytes32",
          "name": "r",
          "type": "bytes32"
        },
        {
          "internalType": "bytes32",
          "name": "s",
          "type": "bytes32"
        }
      ],
      "name": "removeLiquidityETHWithPermitSupportingFeeOnTransferTokens",
      "outputs": [
        {
          "internalType": "uint256",
          "name": "amountETH",
          "type": "uint256"
        }
      ],
      "stateMutability": "nonpayable",
      "type": "function"
    },
    {
      "inputs": [
        {
          "internalType": "address",
          "name": "tokenA",
          "type": "address"
        },
        {
          "internalType": "address",
          "name": "tokenB",
          "type": "address"
        },
        {
          "internalType": "uint256",
          "name": "liquidity",
          "type": "uint256"
        },
        {
          "internalType": "uint256",
          "name": "amountAMin",
          "type": "uint256"
        },
        {
          "internalType": "uint256",
          "name": "amountBMin",
          "type": "uint256"
        },
        {
          "internalType": "address",
          "name": "to",
          "type": "address"
        },
        {
          "internalType": "uint256",
          "name": "deadline",
          "type": "uint256"
        },
        {
          "internalType": "bool",
          "name": "approveMax",
          "type": "bool"
        },
        {
          "internalType": "uint8",
          "name": "v",
          "type": "uint8"
        },
        {
          "internalType": "bytes32",
          "name": "r",
          "type": "bytes32"
        },
        {
          "internalType": "bytes32",
          "name": "s",
          "type": "bytes32"
        }
      ],
      "name": "removeLiquidityWithPermit",
      "outputs": [
        {
          "internalType": "uint256",
          "name": "amountA",
          "type": "uint256"
        },
        {
          "internalType": "uint256",
          "name": "amountB",
          "type": "uint256"
        }
      ],
      "stateMutability": "nonpayable",
      "type": "function"
    },
    {
      "inputs": [
        {
          "internalType": "uint256",
          "name": "amountOut",
          "type": "uint256"
        },
        {
          "internalType": "address[]",
          "name": "path",
          "type": "address[]"
        },
        {
          "internalType": "address",
          "name": "to",
          "type": "address"
        },
        {
          "internalType": "uint256",
          "name": "deadline",
          "type": "uint256"
        }
      ],
      "name": "swapETHForExactTokens",
      "outputs": [
        {
          "internalType": "uint256[]",
          "name": "amounts",
          "type": "uint256[]"
        }
      ],
      "stateMutability": "payable",
      "type": "function"
    },
    {
      "inputs": [
        {
          "internalType": "uint256",
          "name": "amountOutMin",
          "type": "uint256"
        },
        {
          "internalType": "address[]",
          "name": "path",
          "type": "address[]"
        },
        {
          "internalType": "address",
          "name": "to",
          "type": "address"
        },
        {
          "internalType": "uint256",
          "name": "deadline",
          "type": "uint256"
        }
      ],
      "name": "swapExactETHForTokens",
      "outputs": [
        {
          "internalType": "uint256[]",
          "name": "amounts",
          "type": "uint256[]"
        }
      ],
      "stateMutability": "payable",
      "type": "function"
    },
    {
      "inputs": [
        {
          "internalType": "uint256",
          "name": "amountOutMin",
          "type": "uint256"
        },
        {
          "internalType": "address[]",
          "name": "path",
          "type": "address[]"
        },
        {
          "internalType": "address",
          "name": "to",
          "type": "address"
        },
        {
          "internalType": "uint256",
          "name": "deadline",
          "type": "uint256"
        }
      ],
      "name": "swapExactETHForTokensSupportingFeeOnTransferTokens",
      "outputs": [],
      "stateMutability": "payable",
      "type": "function"
    },
    {
      "inputs": [
        {
          "internalType": "uint256",
          "name": "amountIn",
          "type": "uint256"
        },
        {
          "internalType": "uint256",
          "name": "amountOutMin",
          "type": "uint256"
        },
        {
          "internalType": "address[]",
          "name": "path",
          "type": "address[]"
        },
        {
          "internalType": "address",
          "name": "to",
          "type": "address"
        },
        {
          "internalType": "uint256",
          "name": "deadline",
          "type": "uint256"
        }
      ],
      "name": "swapExactTokensForETH",
      "outputs": [
        {
          "internalType": "uint256[]",
          "name": "amounts",
          "type": "uint256[]"
        }
      ],
      "stateMutability": "nonpayable",
      "type": "function"
    },
    {
      "inputs": [
        {
          "internalType": "uint256",
          "name": "amountIn",
          "type": "uint256"
        },
        {
          "internalType": "uint256",
          "name": "amountOutMin",
          "type": "uint256"
        },
        {
          "internalType": "address[]",
          "name": "path",
          "type": "address[]"
        },
        {
          "internalType": "address",
          "name": "to",
          "type": "address"
        },
        {
          "internalType": "uint256",
          "name": "deadline",
          "type": "uint256"
        }
      ],
      "name": "swapExactTokensForETHSupportingFeeOnTransferTokens",
      "outputs": [],
      "stateMutability": "nonpayable",
      "type": "function"
    },
    {
      "inputs": [
        {
          "internalType": "uint256",
          "name": "amountIn",
          "type": "uint256"
        },
        {
          "internalType": "uint256",
          "name": "amountOutMin",
          "type": "uint256"
        },
        {
          "internalType": "address[]",
          "name": "path",
          "type": "address[]"
        },
        {
          "internalType": "address",
          "name": "to",
          "type": "address"
        },
        {
          "internalType": "uint256",
          "name": "deadline",
          "type": "uint256"
        }
      ],
      "name": "swapExactTokensForTokens",
      "outputs": [
        {
          "internalType": "uint256[]",
          "name": "amounts",
          "type": "uint256[]"
        }
      ],
      "stateMutability": "nonpayable",
      "type": "function"
    },
    {
      "inputs": [
        {
          "internalType": "uint256",
          "name": "amountIn",
          "type": "uint256"
        },
        {
          "internalType": "uint256",
          "name": "amountOutMin",
          "type": "uint256"
        },
        {
          "internalType": "address[]",
          "name": "path",
          "type": "address[]"
        },
        {
          "internalType": "address",
          "name": "to",
          "type": "address"
        },
        {
          "internalType": "uint256",
          "name": "deadline",
          "type": "uint256"
        }
      ],
      "name": "swapExactTokensForTokensSupportingFeeOnTransferTokens",
      "outputs": [],
      "stateMutability": "nonpayable",
      "type": "function"
    },
    {
      "inputs": [
        {
          "internalType": "uint256",
          "name": "amountOut",
          "type": "uint256"
        },
        {
          "internalType": "uint256",
          "name": "amountInMax",
          "type": "uint256"
        },
        {
          "internalType": "address[]",
          "name": "path",
          "type": "address[]"
        },
        {
          "internalType": "address",
          "name": "to",
          "type": "address"
        },
        {
          "internalType": "uint256",
          "name": "deadline",
          "type": "uint256"
        }
      ],
      "name": "swapTokensForExactETH",
      "outputs": [
        {
          "internalType": "uint256[]",
          "name": "amounts",
          "type": "uint256[]"
        }
      ],
      "stateMutability": "nonpayable",
      "type": "function"
    },
    {
      "inputs": [
        {
          "internalType": "uint256",
          "name": "amountOut",
          "type": "uint256"
        },
        {
          "internalType": "uint256",
          "name": "amountInMax",
          "type": "uint256"
        },
        {
          "internalType": "address[]",
          "name": "path",
          "type": "address[]"
        },
        {
          "internalType": "address",
          "name": "to",
          "type": "address"
        },
        {
          "internalType": "uint256",
          "name": "deadline",
          "type": "uint256"
        }
      ],
      "name": "swapTokensForExactTokens",
      "outputs": [
        {
          "internalType": "uint256[]",
          "name": "amounts",
          "type": "uint256[]"
        }
      ],
      "stateMutability": "nonpayable",
      "type": "function"
    },
    {
      "stateMutability": "payable",
      "type": "receive"
    }
  ],
  "bytecode": "0x608060405234801561001057600080fd5b50613f72806100206000396000f3fe6080604052600436106101855760003560e01c806396ed28f9116100d1578063c45a01551161008a578063ded9382a11610064578063ded9382a14610490578063e8e33700146104b0578063f305d719146104eb578063fb3bdb41146104fe57600080fd5b8063c45a015514610435578063d06ca61f14610450578063d52bb6f41461047057600080fd5b806396ed28f91461036f578063ad5c4648146103a7578063ad615dec146103c2578063af2979eb146103e2578063b6f9de9514610402578063baa2abde1461041557600080fd5b806352707d8c1161013e5780635c11d795116101185780635c11d795146102fc578063791ac9471461031c5780637ff36ab51461033c5780638803dbee1461034f57600080fd5b806352707d8c1461028e578063571fd012146102bc5780635b0d5984146102dc57600080fd5b806302751cec146101a757806318cbafe5146101e15780631f00ca741461020e5780632195995c1461022e57806338ed17391461024e5780634a25d94a1461026e57600080fd5b366101a257336001602960991b01146101a0576101a0613501565b005b600080fd5b3480156101b357600080fd5b506101c76101c236600461353f565b610511565b604080519283526020830191909152015b60405180910390f35b3480156101ed57600080fd5b506102016101fc3660046135e2565b6105d2565b6040516101d89190613655565b34801561021a57600080fd5b506102016102293660046136af565b610894565b34801561023a57600080fd5b506101c761024936600461379f565b6108af565b34801561025a57600080fd5b506102016102693660046135e2565b61096f565b34801561027a57600080fd5b506102016102893660046135e2565b610a74565b34801561029a57600080fd5b506102ae6102a9366004613849565b610b77565b6040519081526020016101d8565b3480156102c857600080fd5b506102ae6102d7366004613849565b610b8e565b3480156102e857600080fd5b506102ae6102f736600461387b565b610b9c565b34801561030857600080fd5b506101a06103173660046135e2565b610c57565b34801561032857600080fd5b506101a06103373660046135e2565b610ebf565b61020161034a366004613911565b61108f565b34801561035b57600080fd5b5061020161036a3660046135e2565b61132f565b34801561037b57600080fd5b5061038f61038a366004613978565b6113d3565b6040516001600160a01b0390911681526020016101d8565b3480156103b357600080fd5b5061038f6001602960991b0181565b3480156103ce57600080fd5b506102ae6103dd3660046139b1565b61145c565b3480156103ee57600080fd5b506102ae6103fd36600461353f565b611471565b6101a0610410366004613911565b611594565b34801561042157600080fd5b506101c76104303660046139dd565b61187a565b34801561044157600080fd5b5061038f6018602960991b0181565b34801561045c57600080fd5b5061020161046b3660046136af565b611a47565b34801561047c57600080fd5b506101c761048b366004613978565b611a5b565b34801561049c57600080fd5b506101c76104ab36600461387b565b611a7c565b3480156104bc57600080fd5b506104d06104cb366004613a4f565b611b3d565b604080519384526020840192909252908201526060016101d8565b6104d06104f936600461353f565b611c31565b61020161050c366004613911565b611e2f565b600080824281101561053e5760405162461bcd60e51b815260040161053590613acb565b60405180910390fd5b610554896001602960991b018a8a8a308a61187a565b9093509150610564898685612105565b604051632e1a7d4d60e01b8152600481018390526001602960991b0190632e1a7d4d90602401600060405180830381600087803b1580156105a457600080fd5b505af11580156105b8573d6000803e3d6000fd5b505050506105c68583612236565b50965096945050505050565b606081428110156105f55760405162461bcd60e51b815260040161053590613acb565b6001602960991b01868661060a600182613b18565b81811061061957610619613b2f565b905060200201602081019061062e9190613b45565b6001600160a01b0316146106545760405162461bcd60e51b815260040161053590613b62565b6106996018602960991b018988888080602002602001604051908101604052809392919081815260200183836020028082843760009201919091525061231592505050565b91508682600184516106ab9190613b18565b815181106106bb576106bb613b2f565b602002602001015110156106e15760405162461bcd60e51b815260040161053590613b99565b61078d868660008181106106f7576106f7613b2f565b905060200201602081019061070c9190613b45565b3361076d6018602960991b018a8a600081811061072b5761072b613b2f565b90506020020160208101906107409190613b45565b8b8b600181811061075357610753613b2f565b90506020020160208101906107689190613b45565b61253a565b8560008151811061078057610780613b2f565b6020026020010151612613565b6107cc82878780806020026020016040519081016040528093929190818152602001838360200280828437600092019190915250309250612751915050565b6001602960991b016001600160a01b0316632e1a7d4d83600185516107f19190613b18565b8151811061080157610801613b2f565b60200260200101516040518263ffffffff1660e01b815260040161082791815260200190565b600060405180830381600087803b15801561084157600080fd5b505af1158015610855573d6000803e3d6000fd5b5050505061088984836001855161086c9190613b18565b8151811061087c5761087c613b2f565b6020026020010151612236565b509695505050505050565b60606108a86018602960991b01848461290a565b9392505050565b60008060006108c66018602960991b018f8f61253a565b90506000876108d5578c6108d9565b6000195b60405163d505accf60e01b81529091506001600160a01b0383169063d505accf90610914903390309086908f908e908e908e90600401613be3565b600060405180830381600087803b15801561092e57600080fd5b505af1158015610942573d6000803e3d6000fd5b505050506109558f8f8f8f8f8f8f61187a565b809450819550505050509b509b9950505050505050505050565b606081428110156109925760405162461bcd60e51b815260040161053590613acb565b6109d76018602960991b018988888080602002602001604051908101604052809392919081815260200183836020028082843760009201919091525061231592505050565b91508682600184516109e99190613b18565b815181106109f9576109f9613b2f565b60200260200101511015610a1f5760405162461bcd60e51b815260040161053590613b99565b610a35868660008181106106f7576106f7613b2f565b61088982878780806020026020016040519081016040528093929190818152602001838360200280828437600092019190915250899250612751915050565b60608142811015610a975760405162461bcd60e51b815260040161053590613acb565b6001602960991b018686610aac600182613b18565b818110610abb57610abb613b2f565b9050602002016020810190610ad09190613b45565b6001600160a01b031614610af65760405162461bcd60e51b815260040161053590613b62565b610b3b6018602960991b018988888080602002602001604051908101604052809392919081815260200183836020028082843760009201919091525061290a92505050565b91508682600081518110610b5157610b51613b2f565b602002602001015111156106e15760405162461bcd60e51b815260040161053590613c24565b6000610b8585858585612b08565b95945050505050565b6000610b8585858585612bf1565b600080610bb86018602960991b018d6001602960991b0161253a565b9050600086610bc7578b610bcb565b6000195b60405163d505accf60e01b81529091506001600160a01b0383169063d505accf90610c06903390309086908e908d908d908d90600401613be3565b600060405180830381600087803b158015610c2057600080fd5b505af1158015610c34573d6000803e3d6000fd5b50505050610c468d8d8d8d8d8d611471565b9d9c50505050505050505050505050565b8042811015610c785760405162461bcd60e51b815260040161053590613acb565b610cf085856000818110610c8e57610c8e613b2f565b9050602002016020810190610ca39190613b45565b33610cea6018602960991b0189896000818110610cc257610cc2613b2f565b9050602002016020810190610cd79190613b45565b8a8a600181811061075357610753613b2f565b8a612613565b60008585610cff600182613b18565b818110610d0e57610d0e613b2f565b9050602002016020810190610d239190613b45565b6040516370a0823160e01b81526001600160a01b03868116600483015291909116906370a082319060240160206040518083038186803b158015610d6657600080fd5b505afa158015610d7a573d6000803e3d6000fd5b505050506040513d601f19601f82011682018060405250810190610d9e9190613c6a565b9050610dde868680806020026020016040519081016040528093929190818152602001838360200280828437600092019190915250889250612ce0915050565b86818787610ded600182613b18565b818110610dfc57610dfc613b2f565b9050602002016020810190610e119190613b45565b6040516370a0823160e01b81526001600160a01b03888116600483015291909116906370a08231906024015b60206040518083038186803b158015610e5557600080fd5b505afa158015610e69573d6000803e3d6000fd5b505050506040513d601f19601f82011682018060405250810190610e8d9190613c6a565b610e979190613b18565b1015610eb55760405162461bcd60e51b815260040161053590613b99565b5050505050505050565b8042811015610ee05760405162461bcd60e51b815260040161053590613acb565b6001602960991b018585610ef5600182613b18565b818110610f0457610f04613b2f565b9050602002016020810190610f199190613b45565b6001600160a01b031614610f3f5760405162461bcd60e51b815260040161053590613b62565b610f5585856000818110610c8e57610c8e613b2f565b610f93858580806020026020016040519081016040528093929190818152602001838360200280828437600092019190915250309250612ce0915050565b6040516370a0823160e01b81523060048201526000906001602960991b01906370a082319060240160206040518083038186803b158015610fd357600080fd5b505afa158015610fe7573d6000803e3d6000fd5b505050506040513d601f19601f8201168201806040525081019061100b9190613c6a565b90508681101561102d5760405162461bcd60e51b815260040161053590613b99565b604051632e1a7d4d60e01b8152600481018290526001602960991b0190632e1a7d4d90602401600060405180830381600087803b15801561106d57600080fd5b505af1158015611081573d6000803e3d6000fd5b50505050610eb58482612236565b606081428110156110b25760405162461bcd60e51b815260040161053590613acb565b6001602960991b0186866000816110cb576110cb613b2f565b90506020020160208101906110e09190613b45565b6001600160a01b0316146111065760405162461bcd60e51b815260040161053590613b62565b61114b6018602960991b013488888080602002602001604051908101604052809392919081815260200183836020028082843760009201919091525061231592505050565b915086826001845161115d9190613b18565b8151811061116d5761116d613b2f565b602002602001015110156111935760405162461bcd60e51b815260040161053590613b99565b6001602960991b016001600160a01b031663d0e30db0836000815181106111bc576111bc613b2f565b60200260200101516040518263ffffffff1660e01b81526004016000604051808303818588803b1580156111ef57600080fd5b505af1158015611203573d6000803e3d6000fd5b50505050506001602960991b016001600160a01b031663a9059cbb61123c6018602960991b0189896000818110610cc257610cc2613b2f565b8460008151811061124f5761124f613b2f565b60200260200101516040518363ffffffff1660e01b81526004016112889291906001600160a01b03929092168252602082015260400190565b602060405180830381600087803b1580156112a257600080fd5b505af11580156112b6573d6000803e3d6000fd5b505050506040513d601f19601f820116820180604052508101906112da9190613c83565b6112e6576112e6613501565b61132582878780806020026020016040519081016040528093929190818152602001838360200280828437600092019190915250899250612751915050565b5095945050505050565b606081428110156113525760405162461bcd60e51b815260040161053590613acb565b6113976018602960991b018988888080602002602001604051908101604052809392919081815260200183836020028082843760009201919091525061290a92505050565b915086826000815181106113ad576113ad613b2f565b60200260200101511115610a1f5760405162461bcd60e51b815260040161053590613c24565b60405163e6a4390560e01b81526001600160a01b038084166004830152821660248201526000906018602960991b019063e6a439059060440160206040518083038186803b15801561142457600080fd5b505afa158015611438573d6000803e3d6000fd5b505050506040513d601f19601f820116820180604052508101906108a89190613ca0565b6000611469848484613017565b949350505050565b600081428110156114945760405162461bcd60e51b815260040161053590613acb565b6114aa886001602960991b01898989308961187a565b6040516370a0823160e01b81523060048201529093506115329150899086906001600160a01b038316906370a082319060240160206040518083038186803b1580156114f557600080fd5b505afa158015611509573d6000803e3d6000fd5b505050506040513d601f19601f8201168201806040525081019061152d9190613c6a565b612105565b604051632e1a7d4d60e01b8152600481018390526001602960991b0190632e1a7d4d90602401600060405180830381600087803b15801561157257600080fd5b505af1158015611586573d6000803e3d6000fd5b505050506108898483612236565b80428110156115b55760405162461bcd60e51b815260040161053590613acb565b6001602960991b0185856000816115ce576115ce613b2f565b90506020020160208101906115e39190613b45565b6001600160a01b0316146116095760405162461bcd60e51b815260040161053590613b62565b60003490506001602960991b016001600160a01b031663d0e30db0826040518263ffffffff1660e01b81526004016000604051808303818588803b15801561165057600080fd5b505af1158015611664573d6000803e3d6000fd5b50505050506001602960991b016001600160a01b031663a9059cbb61169d6018602960991b0189896000818110610cc257610cc2613b2f565b6040516001600160e01b031960e084901b1681526001600160a01b03909116600482015260248101849052604401602060405180830381600087803b1580156116e557600080fd5b505af11580156116f9573d6000803e3d6000fd5b505050506040513d601f19601f8201168201806040525081019061171d9190613c83565b61172957611729613501565b60008686611738600182613b18565b81811061174757611747613b2f565b905060200201602081019061175c9190613b45565b6040516370a0823160e01b81526001600160a01b03878116600483015291909116906370a082319060240160206040518083038186803b15801561179f57600080fd5b505afa1580156117b3573d6000803e3d6000fd5b505050506040513d601f19601f820116820180604052508101906117d79190613c6a565b9050611817878780806020026020016040519081016040528093929190818152602001838360200280828437600092019190915250899250612ce0915050565b87818888611826600182613b18565b81811061183557611835613b2f565b905060200201602081019061184a9190613b45565b6040516370a0823160e01b81526001600160a01b03898116600483015291909116906370a0823190602401610e3d565b600080824281101561189e5760405162461bcd60e51b815260040161053590613acb565b60006118b26018602960991b018c8c61253a565b6040516323b872dd60e01b81523360048201526001600160a01b03821660248201819052604482018c90529192506323b872dd90606401602060405180830381600087803b15801561190357600080fd5b505af1158015611917573d6000803e3d6000fd5b505050506040513d601f19601f8201168201806040525081019061193b9190613c83565b5060405163226bf2d160e21b81526001600160a01b03878116600483015260009182918416906389afcb44906024016040805180830381600087803b15801561198357600080fd5b505af1158015611997573d6000803e3d6000fd5b505050506040513d601f19601f820116820180604052508101906119bb9190613cbd565b9150915060006119cb8e8e6130b5565b509050806001600160a01b03168e6001600160a01b0316146119ee5781836119f1565b82825b90975095508a871015611a165760405162461bcd60e51b815260040161053590613ce1565b89861015611a365760405162461bcd60e51b815260040161053590613d26565b505050505097509795505050505050565b60606108a86018602960991b018484612315565b600080611a706018602960991b0185856131a4565b915091505b9250929050565b6000806000611a9a6018602960991b018e6001602960991b0161253a565b9050600087611aa9578c611aad565b6000195b60405163d505accf60e01b81529091506001600160a01b0383169063d505accf90611ae8903390309086908f908e908e908e90600401613be3565b600060405180830381600087803b158015611b0257600080fd5b505af1158015611b16573d6000803e3d6000fd5b50505050611b288e8e8e8e8e8e610511565b909f909e509c50505050505050505050505050565b60008060008342811015611b635760405162461bcd60e51b815260040161053590613acb565b611b718c8c8c8c8c8c6131ec565b90945092506000611b8a6018602960991b018e8e61253a565b9050611b988d338388612613565b611ba48c338387612613565b6040516335313c2160e11b81526001600160a01b038881166004830152821690636a62784290602401602060405180830381600087803b158015611be757600080fd5b505af1158015611bfb573d6000803e3d6000fd5b505050506040513d601f19601f82011682018060405250810190611c1f9190613c6a565b92505050985098509895505050505050565b60008060008342811015611c575760405162461bcd60e51b815260040161053590613acb565b611c6c8a6001602960991b018b348c8c6131ec565b90945092506000611c8c6018602960991b018c6001602960991b0161253a565b9050611c9a8b338388612613565b6001602960991b016001600160a01b031663d0e30db0856040518263ffffffff1660e01b81526004016000604051808303818588803b158015611cdc57600080fd5b505af1158015611cf0573d6000803e3d6000fd5b505060405163a9059cbb60e01b81526001600160a01b0385166004820152602481018890526001602960991b01935063a9059cbb92506044019050602060405180830381600087803b158015611d4557600080fd5b505af1158015611d59573d6000803e3d6000fd5b505050506040513d601f19601f82011682018060405250810190611d7d9190613c83565b611d8957611d89613501565b6040516335313c2160e11b81526001600160a01b038881166004830152821690636a62784290602401602060405180830381600087803b158015611dcc57600080fd5b505af1158015611de0573d6000803e3d6000fd5b505050506040513d601f19601f82011682018060405250810190611e049190613c6a565b925083341115611e2157611e2133611e1c8634613b18565b612236565b505096509650969350505050565b60608142811015611e525760405162461bcd60e51b815260040161053590613acb565b6001602960991b018686600081611e6b57611e6b613b2f565b9050602002016020810190611e809190613b45565b6001600160a01b031614611ea65760405162461bcd60e51b815260040161053590613b62565b611eeb6018602960991b018888888080602002602001604051908101604052809392919081815260200183836020028082843760009201919091525061290a92505050565b91503482600081518110611f0157611f01613b2f565b60200260200101511115611f275760405162461bcd60e51b815260040161053590613c24565b6001602960991b016001600160a01b031663d0e30db083600081518110611f5057611f50613b2f565b60200260200101516040518263ffffffff1660e01b81526004016000604051808303818588803b158015611f8357600080fd5b505af1158015611f97573d6000803e3d6000fd5b50505050506001602960991b016001600160a01b031663a9059cbb611fd06018602960991b0189896000818110610cc257610cc2613b2f565b84600081518110611fe357611fe3613b2f565b60200260200101516040518363ffffffff1660e01b815260040161201c9291906001600160a01b03929092168252602082015260400190565b602060405180830381600087803b15801561203657600080fd5b505af115801561204a573d6000803e3d6000fd5b505050506040513d601f19601f8201168201806040525081019061206e9190613c83565b61207a5761207a613501565b6120b982878780806020026020016040519081016040528093929190818152602001838360200280828437600092019190915250899250612751915050565b816000815181106120cc576120cc613b2f565b60200260200101513411156113255761132533836000815181106120f2576120f2613b2f565b602002602001015134611e1c9190613b18565b604080516001600160a01b038481166024830152604480830185905283518084039091018152606490920183526020820180516001600160e01b031663a9059cbb60e01b17905291516000928392908716916121619190613d97565b6000604051808303816000865af19150503d806000811461219e576040519150601f19603f3d011682016040523d82523d6000602084013e6121a3565b606091505b50915091508180156121cd5750805115806121cd5750808060200190518101906121cd9190613c83565b61222f5760405162461bcd60e51b815260206004820152602d60248201527f5472616e7366657248656c7065723a3a736166655472616e736665723a20747260448201526c185b9cd9995c8819985a5b1959609a1b6064820152608401610535565b5050505050565b604080516000808252602082019092526001600160a01b0384169083906040516122609190613d97565b60006040518083038185875af1925050503d806000811461229d576040519150601f19603f3d011682016040523d82523d6000602084013e6122a2565b606091505b50509050806123105760405162461bcd60e51b815260206004820152603460248201527f5472616e7366657248656c7065723a3a736166655472616e736665724554483a60448201527308115512081d1c985b9cd9995c8819985a5b195960621b6064820152608401610535565b505050565b60606002825110156123695760405162461bcd60e51b815260206004820152601d60248201527f5465616c737761704c6962726172793a20494e56414c49445f504154480000006044820152606401610535565b815167ffffffffffffffff81111561238357612383613699565b6040519080825280602002602001820160405280156123ac578160200160208202803683370190505b50905082816000815181106123c3576123c3613b2f565b60200260200101818152505060005b600183516123e09190613b18565b8110156125325760006124318483815181106123fe576123fe613b2f565b6020026020010151858460016124149190613db3565b8151811061242457612424613b2f565b60200260200101516130b5565b509050600061247f8786858151811061244c5761244c613b2f565b6020026020010151878660016124629190613db3565b8151811061247257612472613b2f565b602002602001015161253a565b90506000806124bc83856001600160a01b03168988815181106124a4576124a4613b2f565b60200260200101516001600160a01b031614156133de565b9150915060006124cb84613488565b90506124f28787815181106124e2576124e2613b2f565b6020026020010151848484612b08565b876124fe886001613db3565b8151811061250e5761250e613b2f565b6020026020010181815250505050505050808061252a90613dcb565b9150506123d2565b509392505050565b600080600061254985856130b5565b6040516bffffffffffffffffffffffff19606084811b8216602084015283901b16603482015291935091508690604801604051602081830303815290604052805190602001206040516020016125f19291906001600160f81b0319815260609290921b6bffffffffffffffffffffffff1916600183015260158201527f9690b3663a0ea0887f1b44a4a80a71bb6a9c3bbab71f1777cb5a31e95ffdb5e1603582015260550190565b60408051601f1981840301815291905280516020909101209695505050505050565b604080516001600160a01b0385811660248301528481166044830152606480830185905283518084039091018152608490920183526020820180516001600160e01b03166323b872dd60e01b17905291516000928392908816916126779190613d97565b6000604051808303816000865af19150503d80600081146126b4576040519150601f19603f3d011682016040523d82523d6000602084013e6126b9565b606091505b50915091508180156126e35750805115806126e35750808060200190518101906126e39190613c83565b6127495760405162461bcd60e51b815260206004820152603160248201527f5472616e7366657248656c7065723a3a7472616e7366657246726f6d3a207472604482015270185b9cd9995c919c9bdb4819985a5b1959607a1b6064820152608401610535565b505050505050565b60005b600183516127629190613b18565b8110156129045760008084838151811061277e5761277e613b2f565b6020026020010151858460016127949190613db3565b815181106127a4576127a4613b2f565b60200260200101519150915060006127bc83836130b5565b5090506000876127cd866001613db3565b815181106127dd576127dd613b2f565b60200260200101519050600080836001600160a01b0316866001600160a01b03161461280b5782600061280f565b6000835b91509150600060028a516128239190613b18565b881061282f5788612847565b6128476018602960991b01878c6124628c6002613db3565b905061285b6018602960991b01888861253a565b6001600160a01b031663022c0d9f84848460006040519080825280601f01601f191660200182016040528015612898576020820181803683370190505b506040518563ffffffff1660e01b81526004016128b89493929190613de6565b600060405180830381600087803b1580156128d257600080fd5b505af11580156128e6573d6000803e3d6000fd5b505050505050505050505080806128fc90613dcb565b915050612754565b50505050565b606060028251101561295e5760405162461bcd60e51b815260206004820152601d60248201527f5465616c737761704c6962726172793a20494e56414c49445f504154480000006044820152606401610535565b815167ffffffffffffffff81111561297857612978613699565b6040519080825280602002602001820160405280156129a1578160200160208202803683370190505b5090508281600183516129b49190613b18565b815181106129c4576129c4613b2f565b6020026020010181815250506000600183516129e09190613b18565b90505b8015612532576000612a24846129fa600185613b18565b81518110612a0a57612a0a613b2f565b602002602001015185848151811061242457612424613b2f565b5090506000612a638786612a39600187613b18565b81518110612a4957612a49613b2f565b602002602001015187868151811061247257612472613b2f565b9050600080612a92836001600160a01b03861689612a8260018a613b18565b815181106124a4576124a4613b2f565b915091506000612aa184613488565b9050612ac8878781518110612ab857612ab8613b2f565b6020026020010151848484612bf1565b87612ad4600189613b18565b81518110612ae457612ae4613b2f565b60200260200101818152505050505050508080612b0090613e36565b9150506129e3565b6000808511612b6c5760405162461bcd60e51b815260206004820152602a60248201527f5465616c737761704c6962726172793a20494e53554646494349454e545f494e60448201526914155517d05353d5539560b21b6064820152608401610535565b600084118015612b7c5750600083115b612b985760405162461bcd60e51b815260040161053590613e4d565b6000612ba683612710613b18565b612bb09087613e94565b90506000612bbe8583613e94565b9050600082612bcf88612710613e94565b612bd99190613db3565b9050612be58183613eb3565b98975050505050505050565b6000808511612c565760405162461bcd60e51b815260206004820152602b60248201527f5465616c737761704c6962726172793a20494e53554646494349454e545f4f5560448201526a1514155517d05353d5539560aa1b6064820152608401610535565b600084118015612c665750600083115b612c825760405162461bcd60e51b815260040161053590613e4d565b6000612c8e8686613e94565b612c9a90612710613e94565b90506000612caa84612710613b18565b612cb48887613b18565b612cbe9190613e94565b9050612cca8183613eb3565b612cd5906001613db3565b979650505050505050565b60005b60018351612cf19190613b18565b81101561231057600080848381518110612d0d57612d0d613b2f565b602002602001015185846001612d239190613db3565b81518110612d3357612d33613b2f565b6020026020010151915091506000612d4b83836130b5565b5090506000612d626018602960991b01858561253a565b9050600080600080846001600160a01b0316630902f1ac6040518163ffffffff1660e01b815260040160606040518083038186803b158015612da357600080fd5b505afa158015612db7573d6000803e3d6000fd5b505050506040513d601f19601f82011682018060405250810190612ddb9190613eec565b506001600160701b031691506001600160701b03169150600080876001600160a01b03168a6001600160a01b031614612e15578284612e18565b83835b6040516370a0823160e01b81526001600160a01b038a8116600483015292945090925083918c16906370a082319060240160206040518083038186803b158015612e6157600080fd5b505afa158015612e75573d6000803e3d6000fd5b505050506040513d601f19601f82011682018060405250810190612e999190613c6a565b612ea39190613b18565b9550612f218683838a6001600160a01b03166324a9d8536040518163ffffffff1660e01b815260040160206040518083038186803b158015612ee457600080fd5b505afa158015612ef8573d6000803e3d6000fd5b505050506040513d601f19601f82011682018060405250810190612f1c9190613c6a565b612b08565b945050505050600080856001600160a01b0316886001600160a01b031614612f4b57826000612f4f565b6000835b91509150600060028c51612f639190613b18565b8a10612f6f578a612f87565b612f876018602960991b01898e6124628e6002613db3565b6040805160008152602081019182905263022c0d9f60e01b9091529091506001600160a01b0387169063022c0d9f90612fc99086908690869060248101613de6565b600060405180830381600087803b158015612fe357600080fd5b505af1158015612ff7573d6000803e3d6000fd5b50505050505050505050505050808061300f90613dcb565b915050612ce3565b60008084116130745760405162461bcd60e51b8152602060048201526024808201527f5465616c737761704c6962726172793a20494e53554646494349454e545f414d60448201526313d5539560e21b6064820152608401610535565b6000831180156130845750600082115b6130a05760405162461bcd60e51b815260040161053590613e4d565b826130ab8386613e94565b6114699190613eb3565b600080826001600160a01b0316846001600160a01b031614156131265760405162461bcd60e51b8152602060048201526024808201527f5465616c737761704c6962726172793a204944454e544943414c5f41444452456044820152635353455360e01b6064820152608401610535565b826001600160a01b0316846001600160a01b031610613146578284613149565b83835b90925090506001600160a01b038216611a755760405162461bcd60e51b815260206004820152601d60248201527f5465616c737761704c6962726172793a205a45524f5f414444524553530000006044820152606401610535565b60008060006131b385856130b5565b5090506131df6131c487878761253a565b826001600160a01b0316876001600160a01b031614156133de565b9250925050935093915050565b60405163e6a4390560e01b81526001600160a01b03808816600483015286166024820152600090819081906018602960991b019063e6a439059060440160206040518083038186803b15801561324157600080fd5b505afa158015613255573d6000803e3d6000fd5b505050506040513d601f19601f820116820180604052508101906132799190613ca0565b6001600160a01b03161415613312576040516364e329cb60e11b81526001600160a01b03808a166004830152881660248201526018602960991b019063c9c6539690604401602060405180830381600087803b1580156132d857600080fd5b505af11580156132ec573d6000803e3d6000fd5b505050506040513d601f19601f820116820180604052508101906133109190613ca0565b505b6000806133276018602960991b018b8b6131a4565b91509150816000148015613339575080155b15613349578793508692506133d1565b6000613356898484613017565b905087811161338a578581101561337f5760405162461bcd60e51b815260040161053590613d26565b8894509250826133cf565b6000613397898486613017565b9050898111156133a9576133a9613501565b878110156133c95760405162461bcd60e51b815260040161053590613ce1565b94508793505b505b5050965096945050505050565b600080600080856001600160a01b0316630902f1ac6040518163ffffffff1660e01b815260040160606040518083038186803b15801561341d57600080fd5b505afa158015613431573d6000803e3d6000fd5b505050506040513d601f19601f820116820180604052508101906134559190613eec565b506001600160701b031691506001600160701b031691508461347857818161347b565b80825b9097909650945050505050565b6000816001600160a01b03166324a9d8536040518163ffffffff1660e01b815260040160206040518083038186803b1580156134c357600080fd5b505afa1580156134d7573d6000803e3d6000fd5b505050506040513d601f19601f820116820180604052508101906134fb9190613c6a565b92915050565b634e487b7160e01b600052600160045260246000fd5b6001600160a01b038116811461352c57600080fd5b50565b803561353a81613517565b919050565b60008060008060008060c0878903121561355857600080fd5b863561356381613517565b9550602087013594506040870135935060608701359250608087013561358881613517565b8092505060a087013590509295509295509295565b60008083601f8401126135af57600080fd5b50813567ffffffffffffffff8111156135c757600080fd5b6020830191508360208260051b8501011115611a7557600080fd5b60008060008060008060a087890312156135fb57600080fd5b8635955060208701359450604087013567ffffffffffffffff81111561362057600080fd5b61362c89828a0161359d565b909550935050606087013561364081613517565b80925050608087013590509295509295509295565b6020808252825182820181905260009190848201906040850190845b8181101561368d57835183529284019291840191600101613671565b50909695505050505050565b634e487b7160e01b600052604160045260246000fd5b600080604083850312156136c257600080fd5b8235915060208084013567ffffffffffffffff808211156136e257600080fd5b818601915086601f8301126136f657600080fd5b81358181111561370857613708613699565b8060051b604051601f19603f8301168101818110858211171561372d5761372d613699565b60405291825284820192508381018501918983111561374b57600080fd5b938501935b82851015613770576137618561352f565b84529385019392850192613750565b8096505050505050509250929050565b801515811461352c57600080fd5b803560ff8116811461353a57600080fd5b60008060008060008060008060008060006101608c8e0312156137c157600080fd5b8b356137cc81613517565b9a5060208c01356137dc81613517565b995060408c0135985060608c0135975060808c0135965060a08c013561380181613517565b955060c08c0135945060e08c013561381881613780565b93506138276101008d0161378e565b92506101208c013591506101408c013590509295989b509295989b9093969950565b6000806000806080858703121561385f57600080fd5b5050823594602084013594506040840135936060013592509050565b6000806000806000806000806000806101408b8d03121561389b57600080fd5b8a356138a681613517565b995060208b0135985060408b0135975060608b0135965060808b01356138cb81613517565b955060a08b0135945060c08b01356138e281613780565b93506138f060e08c0161378e565b92506101008b013591506101208b013590509295989b9194979a5092959850565b60008060008060006080868803121561392957600080fd5b85359450602086013567ffffffffffffffff81111561394757600080fd5b6139538882890161359d565b909550935050604086013561396781613517565b949793965091946060013592915050565b6000806040838503121561398b57600080fd5b823561399681613517565b915060208301356139a681613517565b809150509250929050565b6000806000606084860312156139c657600080fd5b505081359360208301359350604090920135919050565b600080600080600080600060e0888a0312156139f857600080fd5b8735613a0381613517565b96506020880135613a1381613517565b955060408801359450606088013593506080880135925060a0880135613a3881613517565b8092505060c0880135905092959891949750929550565b600080600080600080600080610100898b031215613a6c57600080fd5b8835613a7781613517565b97506020890135613a8781613517565b965060408901359550606089013594506080890135935060a0890135925060c0890135613ab381613517565b8092505060e089013590509295985092959890939650565b60208082526017908201527f5465616c73776170526f757465723a2045585049524544000000000000000000604082015260600190565b634e487b7160e01b600052601160045260246000fd5b600082821015613b2a57613b2a613b02565b500390565b634e487b7160e01b600052603260045260246000fd5b600060208284031215613b5757600080fd5b81356108a881613517565b6020808252601c908201527f5465616c73776170526f757465723a20494e56414c49445f5041544800000000604082015260600190565b6020808252602a908201527f5465616c73776170526f757465723a20494e53554646494349454e545f4f555460408201526914155517d05353d5539560b21b606082015260800190565b6001600160a01b0397881681529590961660208601526040850193909352606084019190915260ff16608083015260a082015260c081019190915260e00190565b60208082526026908201527f5465616c73776170526f757465723a204558434553534956455f494e5055545f604082015265105353d5539560d21b606082015260800190565b600060208284031215613c7c57600080fd5b5051919050565b600060208284031215613c9557600080fd5b81516108a881613780565b600060208284031215613cb257600080fd5b81516108a881613517565b60008060408385031215613cd057600080fd5b505080516020909101519092909150565b60208082526025908201527f5465616c73776170526f757465723a20494e53554646494349454e545f415f416040820152641353d5539560da1b606082015260800190565b60208082526025908201527f5465616c73776170526f757465723a20494e53554646494349454e545f425f416040820152641353d5539560da1b606082015260800190565b60005b83811015613d86578181015183820152602001613d6e565b838111156129045750506000910152565b60008251613da9818460208701613d6b565b9190910192915050565b60008219821115613dc657613dc6613b02565b500190565b6000600019821415613ddf57613ddf613b02565b5060010190565b84815283602082015260018060a01b03831660408201526080606082015260008251806080840152613e1f8160a0850160208701613d6b565b601f01601f19169190910160a00195945050505050565b600081613e4557613e45613b02565b506000190190565b60208082526027908201527f5465616c737761704c6962726172793a20494e53554646494349454e545f4c496040820152665155494449545960c81b606082015260800190565b6000816000190483118215151615613eae57613eae613b02565b500290565b600082613ed057634e487b7160e01b600052601260045260246000fd5b500490565b80516001600160701b038116811461353a57600080fd5b600080600060608486031215613f0157600080fd5b613f0a84613ed5565b9250613f1860208501613ed5565b9150604084015163ffffffff81168114613f3157600080fd5b80915050925092509256fea2646970667358221220cc16c8b9a19a0e06f0102a856465a2a73129decb1ba04f1a765069c25f1f093c64736f6c63430008090033",
  "linkReferences": {},
  "deployedLinkReferences": {}
}