{
  "_format": "hh-sol-artifact-1",
  "contractName": "Viewer",
  "sourceName": "contracts/cBridge/staking/Viewer.sol",
  "abi": [
    {
      "inputs": [
        {
          "internalType": "contract Staking",
          "name": "_staking",
          "type": "address"
        }
      ],
      "stateMutability": "nonpayable",
      "type": "constructor"
    },
    {
      "inputs": [],
      "name": "getBondedValidatorInfos",
      "outputs": [
        {
          "components": [
            {
              "internalType": "address",
              "name": "valAddr",
              "type": "address"
            },
            {
              "internalType": "enum DataTypes.ValidatorStatus",
              "name": "status",
              "type": "uint8"
            },
            {
              "internalType": "address",
              "name": "signer",
              "type": "address"
            },
            {
              "internalType": "uint256",
              "name": "tokens",
              "type": "uint256"
            },
            {
              "internalType": "uint256",
              "name": "shares",
              "type": "uint256"
            },
            {
              "internalType": "uint256",
              "name": "minSelfDelegation",
              "type": "uint256"
            },
            {
              "internalType": "uint64",
              "name": "commissionRate",
              "type": "uint64"
            }
          ],
          "internalType": "struct DataTypes.ValidatorInfo[]",
          "name": "",
          "type": "tuple[]"
        }
      ],
      "stateMutability": "view",
      "type": "function"
    },
    {
      "inputs": [
        {
          "internalType": "address",
          "name": "_delAddr",
          "type": "address"
        }
      ],
      "name": "getDelegatorInfos",
      "outputs": [
        {
          "components": [
            {
              "internalType": "address",
              "name": "valAddr",
              "type": "address"
            },
            {
              "internalType": "uint256",
              "name": "tokens",
              "type": "uint256"
            },
            {
              "internalType": "uint256",
              "name": "shares",
              "type": "uint256"
            },
            {
              "components": [
                {
                  "internalType": "uint256",
                  "name": "shares",
                  "type": "uint256"
                },
                {
                  "internalType": "uint256",
                  "name": "creationBlock",
                  "type": "uint256"
                }
              ],
              "internalType": "struct DataTypes.Undelegation[]",
              "name": "undelegations",
              "type": "tuple[]"
            },
            {
              "internalType": "uint256",
              "name": "undelegationTokens",
              "type": "uint256"
            },
            {
              "internalType": "uint256",
              "name": "withdrawableUndelegationTokens",
              "type": "uint256"
            }
          ],
          "internalType": "struct DataTypes.DelegatorInfo[]",
          "name": "",
          "type": "tuple[]"
        }
      ],
      "stateMutability": "view",
      "type": "function"
    },
    {
      "inputs": [
        {
          "internalType": "address",
          "name": "_delAddr",
          "type": "address"
        }
      ],
      "name": "getDelegatorTokens",
      "outputs": [
        {
          "internalType": "uint256",
          "name": "",
          "type": "uint256"
        },
        {
          "internalType": "uint256",
          "name": "",
          "type": "uint256"
        }
      ],
      "stateMutability": "view",
      "type": "function"
    },
    {
      "inputs": [],
      "name": "getMinValidatorTokens",
      "outputs": [
        {
          "internalType": "uint256",
          "name": "",
          "type": "uint256"
        }
      ],
      "stateMutability": "view",
      "type": "function"
    },
    {
      "inputs": [
        {
          "internalType": "address",
          "name": "_valAddr",
          "type": "address"
        }
      ],
      "name": "getValidatorInfo",
      "outputs": [
        {
          "components": [
            {
              "internalType": "address",
              "name": "valAddr",
              "type": "address"
            },
            {
              "internalType": "enum DataTypes.ValidatorStatus",
              "name": "status",
              "type": "uint8"
            },
            {
              "internalType": "address",
              "name": "signer",
              "type": "address"
            },
            {
              "internalType": "uint256",
              "name": "tokens",
              "type": "uint256"
            },
            {
              "internalType": "uint256",
              "name": "shares",
              "type": "uint256"
            },
            {
              "internalType": "uint256",
              "name": "minSelfDelegation",
              "type": "uint256"
            },
            {
              "internalType": "uint64",
              "name": "commissionRate",
              "type": "uint64"
            }
          ],
          "internalType": "struct DataTypes.ValidatorInfo",
          "name": "",
          "type": "tuple"
        }
      ],
      "stateMutability": "view",
      "type": "function"
    },
    {
      "inputs": [],
      "name": "getValidatorInfos",
      "outputs": [
        {
          "components": [
            {
              "internalType": "address",
              "name": "valAddr",
              "type": "address"
            },
            {
              "internalType": "enum DataTypes.ValidatorStatus",
              "name": "status",
              "type": "uint8"
            },
            {
              "internalType": "address",
              "name": "signer",
              "type": "address"
            },
            {
              "internalType": "uint256",
              "name": "tokens",
              "type": "uint256"
            },
            {
              "internalType": "uint256",
              "name": "shares",
              "type": "uint256"
            },
            {
              "internalType": "uint256",
              "name": "minSelfDelegation",
              "type": "uint256"
            },
            {
              "internalType": "uint64",
              "name": "commissionRate",
              "type": "uint64"
            }
          ],
          "internalType": "struct DataTypes.ValidatorInfo[]",
          "name": "",
          "type": "tuple[]"
        }
      ],
      "stateMutability": "view",
      "type": "function"
    },
    {
      "inputs": [
        {
          "internalType": "address",
          "name": "_valAddr",
          "type": "address"
        }
      ],
      "name": "shouldBondValidator",
      "outputs": [
        {
          "internalType": "bool",
          "name": "",
          "type": "bool"
        }
      ],
      "stateMutability": "view",
      "type": "function"
    },
    {
      "inputs": [],
      "name": "staking",
      "outputs": [
        {
          "internalType": "contract Staking",
          "name": "",
          "type": "address"
        }
      ],
      "stateMutability": "view",
      "type": "function"
    }
  ],
  "bytecode": "0x60a060405234801561001057600080fd5b5060405161173238038061173283398101604081905261002f91610040565b6001600160a01b0316608052610070565b60006020828403121561005257600080fd5b81516001600160a01b038116811461006957600080fd5b9392505050565b6080516116466100ec6000396000818160bb01528181610199015281816102b00152818161035c015281816105bd015281816106d4015281816107c8015281816108c40152818161096d01528181610a2901528181610c0501528181610d1c01528181610db101528181610ecd0152610f7301526116466000f3fe608060405234801561001057600080fd5b50600436106100885760003560e01c80638dc2336d1161005b5780638dc2336d1461012a578063c6fc1ed614610140578063d87ffe9114610168578063e9fe6b0b1461017057600080fd5b8063313019bb1461008d5780634cf088d9146100b657806366ab5d28146100f55780638a11d7c91461010a575b600080fd5b6100a061009b3660046110cb565b610193565b6040516100ad91906110ef565b60405180910390f35b6100dd7f000000000000000000000000000000000000000000000000000000000000000081565b6040516001600160a01b0390911681526020016100ad565b6100fd6105b7565b6040516100ad9190611247565b61011d6101183660046110cb565b610794565b6040516100ad9190611289565b6101326108bf565b6040519081526020016100ad565b61015361014e3660046110cb565b610b5a565b604080519283526020830191909152016100ad565b6100fd610bff565b61018361017e3660046110cb565b610d89565b60405190151581526020016100ad565b606060007f00000000000000000000000000000000000000000000000000000000000000006001600160a01b0316631cfe4f0b6040518163ffffffff1660e01b815260040160206040518083038186803b1580156101f057600080fd5b505afa158015610204573d6000803e3d6000fd5b505050506040513d601f19601f82011682018060405250810190610228919061129d565b90506000816001600160401b03811115610244576102446112b6565b60405190808252806020026020018201604052801561027d57816020015b61026a611024565b8152602001906001900390816102625790505b5090506000805b838163ffffffff16101561047c576040516324aec90f60e21b815263ffffffff821660048201526000907f00000000000000000000000000000000000000000000000000000000000000006001600160a01b0316906392bb243c9060240160206040518083038186803b1580156102fa57600080fd5b505afa15801561030e573d6000803e3d6000fd5b505050506040513d601f19601f8201168201806040525081019061033291906112cc565b604051631dd9dfdf60e31b81526001600160a01b03808316600483015289811660248301529192507f00000000000000000000000000000000000000000000000000000000000000009091169063eecefef89060440160006040518083038186803b1580156103a057600080fd5b505afa1580156103b4573d6000803e3d6000fd5b505050506040513d6000823e601f3d908101601f191682016040526103dc9190810190611363565b848363ffffffff16815181106103f4576103f4611493565b6020026020010181905250838263ffffffff168151811061041757610417611493565b60200260200101516040015160001415806104565750838263ffffffff168151811061044557610445611493565b602002602001015160800151600014155b156104695782610465816114bf565b9350505b5080610474816114bf565b915050610284565b5060008163ffffffff166001600160401b0381111561049d5761049d6112b6565b6040519080825280602002602001820160405280156104d657816020015b6104c3611024565b8152602001906001900390816104bb5790505b5090506000805b858163ffffffff1610156105ab57848163ffffffff168151811061050357610503611493565b60200260200101516040015160001415806105425750848163ffffffff168151811061053157610531611493565b602002602001015160800151600014155b1561059957848163ffffffff168151811061055f5761055f611493565b6020026020010151838363ffffffff168151811061057f5761057f611493565b60200260200101819052508180610595906114bf565b9250505b806105a3816114bf565b9150506104dd565b50909695505050505050565b606060007f00000000000000000000000000000000000000000000000000000000000000006001600160a01b0316631cfe4f0b6040518163ffffffff1660e01b815260040160206040518083038186803b15801561061457600080fd5b505afa158015610628573d6000803e3d6000fd5b505050506040513d601f19601f8201168201806040525081019061064c919061129d565b90506000816001600160401b03811115610668576106686112b6565b6040519080825280602002602001820160405280156106a157816020015b61068e611063565b8152602001906001900390816106865790505b50905060005b828163ffffffff16101561078d576040516324aec90f60e21b815263ffffffff82166004820152610757907f00000000000000000000000000000000000000000000000000000000000000006001600160a01b0316906392bb243c906024015b60206040518083038186803b15801561071f57600080fd5b505afa158015610733573d6000803e3d6000fd5b505050506040513d601f19601f8201168201806040525081019061011891906112cc565b828263ffffffff168151811061076f5761076f611493565b60200260200101819052508080610785906114bf565b9150506106a7565b5092915050565b61079c611063565b604051631f4a58fb60e31b81526001600160a01b038381166004830152600091829182918291829182917f0000000000000000000000000000000000000000000000000000000000000000169063fa52c7d8906024016101406040518083038186803b15801561080b57600080fd5b505afa15801561081f573d6000803e3d6000fd5b505050506040513d601f19601f8201168201806040525081019061084391906114ff565b995050509750505095509550955095506040518060e00160405280896001600160a01b0316815260200187600381111561087f5761087f6111c4565b8152602001866001600160a01b03168152602001858152602001848152602001838152602001826001600160401b03168152509650505050505050919050565b6000807f00000000000000000000000000000000000000000000000000000000000000006001600160a01b03166389f9aab56040518163ffffffff1660e01b815260040160206040518083038186803b15801561091b57600080fd5b505afa15801561092f573d6000803e3d6000fd5b505050506040513d601f19601f82011682018060405250810190610953919061129d565b60405163eb505dd560e01b81529091506001600160a01b037f0000000000000000000000000000000000000000000000000000000000000000169063eb505dd5906109a3906003906004016115a1565b60206040518083038186803b1580156109bb57600080fd5b505afa1580156109cf573d6000803e3d6000fd5b505050506040513d601f19601f820116820180604052508101906109f3919061129d565b811015610a0257600091505090565b60001960005b8281101561078d5760405163acc62ccf60e01b8152600481018290526000907f00000000000000000000000000000000000000000000000000000000000000006001600160a01b03169063c8f9f98490829063acc62ccf9060240160206040518083038186803b158015610a7b57600080fd5b505afa158015610a8f573d6000803e3d6000fd5b505050506040513d601f19601f82011682018060405250810190610ab391906112cc565b6040516001600160e01b031960e084901b1681526001600160a01b03909116600482015260240160206040518083038186803b158015610af257600080fd5b505afa158015610b06573d6000803e3d6000fd5b505050506040513d601f19601f82011682018060405250810190610b2a919061129d565b905082811015610b475791508180610b4757600094505050505090565b5080610b52816115bb565b915050610a08565b6000806000610b6884610193565b905060008060005b83518163ffffffff161015610bf357838163ffffffff1681518110610b9757610b97611493565b60200260200101516020015183610bae91906115d6565b9250838163ffffffff1681518110610bc857610bc8611493565b60200260200101516080015182610bdf91906115d6565b915080610beb816114bf565b915050610b70565b50909590945092505050565b606060007f00000000000000000000000000000000000000000000000000000000000000006001600160a01b03166389f9aab56040518163ffffffff1660e01b815260040160206040518083038186803b158015610c5c57600080fd5b505afa158015610c70573d6000803e3d6000fd5b505050506040513d601f19601f82011682018060405250810190610c94919061129d565b90506000816001600160401b03811115610cb057610cb06112b6565b604051908082528060200260200182016040528015610ce957816020015b610cd6611063565b815260200190600190039081610cce5790505b50905060005b828163ffffffff16101561078d5760405163acc62ccf60e01b815263ffffffff82166004820152610d53907f00000000000000000000000000000000000000000000000000000000000000006001600160a01b03169063acc62ccf90602401610707565b828263ffffffff1681518110610d6b57610d6b611493565b60200260200101819052508080610d81906114bf565b915050610cef565b604051631f4a58fb60e31b81526001600160a01b0382811660048301526000918291829182917f0000000000000000000000000000000000000000000000000000000000000000169063fa52c7d8906024016101406040518083038186803b158015610df457600080fd5b505afa158015610e08573d6000803e3d6000fd5b505050506040513d601f19601f82011682018060405250810190610e2c91906114ff565b5050975050505050935050925060006003811115610e4c57610e4c6111c4565b836003811115610e5e57610e5e6111c4565b1480610e7b57506003836003811115610e7957610e796111c4565b145b15610e8b57506000949350505050565b806001600160401b0316431015610ea757506000949350505050565b6040516347abfdbf60e01b81526001600160a01b038681166004830152600160248301527f000000000000000000000000000000000000000000000000000000000000000016906347abfdbf9060440160206040518083038186803b158015610f0f57600080fd5b505afa158015610f23573d6000803e3d6000fd5b505050506040513d601f19601f82011682018060405250810190610f4791906115ee565b610f5657506000949350505050565b610f5e6108bf565b8211610f6f57506000949350505050565b60007f00000000000000000000000000000000000000000000000000000000000000006001600160a01b03166383cfb3186040518163ffffffff1660e01b815260040160206040518083038186803b158015610fca57600080fd5b505afa158015610fde573d6000803e3d6000fd5b505050506040513d601f19601f82011682018060405250810190611002919061129d565b9050804310156110185750600095945050505050565b50600195945050505050565b6040518060c0016040528060006001600160a01b0316815260200160008152602001600081526020016060815260200160008152602001600081525090565b6040805160e0810190915260008082526020820190815260200160006001600160a01b0316815260200160008152602001600081526020016000815260200160006001600160401b031681525090565b6001600160a01b03811681146110c857600080fd5b50565b6000602082840312156110dd57600080fd5b81356110e8816110b3565b9392505050565b60006020808301818452808551808352604092508286019150828160051b8701018488016000805b848110156111b557898403603f19018652825180516001600160a01b031685528881015189860152878101518886015260608082015160c0918701829052805191870182905260e0870191908b0190855b8181101561118d578251805185528d01518d850152928b0192918c0191600101611168565b5050506080828101519087015260a09182015191909501529487019491870191600101611117565b50919998505050505050505050565b634e487b7160e01b600052602160045260246000fd5b80516001600160a01b0390811683526020820151600481106111fe576111fe6111c4565b8060208501525080604083015116604084015250606081015160608301526080810151608083015260a081015160a08301526001600160401b0360c08201511660c08301525050565b6020808252825182820181905260009190848201906040850190845b818110156105ab576112768385516111da565b9284019260e09290920191600101611263565b60e0810161129782846111da565b92915050565b6000602082840312156112af57600080fd5b5051919050565b634e487b7160e01b600052604160045260246000fd5b6000602082840312156112de57600080fd5b81516110e8816110b3565b60405160c081016001600160401b038111828210171561130b5761130b6112b6565b60405290565b604080519081016001600160401b038111828210171561130b5761130b6112b6565b604051601f8201601f191681016001600160401b038111828210171561135b5761135b6112b6565b604052919050565b6000602080838503121561137657600080fd5b82516001600160401b038082111561138d57600080fd5b9084019060c082870312156113a157600080fd5b6113a96112e9565b82516113b4816110b3565b81528284015184820152604080840151818301526060840151838111156113da57600080fd5b8401601f810189136113eb57600080fd5b8051848111156113fd576113fd6112b6565b61140b878260051b01611333565b818152878101955060069190911b82018701908a82111561142b57600080fd5b918701915b8183101561146b5783838c0312156114485760008081fd5b611450611311565b83518152888401518982015286529487019491830191611430565b60608501525050506080838101519082015260a0928301519281019290925250949350505050565b634e487b7160e01b600052603260045260246000fd5b634e487b7160e01b600052601160045260246000fd5b600063ffffffff808316818114156114d9576114d96114a9565b6001019392505050565b80516001600160401b03811681146114fa57600080fd5b919050565b6000806000806000806000806000806101408b8d03121561151f57600080fd5b8a516004811061152e57600080fd5b60208c0151909a5061153f816110b3565b8099505060408b0151975060608b0151965060808b0151955060a08b0151945060c08b0151935061157260e08c016114e3565b92506115816101008c016114e3565b91506115906101208c016114e3565b90509295989b9194979a5092959850565b60208101600983106115b5576115b56111c4565b91905290565b60006000198214156115cf576115cf6114a9565b5060010190565b600082198211156115e9576115e96114a9565b500190565b60006020828403121561160057600080fd5b815180151581146110e857600080fdfea2646970667358221220615992e06b294db72a6252ca7add104e291c2652ac5964a768fde9cca5b0fd0b64736f6c63430008090033",
  "linkReferences": {},
  "deployedLinkReferences": {}
}