{
  "_format": "hh-sol-artifact-1",
  "contractName": "TransferAgent",
  "sourceName": "contracts/cBridge/proxy/TransferAgent.sol",
  "abi": [
    {
      "anonymous": false,
      "inputs": [
        {
          "indexed": false,
          "internalType": "enum BridgeTransferLib.BridgeSendType",
          "name": "bridgeSendType",
          "type": "uint8"
        },
        {
          "indexed": false,
          "internalType": "address",
          "name": "bridgeAddr",
          "type": "address"
        }
      ],
      "name": "BridgeUpdated",
      "type": "event"
    },
    {
      "anonymous": false,
      "inputs": [
        {
          "indexed": true,
          "internalType": "address",
          "name": "previousOwner",
          "type": "address"
        },
        {
          "indexed": true,
          "internalType": "address",
          "name": "newOwner",
          "type": "address"
        }
      ],
      "name": "OwnershipTransferred",
      "type": "event"
    },
    {
      "anonymous": false,
      "inputs": [
        {
          "indexed": false,
          "internalType": "enum BridgeTransferLib.BridgeSendType",
          "name": "bridgeSendType",
          "type": "uint8"
        },
        {
          "indexed": false,
          "internalType": "bytes32",
          "name": "transferId",
          "type": "bytes32"
        },
        {
          "indexed": false,
          "internalType": "address",
          "name": "sender",
          "type": "address"
        },
        {
          "indexed": false,
          "internalType": "bytes",
          "name": "receiver",
          "type": "bytes"
        },
        {
          "components": [
            {
              "internalType": "uint8",
              "name": "Type",
              "type": "uint8"
            },
            {
              "internalType": "bytes",
              "name": "Value",
              "type": "bytes"
            }
          ],
          "indexed": false,
          "internalType": "struct TransferAgent.Extension[]",
          "name": "extensions",
          "type": "tuple[]"
        }
      ],
      "name": "Supplement",
      "type": "event"
    },
    {
      "inputs": [
        {
          "internalType": "enum BridgeTransferLib.BridgeSendType",
          "name": "",
          "type": "uint8"
        }
      ],
      "name": "bridges",
      "outputs": [
        {
          "internalType": "address",
          "name": "",
          "type": "address"
        }
      ],
      "stateMutability": "view",
      "type": "function"
    },
    {
      "inputs": [],
      "name": "owner",
      "outputs": [
        {
          "internalType": "address",
          "name": "",
          "type": "address"
        }
      ],
      "stateMutability": "view",
      "type": "function"
    },
    {
      "inputs": [
        {
          "internalType": "enum BridgeTransferLib.BridgeSendType",
          "name": "_bridgeSendType",
          "type": "uint8"
        },
        {
          "internalType": "address",
          "name": "_addr",
          "type": "address"
        }
      ],
      "name": "setBridgeAddress",
      "outputs": [],
      "stateMutability": "nonpayable",
      "type": "function"
    },
    {
      "inputs": [
        {
          "internalType": "bytes",
          "name": "_receiver",
          "type": "bytes"
        },
        {
          "internalType": "address",
          "name": "_token",
          "type": "address"
        },
        {
          "internalType": "uint256",
          "name": "_amount",
          "type": "uint256"
        },
        {
          "internalType": "uint64",
          "name": "_dstChainId",
          "type": "uint64"
        },
        {
          "internalType": "uint64",
          "name": "_nonce",
          "type": "uint64"
        },
        {
          "internalType": "uint32",
          "name": "_maxSlippage",
          "type": "uint32"
        },
        {
          "internalType": "enum BridgeTransferLib.BridgeSendType",
          "name": "_bridgeSendType",
          "type": "uint8"
        },
        {
          "components": [
            {
              "internalType": "uint8",
              "name": "Type",
              "type": "uint8"
            },
            {
              "internalType": "bytes",
              "name": "Value",
              "type": "bytes"
            }
          ],
          "internalType": "struct TransferAgent.Extension[]",
          "name": "_extensions",
          "type": "tuple[]"
        }
      ],
      "name": "transfer",
      "outputs": [
        {
          "internalType": "bytes32",
          "name": "",
          "type": "bytes32"
        }
      ],
      "stateMutability": "nonpayable",
      "type": "function"
    },
    {
      "inputs": [
        {
          "internalType": "bytes",
          "name": "_receiver",
          "type": "bytes"
        },
        {
          "internalType": "uint256",
          "name": "_amount",
          "type": "uint256"
        },
        {
          "internalType": "uint64",
          "name": "_dstChainId",
          "type": "uint64"
        },
        {
          "internalType": "uint64",
          "name": "_nonce",
          "type": "uint64"
        },
        {
          "internalType": "uint32",
          "name": "_maxSlippage",
          "type": "uint32"
        },
        {
          "internalType": "enum BridgeTransferLib.BridgeSendType",
          "name": "_bridgeSendType",
          "type": "uint8"
        },
        {
          "components": [
            {
              "internalType": "uint8",
              "name": "Type",
              "type": "uint8"
            },
            {
              "internalType": "bytes",
              "name": "Value",
              "type": "bytes"
            }
          ],
          "internalType": "struct TransferAgent.Extension[]",
          "name": "_extensions",
          "type": "tuple[]"
        }
      ],
      "name": "transferNative",
      "outputs": [
        {
          "internalType": "bytes32",
          "name": "",
          "type": "bytes32"
        }
      ],
      "stateMutability": "payable",
      "type": "function"
    },
    {
      "inputs": [
        {
          "internalType": "address",
          "name": "newOwner",
          "type": "address"
        }
      ],
      "name": "transferOwnership",
      "outputs": [],
      "stateMutability": "nonpayable",
      "type": "function"
    }
  ],
  "bytecode": "0x608060405234801561001057600080fd5b50600160005561001f33610024565b610076565b600180546001600160a01b038381166001600160a01b0319831681179093556040519116919082907f8be0079c531659141344cd1fd0a4f28419497f9722a3daafe3b4186f6b6457e090600090a35050565b6119ee806100856000396000f3fe6080604052600436106100555760003560e01c806339b0070c1461005a57806365d67c331461008d5780636701d514146100db5780638da5cb5b146100fd578063c5d8ac7e1461011b578063f2fde38b1461012e575b600080fd5b34801561006657600080fd5b5061007a61007536600461142e565b61014e565b6040519081526020015b60405180910390f35b34801561009957600080fd5b506100c36100a8366004611503565b6002602052600090815260409020546001600160a01b031681565b6040516001600160a01b039091168152602001610084565b3480156100e757600080fd5b506100fb6100f636600461151e565b6102b5565b005b34801561010957600080fd5b506001546001600160a01b03166100c3565b61007a610129366004611555565b6103fd565b34801561013a57600080fd5b506100fb610149366004611616565b610589565b6000600260005414156101a85760405162461bcd60e51b815260206004820152601f60248201527f5265656e7472616e637947756172643a207265656e7472616e742063616c6c0060448201526064015b60405180910390fd5b60026000818155908190818760068111156101c5576101c5611633565b60068111156101d6576101d6611633565b81526020810191909152604001600020546001600160a01b03169050806102355760405162461bcd60e51b8152602060048201526013602482015272756e6b6e6f776e20627269646765207479706560681b604482015260640161019f565b61024a6001600160a01b038c1633308d610663565b61025b60008c8c8c8c8c8c886106d4565b9150507f3f2b4c063a18045940932b9fba423a72e3b8d36e63ca462720d880f7b64504ca8582338f8f89896040516102999796959493929190611694565b60405180910390a160016000559b9a5050505050505050505050565b336102c86001546001600160a01b031690565b6001600160a01b03161461031e5760405162461bcd60e51b815260206004820181905260248201527f4f776e61626c653a2063616c6c6572206973206e6f7420746865206f776e6572604482015260640161019f565b6001600160a01b0381166103665760405162461bcd60e51b815260206004820152600f60248201526e696e76616c6964206164647265737360881b604482015260640161019f565b806002600084600681111561037d5761037d611633565b600681111561038e5761038e611633565b815260200190815260200160002060006101000a8154816001600160a01b0302191690836001600160a01b031602179055507fe85507dd8a6159a69bf9f4aa5ae1283824ec9948b7d4a03d5cb457070f312dfc82826040516103f192919061179f565b60405180910390a15050565b6000600260005414156104525760405162461bcd60e51b815260206004820152601f60248201527f5265656e7472616e637947756172643a207265656e7472616e742063616c6c00604482015260640161019f565b600260008181559081908187600681111561046f5761046f611633565b600681111561048057610480611633565b81526020810191909152604001600020546001600160a01b03169050806104df5760405162461bcd60e51b8152602060048201526013602482015272756e6b6e6f776e20627269646765207479706560681b604482015260640161019f565b8934146105205760405162461bcd60e51b815260206004820152600f60248201526e0c2dadeeadce840dad2e6dac2e8c6d608b1b604482015260640161019f565b61053060008b8b8b8b8b87610b8e565b9150507f3f2b4c063a18045940932b9fba423a72e3b8d36e63ca462720d880f7b64504ca8582338e8e898960405161056e9796959493929190611694565b60405180910390a160016000559a9950505050505050505050565b3361059c6001546001600160a01b031690565b6001600160a01b0316146105f25760405162461bcd60e51b815260206004820181905260248201527f4f776e61626c653a2063616c6c6572206973206e6f7420746865206f776e6572604482015260640161019f565b6001600160a01b0381166106575760405162461bcd60e51b815260206004820152602660248201527f4f776e61626c653a206e6577206f776e657220697320746865207a65726f206160448201526564647265737360d01b606482015260840161019f565b61066081610eba565b50565b6040516001600160a01b03808516602483015283166044820152606481018290526106ce9085906323b872dd60e01b906084015b60408051601f198184030181529190526020810180516001600160e01b03166001600160e01b031990931692909217909152610f0c565b50505050565b6000806106eb6001600160a01b038a16848a610fe3565b60018460068111156106ff576106ff611633565b14156107cd5760405163a5977fbb60e01b81526001600160a01b038b811660048301528a81166024830152604482018a905267ffffffffffffffff808a1660648401528816608483015263ffffffff871660a483015284169063a5977fbb9060c401600060405180830381600087803b15801561077b57600080fd5b505af115801561078f573d6000803e3d6000fd5b50505050308a8a8a8a8a466040516020016107b097969594939291906117c5565b604051602081830303815290604052805190602001209050610b81565b60028460068111156107e1576107e1611633565b141561086a57826001600160a01b031663234636248a8a8a8e8b6040518663ffffffff1660e01b815260040161081b959493929190611824565b600060405180830381600087803b15801561083557600080fd5b505af1158015610849573d6000803e3d6000fd5b50505050308989898d8a466040516020016107b09796959493929190611860565b600384600681111561087e5761087e611633565b141561098d57604051636f3c863f60e11b81526001600160a01b038a81166004830152602482018a90528b8116604483015267ffffffffffffffff8816606483015284169063de790c7e90608401600060405180830381600087803b1580156108e657600080fd5b505af11580156108fa573d6000803e3d6000fd5b50506040516001600160601b031930606090811b821660208401528d811b82166034840152604883018d90528e901b1660688201526001600160c01b031960c08a811b8216607c84015246901b166084820152608c0191506109599050565b60408051601f19818403018152919052805160209091012090506109886001600160a01b038a168460006110a4565b610b81565b60048460068111156109a1576109a1611633565b1415610a3457826001600160a01b031663234636248a8a8a8e8b6040518663ffffffff1660e01b81526004016109db959493929190611824565b602060405180830381600087803b1580156109f557600080fd5b505af1158015610a09573d6000803e3d6000fd5b505050506040513d601f19601f82011682018060405250810190610a2d91906118bf565b9050610b81565b6005846006811115610a4857610a48611633565b1415610aeb57826001600160a01b031663a00293018a8a8a8e8b6040518663ffffffff1660e01b8152600401610a82959493929190611824565b602060405180830381600087803b158015610a9c57600080fd5b505af1158015610ab0573d6000803e3d6000fd5b505050506040513d601f19601f82011682018060405250810190610ad491906118bf565b90506109886001600160a01b038a168460006110a4565b6006846006811115610aff57610aff611633565b1415610b3957826001600160a01b0316639e422c338a8a8a8e8b6040518663ffffffff1660e01b8152600401610a82959493929190611824565b60405162461bcd60e51b815260206004820152601e60248201527f6272696467652073656e642074797065206e6f7420737570706f727465640000604482015260640161019f565b9998505050505050505050565b60006001836006811115610ba457610ba4611633565b1480610bc157506002836006811115610bbf57610bbf611633565b145b80610bdd57506004836006811115610bdb57610bdb611633565b145b610c295760405162461bcd60e51b815260206004820152601d60248201527f4c69623a20696e76616c6964206272696467652073656e642074797065000000604482015260640161019f565b6000826001600160a01b031663457bfa2f6040518163ffffffff1660e01b815260040160206040518083038186803b158015610c6457600080fd5b505afa158015610c78573d6000803e3d6000fd5b505050506040513d601f19601f82011682018060405250810190610c9c91906118d8565b905060006001856006811115610cb457610cb4611633565b1415610d5f57604051633f2e5fc360e01b81526001600160a01b038b81166004830152602482018b905267ffffffffffffffff808b1660448401528916606483015263ffffffff88166084830152851690633f2e5fc390349060a4016000604051808303818588803b158015610d2957600080fd5b505af1158015610d3d573d6000803e3d6000fd5b5050505050308a838b8b8b466040516020016107b097969594939291906117c5565b6002856006811115610d7357610d73611633565b1415610e115760405162a95fd760e01b8152600481018a905267ffffffffffffffff808a1660248301526001600160a01b038c81166044840152908916606483015285169062a95fd79034906084016000604051808303818588803b158015610ddb57600080fd5b505af1158015610def573d6000803e3d6000fd5b505050505030828a8a8d8b466040516020016107b09796959493929190611860565b60405162a95fd760e01b8152600481018a905267ffffffffffffffff808a1660248301526001600160a01b038c81166044840152908916606483015285169062a95fd79034906084016020604051808303818588803b158015610e7357600080fd5b505af1158015610e87573d6000803e3d6000fd5b50505050506040513d601f19601f82011682018060405250810190610eac91906118bf565b9a9950505050505050505050565b600180546001600160a01b038381166001600160a01b0319831681179093556040519116919082907f8be0079c531659141344cd1fd0a4f28419497f9722a3daafe3b4186f6b6457e090600090a35050565b6000610f61826040518060400160405280602081526020017f5361666545524332303a206c6f772d6c6576656c2063616c6c206661696c6564815250856001600160a01b03166111c89092919063ffffffff16565b805190915015610fde5780806020019051810190610f7f91906118f5565b610fde5760405162461bcd60e51b815260206004820152602a60248201527f5361666545524332303a204552433230206f7065726174696f6e20646964206e6044820152691bdd081cdd58d8d9595960b21b606482015260840161019f565b505050565b604051636eb1769f60e11b81523060048201526001600160a01b038381166024830152600091839186169063dd62ed3e9060440160206040518083038186803b15801561102f57600080fd5b505afa158015611043573d6000803e3d6000fd5b505050506040513d601f19601f8201168201806040525081019061106791906118bf565b6110719190611917565b6040516001600160a01b0385166024820152604481018290529091506106ce90859063095ea7b360e01b90606401610697565b80158061112d5750604051636eb1769f60e11b81523060048201526001600160a01b03838116602483015284169063dd62ed3e9060440160206040518083038186803b1580156110f357600080fd5b505afa158015611107573d6000803e3d6000fd5b505050506040513d601f19601f8201168201806040525081019061112b91906118bf565b155b6111985760405162461bcd60e51b815260206004820152603660248201527f5361666545524332303a20617070726f76652066726f6d206e6f6e2d7a65726f60448201527520746f206e6f6e2d7a65726f20616c6c6f77616e636560501b606482015260840161019f565b6040516001600160a01b038316602482015260448101829052610fde90849063095ea7b360e01b90606401610697565b60606111d784846000856111e1565b90505b9392505050565b6060824710156112425760405162461bcd60e51b815260206004820152602660248201527f416464726573733a20696e73756666696369656e742062616c616e636520666f6044820152651c8818d85b1b60d21b606482015260840161019f565b6001600160a01b0385163b6112995760405162461bcd60e51b815260206004820152601d60248201527f416464726573733a2063616c6c20746f206e6f6e2d636f6e7472616374000000604482015260640161019f565b600080866001600160a01b031685876040516112b59190611969565b60006040518083038185875af1925050503d80600081146112f2576040519150601f19603f3d011682016040523d82523d6000602084013e6112f7565b606091505b5091509150611307828286611312565b979650505050505050565b606083156113215750816111da565b8251156113315782518084602001fd5b8160405162461bcd60e51b815260040161019f9190611985565b60008083601f84011261135d57600080fd5b50813567ffffffffffffffff81111561137557600080fd5b60208301915083602082850101111561138d57600080fd5b9250929050565b6001600160a01b038116811461066057600080fd5b803567ffffffffffffffff811681146113c157600080fd5b919050565b803563ffffffff811681146113c157600080fd5b8035600781106113c157600080fd5b60008083601f8401126113fb57600080fd5b50813567ffffffffffffffff81111561141357600080fd5b6020830191508360208260051b850101111561138d57600080fd5b6000806000806000806000806000806101008b8d03121561144e57600080fd5b8a3567ffffffffffffffff8082111561146657600080fd5b6114728e838f0161134b565b909c509a5060208d0135915061148782611394565b81995060408d0135985061149d60608e016113a9565b97506114ab60808e016113a9565b96506114b960a08e016113c6565b95506114c760c08e016113da565b945060e08d01359150808211156114dd57600080fd5b506114ea8d828e016113e9565b915080935050809150509295989b9194979a5092959850565b60006020828403121561151557600080fd5b6111da826113da565b6000806040838503121561153157600080fd5b61153a836113da565b9150602083013561154a81611394565b809150509250929050565b600080600080600080600080600060e08a8c03121561157357600080fd5b893567ffffffffffffffff8082111561158b57600080fd5b6115978d838e0161134b565b909b50995060208c013598508991506115b260408d016113a9565b97506115c060608d016113a9565b96506115ce60808d016113c6565b95506115dc60a08d016113da565b945060c08c01359150808211156115f257600080fd5b506115ff8c828d016113e9565b915080935050809150509295985092959850929598565b60006020828403121561162857600080fd5b81356111da81611394565b634e487b7160e01b600052602160045260246000fd5b6007811061166757634e487b7160e01b600052602160045260246000fd5b9052565b81835281816020850137506000828201602090810191909152601f909101601f19169091010190565b61169e8189611649565b600060208881840152604060018060a01b0389168185015260a060608501526116cb60a08501888a61166b565b8481036080860152858152828101600587901b820184018860005b8981101561178b57848303601f190184528135368c9003603e1901811261170c57600080fd5b8b01803560ff811680821461172057600080fd5b8552508088013536829003601e1901811261173a57600080fd5b8101803567ffffffffffffffff81111561175357600080fd5b80360383131561176257600080fd5b888a870152611776898701828c850161166b565b968a01969550505091870191506001016116e6565b50909e9d5050505050505050505050505050565b604081016117ad8285611649565b6001600160a01b039290921660209190910152919050565b6001600160601b0319606098891b8116825296881b871660148201529490961b9094166028840152603c8301919091526001600160c01b031960c091821b8116605c84015292811b831660648301529290921b16606c82015260740190565b6001600160a01b039586168152602081019490945267ffffffffffffffff92831660408501529316606083015291909116608082015260a00190565b6001600160601b0319606098891b8116825296881b8716601482015260288101959095526001600160c01b031960c094851b811660488701529290961b909416605084015292811b831660648301529290921b16606c82015260740190565b6000602082840312156118d157600080fd5b5051919050565b6000602082840312156118ea57600080fd5b81516111da81611394565b60006020828403121561190757600080fd5b815180151581146111da57600080fd5b6000821982111561193857634e487b7160e01b600052601160045260246000fd5b500190565b60005b83811015611958578181015183820152602001611940565b838111156106ce5750506000910152565b6000825161197b81846020870161193d565b9190910192915050565b60208152600082518060208401526119a481604085016020870161193d565b601f01601f1916919091016040019291505056fea26469706673582212206f3739fb05bfb5bfd20ed439a7f21400c1367e28db98d27455c079b7a440bd6c64736f6c63430008090033",
  "linkReferences": {},
  "deployedLinkReferences": {}
}