{
  "_format": "hh-sol-artifact-1",
  "contractName": "Pool",
  "sourceName": "contracts/cBridge/liquidity-bridge/Pool.sol",
  "abi": [
    {
      "anonymous": false,
      "inputs": [
        {
          "indexed": false,
          "internalType": "uint256",
          "name": "period",
          "type": "uint256"
        }
      ],
      "name": "DelayPeriodUpdated",
      "type": "event"
    },
    {
      "anonymous": false,
      "inputs": [
        {
          "indexed": false,
          "internalType": "address",
          "name": "token",
          "type": "address"
        },
        {
          "indexed": false,
          "internalType": "uint256",
          "name": "threshold",
          "type": "uint256"
        }
      ],
      "name": "DelayThresholdUpdated",
      "type": "event"
    },
    {
      "anonymous": false,
      "inputs": [
        {
          "indexed": false,
          "internalType": "bytes32",
          "name": "id",
          "type": "bytes32"
        }
      ],
      "name": "DelayedTransferAdded",
      "type": "event"
    },
    {
      "anonymous": false,
      "inputs": [
        {
          "indexed": false,
          "internalType": "bytes32",
          "name": "id",
          "type": "bytes32"
        },
        {
          "indexed": false,
          "internalType": "address",
          "name": "receiver",
          "type": "address"
        },
        {
          "indexed": false,
          "internalType": "address",
          "name": "token",
          "type": "address"
        },
        {
          "indexed": false,
          "internalType": "uint256",
          "name": "amount",
          "type": "uint256"
        }
      ],
      "name": "DelayedTransferExecuted",
      "type": "event"
    },
    {
      "anonymous": false,
      "inputs": [
        {
          "indexed": false,
          "internalType": "uint256",
          "name": "length",
          "type": "uint256"
        }
      ],
      "name": "EpochLengthUpdated",
      "type": "event"
    },
    {
      "anonymous": false,
      "inputs": [
        {
          "indexed": false,
          "internalType": "address",
          "name": "token",
          "type": "address"
        },
        {
          "indexed": false,
          "internalType": "uint256",
          "name": "cap",
          "type": "uint256"
        }
      ],
      "name": "EpochVolumeUpdated",
      "type": "event"
    },
    {
      "anonymous": false,
      "inputs": [
        {
          "indexed": false,
          "internalType": "address",
          "name": "account",
          "type": "address"
        }
      ],
      "name": "GovernorAdded",
      "type": "event"
    },
    {
      "anonymous": false,
      "inputs": [
        {
          "indexed": false,
          "internalType": "address",
          "name": "account",
          "type": "address"
        }
      ],
      "name": "GovernorRemoved",
      "type": "event"
    },
    {
      "anonymous": false,
      "inputs": [
        {
          "indexed": false,
          "internalType": "uint64",
          "name": "seqnum",
          "type": "uint64"
        },
        {
          "indexed": false,
          "internalType": "address",
          "name": "provider",
          "type": "address"
        },
        {
          "indexed": false,
          "internalType": "address",
          "name": "token",
          "type": "address"
        },
        {
          "indexed": false,
          "internalType": "uint256",
          "name": "amount",
          "type": "uint256"
        }
      ],
      "name": "LiquidityAdded",
      "type": "event"
    },
    {
      "anonymous": false,
      "inputs": [
        {
          "indexed": false,
          "internalType": "address",
          "name": "token",
          "type": "address"
        },
        {
          "indexed": false,
          "internalType": "uint256",
          "name": "amount",
          "type": "uint256"
        }
      ],
      "name": "MinAddUpdated",
      "type": "event"
    },
    {
      "anonymous": false,
      "inputs": [
        {
          "indexed": true,
          "internalType": "address",
          "name": "previousOwner",
          "type": "address"
        },
        {
          "indexed": true,
          "internalType": "address",
          "name": "newOwner",
          "type": "address"
        }
      ],
      "name": "OwnershipTransferred",
      "type": "event"
    },
    {
      "anonymous": false,
      "inputs": [
        {
          "indexed": false,
          "internalType": "address",
          "name": "account",
          "type": "address"
        }
      ],
      "name": "Paused",
      "type": "event"
    },
    {
      "anonymous": false,
      "inputs": [
        {
          "indexed": false,
          "internalType": "address",
          "name": "account",
          "type": "address"
        }
      ],
      "name": "PauserAdded",
      "type": "event"
    },
    {
      "anonymous": false,
      "inputs": [
        {
          "indexed": false,
          "internalType": "address",
          "name": "account",
          "type": "address"
        }
      ],
      "name": "PauserRemoved",
      "type": "event"
    },
    {
      "anonymous": false,
      "inputs": [
        {
          "indexed": false,
          "internalType": "uint256",
          "name": "resetTime",
          "type": "uint256"
        }
      ],
      "name": "ResetNotification",
      "type": "event"
    },
    {
      "anonymous": false,
      "inputs": [
        {
          "indexed": false,
          "internalType": "address[]",
          "name": "_signers",
          "type": "address[]"
        },
        {
          "indexed": false,
          "internalType": "uint256[]",
          "name": "_powers",
          "type": "uint256[]"
        }
      ],
      "name": "SignersUpdated",
      "type": "event"
    },
    {
      "anonymous": false,
      "inputs": [
        {
          "indexed": false,
          "internalType": "address",
          "name": "account",
          "type": "address"
        }
      ],
      "name": "Unpaused",
      "type": "event"
    },
    {
      "anonymous": false,
      "inputs": [
        {
          "indexed": false,
          "internalType": "bytes32",
          "name": "withdrawId",
          "type": "bytes32"
        },
        {
          "indexed": false,
          "internalType": "uint64",
          "name": "seqnum",
          "type": "uint64"
        },
        {
          "indexed": false,
          "internalType": "address",
          "name": "receiver",
          "type": "address"
        },
        {
          "indexed": false,
          "internalType": "address",
          "name": "token",
          "type": "address"
        },
        {
          "indexed": false,
          "internalType": "uint256",
          "name": "amount",
          "type": "uint256"
        },
        {
          "indexed": false,
          "internalType": "bytes32",
          "name": "refid",
          "type": "bytes32"
        }
      ],
      "name": "WithdrawDone",
      "type": "event"
    },
    {
      "inputs": [
        {
          "internalType": "address",
          "name": "_account",
          "type": "address"
        }
      ],
      "name": "addGovernor",
      "outputs": [],
      "stateMutability": "nonpayable",
      "type": "function"
    },
    {
      "inputs": [
        {
          "internalType": "address",
          "name": "_token",
          "type": "address"
        },
        {
          "internalType": "uint256",
          "name": "_amount",
          "type": "uint256"
        }
      ],
      "name": "addLiquidity",
      "outputs": [],
      "stateMutability": "nonpayable",
      "type": "function"
    },
    {
      "inputs": [
        {
          "internalType": "uint256",
          "name": "_amount",
          "type": "uint256"
        }
      ],
      "name": "addNativeLiquidity",
      "outputs": [],
      "stateMutability": "payable",
      "type": "function"
    },
    {
      "inputs": [
        {
          "internalType": "address",
          "name": "account",
          "type": "address"
        }
      ],
      "name": "addPauser",
      "outputs": [],
      "stateMutability": "nonpayable",
      "type": "function"
    },
    {
      "inputs": [],
      "name": "addseq",
      "outputs": [
        {
          "internalType": "uint64",
          "name": "",
          "type": "uint64"
        }
      ],
      "stateMutability": "view",
      "type": "function"
    },
    {
      "inputs": [],
      "name": "delayPeriod",
      "outputs": [
        {
          "internalType": "uint256",
          "name": "",
          "type": "uint256"
        }
      ],
      "stateMutability": "view",
      "type": "function"
    },
    {
      "inputs": [
        {
          "internalType": "address",
          "name": "",
          "type": "address"
        }
      ],
      "name": "delayThresholds",
      "outputs": [
        {
          "internalType": "uint256",
          "name": "",
          "type": "uint256"
        }
      ],
      "stateMutability": "view",
      "type": "function"
    },
    {
      "inputs": [
        {
          "internalType": "bytes32",
          "name": "",
          "type": "bytes32"
        }
      ],
      "name": "delayedTransfers",
      "outputs": [
        {
          "internalType": "address",
          "name": "receiver",
          "type": "address"
        },
        {
          "internalType": "address",
          "name": "token",
          "type": "address"
        },
        {
          "internalType": "uint256",
          "name": "amount",
          "type": "uint256"
        },
        {
          "internalType": "uint256",
          "name": "timestamp",
          "type": "uint256"
        }
      ],
      "stateMutability": "view",
      "type": "function"
    },
    {
      "inputs": [],
      "name": "epochLength",
      "outputs": [
        {
          "internalType": "uint256",
          "name": "",
          "type": "uint256"
        }
      ],
      "stateMutability": "view",
      "type": "function"
    },
    {
      "inputs": [
        {
          "internalType": "address",
          "name": "",
          "type": "address"
        }
      ],
      "name": "epochVolumeCaps",
      "outputs": [
        {
          "internalType": "uint256",
          "name": "",
          "type": "uint256"
        }
      ],
      "stateMutability": "view",
      "type": "function"
    },
    {
      "inputs": [
        {
          "internalType": "address",
          "name": "",
          "type": "address"
        }
      ],
      "name": "epochVolumes",
      "outputs": [
        {
          "internalType": "uint256",
          "name": "",
          "type": "uint256"
        }
      ],
      "stateMutability": "view",
      "type": "function"
    },
    {
      "inputs": [
        {
          "internalType": "bytes32",
          "name": "id",
          "type": "bytes32"
        }
      ],
      "name": "executeDelayedTransfer",
      "outputs": [],
      "stateMutability": "nonpayable",
      "type": "function"
    },
    {
      "inputs": [
        {
          "internalType": "address",
          "name": "",
          "type": "address"
        }
      ],
      "name": "governors",
      "outputs": [
        {
          "internalType": "bool",
          "name": "",
          "type": "bool"
        }
      ],
      "stateMutability": "view",
      "type": "function"
    },
    {
      "inputs": [
        {
          "internalType": "uint256",
          "name": "period",
          "type": "uint256"
        }
      ],
      "name": "increaseNoticePeriod",
      "outputs": [],
      "stateMutability": "nonpayable",
      "type": "function"
    },
    {
      "inputs": [
        {
          "internalType": "address",
          "name": "_account",
          "type": "address"
        }
      ],
      "name": "isGovernor",
      "outputs": [
        {
          "internalType": "bool",
          "name": "",
          "type": "bool"
        }
      ],
      "stateMutability": "view",
      "type": "function"
    },
    {
      "inputs": [
        {
          "internalType": "address",
          "name": "account",
          "type": "address"
        }
      ],
      "name": "isPauser",
      "outputs": [
        {
          "internalType": "bool",
          "name": "",
          "type": "bool"
        }
      ],
      "stateMutability": "view",
      "type": "function"
    },
    {
      "inputs": [
        {
          "internalType": "address",
          "name": "",
          "type": "address"
        }
      ],
      "name": "lastOpTimestamps",
      "outputs": [
        {
          "internalType": "uint256",
          "name": "",
          "type": "uint256"
        }
      ],
      "stateMutability": "view",
      "type": "function"
    },
    {
      "inputs": [
        {
          "internalType": "address",
          "name": "",
          "type": "address"
        }
      ],
      "name": "minAdd",
      "outputs": [
        {
          "internalType": "uint256",
          "name": "",
          "type": "uint256"
        }
      ],
      "stateMutability": "view",
      "type": "function"
    },
    {
      "inputs": [],
      "name": "nativeWrap",
      "outputs": [
        {
          "internalType": "address",
          "name": "",
          "type": "address"
        }
      ],
      "stateMutability": "view",
      "type": "function"
    },
    {
      "inputs": [],
      "name": "noticePeriod",
      "outputs": [
        {
          "internalType": "uint256",
          "name": "",
          "type": "uint256"
        }
      ],
      "stateMutability": "view",
      "type": "function"
    },
    {
      "inputs": [],
      "name": "notifyResetSigners",
      "outputs": [],
      "stateMutability": "nonpayable",
      "type": "function"
    },
    {
      "inputs": [],
      "name": "owner",
      "outputs": [
        {
          "internalType": "address",
          "name": "",
          "type": "address"
        }
      ],
      "stateMutability": "view",
      "type": "function"
    },
    {
      "inputs": [],
      "name": "pause",
      "outputs": [],
      "stateMutability": "nonpayable",
      "type": "function"
    },
    {
      "inputs": [],
      "name": "paused",
      "outputs": [
        {
          "internalType": "bool",
          "name": "",
          "type": "bool"
        }
      ],
      "stateMutability": "view",
      "type": "function"
    },
    {
      "inputs": [
        {
          "internalType": "address",
          "name": "",
          "type": "address"
        }
      ],
      "name": "pausers",
      "outputs": [
        {
          "internalType": "bool",
          "name": "",
          "type": "bool"
        }
      ],
      "stateMutability": "view",
      "type": "function"
    },
    {
      "inputs": [
        {
          "internalType": "address",
          "name": "_account",
          "type": "address"
        }
      ],
      "name": "removeGovernor",
      "outputs": [],
      "stateMutability": "nonpayable",
      "type": "function"
    },
    {
      "inputs": [
        {
          "internalType": "address",
          "name": "account",
          "type": "address"
        }
      ],
      "name": "removePauser",
      "outputs": [],
      "stateMutability": "nonpayable",
      "type": "function"
    },
    {
      "inputs": [],
      "name": "renounceGovernor",
      "outputs": [],
      "stateMutability": "nonpayable",
      "type": "function"
    },
    {
      "inputs": [],
      "name": "renouncePauser",
      "outputs": [],
      "stateMutability": "nonpayable",
      "type": "function"
    },
    {
      "inputs": [
        {
          "internalType": "address[]",
          "name": "_signers",
          "type": "address[]"
        },
        {
          "internalType": "uint256[]",
          "name": "_powers",
          "type": "uint256[]"
        }
      ],
      "name": "resetSigners",
      "outputs": [],
      "stateMutability": "nonpayable",
      "type": "function"
    },
    {
      "inputs": [],
      "name": "resetTime",
      "outputs": [
        {
          "internalType": "uint256",
          "name": "",
          "type": "uint256"
        }
      ],
      "stateMutability": "view",
      "type": "function"
    },
    {
      "inputs": [
        {
          "internalType": "uint256",
          "name": "_period",
          "type": "uint256"
        }
      ],
      "name": "setDelayPeriod",
      "outputs": [],
      "stateMutability": "nonpayable",
      "type": "function"
    },
    {
      "inputs": [
        {
          "internalType": "address[]",
          "name": "_tokens",
          "type": "address[]"
        },
        {
          "internalType": "uint256[]",
          "name": "_thresholds",
          "type": "uint256[]"
        }
      ],
      "name": "setDelayThresholds",
      "outputs": [],
      "stateMutability": "nonpayable",
      "type": "function"
    },
    {
      "inputs": [
        {
          "internalType": "uint256",
          "name": "_length",
          "type": "uint256"
        }
      ],
      "name": "setEpochLength",
      "outputs": [],
      "stateMutability": "nonpayable",
      "type": "function"
    },
    {
      "inputs": [
        {
          "internalType": "address[]",
          "name": "_tokens",
          "type": "address[]"
        },
        {
          "internalType": "uint256[]",
          "name": "_caps",
          "type": "uint256[]"
        }
      ],
      "name": "setEpochVolumeCaps",
      "outputs": [],
      "stateMutability": "nonpayable",
      "type": "function"
    },
    {
      "inputs": [
        {
          "internalType": "address[]",
          "name": "_tokens",
          "type": "address[]"
        },
        {
          "internalType": "uint256[]",
          "name": "_amounts",
          "type": "uint256[]"
        }
      ],
      "name": "setMinAdd",
      "outputs": [],
      "stateMutability": "nonpayable",
      "type": "function"
    },
    {
      "inputs": [
        {
          "internalType": "address",
          "name": "_weth",
          "type": "address"
        }
      ],
      "name": "setWrap",
      "outputs": [],
      "stateMutability": "nonpayable",
      "type": "function"
    },
    {
      "inputs": [],
      "name": "ssHash",
      "outputs": [
        {
          "internalType": "bytes32",
          "name": "",
          "type": "bytes32"
        }
      ],
      "stateMutability": "view",
      "type": "function"
    },
    {
      "inputs": [
        {
          "internalType": "address",
          "name": "newOwner",
          "type": "address"
        }
      ],
      "name": "transferOwnership",
      "outputs": [],
      "stateMutability": "nonpayable",
      "type": "function"
    },
    {
      "inputs": [],
      "name": "triggerTime",
      "outputs": [
        {
          "internalType": "uint256",
          "name": "",
          "type": "uint256"
        }
      ],
      "stateMutability": "view",
      "type": "function"
    },
    {
      "inputs": [],
      "name": "unpause",
      "outputs": [],
      "stateMutability": "nonpayable",
      "type": "function"
    },
    {
      "inputs": [
        {
          "internalType": "uint256",
          "name": "_triggerTime",
          "type": "uint256"
        },
        {
          "internalType": "address[]",
          "name": "_newSigners",
          "type": "address[]"
        },
        {
          "internalType": "uint256[]",
          "name": "_newPowers",
          "type": "uint256[]"
        },
        {
          "internalType": "bytes[]",
          "name": "_sigs",
          "type": "bytes[]"
        },
        {
          "internalType": "address[]",
          "name": "_curSigners",
          "type": "address[]"
        },
        {
          "internalType": "uint256[]",
          "name": "_curPowers",
          "type": "uint256[]"
        }
      ],
      "name": "updateSigners",
      "outputs": [],
      "stateMutability": "nonpayable",
      "type": "function"
    },
    {
      "inputs": [
        {
          "internalType": "bytes",
          "name": "_msg",
          "type": "bytes"
        },
        {
          "internalType": "bytes[]",
          "name": "_sigs",
          "type": "bytes[]"
        },
        {
          "internalType": "address[]",
          "name": "_signers",
          "type": "address[]"
        },
        {
          "internalType": "uint256[]",
          "name": "_powers",
          "type": "uint256[]"
        }
      ],
      "name": "verifySigs",
      "outputs": [],
      "stateMutability": "view",
      "type": "function"
    },
    {
      "inputs": [
        {
          "internalType": "bytes",
          "name": "_wdmsg",
          "type": "bytes"
        },
        {
          "internalType": "bytes[]",
          "name": "_sigs",
          "type": "bytes[]"
        },
        {
          "internalType": "address[]",
          "name": "_signers",
          "type": "address[]"
        },
        {
          "internalType": "uint256[]",
          "name": "_powers",
          "type": "uint256[]"
        }
      ],
      "name": "withdraw",
      "outputs": [],
      "stateMutability": "nonpayable",
      "type": "function"
    },
    {
      "inputs": [
        {
          "internalType": "bytes32",
          "name": "",
          "type": "bytes32"
        }
      ],
      "name": "withdraws",
      "outputs": [
        {
          "internalType": "bool",
          "name": "",
          "type": "bool"
        }
      ],
      "stateMutability": "view",
      "type": "function"
    }
  ],
  "bytecode": "0x60806040523480156200001157600080fd5b506200001d3362000048565b60016005556006805460ff19169055620000373362000098565b620000423362000162565b62000222565b600080546001600160a01b038381166001600160a01b0319831681178455604051919092169283917f8be0079c531659141344cd1fd0a4f28419497f9722a3daafe3b4186f6b6457e09190a35050565b6001600160a01b03811660009081526007602052604090205460ff1615620001075760405162461bcd60e51b815260206004820152601960248201527f4163636f756e7420697320616c7265616479207061757365720000000000000060448201526064015b60405180910390fd5b6001600160a01b038116600081815260076020908152604091829020805460ff1916600117905590519182527f6719d08c1888103bea251a4ed56406bd0c3e69723c8a1686e017e7bbe159b6f891015b60405180910390a150565b6001600160a01b03811660009081526008602052604090205460ff1615620001cd5760405162461bcd60e51b815260206004820152601b60248201527f4163636f756e7420697320616c726561647920676f7665726e6f7200000000006044820152606401620000fe565b6001600160a01b038116600081815260086020908152604091829020805460ff1916600117905590519182527fdc5a48d79e2e147530ff63ecdbed5a5a66adb9d5cf339384d5d076da197c40b5910162000157565b613ae780620002326000396000f3fe6080604052600436106102725760003560e01c80638456cb591161014f578063ba2cb25c116100c1578063e43581b81161007a578063e43581b8146107e0578063e999e5f414610800578063eecdac8814610820578063f20c922a14610840578063f2fde38b14610860578063f83213831461088057600080fd5b8063ba2cb25c14610708578063ccde517a14610728578063d0790da914610755578063e026049c1461076b578063e09ab42814610780578063e3eece26146107b057600080fd5b80639ff9001a116101135780639ff9001a146105eb578063a21a92801461060b578063a7bdf45a1461062b578063adc0d57f1461064b578063b1c94d94146106c5578063b5f2bc47146106db57600080fd5b80638456cb591461054a57806389e391271461055f5780638da5cb5b146105975780639b14d4c6146105b55780639e25fc5c146105cb57600080fd5b806356688700116101e8578063682dbc22116101ac578063682dbc22146104925780636b2c0f55146104b25780636ef8d66d146104d25780637044c89e146104e757806380f51c12146104fa57806382dc1ec41461052a57600080fd5b8063566887001461040157806357d775f8146104215780635c975abb1461043757806360216b001461044f57806365a114f11461047c57600080fd5b80633f4ba83a1161023a5780633f4ba83a14610317578063457bfa2f1461032c57806346fbf68e1461036457806347b16c6c1461039457806352532faa146103b457806354eea796146103e157600080fd5b806317bdbae51461027757806325c38b9f14610299578063370fb47b146102ae5780633c4a25d0146102d75780633d572107146102f7575b600080fd5b34801561028357600080fd5b5061029761029236600461329f565b6108ad565b005b3480156102a557600080fd5b506102976109ff565b3480156102ba57600080fd5b506102c460025481565b6040519081526020015b60405180910390f35b3480156102e357600080fd5b506102976102f2366004613326565b610a80565b34801561030357600080fd5b50610297610312366004613341565b610ac5565b34801561032357600080fd5b50610297610b26565b34801561033857600080fd5b5060135461034c906001600160a01b031681565b6040516001600160a01b0390911681526020016102ce565b34801561037057600080fd5b5061038461037f366004613326565b610b7c565b60405190151581526020016102ce565b3480156103a057600080fd5b506102976103af36600461329f565b610b9a565b3480156103c057600080fd5b506102c46103cf366004613326565b600e6020526000908152604090205481565b3480156103ed57600080fd5b506102976103fc366004613341565b610cdc565b34801561040d57600080fd5b5061029761041c36600461335a565b610d36565b34801561042d57600080fd5b506102c460095481565b34801561044357600080fd5b5060065460ff16610384565b34801561045b57600080fd5b506102c461046a366004613326565b600a6020526000908152604090205481565b34801561048857600080fd5b506102c460035481565b34801561049e57600080fd5b506102976104ad36600461339a565b610eb6565b3480156104be57600080fd5b506102976104cd366004613326565b610fa2565b3480156104de57600080fd5b50610297610fe4565b6102976104f5366004613341565b610fed565b34801561050657600080fd5b50610384610515366004613326565b60076020526000908152604090205460ff1681565b34801561053657600080fd5b50610297610545366004613326565b611253565b34801561055657600080fd5b50610297611295565b34801561056b57600080fd5b5060105461057f906001600160401b031681565b6040516001600160401b0390911681526020016102ce565b3480156105a357600080fd5b506000546001600160a01b031661034c565b3480156105c157600080fd5b506102c460045481565b3480156105d757600080fd5b506102976105e6366004613341565b6112e9565b3480156105f757600080fd5b50610297610606366004613326565b611319565b34801561061757600080fd5b506102976106263660046134c7565b611374565b34801561063757600080fd5b5061029761064636600461329f565b611660565b34801561065757600080fd5b5061069a610666366004613341565b600d6020526000908152604090208054600182015460028301546003909301546001600160a01b0392831693919092169184565b604080516001600160a01b0395861681529490931660208501529183015260608201526080016102ce565b3480156106d157600080fd5b506102c4600f5481565b3480156106e757600080fd5b506102c46106f6366004613326565b600b6020526000908152604090205481565b34801561071457600080fd5b506102976107233660046135b5565b6116f9565b34801561073457600080fd5b506102c4610743366004613326565b60116020526000908152604090205481565b34801561076157600080fd5b506102c460015481565b34801561077757600080fd5b5061029761183a565b34801561078c57600080fd5b5061038461079b366004613341565b60126020526000908152604090205460ff1681565b3480156107bc57600080fd5b506103846107cb366004613326565b60086020526000908152604090205460ff1681565b3480156107ec57600080fd5b506103846107fb366004613326565b611843565b34801561080c57600080fd5b5061029761081b36600461329f565b611861565b34801561082c57600080fd5b5061029761083b366004613326565b6119a3565b34801561084c57600080fd5b5061029761085b366004613341565b6119e5565b34801561086c57600080fd5b5061029761087b366004613326565b611a80565b34801561088c57600080fd5b506102c461089b366004613326565b600c6020526000908152604090205481565b6108b633611843565b6108db5760405162461bcd60e51b81526004016108d2906136b4565b60405180910390fd5b8281146108fa5760405162461bcd60e51b81526004016108d2906136e4565b60005b838110156109f8578282828181106109175761091761370d565b90506020020135600e60008787858181106109345761093461370d565b90506020020160208101906109499190613326565b6001600160a01b031681526020810191909152604001600020557fceaad6533bfb481492fb3e08ef19297f46611b8fa9de5ef4cf8dc23a56ad09ce8585838181106109965761099661370d565b90506020020160208101906109ab9190613326565b8484848181106109bd576109bd61370d565b604080516001600160a01b0390951685526020918202939093013590840152500160405180910390a1806109f081613739565b9150506108fd565b5050505050565b33610a126000546001600160a01b031690565b6001600160a01b031614610a385760405162461bcd60e51b81526004016108d290613754565b600454610a459042613789565b60038190556040519081527f68e825132f7d4bc837dea2d64ac9fc19912bf0224b67f9317d8f1a917f5304a1906020015b60405180910390a1565b33610a936000546001600160a01b031690565b6001600160a01b031614610ab95760405162461bcd60e51b81526004016108d290613754565b610ac281611b27565b50565b610ace33611843565b610aea5760405162461bcd60e51b81526004016108d2906136b4565b600f8190556040518181527fc0a39f234199b125fb93713c4d067bdcebbf691087f87b79c0feb92b156ba8b6906020015b60405180910390a150565b610b2f33610b7c565b610b725760405162461bcd60e51b815260206004820152601460248201527321b0b63632b91034b9903737ba103830bab9b2b960611b60448201526064016108d2565b610b7a611bd1565b565b6001600160a01b031660009081526007602052604090205460ff1690565b610ba333611843565b610bbf5760405162461bcd60e51b81526004016108d2906136b4565b828114610bde5760405162461bcd60e51b81526004016108d2906136e4565b60005b838110156109f857828282818110610bfb57610bfb61370d565b90506020020135600b6000878785818110610c1857610c1861370d565b9050602002016020810190610c2d9190613326565b6001600160a01b031681526020810191909152604001600020557f608e49c22994f20b5d3496dca088b88dfd81b4a3e8cc3809ea1e10a320107e89858583818110610c7a57610c7a61370d565b9050602002016020810190610c8f9190613326565b848484818110610ca157610ca161370d565b604080516001600160a01b0390951685526020918202939093013590840152500160405180910390a180610cd481613739565b915050610be1565b610ce533611843565b610d015760405162461bcd60e51b81526004016108d2906136b4565b60098190556040518181527f2664fec2ff76486ac58ed087310855b648b15b9d19f3de8529e95f7c46b7d6b390602001610b1b565b60026005541415610d895760405162461bcd60e51b815260206004820152601f60248201527f5265656e7472616e637947756172643a207265656e7472616e742063616c6c0060448201526064016108d2565b6002600555610d96611c1e565b6001600160a01b0382166000908152601160205260409020548111610df05760405162461bcd60e51b815260206004820152601060248201526f185b5bdd5b9d081d1bdbc81cdb585b1b60821b60448201526064016108d2565b6010805460019190600090610e0f9084906001600160401b03166137a1565b92506101000a8154816001600160401b0302191690836001600160401b03160217905550610e53333083856001600160a01b0316611c64909392919063ffffffff16565b601054604080516001600160401b0390921682523360208301526001600160a01b0384168282015260608201839052517fd5d28426c3248963b1719df49aa4c665120372e02c8249bbea03d019c39ce7649181900360800190a150506001600555565b600084848484604051602001610ecf9493929190613838565b6040516020818303038152906040528051906020012090508060015414610f385760405162461bcd60e51b815260206004820152601860248201527f4d69736d617463682063757272656e74207369676e657273000000000000000060448201526064016108d2565b87516020808a0191909120604080517f19457468657265756d205369676e6564204d6573736167653a0a33320000000081850152603c8082019390935281518082039093018352605c0190528051910120610f9890888888888888611ccf565b5050505050505050565b33610fb56000546001600160a01b031690565b6001600160a01b031614610fdb5760405162461bcd60e51b81526004016108d290613754565b610ac281611fb1565b610b7a33611fb1565b600260055414156110405760405162461bcd60e51b815260206004820152601f60248201527f5265656e7472616e637947756172643a207265656e7472616e742063616c6c0060448201526064016108d2565b600260055561104d611c1e565b80341461108e5760405162461bcd60e51b815260206004820152600f60248201526e082dadeeadce840dad2e6dac2e8c6d608b1b60448201526064016108d2565b6013546001600160a01b03166110dc5760405162461bcd60e51b815260206004820152601360248201527213985d1a5d99481ddc985c081b9bdd081cd95d606a1b60448201526064016108d2565b6013546001600160a01b031660009081526011602052604090205481116111385760405162461bcd60e51b815260206004820152601060248201526f185b5bdd5b9d081d1bdbc81cdb585b1b60821b60448201526064016108d2565b60108054600191906000906111579084906001600160401b03166137a1565b92506101000a8154816001600160401b0302191690836001600160401b03160217905550601360009054906101000a90046001600160a01b03166001600160a01b031663d0e30db0826040518263ffffffff1660e01b81526004016000604051808303818588803b1580156111cb57600080fd5b505af11580156111df573d6000803e3d6000fd5b5050601054601354604080516001600160401b0390931683523360208401526001600160a01b0390911690820152606081018590527fd5d28426c3248963b1719df49aa4c665120372e02c8249bbea03d019c39ce764935060800191506112439050565b60405180910390a1506001600555565b336112666000546001600160a01b031690565b6001600160a01b03161461128c5760405162461bcd60e51b81526004016108d290613754565b610ac28161204f565b61129e33610b7c565b6112e15760405162461bcd60e51b815260206004820152601460248201527321b0b63632b91034b9903737ba103830bab9b2b960611b60448201526064016108d2565b610b7a6120f9565b6112f1611c1e565b60006112fc82612136565b90506113158160000151826020015183604001516122fb565b5050565b3361132c6000546001600160a01b031690565b6001600160a01b0316146113525760405162461bcd60e51b81526004016108d290613754565b601380546001600160a01b0319166001600160a01b0392909216919091179055565b61137c611c1e565b600046306040516020016113bb92919091825260601b6001600160601b03191660208201526a57697468647261774d736760a81b6034820152603f0190565b604051602081830303815290604052805190602001209050611405818a8a6040516020016113eb93929190613859565b604051602081830303815290604052888888888888610eb6565b60006114468a8a8080601f01602080910402602001604051908101604052809392919081815260200183838082843760009201919091525061243092505050565b90506000816000015182602001518360400151846060015185608001516040516020016114ba95949392919060c095861b6001600160c01b031990811682529490951b9093166008850152606091821b6001600160601b03199081166010860152911b166024830152603882015260580190565b60408051601f1981840301815291815281516020928301206000818152601290935291205490915060ff16156115325760405162461bcd60e51b815260206004820152601a60248201527f776974686472617720616c72656164792073756363656564656400000000000060448201526064016108d2565b6000818152601260205260409020805460ff191660011790556060820151608083015161155f919061258e565b60608201516001600160a01b03166000908152600e6020526040902054801580159061158e5750808360800151115b156115b0576115ab8284604001518560600151866080015161269b565b6115c7565b6115c78360400151846060015185608001516122fb565b7f48a1ab26f3aa7b62bb6b6e8eed182f292b84eb7b006c0254386b268af20774be8284602001518560400151866060015187608001518860a0015160405161164a969594939291909586526001600160401b039490941660208601526001600160a01b03928316604086015291166060840152608083015260a082015260c00190565b60405180910390a1505050505050505050505050565b336116736000546001600160a01b031690565b6001600160a01b0316146116995760405162461bcd60e51b81526004016108d290613754565b60035442116116e15760405162461bcd60e51b81526020600482015260146024820152736e6f742072656163682072657365742074696d6560601b60448201526064016108d2565b6000196003556116f3848484846127ae565b50505050565b6002548b1161174a5760405162461bcd60e51b815260206004820152601e60248201527f547269676765722074696d65206973206e6f7420696e6372656173696e67000060448201526064016108d2565b61175642610e10613789565b8b106117a45760405162461bcd60e51b815260206004820152601960248201527f547269676765722074696d6520697320746f6f206c617267650000000000000060448201526064016108d2565b600046306040516020016117e592919091825260601b6001600160601b03191660208201526c5570646174655369676e65727360981b603482015260410190565b60405160208183030381529060405280519060200120905061181b818d8d8d8d8d6040516020016113eb96959493929190613873565b6118278b8b8b8b6127ae565b5050506002989098555050505050505050565b610b7a3361291c565b6001600160a01b031660009081526008602052604090205460ff1690565b61186a33611843565b6118865760405162461bcd60e51b81526004016108d2906136b4565b8281146118a55760405162461bcd60e51b81526004016108d2906136e4565b60005b838110156109f8578282828181106118c2576118c261370d565b90506020020135601160008787858181106118df576118df61370d565b90506020020160208101906118f49190613326565b6001600160a01b031681526020810191909152604001600020557fc56b0d14c4940515800d94ebbd0f3f5d8cc58ba1109c12536bd993b72e466e4f8585838181106119415761194161370d565b90506020020160208101906119569190613326565b8484848181106119685761196861370d565b604080516001600160a01b0390951685526020918202939093013590840152500160405180910390a18061199b81613739565b9150506118a8565b336119b66000546001600160a01b031690565b6001600160a01b0316146119dc5760405162461bcd60e51b81526004016108d290613754565b610ac28161291c565b336119f86000546001600160a01b031690565b6001600160a01b031614611a1e5760405162461bcd60e51b81526004016108d290613754565b6004548111611a7b5760405162461bcd60e51b815260206004820152602360248201527f6e6f7469636520706572696f642063616e206f6e6c7920626520696e637265616044820152621cd95960ea1b60648201526084016108d2565b600455565b33611a936000546001600160a01b031690565b6001600160a01b031614611ab95760405162461bcd60e51b81526004016108d290613754565b6001600160a01b038116611b1e5760405162461bcd60e51b815260206004820152602660248201527f4f776e61626c653a206e6577206f776e657220697320746865207a65726f206160448201526564647265737360d01b60648201526084016108d2565b610ac2816129c2565b611b3081611843565b15611b7d5760405162461bcd60e51b815260206004820152601b60248201527f4163636f756e7420697320616c726561647920676f7665726e6f72000000000060448201526064016108d2565b6001600160a01b038116600081815260086020908152604091829020805460ff1916600117905590519182527fdc5a48d79e2e147530ff63ecdbed5a5a66adb9d5cf339384d5d076da197c40b59101610b1b565b611bd9612a12565b6006805460ff191690557f5db9ee0a495bf2e6ff9c91a7834c1ba4fdd244a5e8aa4e537bd38aeae4b073aa335b6040516001600160a01b039091168152602001610a76565b60065460ff1615610b7a5760405162461bcd60e51b815260206004820152601060248201526f14185d5cd8589b194e881c185d5cd95960821b60448201526064016108d2565b6040516001600160a01b03808516602483015283166044820152606481018290526116f39085906323b872dd60e01b906084015b60408051601f198184030181529190526020810180516001600160e01b03166001600160e01b031990931692909217909152612a5b565b828114611cee5760405162461bcd60e51b81526004016108d29061389b565b6000805b84811015611d3257838382818110611d0c57611d0c61370d565b9050602002013582611d1e9190613789565b915080611d2a81613739565b915050611cf2565b5060006003611d428360026138de565b611d4c91906138fd565b611d57906001613789565b905060008080805b8a811015611f6a576000611de28d8d84818110611d7e57611d7e61370d565b9050602002810190611d90919061391f565b8080601f016020809104026020016040519081016040528093929190818152602001838380828437600081840152601f19601f820116905080830192505050505050508f612b2d90919063ffffffff16565b9050836001600160a01b0316816001600160a01b031611611e455760405162461bcd60e51b815260206004820152601e60248201527f7369676e657273206e6f7420696e20617363656e64696e67206f72646572000060448201526064016108d2565b8093505b8a8a84818110611e5b57611e5b61370d565b9050602002016020810190611e709190613326565b6001600160a01b0316816001600160a01b03161115611edd57611e94600184613789565b9250898310611ed85760405162461bcd60e51b815260206004820152601060248201526f1cda59db995c881b9bdd08199bdd5b9960821b60448201526064016108d2565b611e49565b8a8a84818110611eef57611eef61370d565b9050602002016020810190611f049190613326565b6001600160a01b0316816001600160a01b03161415611f4457888884818110611f2f57611f2f61370d565b9050602002013585611f419190613789565b94505b858510611f575750505050505050611fa8565b5080611f6281613739565b915050611d5f565b5060405162461bcd60e51b81526020600482015260126024820152711c5d5bdc9d5b481b9bdd081c995858da195960721b60448201526064016108d2565b50505050505050565b611fba81610b7c565b611ffe5760405162461bcd60e51b815260206004820152601560248201527420b1b1b7bab73a1034b9903737ba103830bab9b2b960591b60448201526064016108d2565b6001600160a01b038116600081815260076020908152604091829020805460ff1916905590519182527fcd265ebaf09df2871cc7bd4133404a235ba12eff2041bb89d9c714a2621c7c7e9101610b1b565b61205881610b7c565b156120a55760405162461bcd60e51b815260206004820152601960248201527f4163636f756e7420697320616c7265616479207061757365720000000000000060448201526064016108d2565b6001600160a01b038116600081815260076020908152604091829020805460ff1916600117905590519182527f6719d08c1888103bea251a4ed56406bd0c3e69723c8a1686e017e7bbe159b6f89101610b1b565b612101611c1e565b6006805460ff191660011790557f62e78cea01bee320cd4e420270b5ea74000d11b0c9f74754ebdbfc544b05a258611c063390565b6040805160808101825260008082526020820181905291810182905260608101919091526000828152600d6020908152604091829020825160808101845281546001600160a01b03908116825260018301541692810192909252600281015492820192909252600390910154606082018190526121f55760405162461bcd60e51b815260206004820152601a60248201527f64656c61796564207472616e73666572206e6f7420657869737400000000000060448201526064016108d2565b600f5481606001516122079190613789565b42116122555760405162461bcd60e51b815260206004820152601d60248201527f64656c61796564207472616e73666572207374696c6c206c6f636b656400000060448201526064016108d2565b6000838152600d6020908152604080832080546001600160a01b03199081168255600182018054909116905560028101849055600301929092558251908301518383015192517f3b40e5089937425d14cdd96947e5661868357e224af59bd8b24a4b8a330d4426936122ed93889390929091909384526001600160a01b03928316602085015291166040830152606082015260800190565b60405180910390a192915050565b6013546001600160a01b038381169116141561241757601354604051632e1a7d4d60e01b8152600481018390526001600160a01b0390911690632e1a7d4d90602401600060405180830381600087803b15801561235757600080fd5b505af115801561236b573d6000803e3d6000fd5b505050506000836001600160a01b03168261c35090604051600060405180830381858888f193505050503d80600081146123c1576040519150601f19603f3d011682016040523d82523d6000602084013e6123c6565b606091505b50509050806116f35760405162461bcd60e51b815260206004820152601b60248201527f6661696c656420746f2073656e64206e617469766520746f6b656e000000000060448201526064016108d2565b61242b6001600160a01b0383168483612b51565b505050565b6040805160c08101825260008082526020808301829052828401829052606083018290526080830182905260a0830182905283518085019094528184528301849052909190805b602083015151835110156125865761248e83612b81565b909250905081600114156124b5576124a583612bbb565b6001600160401b03168452612477565b81600214156124da576124c783612bbb565b6001600160401b03166020850152612477565b8160031415612507576124f46124ef84612c3d565b612cf9565b6001600160a01b03166040850152612477565b816004141561252f5761251c6124ef84612c3d565b6001600160a01b03166060850152612477565b81600514156125535761254961254484612c3d565b612d0a565b6080850152612477565b81600614156125775761256d61256884612c3d565b612d41565b60a0850152612477565b6125818382612d59565b612477565b505050919050565b600954612599575050565b6001600160a01b0382166000908152600b6020526040902054806125bc57505050565b6001600160a01b0383166000908152600a6020526040812054600954909142916125e681846138fd565b6125f091906138de565b6001600160a01b0387166000908152600c602052604090205490915081111561261b57849250612628565b6126258584613789565b92505b8383111561266d5760405162461bcd60e51b81526020600482015260126024820152710766f6c756d652065786365656473206361760741b60448201526064016108d2565b506001600160a01b039094166000908152600a6020908152604080832093909355600c905220929092555050565b6000848152600d6020526040902060030154156126fa5760405162461bcd60e51b815260206004820152601f60248201527f64656c61796564207472616e7366657220616c7265616479206578697374730060448201526064016108d2565b604080516080810182526001600160a01b0380861682528481166020808401918252838501868152426060860190815260008b8152600d90935291869020945185549085166001600160a01b031991821617865592516001860180549190951693169290921790925551600283015551600390910155517fcbcfffe5102114216a85d3aceb14ad4b81a3935b1b5c468fadf3889eb9c5dce6906127a09086815260200190565b60405180910390a150505050565b8281146127cd5760405162461bcd60e51b81526004016108d29061389b565b6000805b848110156128a657816001600160a01b03168686838181106127f5576127f561370d565b905060200201602081019061280a9190613326565b6001600160a01b03161161286b5760405162461bcd60e51b815260206004820152602260248201527f4e6577207369676e657273206e6f7420696e20617363656e64696e67206f726460448201526132b960f11b60648201526084016108d2565b85858281811061287d5761287d61370d565b90506020020160208101906128929190613326565b91508061289e81613739565b9150506127d1565b50848484846040516020016128be9493929190613838565b60408051601f198184030181529082905280516020909101206001557ff126123539a68393c55697f617e7d1148e371988daed246c2f41da99965a23f89061290d908790879087908790613965565b60405180910390a15050505050565b61292581611843565b6129715760405162461bcd60e51b815260206004820152601760248201527f4163636f756e74206973206e6f7420676f7665726e6f7200000000000000000060448201526064016108d2565b6001600160a01b038116600081815260086020908152604091829020805460ff1916905590519182527f1ebe834e73d60a5fec822c1e1727d34bc79f2ad977ed504581cc1822fe20fb5b9101610b1b565b600080546001600160a01b038381166001600160a01b0319831681178455604051919092169283917f8be0079c531659141344cd1fd0a4f28419497f9722a3daafe3b4186f6b6457e09190a35050565b60065460ff16610b7a5760405162461bcd60e51b815260206004820152601460248201527314185d5cd8589b194e881b9bdd081c185d5cd95960621b60448201526064016108d2565b6000612ab0826040518060400160405280602081526020017f5361666545524332303a206c6f772d6c6576656c2063616c6c206661696c6564815250856001600160a01b0316612dcb9092919063ffffffff16565b80519091501561242b5780806020019051810190612ace91906139e7565b61242b5760405162461bcd60e51b815260206004820152602a60248201527f5361666545524332303a204552433230206f7065726174696f6e20646964206e6044820152691bdd081cdd58d8d9595960b21b60648201526084016108d2565b6000806000612b3c8585612de4565b91509150612b4981612e2a565b509392505050565b6040516001600160a01b03831660248201526044810182905261242b90849063a9059cbb60e01b90606401611c98565b6000806000612b8f84612bbb565b9050612b9c6008826138fd565b9250806007166005811115612bb357612bb3613a09565b915050915091565b602080820151825181019091015160009182805b600a811015612c375783811a9150612be88160076138de565b82607f16901b851794508160801660001415612c2557612c09816001613789565b86518790612c18908390613789565b9052509395945050505050565b80612c2f81613739565b915050612bcf565b50600080fd5b60606000612c4a83612bbb565b90506000818460000151612c5e9190613789565b9050836020015151811115612c7257600080fd5b816001600160401b03811115612c8a57612c8a613384565b6040519080825280601f01601f191660200182016040528015612cb4576020820181803683370190505b50602080860151865192955091818601919083010160005b85811015612cee578181015183820152612ce7602082613789565b9050612ccc565b505050935250919050565b6000612d0482612fe5565b92915050565b6000602082511115612d1b57600080fd5b6020820151905081516020612d309190613a1f565b612d3b9060086138de565b1c919050565b60008151602014612d5157600080fd5b506020015190565b6000816005811115612d6d57612d6d613a09565b1415612d7c5761242b82612bbb565b6002816005811115612d9057612d90613a09565b1415610272576000612da183612bbb565b90508083600001818151612db59190613789565b9052506020830151518351111561242b57600080fd5b6060612dda8484600085613004565b90505b9392505050565b600080825160411415612e1b5760208301516040840151606085015160001a612e0f87828585613135565b94509450505050612e23565b506000905060025b9250929050565b6000816004811115612e3e57612e3e613a09565b1415612e475750565b6001816004811115612e5b57612e5b613a09565b1415612ea95760405162461bcd60e51b815260206004820152601860248201527f45434453413a20696e76616c6964207369676e6174757265000000000000000060448201526064016108d2565b6002816004811115612ebd57612ebd613a09565b1415612f0b5760405162461bcd60e51b815260206004820152601f60248201527f45434453413a20696e76616c6964207369676e6174757265206c656e6774680060448201526064016108d2565b6003816004811115612f1f57612f1f613a09565b1415612f785760405162461bcd60e51b815260206004820152602260248201527f45434453413a20696e76616c6964207369676e6174757265202773272076616c604482015261756560f01b60648201526084016108d2565b6004816004811115612f8c57612f8c613a09565b1415610ac25760405162461bcd60e51b815260206004820152602260248201527f45434453413a20696e76616c6964207369676e6174757265202776272076616c604482015261756560f01b60648201526084016108d2565b60008151601414612ff557600080fd5b5060200151600160601b900490565b6060824710156130655760405162461bcd60e51b815260206004820152602660248201527f416464726573733a20696e73756666696369656e742062616c616e636520666f6044820152651c8818d85b1b60d21b60648201526084016108d2565b6001600160a01b0385163b6130bc5760405162461bcd60e51b815260206004820152601d60248201527f416464726573733a2063616c6c20746f206e6f6e2d636f6e747261637400000060448201526064016108d2565b600080866001600160a01b031685876040516130d89190613a62565b60006040518083038185875af1925050503d8060008114613115576040519150601f19603f3d011682016040523d82523d6000602084013e61311a565b606091505b509150915061312a828286613222565b979650505050505050565b6000807f7fffffffffffffffffffffffffffffff5d576e7357a4501ddfe92f46681b20a083111561316c5750600090506003613219565b8460ff16601b1415801561318457508460ff16601c14155b156131955750600090506004613219565b6040805160008082526020820180845289905260ff881692820192909252606081018690526080810185905260019060a0016020604051602081039080840390855afa1580156131e9573d6000803e3d6000fd5b5050604051601f1901519150506001600160a01b03811661321257600060019250925050613219565b9150600090505b94509492505050565b60608315613231575081612ddd565b8251156132415782518084602001fd5b8160405162461bcd60e51b81526004016108d29190613a7e565b60008083601f84011261326d57600080fd5b5081356001600160401b0381111561328457600080fd5b6020830191508360208260051b8501011115612e2357600080fd5b600080600080604085870312156132b557600080fd5b84356001600160401b03808211156132cc57600080fd5b6132d88883890161325b565b909650945060208701359150808211156132f157600080fd5b506132fe8782880161325b565b95989497509550505050565b80356001600160a01b038116811461332157600080fd5b919050565b60006020828403121561333857600080fd5b612ddd8261330a565b60006020828403121561335357600080fd5b5035919050565b6000806040838503121561336d57600080fd5b6133768361330a565b946020939093013593505050565b634e487b7160e01b600052604160045260246000fd5b60008060008060008060006080888a0312156133b557600080fd5b87356001600160401b03808211156133cc57600080fd5b818a0191508a601f8301126133e057600080fd5b8135818111156133f2576133f2613384565b604051601f8201601f19908116603f0116810190838211818310171561341a5761341a613384565b816040528281528d602084870101111561343357600080fd5b82602086016020830137600094508460208483010152809b5050505060208a013581811115613460578283fd5b61346c8c828d0161325b565b90995097505060408a013581811115613483578283fd5b61348f8c828d0161325b565b90975095505060608a0135818111156134a6578283fd5b6134b28c828d0161325b565b9a9d999c50979a509598949794955050505050565b6000806000806000806000806080898b0312156134e357600080fd5b88356001600160401b03808211156134fa57600080fd5b818b0191508b601f83011261350e57600080fd5b81358181111561351d57600080fd5b8c602082850101111561352f57600080fd5b60209283019a509850908a0135908082111561354a57600080fd5b6135568c838d0161325b565b909850965060408b013591508082111561356f57600080fd5b61357b8c838d0161325b565b909650945060608b013591508082111561359457600080fd5b506135a18b828c0161325b565b999c989b5096995094979396929594505050565b600080600080600080600080600080600060c08c8e0312156135d657600080fd5b8b359a506001600160401b038060208e013511156135f357600080fd5b6136038e60208f01358f0161325b565b909b50995060408d013581101561361957600080fd5b6136298e60408f01358f0161325b565b909950975060608d013581101561363f57600080fd5b61364f8e60608f01358f0161325b565b909750955060808d013581101561366557600080fd5b6136758e60808f01358f0161325b565b909550935060a08d013581101561368b57600080fd5b5061369c8d60a08e01358e0161325b565b81935080925050509295989b509295989b9093969950565b60208082526016908201527521b0b63632b91034b9903737ba1033b7bb32b93737b960511b604082015260600190565b6020808252600f908201526e0d8cadccee8d040dad2e6dac2e8c6d608b1b604082015260600190565b634e487b7160e01b600052603260045260246000fd5b634e487b7160e01b600052601160045260246000fd5b600060001982141561374d5761374d613723565b5060010190565b6020808252818101527f4f776e61626c653a2063616c6c6572206973206e6f7420746865206f776e6572604082015260600190565b6000821982111561379c5761379c613723565b500190565b60006001600160401b038083168185168083038211156137c3576137c3613723565b01949350505050565b60008160005b84811015613801576001600160a01b036137eb8361330a565b16865260209586019591909101906001016137d2565b5093949350505050565b60006001600160fb1b0383111561382157600080fd5b8260051b8083863760009401938452509192915050565b600061384f6138488387896137cc565b848661380b565b9695505050505050565b838152818360208301376000910160200190815292915050565b868152856020820152600061388f6138486040840187896137cc565b98975050505050505050565b60208082526023908201527f7369676e65727320616e6420706f77657273206c656e677468206e6f74206d616040820152620e8c6d60eb1b606082015260800190565b60008160001904831182151516156138f8576138f8613723565b500290565b60008261391a57634e487b7160e01b600052601260045260246000fd5b500490565b6000808335601e1984360301811261393657600080fd5b8301803591506001600160401b0382111561395057600080fd5b602001915036819003821315612e2357600080fd5b6040808252810184905260008560608301825b878110156139a6576001600160a01b036139918461330a565b16825260209283019290910190600101613978565b5083810360208501528481526001600160fb1b038511156139c657600080fd5b8460051b915081866020830137600091016020019081529695505050505050565b6000602082840312156139f957600080fd5b81518015158114612ddd57600080fd5b634e487b7160e01b600052602160045260246000fd5b600082821015613a3157613a31613723565b500390565b60005b83811015613a51578181015183820152602001613a39565b838111156116f35750506000910152565b60008251613a74818460208701613a36565b9190910192915050565b6020815260008251806020840152613a9d816040850160208701613a36565b601f01601f1916919091016040019291505056fea26469706673582212207b5f99c316d32455668bf97691f288f83605765502b2e91fe1f8a14f988cdf0864736f6c63430008090033",
  "linkReferences": {},
  "deployedLinkReferences": {}
}