{
  "_format": "hh-sol-artifact-1",
  "contractName": "RestrictedMultiBridgeTokenOwner",
  "sourceName": "contracts/cBridge/pegged-bridge/tokens/owners/RestrictedMultiBridgeTokenOwner.sol",
  "abi": [
    {
      "inputs": [
        {
          "internalType": "address",
          "name": "_token",
          "type": "address"
        },
        {
          "internalType": "address",
          "name": "_bridge",
          "type": "address"
        }
      ],
      "stateMutability": "nonpayable",
      "type": "constructor"
    },
    {
      "anonymous": false,
      "inputs": [
        {
          "indexed": true,
          "internalType": "address",
          "name": "previousOwner",
          "type": "address"
        },
        {
          "indexed": true,
          "internalType": "address",
          "name": "newOwner",
          "type": "address"
        }
      ],
      "name": "OwnershipTransferred",
      "type": "event"
    },
    {
      "inputs": [],
      "name": "bridge",
      "outputs": [
        {
          "internalType": "address",
          "name": "",
          "type": "address"
        }
      ],
      "stateMutability": "view",
      "type": "function"
    },
    {
      "inputs": [
        {
          "internalType": "address",
          "name": "_bridge",
          "type": "address"
        },
        {
          "internalType": "uint256",
          "name": "_cap",
          "type": "uint256"
        }
      ],
      "name": "changeBridge",
      "outputs": [],
      "stateMutability": "nonpayable",
      "type": "function"
    },
    {
      "inputs": [],
      "name": "owner",
      "outputs": [
        {
          "internalType": "address",
          "name": "",
          "type": "address"
        }
      ],
      "stateMutability": "view",
      "type": "function"
    },
    {
      "inputs": [
        {
          "internalType": "address",
          "name": "_bridge",
          "type": "address"
        }
      ],
      "name": "revokeBridge",
      "outputs": [],
      "stateMutability": "nonpayable",
      "type": "function"
    },
    {
      "inputs": [],
      "name": "token",
      "outputs": [
        {
          "internalType": "address",
          "name": "",
          "type": "address"
        }
      ],
      "stateMutability": "view",
      "type": "function"
    },
    {
      "inputs": [
        {
          "internalType": "address",
          "name": "newOwner",
          "type": "address"
        }
      ],
      "name": "transferOwnership",
      "outputs": [],
      "stateMutability": "nonpayable",
      "type": "function"
    },
    {
      "inputs": [
        {
          "internalType": "uint256",
          "name": "_cap",
          "type": "uint256"
        }
      ],
      "name": "updateBridgeSupplyCap",
      "outputs": [],
      "stateMutability": "nonpayable",
      "type": "function"
    }
  ],
  "bytecode": "0x60a060405234801561001057600080fd5b5060405161071038038061071083398101604081905261002f916100cc565b61003833610060565b6001600160a01b03918216608052600180546001600160a01b031916919092161790556100ff565b600080546001600160a01b038381166001600160a01b0319831681178455604051919092169283917f8be0079c531659141344cd1fd0a4f28419497f9722a3daafe3b4186f6b6457e09190a35050565b80516001600160a01b03811681146100c757600080fd5b919050565b600080604083850312156100df57600080fd5b6100e8836100b0565b91506100f6602084016100b0565b90509250929050565b6080516105da610136600039600081816101110152818161019b0152818161025f015281816102df01526103c301526105da6000f3fe608060405234801561001057600080fd5b506004361061007d5760003560e01c80638da5cb5b1161005b5780638da5cb5b146100bd578063e78cea92146100e6578063f2fde38b146100f9578063fc0c546a1461010c57600080fd5b80634910b86114610082578063531daeb0146100975780636beee716146100aa575b600080fd5b61009561009036600461050a565b610133565b005b6100956100a536600461052c565b6101fb565b6100956100b8366004610556565b610361565b6000546001600160a01b03165b6040516001600160a01b03909116815260200160405180910390f35b6001546100ca906001600160a01b031681565b61009561010736600461050a565b6103f4565b6100ca7f000000000000000000000000000000000000000000000000000000000000000081565b336101466000546001600160a01b031690565b6001600160a01b0316146101755760405162461bcd60e51b815260040161016c9061056f565b60405180910390fd5b6040516326717b8d60e11b81526001600160a01b038281166004830152600060248301527f00000000000000000000000000000000000000000000000000000000000000001690634ce2f71a906044015b600060405180830381600087803b1580156101e057600080fd5b505af11580156101f4573d6000803e3d6000fd5b5050505050565b3361020e6000546001600160a01b031690565b6001600160a01b0316146102345760405162461bcd60e51b815260040161016c9061056f565b600180546040516326717b8d60e11b81526001600160a01b03918216600482015260248101929092527f00000000000000000000000000000000000000000000000000000000000000001690634ce2f71a90604401600060405180830381600087803b1580156102a357600080fd5b505af11580156102b7573d6000803e3d6000fd5b50506040516326717b8d60e11b81526001600160a01b038581166004830152602482018590527f0000000000000000000000000000000000000000000000000000000000000000169250634ce2f71a9150604401600060405180830381600087803b15801561032557600080fd5b505af1158015610339573d6000803e3d6000fd5b5050600180546001600160a01b0319166001600160a01b039590951694909417909355505050565b336103746000546001600160a01b031690565b6001600160a01b03161461039a5760405162461bcd60e51b815260040161016c9061056f565b6001546040516326717b8d60e11b81526001600160a01b039182166004820152602481018390527f000000000000000000000000000000000000000000000000000000000000000090911690634ce2f71a906044016101c6565b336104076000546001600160a01b031690565b6001600160a01b03161461042d5760405162461bcd60e51b815260040161016c9061056f565b6001600160a01b0381166104925760405162461bcd60e51b815260206004820152602660248201527f4f776e61626c653a206e6577206f776e657220697320746865207a65726f206160448201526564647265737360d01b606482015260840161016c565b61049b8161049e565b50565b600080546001600160a01b038381166001600160a01b0319831681178455604051919092169283917f8be0079c531659141344cd1fd0a4f28419497f9722a3daafe3b4186f6b6457e09190a35050565b80356001600160a01b038116811461050557600080fd5b919050565b60006020828403121561051c57600080fd5b610525826104ee565b9392505050565b6000806040838503121561053f57600080fd5b610548836104ee565b946020939093013593505050565b60006020828403121561056857600080fd5b5035919050565b6020808252818101527f4f776e61626c653a2063616c6c6572206973206e6f7420746865206f776e657260408201526060019056fea2646970667358221220629a62d0af99ac4c930e645121d59611ac75c0697b1e69ff3c13bff063427a1264736f6c63430008090033",
  "linkReferences": {},
  "deployedLinkReferences": {}
}