{
  "_format": "hh-sol-artifact-1",
  "contractName": "MessageBus",
  "sourceName": "contracts/cBridge/message/messagebus/MessageBus.sol",
  "abi": [
    {
      "inputs": [
        {
          "internalType": "contract ISigsVerifier",
          "name": "_sigsVerifier",
          "type": "address"
        },
        {
          "internalType": "address",
          "name": "_liquidityBridge",
          "type": "address"
        },
        {
          "internalType": "address",
          "name": "_pegBridge",
          "type": "address"
        },
        {
          "internalType": "address",
          "name": "_pegVault",
          "type": "address"
        },
        {
          "internalType": "address",
          "name": "_pegBridgeV2",
          "type": "address"
        },
        {
          "internalType": "address",
          "name": "_pegVaultV2",
          "type": "address"
        }
      ],
      "stateMutability": "nonpayable",
      "type": "constructor"
    },
    {
      "anonymous": false,
      "inputs": [
        {
          "indexed": false,
          "internalType": "string",
          "name": "reason",
          "type": "string"
        }
      ],
      "name": "CallReverted",
      "type": "event"
    },
    {
      "anonymous": false,
      "inputs": [
        {
          "indexed": false,
          "internalType": "enum MsgDataTypes.MsgType",
          "name": "msgType",
          "type": "uint8"
        },
        {
          "indexed": false,
          "internalType": "bytes32",
          "name": "msgId",
          "type": "bytes32"
        },
        {
          "indexed": false,
          "internalType": "enum MsgDataTypes.TxStatus",
          "name": "status",
          "type": "uint8"
        },
        {
          "indexed": true,
          "internalType": "address",
          "name": "receiver",
          "type": "address"
        },
        {
          "indexed": false,
          "internalType": "uint64",
          "name": "srcChainId",
          "type": "uint64"
        },
        {
          "indexed": false,
          "internalType": "bytes32",
          "name": "srcTxHash",
          "type": "bytes32"
        }
      ],
      "name": "Executed",
      "type": "event"
    },
    {
      "anonymous": false,
      "inputs": [
        {
          "indexed": false,
          "internalType": "uint256",
          "name": "feeBase",
          "type": "uint256"
        }
      ],
      "name": "FeeBaseUpdated",
      "type": "event"
    },
    {
      "anonymous": false,
      "inputs": [
        {
          "indexed": false,
          "internalType": "uint256",
          "name": "feePerByte",
          "type": "uint256"
        }
      ],
      "name": "FeePerByteUpdated",
      "type": "event"
    },
    {
      "anonymous": false,
      "inputs": [
        {
          "indexed": false,
          "internalType": "address",
          "name": "receiver",
          "type": "address"
        },
        {
          "indexed": false,
          "internalType": "uint256",
          "name": "amount",
          "type": "uint256"
        }
      ],
      "name": "FeeWithdrawn",
      "type": "event"
    },
    {
      "anonymous": false,
      "inputs": [
        {
          "indexed": false,
          "internalType": "address",
          "name": "liquidityBridge",
          "type": "address"
        }
      ],
      "name": "LiquidityBridgeUpdated",
      "type": "event"
    },
    {
      "anonymous": false,
      "inputs": [
        {
          "indexed": true,
          "internalType": "address",
          "name": "sender",
          "type": "address"
        },
        {
          "indexed": false,
          "internalType": "address",
          "name": "receiver",
          "type": "address"
        },
        {
          "indexed": false,
          "internalType": "uint256",
          "name": "dstChainId",
          "type": "uint256"
        },
        {
          "indexed": false,
          "internalType": "bytes",
          "name": "message",
          "type": "bytes"
        },
        {
          "indexed": false,
          "internalType": "uint256",
          "name": "fee",
          "type": "uint256"
        }
      ],
      "name": "Message",
      "type": "event"
    },
    {
      "anonymous": false,
      "inputs": [
        {
          "indexed": true,
          "internalType": "address",
          "name": "sender",
          "type": "address"
        },
        {
          "indexed": false,
          "internalType": "bytes",
          "name": "receiver",
          "type": "bytes"
        },
        {
          "indexed": false,
          "internalType": "uint256",
          "name": "dstChainId",
          "type": "uint256"
        },
        {
          "indexed": false,
          "internalType": "bytes",
          "name": "message",
          "type": "bytes"
        },
        {
          "indexed": false,
          "internalType": "uint256",
          "name": "fee",
          "type": "uint256"
        }
      ],
      "name": "Message2",
      "type": "event"
    },
    {
      "anonymous": false,
      "inputs": [
        {
          "indexed": true,
          "internalType": "address",
          "name": "sender",
          "type": "address"
        },
        {
          "indexed": false,
          "internalType": "address",
          "name": "receiver",
          "type": "address"
        },
        {
          "indexed": false,
          "internalType": "uint256",
          "name": "dstChainId",
          "type": "uint256"
        },
        {
          "indexed": false,
          "internalType": "address",
          "name": "bridge",
          "type": "address"
        },
        {
          "indexed": false,
          "internalType": "bytes32",
          "name": "srcTransferId",
          "type": "bytes32"
        },
        {
          "indexed": false,
          "internalType": "bytes",
          "name": "message",
          "type": "bytes"
        },
        {
          "indexed": false,
          "internalType": "uint256",
          "name": "fee",
          "type": "uint256"
        }
      ],
      "name": "MessageWithTransfer",
      "type": "event"
    },
    {
      "anonymous": false,
      "inputs": [
        {
          "indexed": false,
          "internalType": "enum MsgDataTypes.MsgType",
          "name": "msgType",
          "type": "uint8"
        },
        {
          "indexed": false,
          "internalType": "bytes32",
          "name": "msgId",
          "type": "bytes32"
        },
        {
          "indexed": false,
          "internalType": "uint64",
          "name": "srcChainId",
          "type": "uint64"
        },
        {
          "indexed": false,
          "internalType": "bytes32",
          "name": "srcTxHash",
          "type": "bytes32"
        }
      ],
      "name": "NeedRetry",
      "type": "event"
    },
    {
      "anonymous": false,
      "inputs": [
        {
          "indexed": true,
          "internalType": "address",
          "name": "previousOwner",
          "type": "address"
        },
        {
          "indexed": true,
          "internalType": "address",
          "name": "newOwner",
          "type": "address"
        }
      ],
      "name": "OwnershipTransferred",
      "type": "event"
    },
    {
      "anonymous": false,
      "inputs": [
        {
          "indexed": false,
          "internalType": "address",
          "name": "pegBridge",
          "type": "address"
        }
      ],
      "name": "PegBridgeUpdated",
      "type": "event"
    },
    {
      "anonymous": false,
      "inputs": [
        {
          "indexed": false,
          "internalType": "address",
          "name": "pegBridgeV2",
          "type": "address"
        }
      ],
      "name": "PegBridgeV2Updated",
      "type": "event"
    },
    {
      "anonymous": false,
      "inputs": [
        {
          "indexed": false,
          "internalType": "address",
          "name": "pegVault",
          "type": "address"
        }
      ],
      "name": "PegVaultUpdated",
      "type": "event"
    },
    {
      "anonymous": false,
      "inputs": [
        {
          "indexed": false,
          "internalType": "address",
          "name": "pegVaultV2",
          "type": "address"
        }
      ],
      "name": "PegVaultV2Updated",
      "type": "event"
    },
    {
      "inputs": [
        {
          "internalType": "bytes",
          "name": "_message",
          "type": "bytes"
        }
      ],
      "name": "calcFee",
      "outputs": [
        {
          "internalType": "uint256",
          "name": "",
          "type": "uint256"
        }
      ],
      "stateMutability": "view",
      "type": "function"
    },
    {
      "inputs": [
        {
          "internalType": "bytes",
          "name": "_message",
          "type": "bytes"
        },
        {
          "components": [
            {
              "internalType": "address",
              "name": "sender",
              "type": "address"
            },
            {
              "internalType": "address",
              "name": "receiver",
              "type": "address"
            },
            {
              "internalType": "uint64",
              "name": "srcChainId",
              "type": "uint64"
            },
            {
              "internalType": "bytes32",
              "name": "srcTxHash",
              "type": "bytes32"
            }
          ],
          "internalType": "struct MsgDataTypes.RouteInfo",
          "name": "_route",
          "type": "tuple"
        },
        {
          "internalType": "bytes[]",
          "name": "_sigs",
          "type": "bytes[]"
        },
        {
          "internalType": "address[]",
          "name": "_signers",
          "type": "address[]"
        },
        {
          "internalType": "uint256[]",
          "name": "_powers",
          "type": "uint256[]"
        }
      ],
      "name": "executeMessage",
      "outputs": [],
      "stateMutability": "payable",
      "type": "function"
    },
    {
      "inputs": [
        {
          "internalType": "bytes",
          "name": "_message",
          "type": "bytes"
        },
        {
          "components": [
            {
              "internalType": "bytes",
              "name": "sender",
              "type": "bytes"
            },
            {
              "internalType": "address",
              "name": "receiver",
              "type": "address"
            },
            {
              "internalType": "uint64",
              "name": "srcChainId",
              "type": "uint64"
            },
            {
              "internalType": "bytes32",
              "name": "srcTxHash",
              "type": "bytes32"
            }
          ],
          "internalType": "struct MsgDataTypes.RouteInfo2",
          "name": "_route",
          "type": "tuple"
        },
        {
          "internalType": "bytes[]",
          "name": "_sigs",
          "type": "bytes[]"
        },
        {
          "internalType": "address[]",
          "name": "_signers",
          "type": "address[]"
        },
        {
          "internalType": "uint256[]",
          "name": "_powers",
          "type": "uint256[]"
        }
      ],
      "name": "executeMessage",
      "outputs": [],
      "stateMutability": "payable",
      "type": "function"
    },
    {
      "inputs": [
        {
          "internalType": "bytes",
          "name": "_message",
          "type": "bytes"
        },
        {
          "components": [
            {
              "internalType": "enum MsgDataTypes.TransferType",
              "name": "t",
              "type": "uint8"
            },
            {
              "internalType": "address",
              "name": "sender",
              "type": "address"
            },
            {
              "internalType": "address",
              "name": "receiver",
              "type": "address"
            },
            {
              "internalType": "address",
              "name": "token",
              "type": "address"
            },
            {
              "internalType": "uint256",
              "name": "amount",
              "type": "uint256"
            },
            {
              "internalType": "uint64",
              "name": "wdseq",
              "type": "uint64"
            },
            {
              "internalType": "uint64",
              "name": "srcChainId",
              "type": "uint64"
            },
            {
              "internalType": "bytes32",
              "name": "refId",
              "type": "bytes32"
            },
            {
              "internalType": "bytes32",
              "name": "srcTxHash",
              "type": "bytes32"
            }
          ],
          "internalType": "struct MsgDataTypes.TransferInfo",
          "name": "_transfer",
          "type": "tuple"
        },
        {
          "internalType": "bytes[]",
          "name": "_sigs",
          "type": "bytes[]"
        },
        {
          "internalType": "address[]",
          "name": "_signers",
          "type": "address[]"
        },
        {
          "internalType": "uint256[]",
          "name": "_powers",
          "type": "uint256[]"
        }
      ],
      "name": "executeMessageWithTransfer",
      "outputs": [],
      "stateMutability": "payable",
      "type": "function"
    },
    {
      "inputs": [
        {
          "internalType": "bytes",
          "name": "_message",
          "type": "bytes"
        },
        {
          "components": [
            {
              "internalType": "enum MsgDataTypes.TransferType",
              "name": "t",
              "type": "uint8"
            },
            {
              "internalType": "address",
              "name": "sender",
              "type": "address"
            },
            {
              "internalType": "address",
              "name": "receiver",
              "type": "address"
            },
            {
              "internalType": "address",
              "name": "token",
              "type": "address"
            },
            {
              "internalType": "uint256",
              "name": "amount",
              "type": "uint256"
            },
            {
              "internalType": "uint64",
              "name": "wdseq",
              "type": "uint64"
            },
            {
              "internalType": "uint64",
              "name": "srcChainId",
              "type": "uint64"
            },
            {
              "internalType": "bytes32",
              "name": "refId",
              "type": "bytes32"
            },
            {
              "internalType": "bytes32",
              "name": "srcTxHash",
              "type": "bytes32"
            }
          ],
          "internalType": "struct MsgDataTypes.TransferInfo",
          "name": "_transfer",
          "type": "tuple"
        },
        {
          "internalType": "bytes[]",
          "name": "_sigs",
          "type": "bytes[]"
        },
        {
          "internalType": "address[]",
          "name": "_signers",
          "type": "address[]"
        },
        {
          "internalType": "uint256[]",
          "name": "_powers",
          "type": "uint256[]"
        }
      ],
      "name": "executeMessageWithTransferRefund",
      "outputs": [],
      "stateMutability": "payable",
      "type": "function"
    },
    {
      "inputs": [
        {
          "internalType": "bytes32",
          "name": "",
          "type": "bytes32"
        }
      ],
      "name": "executedMessages",
      "outputs": [
        {
          "internalType": "enum MsgDataTypes.TxStatus",
          "name": "",
          "type": "uint8"
        }
      ],
      "stateMutability": "view",
      "type": "function"
    },
    {
      "inputs": [],
      "name": "feeBase",
      "outputs": [
        {
          "internalType": "uint256",
          "name": "",
          "type": "uint256"
        }
      ],
      "stateMutability": "view",
      "type": "function"
    },
    {
      "inputs": [],
      "name": "feePerByte",
      "outputs": [
        {
          "internalType": "uint256",
          "name": "",
          "type": "uint256"
        }
      ],
      "stateMutability": "view",
      "type": "function"
    },
    {
      "inputs": [
        {
          "internalType": "address",
          "name": "_liquidityBridge",
          "type": "address"
        },
        {
          "internalType": "address",
          "name": "_pegBridge",
          "type": "address"
        },
        {
          "internalType": "address",
          "name": "_pegVault",
          "type": "address"
        },
        {
          "internalType": "address",
          "name": "_pegBridgeV2",
          "type": "address"
        },
        {
          "internalType": "address",
          "name": "_pegVaultV2",
          "type": "address"
        }
      ],
      "name": "init",
      "outputs": [],
      "stateMutability": "nonpayable",
      "type": "function"
    },
    {
      "inputs": [],
      "name": "liquidityBridge",
      "outputs": [
        {
          "internalType": "address",
          "name": "",
          "type": "address"
        }
      ],
      "stateMutability": "view",
      "type": "function"
    },
    {
      "inputs": [],
      "name": "owner",
      "outputs": [
        {
          "internalType": "address",
          "name": "",
          "type": "address"
        }
      ],
      "stateMutability": "view",
      "type": "function"
    },
    {
      "inputs": [],
      "name": "pegBridge",
      "outputs": [
        {
          "internalType": "address",
          "name": "",
          "type": "address"
        }
      ],
      "stateMutability": "view",
      "type": "function"
    },
    {
      "inputs": [],
      "name": "pegBridgeV2",
      "outputs": [
        {
          "internalType": "address",
          "name": "",
          "type": "address"
        }
      ],
      "stateMutability": "view",
      "type": "function"
    },
    {
      "inputs": [],
      "name": "pegVault",
      "outputs": [
        {
          "internalType": "address",
          "name": "",
          "type": "address"
        }
      ],
      "stateMutability": "view",
      "type": "function"
    },
    {
      "inputs": [],
      "name": "pegVaultV2",
      "outputs": [
        {
          "internalType": "address",
          "name": "",
          "type": "address"
        }
      ],
      "stateMutability": "view",
      "type": "function"
    },
    {
      "inputs": [],
      "name": "preExecuteMessageGasUsage",
      "outputs": [
        {
          "internalType": "uint256",
          "name": "",
          "type": "uint256"
        }
      ],
      "stateMutability": "view",
      "type": "function"
    },
    {
      "inputs": [
        {
          "components": [
            {
              "internalType": "bytes",
              "name": "request",
              "type": "bytes"
            },
            {
              "internalType": "bytes[]",
              "name": "sigs",
              "type": "bytes[]"
            },
            {
              "internalType": "address[]",
              "name": "signers",
              "type": "address[]"
            },
            {
              "internalType": "uint256[]",
              "name": "powers",
              "type": "uint256[]"
            }
          ],
          "internalType": "struct MsgDataTypes.BridgeTransferParams",
          "name": "_transferParams",
          "type": "tuple"
        },
        {
          "components": [
            {
              "internalType": "bytes",
              "name": "message",
              "type": "bytes"
            },
            {
              "components": [
                {
                  "internalType": "enum MsgDataTypes.TransferType",
                  "name": "t",
                  "type": "uint8"
                },
                {
                  "internalType": "address",
                  "name": "sender",
                  "type": "address"
                },
                {
                  "internalType": "address",
                  "name": "receiver",
                  "type": "address"
                },
                {
                  "internalType": "address",
                  "name": "token",
                  "type": "address"
                },
                {
                  "internalType": "uint256",
                  "name": "amount",
                  "type": "uint256"
                },
                {
                  "internalType": "uint64",
                  "name": "wdseq",
                  "type": "uint64"
                },
                {
                  "internalType": "uint64",
                  "name": "srcChainId",
                  "type": "uint64"
                },
                {
                  "internalType": "bytes32",
                  "name": "refId",
                  "type": "bytes32"
                },
                {
                  "internalType": "bytes32",
                  "name": "srcTxHash",
                  "type": "bytes32"
                }
              ],
              "internalType": "struct MsgDataTypes.TransferInfo",
              "name": "transfer",
              "type": "tuple"
            },
            {
              "internalType": "bytes[]",
              "name": "sigs",
              "type": "bytes[]"
            },
            {
              "internalType": "address[]",
              "name": "signers",
              "type": "address[]"
            },
            {
              "internalType": "uint256[]",
              "name": "powers",
              "type": "uint256[]"
            }
          ],
          "internalType": "struct MsgDataTypes.MsgWithTransferExecutionParams",
          "name": "_msgParams",
          "type": "tuple"
        }
      ],
      "name": "refundAndExecuteMsg",
      "outputs": [],
      "stateMutability": "nonpayable",
      "type": "function"
    },
    {
      "inputs": [
        {
          "internalType": "bytes",
          "name": "_receiver",
          "type": "bytes"
        },
        {
          "internalType": "uint256",
          "name": "_dstChainId",
          "type": "uint256"
        },
        {
          "internalType": "bytes",
          "name": "_message",
          "type": "bytes"
        }
      ],
      "name": "sendMessage",
      "outputs": [],
      "stateMutability": "payable",
      "type": "function"
    },
    {
      "inputs": [
        {
          "internalType": "address",
          "name": "_receiver",
          "type": "address"
        },
        {
          "internalType": "uint256",
          "name": "_dstChainId",
          "type": "uint256"
        },
        {
          "internalType": "bytes",
          "name": "_message",
          "type": "bytes"
        }
      ],
      "name": "sendMessage",
      "outputs": [],
      "stateMutability": "payable",
      "type": "function"
    },
    {
      "inputs": [
        {
          "internalType": "address",
          "name": "_receiver",
          "type": "address"
        },
        {
          "internalType": "uint256",
          "name": "_dstChainId",
          "type": "uint256"
        },
        {
          "internalType": "address",
          "name": "_srcBridge",
          "type": "address"
        },
        {
          "internalType": "bytes32",
          "name": "_srcTransferId",
          "type": "bytes32"
        },
        {
          "internalType": "bytes",
          "name": "_message",
          "type": "bytes"
        }
      ],
      "name": "sendMessageWithTransfer",
      "outputs": [],
      "stateMutability": "payable",
      "type": "function"
    },
    {
      "inputs": [
        {
          "internalType": "uint256",
          "name": "_fee",
          "type": "uint256"
        }
      ],
      "name": "setFeeBase",
      "outputs": [],
      "stateMutability": "nonpayable",
      "type": "function"
    },
    {
      "inputs": [
        {
          "internalType": "uint256",
          "name": "_fee",
          "type": "uint256"
        }
      ],
      "name": "setFeePerByte",
      "outputs": [],
      "stateMutability": "nonpayable",
      "type": "function"
    },
    {
      "inputs": [
        {
          "internalType": "address",
          "name": "_addr",
          "type": "address"
        }
      ],
      "name": "setLiquidityBridge",
      "outputs": [],
      "stateMutability": "nonpayable",
      "type": "function"
    },
    {
      "inputs": [
        {
          "internalType": "address",
          "name": "_addr",
          "type": "address"
        }
      ],
      "name": "setPegBridge",
      "outputs": [],
      "stateMutability": "nonpayable",
      "type": "function"
    },
    {
      "inputs": [
        {
          "internalType": "address",
          "name": "_addr",
          "type": "address"
        }
      ],
      "name": "setPegBridgeV2",
      "outputs": [],
      "stateMutability": "nonpayable",
      "type": "function"
    },
    {
      "inputs": [
        {
          "internalType": "address",
          "name": "_addr",
          "type": "address"
        }
      ],
      "name": "setPegVault",
      "outputs": [],
      "stateMutability": "nonpayable",
      "type": "function"
    },
    {
      "inputs": [
        {
          "internalType": "address",
          "name": "_addr",
          "type": "address"
        }
      ],
      "name": "setPegVaultV2",
      "outputs": [],
      "stateMutability": "nonpayable",
      "type": "function"
    },
    {
      "inputs": [
        {
          "internalType": "uint256",
          "name": "_usage",
          "type": "uint256"
        }
      ],
      "name": "setPreExecuteMessageGasUsage",
      "outputs": [],
      "stateMutability": "nonpayable",
      "type": "function"
    },
    {
      "inputs": [],
      "name": "sigsVerifier",
      "outputs": [
        {
          "internalType": "contract ISigsVerifier",
          "name": "",
          "type": "address"
        }
      ],
      "stateMutability": "view",
      "type": "function"
    },
    {
      "inputs": [
        {
          "components": [
            {
              "internalType": "bytes",
              "name": "request",
              "type": "bytes"
            },
            {
              "internalType": "bytes[]",
              "name": "sigs",
              "type": "bytes[]"
            },
            {
              "internalType": "address[]",
              "name": "signers",
              "type": "address[]"
            },
            {
              "internalType": "uint256[]",
              "name": "powers",
              "type": "uint256[]"
            }
          ],
          "internalType": "struct MsgDataTypes.BridgeTransferParams",
          "name": "_transferParams",
          "type": "tuple"
        },
        {
          "components": [
            {
              "internalType": "bytes",
              "name": "message",
              "type": "bytes"
            },
            {
              "components": [
                {
                  "internalType": "enum MsgDataTypes.TransferType",
                  "name": "t",
                  "type": "uint8"
                },
                {
                  "internalType": "address",
                  "name": "sender",
                  "type": "address"
                },
                {
                  "internalType": "address",
                  "name": "receiver",
                  "type": "address"
                },
                {
                  "internalType": "address",
                  "name": "token",
                  "type": "address"
                },
                {
                  "internalType": "uint256",
                  "name": "amount",
                  "type": "uint256"
                },
                {
                  "internalType": "uint64",
                  "name": "wdseq",
                  "type": "uint64"
                },
                {
                  "internalType": "uint64",
                  "name": "srcChainId",
                  "type": "uint64"
                },
                {
                  "internalType": "bytes32",
                  "name": "refId",
                  "type": "bytes32"
                },
                {
                  "internalType": "bytes32",
                  "name": "srcTxHash",
                  "type": "bytes32"
                }
              ],
              "internalType": "struct MsgDataTypes.TransferInfo",
              "name": "transfer",
              "type": "tuple"
            },
            {
              "internalType": "bytes[]",
              "name": "sigs",
              "type": "bytes[]"
            },
            {
              "internalType": "address[]",
              "name": "signers",
              "type": "address[]"
            },
            {
              "internalType": "uint256[]",
              "name": "powers",
              "type": "uint256[]"
            }
          ],
          "internalType": "struct MsgDataTypes.MsgWithTransferExecutionParams",
          "name": "_msgParams",
          "type": "tuple"
        }
      ],
      "name": "transferAndExecuteMsg",
      "outputs": [],
      "stateMutability": "nonpayable",
      "type": "function"
    },
    {
      "inputs": [
        {
          "internalType": "address",
          "name": "newOwner",
          "type": "address"
        }
      ],
      "name": "transferOwnership",
      "outputs": [],
      "stateMutability": "nonpayable",
      "type": "function"
    },
    {
      "inputs": [
        {
          "internalType": "address",
          "name": "_account",
          "type": "address"
        },
        {
          "internalType": "uint256",
          "name": "_cumulativeFee",
          "type": "uint256"
        },
        {
          "internalType": "bytes[]",
          "name": "_sigs",
          "type": "bytes[]"
        },
        {
          "internalType": "address[]",
          "name": "_signers",
          "type": "address[]"
        },
        {
          "internalType": "uint256[]",
          "name": "_powers",
          "type": "uint256[]"
        }
      ],
      "name": "withdrawFee",
      "outputs": [],
      "stateMutability": "nonpayable",
      "type": "function"
    },
    {
      "inputs": [
        {
          "internalType": "address",
          "name": "",
          "type": "address"
        }
      ],
      "name": "withdrawnFees",
      "outputs": [
        {
          "internalType": "uint256",
          "name": "",
          "type": "uint256"
        }
      ],
      "stateMutability": "view",
      "type": "function"
    }
  ],
  "bytecode": "0x60a06040523480156200001157600080fd5b5060405162003e1d38038062003e1d83398101604081905262000034916200011d565b84848484848a6200004533620000b4565b6001600160a01b03908116608052600580546001600160a01b0319908116978316979097179055600680548716958216959095179094556007805486169385169390931790925560088054851691841691909117905560098054909316911617905550620001b1945050505050565b600080546001600160a01b038381166001600160a01b0319831681178455604051919092169283917f8be0079c531659141344cd1fd0a4f28419497f9722a3daafe3b4186f6b6457e09190a35050565b6001600160a01b03811681146200011a57600080fd5b50565b60008060008060008060c087890312156200013757600080fd5b8651620001448162000104565b6020880151909650620001578162000104565b60408801519095506200016a8162000104565b60608801519094506200017d8162000104565b6080880151909350620001908162000104565b60a0880151909250620001a38162000104565b809150509295509295509295565b608051613c49620001d4600039600081816104db01526107c70152613c496000f3fe6080604052600436106101ee5760003560e01c806382980dc41161010d578063ccf2683b116100a0578063dfa2dbaf1161006f578063dfa2dbaf1461056d578063e2c1ed251461058d578063f2fde38b146105ad578063f60bbe2a146105cd578063f83b0fb9146105e357600080fd5b8063ccf2683b146104c9578063cd2abd66146104fd578063d8257d171461053a578063db2c20c81461055a57600080fd5b806395e911a8116100dc57806395e911a8146104605780639b05a775146104765780639f3ce55a14610496578063c66a9c5a146104a957600080fd5b806382980dc4146103ca57806382efd502146104025780638da5cb5b1461042257806395b12c271461044057600080fd5b8063468a2d04116101855780635b3e5f50116101545780635b3e5f5014610357578063723d0a9d146103845780637b80ab20146103a45780637d7a101d146103b757600080fd5b8063468a2d04146102db5780635335dca2146102ee578063584e45e114610321578063588be02b1461033757600080fd5b80633f395aff116101c15780633f395aff1461027557806340d0d026146102885780634289fbb3146102a85780634586f331146102bb57600080fd5b806303cbfe66146101f357806306c28bd6146102155780632ff4c41114610235578063359ef75b14610255575b600080fd5b3480156101ff57600080fd5b5061021361020e366004612c4f565b610603565b005b34801561022157600080fd5b50610213610230366004612c6a565b6106c0565b34801561024157600080fd5b50610213610250366004612cce565b61072e565b34801561026157600080fd5b50610213610270366004612d81565b6109b0565b610213610283366004612e27565b6109cc565b34801561029457600080fd5b506102136102a3366004612f2f565b610cb1565b6102136102b6366004612f9a565b610d09565b3480156102c757600080fd5b506102136102d6366004612c6a565b610df2565b6102136102e9366004613011565b610e30565b3480156102fa57600080fd5b5061030e6103093660046130d5565b610e7a565b6040519081526020015b60405180910390f35b34801561032d57600080fd5b5061030e600a5481565b34801561034357600080fd5b50610213610352366004612c4f565b610ea0565b34801561036357600080fd5b5061030e610372366004612c4f565b60036020526000908152604090205481565b34801561039057600080fd5b5061021361039f366004612f2f565b610f4d565b6102136103b2366004612e27565b610f9b565b6102136103c5366004613116565b6111a6565b3480156103d657600080fd5b506005546103ea906001600160a01b031681565b6040516001600160a01b039091168152602001610318565b34801561040e57600080fd5b5061021361041d366004612c4f565b611203565b34801561042e57600080fd5b506000546001600160a01b03166103ea565b34801561044c57600080fd5b506008546103ea906001600160a01b031681565b34801561046c57600080fd5b5061030e60015481565b34801561048257600080fd5b50610213610491366004612c4f565b6112b0565b6102136104a436600461318f565b61135d565b3480156104b557600080fd5b506009546103ea906001600160a01b031681565b3480156104d557600080fd5b506103ea7f000000000000000000000000000000000000000000000000000000000000000081565b34801561050957600080fd5b5061052d610518366004612c6a565b60046020526000908152604090205460ff1681565b6040516103189190613212565b34801561054657600080fd5b506007546103ea906001600160a01b031681565b610213610568366004613220565b6113b7565b34801561057957600080fd5b506006546103ea906001600160a01b031681565b34801561059957600080fd5b506102136105a8366004612c6a565b6113f6565b3480156105b957600080fd5b506102136105c8366004612c4f565b611464565b3480156105d957600080fd5b5061030e60025481565b3480156105ef57600080fd5b506102136105fe366004612c4f565b61150e565b336106166000546001600160a01b031690565b6001600160a01b0316146106455760405162461bcd60e51b815260040161063c906132e6565b60405180910390fd5b6001600160a01b03811661066b5760405162461bcd60e51b815260040161063c9061331b565b600680546001600160a01b0319166001600160a01b0383169081179091556040519081527fd60e9ceb4f54f1bfb1741a4b35fc9d806d7ed48200b523203b92248ea38fa17d906020015b60405180910390a150565b336106d36000546001600160a01b031690565b6001600160a01b0316146106f95760405162461bcd60e51b815260040161063c906132e6565b60018190556040518181527f892dfdc99ecd3bb4f2f2cb118dca02f0bd16640ff156d3c6459d4282e336a5f2906020016106b5565b6000463060405160200161076d92919091825260601b6001600160601b03191660208201526a776974686472617746656560a81b6034820152603f0190565b60408051808303601f19018152828252805160209182012090830181905260608c901b6001600160601b0319168383015260548084018c9052825180850390910181526074840192839052633416de1160e11b90925292507f00000000000000000000000000000000000000000000000000000000000000006001600160a01b03169163682dbc229161080e918b908b908b908b908b908b906078016134d2565b60006040518083038186803b15801561082657600080fd5b505afa15801561083a573d6000803e3d6000fd5b505050506001600160a01b038916600090815260036020526040812054610861908a613546565b9050600081116108b35760405162461bcd60e51b815260206004820152601960248201527f4e6f206e657720616d6f756e7420746f20776974686472617700000000000000604482015260640161063c565b6001600160a01b038a166000818152600360205260408082208c90555190919061c35090849084818181858888f193505050503d8060008114610912576040519150601f19603f3d011682016040523d82523d6000602084013e610917565b606091505b50509050806109615760405162461bcd60e51b81526020600482015260166024820152756661696c656420746f2077697468647261772066656560501b604482015260640161063c565b604080516001600160a01b038d168152602081018490527f78473f3f373f7673597f4f0fa5873cb4d375fea6d4339ad6b56dbd411513cb3f910160405180910390a15050505050505050505050565b6109b86115bb565b6109c58585858585611613565b5050505050565b60006109d7886116cb565b90506000808281526004602081905260409091205460ff16908111156109ff576109ff6131e8565b14610a485760405162461bcd60e51b81526020600482015260196024820152781d1c985b9cd9995c88185b1c9958591e48195e1958dd5d1959603a1b604482015260640161063c565b6000818152600460208181526040808420805460ff1916909317909255815146918101919091526001600160601b03193060601b16918101919091527226b2b9b9b0b3b2abb4ba342a3930b739b332b960691b6054820152606701604051602081830303815290604052805190602001209050600560009054906101000a90046001600160a01b03166001600160a01b031663682dbc2282848e8e8e6101000135604051602001610afd95949392919061355d565b6040516020818303038152906040528a8a8a8a8a8a6040518863ffffffff1660e01b8152600401610b3497969594939291906134d2565b60006040518083038186803b158015610b4c57600080fd5b505afa158015610b60573d6000803e3d6000fd5b50505050600080610b728b8e8e611f6d565b90506001816002811115610b8857610b886131e8565b1415610b975760019150610c61565b6002816002811115610bab57610bab6131e8565b1415610c2c576000848152600460205260408120805460ff19166001835b02179055507fe49c2c954d381d1448cf824743aeff9da7a1d82078a7c9e5817269cc359bd26c6000858d60c0016020810190610c05919061357f565b8e6101000135604051610c1b94939291906135b8565b60405180910390a150505050610ca6565b610c378b8e8e6120a8565b90506001816002811115610c4d57610c4d6131e8565b1415610c5c5760039150610c61565b600291505b60008481526004602081905260409091208054849260ff19909116906001908490811115610c9157610c916131e8565b0217905550610ca184838d6120e3565b505050505b505050505050505050565b610cca610cc460408301602084016135ea565b83612155565b610d05610cd7828061360b565b60208401610ce9610140860186613651565b610cf7610160880188613651565b6103b26101808a018a613651565b5050565b46851415610d4b5760405162461bcd60e51b815260206004820152600f60248201526e125b9d985b1a590818da185a5b9259608a1b604482015260640161063c565b6000610d578383610e7a565b905080341015610d9c5760405162461bcd60e51b815260206004820152601060248201526f496e73756666696369656e742066656560801b604482015260640161063c565b336001600160a01b03167f172762498a59a3bc4fed3f2b63f94f17ea0193cffdc304fe7d3eaf4d342d2f6688888888888834604051610de1979695949392919061369a565b60405180910390a250505050505050565b33610e056000546001600160a01b031690565b6001600160a01b031614610e2b5760405162461bcd60e51b815260040161063c906132e6565b600a55565b6000610e3b886123b4565b9050610e6e8a8a838a8a8a8a8a8a604051806040016040528060078152602001664d65737361676560c81b81525061246a565b50505050505050505050565b600254600090610e8a90836136e9565b600154610e979190613708565b90505b92915050565b33610eb36000546001600160a01b031690565b6001600160a01b031614610ed95760405162461bcd60e51b815260040161063c906132e6565b6001600160a01b038116610eff5760405162461bcd60e51b815260040161063c9061331b565b600580546001600160a01b0319166001600160a01b0383169081179091556040519081527fbf9977180dc6e6cff25598c8e59150cecd7f8e448e092633d38ab7ee223ae058906020016106b5565b610f60610cc460408301602084016135ea565b610d05610f6d828061360b565b60208401610f7f610140860186613651565b610f8d610160880188613651565b6102836101808a018a613651565b6000610fa6886116cb565b90506000808281526004602081905260409091205460ff1690811115610fce57610fce6131e8565b146110175760405162461bcd60e51b81526020600482015260196024820152781d1c985b9cd9995c88185b1c9958591e48195e1958dd5d1959603a1b604482015260640161063c565b6000818152600460208181526040808420805460ff1916909317909255815146918101919091526001600160601b03193060601b16918101919091527f4d657373616765576974685472616e73666572526566756e64000000000000006054820152606d01604051602081830303815290604052805190602001209050600560009054906101000a90046001600160a01b03166001600160a01b031663682dbc2282848e8e8e61010001356040516020016110d695949392919061355d565b6040516020818303038152906040528a8a8a8a8a8a6040518863ffffffff1660e01b815260040161110d97969594939291906134d2565b60006040518083038186803b15801561112557600080fd5b505afa158015611139573d6000803e3d6000fd5b5050505060008061114b8b8e8e6126c0565b90506001816002811115611161576111616131e8565b14156111705760019150610c61565b6002816002811115611184576111846131e8565b1415610c5c576000848152600460205260408120805460ff1916600183610bc9565b6111b1838383612717565b336001600160a01b03167fe66fbe37d84ca73c589f782ac278844918ea6c56a4917f58707f715588080df28686868686346040516111f496959493929190613720565b60405180910390a25050505050565b336112166000546001600160a01b031690565b6001600160a01b03161461123c5760405162461bcd60e51b815260040161063c906132e6565b6001600160a01b0381166112625760405162461bcd60e51b815260040161063c9061331b565b600880546001600160a01b0319166001600160a01b0383169081179091556040519081527ffb337a6c76476534518d5816caeb86263972470fedccfd047a35eb1825eaa9e8906020016106b5565b336112c36000546001600160a01b031690565b6001600160a01b0316146112e95760405162461bcd60e51b815260040161063c906132e6565b6001600160a01b03811661130f5760405162461bcd60e51b815260040161063c9061331b565b600780546001600160a01b0319166001600160a01b0383169081179091556040519081527fa9db0c32d9c6c2f75f3b95047a9e67cc1c010eab792a4e6ca777ce918ad94aad906020016106b5565b611368838383612717565b336001600160a01b03167fce3972bfffe49d317e1d128047a97a3d86b25c94f6f04409f988ef854d25e0e485858585346040516113a9959493929190613761565b60405180910390a250505050565b60006113c2886127b0565b9050610e6e8a8a838a8a8a8a8a8a6040518060400160405280600881526020016726b2b9b9b0b3b29960c11b81525061246a565b336114096000546001600160a01b031690565b6001600160a01b03161461142f5760405162461bcd60e51b815260040161063c906132e6565b60028190556040518181527f210d4d5d2d36d571207dac98e383e2441c684684c885fb2d7c54f8d24422074c906020016106b5565b336114776000546001600160a01b031690565b6001600160a01b03161461149d5760405162461bcd60e51b815260040161063c906132e6565b6001600160a01b0381166115025760405162461bcd60e51b815260206004820152602660248201527f4f776e61626c653a206e6577206f776e657220697320746865207a65726f206160448201526564647265737360d01b606482015260840161063c565b61150b81612846565b50565b336115216000546001600160a01b031690565b6001600160a01b0316146115475760405162461bcd60e51b815260040161063c906132e6565b6001600160a01b03811661156d5760405162461bcd60e51b815260040161063c9061331b565b600980546001600160a01b0319166001600160a01b0383169081179091556040519081527f918a691a2a82482a10e11f43d7b627b2ba220dd08f251cb61933c42560f6fcb5906020016106b5565b6000546001600160a01b0316156116085760405162461bcd60e51b81526020600482015260116024820152701bdddb995c88185b1c9958591e481cd95d607a1b604482015260640161063c565b61161133612846565b565b6005546001600160a01b03161561166c5760405162461bcd60e51b815260206004820152601b60248201527f6c697175696469747942726964676520616c7265616479207365740000000000604482015260640161063c565b600580546001600160a01b03199081166001600160a01b03978816179091556006805482169587169590951790945560078054851693861693909317909255600880548416918516919091179055600980549092169216919091179055565b6000808060016116de60208601866135ea565b60068111156116ef576116ef6131e8565b1415611883576117056040850160208601612c4f565b6117156060860160408701612c4f565b6117256080870160608801612c4f565b608087013561173a60e0890160c08a0161357f565b6040516001600160601b0319606096871b8116602083015294861b851660348201529290941b9092166048820152605c8101919091526001600160c01b031960c092831b8116607c8301524690921b909116608482015260e0850135608c82015260ac0160408051808303601f19018152908290528051602090910120600554633c64f04b60e01b8352600483018290529093506001600160a01b031691508190633c64f04b9060240160206040518083038186803b1580156117fc57600080fd5b505afa158015611810573d6000803e3d6000fd5b505050506040513d601f19601f82011682018060405250810190611834919061379b565b151560011461187e5760405162461bcd60e51b8152602060048201526016602482015275189c9a5919d9481c995b185e481b9bdd08195e1a5cdd60521b604482015260640161063c565b611f38565b600261189260208601866135ea565b60068111156118a3576118a36131e8565b1415611a1057466118ba60c0860160a0870161357f565b6118ca6060870160408801612c4f565b6118da6080880160608901612c4f565b6040516001600160c01b031960c095861b811660208301529390941b90921660288401526001600160601b0319606091821b8116603085015291901b1660448201526080850135605882015260780160408051808303601f19018152908290528051602090910120600554631c13568560e31b8352600483018290529093506001600160a01b03169150819063e09ab4289060240160206040518083038186803b15801561198757600080fd5b505afa15801561199b573d6000803e3d6000fd5b505050506040513d601f19601f820116820180604052508101906119bf919061379b565b151560011461187e5760405162461bcd60e51b815260206004820152601960248201527f627269646765207769746864726177206e6f7420657869737400000000000000604482015260640161063c565b6003611a1f60208601866135ea565b6006811115611a3057611a306131e8565b1480611a5957506004611a4660208601866135ea565b6006811115611a5757611a576131e8565b145b15611ccf57611a6e6060850160408601612c4f565b611a7e6080860160608701612c4f565b6080860135611a936040880160208901612c4f565b611aa360e0890160c08a0161357f565b604051606095861b6001600160601b0319908116602083015294861b851660348201526048810193909352931b909116606882015260c09190911b6001600160c01b031916607c82015260e0850135608482015260a40160408051601f19818403018152919052805160209091012091506003611b2360208601866135ea565b6006811115611b3457611b346131e8565b1415611c0357506006546040516301e6472560e01b8152600481018390526001600160a01b039091169081906301e64725906024015b60206040518083038186803b158015611b8257600080fd5b505afa158015611b96573d6000803e3d6000fd5b505050506040513d601f19601f82011682018060405250810190611bba919061379b565b151560011461187e5760405162461bcd60e51b81526020600482015260156024820152741b5a5b9d081c9958dbdc99081b9bdd08195e1a5cdd605a1b604482015260640161063c565b506007546040516301e6472560e01b8152600481018390526001600160a01b039091169081906301e647259060240160206040518083038186803b158015611c4a57600080fd5b505afa158015611c5e573d6000803e3d6000fd5b505050506040513d601f19601f82011682018060405250810190611c82919061379b565b151560011461187e5760405162461bcd60e51b81526020600482015260196024820152781dda5d1a191c985dc81c9958dbdc99081b9bdd08195e1a5cdd603a1b604482015260640161063c565b6005611cde60208601866135ea565b6006811115611cef57611cef6131e8565b1480611d1857506006611d0560208601866135ea565b6006811115611d1657611d166131e8565b145b15611f38576005611d2c60208601866135ea565b6006811115611d3d57611d3d6131e8565b1415611d5557506008546001600160a01b0316611d63565b506009546001600160a01b03165b611d736060850160408601612c4f565b611d836080860160608701612c4f565b6080860135611d986040880160208901612c4f565b611da860e0890160c08a0161357f565b604051606095861b6001600160601b0319908116602083015294861b85166034820152604881019390935290841b8316606883015260c01b6001600160c01b031916607c82015260e087013560848201529183901b1660a482015260b80160408051601f19818403018152919052805160209091012091506005611e2f60208601866135ea565b6006811115611e4057611e406131e8565b1415611e73576040516301e6472560e01b8152600481018390526001600160a01b038216906301e6472590602401611b6a565b6040516301e6472560e01b8152600481018390526001600160a01b038216906301e647259060240160206040518083038186803b158015611eb357600080fd5b505afa158015611ec7573d6000803e3d6000fd5b505050506040513d601f19601f82011682018060405250810190611eeb919061379b565b1515600114611f385760405162461bcd60e51b81526020600482015260196024820152781dda5d1a191c985dc81c9958dbdc99081b9bdd08195e1a5cdd603a1b604482015260640161063c565b60008183604051602001611f4e939291906137d4565b6040516020818303038152906040528051906020012092505050919050565b6000805a9050600080611f866060880160408901612c4f565b6001600160a01b031634631f34afff60e21b611fa860408b0160208c01612c4f565b611fb860808c0160608d01612c4f565b60808c0135611fcd60e08e0160c08f0161357f565b8c8c33604051602401611fe69796959493929190613800565b60408051601f198184030181529181526020820180516001600160e01b03166001600160e01b03199094169390931790925290516120249190613857565b60006040518083038185875af1925050503d8060008114612061576040519150601f19603f3d011682016040523d82523d6000602084013e612066565b606091505b5091509150811561208f57808060200190518101906120859190613873565b93505050506120a1565b6120998382612896565b600093505050505b9392505050565b6000805a90506000806120c16060880160408901612c4f565b6001600160a01b031634632d5bd7e360e11b611fa860408b0160208c01612c4f565b6120f36060820160408301612c4f565b6001600160a01b03167fa635eb05143f74743822bbd96428928de4c8ee8cc578299749be9425c17bb34d6000858561213160e0870160c0880161357f565b866101000135604051612148959493929190613894565b60405180910390a2505050565b6001826006811115612169576121696131e8565b141561220a576005546001600160a01b031663cdd1b25d61218a838061360b565b6121976020860186613651565b6121a46040880188613651565b6121b160608a018a613651565b6040518963ffffffff1660e01b81526004016121d49897969594939291906138d1565b600060405180830381600087803b1580156121ee57600080fd5b505af1158015612202573d6000803e3d6000fd5b505050505050565b600282600681111561221e5761221e6131e8565b141561223f576005546001600160a01b031663a21a928061218a838061360b565b6003826006811115612253576122536131e8565b1415612274576006546001600160a01b031663f873430261218a838061360b565b6005826006811115612288576122886131e8565b141561234a576008546001600160a01b031663f87343026122a9838061360b565b6122b66020860186613651565b6122c36040880188613651565b6122d060608a018a613651565b6040518963ffffffff1660e01b81526004016122f39897969594939291906138d1565b602060405180830381600087803b15801561230d57600080fd5b505af1158015612321573d6000803e3d6000fd5b505050506040513d601f19601f820116820180604052508101906123459190613931565b505050565b600482600681111561235e5761235e6131e8565b141561237f576007546001600160a01b031663a21a928061218a838061360b565b6006826006811115612393576123936131e8565b1415610d05576009546001600160a01b031663a21a92806122a9838061360b565b6040805160a081018252600080825260606020830181905292820181905291810182905260808101919091526040805160a08101909152806123f96020850185612c4f565b6001600160a01b0316815260200160405180602001604052806000815250815260200183602001602081019061242f9190612c4f565b6001600160a01b0316815260200161244d606085016040860161357f565b6001600160401b0316815260200183606001358152509050919050565b6000612477898c8c612912565b90506000808281526004602081905260409091205460ff169081111561249f5761249f6131e8565b146124ec5760405162461bcd60e51b815260206004820152601860248201527f6d65737361676520616c72656164792065786563757465640000000000000000604482015260640161063c565b6000818152600460208181526040808420805460ff1916909317909255905161251b914691309187910161394a565b60408051601f1981840301815282825280516020918201206005549184018190528383018690528251808503840181526060850193849052633416de1160e11b90935293506001600160a01b03169163682dbc2291612588918d908d908d908d908d908d906064016134d2565b60006040518083038186803b1580156125a057600080fd5b505afa1580156125b4573d6000803e3d6000fd5b505050506000806125c68c8f8f6129a4565b905060018160028111156125dc576125dc6131e8565b14156125eb5760019150612670565b60028160028111156125ff576125ff6131e8565b141561266b5760008481526004602052604090819020805460ff1916905560608d015160808e015191517fe49c2c954d381d1448cf824743aeff9da7a1d82078a7c9e5817269cc359bd26c9261265a926001928992906135b8565b60405180910390a150505050610e6e565b600291505b60008481526004602081905260409091208054849260ff199091169060019084908111156126a0576126a06131e8565b02179055506126b084838e612b86565b5050505050505050505050505050565b6000805a90506000806126d96060880160408901612c4f565b6001600160a01b0316346305e5a4c160e11b6126fb60808b0160608c01612c4f565b8a608001358a8a33604051602401611fe6959493929190613989565b468314156127595760405162461bcd60e51b815260206004820152600f60248201526e125b9d985b1a590818da185a5b9259608a1b604482015260640161063c565b60006127658383610e7a565b9050803410156127aa5760405162461bcd60e51b815260206004820152601060248201526f496e73756666696369656e742066656560801b604482015260640161063c565b50505050565b6040805160a081018252600080825260606020830181905292820181905291810182905260808101919091526040805160a0810190915260008152602081016127f9848061360b565b8080601f01602080910402602001604051908101604052809392919081815260200183838082843760009201919091525050509082525060209081019061242f9060408601908601612c4f565b600080546001600160a01b038381166001600160a01b0319831681178455604051919092169283917f8be0079c531659141344cd1fd0a4f28419497f9722a3daafe3b4186f6b6457e09190a35050565b60005a90506000600a54456128ab9190613546565b905080841080156128c657506128c26040856139c7565b8211155b156128cd57fe5b7fffdd6142bbb721f3400e3908b04b86f60649b2e4d191e3f4c50c32c3e6471d2f6128f784612bd4565b60405161290491906139e9565b60405180910390a150505050565b6020830151805160009190612958578451604051612946919060200160609190911b6001600160601b031916815260140190565b60405160208183030381529060405290505b6001818660400151876060015188608001514689896040516020016129849897969594939291906139fc565b604051602081830303815290604052805190602001209150509392505050565b6000805a90506000606086602001515160001415612a955786604001516001600160a01b0316346040518060600160405280602c8152602001613be8602c91398051602090910120895160608b0151604051612a0a9291908c908c903390602401613a79565b60408051601f198184030181529181526020820180516001600160e01b03166001600160e01b0319909416939093179092529051612a489190613857565b60006040518083038185875af1925050503d8060008114612a85576040519150601f19603f3d011682016040523d82523d6000602084013e612a8a565b606091505b509092509050612b6c565b86604001516001600160a01b0316346040518060600160405280602a8152602001613bbe602a91398051906020012089602001518a606001518a8a33604051602401612ae5959493929190613aab565b60408051601f198184030181529181526020820180516001600160e01b03166001600160e01b0319909416939093179092529051612b239190613857565b60006040518083038185875af1925050503d8060008114612b60576040519150601f19603f3d011682016040523d82523d6000602084013e612b65565b606091505b5090925090505b811561208f57808060200190518101906120859190613873565b80604001516001600160a01b03167fa635eb05143f74743822bbd96428928de4c8ee8cc578299749be9425c17bb34d6001858585606001518660800151604051612148959493929190613894565b6060604482511015612c1957505060408051808201909152601d81527f5472616e73616374696f6e2072657665727465642073696c656e746c79000000602082015290565b60048201915081806020019051810190610e9a9190613b11565b80356001600160a01b0381168114612c4a57600080fd5b919050565b600060208284031215612c6157600080fd5b610e9782612c33565b600060208284031215612c7c57600080fd5b5035919050565b60008083601f840112612c9557600080fd5b5081356001600160401b03811115612cac57600080fd5b6020830191508360208260051b8501011115612cc757600080fd5b9250929050565b60008060008060008060008060a0898b031215612cea57600080fd5b612cf389612c33565b97506020890135965060408901356001600160401b0380821115612d1657600080fd5b612d228c838d01612c83565b909850965060608b0135915080821115612d3b57600080fd5b612d478c838d01612c83565b909650945060808b0135915080821115612d6057600080fd5b50612d6d8b828c01612c83565b999c989b5096995094979396929594505050565b600080600080600060a08688031215612d9957600080fd5b612da286612c33565b9450612db060208701612c33565b9350612dbe60408701612c33565b9250612dcc60608701612c33565b9150612dda60808701612c33565b90509295509295909350565b60008083601f840112612df857600080fd5b5081356001600160401b03811115612e0f57600080fd5b602083019150836020828501011115612cc757600080fd5b6000806000806000806000806000898b036101a0811215612e4757600080fd5b8a356001600160401b0380821115612e5e57600080fd5b612e6a8e838f01612de6565b909c509a508a9150610120601f1984011215612e8557600080fd5b60208d0199506101408d0135925080831115612ea057600080fd5b612eac8e848f01612c83565b90995097506101608d0135925088915080831115612ec957600080fd5b612ed58e848f01612c83565b90975095506101808d0135925086915080831115612ef257600080fd5b5050612f008c828d01612c83565b915080935050809150509295985092959850929598565b600060808284031215612f2957600080fd5b50919050565b60008060408385031215612f4257600080fd5b82356001600160401b0380821115612f5957600080fd5b612f6586838701612f17565b93506020850135915080821115612f7b57600080fd5b5083016101a08186031215612f8f57600080fd5b809150509250929050565b60008060008060008060a08789031215612fb357600080fd5b612fbc87612c33565b955060208701359450612fd160408801612c33565b93506060870135925060808701356001600160401b03811115612ff357600080fd5b612fff89828a01612de6565b979a9699509497509295939492505050565b60008060008060008060008060006101008a8c03121561303057600080fd5b89356001600160401b038082111561304757600080fd5b6130538d838e01612de6565b909b5099508991506130688d60208e01612f17565b985060a08c013591508082111561307e57600080fd5b61308a8d838e01612c83565b909850965060c08c01359150808211156130a357600080fd5b6130af8d838e01612c83565b909650945060e08c01359150808211156130c857600080fd5b50612f008c828d01612c83565b600080602083850312156130e857600080fd5b82356001600160401b038111156130fe57600080fd5b61310a85828601612de6565b90969095509350505050565b60008060008060006060868803121561312e57600080fd5b85356001600160401b038082111561314557600080fd5b61315189838a01612de6565b909750955060208801359450604088013591508082111561317157600080fd5b5061317e88828901612de6565b969995985093965092949392505050565b600080600080606085870312156131a557600080fd5b6131ae85612c33565b93506020850135925060408501356001600160401b038111156131d057600080fd5b6131dc87828801612de6565b95989497509550505050565b634e487b7160e01b600052602160045260246000fd5b6005811061320e5761320e6131e8565b9052565b60208101610e9a82846131fe565b600080600080600080600080600060a08a8c03121561323e57600080fd5b89356001600160401b038082111561325557600080fd5b6132618d838e01612de6565b909b50995060208c013591508082111561327a57600080fd5b6132868d838e01612f17565b985060408c013591508082111561329c57600080fd5b6132a88d838e01612c83565b909850965060608c01359150808211156132c157600080fd5b6132cd8d838e01612c83565b909650945060808c01359150808211156130c857600080fd5b6020808252818101527f4f776e61626c653a2063616c6c6572206973206e6f7420746865206f776e6572604082015260600190565b6020808252600f908201526e696e76616c6964206164647265737360881b604082015260600190565b60005b8381101561335f578181015183820152602001613347565b838111156127aa5750506000910152565b60008151808452613388816020860160208601613344565b601f01601f19169290920160200192915050565b81835281816020850137506000828201602090810191909152601f909101601f19169091010190565b81835260006020808501808196508560051b810191508460005b878110156134485782840389528135601e1988360301811261340057600080fd5b870180356001600160401b0381111561341857600080fd5b80360389131561342757600080fd5b613434868289850161339c565b9a87019a95505050908401906001016133df565b5091979650505050505050565b8183526000602080850194508260005b85811015613491576001600160a01b0361347e83612c33565b1687529582019590820190600101613465565b509495945050505050565b81835260006001600160fb1b038311156134b557600080fd5b8260051b8083602087013760009401602001938452509192915050565b6080815260006134e5608083018a613370565b82810360208401526134f881898b6133c5565b9050828103604084015261350d818789613455565b9050828103606084015261352281858761349c565b9a9950505050505050505050565b634e487b7160e01b600052601160045260246000fd5b60008282101561355857613558613530565b500390565b8581528460208201528284604083013760409201918201526060019392505050565b60006020828403121561359157600080fd5b81356001600160401b03811681146120a157600080fd5b6002811061320e5761320e6131e8565b608081016135c682876135a8565b8460208301526001600160401b038416604083015282606083015295945050505050565b6000602082840312156135fc57600080fd5b8135600781106120a157600080fd5b6000808335601e1984360301811261362257600080fd5b8301803591506001600160401b0382111561363c57600080fd5b602001915036819003821315612cc757600080fd5b6000808335601e1984360301811261366857600080fd5b8301803591506001600160401b0382111561368257600080fd5b6020019150600581901b3603821315612cc757600080fd5b6001600160a01b03888116825260208201889052861660408201526060810185905260c0608082018190526000906136d5908301858761339c565b90508260a083015298975050505050505050565b600081600019048311821515161561370357613703613530565b500290565b6000821982111561371b5761371b613530565b500190565b60808152600061373460808301888a61339c565b866020840152828103604084015261374d81868861339c565b915050826060830152979650505050505050565b60018060a01b038616815284602082015260806040820152600061378960808301858761339c565b90508260608301529695505050505050565b6000602082840312156137ad57600080fd5b815180151581146120a157600080fd5b600281106137cd576137cd6131e8565b60f81b9052565b6137de81856137bd565b60609290921b6001600160601b03191660018301526015820152603501919050565b600060018060a01b03808a16835280891660208401528760408401526001600160401b038716606084015260c0608084015261384060c08401868861339c565b915080841660a08401525098975050505050505050565b60008251613869818460208701613344565b9190910192915050565b60006020828403121561388557600080fd5b8151600381106120a157600080fd5b60a081016138a282886135a8565b8560208301526138b560408301866131fe565b6001600160401b03939093166060820152608001529392505050565b6080815260006138e5608083018a8c61339c565b82810360208401526138f881898b6133c5565b9050828103604084015261390d818789613455565b9050828103606084015261392281858761349c565b9b9a5050505050505050505050565b60006020828403121561394357600080fd5b5051919050565b8381526bffffffffffffffffffffffff198360601b1660208201526000825161397a816034850160208701613344565b91909101603401949350505050565b600060018060a01b038088168352866020840152608060408401526139b260808401868861339c565b91508084166060840152509695505050505050565b6000826139e457634e487b7160e01b600052601260045260246000fd5b500490565b602081526000610e976020830184613370565b613a06818a6137bd565b60008851613a1b816001850160208d01613344565b606089901b6001600160601b03191660019184019182015260c088811b6001600160c01b03199081166015840152601d83018990529087901b16603d8201528385604583013760009301604501928352509098975050505050505050565b600060018060a01b0380881683526001600160401b0387166020840152608060408401526139b260808401868861339c565b608081526000613abe6080830188613370565b6001600160401b03871660208401528281036040840152613ae081868861339c565b91505060018060a01b03831660608301529695505050505050565b634e487b7160e01b600052604160045260246000fd5b600060208284031215613b2357600080fd5b81516001600160401b0380821115613b3a57600080fd5b818401915084601f830112613b4e57600080fd5b815181811115613b6057613b60613afb565b604051601f8201601f19908116603f01168101908382118183101715613b8857613b88613afb565b81604052828152876020848701011115613ba157600080fd5b613bb2836020830160208801613344565b97965050505050505056fe657865637574654d6573736167652862797465732c75696e7436342c62797465732c6164647265737329657865637574654d65737361676528616464726573732c75696e7436342c62797465732c6164647265737329a26469706673582212207214072b0cb86daa0c89f8a4933d2637f2b5f4072005ab1e9497ce7808df35cc64736f6c63430008090033",
  "linkReferences": {},
  "deployedLinkReferences": {}
}