{
  "_format": "hh-sol-artifact-1",
  "contractName": "MsgExampleInOrder",
  "sourceName": "contracts/cBridge/message/apps/examples/MsgExampleInOrder.sol",
  "abi": [
    {
      "inputs": [
        {
          "internalType": "address",
          "name": "_messageBus",
          "type": "address"
        }
      ],
      "stateMutability": "nonpayable",
      "type": "constructor"
    },
    {
      "anonymous": false,
      "inputs": [
        {
          "indexed": false,
          "internalType": "address",
          "name": "messageBus",
          "type": "address"
        }
      ],
      "name": "MessageBusUpdated",
      "type": "event"
    },
    {
      "anonymous": false,
      "inputs": [
        {
          "indexed": false,
          "internalType": "address",
          "name": "srcContract",
          "type": "address"
        },
        {
          "indexed": false,
          "internalType": "uint64",
          "name": "srcChainId",
          "type": "uint64"
        },
        {
          "indexed": false,
          "internalType": "address",
          "name": "sender",
          "type": "address"
        },
        {
          "indexed": false,
          "internalType": "uint64",
          "name": "seq",
          "type": "uint64"
        },
        {
          "indexed": false,
          "internalType": "bytes",
          "name": "message",
          "type": "bytes"
        }
      ],
      "name": "MessageReceived",
      "type": "event"
    },
    {
      "anonymous": false,
      "inputs": [
        {
          "indexed": true,
          "internalType": "address",
          "name": "previousOwner",
          "type": "address"
        },
        {
          "indexed": true,
          "internalType": "address",
          "name": "newOwner",
          "type": "address"
        }
      ],
      "name": "OwnershipTransferred",
      "type": "event"
    },
    {
      "inputs": [
        {
          "internalType": "bytes",
          "name": "_sender",
          "type": "bytes"
        },
        {
          "internalType": "uint64",
          "name": "_srcChainId",
          "type": "uint64"
        },
        {
          "internalType": "bytes",
          "name": "_message",
          "type": "bytes"
        },
        {
          "internalType": "address",
          "name": "_executor",
          "type": "address"
        }
      ],
      "name": "executeMessage",
      "outputs": [
        {
          "internalType": "enum IMessageReceiverApp.ExecutionStatus",
          "name": "",
          "type": "uint8"
        }
      ],
      "stateMutability": "payable",
      "type": "function"
    },
    {
      "inputs": [
        {
          "internalType": "address",
          "name": "_srcContract",
          "type": "address"
        },
        {
          "internalType": "uint64",
          "name": "_srcChainId",
          "type": "uint64"
        },
        {
          "internalType": "bytes",
          "name": "_message",
          "type": "bytes"
        },
        {
          "internalType": "address",
          "name": "",
          "type": "address"
        }
      ],
      "name": "executeMessage",
      "outputs": [
        {
          "internalType": "enum IMessageReceiverApp.ExecutionStatus",
          "name": "",
          "type": "uint8"
        }
      ],
      "stateMutability": "payable",
      "type": "function"
    },
    {
      "inputs": [
        {
          "internalType": "address",
          "name": "_sender",
          "type": "address"
        },
        {
          "internalType": "address",
          "name": "_token",
          "type": "address"
        },
        {
          "internalType": "uint256",
          "name": "_amount",
          "type": "uint256"
        },
        {
          "internalType": "uint64",
          "name": "_srcChainId",
          "type": "uint64"
        },
        {
          "internalType": "bytes",
          "name": "_message",
          "type": "bytes"
        },
        {
          "internalType": "address",
          "name": "_executor",
          "type": "address"
        }
      ],
      "name": "executeMessageWithTransfer",
      "outputs": [
        {
          "internalType": "enum IMessageReceiverApp.ExecutionStatus",
          "name": "",
          "type": "uint8"
        }
      ],
      "stateMutability": "payable",
      "type": "function"
    },
    {
      "inputs": [
        {
          "internalType": "address",
          "name": "_sender",
          "type": "address"
        },
        {
          "internalType": "address",
          "name": "_token",
          "type": "address"
        },
        {
          "internalType": "uint256",
          "name": "_amount",
          "type": "uint256"
        },
        {
          "internalType": "uint64",
          "name": "_srcChainId",
          "type": "uint64"
        },
        {
          "internalType": "bytes",
          "name": "_message",
          "type": "bytes"
        },
        {
          "internalType": "address",
          "name": "_executor",
          "type": "address"
        }
      ],
      "name": "executeMessageWithTransferFallback",
      "outputs": [
        {
          "internalType": "enum IMessageReceiverApp.ExecutionStatus",
          "name": "",
          "type": "uint8"
        }
      ],
      "stateMutability": "payable",
      "type": "function"
    },
    {
      "inputs": [
        {
          "internalType": "address",
          "name": "_token",
          "type": "address"
        },
        {
          "internalType": "uint256",
          "name": "_amount",
          "type": "uint256"
        },
        {
          "internalType": "bytes",
          "name": "_message",
          "type": "bytes"
        },
        {
          "internalType": "address",
          "name": "_executor",
          "type": "address"
        }
      ],
      "name": "executeMessageWithTransferRefund",
      "outputs": [
        {
          "internalType": "enum IMessageReceiverApp.ExecutionStatus",
          "name": "",
          "type": "uint8"
        }
      ],
      "stateMutability": "payable",
      "type": "function"
    },
    {
      "inputs": [],
      "name": "messageBus",
      "outputs": [
        {
          "internalType": "address",
          "name": "",
          "type": "address"
        }
      ],
      "stateMutability": "view",
      "type": "function"
    },
    {
      "inputs": [],
      "name": "owner",
      "outputs": [
        {
          "internalType": "address",
          "name": "",
          "type": "address"
        }
      ],
      "stateMutability": "view",
      "type": "function"
    },
    {
      "inputs": [
        {
          "internalType": "uint64",
          "name": "",
          "type": "uint64"
        },
        {
          "internalType": "address",
          "name": "",
          "type": "address"
        }
      ],
      "name": "recvSeq",
      "outputs": [
        {
          "internalType": "uint64",
          "name": "",
          "type": "uint64"
        }
      ],
      "stateMutability": "view",
      "type": "function"
    },
    {
      "inputs": [
        {
          "internalType": "address",
          "name": "_dstContract",
          "type": "address"
        },
        {
          "internalType": "uint64",
          "name": "_dstChainId",
          "type": "uint64"
        },
        {
          "internalType": "bytes",
          "name": "_message",
          "type": "bytes"
        }
      ],
      "name": "sendMessage",
      "outputs": [],
      "stateMutability": "payable",
      "type": "function"
    },
    {
      "inputs": [
        {
          "internalType": "uint64",
          "name": "",
          "type": "uint64"
        },
        {
          "internalType": "address",
          "name": "",
          "type": "address"
        }
      ],
      "name": "sendSeq",
      "outputs": [
        {
          "internalType": "uint64",
          "name": "",
          "type": "uint64"
        }
      ],
      "stateMutability": "view",
      "type": "function"
    },
    {
      "inputs": [
        {
          "internalType": "address",
          "name": "_messageBus",
          "type": "address"
        }
      ],
      "name": "setMessageBus",
      "outputs": [],
      "stateMutability": "nonpayable",
      "type": "function"
    },
    {
      "inputs": [
        {
          "internalType": "address",
          "name": "newOwner",
          "type": "address"
        }
      ],
      "name": "transferOwnership",
      "outputs": [],
      "stateMutability": "nonpayable",
      "type": "function"
    }
  ],
  "bytecode": "0x608060405234801561001057600080fd5b50604051610e97380380610e9783398101604081905261002f916100af565b806100393361005f565b600180546001600160a01b0319166001600160a01b0392909216919091179055506100df565b600080546001600160a01b038381166001600160a01b0319831681178455604051919092169283917f8be0079c531659141344cd1fd0a4f28419497f9722a3daafe3b4186f6b6457e09190a35050565b6000602082840312156100c157600080fd5b81516001600160a01b03811681146100d857600080fd5b9392505050565b610da9806100ee6000396000f3fe6080604052600436106100a75760003560e01c80638da5cb5b116100645780638da5cb5b146101765780639c649fdf146101a8578063a1a227fa146101bb578063c81739cd146101db578063c96f5c11146101ee578063f2fde38b1461022f57600080fd5b8063063ce4e5146100ac5780630bcb4982146100d5578063547cad12146100e85780635ab7afc61461010a5780636b9c9f431461011d5780637cd2bffc1461010a575b600080fd5b6100bf6100ba366004610837565b61024f565b6040516100cc91906108cc565b60405180910390f35b6100bf6100e33660046108f4565b61028f565b3480156100f457600080fd5b50610108610103366004610967565b6102c5565b005b6100bf61011836600461098b565b610382565b34801561012957600080fd5b5061015e610138366004610a21565b60026020908152600092835260408084209091529082529020546001600160401b031681565b6040516001600160401b0390911681526020016100cc565b34801561018257600080fd5b506000546001600160a01b03165b6040516001600160a01b0390911681526020016100cc565b6100bf6101b6366004610a58565b6103ba565b3480156101c757600080fd5b50600154610190906001600160a01b031681565b6101086101e9366004610aa4565b610538565b3480156101fa57600080fd5b5061015e610209366004610a21565b60036020908152600092835260408084209091529082529020546001600160401b031681565b34801561023b57600080fd5b5061010861024a366004610967565b610607565b6001546000906001600160a01b031633146102855760405162461bcd60e51b815260040161027c90610b06565b60405180910390fd5b9695505050505050565b6001546000906001600160a01b031633146102bc5760405162461bcd60e51b815260040161027c90610b06565b95945050505050565b336102d86000546001600160a01b031690565b6001600160a01b03161461032e5760405162461bcd60e51b815260206004820181905260248201527f4f776e61626c653a2063616c6c6572206973206e6f7420746865206f776e6572604482015260640161027c565b600180546001600160a01b0319166001600160a01b0383169081179091556040519081527f3f8223bcd8b3b875473e9f9e14e1ad075451a2b5ffd31591655da9a01516bf5e9060200160405180910390a150565b6001546000906001600160a01b031633146103af5760405162461bcd60e51b815260040161027c90610b06565b979650505050505050565b6001546000906001600160a01b031633146103e75760405162461bcd60e51b815260040161027c90610b06565b600080806103f786880188610b53565b9250925092506000600360008a6001600160401b03166001600160401b0316815260200190815260200160002060008b6001600160a01b03166001600160a01b0316815260200190815260200160002060009054906101000a90046001600160401b03169050806001600160401b0316836001600160401b0316146104835760029450505050506102bc565b7f5fa4b1cba736a5c5f99461b3a578297484144877fb233a674947dc50a59b8f908a8a8686866040516104ba959493929190610c73565b60405180910390a16001600160401b03808a1660009081526003602090815260408083206001600160a01b038f1684529091528120805460019391929161050391859116610cb7565b92506101000a8154816001600160401b0302191690836001600160401b03160217905550600194505050505095945050505050565b6001600160401b0380841660009081526002602090815260408083206001600160a01b0389168452825280832054905193169261057d91339185918891889101610cf0565b604051602081830303815290604052905061059a868683346106e1565b6001600160401b0380861660009081526002602090815260408083206001600160a01b038b168452909152812080546001939192916105db91859116610cb7565b92506101000a8154816001600160401b0302191690836001600160401b03160217905550505050505050565b3361061a6000546001600160a01b031690565b6001600160a01b0316146106705760405162461bcd60e51b815260206004820181905260248201527f4f776e61626c653a2063616c6c6572206973206e6f7420746865206f776e6572604482015260640161027c565b6001600160a01b0381166106d55760405162461bcd60e51b815260206004820152602660248201527f4f776e61626c653a206e6577206f776e657220697320746865207a65726f206160448201526564647265737360d01b606482015260840161027c565b6106de81610703565b50565b6001546106fd908590859085906001600160a01b031685610753565b50505050565b600080546001600160a01b038381166001600160a01b0319831681178455604051919092169283917f8be0079c531659141344cd1fd0a4f28419497f9722a3daafe3b4186f6b6457e09190a35050565b604051634f9e72ad60e11b81526001600160a01b03831690639f3ce55a90839061078590899089908990600401610d40565b6000604051808303818588803b15801561079e57600080fd5b505af11580156107b2573d6000803e3d6000fd5b50505050505050505050565b60008083601f8401126107d057600080fd5b5081356001600160401b038111156107e757600080fd5b6020830191508360208285010111156107ff57600080fd5b9250929050565b80356001600160401b038116811461081d57600080fd5b919050565b6001600160a01b03811681146106de57600080fd5b6000806000806000806080878903121561085057600080fd5b86356001600160401b038082111561086757600080fd5b6108738a838b016107be565b909850965086915061088760208a01610806565b9550604089013591508082111561089d57600080fd5b506108aa89828a016107be565b90945092505060608701356108be81610822565b809150509295509295509295565b60208101600383106108ee57634e487b7160e01b600052602160045260246000fd5b91905290565b60008060008060006080868803121561090c57600080fd5b853561091781610822565b94506020860135935060408601356001600160401b0381111561093957600080fd5b610945888289016107be565b909450925050606086013561095981610822565b809150509295509295909350565b60006020828403121561097957600080fd5b813561098481610822565b9392505050565b600080600080600080600060c0888a0312156109a657600080fd5b87356109b181610822565b965060208801356109c181610822565b9550604088013594506109d660608901610806565b935060808801356001600160401b038111156109f157600080fd5b6109fd8a828b016107be565b90945092505060a0880135610a1181610822565b8091505092959891949750929550565b60008060408385031215610a3457600080fd5b610a3d83610806565b91506020830135610a4d81610822565b809150509250929050565b600080600080600060808688031215610a7057600080fd5b8535610a7b81610822565b9450610a8960208701610806565b935060408601356001600160401b0381111561093957600080fd5b60008060008060608587031215610aba57600080fd5b8435610ac581610822565b9350610ad360208601610806565b925060408501356001600160401b03811115610aee57600080fd5b610afa878288016107be565b95989497509550505050565b60208082526019908201527f63616c6c6572206973206e6f74206d6573736167652062757300000000000000604082015260600190565b634e487b7160e01b600052604160045260246000fd5b600080600060608486031215610b6857600080fd5b8335610b7381610822565b9250610b8160208501610806565b915060408401356001600160401b0380821115610b9d57600080fd5b818601915086601f830112610bb157600080fd5b813581811115610bc357610bc3610b3d565b604051601f8201601f19908116603f01168101908382118183101715610beb57610beb610b3d565b81604052828152896020848701011115610c0457600080fd5b8260208601602083013760006020848301015280955050505050509250925092565b6000815180845260005b81811015610c4c57602081850181015186830182015201610c30565b81811115610c5e576000602083870101525b50601f01601f19169290920160200192915050565b6001600160a01b0386811682526001600160401b03868116602084015290851660408301528316606082015260a0608082018190526000906103af90830184610c26565b60006001600160401b03808316818516808303821115610ce757634e487b7160e01b600052601160045260246000fd5b01949350505050565b6001600160a01b03851681526001600160401b03841660208201526060604082018190528101829052818360808301376000818301608090810191909152601f909201601f191601019392505050565b6001600160a01b03841681526001600160401b03831660208201526060604082018190526000906102bc90830184610c2656fea26469706673582212200ae5520ebd450d8af08877bcfe9b93cdfd06dc654310c40d5eb315a142620b8c64736f6c63430008090033",
  "linkReferences": {},
  "deployedLinkReferences": {}
}