{
  "_format": "hh-sol-artifact-1",
  "contractName": "FraxBridgeToken",
  "sourceName": "contracts/cBridge/pegged-bridge/tokens/customized/FraxBridgeToken.sol",
  "abi": [
    {
      "inputs": [
        {
          "internalType": "string",
          "name": "name_",
          "type": "string"
        },
        {
          "internalType": "string",
          "name": "symbol_",
          "type": "string"
        },
        {
          "internalType": "address",
          "name": "bridge_",
          "type": "address"
        },
        {
          "internalType": "address",
          "name": "canonical_",
          "type": "address"
        }
      ],
      "stateMutability": "nonpayable",
      "type": "constructor"
    },
    {
      "anonymous": false,
      "inputs": [
        {
          "indexed": true,
          "internalType": "address",
          "name": "owner",
          "type": "address"
        },
        {
          "indexed": true,
          "internalType": "address",
          "name": "spender",
          "type": "address"
        },
        {
          "indexed": false,
          "internalType": "uint256",
          "name": "value",
          "type": "uint256"
        }
      ],
      "name": "Approval",
      "type": "event"
    },
    {
      "anonymous": false,
      "inputs": [
        {
          "indexed": false,
          "internalType": "address",
          "name": "bridge",
          "type": "address"
        }
      ],
      "name": "BridgeUpdated",
      "type": "event"
    },
    {
      "anonymous": false,
      "inputs": [
        {
          "indexed": true,
          "internalType": "address",
          "name": "previousOwner",
          "type": "address"
        },
        {
          "indexed": true,
          "internalType": "address",
          "name": "newOwner",
          "type": "address"
        }
      ],
      "name": "OwnershipTransferred",
      "type": "event"
    },
    {
      "anonymous": false,
      "inputs": [
        {
          "indexed": true,
          "internalType": "address",
          "name": "from",
          "type": "address"
        },
        {
          "indexed": true,
          "internalType": "address",
          "name": "to",
          "type": "address"
        },
        {
          "indexed": false,
          "internalType": "uint256",
          "name": "value",
          "type": "uint256"
        }
      ],
      "name": "Transfer",
      "type": "event"
    },
    {
      "inputs": [
        {
          "internalType": "address",
          "name": "owner",
          "type": "address"
        },
        {
          "internalType": "address",
          "name": "spender",
          "type": "address"
        }
      ],
      "name": "allowance",
      "outputs": [
        {
          "internalType": "uint256",
          "name": "",
          "type": "uint256"
        }
      ],
      "stateMutability": "view",
      "type": "function"
    },
    {
      "inputs": [
        {
          "internalType": "address",
          "name": "spender",
          "type": "address"
        },
        {
          "internalType": "uint256",
          "name": "amount",
          "type": "uint256"
        }
      ],
      "name": "approve",
      "outputs": [
        {
          "internalType": "bool",
          "name": "",
          "type": "bool"
        }
      ],
      "stateMutability": "nonpayable",
      "type": "function"
    },
    {
      "inputs": [
        {
          "internalType": "address",
          "name": "account",
          "type": "address"
        }
      ],
      "name": "balanceOf",
      "outputs": [
        {
          "internalType": "uint256",
          "name": "",
          "type": "uint256"
        }
      ],
      "stateMutability": "view",
      "type": "function"
    },
    {
      "inputs": [],
      "name": "bridge",
      "outputs": [
        {
          "internalType": "address",
          "name": "",
          "type": "address"
        }
      ],
      "stateMutability": "view",
      "type": "function"
    },
    {
      "inputs": [
        {
          "internalType": "address",
          "name": "_from",
          "type": "address"
        },
        {
          "internalType": "uint256",
          "name": "_amount",
          "type": "uint256"
        }
      ],
      "name": "burn",
      "outputs": [
        {
          "internalType": "bool",
          "name": "",
          "type": "bool"
        }
      ],
      "stateMutability": "nonpayable",
      "type": "function"
    },
    {
      "inputs": [],
      "name": "canonical",
      "outputs": [
        {
          "internalType": "address",
          "name": "",
          "type": "address"
        }
      ],
      "stateMutability": "view",
      "type": "function"
    },
    {
      "inputs": [],
      "name": "decimals",
      "outputs": [
        {
          "internalType": "uint8",
          "name": "",
          "type": "uint8"
        }
      ],
      "stateMutability": "view",
      "type": "function"
    },
    {
      "inputs": [
        {
          "internalType": "address",
          "name": "spender",
          "type": "address"
        },
        {
          "internalType": "uint256",
          "name": "subtractedValue",
          "type": "uint256"
        }
      ],
      "name": "decreaseAllowance",
      "outputs": [
        {
          "internalType": "bool",
          "name": "",
          "type": "bool"
        }
      ],
      "stateMutability": "nonpayable",
      "type": "function"
    },
    {
      "inputs": [],
      "name": "getOwner",
      "outputs": [
        {
          "internalType": "address",
          "name": "",
          "type": "address"
        }
      ],
      "stateMutability": "view",
      "type": "function"
    },
    {
      "inputs": [
        {
          "internalType": "address",
          "name": "spender",
          "type": "address"
        },
        {
          "internalType": "uint256",
          "name": "addedValue",
          "type": "uint256"
        }
      ],
      "name": "increaseAllowance",
      "outputs": [
        {
          "internalType": "bool",
          "name": "",
          "type": "bool"
        }
      ],
      "stateMutability": "nonpayable",
      "type": "function"
    },
    {
      "inputs": [
        {
          "internalType": "address",
          "name": "_to",
          "type": "address"
        },
        {
          "internalType": "uint256",
          "name": "_amount",
          "type": "uint256"
        }
      ],
      "name": "mint",
      "outputs": [
        {
          "internalType": "bool",
          "name": "",
          "type": "bool"
        }
      ],
      "stateMutability": "nonpayable",
      "type": "function"
    },
    {
      "inputs": [],
      "name": "name",
      "outputs": [
        {
          "internalType": "string",
          "name": "",
          "type": "string"
        }
      ],
      "stateMutability": "view",
      "type": "function"
    },
    {
      "inputs": [],
      "name": "owner",
      "outputs": [
        {
          "internalType": "address",
          "name": "",
          "type": "address"
        }
      ],
      "stateMutability": "view",
      "type": "function"
    },
    {
      "inputs": [],
      "name": "renounceOwnership",
      "outputs": [],
      "stateMutability": "nonpayable",
      "type": "function"
    },
    {
      "inputs": [],
      "name": "symbol",
      "outputs": [
        {
          "internalType": "string",
          "name": "",
          "type": "string"
        }
      ],
      "stateMutability": "view",
      "type": "function"
    },
    {
      "inputs": [],
      "name": "totalSupply",
      "outputs": [
        {
          "internalType": "uint256",
          "name": "",
          "type": "uint256"
        }
      ],
      "stateMutability": "view",
      "type": "function"
    },
    {
      "inputs": [
        {
          "internalType": "address",
          "name": "to",
          "type": "address"
        },
        {
          "internalType": "uint256",
          "name": "amount",
          "type": "uint256"
        }
      ],
      "name": "transfer",
      "outputs": [
        {
          "internalType": "bool",
          "name": "",
          "type": "bool"
        }
      ],
      "stateMutability": "nonpayable",
      "type": "function"
    },
    {
      "inputs": [
        {
          "internalType": "address",
          "name": "from",
          "type": "address"
        },
        {
          "internalType": "address",
          "name": "to",
          "type": "address"
        },
        {
          "internalType": "uint256",
          "name": "amount",
          "type": "uint256"
        }
      ],
      "name": "transferFrom",
      "outputs": [
        {
          "internalType": "bool",
          "name": "",
          "type": "bool"
        }
      ],
      "stateMutability": "nonpayable",
      "type": "function"
    },
    {
      "inputs": [
        {
          "internalType": "address",
          "name": "newOwner",
          "type": "address"
        }
      ],
      "name": "transferOwnership",
      "outputs": [],
      "stateMutability": "nonpayable",
      "type": "function"
    },
    {
      "inputs": [
        {
          "internalType": "address",
          "name": "_bridge",
          "type": "address"
        }
      ],
      "name": "updateBridge",
      "outputs": [],
      "stateMutability": "nonpayable",
      "type": "function"
    }
  ],
  "bytecode": "0x60a06040523480156200001157600080fd5b506040516200181b3803806200181b83398101604081905262000034916200028f565b8351849084906200004d906003906020850190620000ff565b50805162000063906004906020840190620000ff565b505050620000806200007a620000a960201b60201c565b620000ad565b600680546001600160a01b0319166001600160a01b0393841617905516608052506200035b9050565b3390565b600580546001600160a01b038381166001600160a01b0319831681179093556040519116919082907f8be0079c531659141344cd1fd0a4f28419497f9722a3daafe3b4186f6b6457e090600090a35050565b8280546200010d906200031e565b90600052602060002090601f0160209004810192826200013157600085556200017c565b82601f106200014c57805160ff19168380011785556200017c565b828001600101855582156200017c579182015b828111156200017c5782518255916020019190600101906200015f565b506200018a9291506200018e565b5090565b5b808211156200018a57600081556001016200018f565b634e487b7160e01b600052604160045260246000fd5b600082601f830112620001cd57600080fd5b81516001600160401b0380821115620001ea57620001ea620001a5565b604051601f8301601f19908116603f01168101908282118183101715620002155762000215620001a5565b816040528381526020925086838588010111156200023257600080fd5b600091505b8382101562000256578582018301518183018401529082019062000237565b83821115620002685760008385830101525b9695505050505050565b80516001600160a01b03811681146200028a57600080fd5b919050565b60008060008060808587031215620002a657600080fd5b84516001600160401b0380821115620002be57600080fd5b620002cc88838901620001bb565b95506020870151915080821115620002e357600080fd5b50620002f287828801620001bb565b935050620003036040860162000272565b9150620003136060860162000272565b905092959194509250565b600181811c908216806200033357607f821691505b602082108114156200035557634e487b7160e01b600052602260045260246000fd5b50919050565b60805161147a620003a16000396000818161019c015281816103c3015281816104e201528181610526015281816105b9015281816106d4015261071b015261147a6000f3fe608060405234801561001057600080fd5b506004361061012c5760003560e01c8063715018a6116100ad578063a457c2d711610071578063a457c2d714610290578063a9059cbb146102a3578063dd62ed3e146102b6578063e78cea92146102c9578063f2fde38b146102dc57600080fd5b8063715018a614610254578063893d20e81461025c5780638da5cb5b1461026457806395d89b41146102755780639dc29fac1461027d57600080fd5b8063313ce567116100f4578063313ce567146101d657806339509351146101f057806340c10f19146102035780636eb382121461021657806370a082311461022b57600080fd5b806306fdde0314610131578063095ea7b31461014f57806318160ddd1461017257806323b872dd1461018457806326afaadd14610197575b600080fd5b6101396102ef565b6040516101469190611247565b60405180910390f35b61016261015d366004611296565b610381565b6040519015158152602001610146565b6002545b604051908152602001610146565b6101626101923660046112c0565b610399565b6101be7f000000000000000000000000000000000000000000000000000000000000000081565b6040516001600160a01b039091168152602001610146565b6101de6103bf565b60405160ff9091168152602001610146565b6101626101fe366004611296565b610457565b610162610211366004611296565b610479565b6102296102243660046112fc565b6105e0565b005b6101766102393660046112fc565b6001600160a01b031660009081526020819052604090205490565b61022961063c565b6101be610650565b6005546001600160a01b03166101be565b610139610664565b61016261028b366004611296565b610673565b61016261029e366004611296565b6107ab565b6101626102b1366004611296565b610831565b6101766102c4366004611317565b61083f565b6006546101be906001600160a01b031681565b6102296102ea3660046112fc565b61086a565b6060600380546102fe9061134a565b80601f016020809104026020016040519081016040528092919081815260200182805461032a9061134a565b80156103775780601f1061034c57610100808354040283529160200191610377565b820191906000526020600020905b81548152906001019060200180831161035a57829003601f168201915b5050505050905090565b60003361038f8185856108e3565b5060019392505050565b6000336103a7858285610a07565b6103b2858585610a81565b60019150505b9392505050565b60007f00000000000000000000000000000000000000000000000000000000000000006001600160a01b031663313ce5676040518163ffffffff1660e01b815260040160206040518083038186803b15801561041a57600080fd5b505afa15801561042e573d6000803e3d6000fd5b505050506040513d601f19601f820116820180604052508101906104529190611385565b905090565b60003361038f81858561046a838361083f565b61047491906113be565b6108e3565b6006546000906001600160a01b031633146104d25760405162461bcd60e51b815260206004820152601460248201527363616c6c6572206973206e6f742062726964676560601b60448201526064015b60405180910390fd5b6104dc3083610c4f565b610507307f0000000000000000000000000000000000000000000000000000000000000000846108e3565b604051639006a50f60e01b8152306004820152602481018390526000907f00000000000000000000000000000000000000000000000000000000000000006001600160a01b031690639006a50f90604401602060405180830381600087803b15801561057257600080fd5b505af1158015610586573d6000803e3d6000fd5b505050506040513d601f19601f820116820180604052508101906105aa91906113d6565b905061038f6001600160a01b037f0000000000000000000000000000000000000000000000000000000000000000168583610d2e565b6105e8610d96565b600680546001600160a01b0319166001600160a01b0383169081179091556040519081527fe1694c0b21fdceff6411daed547c7463c2341b9695387bc82595b5b9b1851d4a9060200160405180910390a150565b610644610d96565b61064e6000610df0565b565b60006104526005546001600160a01b031690565b6060600480546102fe9061134a565b6006546000906001600160a01b031633146106c75760405162461bcd60e51b815260206004820152601460248201527363616c6c6572206973206e6f742062726964676560601b60448201526064016104c9565b6106fc6001600160a01b037f000000000000000000000000000000000000000000000000000000000000000016843085610e42565b60405163280cf3ed60e01b8152306004820152602481018390526000907f00000000000000000000000000000000000000000000000000000000000000006001600160a01b03169063280cf3ed90604401602060405180830381600087803b15801561076757600080fd5b505af115801561077b573d6000803e3d6000fd5b505050506040513d601f19601f8201168201806040525081019061079f91906113d6565b905061038f3082610e7a565b600033816107b9828661083f565b9050838110156108195760405162461bcd60e51b815260206004820152602560248201527f45524332303a2064656372656173656420616c6c6f77616e63652062656c6f77604482015264207a65726f60d81b60648201526084016104c9565b61082682868684036108e3565b506001949350505050565b60003361038f818585610a81565b6001600160a01b03918216600090815260016020908152604080832093909416825291909152205490565b610872610d96565b6001600160a01b0381166108d75760405162461bcd60e51b815260206004820152602660248201527f4f776e61626c653a206e6577206f776e657220697320746865207a65726f206160448201526564647265737360d01b60648201526084016104c9565b6108e081610df0565b50565b6001600160a01b0383166109455760405162461bcd60e51b8152602060048201526024808201527f45524332303a20617070726f76652066726f6d20746865207a65726f206164646044820152637265737360e01b60648201526084016104c9565b6001600160a01b0382166109a65760405162461bcd60e51b815260206004820152602260248201527f45524332303a20617070726f766520746f20746865207a65726f206164647265604482015261737360f01b60648201526084016104c9565b6001600160a01b0383811660008181526001602090815260408083209487168084529482529182902085905590518481527f8c5be1e5ebec7d5bd14f71427d1e84f3dd0314c0f7b2291e5b200ac8c7c3b925910160405180910390a3505050565b6000610a13848461083f565b90506000198114610a7b5781811015610a6e5760405162461bcd60e51b815260206004820152601d60248201527f45524332303a20696e73756666696369656e7420616c6c6f77616e636500000060448201526064016104c9565b610a7b84848484036108e3565b50505050565b6001600160a01b038316610ae55760405162461bcd60e51b815260206004820152602560248201527f45524332303a207472616e736665722066726f6d20746865207a65726f206164604482015264647265737360d81b60648201526084016104c9565b6001600160a01b038216610b475760405162461bcd60e51b815260206004820152602360248201527f45524332303a207472616e7366657220746f20746865207a65726f206164647260448201526265737360e81b60648201526084016104c9565b6001600160a01b03831660009081526020819052604090205481811015610bbf5760405162461bcd60e51b815260206004820152602660248201527f45524332303a207472616e7366657220616d6f756e7420657863656564732062604482015265616c616e636560d01b60648201526084016104c9565b6001600160a01b03808516600090815260208190526040808220858503905591851681529081208054849290610bf69084906113be565b92505081905550826001600160a01b0316846001600160a01b03167fddf252ad1be2c89b69c2b068fc378daa952ba7f163c4a11628f55a4df523b3ef84604051610c4291815260200190565b60405180910390a3610a7b565b6001600160a01b038216610ca55760405162461bcd60e51b815260206004820152601f60248201527f45524332303a206d696e7420746f20746865207a65726f20616464726573730060448201526064016104c9565b8060026000828254610cb791906113be565b90915550506001600160a01b03821660009081526020819052604081208054839290610ce49084906113be565b90915550506040518181526001600160a01b038316906000907fddf252ad1be2c89b69c2b068fc378daa952ba7f163c4a11628f55a4df523b3ef9060200160405180910390a35050565b6040516001600160a01b038316602482015260448101829052610d9190849063a9059cbb60e01b906064015b60408051601f198184030181529190526020810180516001600160e01b03166001600160e01b031990931692909217909152610fc8565b505050565b6005546001600160a01b0316331461064e5760405162461bcd60e51b815260206004820181905260248201527f4f776e61626c653a2063616c6c6572206973206e6f7420746865206f776e657260448201526064016104c9565b600580546001600160a01b038381166001600160a01b0319831681179093556040519116919082907f8be0079c531659141344cd1fd0a4f28419497f9722a3daafe3b4186f6b6457e090600090a35050565b6040516001600160a01b0380851660248301528316604482015260648101829052610a7b9085906323b872dd60e01b90608401610d5a565b6001600160a01b038216610eda5760405162461bcd60e51b815260206004820152602160248201527f45524332303a206275726e2066726f6d20746865207a65726f206164647265736044820152607360f81b60648201526084016104c9565b6001600160a01b03821660009081526020819052604090205481811015610f4e5760405162461bcd60e51b815260206004820152602260248201527f45524332303a206275726e20616d6f756e7420657863656564732062616c616e604482015261636560f01b60648201526084016104c9565b6001600160a01b0383166000908152602081905260408120838303905560028054849290610f7d9084906113ef565b90915550506040518281526000906001600160a01b038516907fddf252ad1be2c89b69c2b068fc378daa952ba7f163c4a11628f55a4df523b3ef9060200160405180910390a3505050565b600061101d826040518060400160405280602081526020017f5361666545524332303a206c6f772d6c6576656c2063616c6c206661696c6564815250856001600160a01b031661109a9092919063ffffffff16565b805190915015610d91578080602001905181019061103b9190611406565b610d915760405162461bcd60e51b815260206004820152602a60248201527f5361666545524332303a204552433230206f7065726174696f6e20646964206e6044820152691bdd081cdd58d8d9595960b21b60648201526084016104c9565b60606110a984846000856110b1565b949350505050565b6060824710156111125760405162461bcd60e51b815260206004820152602660248201527f416464726573733a20696e73756666696369656e742062616c616e636520666f6044820152651c8818d85b1b60d21b60648201526084016104c9565b6001600160a01b0385163b6111695760405162461bcd60e51b815260206004820152601d60248201527f416464726573733a2063616c6c20746f206e6f6e2d636f6e747261637400000060448201526064016104c9565b600080866001600160a01b031685876040516111859190611428565b60006040518083038185875af1925050503d80600081146111c2576040519150601f19603f3d011682016040523d82523d6000602084013e6111c7565b606091505b50915091506111d78282866111e2565b979650505050505050565b606083156111f15750816103b8565b8251156112015782518084602001fd5b8160405162461bcd60e51b81526004016104c99190611247565b60005b8381101561123657818101518382015260200161121e565b83811115610a7b5750506000910152565b602081526000825180602084015261126681604085016020870161121b565b601f01601f19169190910160400192915050565b80356001600160a01b038116811461129157600080fd5b919050565b600080604083850312156112a957600080fd5b6112b28361127a565b946020939093013593505050565b6000806000606084860312156112d557600080fd5b6112de8461127a565b92506112ec6020850161127a565b9150604084013590509250925092565b60006020828403121561130e57600080fd5b6103b88261127a565b6000806040838503121561132a57600080fd5b6113338361127a565b91506113416020840161127a565b90509250929050565b600181811c9082168061135e57607f821691505b6020821081141561137f57634e487b7160e01b600052602260045260246000fd5b50919050565b60006020828403121561139757600080fd5b815160ff811681146103b857600080fd5b634e487b7160e01b600052601160045260246000fd5b600082198211156113d1576113d16113a8565b500190565b6000602082840312156113e857600080fd5b5051919050565b600082821015611401576114016113a8565b500390565b60006020828403121561141857600080fd5b815180151581146103b857600080fd5b6000825161143a81846020870161121b565b919091019291505056fea2646970667358221220746f1f5b5f76799b2d89063eb634de836d87857377e3451f0059838d6198056a64736f6c63430008090033",
  "linkReferences": {},
  "deployedLinkReferences": {}
}