{
  "_format": "hh-sol-artifact-1",
  "contractName": "Faucet",
  "sourceName": "contracts/cBridge/miscs/Faucet.sol",
  "abi": [
    {
      "anonymous": false,
      "inputs": [
        {
          "indexed": true,
          "internalType": "address",
          "name": "previousOwner",
          "type": "address"
        },
        {
          "indexed": true,
          "internalType": "address",
          "name": "newOwner",
          "type": "address"
        }
      ],
      "name": "OwnershipTransferred",
      "type": "event"
    },
    {
      "inputs": [
        {
          "internalType": "address",
          "name": "_asset",
          "type": "address"
        },
        {
          "internalType": "uint256",
          "name": "_amount",
          "type": "uint256"
        }
      ],
      "name": "drainToken",
      "outputs": [],
      "stateMutability": "nonpayable",
      "type": "function"
    },
    {
      "inputs": [
        {
          "internalType": "address[]",
          "name": "tokens",
          "type": "address[]"
        }
      ],
      "name": "drip",
      "outputs": [],
      "stateMutability": "nonpayable",
      "type": "function"
    },
    {
      "inputs": [
        {
          "internalType": "address",
          "name": "",
          "type": "address"
        }
      ],
      "name": "lastDripBlk",
      "outputs": [
        {
          "internalType": "uint256",
          "name": "",
          "type": "uint256"
        }
      ],
      "stateMutability": "view",
      "type": "function"
    },
    {
      "inputs": [],
      "name": "minDripBlkInterval",
      "outputs": [
        {
          "internalType": "uint256",
          "name": "",
          "type": "uint256"
        }
      ],
      "stateMutability": "view",
      "type": "function"
    },
    {
      "inputs": [],
      "name": "owner",
      "outputs": [
        {
          "internalType": "address",
          "name": "",
          "type": "address"
        }
      ],
      "stateMutability": "view",
      "type": "function"
    },
    {
      "inputs": [],
      "name": "renounceOwnership",
      "outputs": [],
      "stateMutability": "nonpayable",
      "type": "function"
    },
    {
      "inputs": [
        {
          "internalType": "uint256",
          "name": "_interval",
          "type": "uint256"
        }
      ],
      "name": "setMinDripBlkInterval",
      "outputs": [],
      "stateMutability": "nonpayable",
      "type": "function"
    },
    {
      "inputs": [
        {
          "internalType": "address",
          "name": "newOwner",
          "type": "address"
        }
      ],
      "name": "transferOwnership",
      "outputs": [],
      "stateMutability": "nonpayable",
      "type": "function"
    }
  ],
  "bytecode": "0x608060405234801561001057600080fd5b5061001a3361001f565b61006f565b600080546001600160a01b038381166001600160a01b0319831681178455604051919092169283917f8be0079c531659141344cd1fd0a4f28419497f9722a3daafe3b4186f6b6457e09190a35050565b61094a8061007e6000396000f3fe608060405234801561001057600080fd5b50600436106100885760003560e01c8063715018a61161005b578063715018a6146100f15780638da5cb5b146100f95780639d4323be14610114578063f2fde38b1461012757600080fd5b80631e53f2881461008d578063428dc451146100a25780634f1aa211146100b55780635553e679146100d1575b600080fd5b6100a061009b3660046106eb565b61013a565b005b6100a06100b0366004610704565b610147565b6100be60015481565b6040519081526020015b60405180910390f35b6100be6100df366004610795565b60026020526000908152604090205481565b6100a06102e8565b6000546040516001600160a01b0390911681526020016100c8565b6100a06101223660046107b0565b6102fc565b6100a0610135366004610795565b61031c565b610142610395565b600155565b6001543360009081526002602052604090205461016490436107f0565b10156101a65760405162461bcd60e51b815260206004820152600c60248201526b1d1bdbc8199c995c5d595b9d60a21b60448201526064015b60405180910390fd5b60005b818110156102d15760008383838181106101c5576101c5610807565b90506020020160208101906101da9190610795565b6040516370a0823160e01b81523060048201529091506000906001600160a01b038316906370a082319060240160206040518083038186803b15801561021f57600080fd5b505afa158015610233573d6000803e3d6000fd5b505050506040513d601f19601f82011682018060405250810190610257919061081d565b90506000811161029b5760405162461bcd60e51b815260206004820152600f60248201526e46617563657420697320656d70747960881b604482015260640161019d565b6102bc336102ab61271084610836565b6001600160a01b03851691906103ef565b505080806102c990610858565b9150506101a9565b505033600090815260026020526040902043905550565b6102f0610395565b6102fa6000610446565b565b610304610395565b6103186001600160a01b03831633836103ef565b5050565b610324610395565b6001600160a01b0381166103895760405162461bcd60e51b815260206004820152602660248201527f4f776e61626c653a206e6577206f776e657220697320746865207a65726f206160448201526564647265737360d01b606482015260840161019d565b61039281610446565b50565b6000546001600160a01b031633146102fa5760405162461bcd60e51b815260206004820181905260248201527f4f776e61626c653a2063616c6c6572206973206e6f7420746865206f776e6572604482015260640161019d565b604080516001600160a01b038416602482015260448082018490528251808303909101815260649091019091526020810180516001600160e01b031663a9059cbb60e01b179052610441908490610496565b505050565b600080546001600160a01b038381166001600160a01b0319831681178455604051919092169283917f8be0079c531659141344cd1fd0a4f28419497f9722a3daafe3b4186f6b6457e09190a35050565b60006104eb826040518060400160405280602081526020017f5361666545524332303a206c6f772d6c6576656c2063616c6c206661696c6564815250856001600160a01b03166105689092919063ffffffff16565b80519091501561044157808060200190518101906105099190610873565b6104415760405162461bcd60e51b815260206004820152602a60248201527f5361666545524332303a204552433230206f7065726174696f6e20646964206e6044820152691bdd081cdd58d8d9595960b21b606482015260840161019d565b60606105778484600085610581565b90505b9392505050565b6060824710156105e25760405162461bcd60e51b815260206004820152602660248201527f416464726573733a20696e73756666696369656e742062616c616e636520666f6044820152651c8818d85b1b60d21b606482015260840161019d565b6001600160a01b0385163b6106395760405162461bcd60e51b815260206004820152601d60248201527f416464726573733a2063616c6c20746f206e6f6e2d636f6e7472616374000000604482015260640161019d565b600080866001600160a01b0316858760405161065591906108c5565b60006040518083038185875af1925050503d8060008114610692576040519150601f19603f3d011682016040523d82523d6000602084013e610697565b606091505b50915091506106a78282866106b2565b979650505050505050565b606083156106c157508161057a565b8251156106d15782518084602001fd5b8160405162461bcd60e51b815260040161019d91906108e1565b6000602082840312156106fd57600080fd5b5035919050565b6000806020838503121561071757600080fd5b823567ffffffffffffffff8082111561072f57600080fd5b818501915085601f83011261074357600080fd5b81358181111561075257600080fd5b8660208260051b850101111561076757600080fd5b60209290920196919550909350505050565b80356001600160a01b038116811461079057600080fd5b919050565b6000602082840312156107a757600080fd5b61057a82610779565b600080604083850312156107c357600080fd5b6107cc83610779565b946020939093013593505050565b634e487b7160e01b600052601160045260246000fd5b600082821015610802576108026107da565b500390565b634e487b7160e01b600052603260045260246000fd5b60006020828403121561082f57600080fd5b5051919050565b60008261085357634e487b7160e01b600052601260045260246000fd5b500490565b600060001982141561086c5761086c6107da565b5060010190565b60006020828403121561088557600080fd5b8151801515811461057a57600080fd5b60005b838110156108b0578181015183820152602001610898565b838111156108bf576000848401525b50505050565b600082516108d7818460208701610895565b9190910192915050565b6020815260008251806020840152610900816040850160208701610895565b601f01601f1916919091016040019291505056fea26469706673582212209c23f76ee1128a44f687188cc544e489b60d40e82dd54843759a164cb38883a464736f6c63430008090033",
  "linkReferences": {},
  "deployedLinkReferences": {}
}