{
  "_format": "hh-sol-artifact-1",
  "contractName": "MsgTest",
  "sourceName": "contracts/cBridge/message/apps/examples/MsgTest.sol",
  "abi": [
    {
      "inputs": [
        {
          "internalType": "address",
          "name": "_messageBus",
          "type": "address"
        }
      ],
      "stateMutability": "nonpayable",
      "type": "constructor"
    },
    {
      "anonymous": false,
      "inputs": [
        {
          "indexed": false,
          "internalType": "bytes",
          "name": "sender",
          "type": "bytes"
        },
        {
          "indexed": false,
          "internalType": "uint64",
          "name": "srcChainId",
          "type": "uint64"
        },
        {
          "indexed": false,
          "internalType": "uint64",
          "name": "nonce",
          "type": "uint64"
        },
        {
          "indexed": false,
          "internalType": "bytes",
          "name": "message",
          "type": "bytes"
        }
      ],
      "name": "Message2Received",
      "type": "event"
    },
    {
      "anonymous": false,
      "inputs": [
        {
          "indexed": false,
          "internalType": "address",
          "name": "messageBus",
          "type": "address"
        }
      ],
      "name": "MessageBusUpdated",
      "type": "event"
    },
    {
      "anonymous": false,
      "inputs": [
        {
          "indexed": false,
          "internalType": "address",
          "name": "sender",
          "type": "address"
        },
        {
          "indexed": false,
          "internalType": "uint64",
          "name": "srcChainId",
          "type": "uint64"
        },
        {
          "indexed": false,
          "internalType": "uint64",
          "name": "nonce",
          "type": "uint64"
        },
        {
          "indexed": false,
          "internalType": "bytes",
          "name": "message",
          "type": "bytes"
        }
      ],
      "name": "MessageReceived",
      "type": "event"
    },
    {
      "anonymous": false,
      "inputs": [
        {
          "indexed": false,
          "internalType": "address",
          "name": "token",
          "type": "address"
        },
        {
          "indexed": false,
          "internalType": "uint256",
          "name": "amount",
          "type": "uint256"
        },
        {
          "indexed": false,
          "internalType": "address",
          "name": "sender",
          "type": "address"
        },
        {
          "indexed": false,
          "internalType": "uint64",
          "name": "srcChainId",
          "type": "uint64"
        },
        {
          "indexed": false,
          "internalType": "address",
          "name": "receiver",
          "type": "address"
        },
        {
          "indexed": false,
          "internalType": "bytes",
          "name": "message",
          "type": "bytes"
        }
      ],
      "name": "MessageReceivedWithTransfer",
      "type": "event"
    },
    {
      "anonymous": false,
      "inputs": [
        {
          "indexed": true,
          "internalType": "address",
          "name": "previousOwner",
          "type": "address"
        },
        {
          "indexed": true,
          "internalType": "address",
          "name": "newOwner",
          "type": "address"
        }
      ],
      "name": "OwnershipTransferred",
      "type": "event"
    },
    {
      "anonymous": false,
      "inputs": [
        {
          "indexed": false,
          "internalType": "address",
          "name": "receiver",
          "type": "address"
        },
        {
          "indexed": false,
          "internalType": "address",
          "name": "token",
          "type": "address"
        },
        {
          "indexed": false,
          "internalType": "uint256",
          "name": "amount",
          "type": "uint256"
        },
        {
          "indexed": false,
          "internalType": "bytes",
          "name": "message",
          "type": "bytes"
        }
      ],
      "name": "Refunded",
      "type": "event"
    },
    {
      "inputs": [
        {
          "internalType": "address",
          "name": "_token",
          "type": "address"
        },
        {
          "internalType": "uint256",
          "name": "_amount",
          "type": "uint256"
        }
      ],
      "name": "drainToken",
      "outputs": [],
      "stateMutability": "nonpayable",
      "type": "function"
    },
    {
      "inputs": [
        {
          "internalType": "bytes",
          "name": "_sender",
          "type": "bytes"
        },
        {
          "internalType": "uint64",
          "name": "_srcChainId",
          "type": "uint64"
        },
        {
          "internalType": "bytes",
          "name": "_message",
          "type": "bytes"
        },
        {
          "internalType": "address",
          "name": "",
          "type": "address"
        }
      ],
      "name": "executeMessage",
      "outputs": [
        {
          "internalType": "enum IMessageReceiverApp.ExecutionStatus",
          "name": "",
          "type": "uint8"
        }
      ],
      "stateMutability": "payable",
      "type": "function"
    },
    {
      "inputs": [
        {
          "internalType": "address",
          "name": "_sender",
          "type": "address"
        },
        {
          "internalType": "uint64",
          "name": "_srcChainId",
          "type": "uint64"
        },
        {
          "internalType": "bytes",
          "name": "_message",
          "type": "bytes"
        },
        {
          "internalType": "address",
          "name": "",
          "type": "address"
        }
      ],
      "name": "executeMessage",
      "outputs": [
        {
          "internalType": "enum IMessageReceiverApp.ExecutionStatus",
          "name": "",
          "type": "uint8"
        }
      ],
      "stateMutability": "payable",
      "type": "function"
    },
    {
      "inputs": [
        {
          "internalType": "address",
          "name": "_sender",
          "type": "address"
        },
        {
          "internalType": "address",
          "name": "_token",
          "type": "address"
        },
        {
          "internalType": "uint256",
          "name": "_amount",
          "type": "uint256"
        },
        {
          "internalType": "uint64",
          "name": "_srcChainId",
          "type": "uint64"
        },
        {
          "internalType": "bytes",
          "name": "_message",
          "type": "bytes"
        },
        {
          "internalType": "address",
          "name": "",
          "type": "address"
        }
      ],
      "name": "executeMessageWithTransfer",
      "outputs": [
        {
          "internalType": "enum IMessageReceiverApp.ExecutionStatus",
          "name": "",
          "type": "uint8"
        }
      ],
      "stateMutability": "payable",
      "type": "function"
    },
    {
      "inputs": [
        {
          "internalType": "address",
          "name": "_sender",
          "type": "address"
        },
        {
          "internalType": "address",
          "name": "_token",
          "type": "address"
        },
        {
          "internalType": "uint256",
          "name": "_amount",
          "type": "uint256"
        },
        {
          "internalType": "uint64",
          "name": "_srcChainId",
          "type": "uint64"
        },
        {
          "internalType": "bytes",
          "name": "_message",
          "type": "bytes"
        },
        {
          "internalType": "address",
          "name": "_executor",
          "type": "address"
        }
      ],
      "name": "executeMessageWithTransferFallback",
      "outputs": [
        {
          "internalType": "enum IMessageReceiverApp.ExecutionStatus",
          "name": "",
          "type": "uint8"
        }
      ],
      "stateMutability": "payable",
      "type": "function"
    },
    {
      "inputs": [
        {
          "internalType": "address",
          "name": "_token",
          "type": "address"
        },
        {
          "internalType": "uint256",
          "name": "_amount",
          "type": "uint256"
        },
        {
          "internalType": "bytes",
          "name": "_message",
          "type": "bytes"
        },
        {
          "internalType": "address",
          "name": "",
          "type": "address"
        }
      ],
      "name": "executeMessageWithTransferRefund",
      "outputs": [
        {
          "internalType": "enum IMessageReceiverApp.ExecutionStatus",
          "name": "",
          "type": "uint8"
        }
      ],
      "stateMutability": "payable",
      "type": "function"
    },
    {
      "inputs": [],
      "name": "messageBus",
      "outputs": [
        {
          "internalType": "address",
          "name": "",
          "type": "address"
        }
      ],
      "stateMutability": "view",
      "type": "function"
    },
    {
      "inputs": [],
      "name": "owner",
      "outputs": [
        {
          "internalType": "address",
          "name": "",
          "type": "address"
        }
      ],
      "stateMutability": "view",
      "type": "function"
    },
    {
      "inputs": [
        {
          "internalType": "bytes",
          "name": "_receiver",
          "type": "bytes"
        },
        {
          "internalType": "uint64",
          "name": "_dstChainId",
          "type": "uint64"
        },
        {
          "internalType": "bytes",
          "name": "_message",
          "type": "bytes"
        }
      ],
      "name": "sendMessage",
      "outputs": [],
      "stateMutability": "payable",
      "type": "function"
    },
    {
      "inputs": [
        {
          "internalType": "address",
          "name": "_receiver",
          "type": "address"
        },
        {
          "internalType": "uint64",
          "name": "_dstChainId",
          "type": "uint64"
        },
        {
          "internalType": "bytes",
          "name": "_message",
          "type": "bytes"
        }
      ],
      "name": "sendMessage",
      "outputs": [],
      "stateMutability": "payable",
      "type": "function"
    },
    {
      "inputs": [
        {
          "internalType": "address",
          "name": "_receiver",
          "type": "address"
        },
        {
          "internalType": "uint64",
          "name": "_dstChainId",
          "type": "uint64"
        },
        {
          "internalType": "bytes",
          "name": "_message",
          "type": "bytes"
        },
        {
          "internalType": "uint64",
          "name": "_nonce",
          "type": "uint64"
        }
      ],
      "name": "sendMessageWithNonce",
      "outputs": [],
      "stateMutability": "payable",
      "type": "function"
    },
    {
      "inputs": [
        {
          "internalType": "address",
          "name": "_receiver",
          "type": "address"
        },
        {
          "internalType": "address",
          "name": "_token",
          "type": "address"
        },
        {
          "internalType": "uint256",
          "name": "_amount",
          "type": "uint256"
        },
        {
          "internalType": "uint64",
          "name": "_dstChainId",
          "type": "uint64"
        },
        {
          "internalType": "uint32",
          "name": "_maxSlippage",
          "type": "uint32"
        },
        {
          "internalType": "bytes",
          "name": "_message",
          "type": "bytes"
        },
        {
          "internalType": "enum MsgDataTypes.BridgeSendType",
          "name": "_bridgeSendType",
          "type": "uint8"
        }
      ],
      "name": "sendMessageWithTransfer",
      "outputs": [],
      "stateMutability": "payable",
      "type": "function"
    },
    {
      "inputs": [
        {
          "internalType": "address",
          "name": "_receiver",
          "type": "address"
        },
        {
          "internalType": "uint64",
          "name": "_dstChainId",
          "type": "uint64"
        },
        {
          "internalType": "bytes[]",
          "name": "_messages",
          "type": "bytes[]"
        },
        {
          "internalType": "uint256[]",
          "name": "_fees",
          "type": "uint256[]"
        }
      ],
      "name": "sendMessages",
      "outputs": [],
      "stateMutability": "payable",
      "type": "function"
    },
    {
      "inputs": [
        {
          "internalType": "address",
          "name": "_messageBus",
          "type": "address"
        }
      ],
      "name": "setMessageBus",
      "outputs": [],
      "stateMutability": "nonpayable",
      "type": "function"
    },
    {
      "inputs": [
        {
          "internalType": "address",
          "name": "newOwner",
          "type": "address"
        }
      ],
      "name": "transferOwnership",
      "outputs": [],
      "stateMutability": "nonpayable",
      "type": "function"
    }
  ],
  "bytecode": "0x60806040523480156200001157600080fd5b5060405162002749380380620027498339810160408190526200003491620000b7565b80620000403362000067565b600180546001600160a01b0319166001600160a01b039290921691909117905550620000e9565b600080546001600160a01b038381166001600160a01b0319831681178455604051919092169283917f8be0079c531659141344cd1fd0a4f28419497f9722a3daafe3b4186f6b6457e09190a35050565b600060208284031215620000ca57600080fd5b81516001600160a01b0381168114620000e257600080fd5b9392505050565b61265080620000f96000396000f3fe6080604052600436106100e85760003560e01c80637cd2bffc1161008a5780639d4323be116100595780639d4323be14610202578063a1a227fa14610222578063c81739cd14610242578063f2fde38b1461025557600080fd5b80637cd2bffc1461019757806386dfc3c8146101aa5780638da5cb5b146101bd5780639c649fdf146101ef57600080fd5b8063547cad12116100c6578063547cad121461013e5780635ab7afc61461015e5780637767b8d7146101715780637bcf9fe11461018457600080fd5b8063063ce4e5146100ed5780630bcb4982146101165780633c8790d714610129575b600080fd5b6101006100fb366004611a0f565b610275565b60405161010d9190611aba565b60405180910390f35b610100610124366004611ae2565b61030c565b61013c610137366004611b99565b6103ae565b005b34801561014a57600080fd5b5061013c610159366004611c2b565b61049e565b61010061016c366004611c48565b61052b565b61013c61017f366004611cde565b610563565b61013c610192366004611d93565b610617565b6101006101a5366004611ecd565b610653565b61013c6101b8366004611f4e565b6106e9565b3480156101c957600080fd5b506000546001600160a01b03165b6040516001600160a01b03909116815260200161010d565b6101006101fd366004611fd1565b61077b565b34801561020e57600080fd5b5061013c61021d36600461201d565b61087d565b34801561022e57600080fd5b506001546101d7906001600160a01b031681565b61013c610250366004612049565b6108ce565b34801561026157600080fd5b5061013c610270366004611c2b565b610966565b6001546000906001600160a01b031633146102ab5760405162461bcd60e51b81526004016102a2906120ab565b60405180910390fd5b6000806102ba858701876120e2565b915091507f93bff870467428ead6659a7a554cb75cc2ca56d416714397a31d7dd90fdf3b9c89898985856040516102f59594939291906121b0565b60405180910390a150600198975050505050505050565b6001546000906001600160a01b031633146103395760405162461bcd60e51b81526004016102a2906120ab565b600080610348858701876121f9565b90925090506103616001600160a01b0389168389610a10565b7f28b3e4c963e8ed6cdcdd38aa916a725939823a99bbfa73fe91297cbd65076ebd828989846040516103969493929190612217565b60405180910390a16001925050505b95945050505050565b60005b8381101561049557600154600090600160a01b90046001600160401b03168686848181106103e1576103e1612254565b90506020028101906103f3919061226a565b604051602001610405939291906122b0565b60408051808303601f1901815291905260018054919250600160a01b9091046001600160401b0316906014610439836122e9565b91906101000a8154816001600160401b0302191690836001600160401b031602179055505061048288888387878781811061047657610476612254565b90506020020135610a78565b508061048d81612310565b9150506103b1565b50505050505050565b336104b16000546001600160a01b031690565b6001600160a01b0316146104d75760405162461bcd60e51b81526004016102a29061232b565b600180546001600160a01b0319166001600160a01b0383169081179091556040519081527f3f8223bcd8b3b875473e9f9e14e1ad075451a2b5ffd31591655da9a01516bf5e9060200160405180910390a150565b6001546000906001600160a01b031633146105585760405162461bcd60e51b81526004016102a2906120ab565b979650505050505050565b6105786001600160a01b038816333089610a9a565b600033848460405160200161058f93929190612360565b60405160208183030381529060405290506105c689898989600160149054906101000a90046001600160401b03168a878934610ad2565b5060018054600160a01b90046001600160401b03169060146105e7836122e9565b91906101000a8154816001600160401b0302191690836001600160401b0316021790555050505050505050505050565b600081848460405160200161062e939291906122b0565b604051602081830303815290604052905061064b86868334610a78565b505050505050565b6001546000906001600160a01b031633146106805760405162461bcd60e51b81526004016102a2906120ab565b600080848060200190518101906106979190612385565b90925090506106b06001600160a01b0389168389610a10565b7f853d38177348cfc87290e96c941a5fb96dc3da8a07c31163ddffe4da6661b76f88888b8986866040516102f596959493929190612411565b6000600160149054906101000a90046001600160401b03168383604051602001610715939291906122b0565b60408051808303601f1901815291905260018054919250600160a01b9091046001600160401b0316906014610749836122e9565b91906101000a8154816001600160401b0302191690836001600160401b031602179055505061064b8686868434610b09565b6001546000906001600160a01b031633146107a85760405162461bcd60e51b81526004016102a2906120ab565b6000806107b7858701876120e2565b91509150816001600160401b0316655af3107a4001141561080a5760405162461bcd60e51b815260206004820152600d60248201526c696e76616c6964206e6f6e636560981b60448201526064016102a2565b816001600160401b0316655af3107a4002141561082657600080fd5b816001600160401b0316655af3107a40031415610848576002925050506103a5565b7f2bc20c63cdcc1b0e6aeb64fcaaf7ea3c8b999228a4a9ed2a2df1d2e17dd1252088888484604051610396949392919061245b565b336108906000546001600160a01b031690565b6001600160a01b0316146108b65760405162461bcd60e51b81526004016102a29061232b565b6108ca6001600160a01b0383163383610a10565b5050565b6000600160149054906101000a90046001600160401b031683836040516020016108fa939291906122b0565b60408051808303601f1901815291905260018054919250600160a01b9091046001600160401b031690601461092e836122e9565b91906101000a8154816001600160401b0302191690836001600160401b031602179055505061095f85858334610a78565b5050505050565b336109796000546001600160a01b031690565b6001600160a01b03161461099f5760405162461bcd60e51b81526004016102a29061232b565b6001600160a01b038116610a045760405162461bcd60e51b815260206004820152602660248201527f4f776e61626c653a206e6577206f776e657220697320746865207a65726f206160448201526564647265737360d01b60648201526084016102a2565b610a0d81610b27565b50565b6040516001600160a01b038316602482015260448101829052610a7390849063a9059cbb60e01b906064015b60408051601f198184030181529190526020810180516001600160e01b03166001600160e01b031990931692909217909152610b77565b505050565b600154610a94908590859085906001600160a01b031685610c49565b50505050565b6040516001600160a01b0380851660248301528316604482015260648101829052610a949085906323b872dd60e01b90608401610a3c565b6000610afb8a8a8a8a8a8a8a8a600160009054906101000a90046001600160a01b03168b610cb4565b9a9950505050505050505050565b60015461095f9086908690869086906001600160a01b031686610d4d565b600080546001600160a01b038381166001600160a01b0319831681178455604051919092169283917f8be0079c531659141344cd1fd0a4f28419497f9722a3daafe3b4186f6b6457e09190a35050565b6000610bcc826040518060400160405280602081526020017f5361666545524332303a206c6f772d6c6576656c2063616c6c206661696c6564815250856001600160a01b0316610dbb9092919063ffffffff16565b805190915015610a735780806020019051810190610bea9190612496565b610a735760405162461bcd60e51b815260206004820152602a60248201527f5361666545524332303a204552433230206f7065726174696f6e20646964206e6044820152691bdd081cdd58d8d9595960b21b60648201526084016102a2565b604051634f9e72ad60e11b81526001600160a01b03831690639f3ce55a908390610c7b908990899089906004016124b8565b6000604051808303818588803b158015610c9457600080fd5b505af1158015610ca8573d6000803e3d6000fd5b50505050505050505050565b6000806000610cc98d8d8d8d8d8d8c8c610dd4565b8851919350915015610d3d57846001600160a01b0316634289fbb3858f8d85878d6040518763ffffffff1660e01b8152600401610d0a9594939291906124eb565b6000604051808303818588803b158015610d2357600080fd5b505af1158015610d37573d6000803e3d6000fd5b50505050505b509b9a5050505050505050505050565b604051637d7a101d60e01b81526001600160a01b03831690637d7a101d908390610d81908a908a908a908a9060040161252d565b6000604051808303818588803b158015610d9a57600080fd5b505af1158015610dae573d6000803e3d6000fd5b5050505050505050505050565b6060610dca8484600085611566565b90505b9392505050565b6000806001846006811115610deb57610deb611aa4565b1415610f1957826001600160a01b03166382980dc46040518163ffffffff1660e01b815260040160206040518083038186803b158015610e2a57600080fd5b505afa158015610e3e573d6000803e3d6000fd5b505050506040513d601f19601f82011682018060405250810190610e629190612562565b9050610e786001600160a01b038a16828a61168c565b60405163a5977fbb60e01b81526001600160a01b038b811660048301528a81166024830152604482018a90526001600160401b03808a1660648401528816608483015263ffffffff871660a483015282169063a5977fbb9060c401600060405180830381600087803b158015610eed57600080fd5b505af1158015610f01573d6000803e3d6000fd5b50505050610f128a8a8a8a8a61174d565b9150611559565b6002846006811115610f2d57610f2d611aa4565b141561102d57826001600160a01b031663d8257d176040518163ffffffff1660e01b815260040160206040518083038186803b158015610f6c57600080fd5b505afa158015610f80573d6000803e3d6000fd5b505050506040513d601f19601f82011682018060405250810190610fa49190612562565b9050610fba6001600160a01b038a16828a61168c565b806001600160a01b031663234636248a8a8a8e8b6040518663ffffffff1660e01b8152600401610fee95949392919061257f565b600060405180830381600087803b15801561100857600080fd5b505af115801561101c573d6000803e3d6000fd5b50505050610f128a8a8a8a8a6117d0565b600384600681111561104157611041611aa4565b14156111d257826001600160a01b031663dfa2dbaf6040518163ffffffff1660e01b815260040160206040518083038186803b15801561108057600080fd5b505afa158015611094573d6000803e3d6000fd5b505050506040513d601f19601f820116820180604052508101906110b89190612562565b90506110ce6001600160a01b038a16828a61168c565b604051636f3c863f60e11b81526001600160a01b038a81166004830152602482018a90528b811660448301526001600160401b038816606483015282169063de790c7e90608401600060405180830381600087803b15801561112f57600080fd5b505af1158015611143573d6000803e3d6000fd5b5061115d925050506001600160a01b038a16826000611839565b604080516001600160601b031930606090811b82166020808501919091528d821b83166034850152604884018d9052908e901b90911660688301526001600160c01b031960c08a811b8216607c85015246901b1660848301528251808303606c018152608c9092019092528051910120610f12565b60048460068111156111e6576111e6611aa4565b14156112f957826001600160a01b031663c66a9c5a6040518163ffffffff1660e01b815260040160206040518083038186803b15801561122557600080fd5b505afa158015611239573d6000803e3d6000fd5b505050506040513d601f19601f8201168201806040525081019061125d9190612562565b90506112736001600160a01b038a16828a61168c565b806001600160a01b031663234636248a8a8a8e8b6040518663ffffffff1660e01b81526004016112a795949392919061257f565b602060405180830381600087803b1580156112c157600080fd5b505af11580156112d5573d6000803e3d6000fd5b505050506040513d601f19601f82011682018060405250810190610f1291906125ba565b600584600681111561130d5761130d611aa4565b141561143c57826001600160a01b03166395b12c276040518163ffffffff1660e01b815260040160206040518083038186803b15801561134c57600080fd5b505afa158015611360573d6000803e3d6000fd5b505050506040513d601f19601f820116820180604052508101906113849190612562565b905061139a6001600160a01b038a16828a61168c565b806001600160a01b031663a00293018a8a8a8e8b6040518663ffffffff1660e01b81526004016113ce95949392919061257f565b602060405180830381600087803b1580156113e857600080fd5b505af11580156113fc573d6000803e3d6000fd5b505050506040513d601f19601f8201168201806040525081019061142091906125ba565b91506114376001600160a01b038a16826000611839565b611559565b600684600681111561145057611450611aa4565b141561151157826001600160a01b03166395b12c276040518163ffffffff1660e01b815260040160206040518083038186803b15801561148f57600080fd5b505afa1580156114a3573d6000803e3d6000fd5b505050506040513d601f19601f820116820180604052508101906114c79190612562565b90506114dd6001600160a01b038a16828a61168c565b806001600160a01b0316639e422c338a8a8a8e8b6040518663ffffffff1660e01b81526004016113ce95949392919061257f565b60405162461bcd60e51b815260206004820152601960248201527f6272696467652074797065206e6f7420737570706f727465640000000000000060448201526064016102a2565b9850989650505050505050565b6060824710156115c75760405162461bcd60e51b815260206004820152602660248201527f416464726573733a20696e73756666696369656e742062616c616e636520666f6044820152651c8818d85b1b60d21b60648201526084016102a2565b6001600160a01b0385163b61161e5760405162461bcd60e51b815260206004820152601d60248201527f416464726573733a2063616c6c20746f206e6f6e2d636f6e747261637400000060448201526064016102a2565b600080866001600160a01b0316858760405161163a91906125d3565b60006040518083038185875af1925050503d8060008114611677576040519150601f19603f3d011682016040523d82523d6000602084013e61167c565b606091505b509150915061055882828661195d565b604051636eb1769f60e11b81523060048201526001600160a01b038381166024830152600091839186169063dd62ed3e9060440160206040518083038186803b1580156116d857600080fd5b505afa1580156116ec573d6000803e3d6000fd5b505050506040513d601f19601f8201168201806040525081019061171091906125ba565b61171a91906125ef565b6040516001600160a01b038516602482015260448101829052909150610a9490859063095ea7b360e01b90606401610a3c565b6040516001600160601b031930606090811b8216602084015287811b8216603484015286901b166048820152605c81018490526001600160c01b031960c084811b8216607c84015283811b8216608484015246901b16608c8201526000906094015b60405160208183030381529060405280519060200120905095945050505050565b6040516001600160601b031930606090811b8216602084015286811b82166034840152604883018690526001600160c01b031960c086811b821660688601529189901b909216607084015283811b8216608484015246901b16608c8201526000906094016117af565b8015806118c25750604051636eb1769f60e11b81523060048201526001600160a01b03838116602483015284169063dd62ed3e9060440160206040518083038186803b15801561188857600080fd5b505afa15801561189c573d6000803e3d6000fd5b505050506040513d601f19601f820116820180604052508101906118c091906125ba565b155b61192d5760405162461bcd60e51b815260206004820152603660248201527f5361666545524332303a20617070726f76652066726f6d206e6f6e2d7a65726f60448201527520746f206e6f6e2d7a65726f20616c6c6f77616e636560501b60648201526084016102a2565b6040516001600160a01b038316602482015260448101829052610a7390849063095ea7b360e01b90606401610a3c565b6060831561196c575081610dcd565b82511561197c5782518084602001fd5b8160405162461bcd60e51b81526004016102a29190612607565b60008083601f8401126119a857600080fd5b5081356001600160401b038111156119bf57600080fd5b6020830191508360208285010111156119d757600080fd5b9250929050565b80356001600160401b03811681146119f557600080fd5b919050565b6001600160a01b0381168114610a0d57600080fd5b60008060008060008060808789031215611a2857600080fd5b86356001600160401b0380821115611a3f57600080fd5b611a4b8a838b01611996565b9098509650869150611a5f60208a016119de565b95506040890135915080821115611a7557600080fd5b50611a8289828a01611996565b9094509250506060870135611a96816119fa565b809150509295509295509295565b634e487b7160e01b600052602160045260246000fd5b6020810160038310611adc57634e487b7160e01b600052602160045260246000fd5b91905290565b600080600080600060808688031215611afa57600080fd5b8535611b05816119fa565b94506020860135935060408601356001600160401b03811115611b2757600080fd5b611b3388828901611996565b9094509250506060860135611b47816119fa565b809150509295509295909350565b60008083601f840112611b6757600080fd5b5081356001600160401b03811115611b7e57600080fd5b6020830191508360208260051b85010111156119d757600080fd5b60008060008060008060808789031215611bb257600080fd5b8635611bbd816119fa565b9550611bcb602088016119de565b945060408701356001600160401b0380821115611be757600080fd5b611bf38a838b01611b55565b90965094506060890135915080821115611c0c57600080fd5b50611c1989828a01611b55565b979a9699509497509295939492505050565b600060208284031215611c3d57600080fd5b8135610dcd816119fa565b600080600080600080600060c0888a031215611c6357600080fd5b8735611c6e816119fa565b96506020880135611c7e816119fa565b955060408801359450611c93606089016119de565b935060808801356001600160401b03811115611cae57600080fd5b611cba8a828b01611996565b90945092505060a0880135611cce816119fa565b8091505092959891949750929550565b60008060008060008060008060e0898b031215611cfa57600080fd5b8835611d05816119fa565b97506020890135611d15816119fa565b965060408901359550611d2a60608a016119de565b9450608089013563ffffffff81168114611d4357600080fd5b935060a08901356001600160401b03811115611d5e57600080fd5b611d6a8b828c01611996565b90945092505060c089013560078110611d8257600080fd5b809150509295985092959890939650565b600080600080600060808688031215611dab57600080fd5b8535611db6816119fa565b9450611dc4602087016119de565b935060408601356001600160401b03811115611ddf57600080fd5b611deb88828901611996565b9094509250611dfe9050606087016119de565b90509295509295909350565b634e487b7160e01b600052604160045260246000fd5b604051601f8201601f191681016001600160401b0381118282101715611e4857611e48611e0a565b604052919050565b60006001600160401b03821115611e6957611e69611e0a565b50601f01601f191660200190565b600082601f830112611e8857600080fd5b8135611e9b611e9682611e50565b611e20565b818152846020838601011115611eb057600080fd5b816020850160208301376000918101602001919091529392505050565b60008060008060008060c08789031215611ee657600080fd5b8635611ef1816119fa565b95506020870135611f01816119fa565b945060408701359350611f16606088016119de565b925060808701356001600160401b03811115611f3157600080fd5b611f3d89828a01611e77565b92505060a0870135611a96816119fa565b600080600080600060608688031215611f6657600080fd5b85356001600160401b0380821115611f7d57600080fd5b611f8989838a01611996565b9097509550859150611f9d602089016119de565b94506040880135915080821115611fb357600080fd5b50611fc088828901611996565b969995985093965092949392505050565b600080600080600060808688031215611fe957600080fd5b8535611ff4816119fa565b9450612002602087016119de565b935060408601356001600160401b03811115611b2757600080fd5b6000806040838503121561203057600080fd5b823561203b816119fa565b946020939093013593505050565b6000806000806060858703121561205f57600080fd5b843561206a816119fa565b9350612078602086016119de565b925060408501356001600160401b0381111561209357600080fd5b61209f87828801611996565b95989497509550505050565b60208082526019908201527f63616c6c6572206973206e6f74206d6573736167652062757300000000000000604082015260600190565b600080604083850312156120f557600080fd5b6120fe836119de565b915060208301356001600160401b0381111561211957600080fd5b61212585828601611e77565b9150509250929050565b81835281816020850137506000828201602090810191909152601f909101601f19169091010190565b60005b8381101561217357818101518382015260200161215b565b83811115610a945750506000910152565b6000815180845261219c816020860160208601612158565b601f01601f19169290920160200192915050565b6080815260006121c460808301878961212f565b6001600160401b0386811660208501528516604084015282810360608401526121ed8185612184565b98975050505050505050565b6000806040838503121561220c57600080fd5b82356120fe816119fa565b6001600160a01b038581168252841660208201526040810183905260806060820181905260009061224a90830184612184565b9695505050505050565b634e487b7160e01b600052603260045260246000fd5b6000808335601e1984360301811261228157600080fd5b8301803591506001600160401b0382111561229b57600080fd5b6020019150368190038213156119d757600080fd5b6001600160401b03841681526040602082015260006103a560408301848661212f565b634e487b7160e01b600052601160045260246000fd5b60006001600160401b0380831681811415612306576123066122d3565b6001019392505050565b6000600019821415612324576123246122d3565b5060010190565b6020808252818101527f4f776e61626c653a2063616c6c6572206973206e6f7420746865206f776e6572604082015260600190565b6001600160a01b03841681526040602082018190526000906103a5908301848661212f565b6000806040838503121561239857600080fd5b82516123a3816119fa565b60208401519092506001600160401b038111156123bf57600080fd5b8301601f810185136123d057600080fd5b80516123de611e9682611e50565b8181528660208385010111156123f357600080fd5b612404826020830160208601612158565b8093505050509250929050565b6001600160a01b0387811682526020820187905285811660408301526001600160401b03851660608301528316608082015260c060a082018190526000906121ed90830184612184565b6001600160a01b03851681526001600160401b0384811660208301528316604082015260806060820181905260009061224a90830184612184565b6000602082840312156124a857600080fd5b81518015158114610dcd57600080fd5b6001600160a01b03841681526001600160401b03831660208201526060604082018190526000906103a590830184612184565b6001600160a01b0386811682526001600160401b0386166020830152841660408201526060810183905260a06080820181905260009061055890830184612184565b60608152600061254160608301868861212f565b6001600160401b038516602084015282810360408401526105588185612184565b60006020828403121561257457600080fd5b8151610dcd816119fa565b6001600160a01b03958616815260208101949094526001600160401b0392831660408501529316606083015291909116608082015260a00190565b6000602082840312156125cc57600080fd5b5051919050565b600082516125e5818460208701612158565b9190910192915050565b60008219821115612602576126026122d3565b500190565b602081526000610dcd602083018461218456fea2646970667358221220fb42958819483d71be18a9ca24b19651df38d4b1b529224625d71f6973c329eb64736f6c63430008090033",
  "linkReferences": {},
  "deployedLinkReferences": {}
}