{
  "_format": "hh-sol-artifact-1",
  "contractName": "MessageBusReceiver",
  "sourceName": "contracts/cBridge/message/messagebus/MessageBusReceiver.sol",
  "abi": [
    {
      "inputs": [
        {
          "internalType": "address",
          "name": "_liquidityBridge",
          "type": "address"
        },
        {
          "internalType": "address",
          "name": "_pegBridge",
          "type": "address"
        },
        {
          "internalType": "address",
          "name": "_pegVault",
          "type": "address"
        },
        {
          "internalType": "address",
          "name": "_pegBridgeV2",
          "type": "address"
        },
        {
          "internalType": "address",
          "name": "_pegVaultV2",
          "type": "address"
        }
      ],
      "stateMutability": "nonpayable",
      "type": "constructor"
    },
    {
      "anonymous": false,
      "inputs": [
        {
          "indexed": false,
          "internalType": "string",
          "name": "reason",
          "type": "string"
        }
      ],
      "name": "CallReverted",
      "type": "event"
    },
    {
      "anonymous": false,
      "inputs": [
        {
          "indexed": false,
          "internalType": "enum MsgDataTypes.MsgType",
          "name": "msgType",
          "type": "uint8"
        },
        {
          "indexed": false,
          "internalType": "bytes32",
          "name": "msgId",
          "type": "bytes32"
        },
        {
          "indexed": false,
          "internalType": "enum MsgDataTypes.TxStatus",
          "name": "status",
          "type": "uint8"
        },
        {
          "indexed": true,
          "internalType": "address",
          "name": "receiver",
          "type": "address"
        },
        {
          "indexed": false,
          "internalType": "uint64",
          "name": "srcChainId",
          "type": "uint64"
        },
        {
          "indexed": false,
          "internalType": "bytes32",
          "name": "srcTxHash",
          "type": "bytes32"
        }
      ],
      "name": "Executed",
      "type": "event"
    },
    {
      "anonymous": false,
      "inputs": [
        {
          "indexed": false,
          "internalType": "address",
          "name": "liquidityBridge",
          "type": "address"
        }
      ],
      "name": "LiquidityBridgeUpdated",
      "type": "event"
    },
    {
      "anonymous": false,
      "inputs": [
        {
          "indexed": false,
          "internalType": "enum MsgDataTypes.MsgType",
          "name": "msgType",
          "type": "uint8"
        },
        {
          "indexed": false,
          "internalType": "bytes32",
          "name": "msgId",
          "type": "bytes32"
        },
        {
          "indexed": false,
          "internalType": "uint64",
          "name": "srcChainId",
          "type": "uint64"
        },
        {
          "indexed": false,
          "internalType": "bytes32",
          "name": "srcTxHash",
          "type": "bytes32"
        }
      ],
      "name": "NeedRetry",
      "type": "event"
    },
    {
      "anonymous": false,
      "inputs": [
        {
          "indexed": true,
          "internalType": "address",
          "name": "previousOwner",
          "type": "address"
        },
        {
          "indexed": true,
          "internalType": "address",
          "name": "newOwner",
          "type": "address"
        }
      ],
      "name": "OwnershipTransferred",
      "type": "event"
    },
    {
      "anonymous": false,
      "inputs": [
        {
          "indexed": false,
          "internalType": "address",
          "name": "pegBridge",
          "type": "address"
        }
      ],
      "name": "PegBridgeUpdated",
      "type": "event"
    },
    {
      "anonymous": false,
      "inputs": [
        {
          "indexed": false,
          "internalType": "address",
          "name": "pegBridgeV2",
          "type": "address"
        }
      ],
      "name": "PegBridgeV2Updated",
      "type": "event"
    },
    {
      "anonymous": false,
      "inputs": [
        {
          "indexed": false,
          "internalType": "address",
          "name": "pegVault",
          "type": "address"
        }
      ],
      "name": "PegVaultUpdated",
      "type": "event"
    },
    {
      "anonymous": false,
      "inputs": [
        {
          "indexed": false,
          "internalType": "address",
          "name": "pegVaultV2",
          "type": "address"
        }
      ],
      "name": "PegVaultV2Updated",
      "type": "event"
    },
    {
      "inputs": [
        {
          "internalType": "bytes",
          "name": "_message",
          "type": "bytes"
        },
        {
          "components": [
            {
              "internalType": "address",
              "name": "sender",
              "type": "address"
            },
            {
              "internalType": "address",
              "name": "receiver",
              "type": "address"
            },
            {
              "internalType": "uint64",
              "name": "srcChainId",
              "type": "uint64"
            },
            {
              "internalType": "bytes32",
              "name": "srcTxHash",
              "type": "bytes32"
            }
          ],
          "internalType": "struct MsgDataTypes.RouteInfo",
          "name": "_route",
          "type": "tuple"
        },
        {
          "internalType": "bytes[]",
          "name": "_sigs",
          "type": "bytes[]"
        },
        {
          "internalType": "address[]",
          "name": "_signers",
          "type": "address[]"
        },
        {
          "internalType": "uint256[]",
          "name": "_powers",
          "type": "uint256[]"
        }
      ],
      "name": "executeMessage",
      "outputs": [],
      "stateMutability": "payable",
      "type": "function"
    },
    {
      "inputs": [
        {
          "internalType": "bytes",
          "name": "_message",
          "type": "bytes"
        },
        {
          "components": [
            {
              "internalType": "bytes",
              "name": "sender",
              "type": "bytes"
            },
            {
              "internalType": "address",
              "name": "receiver",
              "type": "address"
            },
            {
              "internalType": "uint64",
              "name": "srcChainId",
              "type": "uint64"
            },
            {
              "internalType": "bytes32",
              "name": "srcTxHash",
              "type": "bytes32"
            }
          ],
          "internalType": "struct MsgDataTypes.RouteInfo2",
          "name": "_route",
          "type": "tuple"
        },
        {
          "internalType": "bytes[]",
          "name": "_sigs",
          "type": "bytes[]"
        },
        {
          "internalType": "address[]",
          "name": "_signers",
          "type": "address[]"
        },
        {
          "internalType": "uint256[]",
          "name": "_powers",
          "type": "uint256[]"
        }
      ],
      "name": "executeMessage",
      "outputs": [],
      "stateMutability": "payable",
      "type": "function"
    },
    {
      "inputs": [
        {
          "internalType": "bytes",
          "name": "_message",
          "type": "bytes"
        },
        {
          "components": [
            {
              "internalType": "enum MsgDataTypes.TransferType",
              "name": "t",
              "type": "uint8"
            },
            {
              "internalType": "address",
              "name": "sender",
              "type": "address"
            },
            {
              "internalType": "address",
              "name": "receiver",
              "type": "address"
            },
            {
              "internalType": "address",
              "name": "token",
              "type": "address"
            },
            {
              "internalType": "uint256",
              "name": "amount",
              "type": "uint256"
            },
            {
              "internalType": "uint64",
              "name": "wdseq",
              "type": "uint64"
            },
            {
              "internalType": "uint64",
              "name": "srcChainId",
              "type": "uint64"
            },
            {
              "internalType": "bytes32",
              "name": "refId",
              "type": "bytes32"
            },
            {
              "internalType": "bytes32",
              "name": "srcTxHash",
              "type": "bytes32"
            }
          ],
          "internalType": "struct MsgDataTypes.TransferInfo",
          "name": "_transfer",
          "type": "tuple"
        },
        {
          "internalType": "bytes[]",
          "name": "_sigs",
          "type": "bytes[]"
        },
        {
          "internalType": "address[]",
          "name": "_signers",
          "type": "address[]"
        },
        {
          "internalType": "uint256[]",
          "name": "_powers",
          "type": "uint256[]"
        }
      ],
      "name": "executeMessageWithTransfer",
      "outputs": [],
      "stateMutability": "payable",
      "type": "function"
    },
    {
      "inputs": [
        {
          "internalType": "bytes",
          "name": "_message",
          "type": "bytes"
        },
        {
          "components": [
            {
              "internalType": "enum MsgDataTypes.TransferType",
              "name": "t",
              "type": "uint8"
            },
            {
              "internalType": "address",
              "name": "sender",
              "type": "address"
            },
            {
              "internalType": "address",
              "name": "receiver",
              "type": "address"
            },
            {
              "internalType": "address",
              "name": "token",
              "type": "address"
            },
            {
              "internalType": "uint256",
              "name": "amount",
              "type": "uint256"
            },
            {
              "internalType": "uint64",
              "name": "wdseq",
              "type": "uint64"
            },
            {
              "internalType": "uint64",
              "name": "srcChainId",
              "type": "uint64"
            },
            {
              "internalType": "bytes32",
              "name": "refId",
              "type": "bytes32"
            },
            {
              "internalType": "bytes32",
              "name": "srcTxHash",
              "type": "bytes32"
            }
          ],
          "internalType": "struct MsgDataTypes.TransferInfo",
          "name": "_transfer",
          "type": "tuple"
        },
        {
          "internalType": "bytes[]",
          "name": "_sigs",
          "type": "bytes[]"
        },
        {
          "internalType": "address[]",
          "name": "_signers",
          "type": "address[]"
        },
        {
          "internalType": "uint256[]",
          "name": "_powers",
          "type": "uint256[]"
        }
      ],
      "name": "executeMessageWithTransferRefund",
      "outputs": [],
      "stateMutability": "payable",
      "type": "function"
    },
    {
      "inputs": [
        {
          "internalType": "bytes32",
          "name": "",
          "type": "bytes32"
        }
      ],
      "name": "executedMessages",
      "outputs": [
        {
          "internalType": "enum MsgDataTypes.TxStatus",
          "name": "",
          "type": "uint8"
        }
      ],
      "stateMutability": "view",
      "type": "function"
    },
    {
      "inputs": [],
      "name": "liquidityBridge",
      "outputs": [
        {
          "internalType": "address",
          "name": "",
          "type": "address"
        }
      ],
      "stateMutability": "view",
      "type": "function"
    },
    {
      "inputs": [],
      "name": "owner",
      "outputs": [
        {
          "internalType": "address",
          "name": "",
          "type": "address"
        }
      ],
      "stateMutability": "view",
      "type": "function"
    },
    {
      "inputs": [],
      "name": "pegBridge",
      "outputs": [
        {
          "internalType": "address",
          "name": "",
          "type": "address"
        }
      ],
      "stateMutability": "view",
      "type": "function"
    },
    {
      "inputs": [],
      "name": "pegBridgeV2",
      "outputs": [
        {
          "internalType": "address",
          "name": "",
          "type": "address"
        }
      ],
      "stateMutability": "view",
      "type": "function"
    },
    {
      "inputs": [],
      "name": "pegVault",
      "outputs": [
        {
          "internalType": "address",
          "name": "",
          "type": "address"
        }
      ],
      "stateMutability": "view",
      "type": "function"
    },
    {
      "inputs": [],
      "name": "pegVaultV2",
      "outputs": [
        {
          "internalType": "address",
          "name": "",
          "type": "address"
        }
      ],
      "stateMutability": "view",
      "type": "function"
    },
    {
      "inputs": [],
      "name": "preExecuteMessageGasUsage",
      "outputs": [
        {
          "internalType": "uint256",
          "name": "",
          "type": "uint256"
        }
      ],
      "stateMutability": "view",
      "type": "function"
    },
    {
      "inputs": [
        {
          "components": [
            {
              "internalType": "bytes",
              "name": "request",
              "type": "bytes"
            },
            {
              "internalType": "bytes[]",
              "name": "sigs",
              "type": "bytes[]"
            },
            {
              "internalType": "address[]",
              "name": "signers",
              "type": "address[]"
            },
            {
              "internalType": "uint256[]",
              "name": "powers",
              "type": "uint256[]"
            }
          ],
          "internalType": "struct MsgDataTypes.BridgeTransferParams",
          "name": "_transferParams",
          "type": "tuple"
        },
        {
          "components": [
            {
              "internalType": "bytes",
              "name": "message",
              "type": "bytes"
            },
            {
              "components": [
                {
                  "internalType": "enum MsgDataTypes.TransferType",
                  "name": "t",
                  "type": "uint8"
                },
                {
                  "internalType": "address",
                  "name": "sender",
                  "type": "address"
                },
                {
                  "internalType": "address",
                  "name": "receiver",
                  "type": "address"
                },
                {
                  "internalType": "address",
                  "name": "token",
                  "type": "address"
                },
                {
                  "internalType": "uint256",
                  "name": "amount",
                  "type": "uint256"
                },
                {
                  "internalType": "uint64",
                  "name": "wdseq",
                  "type": "uint64"
                },
                {
                  "internalType": "uint64",
                  "name": "srcChainId",
                  "type": "uint64"
                },
                {
                  "internalType": "bytes32",
                  "name": "refId",
                  "type": "bytes32"
                },
                {
                  "internalType": "bytes32",
                  "name": "srcTxHash",
                  "type": "bytes32"
                }
              ],
              "internalType": "struct MsgDataTypes.TransferInfo",
              "name": "transfer",
              "type": "tuple"
            },
            {
              "internalType": "bytes[]",
              "name": "sigs",
              "type": "bytes[]"
            },
            {
              "internalType": "address[]",
              "name": "signers",
              "type": "address[]"
            },
            {
              "internalType": "uint256[]",
              "name": "powers",
              "type": "uint256[]"
            }
          ],
          "internalType": "struct MsgDataTypes.MsgWithTransferExecutionParams",
          "name": "_msgParams",
          "type": "tuple"
        }
      ],
      "name": "refundAndExecuteMsg",
      "outputs": [],
      "stateMutability": "nonpayable",
      "type": "function"
    },
    {
      "inputs": [
        {
          "internalType": "address",
          "name": "_addr",
          "type": "address"
        }
      ],
      "name": "setLiquidityBridge",
      "outputs": [],
      "stateMutability": "nonpayable",
      "type": "function"
    },
    {
      "inputs": [
        {
          "internalType": "address",
          "name": "_addr",
          "type": "address"
        }
      ],
      "name": "setPegBridge",
      "outputs": [],
      "stateMutability": "nonpayable",
      "type": "function"
    },
    {
      "inputs": [
        {
          "internalType": "address",
          "name": "_addr",
          "type": "address"
        }
      ],
      "name": "setPegBridgeV2",
      "outputs": [],
      "stateMutability": "nonpayable",
      "type": "function"
    },
    {
      "inputs": [
        {
          "internalType": "address",
          "name": "_addr",
          "type": "address"
        }
      ],
      "name": "setPegVault",
      "outputs": [],
      "stateMutability": "nonpayable",
      "type": "function"
    },
    {
      "inputs": [
        {
          "internalType": "address",
          "name": "_addr",
          "type": "address"
        }
      ],
      "name": "setPegVaultV2",
      "outputs": [],
      "stateMutability": "nonpayable",
      "type": "function"
    },
    {
      "inputs": [
        {
          "internalType": "uint256",
          "name": "_usage",
          "type": "uint256"
        }
      ],
      "name": "setPreExecuteMessageGasUsage",
      "outputs": [],
      "stateMutability": "nonpayable",
      "type": "function"
    },
    {
      "inputs": [
        {
          "components": [
            {
              "internalType": "bytes",
              "name": "request",
              "type": "bytes"
            },
            {
              "internalType": "bytes[]",
              "name": "sigs",
              "type": "bytes[]"
            },
            {
              "internalType": "address[]",
              "name": "signers",
              "type": "address[]"
            },
            {
              "internalType": "uint256[]",
              "name": "powers",
              "type": "uint256[]"
            }
          ],
          "internalType": "struct MsgDataTypes.BridgeTransferParams",
          "name": "_transferParams",
          "type": "tuple"
        },
        {
          "components": [
            {
              "internalType": "bytes",
              "name": "message",
              "type": "bytes"
            },
            {
              "components": [
                {
                  "internalType": "enum MsgDataTypes.TransferType",
                  "name": "t",
                  "type": "uint8"
                },
                {
                  "internalType": "address",
                  "name": "sender",
                  "type": "address"
                },
                {
                  "internalType": "address",
                  "name": "receiver",
                  "type": "address"
                },
                {
                  "internalType": "address",
                  "name": "token",
                  "type": "address"
                },
                {
                  "internalType": "uint256",
                  "name": "amount",
                  "type": "uint256"
                },
                {
                  "internalType": "uint64",
                  "name": "wdseq",
                  "type": "uint64"
                },
                {
                  "internalType": "uint64",
                  "name": "srcChainId",
                  "type": "uint64"
                },
                {
                  "internalType": "bytes32",
                  "name": "refId",
                  "type": "bytes32"
                },
                {
                  "internalType": "bytes32",
                  "name": "srcTxHash",
                  "type": "bytes32"
                }
              ],
              "internalType": "struct MsgDataTypes.TransferInfo",
              "name": "transfer",
              "type": "tuple"
            },
            {
              "internalType": "bytes[]",
              "name": "sigs",
              "type": "bytes[]"
            },
            {
              "internalType": "address[]",
              "name": "signers",
              "type": "address[]"
            },
            {
              "internalType": "uint256[]",
              "name": "powers",
              "type": "uint256[]"
            }
          ],
          "internalType": "struct MsgDataTypes.MsgWithTransferExecutionParams",
          "name": "_msgParams",
          "type": "tuple"
        }
      ],
      "name": "transferAndExecuteMsg",
      "outputs": [],
      "stateMutability": "nonpayable",
      "type": "function"
    },
    {
      "inputs": [
        {
          "internalType": "address",
          "name": "newOwner",
          "type": "address"
        }
      ],
      "name": "transferOwnership",
      "outputs": [],
      "stateMutability": "nonpayable",
      "type": "function"
    }
  ],
  "bytecode": "0x60806040523480156200001157600080fd5b506040516200311a3803806200311a83398101604081905262000034916200010f565b6200003f33620000a2565b600280546001600160a01b03199081166001600160a01b039788161790915560038054821695871695909517909455600480548516938616939093179092556005805484169185169190911790556006805490921692169190911790556200017f565b600080546001600160a01b038381166001600160a01b0319831681178455604051919092169283917f8be0079c531659141344cd1fd0a4f28419497f9722a3daafe3b4186f6b6457e09190a35050565b80516001600160a01b03811681146200010a57600080fd5b919050565b600080600080600060a086880312156200012857600080fd5b6200013386620000f2565b94506200014360208701620000f2565b93506200015360408701620000f2565b92506200016360608701620000f2565b91506200017360808701620000f2565b90509295509295909350565b612f8b806200018f6000396000f3fe60806040526004361061012a5760003560e01c806382efd502116100ab578063cd2abd661161006f578063cd2abd6614610309578063d8257d1714610346578063db2c20c814610366578063dfa2dbaf14610379578063f2fde38b14610399578063f83b0fb9146103b957600080fd5b806382efd5021461026b5780638da5cb5b1461028b57806395b12c27146102a95780639b05a775146102c9578063c66a9c5a146102e957600080fd5b8063584e45e1116100f2578063584e45e1146101b7578063588be02b146101e0578063723d0a9d146102005780637b80ab201461022057806382980dc41461023357600080fd5b806303cbfe661461012f5780633f395aff1461015157806340d0d026146101645780634586f33114610184578063468a2d04146101a4575b600080fd5b34801561013b57600080fd5b5061014f61014a366004612338565b6103d9565b005b61014f61015f3660046123df565b610496565b34801561017057600080fd5b5061014f61017f3660046124e7565b610778565b34801561019057600080fd5b5061014f61019f366004612552565b6107d0565b61014f6101b236600461256b565b61080e565b3480156101c357600080fd5b506101cd60075481565b6040519081526020015b60405180910390f35b3480156101ec57600080fd5b5061014f6101fb366004612338565b610858565b34801561020c57600080fd5b5061014f61021b3660046124e7565b610905565b61014f61022e3660046123df565b610953565b34801561023f57600080fd5b50600254610253906001600160a01b031681565b6040516001600160a01b0390911681526020016101d7565b34801561027757600080fd5b5061014f610286366004612338565b610b5d565b34801561029757600080fd5b506000546001600160a01b0316610253565b3480156102b557600080fd5b50600554610253906001600160a01b031681565b3480156102d557600080fd5b5061014f6102e4366004612338565b610c0a565b3480156102f557600080fd5b50600654610253906001600160a01b031681565b34801561031557600080fd5b50610339610324366004612552565b60016020526000908152604090205460ff1681565b6040516101d79190612659565b34801561035257600080fd5b50600454610253906001600160a01b031681565b61014f610374366004612667565b610cb7565b34801561038557600080fd5b50600354610253906001600160a01b031681565b3480156103a557600080fd5b5061014f6103b4366004612338565b610cf6565b3480156103c557600080fd5b5061014f6103d4366004612338565b610da0565b336103ec6000546001600160a01b031690565b6001600160a01b03161461041b5760405162461bcd60e51b81526004016104129061272d565b60405180910390fd5b6001600160a01b0381166104415760405162461bcd60e51b815260040161041290612762565b600380546001600160a01b0319166001600160a01b0383169081179091556040519081527fd60e9ceb4f54f1bfb1741a4b35fc9d806d7ed48200b523203b92248ea38fa17d906020015b60405180910390a150565b60006104a188610e4d565b90506000808281526001602052604090205460ff1660048111156104c7576104c761262f565b146105105760405162461bcd60e51b81526020600482015260196024820152781d1c985b9cd9995c88185b1c9958591e48195e1958dd5d1959603a1b6044820152606401610412565b6000818152600160209081526040808320805460ff19166004179055805146928101929092526001600160601b03193060601b16908201527226b2b9b9b0b3b2abb4ba342a3930b739b332b960691b6054820152606701604051602081830303815290604052805190602001209050600260009054906101000a90046001600160a01b03166001600160a01b031663682dbc2282848e8e8e61010001356040516020016105c195949392919061278b565b6040516020818303038152906040528a8a8a8a8a8a6040518863ffffffff1660e01b81526004016105f8979695949392919061293f565b60006040518083038186803b15801561061057600080fd5b505afa158015610624573d6000803e3d6000fd5b505050506000806106368b8e8e6116ed565b9050600181600281111561064c5761064c61262f565b141561065b576001915061072a565b600281600281111561066f5761066f61262f565b14156106f557600084815260016020819052604082208054909160ff1990911690835b02179055507fe49c2c954d381d1448cf824743aeff9da7a1d82078a7c9e5817269cc359bd26c6000858d60c00160208101906106ce919061299d565b8e61010001356040516106e494939291906129d6565b60405180910390a15050505061076d565b6107008b8e8e611828565b905060018160028111156107165761071661262f565b1415610725576003915061072a565b600291505b60008481526001602081905260409091208054849260ff19909116908360048111156107585761075861262f565b021790555061076884838d611863565b505050505b505050505050505050565b61079161078b6040830160208401612a08565b836118d5565b6107cc61079e8280612a29565b602084016107b0610140860186612a6f565b6107be610160880188612a6f565b61022e6101808a018a612a6f565b5050565b336107e36000546001600160a01b031690565b6001600160a01b0316146108095760405162461bcd60e51b81526004016104129061272d565b600755565b600061081988611b34565b905061084c8a8a838a8a8a8a8a8a604051806040016040528060078152602001664d65737361676560c81b815250611bea565b50505050505050505050565b3361086b6000546001600160a01b031690565b6001600160a01b0316146108915760405162461bcd60e51b81526004016104129061272d565b6001600160a01b0381166108b75760405162461bcd60e51b815260040161041290612762565b600280546001600160a01b0319166001600160a01b0383169081179091556040519081527fbf9977180dc6e6cff25598c8e59150cecd7f8e448e092633d38ab7ee223ae0589060200161048b565b61091861078b6040830160208401612a08565b6107cc6109258280612a29565b60208401610937610140860186612a6f565b610945610160880188612a6f565b61015f6101808a018a612a6f565b600061095e88610e4d565b90506000808281526001602052604090205460ff1660048111156109845761098461262f565b146109cd5760405162461bcd60e51b81526020600482015260196024820152781d1c985b9cd9995c88185b1c9958591e48195e1958dd5d1959603a1b6044820152606401610412565b6000818152600160209081526040808320805460ff19166004179055805146928101929092526001600160601b03193060601b16908201527f4d657373616765576974685472616e73666572526566756e64000000000000006054820152606d01604051602081830303815290604052805190602001209050600260009054906101000a90046001600160a01b03166001600160a01b031663682dbc2282848e8e8e6101000135604051602001610a8895949392919061278b565b6040516020818303038152906040528a8a8a8a8a8a6040518863ffffffff1660e01b8152600401610abf979695949392919061293f565b60006040518083038186803b158015610ad757600080fd5b505afa158015610aeb573d6000803e3d6000fd5b50505050600080610afd8b8e8e611e3c565b90506001816002811115610b1357610b1361262f565b1415610b22576001915061072a565b6002816002811115610b3657610b3661262f565b141561072557600084815260016020819052604082208054909160ff199091169083610692565b33610b706000546001600160a01b031690565b6001600160a01b031614610b965760405162461bcd60e51b81526004016104129061272d565b6001600160a01b038116610bbc5760405162461bcd60e51b815260040161041290612762565b600580546001600160a01b0319166001600160a01b0383169081179091556040519081527ffb337a6c76476534518d5816caeb86263972470fedccfd047a35eb1825eaa9e89060200161048b565b33610c1d6000546001600160a01b031690565b6001600160a01b031614610c435760405162461bcd60e51b81526004016104129061272d565b6001600160a01b038116610c695760405162461bcd60e51b815260040161041290612762565b600480546001600160a01b0319166001600160a01b0383169081179091556040519081527fa9db0c32d9c6c2f75f3b95047a9e67cc1c010eab792a4e6ca777ce918ad94aad9060200161048b565b6000610cc288611e93565b905061084c8a8a838a8a8a8a8a8a6040518060400160405280600881526020016726b2b9b9b0b3b29960c11b815250611bea565b33610d096000546001600160a01b031690565b6001600160a01b031614610d2f5760405162461bcd60e51b81526004016104129061272d565b6001600160a01b038116610d945760405162461bcd60e51b815260206004820152602660248201527f4f776e61626c653a206e6577206f776e657220697320746865207a65726f206160448201526564647265737360d01b6064820152608401610412565b610d9d81611f29565b50565b33610db36000546001600160a01b031690565b6001600160a01b031614610dd95760405162461bcd60e51b81526004016104129061272d565b6001600160a01b038116610dff5760405162461bcd60e51b815260040161041290612762565b600680546001600160a01b0319166001600160a01b0383169081179091556040519081527f918a691a2a82482a10e11f43d7b627b2ba220dd08f251cb61933c42560f6fcb59060200161048b565b600080806001610e606020860186612a08565b6006811115610e7157610e7161262f565b141561100557610e876040850160208601612338565b610e976060860160408701612338565b610ea76080870160608801612338565b6080870135610ebc60e0890160c08a0161299d565b6040516001600160601b0319606096871b8116602083015294861b851660348201529290941b9092166048820152605c8101919091526001600160c01b031960c092831b8116607c8301524690921b909116608482015260e0850135608c82015260ac0160408051808303601f19018152908290528051602090910120600254633c64f04b60e01b8352600483018290529093506001600160a01b031691508190633c64f04b9060240160206040518083038186803b158015610f7e57600080fd5b505afa158015610f92573d6000803e3d6000fd5b505050506040513d601f19601f82011682018060405250810190610fb69190612ab8565b15156001146110005760405162461bcd60e51b8152602060048201526016602482015275189c9a5919d9481c995b185e481b9bdd08195e1a5cdd60521b6044820152606401610412565b6116b8565b60026110146020860186612a08565b60068111156110255761102561262f565b1415611192574661103c60c0860160a0870161299d565b61104c6060870160408801612338565b61105c6080880160608901612338565b6040516001600160c01b031960c095861b811660208301529390941b90921660288401526001600160601b0319606091821b8116603085015291901b1660448201526080850135605882015260780160408051808303601f19018152908290528051602090910120600254631c13568560e31b8352600483018290529093506001600160a01b03169150819063e09ab4289060240160206040518083038186803b15801561110957600080fd5b505afa15801561111d573d6000803e3d6000fd5b505050506040513d601f19601f820116820180604052508101906111419190612ab8565b15156001146110005760405162461bcd60e51b815260206004820152601960248201527f627269646765207769746864726177206e6f74206578697374000000000000006044820152606401610412565b60036111a16020860186612a08565b60068111156111b2576111b261262f565b14806111db575060046111c86020860186612a08565b60068111156111d9576111d961262f565b145b1561144f576111f06060850160408601612338565b6112006080860160608701612338565b60808601356112156040880160208901612338565b61122560e0890160c08a0161299d565b604051606095861b6001600160601b0319908116602083015294861b851660348201526048810193909352931b909116606882015260c09190911b6001600160c01b031916607c82015260e0850135608482015260a40160408051601f198184030181529190528051602090910120915060036112a56020860186612a08565b60068111156112b6576112b661262f565b141561138557506003546040516301e6472560e01b8152600481018390526001600160a01b039091169081906301e64725906024015b60206040518083038186803b15801561130457600080fd5b505afa158015611318573d6000803e3d6000fd5b505050506040513d601f19601f8201168201806040525081019061133c9190612ab8565b15156001146110005760405162461bcd60e51b81526020600482015260156024820152741b5a5b9d081c9958dbdc99081b9bdd08195e1a5cdd605a1b6044820152606401610412565b50600480546040516301e6472560e01b81529182018390526001600160a01b03169081906301e647259060240160206040518083038186803b1580156113ca57600080fd5b505afa1580156113de573d6000803e3d6000fd5b505050506040513d601f19601f820116820180604052508101906114029190612ab8565b15156001146110005760405162461bcd60e51b81526020600482015260196024820152781dda5d1a191c985dc81c9958dbdc99081b9bdd08195e1a5cdd603a1b6044820152606401610412565b600561145e6020860186612a08565b600681111561146f5761146f61262f565b1480611498575060066114856020860186612a08565b60068111156114965761149661262f565b145b156116b85760056114ac6020860186612a08565b60068111156114bd576114bd61262f565b14156114d557506005546001600160a01b03166114e3565b506006546001600160a01b03165b6114f36060850160408601612338565b6115036080860160608701612338565b60808601356115186040880160208901612338565b61152860e0890160c08a0161299d565b604051606095861b6001600160601b0319908116602083015294861b85166034820152604881019390935290841b8316606883015260c01b6001600160c01b031916607c82015260e087013560848201529183901b1660a482015260b80160408051601f198184030181529190528051602090910120915060056115af6020860186612a08565b60068111156115c0576115c061262f565b14156115f3576040516301e6472560e01b8152600481018390526001600160a01b038216906301e64725906024016112ec565b6040516301e6472560e01b8152600481018390526001600160a01b038216906301e647259060240160206040518083038186803b15801561163357600080fd5b505afa158015611647573d6000803e3d6000fd5b505050506040513d601f19601f8201168201806040525081019061166b9190612ab8565b15156001146116b85760405162461bcd60e51b81526020600482015260196024820152781dda5d1a191c985dc81c9958dbdc99081b9bdd08195e1a5cdd603a1b6044820152606401610412565b600081836040516020016116ce93929190612af1565b6040516020818303038152906040528051906020012092505050919050565b6000805a90506000806117066060880160408901612338565b6001600160a01b031634631f34afff60e21b61172860408b0160208c01612338565b61173860808c0160608d01612338565b60808c013561174d60e08e0160c08f0161299d565b8c8c336040516024016117669796959493929190612b1d565b60408051601f198184030181529181526020820180516001600160e01b03166001600160e01b03199094169390931790925290516117a49190612b74565b60006040518083038185875af1925050503d80600081146117e1576040519150601f19603f3d011682016040523d82523d6000602084013e6117e6565b606091505b5091509150811561180f57808060200190518101906118059190612b90565b9350505050611821565b6118198382611f79565b600093505050505b9392505050565b6000805a90506000806118416060880160408901612338565b6001600160a01b031634632d5bd7e360e11b61172860408b0160208c01612338565b6118736060820160408301612338565b6001600160a01b03167fa635eb05143f74743822bbd96428928de4c8ee8cc578299749be9425c17bb34d600085856118b160e0870160c0880161299d565b8661010001356040516118c8959493929190612bb1565b60405180910390a2505050565b60018260068111156118e9576118e961262f565b141561198a576002546001600160a01b031663cdd1b25d61190a8380612a29565b6119176020860186612a6f565b6119246040880188612a6f565b61193160608a018a612a6f565b6040518963ffffffff1660e01b8152600401611954989796959493929190612bee565b600060405180830381600087803b15801561196e57600080fd5b505af1158015611982573d6000803e3d6000fd5b505050505050565b600282600681111561199e5761199e61262f565b14156119bf576002546001600160a01b031663a21a928061190a8380612a29565b60038260068111156119d3576119d361262f565b14156119f4576003546001600160a01b031663f873430261190a8380612a29565b6005826006811115611a0857611a0861262f565b1415611aca576005546001600160a01b031663f8734302611a298380612a29565b611a366020860186612a6f565b611a436040880188612a6f565b611a5060608a018a612a6f565b6040518963ffffffff1660e01b8152600401611a73989796959493929190612bee565b602060405180830381600087803b158015611a8d57600080fd5b505af1158015611aa1573d6000803e3d6000fd5b505050506040513d601f19601f82011682018060405250810190611ac59190612c4e565b505050565b6004826006811115611ade57611ade61262f565b1415611aff576004546001600160a01b031663a21a928061190a8380612a29565b6006826006811115611b1357611b1361262f565b14156107cc576006546001600160a01b031663a21a9280611a298380612a29565b6040805160a081018252600080825260606020830181905292820181905291810182905260808101919091526040805160a0810190915280611b796020850185612338565b6001600160a01b03168152602001604051806020016040528060008152508152602001836020016020810190611baf9190612338565b6001600160a01b03168152602001611bcd606085016040860161299d565b6001600160401b0316815260200183606001358152509050919050565b6000611bf7898c8c611ff5565b90506000808281526001602052604090205460ff166004811115611c1d57611c1d61262f565b14611c6a5760405162461bcd60e51b815260206004820152601860248201527f6d65737361676520616c726561647920657865637574656400000000000000006044820152606401610412565b6000818152600160209081526040808320805460ff1916600417905551611c979146913091879101612c67565b60408051601f1981840301815282825280516020918201206002549184018190528383018690528251808503840181526060850193849052633416de1160e11b90935293506001600160a01b03169163682dbc2291611d04918d908d908d908d908d908d9060640161293f565b60006040518083038186803b158015611d1c57600080fd5b505afa158015611d30573d6000803e3d6000fd5b50505050600080611d428c8f8f612087565b90506001816002811115611d5857611d5861262f565b1415611d675760019150611dee565b6002816002811115611d7b57611d7b61262f565b1415611de957600084815260016020819052604091829020805460ff1916905560608e015160808f015192517fe49c2c954d381d1448cf824743aeff9da7a1d82078a7c9e5817269cc359bd26c93611dd8939289929091906129d6565b60405180910390a15050505061084c565b600291505b60008481526001602081905260409091208054849260ff1990911690836004811115611e1c57611e1c61262f565b0217905550611e2c84838e612269565b5050505050505050505050505050565b6000805a9050600080611e556060880160408901612338565b6001600160a01b0316346305e5a4c160e11b611e7760808b0160608c01612338565b8a608001358a8a33604051602401611766959493929190612ca6565b6040805160a081018252600080825260606020830181905292820181905291810182905260808101919091526040805160a081019091526000815260208101611edc8480612a29565b8080601f016020809104026020016040519081016040528093929190818152602001838380828437600092019190915250505090825250602090810190611baf9060408601908601612338565b600080546001600160a01b038381166001600160a01b0319831681178455604051919092169283917f8be0079c531659141344cd1fd0a4f28419497f9722a3daafe3b4186f6b6457e09190a35050565b60005a9050600060075445611f8e9190612ce4565b90508084108015611fa95750611fa5604085612d09565b8211155b15611fb057fe5b7fffdd6142bbb721f3400e3908b04b86f60649b2e4d191e3f4c50c32c3e6471d2f611fda846122b7565b604051611fe79190612d2b565b60405180910390a150505050565b602083015180516000919061203b578451604051612029919060200160609190911b6001600160601b031916815260140190565b60405160208183030381529060405290505b600181866040015187606001518860800151468989604051602001612067989796959493929190612d3e565b604051602081830303815290604052805190602001209150509392505050565b6000805a905060006060866020015151600014156121785786604001516001600160a01b0316346040518060600160405280602c8152602001612f2a602c91398051602090910120895160608b01516040516120ed9291908c908c903390602401612dbb565b60408051601f198184030181529181526020820180516001600160e01b03166001600160e01b031990941693909317909252905161212b9190612b74565b60006040518083038185875af1925050503d8060008114612168576040519150601f19603f3d011682016040523d82523d6000602084013e61216d565b606091505b50909250905061224f565b86604001516001600160a01b0316346040518060600160405280602a8152602001612f00602a91398051906020012089602001518a606001518a8a336040516024016121c8959493929190612ded565b60408051601f198184030181529181526020820180516001600160e01b03166001600160e01b03199094169390931790925290516122069190612b74565b60006040518083038185875af1925050503d8060008114612243576040519150601f19603f3d011682016040523d82523d6000602084013e612248565b606091505b5090925090505b811561180f57808060200190518101906118059190612b90565b80604001516001600160a01b03167fa635eb05143f74743822bbd96428928de4c8ee8cc578299749be9425c17bb34d60018585856060015186608001516040516118c8959493929190612bb1565b60606044825110156122fc57505060408051808201909152601d81527f5472616e73616374696f6e2072657665727465642073696c656e746c79000000602082015290565b600482019150818060200190518101906123169190612e53565b92915050565b80356001600160a01b038116811461233357600080fd5b919050565b60006020828403121561234a57600080fd5b6118218261231c565b60008083601f84011261236557600080fd5b5081356001600160401b0381111561237c57600080fd5b60208301915083602082850101111561239457600080fd5b9250929050565b60008083601f8401126123ad57600080fd5b5081356001600160401b038111156123c457600080fd5b6020830191508360208260051b850101111561239457600080fd5b6000806000806000806000806000898b036101a08112156123ff57600080fd5b8a356001600160401b038082111561241657600080fd5b6124228e838f01612353565b909c509a508a9150610120601f198401121561243d57600080fd5b60208d0199506101408d013592508083111561245857600080fd5b6124648e848f0161239b565b90995097506101608d013592508891508083111561248157600080fd5b61248d8e848f0161239b565b90975095506101808d01359250869150808311156124aa57600080fd5b50506124b88c828d0161239b565b915080935050809150509295985092959850929598565b6000608082840312156124e157600080fd5b50919050565b600080604083850312156124fa57600080fd5b82356001600160401b038082111561251157600080fd5b61251d868387016124cf565b9350602085013591508082111561253357600080fd5b5083016101a0818603121561254757600080fd5b809150509250929050565b60006020828403121561256457600080fd5b5035919050565b60008060008060008060008060006101008a8c03121561258a57600080fd5b89356001600160401b03808211156125a157600080fd5b6125ad8d838e01612353565b909b5099508991506125c28d60208e016124cf565b985060a08c01359150808211156125d857600080fd5b6125e48d838e0161239b565b909850965060c08c01359150808211156125fd57600080fd5b6126098d838e0161239b565b909650945060e08c013591508082111561262257600080fd5b506124b88c828d0161239b565b634e487b7160e01b600052602160045260246000fd5b600581106126555761265561262f565b9052565b602081016123168284612645565b600080600080600080600080600060a08a8c03121561268557600080fd5b89356001600160401b038082111561269c57600080fd5b6126a88d838e01612353565b909b50995060208c01359150808211156126c157600080fd5b6126cd8d838e016124cf565b985060408c01359150808211156126e357600080fd5b6126ef8d838e0161239b565b909850965060608c013591508082111561270857600080fd5b6127148d838e0161239b565b909650945060808c013591508082111561262257600080fd5b6020808252818101527f4f776e61626c653a2063616c6c6572206973206e6f7420746865206f776e6572604082015260600190565b6020808252600f908201526e696e76616c6964206164647265737360881b604082015260600190565b8581528460208201528284604083013760409201918201526060019392505050565b60005b838110156127c85781810151838201526020016127b0565b838111156127d7576000848401525b50505050565b600081518084526127f58160208601602086016127ad565b601f01601f19169290920160200192915050565b81835281816020850137506000828201602090810191909152601f909101601f19169091010190565b81835260006020808501808196508560051b810191508460005b878110156128b55782840389528135601e1988360301811261286d57600080fd5b870180356001600160401b0381111561288557600080fd5b80360389131561289457600080fd5b6128a18682898501612809565b9a87019a955050509084019060010161284c565b5091979650505050505050565b8183526000602080850194508260005b858110156128fe576001600160a01b036128eb8361231c565b16875295820195908201906001016128d2565b509495945050505050565b81835260006001600160fb1b0383111561292257600080fd5b8260051b8083602087013760009401602001938452509192915050565b608081526000612952608083018a6127dd565b828103602084015261296581898b612832565b9050828103604084015261297a8187896128c2565b9050828103606084015261298f818587612909565b9a9950505050505050505050565b6000602082840312156129af57600080fd5b81356001600160401b038116811461182157600080fd5b600281106126555761265561262f565b608081016129e482876129c6565b8460208301526001600160401b038416604083015282606083015295945050505050565b600060208284031215612a1a57600080fd5b81356007811061182157600080fd5b6000808335601e19843603018112612a4057600080fd5b8301803591506001600160401b03821115612a5a57600080fd5b60200191503681900382131561239457600080fd5b6000808335601e19843603018112612a8657600080fd5b8301803591506001600160401b03821115612aa057600080fd5b6020019150600581901b360382131561239457600080fd5b600060208284031215612aca57600080fd5b8151801515811461182157600080fd5b60028110612aea57612aea61262f565b60f81b9052565b612afb8185612ada565b60609290921b6001600160601b03191660018301526015820152603501919050565b600060018060a01b03808a16835280891660208401528760408401526001600160401b038716606084015260c06080840152612b5d60c084018688612809565b915080841660a08401525098975050505050505050565b60008251612b868184602087016127ad565b9190910192915050565b600060208284031215612ba257600080fd5b81516003811061182157600080fd5b60a08101612bbf82886129c6565b856020830152612bd26040830186612645565b6001600160401b03939093166060820152608001529392505050565b608081526000612c02608083018a8c612809565b8281036020840152612c1581898b612832565b90508281036040840152612c2a8187896128c2565b90508281036060840152612c3f818587612909565b9b9a5050505050505050505050565b600060208284031215612c6057600080fd5b5051919050565b8381526bffffffffffffffffffffffff198360601b16602082015260008251612c978160348501602087016127ad565b91909101603401949350505050565b600060018060a01b03808816835286602084015260806040840152612ccf608084018688612809565b91508084166060840152509695505050505050565b600082821015612d0457634e487b7160e01b600052601160045260246000fd5b500390565b600082612d2657634e487b7160e01b600052601260045260246000fd5b500490565b60208152600061182160208301846127dd565b612d48818a612ada565b60008851612d5d816001850160208d016127ad565b606089901b6001600160601b03191660019184019182015260c088811b6001600160c01b03199081166015840152601d83018990529087901b16603d8201528385604583013760009301604501928352509098975050505050505050565b600060018060a01b0380881683526001600160401b038716602084015260806040840152612ccf608084018688612809565b608081526000612e0060808301886127dd565b6001600160401b03871660208401528281036040840152612e22818688612809565b91505060018060a01b03831660608301529695505050505050565b634e487b7160e01b600052604160045260246000fd5b600060208284031215612e6557600080fd5b81516001600160401b0380821115612e7c57600080fd5b818401915084601f830112612e9057600080fd5b815181811115612ea257612ea2612e3d565b604051601f8201601f19908116603f01168101908382118183101715612eca57612eca612e3d565b81604052828152876020848701011115612ee357600080fd5b612ef48360208301602088016127ad565b97965050505050505056fe657865637574654d6573736167652862797465732c75696e7436342c62797465732c6164647265737329657865637574654d65737361676528616464726573732c75696e7436342c62797465732c6164647265737329a2646970667358221220d42a8def6068afb430e9e5eb034d73e494360e4024bcdd10bf275204456b08d464736f6c63430008090033",
  "linkReferences": {},
  "deployedLinkReferences": {}
}