{
  "_format": "hh-sol-artifact-1",
  "contractName": "Signers",
  "sourceName": "contracts/cBridge/liquidity-bridge/Signers.sol",
  "abi": [
    {
      "anonymous": false,
      "inputs": [
        {
          "indexed": true,
          "internalType": "address",
          "name": "previousOwner",
          "type": "address"
        },
        {
          "indexed": true,
          "internalType": "address",
          "name": "newOwner",
          "type": "address"
        }
      ],
      "name": "OwnershipTransferred",
      "type": "event"
    },
    {
      "anonymous": false,
      "inputs": [
        {
          "indexed": false,
          "internalType": "uint256",
          "name": "resetTime",
          "type": "uint256"
        }
      ],
      "name": "ResetNotification",
      "type": "event"
    },
    {
      "anonymous": false,
      "inputs": [
        {
          "indexed": false,
          "internalType": "address[]",
          "name": "_signers",
          "type": "address[]"
        },
        {
          "indexed": false,
          "internalType": "uint256[]",
          "name": "_powers",
          "type": "uint256[]"
        }
      ],
      "name": "SignersUpdated",
      "type": "event"
    },
    {
      "inputs": [
        {
          "internalType": "uint256",
          "name": "period",
          "type": "uint256"
        }
      ],
      "name": "increaseNoticePeriod",
      "outputs": [],
      "stateMutability": "nonpayable",
      "type": "function"
    },
    {
      "inputs": [],
      "name": "noticePeriod",
      "outputs": [
        {
          "internalType": "uint256",
          "name": "",
          "type": "uint256"
        }
      ],
      "stateMutability": "view",
      "type": "function"
    },
    {
      "inputs": [],
      "name": "notifyResetSigners",
      "outputs": [],
      "stateMutability": "nonpayable",
      "type": "function"
    },
    {
      "inputs": [],
      "name": "owner",
      "outputs": [
        {
          "internalType": "address",
          "name": "",
          "type": "address"
        }
      ],
      "stateMutability": "view",
      "type": "function"
    },
    {
      "inputs": [
        {
          "internalType": "address[]",
          "name": "_signers",
          "type": "address[]"
        },
        {
          "internalType": "uint256[]",
          "name": "_powers",
          "type": "uint256[]"
        }
      ],
      "name": "resetSigners",
      "outputs": [],
      "stateMutability": "nonpayable",
      "type": "function"
    },
    {
      "inputs": [],
      "name": "resetTime",
      "outputs": [
        {
          "internalType": "uint256",
          "name": "",
          "type": "uint256"
        }
      ],
      "stateMutability": "view",
      "type": "function"
    },
    {
      "inputs": [],
      "name": "ssHash",
      "outputs": [
        {
          "internalType": "bytes32",
          "name": "",
          "type": "bytes32"
        }
      ],
      "stateMutability": "view",
      "type": "function"
    },
    {
      "inputs": [
        {
          "internalType": "address",
          "name": "newOwner",
          "type": "address"
        }
      ],
      "name": "transferOwnership",
      "outputs": [],
      "stateMutability": "nonpayable",
      "type": "function"
    },
    {
      "inputs": [],
      "name": "triggerTime",
      "outputs": [
        {
          "internalType": "uint256",
          "name": "",
          "type": "uint256"
        }
      ],
      "stateMutability": "view",
      "type": "function"
    },
    {
      "inputs": [
        {
          "internalType": "uint256",
          "name": "_triggerTime",
          "type": "uint256"
        },
        {
          "internalType": "address[]",
          "name": "_newSigners",
          "type": "address[]"
        },
        {
          "internalType": "uint256[]",
          "name": "_newPowers",
          "type": "uint256[]"
        },
        {
          "internalType": "bytes[]",
          "name": "_sigs",
          "type": "bytes[]"
        },
        {
          "internalType": "address[]",
          "name": "_curSigners",
          "type": "address[]"
        },
        {
          "internalType": "uint256[]",
          "name": "_curPowers",
          "type": "uint256[]"
        }
      ],
      "name": "updateSigners",
      "outputs": [],
      "stateMutability": "nonpayable",
      "type": "function"
    },
    {
      "inputs": [
        {
          "internalType": "bytes",
          "name": "_msg",
          "type": "bytes"
        },
        {
          "internalType": "bytes[]",
          "name": "_sigs",
          "type": "bytes[]"
        },
        {
          "internalType": "address[]",
          "name": "_signers",
          "type": "address[]"
        },
        {
          "internalType": "uint256[]",
          "name": "_powers",
          "type": "uint256[]"
        }
      ],
      "name": "verifySigs",
      "outputs": [],
      "stateMutability": "view",
      "type": "function"
    }
  ],
  "bytecode": "0x608060405234801561001057600080fd5b5061001a3361001f565b61006f565b600080546001600160a01b038381166001600160a01b0319831681178455604051919092169283917f8be0079c531659141344cd1fd0a4f28419497f9722a3daafe3b4186f6b6457e09190a35050565b6113fc8061007e6000396000f3fe608060405234801561001057600080fd5b50600436106100a95760003560e01c80639b14d4c6116100715780639b14d4c61461010b578063a7bdf45a14610114578063ba2cb25c14610127578063d0790da91461013a578063f20c922a14610143578063f2fde38b1461015657600080fd5b806325c38b9f146100ae578063370fb47b146100b857806365a114f1146100d4578063682dbc22146100dd5780638da5cb5b146100f0575b600080fd5b6100b6610169565b005b6100c160025481565b6040519081526020015b60405180910390f35b6100c160035481565b6100b66100eb366004610e29565b6101f2565b6000546040516001600160a01b0390911681526020016100cb565b6100c160045481565b6100b6610122366004610f57565b6102de565b6100b6610135366004610fc3565b610377565b6100c160015481565b6100b66101513660046110c3565b6104d7565b6100b66101643660046110f8565b610572565b3361017c6000546001600160a01b031690565b6001600160a01b0316146101ab5760405162461bcd60e51b81526004016101a29061111a565b60405180910390fd5b6004546101b89042611165565b60038190556040519081527f68e825132f7d4bc837dea2d64ac9fc19912bf0224b67f9317d8f1a917f5304a19060200160405180910390a1565b60008484848460405160200161020b94939291906111e9565b60405160208183030381529060405280519060200120905080600154146102745760405162461bcd60e51b815260206004820152601860248201527f4d69736d617463682063757272656e74207369676e657273000000000000000060448201526064016101a2565b87516020808a0191909120604080517f19457468657265756d205369676e6564204d6573736167653a0a33320000000081850152603c8082019390935281518082039093018352605c01905280519101206102d49088888888888861061c565b5050505050505050565b336102f16000546001600160a01b031690565b6001600160a01b0316146103175760405162461bcd60e51b81526004016101a29061111a565b600354421161035f5760405162461bcd60e51b81526020600482015260146024820152736e6f742072656163682072657365742074696d6560601b60448201526064016101a2565b600019600355610371848484846108fe565b50505050565b6002548b116103c85760405162461bcd60e51b815260206004820152601e60248201527f547269676765722074696d65206973206e6f7420696e6372656173696e67000060448201526064016101a2565b6103d442610e10611165565b8b106104225760405162461bcd60e51b815260206004820152601960248201527f547269676765722074696d6520697320746f6f206c617267650000000000000060448201526064016101a2565b6000463060405160200161046892919091825260601b6bffffffffffffffffffffffff191660208201526c5570646174655369676e65727360981b603482015260410190565b6040516020818303038152906040528051906020012090506104b8818d8d8d8d8d60405160200161049e9695949392919061120a565b6040516020818303038152906040528888888888886101f2565b6104c48b8b8b8b6108fe565b5050506002989098555050505050505050565b336104ea6000546001600160a01b031690565b6001600160a01b0316146105105760405162461bcd60e51b81526004016101a29061111a565b600454811161056d5760405162461bcd60e51b815260206004820152602360248201527f6e6f7469636520706572696f642063616e206f6e6c7920626520696e637265616044820152621cd95960ea1b60648201526084016101a2565b600455565b336105856000546001600160a01b031690565b6001600160a01b0316146105ab5760405162461bcd60e51b81526004016101a29061111a565b6001600160a01b0381166106105760405162461bcd60e51b815260206004820152602660248201527f4f776e61626c653a206e6577206f776e657220697320746865207a65726f206160448201526564647265737360d01b60648201526084016101a2565b61061981610a6c565b50565b82811461063b5760405162461bcd60e51b81526004016101a290611232565b6000805b8481101561067f5783838281811061065957610659611275565b905060200201358261066b9190611165565b9150806106778161128b565b91505061063f565b506000600361068f8360026112a6565b61069991906112c5565b6106a4906001611165565b905060008080805b8a8110156108b757600061072f8d8d848181106106cb576106cb611275565b90506020028101906106dd91906112e7565b8080601f016020809104026020016040519081016040528093929190818152602001838380828437600081840152601f19601f820116905080830192505050505050508f610abc90919063ffffffff16565b9050836001600160a01b0316816001600160a01b0316116107925760405162461bcd60e51b815260206004820152601e60248201527f7369676e657273206e6f7420696e20617363656e64696e67206f72646572000060448201526064016101a2565b8093505b8a8a848181106107a8576107a8611275565b90506020020160208101906107bd91906110f8565b6001600160a01b0316816001600160a01b0316111561082a576107e1600184611165565b92508983106108255760405162461bcd60e51b815260206004820152601060248201526f1cda59db995c881b9bdd08199bdd5b9960821b60448201526064016101a2565b610796565b8a8a8481811061083c5761083c611275565b905060200201602081019061085191906110f8565b6001600160a01b0316816001600160a01b031614156108915788888481811061087c5761087c611275565b905060200201358561088e9190611165565b94505b8585106108a457505050505050506108f5565b50806108af8161128b565b9150506106ac565b5060405162461bcd60e51b81526020600482015260126024820152711c5d5bdc9d5b481b9bdd081c995858da195960721b60448201526064016101a2565b50505050505050565b82811461091d5760405162461bcd60e51b81526004016101a290611232565b6000805b848110156109f657816001600160a01b031686868381811061094557610945611275565b905060200201602081019061095a91906110f8565b6001600160a01b0316116109bb5760405162461bcd60e51b815260206004820152602260248201527f4e6577207369676e657273206e6f7420696e20617363656e64696e67206f726460448201526132b960f11b60648201526084016101a2565b8585828181106109cd576109cd611275565b90506020020160208101906109e291906110f8565b9150806109ee8161128b565b915050610921565b5084848484604051602001610a0e94939291906111e9565b60408051601f198184030181529082905280516020909101206001557ff126123539a68393c55697f617e7d1148e371988daed246c2f41da99965a23f890610a5d90879087908790879061132e565b60405180910390a15050505050565b600080546001600160a01b038381166001600160a01b0319831681178455604051919092169283917f8be0079c531659141344cd1fd0a4f28419497f9722a3daafe3b4186f6b6457e09190a35050565b6000806000610acb8585610ae0565b91509150610ad881610b26565b509392505050565b600080825160411415610b175760208301516040840151606085015160001a610b0b87828585610ce1565b94509450505050610b1f565b506000905060025b9250929050565b6000816004811115610b3a57610b3a6113b0565b1415610b435750565b6001816004811115610b5757610b576113b0565b1415610ba55760405162461bcd60e51b815260206004820152601860248201527f45434453413a20696e76616c6964207369676e6174757265000000000000000060448201526064016101a2565b6002816004811115610bb957610bb96113b0565b1415610c075760405162461bcd60e51b815260206004820152601f60248201527f45434453413a20696e76616c6964207369676e6174757265206c656e6774680060448201526064016101a2565b6003816004811115610c1b57610c1b6113b0565b1415610c745760405162461bcd60e51b815260206004820152602260248201527f45434453413a20696e76616c6964207369676e6174757265202773272076616c604482015261756560f01b60648201526084016101a2565b6004816004811115610c8857610c886113b0565b14156106195760405162461bcd60e51b815260206004820152602260248201527f45434453413a20696e76616c6964207369676e6174757265202776272076616c604482015261756560f01b60648201526084016101a2565b6000807f7fffffffffffffffffffffffffffffff5d576e7357a4501ddfe92f46681b20a0831115610d185750600090506003610dc5565b8460ff16601b14158015610d3057508460ff16601c14155b15610d415750600090506004610dc5565b6040805160008082526020820180845289905260ff881692820192909252606081018690526080810185905260019060a0016020604051602081039080840390855afa158015610d95573d6000803e3d6000fd5b5050604051601f1901519150506001600160a01b038116610dbe57600060019250925050610dc5565b9150600090505b94509492505050565b634e487b7160e01b600052604160045260246000fd5b60008083601f840112610df657600080fd5b50813567ffffffffffffffff811115610e0e57600080fd5b6020830191508360208260051b8501011115610b1f57600080fd5b60008060008060008060006080888a031215610e4457600080fd5b873567ffffffffffffffff80821115610e5c57600080fd5b818a0191508a601f830112610e7057600080fd5b813581811115610e8257610e82610dce565b604051601f8201601f19908116603f01168101908382118183101715610eaa57610eaa610dce565b816040528281528d6020848701011115610ec357600080fd5b82602086016020830137600094508460208483010152809b5050505060208a013581811115610ef0578283fd5b610efc8c828d01610de4565b90995097505060408a013581811115610f13578283fd5b610f1f8c828d01610de4565b90975095505060608a013581811115610f36578283fd5b610f428c828d01610de4565b9a9d999c50979a509598949794955050505050565b60008060008060408587031215610f6d57600080fd5b843567ffffffffffffffff80821115610f8557600080fd5b610f9188838901610de4565b90965094506020870135915080821115610faa57600080fd5b50610fb787828801610de4565b95989497509550505050565b600080600080600080600080600080600060c08c8e031215610fe457600080fd5b8b359a5067ffffffffffffffff8060208e0135111561100257600080fd5b6110128e60208f01358f01610de4565b909b50995060408d013581101561102857600080fd5b6110388e60408f01358f01610de4565b909950975060608d013581101561104e57600080fd5b61105e8e60608f01358f01610de4565b909750955060808d013581101561107457600080fd5b6110848e60808f01358f01610de4565b909550935060a08d013581101561109a57600080fd5b506110ab8d60a08e01358e01610de4565b81935080925050509295989b509295989b9093969950565b6000602082840312156110d557600080fd5b5035919050565b80356001600160a01b03811681146110f357600080fd5b919050565b60006020828403121561110a57600080fd5b611113826110dc565b9392505050565b6020808252818101527f4f776e61626c653a2063616c6c6572206973206e6f7420746865206f776e6572604082015260600190565b634e487b7160e01b600052601160045260246000fd5b600082198211156111785761117861114f565b500190565b60008160005b848110156111b2576001600160a01b0361119c836110dc565b1686526020958601959190910190600101611183565b5093949350505050565b60006001600160fb1b038311156111d257600080fd5b8260051b8083863760009401938452509192915050565b60006112006111f983878961117d565b84866111bc565b9695505050505050565b86815285602082015260006112266111f960408401878961117d565b98975050505050505050565b60208082526023908201527f7369676e65727320616e6420706f77657273206c656e677468206e6f74206d616040820152620e8c6d60eb1b606082015260800190565b634e487b7160e01b600052603260045260246000fd5b600060001982141561129f5761129f61114f565b5060010190565b60008160001904831182151516156112c0576112c061114f565b500290565b6000826112e257634e487b7160e01b600052601260045260246000fd5b500490565b6000808335601e198436030181126112fe57600080fd5b83018035915067ffffffffffffffff82111561131957600080fd5b602001915036819003821315610b1f57600080fd5b6040808252810184905260008560608301825b8781101561136f576001600160a01b0361135a846110dc565b16825260209283019290910190600101611341565b5083810360208501528481526001600160fb1b0385111561138f57600080fd5b8460051b915081866020830137600091016020019081529695505050505050565b634e487b7160e01b600052602160045260246000fdfea26469706673582212206931dcaf2f0b22095e45c1cd1a37c8e74d8396d032f0fb401bb346453f4c933d64736f6c63430008090033",
  "linkReferences": {},
  "deployedLinkReferences": {}
}